{
  "abi": [
    {
      "inputs": [
        {
          "internalType": "address",
          "name": "creator",
          "type": "address"
        },
        {
          "internalType": "string",
          "name": "campaignName",
          "type": "string"
        },
        {
          "internalType": "uint256",
          "name": "balance",
          "type": "uint256"
        },
        {
          "internalType": "uint256",
          "name": "cost",
          "type": "uint256"
        }
      ],
      "stateMutability": "nonpayable",
      "type": "constructor"
    },
    {
      "inputs": [
        {
          "internalType": "uint256",
          "name": "donate",
          "type": "uint256"
        }
      ],
      "name": "contribute",
      "outputs": [],
      "stateMutability": "payable",
      "type": "function"
    },
    {
      "inputs": [],
      "name": "getCampaign",
      "outputs": [
        {
          "internalType": "address",
          "name": "",
          "type": "address"
        },
        {
          "internalType": "uint256",
          "name": "",
          "type": "uint256"
        },
        {
          "internalType": "string",
          "name": "",
          "type": "string"
        },
        {
          "internalType": "uint256",
          "name": "",
          "type": "uint256"
        },
        {
          "internalType": "uint256",
          "name": "",
          "type": "uint256"
        },
        {
          "internalType": "uint256",
          "name": "",
          "type": "uint256"
        },
        {
          "internalType": "bool",
          "name": "",
          "type": "bool"
        }
      ],
      "stateMutability": "view",
      "type": "function"
    },
    {
      "inputs": [],
      "name": "getContributorDonate",
      "outputs": [
        {
          "internalType": "uint256",
          "name": "",
          "type": "uint256"
        }
      ],
      "stateMutability": "view",
      "type": "function"
    }
  ],
  "devdoc": {
    "kind": "dev",
    "methods": {},
    "version": 1
  },
  "evm": {
    "assembly": "    /* \"Campaign.sol\":744:2479  contract Campaign {... */\n  mstore(0x40, 0x80)\n    /* \"Campaign.sol\":1108:1444  constructor(address creator, string memory campaignName, uint balance, uint cost) {... */\n  callvalue\n  dup1\n  iszero\n  tag_1\n  jumpi\n  0x00\n  dup1\n  revert\ntag_1:\n  pop\n  mload(0x40)\n  sub(codesize, bytecodeSize)\n  dup1\n  bytecodeSize\n  dup4\n  codecopy\n  dup2\n  dup2\n  add\n  0x40\n  mstore\n  dup2\n  add\n  swap1\n  tag_2\n  swap2\n  swap1\n  tag_3\n  jump\t// in\ntag_2:\n    /* \"Campaign.sol\":1228:1235  creator */\n  dup4\n    /* \"Campaign.sol\":1201:1209  campaign */\n  0x00\n    /* \"Campaign.sol\":1201:1217  campaign.manager */\n  dup1\n  add\n  0x00\n    /* \"Campaign.sol\":1201:1236  campaign.manager = payable(creator) */\n  0x0100\n  exp\n  dup2\n  sload\n  dup2\n  0xffffffffffffffffffffffffffffffffffffffff\n  mul\n  not\n  and\n  swap1\n  dup4\n  0xffffffffffffffffffffffffffffffffffffffff\n  and\n  mul\n  or\n  swap1\n  sstore\n  pop\n    /* \"Campaign.sol\":1263:1275  campaignName */\n  dup3\n    /* \"Campaign.sol\":1247:1255  campaign */\n  0x00\n    /* \"Campaign.sol\":1247:1260  campaign.name */\n  0x01\n  add\n    /* \"Campaign.sol\":1247:1275  campaign.name = campaignName */\n  swap1\n  dup1\n  mload\n  swap1\n  0x20\n  add\n  swap1\n  tag_6\n  swap3\n  swap2\n  swap1\n  tag_7\n  jump\t// in\ntag_6:\n  pop\n    /* \"Campaign.sol\":1313:1320  balance */\n  dup2\n    /* \"Campaign.sol\":1286:1294  campaign */\n  0x00\n    /* \"Campaign.sol\":1286:1310  campaign.requiredBalance */\n  0x02\n  add\n    /* \"Campaign.sol\":1286:1320  campaign.requiredBalance = balance */\n  dup2\n  swap1\n  sstore\n  pop\n    /* \"Campaign.sol\":1355:1359  cost */\n  dup1\n    /* \"Campaign.sol\":1331:1339  campaign */\n  0x00\n    /* \"Campaign.sol\":1331:1352  campaign.requiredCost */\n  0x03\n  add\n    /* \"Campaign.sol\":1331:1359  campaign.requiredCost = cost */\n  dup2\n  swap1\n  sstore\n  pop\n    /* \"Campaign.sol\":1399:1400  0 */\n  0x00\n    /* \"Campaign.sol\":1370:1378  campaign */\n  dup1\n    /* \"Campaign.sol\":1370:1396  campaign.contributorsCount */\n  0x05\n  add\n    /* \"Campaign.sol\":1370:1400  campaign.contributorsCount = 0 */\n  dup2\n  swap1\n  sstore\n  pop\n    /* \"Campaign.sol\":1431:1436  false */\n  0x00\n    /* \"Campaign.sol\":1411:1419  campaign */\n  dup1\n    /* \"Campaign.sol\":1411:1428  campaign.complete */\n  0x06\n  add\n  0x00\n    /* \"Campaign.sol\":1411:1436  campaign.complete = false */\n  0x0100\n  exp\n  dup2\n  sload\n  dup2\n  0xff\n  mul\n  not\n  and\n  swap1\n  dup4\n  iszero\n  iszero\n  mul\n  or\n  swap1\n  sstore\n  pop\n    /* \"Campaign.sol\":1108:1444  constructor(address creator, string memory campaignName, uint balance, uint cost) {... */\n  pop\n  pop\n  pop\n  pop\n    /* \"Campaign.sol\":744:2479  contract Campaign {... */\n  jump(tag_8)\ntag_7:\n  dup3\n  dup1\n  sload\n  tag_9\n  swap1\n  tag_10\n  jump\t// in\ntag_9:\n  swap1\n  0x00\n  mstore\n  keccak256(0x00, 0x20)\n  swap1\n  0x1f\n  add\n  0x20\n  swap1\n  div\n  dup2\n  add\n  swap3\n  dup3\n  tag_12\n  jumpi\n  0x00\n  dup6\n  sstore\n  jump(tag_11)\ntag_12:\n  dup3\n  0x1f\n  lt\n  tag_13\n  jumpi\n  dup1\n  mload\n  not(0xff)\n  and\n  dup4\n  dup1\n  add\n  or\n  dup6\n  sstore\n  jump(tag_11)\ntag_13:\n  dup3\n  dup1\n  add\n  0x01\n  add\n  dup6\n  sstore\n  dup3\n  iszero\n  tag_11\n  jumpi\n  swap2\n  dup3\n  add\ntag_14:\n  dup3\n  dup2\n  gt\n  iszero\n  tag_15\n  jumpi\n  dup3\n  mload\n  dup3\n  sstore\n  swap2\n  0x20\n  add\n  swap2\n  swap1\n  0x01\n  add\n  swap1\n  jump(tag_14)\ntag_15:\ntag_11:\n  pop\n  swap1\n  pop\n  tag_16\n  swap2\n  swap1\n  tag_17\n  jump\t// in\ntag_16:\n  pop\n  swap1\n  jump\t// out\ntag_17:\ntag_18:\n  dup1\n  dup3\n  gt\n  iszero\n  tag_19\n  jumpi\n  0x00\n  dup2\n  0x00\n  swap1\n  sstore\n  pop\n  0x01\n  add\n  jump(tag_18)\ntag_19:\n  pop\n  swap1\n  jump\t// out\n    /* \"#utility.yul\":7:82   */\ntag_20:\n    /* \"#utility.yul\":40:46   */\n  0x00\n    /* \"#utility.yul\":73:75   */\n  0x40\n    /* \"#utility.yul\":67:76   */\n  mload\n    /* \"#utility.yul\":57:76   */\n  swap1\n  pop\n    /* \"#utility.yul\":7:82   */\n  swap1\n  jump\t// out\n    /* \"#utility.yul\":88:205   */\ntag_21:\n    /* \"#utility.yul\":197:198   */\n  0x00\n    /* \"#utility.yul\":194:195   */\n  dup1\n    /* \"#utility.yul\":187:199   */\n  revert\n    /* \"#utility.yul\":211:328   */\ntag_22:\n    /* \"#utility.yul\":320:321   */\n  0x00\n    /* \"#utility.yul\":317:318   */\n  dup1\n    /* \"#utility.yul\":310:322   */\n  revert\n    /* \"#utility.yul\":334:460   */\ntag_23:\n    /* \"#utility.yul\":371:378   */\n  0x00\n    /* \"#utility.yul\":411:453   */\n  0xffffffffffffffffffffffffffffffffffffffff\n    /* \"#utility.yul\":404:409   */\n  dup3\n    /* \"#utility.yul\":400:454   */\n  and\n    /* \"#utility.yul\":389:454   */\n  swap1\n  pop\n    /* \"#utility.yul\":334:460   */\n  swap2\n  swap1\n  pop\n  jump\t// out\n    /* \"#utility.yul\":466:562   */\ntag_24:\n    /* \"#utility.yul\":503:510   */\n  0x00\n    /* \"#utility.yul\":532:556   */\n  tag_47\n    /* \"#utility.yul\":550:555   */\n  dup3\n    /* \"#utility.yul\":532:556   */\n  tag_23\n  jump\t// in\ntag_47:\n    /* \"#utility.yul\":521:556   */\n  swap1\n  pop\n    /* \"#utility.yul\":466:562   */\n  swap2\n  swap1\n  pop\n  jump\t// out\n    /* \"#utility.yul\":568:690   */\ntag_25:\n    /* \"#utility.yul\":641:665   */\n  tag_49\n    /* \"#utility.yul\":659:664   */\n  dup2\n    /* \"#utility.yul\":641:665   */\n  tag_24\n  jump\t// in\ntag_49:\n    /* \"#utility.yul\":634:639   */\n  dup2\n    /* \"#utility.yul\":631:666   */\n  eq\n    /* \"#utility.yul\":621:684   */\n  tag_50\n  jumpi\n    /* \"#utility.yul\":680:681   */\n  0x00\n    /* \"#utility.yul\":677:678   */\n  dup1\n    /* \"#utility.yul\":670:682   */\n  revert\n    /* \"#utility.yul\":621:684   */\ntag_50:\n    /* \"#utility.yul\":568:690   */\n  pop\n  jump\t// out\n    /* \"#utility.yul\":696:839   */\ntag_26:\n    /* \"#utility.yul\":753:758   */\n  0x00\n    /* \"#utility.yul\":784:790   */\n  dup2\n    /* \"#utility.yul\":778:791   */\n  mload\n    /* \"#utility.yul\":769:791   */\n  swap1\n  pop\n    /* \"#utility.yul\":800:833   */\n  tag_52\n    /* \"#utility.yul\":827:832   */\n  dup2\n    /* \"#utility.yul\":800:833   */\n  tag_25\n  jump\t// in\ntag_52:\n    /* \"#utility.yul\":696:839   */\n  swap3\n  swap2\n  pop\n  pop\n  jump\t// out\n    /* \"#utility.yul\":845:962   */\ntag_27:\n    /* \"#utility.yul\":954:955   */\n  0x00\n    /* \"#utility.yul\":951:952   */\n  dup1\n    /* \"#utility.yul\":944:956   */\n  revert\n    /* \"#utility.yul\":968:1085   */\ntag_28:\n    /* \"#utility.yul\":1077:1078   */\n  0x00\n    /* \"#utility.yul\":1074:1075   */\n  dup1\n    /* \"#utility.yul\":1067:1079   */\n  revert\n    /* \"#utility.yul\":1091:1193   */\ntag_29:\n    /* \"#utility.yul\":1132:1138   */\n  0x00\n    /* \"#utility.yul\":1183:1185   */\n  0x1f\n    /* \"#utility.yul\":1179:1186   */\n  not\n    /* \"#utility.yul\":1174:1176   */\n  0x1f\n    /* \"#utility.yul\":1167:1172   */\n  dup4\n    /* \"#utility.yul\":1163:1177   */\n  add\n    /* \"#utility.yul\":1159:1187   */\n  and\n    /* \"#utility.yul\":1149:1187   */\n  swap1\n  pop\n    /* \"#utility.yul\":1091:1193   */\n  swap2\n  swap1\n  pop\n  jump\t// out\n    /* \"#utility.yul\":1199:1379   */\ntag_30:\n    /* \"#utility.yul\":1247:1324   */\n  0x4e487b7100000000000000000000000000000000000000000000000000000000\n    /* \"#utility.yul\":1244:1245   */\n  0x00\n    /* \"#utility.yul\":1237:1325   */\n  mstore\n    /* \"#utility.yul\":1344:1348   */\n  0x41\n    /* \"#utility.yul\":1341:1342   */\n  0x04\n    /* \"#utility.yul\":1334:1349   */\n  mstore\n    /* \"#utility.yul\":1368:1372   */\n  0x24\n    /* \"#utility.yul\":1365:1366   */\n  0x00\n    /* \"#utility.yul\":1358:1373   */\n  revert\n    /* \"#utility.yul\":1385:1666   */\ntag_31:\n    /* \"#utility.yul\":1468:1495   */\n  tag_58\n    /* \"#utility.yul\":1490:1494   */\n  dup3\n    /* \"#utility.yul\":1468:1495   */\n  tag_29\n  jump\t// in\ntag_58:\n    /* \"#utility.yul\":1460:1466   */\n  dup2\n    /* \"#utility.yul\":1456:1496   */\n  add\n    /* \"#utility.yul\":1598:1604   */\n  dup2\n    /* \"#utility.yul\":1586:1596   */\n  dup2\n    /* \"#utility.yul\":1583:1605   */\n  lt\n    /* \"#utility.yul\":1562:1580   */\n  0xffffffffffffffff\n    /* \"#utility.yul\":1550:1560   */\n  dup3\n    /* \"#utility.yul\":1547:1581   */\n  gt\n    /* \"#utility.yul\":1544:1606   */\n  or\n    /* \"#utility.yul\":1541:1629   */\n  iszero\n  tag_59\n  jumpi\n    /* \"#utility.yul\":1609:1627   */\n  tag_60\n  tag_30\n  jump\t// in\ntag_60:\n    /* \"#utility.yul\":1541:1629   */\ntag_59:\n    /* \"#utility.yul\":1649:1659   */\n  dup1\n    /* \"#utility.yul\":1645:1647   */\n  0x40\n    /* \"#utility.yul\":1638:1660   */\n  mstore\n    /* \"#utility.yul\":1428:1666   */\n  pop\n    /* \"#utility.yul\":1385:1666   */\n  pop\n  pop\n  jump\t// out\n    /* \"#utility.yul\":1672:1801   */\ntag_32:\n    /* \"#utility.yul\":1706:1712   */\n  0x00\n    /* \"#utility.yul\":1733:1753   */\n  tag_62\n  tag_20\n  jump\t// in\ntag_62:\n    /* \"#utility.yul\":1723:1753   */\n  swap1\n  pop\n    /* \"#utility.yul\":1762:1795   */\n  tag_63\n    /* \"#utility.yul\":1790:1794   */\n  dup3\n    /* \"#utility.yul\":1782:1788   */\n  dup3\n    /* \"#utility.yul\":1762:1795   */\n  tag_31\n  jump\t// in\ntag_63:\n    /* \"#utility.yul\":1672:1801   */\n  swap2\n  swap1\n  pop\n  jump\t// out\n    /* \"#utility.yul\":1807:2115   */\ntag_33:\n    /* \"#utility.yul\":1869:1873   */\n  0x00\n    /* \"#utility.yul\":1959:1977   */\n  0xffffffffffffffff\n    /* \"#utility.yul\":1951:1957   */\n  dup3\n    /* \"#utility.yul\":1948:1978   */\n  gt\n    /* \"#utility.yul\":1945:2001   */\n  iszero\n  tag_65\n  jumpi\n    /* \"#utility.yul\":1981:1999   */\n  tag_66\n  tag_30\n  jump\t// in\ntag_66:\n    /* \"#utility.yul\":1945:2001   */\ntag_65:\n    /* \"#utility.yul\":2019:2048   */\n  tag_67\n    /* \"#utility.yul\":2041:2047   */\n  dup3\n    /* \"#utility.yul\":2019:2048   */\n  tag_29\n  jump\t// in\ntag_67:\n    /* \"#utility.yul\":2011:2048   */\n  swap1\n  pop\n    /* \"#utility.yul\":2103:2107   */\n  0x20\n    /* \"#utility.yul\":2097:2101   */\n  dup2\n    /* \"#utility.yul\":2093:2108   */\n  add\n    /* \"#utility.yul\":2085:2108   */\n  swap1\n  pop\n    /* \"#utility.yul\":1807:2115   */\n  swap2\n  swap1\n  pop\n  jump\t// out\n    /* \"#utility.yul\":2121:2428   */\ntag_34:\n    /* \"#utility.yul\":2189:2190   */\n  0x00\n    /* \"#utility.yul\":2199:2312   */\ntag_69:\n    /* \"#utility.yul\":2213:2219   */\n  dup4\n    /* \"#utility.yul\":2210:2211   */\n  dup2\n    /* \"#utility.yul\":2207:2220   */\n  lt\n    /* \"#utility.yul\":2199:2312   */\n  iszero\n  tag_71\n  jumpi\n    /* \"#utility.yul\":2298:2299   */\n  dup1\n    /* \"#utility.yul\":2293:2296   */\n  dup3\n    /* \"#utility.yul\":2289:2300   */\n  add\n    /* \"#utility.yul\":2283:2301   */\n  mload\n    /* \"#utility.yul\":2279:2280   */\n  dup2\n    /* \"#utility.yul\":2274:2277   */\n  dup5\n    /* \"#utility.yul\":2270:2281   */\n  add\n    /* \"#utility.yul\":2263:2302   */\n  mstore\n    /* \"#utility.yul\":2235:2237   */\n  0x20\n    /* \"#utility.yul\":2232:2233   */\n  dup2\n    /* \"#utility.yul\":2228:2238   */\n  add\n    /* \"#utility.yul\":2223:2238   */\n  swap1\n  pop\n    /* \"#utility.yul\":2199:2312   */\n  jump(tag_69)\ntag_71:\n    /* \"#utility.yul\":2330:2336   */\n  dup4\n    /* \"#utility.yul\":2327:2328   */\n  dup2\n    /* \"#utility.yul\":2324:2337   */\n  gt\n    /* \"#utility.yul\":2321:2422   */\n  iszero\n  tag_72\n  jumpi\n    /* \"#utility.yul\":2410:2411   */\n  0x00\n    /* \"#utility.yul\":2401:2407   */\n  dup5\n    /* \"#utility.yul\":2396:2399   */\n  dup5\n    /* \"#utility.yul\":2392:2408   */\n  add\n    /* \"#utility.yul\":2385:2412   */\n  mstore\n    /* \"#utility.yul\":2321:2422   */\ntag_72:\n    /* \"#utility.yul\":2170:2428   */\n  pop\n    /* \"#utility.yul\":2121:2428   */\n  pop\n  pop\n  pop\n  jump\t// out\n    /* \"#utility.yul\":2434:2855   */\ntag_35:\n    /* \"#utility.yul\":2523:2528   */\n  0x00\n    /* \"#utility.yul\":2548:2614   */\n  tag_74\n    /* \"#utility.yul\":2564:2613   */\n  tag_75\n    /* \"#utility.yul\":2606:2612   */\n  dup5\n    /* \"#utility.yul\":2564:2613   */\n  tag_33\n  jump\t// in\ntag_75:\n    /* \"#utility.yul\":2548:2614   */\n  tag_32\n  jump\t// in\ntag_74:\n    /* \"#utility.yul\":2539:2614   */\n  swap1\n  pop\n    /* \"#utility.yul\":2637:2643   */\n  dup3\n    /* \"#utility.yul\":2630:2635   */\n  dup2\n    /* \"#utility.yul\":2623:2644   */\n  mstore\n    /* \"#utility.yul\":2675:2679   */\n  0x20\n    /* \"#utility.yul\":2668:2673   */\n  dup2\n    /* \"#utility.yul\":2664:2680   */\n  add\n    /* \"#utility.yul\":2713:2716   */\n  dup5\n    /* \"#utility.yul\":2704:2710   */\n  dup5\n    /* \"#utility.yul\":2699:2702   */\n  dup5\n    /* \"#utility.yul\":2695:2711   */\n  add\n    /* \"#utility.yul\":2692:2717   */\n  gt\n    /* \"#utility.yul\":2689:2801   */\n  iszero\n  tag_76\n  jumpi\n    /* \"#utility.yul\":2720:2799   */\n  tag_77\n  tag_28\n  jump\t// in\ntag_77:\n    /* \"#utility.yul\":2689:2801   */\ntag_76:\n    /* \"#utility.yul\":2810:2849   */\n  tag_78\n    /* \"#utility.yul\":2842:2848   */\n  dup5\n    /* \"#utility.yul\":2837:2840   */\n  dup3\n    /* \"#utility.yul\":2832:2835   */\n  dup6\n    /* \"#utility.yul\":2810:2849   */\n  tag_34\n  jump\t// in\ntag_78:\n    /* \"#utility.yul\":2529:2855   */\n  pop\n    /* \"#utility.yul\":2434:2855   */\n  swap4\n  swap3\n  pop\n  pop\n  pop\n  jump\t// out\n    /* \"#utility.yul\":2875:3230   */\ntag_36:\n    /* \"#utility.yul\":2942:2947   */\n  0x00\n    /* \"#utility.yul\":2991:2994   */\n  dup3\n    /* \"#utility.yul\":2984:2988   */\n  0x1f\n    /* \"#utility.yul\":2976:2982   */\n  dup4\n    /* \"#utility.yul\":2972:2989   */\n  add\n    /* \"#utility.yul\":2968:2995   */\n  slt\n    /* \"#utility.yul\":2958:3080   */\n  tag_80\n  jumpi\n    /* \"#utility.yul\":2999:3078   */\n  tag_81\n  tag_27\n  jump\t// in\ntag_81:\n    /* \"#utility.yul\":2958:3080   */\ntag_80:\n    /* \"#utility.yul\":3109:3115   */\n  dup2\n    /* \"#utility.yul\":3103:3116   */\n  mload\n    /* \"#utility.yul\":3134:3224   */\n  tag_82\n    /* \"#utility.yul\":3220:3223   */\n  dup5\n    /* \"#utility.yul\":3212:3218   */\n  dup3\n    /* \"#utility.yul\":3205:3209   */\n  0x20\n    /* \"#utility.yul\":3197:3203   */\n  dup7\n    /* \"#utility.yul\":3193:3210   */\n  add\n    /* \"#utility.yul\":3134:3224   */\n  tag_35\n  jump\t// in\ntag_82:\n    /* \"#utility.yul\":3125:3224   */\n  swap2\n  pop\n    /* \"#utility.yul\":2948:3230   */\n  pop\n    /* \"#utility.yul\":2875:3230   */\n  swap3\n  swap2\n  pop\n  pop\n  jump\t// out\n    /* \"#utility.yul\":3236:3313   */\ntag_37:\n    /* \"#utility.yul\":3273:3280   */\n  0x00\n    /* \"#utility.yul\":3302:3307   */\n  dup2\n    /* \"#utility.yul\":3291:3307   */\n  swap1\n  pop\n    /* \"#utility.yul\":3236:3313   */\n  swap2\n  swap1\n  pop\n  jump\t// out\n    /* \"#utility.yul\":3319:3441   */\ntag_38:\n    /* \"#utility.yul\":3392:3416   */\n  tag_85\n    /* \"#utility.yul\":3410:3415   */\n  dup2\n    /* \"#utility.yul\":3392:3416   */\n  tag_37\n  jump\t// in\ntag_85:\n    /* \"#utility.yul\":3385:3390   */\n  dup2\n    /* \"#utility.yul\":3382:3417   */\n  eq\n    /* \"#utility.yul\":3372:3435   */\n  tag_86\n  jumpi\n    /* \"#utility.yul\":3431:3432   */\n  0x00\n    /* \"#utility.yul\":3428:3429   */\n  dup1\n    /* \"#utility.yul\":3421:3433   */\n  revert\n    /* \"#utility.yul\":3372:3435   */\ntag_86:\n    /* \"#utility.yul\":3319:3441   */\n  pop\n  jump\t// out\n    /* \"#utility.yul\":3447:3590   */\ntag_39:\n    /* \"#utility.yul\":3504:3509   */\n  0x00\n    /* \"#utility.yul\":3535:3541   */\n  dup2\n    /* \"#utility.yul\":3529:3542   */\n  mload\n    /* \"#utility.yul\":3520:3542   */\n  swap1\n  pop\n    /* \"#utility.yul\":3551:3584   */\n  tag_88\n    /* \"#utility.yul\":3578:3583   */\n  dup2\n    /* \"#utility.yul\":3551:3584   */\n  tag_38\n  jump\t// in\ntag_88:\n    /* \"#utility.yul\":3447:3590   */\n  swap3\n  swap2\n  pop\n  pop\n  jump\t// out\n    /* \"#utility.yul\":3596:4589   */\ntag_3:\n    /* \"#utility.yul\":3703:3709   */\n  0x00\n    /* \"#utility.yul\":3711:3717   */\n  dup1\n    /* \"#utility.yul\":3719:3725   */\n  0x00\n    /* \"#utility.yul\":3727:3733   */\n  dup1\n    /* \"#utility.yul\":3776:3779   */\n  0x80\n    /* \"#utility.yul\":3764:3773   */\n  dup6\n    /* \"#utility.yul\":3755:3762   */\n  dup8\n    /* \"#utility.yul\":3751:3774   */\n  sub\n    /* \"#utility.yul\":3747:3780   */\n  slt\n    /* \"#utility.yul\":3744:3864   */\n  iszero\n  tag_90\n  jumpi\n    /* \"#utility.yul\":3783:3862   */\n  tag_91\n  tag_21\n  jump\t// in\ntag_91:\n    /* \"#utility.yul\":3744:3864   */\ntag_90:\n    /* \"#utility.yul\":3903:3904   */\n  0x00\n    /* \"#utility.yul\":3928:3992   */\n  tag_92\n    /* \"#utility.yul\":3984:3991   */\n  dup8\n    /* \"#utility.yul\":3975:3981   */\n  dup3\n    /* \"#utility.yul\":3964:3973   */\n  dup9\n    /* \"#utility.yul\":3960:3982   */\n  add\n    /* \"#utility.yul\":3928:3992   */\n  tag_26\n  jump\t// in\ntag_92:\n    /* \"#utility.yul\":3918:3992   */\n  swap5\n  pop\n    /* \"#utility.yul\":3874:4002   */\n  pop\n    /* \"#utility.yul\":4062:4064   */\n  0x20\n    /* \"#utility.yul\":4051:4060   */\n  dup6\n    /* \"#utility.yul\":4047:4065   */\n  add\n    /* \"#utility.yul\":4041:4066   */\n  mload\n    /* \"#utility.yul\":4093:4111   */\n  0xffffffffffffffff\n    /* \"#utility.yul\":4085:4091   */\n  dup2\n    /* \"#utility.yul\":4082:4112   */\n  gt\n    /* \"#utility.yul\":4079:4196   */\n  iszero\n  tag_93\n  jumpi\n    /* \"#utility.yul\":4115:4194   */\n  tag_94\n  tag_22\n  jump\t// in\ntag_94:\n    /* \"#utility.yul\":4079:4196   */\ntag_93:\n    /* \"#utility.yul\":4220:4294   */\n  tag_95\n    /* \"#utility.yul\":4286:4293   */\n  dup8\n    /* \"#utility.yul\":4277:4283   */\n  dup3\n    /* \"#utility.yul\":4266:4275   */\n  dup9\n    /* \"#utility.yul\":4262:4284   */\n  add\n    /* \"#utility.yul\":4220:4294   */\n  tag_36\n  jump\t// in\ntag_95:\n    /* \"#utility.yul\":4210:4294   */\n  swap4\n  pop\n    /* \"#utility.yul\":4012:4304   */\n  pop\n    /* \"#utility.yul\":4343:4345   */\n  0x40\n    /* \"#utility.yul\":4369:4433   */\n  tag_96\n    /* \"#utility.yul\":4425:4432   */\n  dup8\n    /* \"#utility.yul\":4416:4422   */\n  dup3\n    /* \"#utility.yul\":4405:4414   */\n  dup9\n    /* \"#utility.yul\":4401:4423   */\n  add\n    /* \"#utility.yul\":4369:4433   */\n  tag_39\n  jump\t// in\ntag_96:\n    /* \"#utility.yul\":4359:4433   */\n  swap3\n  pop\n    /* \"#utility.yul\":4314:4443   */\n  pop\n    /* \"#utility.yul\":4482:4484   */\n  0x60\n    /* \"#utility.yul\":4508:4572   */\n  tag_97\n    /* \"#utility.yul\":4564:4571   */\n  dup8\n    /* \"#utility.yul\":4555:4561   */\n  dup3\n    /* \"#utility.yul\":4544:4553   */\n  dup9\n    /* \"#utility.yul\":4540:4562   */\n  add\n    /* \"#utility.yul\":4508:4572   */\n  tag_39\n  jump\t// in\ntag_97:\n    /* \"#utility.yul\":4498:4572   */\n  swap2\n  pop\n    /* \"#utility.yul\":4453:4582   */\n  pop\n    /* \"#utility.yul\":3596:4589   */\n  swap3\n  swap6\n  swap2\n  swap5\n  pop\n  swap3\n  pop\n  jump\t// out\n    /* \"#utility.yul\":4595:4775   */\ntag_40:\n    /* \"#utility.yul\":4643:4720   */\n  0x4e487b7100000000000000000000000000000000000000000000000000000000\n    /* \"#utility.yul\":4640:4641   */\n  0x00\n    /* \"#utility.yul\":4633:4721   */\n  mstore\n    /* \"#utility.yul\":4740:4744   */\n  0x22\n    /* \"#utility.yul\":4737:4738   */\n  0x04\n    /* \"#utility.yul\":4730:4745   */\n  mstore\n    /* \"#utility.yul\":4764:4768   */\n  0x24\n    /* \"#utility.yul\":4761:4762   */\n  0x00\n    /* \"#utility.yul\":4754:4769   */\n  revert\n    /* \"#utility.yul\":4781:5101   */\ntag_10:\n    /* \"#utility.yul\":4825:4831   */\n  0x00\n    /* \"#utility.yul\":4862:4863   */\n  0x02\n    /* \"#utility.yul\":4856:4860   */\n  dup3\n    /* \"#utility.yul\":4852:4864   */\n  div\n    /* \"#utility.yul\":4842:4864   */\n  swap1\n  pop\n    /* \"#utility.yul\":4909:4910   */\n  0x01\n    /* \"#utility.yul\":4903:4907   */\n  dup3\n    /* \"#utility.yul\":4899:4911   */\n  and\n    /* \"#utility.yul\":4930:4948   */\n  dup1\n    /* \"#utility.yul\":4920:5001   */\n  tag_100\n  jumpi\n    /* \"#utility.yul\":4986:4990   */\n  0x7f\n    /* \"#utility.yul\":4978:4984   */\n  dup3\n    /* \"#utility.yul\":4974:4991   */\n  and\n    /* \"#utility.yul\":4964:4991   */\n  swap2\n  pop\n    /* \"#utility.yul\":4920:5001   */\ntag_100:\n    /* \"#utility.yul\":5048:5050   */\n  0x20\n    /* \"#utility.yul\":5040:5046   */\n  dup3\n    /* \"#utility.yul\":5037:5051   */\n  lt\n    /* \"#utility.yul\":5017:5035   */\n  dup2\n    /* \"#utility.yul\":5014:5052   */\n  sub\n    /* \"#utility.yul\":5011:5095   */\n  tag_101\n  jumpi\n    /* \"#utility.yul\":5067:5085   */\n  tag_102\n  tag_40\n  jump\t// in\ntag_102:\n    /* \"#utility.yul\":5011:5095   */\ntag_101:\n    /* \"#utility.yul\":4832:5101   */\n  pop\n    /* \"#utility.yul\":4781:5101   */\n  swap2\n  swap1\n  pop\n  jump\t// out\n    /* \"Campaign.sol\":744:2479  contract Campaign {... */\ntag_8:\n  dataSize(sub_0)\n  dup1\n  dataOffset(sub_0)\n  0x00\n  codecopy\n  0x00\n  return\nstop\n\nsub_0: assembly {\n        /* \"Campaign.sol\":744:2479  contract Campaign {... */\n      mstore(0x40, 0x80)\n      jumpi(tag_1, lt(calldatasize, 0x04))\n      shr(0xe0, calldataload(0x00))\n      dup1\n      0x236b8e3a\n      eq\n      tag_2\n      jumpi\n      dup1\n      0x39cbcc64\n      eq\n      tag_3\n      jumpi\n      dup1\n      0xc1cbbca7\n      eq\n      tag_4\n      jumpi\n    tag_1:\n      0x00\n      dup1\n      revert\n        /* \"Campaign.sol\":1452:1729  function getCampaign() public view returns (address, uint, string memory, uint, uint, uint, bool) {... */\n    tag_2:\n      callvalue\n      dup1\n      iszero\n      tag_5\n      jumpi\n      0x00\n      dup1\n      revert\n    tag_5:\n      pop\n      tag_6\n      tag_7\n      jump\t// in\n    tag_6:\n      mload(0x40)\n      tag_8\n      swap8\n      swap7\n      swap6\n      swap5\n      swap4\n      swap3\n      swap2\n      swap1\n      tag_9\n      jump\t// in\n    tag_8:\n      mload(0x40)\n      dup1\n      swap2\n      sub\n      swap1\n      return\n        /* \"Campaign.sol\":2358:2476  function getContributorDonate() public view returns (uint) {... */\n    tag_3:\n      callvalue\n      dup1\n      iszero\n      tag_10\n      jumpi\n      0x00\n      dup1\n      revert\n    tag_10:\n      pop\n      tag_11\n      tag_12\n      jump\t// in\n    tag_11:\n      mload(0x40)\n      tag_13\n      swap2\n      swap1\n      tag_14\n      jump\t// in\n    tag_13:\n      mload(0x40)\n      dup1\n      swap2\n      sub\n      swap1\n      return\n        /* \"Campaign.sol\":1737:2350  function contribute(uint donate) public payable {... */\n    tag_4:\n      tag_15\n      0x04\n      dup1\n      calldatasize\n      sub\n      dup2\n      add\n      swap1\n      tag_16\n      swap2\n      swap1\n      tag_17\n      jump\t// in\n    tag_16:\n      tag_18\n      jump\t// in\n    tag_15:\n      stop\n        /* \"Campaign.sol\":1452:1729  function getCampaign() public view returns (address, uint, string memory, uint, uint, uint, bool) {... */\n    tag_7:\n        /* \"Campaign.sol\":1496:1503  address */\n      0x00\n        /* \"Campaign.sol\":1505:1509  uint */\n      dup1\n        /* \"Campaign.sol\":1511:1524  string memory */\n      0x60\n        /* \"Campaign.sol\":1526:1530  uint */\n      0x00\n        /* \"Campaign.sol\":1532:1536  uint */\n      dup1\n        /* \"Campaign.sol\":1538:1542  uint */\n      0x00\n        /* \"Campaign.sol\":1544:1548  bool */\n      dup1\n        /* \"Campaign.sol\":1561:1582  Information storage c */\n      0x00\n        /* \"Campaign.sol\":1612:1613  c */\n      dup1\n        /* \"Campaign.sol\":1612:1621  c.manager */\n      0x00\n      add\n      0x00\n      swap1\n      sload\n      swap1\n      0x0100\n      exp\n      swap1\n      div\n      0xffffffffffffffffffffffffffffffffffffffff\n      and\n        /* \"Campaign.sol\":1623:1644  address(this).balance */\n      selfbalance\n        /* \"Campaign.sol\":1646:1647  c */\n      dup3\n        /* \"Campaign.sol\":1646:1652  c.name */\n      0x01\n      add\n        /* \"Campaign.sol\":1654:1655  c */\n      dup4\n        /* \"Campaign.sol\":1654:1671  c.requiredBalance */\n      0x02\n      add\n      sload\n        /* \"Campaign.sol\":1673:1674  c */\n      dup5\n        /* \"Campaign.sol\":1673:1687  c.requiredCost */\n      0x03\n      add\n      sload\n        /* \"Campaign.sol\":1689:1690  c */\n      dup6\n        /* \"Campaign.sol\":1689:1708  c.contributorsCount */\n      0x05\n      add\n      sload\n        /* \"Campaign.sol\":1710:1711  c */\n      dup7\n        /* \"Campaign.sol\":1710:1720  c.complete */\n      0x06\n      add\n      0x00\n      swap1\n      sload\n      swap1\n      0x0100\n      exp\n      swap1\n      div\n      0xff\n      and\n        /* \"Campaign.sol\":1604:1721  return (c.manager, address(this).balance, c.name, c.requiredBalance, c.requiredCost, c.contributorsCount, c.complete) */\n      dup5\n      dup1\n      sload\n      tag_20\n      swap1\n      tag_21\n      jump\t// in\n    tag_20:\n      dup1\n      0x1f\n      add\n      0x20\n      dup1\n      swap2\n      div\n      mul\n      0x20\n      add\n      mload(0x40)\n      swap1\n      dup2\n      add\n      0x40\n      mstore\n      dup1\n      swap3\n      swap2\n      swap1\n      dup2\n      dup2\n      mstore\n      0x20\n      add\n      dup3\n      dup1\n      sload\n      tag_22\n      swap1\n      tag_21\n      jump\t// in\n    tag_22:\n      dup1\n      iszero\n      tag_23\n      jumpi\n      dup1\n      0x1f\n      lt\n      tag_24\n      jumpi\n      0x0100\n      dup1\n      dup4\n      sload\n      div\n      mul\n      dup4\n      mstore\n      swap2\n      0x20\n      add\n      swap2\n      jump(tag_23)\n    tag_24:\n      dup3\n      add\n      swap2\n      swap1\n      0x00\n      mstore\n      keccak256(0x00, 0x20)\n      swap1\n    tag_25:\n      dup2\n      sload\n      dup2\n      mstore\n      swap1\n      0x01\n      add\n      swap1\n      0x20\n      add\n      dup1\n      dup4\n      gt\n      tag_25\n      jumpi\n      dup3\n      swap1\n      sub\n      0x1f\n      and\n      dup3\n      add\n      swap2\n    tag_23:\n      pop\n      pop\n      pop\n      pop\n      pop\n      swap5\n      pop\n      swap8\n      pop\n      swap8\n      pop\n      swap8\n      pop\n      swap8\n      pop\n      swap8\n      pop\n      swap8\n      pop\n      swap8\n      pop\n      pop\n        /* \"Campaign.sol\":1452:1729  function getCampaign() public view returns (address, uint, string memory, uint, uint, uint, bool) {... */\n      swap1\n      swap2\n      swap3\n      swap4\n      swap5\n      swap6\n      swap7\n      jump\t// out\n        /* \"Campaign.sol\":2358:2476  function getContributorDonate() public view returns (uint) {... */\n    tag_12:\n        /* \"Campaign.sol\":2411:2415  uint */\n      0x00\n        /* \"Campaign.sol\":2435:2443  campaign */\n      dup1\n        /* \"Campaign.sol\":2435:2456  campaign.contributors */\n      0x04\n      add\n        /* \"Campaign.sol\":2435:2468  campaign.contributors[msg.sender] */\n      0x00\n        /* \"Campaign.sol\":2457:2467  msg.sender */\n      caller\n        /* \"Campaign.sol\":2435:2468  campaign.contributors[msg.sender] */\n      0xffffffffffffffffffffffffffffffffffffffff\n      and\n      0xffffffffffffffffffffffffffffffffffffffff\n      and\n      dup2\n      mstore\n      0x20\n      add\n      swap1\n      dup2\n      mstore\n      0x20\n      add\n      0x00\n      keccak256\n      sload\n        /* \"Campaign.sol\":2428:2468  return campaign.contributors[msg.sender] */\n      swap1\n      pop\n        /* \"Campaign.sol\":2358:2476  function getContributorDonate() public view returns (uint) {... */\n      swap1\n      jump\t// out\n        /* \"Campaign.sol\":1737:2350  function contribute(uint donate) public payable {... */\n    tag_18:\n        /* \"Campaign.sol\":1805:1813  campaign */\n      0x00\n        /* \"Campaign.sol\":1805:1822  campaign.complete */\n      0x06\n      add\n      0x00\n      swap1\n      sload\n      swap1\n      0x0100\n      exp\n      swap1\n      div\n      0xff\n      and\n        /* \"Campaign.sol\":1804:1822  !campaign.complete */\n      iszero\n        /* \"Campaign.sol\":1796:1823  require(!campaign.complete) */\n      tag_28\n      jumpi\n      0x00\n      dup1\n      revert\n    tag_28:\n        /* \"Campaign.sol\":1872:1873  0 */\n      0x00\n        /* \"Campaign.sol\":1847:1855  campaign */\n      dup1\n        /* \"Campaign.sol\":1847:1868  campaign.requiredCost */\n      0x03\n      add\n      sload\n        /* \"Campaign.sol\":1847:1873  campaign.requiredCost == 0 */\n      sub\n        /* \"Campaign.sol\":1844:2163  if(campaign.requiredCost == 0) {... */\n      tag_29\n      jumpi\n        /* \"Campaign.sol\":1926:1932  donate */\n      dup1\n        /* \"Campaign.sol\":1890:1898  campaign */\n      0x00\n        /* \"Campaign.sol\":1890:1911  campaign.contributors */\n      0x04\n      add\n        /* \"Campaign.sol\":1890:1923  campaign.contributors[msg.sender] */\n      0x00\n        /* \"Campaign.sol\":1912:1922  msg.sender */\n      caller\n        /* \"Campaign.sol\":1890:1923  campaign.contributors[msg.sender] */\n      0xffffffffffffffffffffffffffffffffffffffff\n      and\n      0xffffffffffffffffffffffffffffffffffffffff\n      and\n      dup2\n      mstore\n      0x20\n      add\n      swap1\n      dup2\n      mstore\n      0x20\n      add\n      0x00\n      keccak256\n        /* \"Campaign.sol\":1890:1932  campaign.contributors[msg.sender] = donate */\n      dup2\n      swap1\n      sstore\n      pop\n        /* \"Campaign.sol\":1947:1955  campaign */\n      0x00\n        /* \"Campaign.sol\":1947:1973  campaign.contributorsCount */\n      0x05\n      add\n      0x00\n        /* \"Campaign.sol\":1947:1975  campaign.contributorsCount++ */\n      dup2\n      sload\n      dup1\n      swap3\n      swap2\n      swap1\n      tag_30\n      swap1\n      tag_31\n      jump\t// in\n    tag_30:\n      swap2\n      swap1\n      pop\n      sstore\n      pop\n        /* \"Campaign.sol\":1844:2163  if(campaign.requiredCost == 0) {... */\n      jump(tag_32)\n    tag_29:\n        /* \"Campaign.sol\":2029:2037  campaign */\n      0x00\n        /* \"Campaign.sol\":2029:2050  campaign.requiredCost */\n      0x03\n      add\n      sload\n        /* \"Campaign.sol\":2016:2025  msg.value */\n      callvalue\n        /* \"Campaign.sol\":2016:2050  msg.value >= campaign.requiredCost */\n      lt\n      iszero\n        /* \"Campaign.sol\":2008:2051  require(msg.value >= campaign.requiredCost) */\n      tag_33\n      jumpi\n      0x00\n      dup1\n      revert\n    tag_33:\n        /* \"Campaign.sol\":2102:2108  donate */\n      dup1\n        /* \"Campaign.sol\":2066:2074  campaign */\n      0x00\n        /* \"Campaign.sol\":2066:2087  campaign.contributors */\n      0x04\n      add\n        /* \"Campaign.sol\":2066:2099  campaign.contributors[msg.sender] */\n      0x00\n        /* \"Campaign.sol\":2088:2098  msg.sender */\n      caller\n        /* \"Campaign.sol\":2066:2099  campaign.contributors[msg.sender] */\n      0xffffffffffffffffffffffffffffffffffffffff\n      and\n      0xffffffffffffffffffffffffffffffffffffffff\n      and\n      dup2\n      mstore\n      0x20\n      add\n      swap1\n      dup2\n      mstore\n      0x20\n      add\n      0x00\n      keccak256\n        /* \"Campaign.sol\":2066:2108  campaign.contributors[msg.sender] = donate */\n      dup2\n      swap1\n      sstore\n      pop\n        /* \"Campaign.sol\":2123:2131  campaign */\n      0x00\n        /* \"Campaign.sol\":2123:2149  campaign.contributorsCount */\n      0x05\n      add\n      0x00\n        /* \"Campaign.sol\":2123:2151  campaign.contributorsCount++ */\n      dup2\n      sload\n      dup1\n      swap3\n      swap2\n      swap1\n      tag_34\n      swap1\n      tag_31\n      jump\t// in\n    tag_34:\n      swap2\n      swap1\n      pop\n      sstore\n      pop\n        /* \"Campaign.sol\":1844:2163  if(campaign.requiredCost == 0) {... */\n    tag_32:\n        /* \"Campaign.sol\":2203:2211  campaign */\n      0x00\n        /* \"Campaign.sol\":2203:2227  campaign.requiredBalance */\n      0x02\n      add\n      sload\n        /* \"Campaign.sol\":2178:2199  address(this).balance */\n      selfbalance\n        /* \"Campaign.sol\":2178:2227  address(this).balance >= campaign.requiredBalance */\n      lt\n        /* \"Campaign.sol\":2175:2343  if(address(this).balance >= campaign.requiredBalance) {... */\n      tag_35\n      jumpi\n        /* \"Campaign.sol\":2244:2252  campaign */\n      0x00\n        /* \"Campaign.sol\":2244:2260  campaign.manager */\n      dup1\n      add\n      0x00\n      swap1\n      sload\n      swap1\n      0x0100\n      exp\n      swap1\n      div\n      0xffffffffffffffffffffffffffffffffffffffff\n      and\n        /* \"Campaign.sol\":2244:2269  campaign.manager.transfer */\n      0xffffffffffffffffffffffffffffffffffffffff\n      and\n        /* \"Campaign.sol\":2244:2292  campaign.manager.transfer(address(this).balance) */\n      0x08fc\n        /* \"Campaign.sol\":2270:2291  address(this).balance */\n      selfbalance\n        /* \"Campaign.sol\":2244:2292  campaign.manager.transfer(address(this).balance) */\n      swap1\n      dup2\n      iszero\n      mul\n      swap1\n      mload(0x40)\n      0x00\n      mload(0x40)\n      dup1\n      dup4\n      sub\n      dup2\n      dup6\n      dup9\n      dup9\n      call\n      swap4\n      pop\n      pop\n      pop\n      pop\n      iszero\n      dup1\n      iszero\n      tag_37\n      jumpi\n      returndatasize\n      0x00\n      dup1\n      returndatacopy\n      revert(0x00, returndatasize)\n    tag_37:\n      pop\n        /* \"Campaign.sol\":2327:2331  true */\n      0x01\n        /* \"Campaign.sol\":2307:2315  campaign */\n      0x00\n        /* \"Campaign.sol\":2307:2324  campaign.complete */\n      0x06\n      add\n      0x00\n        /* \"Campaign.sol\":2307:2331  campaign.complete = true */\n      0x0100\n      exp\n      dup2\n      sload\n      dup2\n      0xff\n      mul\n      not\n      and\n      swap1\n      dup4\n      iszero\n      iszero\n      mul\n      or\n      swap1\n      sstore\n      pop\n        /* \"Campaign.sol\":2175:2343  if(address(this).balance >= campaign.requiredBalance) {... */\n    tag_35:\n        /* \"Campaign.sol\":1737:2350  function contribute(uint donate) public payable {... */\n      pop\n      jump\t// out\n        /* \"#utility.yul\":7:133   */\n    tag_38:\n        /* \"#utility.yul\":44:51   */\n      0x00\n        /* \"#utility.yul\":84:126   */\n      0xffffffffffffffffffffffffffffffffffffffff\n        /* \"#utility.yul\":77:82   */\n      dup3\n        /* \"#utility.yul\":73:127   */\n      and\n        /* \"#utility.yul\":62:127   */\n      swap1\n      pop\n        /* \"#utility.yul\":7:133   */\n      swap2\n      swap1\n      pop\n      jump\t// out\n        /* \"#utility.yul\":139:235   */\n    tag_39:\n        /* \"#utility.yul\":176:183   */\n      0x00\n        /* \"#utility.yul\":205:229   */\n      tag_60\n        /* \"#utility.yul\":223:228   */\n      dup3\n        /* \"#utility.yul\":205:229   */\n      tag_38\n      jump\t// in\n    tag_60:\n        /* \"#utility.yul\":194:229   */\n      swap1\n      pop\n        /* \"#utility.yul\":139:235   */\n      swap2\n      swap1\n      pop\n      jump\t// out\n        /* \"#utility.yul\":241:359   */\n    tag_40:\n        /* \"#utility.yul\":328:352   */\n      tag_62\n        /* \"#utility.yul\":346:351   */\n      dup2\n        /* \"#utility.yul\":328:352   */\n      tag_39\n      jump\t// in\n    tag_62:\n        /* \"#utility.yul\":323:326   */\n      dup3\n        /* \"#utility.yul\":316:353   */\n      mstore\n        /* \"#utility.yul\":241:359   */\n      pop\n      pop\n      jump\t// out\n        /* \"#utility.yul\":365:442   */\n    tag_41:\n        /* \"#utility.yul\":402:409   */\n      0x00\n        /* \"#utility.yul\":431:436   */\n      dup2\n        /* \"#utility.yul\":420:436   */\n      swap1\n      pop\n        /* \"#utility.yul\":365:442   */\n      swap2\n      swap1\n      pop\n      jump\t// out\n        /* \"#utility.yul\":448:566   */\n    tag_42:\n        /* \"#utility.yul\":535:559   */\n      tag_65\n        /* \"#utility.yul\":553:558   */\n      dup2\n        /* \"#utility.yul\":535:559   */\n      tag_41\n      jump\t// in\n    tag_65:\n        /* \"#utility.yul\":530:533   */\n      dup3\n        /* \"#utility.yul\":523:560   */\n      mstore\n        /* \"#utility.yul\":448:566   */\n      pop\n      pop\n      jump\t// out\n        /* \"#utility.yul\":572:671   */\n    tag_43:\n        /* \"#utility.yul\":624:630   */\n      0x00\n        /* \"#utility.yul\":658:663   */\n      dup2\n        /* \"#utility.yul\":652:664   */\n      mload\n        /* \"#utility.yul\":642:664   */\n      swap1\n      pop\n        /* \"#utility.yul\":572:671   */\n      swap2\n      swap1\n      pop\n      jump\t// out\n        /* \"#utility.yul\":677:846   */\n    tag_44:\n        /* \"#utility.yul\":761:772   */\n      0x00\n        /* \"#utility.yul\":795:801   */\n      dup3\n        /* \"#utility.yul\":790:793   */\n      dup3\n        /* \"#utility.yul\":783:802   */\n      mstore\n        /* \"#utility.yul\":835:839   */\n      0x20\n        /* \"#utility.yul\":830:833   */\n      dup3\n        /* \"#utility.yul\":826:840   */\n      add\n        /* \"#utility.yul\":811:840   */\n      swap1\n      pop\n        /* \"#utility.yul\":677:846   */\n      swap3\n      swap2\n      pop\n      pop\n      jump\t// out\n        /* \"#utility.yul\":852:1159   */\n    tag_45:\n        /* \"#utility.yul\":920:921   */\n      0x00\n        /* \"#utility.yul\":930:1043   */\n    tag_69:\n        /* \"#utility.yul\":944:950   */\n      dup4\n        /* \"#utility.yul\":941:942   */\n      dup2\n        /* \"#utility.yul\":938:951   */\n      lt\n        /* \"#utility.yul\":930:1043   */\n      iszero\n      tag_71\n      jumpi\n        /* \"#utility.yul\":1029:1030   */\n      dup1\n        /* \"#utility.yul\":1024:1027   */\n      dup3\n        /* \"#utility.yul\":1020:1031   */\n      add\n        /* \"#utility.yul\":1014:1032   */\n      mload\n        /* \"#utility.yul\":1010:1011   */\n      dup2\n        /* \"#utility.yul\":1005:1008   */\n      dup5\n        /* \"#utility.yul\":1001:1012   */\n      add\n        /* \"#utility.yul\":994:1033   */\n      mstore\n        /* \"#utility.yul\":966:968   */\n      0x20\n        /* \"#utility.yul\":963:964   */\n      dup2\n        /* \"#utility.yul\":959:969   */\n      add\n        /* \"#utility.yul\":954:969   */\n      swap1\n      pop\n        /* \"#utility.yul\":930:1043   */\n      jump(tag_69)\n    tag_71:\n        /* \"#utility.yul\":1061:1067   */\n      dup4\n        /* \"#utility.yul\":1058:1059   */\n      dup2\n        /* \"#utility.yul\":1055:1068   */\n      gt\n        /* \"#utility.yul\":1052:1153   */\n      iszero\n      tag_72\n      jumpi\n        /* \"#utility.yul\":1141:1142   */\n      0x00\n        /* \"#utility.yul\":1132:1138   */\n      dup5\n        /* \"#utility.yul\":1127:1130   */\n      dup5\n        /* \"#utility.yul\":1123:1139   */\n      add\n        /* \"#utility.yul\":1116:1143   */\n      mstore\n        /* \"#utility.yul\":1052:1153   */\n    tag_72:\n        /* \"#utility.yul\":901:1159   */\n      pop\n        /* \"#utility.yul\":852:1159   */\n      pop\n      pop\n      pop\n      jump\t// out\n        /* \"#utility.yul\":1165:1267   */\n    tag_46:\n        /* \"#utility.yul\":1206:1212   */\n      0x00\n        /* \"#utility.yul\":1257:1259   */\n      0x1f\n        /* \"#utility.yul\":1253:1260   */\n      not\n        /* \"#utility.yul\":1248:1250   */\n      0x1f\n        /* \"#utility.yul\":1241:1246   */\n      dup4\n        /* \"#utility.yul\":1237:1251   */\n      add\n        /* \"#utility.yul\":1233:1261   */\n      and\n        /* \"#utility.yul\":1223:1261   */\n      swap1\n      pop\n        /* \"#utility.yul\":1165:1267   */\n      swap2\n      swap1\n      pop\n      jump\t// out\n        /* \"#utility.yul\":1273:1637   */\n    tag_47:\n        /* \"#utility.yul\":1361:1364   */\n      0x00\n        /* \"#utility.yul\":1389:1428   */\n      tag_75\n        /* \"#utility.yul\":1422:1427   */\n      dup3\n        /* \"#utility.yul\":1389:1428   */\n      tag_43\n      jump\t// in\n    tag_75:\n        /* \"#utility.yul\":1444:1515   */\n      tag_76\n        /* \"#utility.yul\":1508:1514   */\n      dup2\n        /* \"#utility.yul\":1503:1506   */\n      dup6\n        /* \"#utility.yul\":1444:1515   */\n      tag_44\n      jump\t// in\n    tag_76:\n        /* \"#utility.yul\":1437:1515   */\n      swap4\n      pop\n        /* \"#utility.yul\":1524:1576   */\n      tag_77\n        /* \"#utility.yul\":1569:1575   */\n      dup2\n        /* \"#utility.yul\":1564:1567   */\n      dup6\n        /* \"#utility.yul\":1557:1561   */\n      0x20\n        /* \"#utility.yul\":1550:1555   */\n      dup7\n        /* \"#utility.yul\":1546:1562   */\n      add\n        /* \"#utility.yul\":1524:1576   */\n      tag_45\n      jump\t// in\n    tag_77:\n        /* \"#utility.yul\":1601:1630   */\n      tag_78\n        /* \"#utility.yul\":1623:1629   */\n      dup2\n        /* \"#utility.yul\":1601:1630   */\n      tag_46\n      jump\t// in\n    tag_78:\n        /* \"#utility.yul\":1596:1599   */\n      dup5\n        /* \"#utility.yul\":1592:1631   */\n      add\n        /* \"#utility.yul\":1585:1631   */\n      swap2\n      pop\n        /* \"#utility.yul\":1365:1637   */\n      pop\n        /* \"#utility.yul\":1273:1637   */\n      swap3\n      swap2\n      pop\n      pop\n      jump\t// out\n        /* \"#utility.yul\":1643:1733   */\n    tag_48:\n        /* \"#utility.yul\":1677:1684   */\n      0x00\n        /* \"#utility.yul\":1720:1725   */\n      dup2\n        /* \"#utility.yul\":1713:1726   */\n      iszero\n        /* \"#utility.yul\":1706:1727   */\n      iszero\n        /* \"#utility.yul\":1695:1727   */\n      swap1\n      pop\n        /* \"#utility.yul\":1643:1733   */\n      swap2\n      swap1\n      pop\n      jump\t// out\n        /* \"#utility.yul\":1739:1848   */\n    tag_49:\n        /* \"#utility.yul\":1820:1841   */\n      tag_81\n        /* \"#utility.yul\":1835:1840   */\n      dup2\n        /* \"#utility.yul\":1820:1841   */\n      tag_48\n      jump\t// in\n    tag_81:\n        /* \"#utility.yul\":1815:1818   */\n      dup3\n        /* \"#utility.yul\":1808:1842   */\n      mstore\n        /* \"#utility.yul\":1739:1848   */\n      pop\n      pop\n      jump\t// out\n        /* \"#utility.yul\":1854:2819   */\n    tag_9:\n        /* \"#utility.yul\":2129:2133   */\n      0x00\n        /* \"#utility.yul\":2167:2170   */\n      0xe0\n        /* \"#utility.yul\":2156:2165   */\n      dup3\n        /* \"#utility.yul\":2152:2171   */\n      add\n        /* \"#utility.yul\":2144:2171   */\n      swap1\n      pop\n        /* \"#utility.yul\":2181:2252   */\n      tag_83\n        /* \"#utility.yul\":2249:2250   */\n      0x00\n        /* \"#utility.yul\":2238:2247   */\n      dup4\n        /* \"#utility.yul\":2234:2251   */\n      add\n        /* \"#utility.yul\":2225:2231   */\n      dup11\n        /* \"#utility.yul\":2181:2252   */\n      tag_40\n      jump\t// in\n    tag_83:\n        /* \"#utility.yul\":2262:2334   */\n      tag_84\n        /* \"#utility.yul\":2330:2332   */\n      0x20\n        /* \"#utility.yul\":2319:2328   */\n      dup4\n        /* \"#utility.yul\":2315:2333   */\n      add\n        /* \"#utility.yul\":2306:2312   */\n      dup10\n        /* \"#utility.yul\":2262:2334   */\n      tag_42\n      jump\t// in\n    tag_84:\n        /* \"#utility.yul\":2381:2390   */\n      dup2\n        /* \"#utility.yul\":2375:2379   */\n      dup2\n        /* \"#utility.yul\":2371:2391   */\n      sub\n        /* \"#utility.yul\":2366:2368   */\n      0x40\n        /* \"#utility.yul\":2355:2364   */\n      dup4\n        /* \"#utility.yul\":2351:2369   */\n      add\n        /* \"#utility.yul\":2344:2392   */\n      mstore\n        /* \"#utility.yul\":2409:2487   */\n      tag_85\n        /* \"#utility.yul\":2482:2486   */\n      dup2\n        /* \"#utility.yul\":2473:2479   */\n      dup9\n        /* \"#utility.yul\":2409:2487   */\n      tag_47\n      jump\t// in\n    tag_85:\n        /* \"#utility.yul\":2401:2487   */\n      swap1\n      pop\n        /* \"#utility.yul\":2497:2569   */\n      tag_86\n        /* \"#utility.yul\":2565:2567   */\n      0x60\n        /* \"#utility.yul\":2554:2563   */\n      dup4\n        /* \"#utility.yul\":2550:2568   */\n      add\n        /* \"#utility.yul\":2541:2547   */\n      dup8\n        /* \"#utility.yul\":2497:2569   */\n      tag_42\n      jump\t// in\n    tag_86:\n        /* \"#utility.yul\":2579:2652   */\n      tag_87\n        /* \"#utility.yul\":2647:2650   */\n      0x80\n        /* \"#utility.yul\":2636:2645   */\n      dup4\n        /* \"#utility.yul\":2632:2651   */\n      add\n        /* \"#utility.yul\":2623:2629   */\n      dup7\n        /* \"#utility.yul\":2579:2652   */\n      tag_42\n      jump\t// in\n    tag_87:\n        /* \"#utility.yul\":2662:2735   */\n      tag_88\n        /* \"#utility.yul\":2730:2733   */\n      0xa0\n        /* \"#utility.yul\":2719:2728   */\n      dup4\n        /* \"#utility.yul\":2715:2734   */\n      add\n        /* \"#utility.yul\":2706:2712   */\n      dup6\n        /* \"#utility.yul\":2662:2735   */\n      tag_42\n      jump\t// in\n    tag_88:\n        /* \"#utility.yul\":2745:2812   */\n      tag_89\n        /* \"#utility.yul\":2807:2810   */\n      0xc0\n        /* \"#utility.yul\":2796:2805   */\n      dup4\n        /* \"#utility.yul\":2792:2811   */\n      add\n        /* \"#utility.yul\":2783:2789   */\n      dup5\n        /* \"#utility.yul\":2745:2812   */\n      tag_49\n      jump\t// in\n    tag_89:\n        /* \"#utility.yul\":1854:2819   */\n      swap9\n      swap8\n      pop\n      pop\n      pop\n      pop\n      pop\n      pop\n      pop\n      pop\n      jump\t// out\n        /* \"#utility.yul\":2825:3047   */\n    tag_14:\n        /* \"#utility.yul\":2918:2922   */\n      0x00\n        /* \"#utility.yul\":2956:2958   */\n      0x20\n        /* \"#utility.yul\":2945:2954   */\n      dup3\n        /* \"#utility.yul\":2941:2959   */\n      add\n        /* \"#utility.yul\":2933:2959   */\n      swap1\n      pop\n        /* \"#utility.yul\":2969:3040   */\n      tag_91\n        /* \"#utility.yul\":3037:3038   */\n      0x00\n        /* \"#utility.yul\":3026:3035   */\n      dup4\n        /* \"#utility.yul\":3022:3039   */\n      add\n        /* \"#utility.yul\":3013:3019   */\n      dup5\n        /* \"#utility.yul\":2969:3040   */\n      tag_42\n      jump\t// in\n    tag_91:\n        /* \"#utility.yul\":2825:3047   */\n      swap3\n      swap2\n      pop\n      pop\n      jump\t// out\n        /* \"#utility.yul\":3134:3251   */\n    tag_51:\n        /* \"#utility.yul\":3243:3244   */\n      0x00\n        /* \"#utility.yul\":3240:3241   */\n      dup1\n        /* \"#utility.yul\":3233:3245   */\n      revert\n        /* \"#utility.yul\":3380:3502   */\n    tag_53:\n        /* \"#utility.yul\":3453:3477   */\n      tag_96\n        /* \"#utility.yul\":3471:3476   */\n      dup2\n        /* \"#utility.yul\":3453:3477   */\n      tag_41\n      jump\t// in\n    tag_96:\n        /* \"#utility.yul\":3446:3451   */\n      dup2\n        /* \"#utility.yul\":3443:3478   */\n      eq\n        /* \"#utility.yul\":3433:3496   */\n      tag_97\n      jumpi\n        /* \"#utility.yul\":3492:3493   */\n      0x00\n        /* \"#utility.yul\":3489:3490   */\n      dup1\n        /* \"#utility.yul\":3482:3494   */\n      revert\n        /* \"#utility.yul\":3433:3496   */\n    tag_97:\n        /* \"#utility.yul\":3380:3502   */\n      pop\n      jump\t// out\n        /* \"#utility.yul\":3508:3647   */\n    tag_54:\n        /* \"#utility.yul\":3554:3559   */\n      0x00\n        /* \"#utility.yul\":3592:3598   */\n      dup2\n        /* \"#utility.yul\":3579:3599   */\n      calldataload\n        /* \"#utility.yul\":3570:3599   */\n      swap1\n      pop\n        /* \"#utility.yul\":3608:3641   */\n      tag_99\n        /* \"#utility.yul\":3635:3640   */\n      dup2\n        /* \"#utility.yul\":3608:3641   */\n      tag_53\n      jump\t// in\n    tag_99:\n        /* \"#utility.yul\":3508:3647   */\n      swap3\n      swap2\n      pop\n      pop\n      jump\t// out\n        /* \"#utility.yul\":3653:3982   */\n    tag_17:\n        /* \"#utility.yul\":3712:3718   */\n      0x00\n        /* \"#utility.yul\":3761:3763   */\n      0x20\n        /* \"#utility.yul\":3749:3758   */\n      dup3\n        /* \"#utility.yul\":3740:3747   */\n      dup5\n        /* \"#utility.yul\":3736:3759   */\n      sub\n        /* \"#utility.yul\":3732:3764   */\n      slt\n        /* \"#utility.yul\":3729:3848   */\n      iszero\n      tag_101\n      jumpi\n        /* \"#utility.yul\":3767:3846   */\n      tag_102\n      tag_51\n      jump\t// in\n    tag_102:\n        /* \"#utility.yul\":3729:3848   */\n    tag_101:\n        /* \"#utility.yul\":3887:3888   */\n      0x00\n        /* \"#utility.yul\":3912:3965   */\n      tag_103\n        /* \"#utility.yul\":3957:3964   */\n      dup5\n        /* \"#utility.yul\":3948:3954   */\n      dup3\n        /* \"#utility.yul\":3937:3946   */\n      dup6\n        /* \"#utility.yul\":3933:3955   */\n      add\n        /* \"#utility.yul\":3912:3965   */\n      tag_54\n      jump\t// in\n    tag_103:\n        /* \"#utility.yul\":3902:3965   */\n      swap2\n      pop\n        /* \"#utility.yul\":3858:3975   */\n      pop\n        /* \"#utility.yul\":3653:3982   */\n      swap3\n      swap2\n      pop\n      pop\n      jump\t// out\n        /* \"#utility.yul\":3988:4168   */\n    tag_55:\n        /* \"#utility.yul\":4036:4113   */\n      0x4e487b7100000000000000000000000000000000000000000000000000000000\n        /* \"#utility.yul\":4033:4034   */\n      0x00\n        /* \"#utility.yul\":4026:4114   */\n      mstore\n        /* \"#utility.yul\":4133:4137   */\n      0x22\n        /* \"#utility.yul\":4130:4131   */\n      0x04\n        /* \"#utility.yul\":4123:4138   */\n      mstore\n        /* \"#utility.yul\":4157:4161   */\n      0x24\n        /* \"#utility.yul\":4154:4155   */\n      0x00\n        /* \"#utility.yul\":4147:4162   */\n      revert\n        /* \"#utility.yul\":4174:4494   */\n    tag_21:\n        /* \"#utility.yul\":4218:4224   */\n      0x00\n        /* \"#utility.yul\":4255:4256   */\n      0x02\n        /* \"#utility.yul\":4249:4253   */\n      dup3\n        /* \"#utility.yul\":4245:4257   */\n      div\n        /* \"#utility.yul\":4235:4257   */\n      swap1\n      pop\n        /* \"#utility.yul\":4302:4303   */\n      0x01\n        /* \"#utility.yul\":4296:4300   */\n      dup3\n        /* \"#utility.yul\":4292:4304   */\n      and\n        /* \"#utility.yul\":4323:4341   */\n      dup1\n        /* \"#utility.yul\":4313:4394   */\n      tag_106\n      jumpi\n        /* \"#utility.yul\":4379:4383   */\n      0x7f\n        /* \"#utility.yul\":4371:4377   */\n      dup3\n        /* \"#utility.yul\":4367:4384   */\n      and\n        /* \"#utility.yul\":4357:4384   */\n      swap2\n      pop\n        /* \"#utility.yul\":4313:4394   */\n    tag_106:\n        /* \"#utility.yul\":4441:4443   */\n      0x20\n        /* \"#utility.yul\":4433:4439   */\n      dup3\n        /* \"#utility.yul\":4430:4444   */\n      lt\n        /* \"#utility.yul\":4410:4428   */\n      dup2\n        /* \"#utility.yul\":4407:4445   */\n      sub\n        /* \"#utility.yul\":4404:4488   */\n      tag_107\n      jumpi\n        /* \"#utility.yul\":4460:4478   */\n      tag_108\n      tag_55\n      jump\t// in\n    tag_108:\n        /* \"#utility.yul\":4404:4488   */\n    tag_107:\n        /* \"#utility.yul\":4225:4494   */\n      pop\n        /* \"#utility.yul\":4174:4494   */\n      swap2\n      swap1\n      pop\n      jump\t// out\n        /* \"#utility.yul\":4500:4680   */\n    tag_56:\n        /* \"#utility.yul\":4548:4625   */\n      0x4e487b7100000000000000000000000000000000000000000000000000000000\n        /* \"#utility.yul\":4545:4546   */\n      0x00\n        /* \"#utility.yul\":4538:4626   */\n      mstore\n        /* \"#utility.yul\":4645:4649   */\n      0x11\n        /* \"#utility.yul\":4642:4643   */\n      0x04\n        /* \"#utility.yul\":4635:4650   */\n      mstore\n        /* \"#utility.yul\":4669:4673   */\n      0x24\n        /* \"#utility.yul\":4666:4667   */\n      0x00\n        /* \"#utility.yul\":4659:4674   */\n      revert\n        /* \"#utility.yul\":4686:4919   */\n    tag_31:\n        /* \"#utility.yul\":4725:4728   */\n      0x00\n        /* \"#utility.yul\":4748:4772   */\n      tag_111\n        /* \"#utility.yul\":4766:4771   */\n      dup3\n        /* \"#utility.yul\":4748:4772   */\n      tag_41\n      jump\t// in\n    tag_111:\n        /* \"#utility.yul\":4739:4772   */\n      swap2\n      pop\n        /* \"#utility.yul\":4794:4860   */\n      0xffffffffffffffffffffffffffffffffffffffffffffffffffffffffffffffff\n        /* \"#utility.yul\":4787:4792   */\n      dup3\n        /* \"#utility.yul\":4784:4861   */\n      sub\n        /* \"#utility.yul\":4781:4884   */\n      tag_112\n      jumpi\n        /* \"#utility.yul\":4864:4882   */\n      tag_113\n      tag_56\n      jump\t// in\n    tag_113:\n        /* \"#utility.yul\":4781:4884   */\n    tag_112:\n        /* \"#utility.yul\":4911:4912   */\n      0x01\n        /* \"#utility.yul\":4904:4909   */\n      dup3\n        /* \"#utility.yul\":4900:4913   */\n      add\n        /* \"#utility.yul\":4893:4913   */\n      swap1\n      pop\n        /* \"#utility.yul\":4686:4919   */\n      swap2\n      swap1\n      pop\n      jump\t// out\n\n    auxdata: 0xa2646970667358221220ccafbfb7a37996725ddf8c0d4fabef57c182436320de59f722ab935d2d4e4c7e64736f6c634300080d0033\n}\n",
    "bytecode": {
      "linkReferences": {},
      "object": "60806040523480156200001157600080fd5b5060405162000b6b38038062000b6b8339818101604052810190620000379190620003c8565b836000800160006101000a81548173ffffffffffffffffffffffffffffffffffffffff021916908373ffffffffffffffffffffffffffffffffffffffff160217905550826000600101908051906020019062000095929190620000db565b5081600060020181905550806000600301819055506000806005018190555060008060060160006101000a81548160ff02191690831515021790555050505050620004bd565b828054620000e99062000488565b90600052602060002090601f0160209004810192826200010d576000855562000159565b82601f106200012857805160ff191683800117855562000159565b8280016001018555821562000159579182015b82811115620001585782518255916020019190600101906200013b565b5b5090506200016891906200016c565b5090565b5b80821115620001875760008160009055506001016200016d565b5090565b6000604051905090565b600080fd5b600080fd5b600073ffffffffffffffffffffffffffffffffffffffff82169050919050565b6000620001cc826200019f565b9050919050565b620001de81620001bf565b8114620001ea57600080fd5b50565b600081519050620001fe81620001d3565b92915050565b600080fd5b600080fd5b6000601f19601f8301169050919050565b7f4e487b7100000000000000000000000000000000000000000000000000000000600052604160045260246000fd5b62000259826200020e565b810181811067ffffffffffffffff821117156200027b576200027a6200021f565b5b80604052505050565b6000620002906200018b565b90506200029e82826200024e565b919050565b600067ffffffffffffffff821115620002c157620002c06200021f565b5b620002cc826200020e565b9050602081019050919050565b60005b83811015620002f9578082015181840152602081019050620002dc565b8381111562000309576000848401525b50505050565b6000620003266200032084620002a3565b62000284565b90508281526020810184848401111562000345576200034462000209565b5b62000352848285620002d9565b509392505050565b600082601f83011262000372576200037162000204565b5b8151620003848482602086016200030f565b91505092915050565b6000819050919050565b620003a2816200038d565b8114620003ae57600080fd5b50565b600081519050620003c28162000397565b92915050565b60008060008060808587031215620003e557620003e462000195565b5b6000620003f587828801620001ed565b945050602085015167ffffffffffffffff8111156200041957620004186200019a565b5b62000427878288016200035a565b93505060406200043a87828801620003b1565b92505060606200044d87828801620003b1565b91505092959194509250565b7f4e487b7100000000000000000000000000000000000000000000000000000000600052602260045260246000fd5b60006002820490506001821680620004a157607f821691505b602082108103620004b757620004b662000459565b5b50919050565b61069e80620004cd6000396000f3fe6080604052600436106100345760003560e01c8063236b8e3a1461003957806339cbcc641461006a578063c1cbbca714610095575b600080fd5b34801561004557600080fd5b5061004e6100b1565b60405161006197969594939291906104a2565b60405180910390f35b34801561007657600080fd5b5061007f6101ad565b60405161008c9190610518565b60405180910390f35b6100af60048036038101906100aa9190610564565b6101f6565b005b600080606060008060008060008060000160009054906101000a900473ffffffffffffffffffffffffffffffffffffffff1647826001018360020154846003015485600501548660060160009054906101000a900460ff16848054610115906105c0565b80601f0160208091040260200160405190810160405280929190818152602001828054610141906105c0565b801561018e5780601f106101635761010080835404028352916020019161018e565b820191906000526020600020905b81548152906001019060200180831161017157829003601f168201915b5050505050945097509750975097509750975097505090919293949596565b60008060040160003373ffffffffffffffffffffffffffffffffffffffff1673ffffffffffffffffffffffffffffffffffffffff16815260200190815260200160002054905090565b600060060160009054906101000a900460ff161561021357600080fd5b60008060030154036102865780600060040160003373ffffffffffffffffffffffffffffffffffffffff1673ffffffffffffffffffffffffffffffffffffffff168152602001908152602001600020819055506000600501600081548092919061027c90610620565b91905055506102fb565b60006003015434101561029857600080fd5b80600060040160003373ffffffffffffffffffffffffffffffffffffffff1673ffffffffffffffffffffffffffffffffffffffff16815260200190815260200160002081905550600060050160008154809291906102f590610620565b91905055505b6000600201544710610391576000800160009054906101000a900473ffffffffffffffffffffffffffffffffffffffff1673ffffffffffffffffffffffffffffffffffffffff166108fc479081150290604051600060405180830381858888f19350505050158015610371573d6000803e3d6000fd5b506001600060060160006101000a81548160ff0219169083151502179055505b50565b600073ffffffffffffffffffffffffffffffffffffffff82169050919050565b60006103bf82610394565b9050919050565b6103cf816103b4565b82525050565b6000819050919050565b6103e8816103d5565b82525050565b600081519050919050565b600082825260208201905092915050565b60005b8381101561042857808201518184015260208101905061040d565b83811115610437576000848401525b50505050565b6000601f19601f8301169050919050565b6000610459826103ee565b61046381856103f9565b935061047381856020860161040a565b61047c8161043d565b840191505092915050565b60008115159050919050565b61049c81610487565b82525050565b600060e0820190506104b7600083018a6103c6565b6104c460208301896103df565b81810360408301526104d6818861044e565b90506104e560608301876103df565b6104f260808301866103df565b6104ff60a08301856103df565b61050c60c0830184610493565b98975050505050505050565b600060208201905061052d60008301846103df565b92915050565b600080fd5b610541816103d5565b811461054c57600080fd5b50565b60008135905061055e81610538565b92915050565b60006020828403121561057a57610579610533565b5b60006105888482850161054f565b91505092915050565b7f4e487b7100000000000000000000000000000000000000000000000000000000600052602260045260246000fd5b600060028204905060018216806105d857607f821691505b6020821081036105eb576105ea610591565b5b50919050565b7f4e487b7100000000000000000000000000000000000000000000000000000000600052601160045260246000fd5b600061062b826103d5565b91507fffffffffffffffffffffffffffffffffffffffffffffffffffffffffffffffff820361065d5761065c6105f1565b5b60018201905091905056fea2646970667358221220ccafbfb7a37996725ddf8c0d4fabef57c182436320de59f722ab935d2d4e4c7e64736f6c634300080d0033",
      "opcodes": "PUSH1 0x80 PUSH1 0x40 MSTORE CALLVALUE DUP1 ISZERO PUSH3 0x11 JUMPI PUSH1 0x0 DUP1 REVERT JUMPDEST POP PUSH1 0x40 MLOAD PUSH3 0xB6B CODESIZE SUB DUP1 PUSH3 0xB6B DUP4 CODECOPY DUP2 DUP2 ADD PUSH1 0x40 MSTORE DUP2 ADD SWAP1 PUSH3 0x37 SWAP2 SWAP1 PUSH3 0x3C8 JUMP JUMPDEST DUP4 PUSH1 0x0 DUP1 ADD PUSH1 0x0 PUSH2 0x100 EXP DUP2 SLOAD DUP2 PUSH20 0xFFFFFFFFFFFFFFFFFFFFFFFFFFFFFFFFFFFFFFFF MUL NOT AND SWAP1 DUP4 PUSH20 0xFFFFFFFFFFFFFFFFFFFFFFFFFFFFFFFFFFFFFFFF AND MUL OR SWAP1 SSTORE POP DUP3 PUSH1 0x0 PUSH1 0x1 ADD SWAP1 DUP1 MLOAD SWAP1 PUSH1 0x20 ADD SWAP1 PUSH3 0x95 SWAP3 SWAP2 SWAP1 PUSH3 0xDB JUMP JUMPDEST POP DUP2 PUSH1 0x0 PUSH1 0x2 ADD DUP2 SWAP1 SSTORE POP DUP1 PUSH1 0x0 PUSH1 0x3 ADD DUP2 SWAP1 SSTORE POP PUSH1 0x0 DUP1 PUSH1 0x5 ADD DUP2 SWAP1 SSTORE POP PUSH1 0x0 DUP1 PUSH1 0x6 ADD PUSH1 0x0 PUSH2 0x100 EXP DUP2 SLOAD DUP2 PUSH1 0xFF MUL NOT AND SWAP1 DUP4 ISZERO ISZERO MUL OR SWAP1 SSTORE POP POP POP POP POP PUSH3 0x4BD JUMP JUMPDEST DUP3 DUP1 SLOAD PUSH3 0xE9 SWAP1 PUSH3 0x488 JUMP JUMPDEST SWAP1 PUSH1 0x0 MSTORE PUSH1 0x20 PUSH1 0x0 KECCAK256 SWAP1 PUSH1 0x1F ADD PUSH1 0x20 SWAP1 DIV DUP2 ADD SWAP3 DUP3 PUSH3 0x10D JUMPI PUSH1 0x0 DUP6 SSTORE PUSH3 0x159 JUMP JUMPDEST DUP3 PUSH1 0x1F LT PUSH3 0x128 JUMPI DUP1 MLOAD PUSH1 0xFF NOT AND DUP4 DUP1 ADD OR DUP6 SSTORE PUSH3 0x159 JUMP JUMPDEST DUP3 DUP1 ADD PUSH1 0x1 ADD DUP6 SSTORE DUP3 ISZERO PUSH3 0x159 JUMPI SWAP2 DUP3 ADD JUMPDEST DUP3 DUP2 GT ISZERO PUSH3 0x158 JUMPI DUP3 MLOAD DUP3 SSTORE SWAP2 PUSH1 0x20 ADD SWAP2 SWAP1 PUSH1 0x1 ADD SWAP1 PUSH3 0x13B JUMP JUMPDEST JUMPDEST POP SWAP1 POP PUSH3 0x168 SWAP2 SWAP1 PUSH3 0x16C JUMP JUMPDEST POP SWAP1 JUMP JUMPDEST JUMPDEST DUP1 DUP3 GT ISZERO PUSH3 0x187 JUMPI PUSH1 0x0 DUP2 PUSH1 0x0 SWAP1 SSTORE POP PUSH1 0x1 ADD PUSH3 0x16D JUMP JUMPDEST POP SWAP1 JUMP JUMPDEST PUSH1 0x0 PUSH1 0x40 MLOAD SWAP1 POP SWAP1 JUMP JUMPDEST PUSH1 0x0 DUP1 REVERT JUMPDEST PUSH1 0x0 DUP1 REVERT JUMPDEST PUSH1 0x0 PUSH20 0xFFFFFFFFFFFFFFFFFFFFFFFFFFFFFFFFFFFFFFFF DUP3 AND SWAP1 POP SWAP2 SWAP1 POP JUMP JUMPDEST PUSH1 0x0 PUSH3 0x1CC DUP3 PUSH3 0x19F JUMP JUMPDEST SWAP1 POP SWAP2 SWAP1 POP JUMP JUMPDEST PUSH3 0x1DE DUP2 PUSH3 0x1BF JUMP JUMPDEST DUP2 EQ PUSH3 0x1EA JUMPI PUSH1 0x0 DUP1 REVERT JUMPDEST POP JUMP JUMPDEST PUSH1 0x0 DUP2 MLOAD SWAP1 POP PUSH3 0x1FE DUP2 PUSH3 0x1D3 JUMP JUMPDEST SWAP3 SWAP2 POP POP JUMP JUMPDEST PUSH1 0x0 DUP1 REVERT JUMPDEST PUSH1 0x0 DUP1 REVERT JUMPDEST PUSH1 0x0 PUSH1 0x1F NOT PUSH1 0x1F DUP4 ADD AND SWAP1 POP SWAP2 SWAP1 POP JUMP JUMPDEST PUSH32 0x4E487B7100000000000000000000000000000000000000000000000000000000 PUSH1 0x0 MSTORE PUSH1 0x41 PUSH1 0x4 MSTORE PUSH1 0x24 PUSH1 0x0 REVERT JUMPDEST PUSH3 0x259 DUP3 PUSH3 0x20E JUMP JUMPDEST DUP2 ADD DUP2 DUP2 LT PUSH8 0xFFFFFFFFFFFFFFFF DUP3 GT OR ISZERO PUSH3 0x27B JUMPI PUSH3 0x27A PUSH3 0x21F JUMP JUMPDEST JUMPDEST DUP1 PUSH1 0x40 MSTORE POP POP POP JUMP JUMPDEST PUSH1 0x0 PUSH3 0x290 PUSH3 0x18B JUMP JUMPDEST SWAP1 POP PUSH3 0x29E DUP3 DUP3 PUSH3 0x24E JUMP JUMPDEST SWAP2 SWAP1 POP JUMP JUMPDEST PUSH1 0x0 PUSH8 0xFFFFFFFFFFFFFFFF DUP3 GT ISZERO PUSH3 0x2C1 JUMPI PUSH3 0x2C0 PUSH3 0x21F JUMP JUMPDEST JUMPDEST PUSH3 0x2CC DUP3 PUSH3 0x20E JUMP JUMPDEST SWAP1 POP PUSH1 0x20 DUP2 ADD SWAP1 POP SWAP2 SWAP1 POP JUMP JUMPDEST PUSH1 0x0 JUMPDEST DUP4 DUP2 LT ISZERO PUSH3 0x2F9 JUMPI DUP1 DUP3 ADD MLOAD DUP2 DUP5 ADD MSTORE PUSH1 0x20 DUP2 ADD SWAP1 POP PUSH3 0x2DC JUMP JUMPDEST DUP4 DUP2 GT ISZERO PUSH3 0x309 JUMPI PUSH1 0x0 DUP5 DUP5 ADD MSTORE JUMPDEST POP POP POP POP JUMP JUMPDEST PUSH1 0x0 PUSH3 0x326 PUSH3 0x320 DUP5 PUSH3 0x2A3 JUMP JUMPDEST PUSH3 0x284 JUMP JUMPDEST SWAP1 POP DUP3 DUP2 MSTORE PUSH1 0x20 DUP2 ADD DUP5 DUP5 DUP5 ADD GT ISZERO PUSH3 0x345 JUMPI PUSH3 0x344 PUSH3 0x209 JUMP JUMPDEST JUMPDEST PUSH3 0x352 DUP5 DUP3 DUP6 PUSH3 0x2D9 JUMP JUMPDEST POP SWAP4 SWAP3 POP POP POP JUMP JUMPDEST PUSH1 0x0 DUP3 PUSH1 0x1F DUP4 ADD SLT PUSH3 0x372 JUMPI PUSH3 0x371 PUSH3 0x204 JUMP JUMPDEST JUMPDEST DUP2 MLOAD PUSH3 0x384 DUP5 DUP3 PUSH1 0x20 DUP7 ADD PUSH3 0x30F JUMP JUMPDEST SWAP2 POP POP SWAP3 SWAP2 POP POP JUMP JUMPDEST PUSH1 0x0 DUP2 SWAP1 POP SWAP2 SWAP1 POP JUMP JUMPDEST PUSH3 0x3A2 DUP2 PUSH3 0x38D JUMP JUMPDEST DUP2 EQ PUSH3 0x3AE JUMPI PUSH1 0x0 DUP1 REVERT JUMPDEST POP JUMP JUMPDEST PUSH1 0x0 DUP2 MLOAD SWAP1 POP PUSH3 0x3C2 DUP2 PUSH3 0x397 JUMP JUMPDEST SWAP3 SWAP2 POP POP JUMP JUMPDEST PUSH1 0x0 DUP1 PUSH1 0x0 DUP1 PUSH1 0x80 DUP6 DUP8 SUB SLT ISZERO PUSH3 0x3E5 JUMPI PUSH3 0x3E4 PUSH3 0x195 JUMP JUMPDEST JUMPDEST PUSH1 0x0 PUSH3 0x3F5 DUP8 DUP3 DUP9 ADD PUSH3 0x1ED JUMP JUMPDEST SWAP5 POP POP PUSH1 0x20 DUP6 ADD MLOAD PUSH8 0xFFFFFFFFFFFFFFFF DUP2 GT ISZERO PUSH3 0x419 JUMPI PUSH3 0x418 PUSH3 0x19A JUMP JUMPDEST JUMPDEST PUSH3 0x427 DUP8 DUP3 DUP9 ADD PUSH3 0x35A JUMP JUMPDEST SWAP4 POP POP PUSH1 0x40 PUSH3 0x43A DUP8 DUP3 DUP9 ADD PUSH3 0x3B1 JUMP JUMPDEST SWAP3 POP POP PUSH1 0x60 PUSH3 0x44D DUP8 DUP3 DUP9 ADD PUSH3 0x3B1 JUMP JUMPDEST SWAP2 POP POP SWAP3 SWAP6 SWAP2 SWAP5 POP SWAP3 POP JUMP JUMPDEST PUSH32 0x4E487B7100000000000000000000000000000000000000000000000000000000 PUSH1 0x0 MSTORE PUSH1 0x22 PUSH1 0x4 MSTORE PUSH1 0x24 PUSH1 0x0 REVERT JUMPDEST PUSH1 0x0 PUSH1 0x2 DUP3 DIV SWAP1 POP PUSH1 0x1 DUP3 AND DUP1 PUSH3 0x4A1 JUMPI PUSH1 0x7F DUP3 AND SWAP2 POP JUMPDEST PUSH1 0x20 DUP3 LT DUP2 SUB PUSH3 0x4B7 JUMPI PUSH3 0x4B6 PUSH3 0x459 JUMP JUMPDEST JUMPDEST POP SWAP2 SWAP1 POP JUMP JUMPDEST PUSH2 0x69E DUP1 PUSH3 0x4CD PUSH1 0x0 CODECOPY PUSH1 0x0 RETURN INVALID PUSH1 0x80 PUSH1 0x40 MSTORE PUSH1 0x4 CALLDATASIZE LT PUSH2 0x34 JUMPI PUSH1 0x0 CALLDATALOAD PUSH1 0xE0 SHR DUP1 PUSH4 0x236B8E3A EQ PUSH2 0x39 JUMPI DUP1 PUSH4 0x39CBCC64 EQ PUSH2 0x6A JUMPI DUP1 PUSH4 0xC1CBBCA7 EQ PUSH2 0x95 JUMPI JUMPDEST PUSH1 0x0 DUP1 REVERT JUMPDEST CALLVALUE DUP1 ISZERO PUSH2 0x45 JUMPI PUSH1 0x0 DUP1 REVERT JUMPDEST POP PUSH2 0x4E PUSH2 0xB1 JUMP JUMPDEST PUSH1 0x40 MLOAD PUSH2 0x61 SWAP8 SWAP7 SWAP6 SWAP5 SWAP4 SWAP3 SWAP2 SWAP1 PUSH2 0x4A2 JUMP JUMPDEST PUSH1 0x40 MLOAD DUP1 SWAP2 SUB SWAP1 RETURN JUMPDEST CALLVALUE DUP1 ISZERO PUSH2 0x76 JUMPI PUSH1 0x0 DUP1 REVERT JUMPDEST POP PUSH2 0x7F PUSH2 0x1AD JUMP JUMPDEST PUSH1 0x40 MLOAD PUSH2 0x8C SWAP2 SWAP1 PUSH2 0x518 JUMP JUMPDEST PUSH1 0x40 MLOAD DUP1 SWAP2 SUB SWAP1 RETURN JUMPDEST PUSH2 0xAF PUSH1 0x4 DUP1 CALLDATASIZE SUB DUP2 ADD SWAP1 PUSH2 0xAA SWAP2 SWAP1 PUSH2 0x564 JUMP JUMPDEST PUSH2 0x1F6 JUMP JUMPDEST STOP JUMPDEST PUSH1 0x0 DUP1 PUSH1 0x60 PUSH1 0x0 DUP1 PUSH1 0x0 DUP1 PUSH1 0x0 DUP1 PUSH1 0x0 ADD PUSH1 0x0 SWAP1 SLOAD SWAP1 PUSH2 0x100 EXP SWAP1 DIV PUSH20 0xFFFFFFFFFFFFFFFFFFFFFFFFFFFFFFFFFFFFFFFF AND SELFBALANCE DUP3 PUSH1 0x1 ADD DUP4 PUSH1 0x2 ADD SLOAD DUP5 PUSH1 0x3 ADD SLOAD DUP6 PUSH1 0x5 ADD SLOAD DUP7 PUSH1 0x6 ADD PUSH1 0x0 SWAP1 SLOAD SWAP1 PUSH2 0x100 EXP SWAP1 DIV PUSH1 0xFF AND DUP5 DUP1 SLOAD PUSH2 0x115 SWAP1 PUSH2 0x5C0 JUMP JUMPDEST DUP1 PUSH1 0x1F ADD PUSH1 0x20 DUP1 SWAP2 DIV MUL PUSH1 0x20 ADD PUSH1 0x40 MLOAD SWAP1 DUP2 ADD PUSH1 0x40 MSTORE DUP1 SWAP3 SWAP2 SWAP1 DUP2 DUP2 MSTORE PUSH1 0x20 ADD DUP3 DUP1 SLOAD PUSH2 0x141 SWAP1 PUSH2 0x5C0 JUMP JUMPDEST DUP1 ISZERO PUSH2 0x18E JUMPI DUP1 PUSH1 0x1F LT PUSH2 0x163 JUMPI PUSH2 0x100 DUP1 DUP4 SLOAD DIV MUL DUP4 MSTORE SWAP2 PUSH1 0x20 ADD SWAP2 PUSH2 0x18E JUMP JUMPDEST DUP3 ADD SWAP2 SWAP1 PUSH1 0x0 MSTORE PUSH1 0x20 PUSH1 0x0 KECCAK256 SWAP1 JUMPDEST DUP2 SLOAD DUP2 MSTORE SWAP1 PUSH1 0x1 ADD SWAP1 PUSH1 0x20 ADD DUP1 DUP4 GT PUSH2 0x171 JUMPI DUP3 SWAP1 SUB PUSH1 0x1F AND DUP3 ADD SWAP2 JUMPDEST POP POP POP POP POP SWAP5 POP SWAP8 POP SWAP8 POP SWAP8 POP SWAP8 POP SWAP8 POP SWAP8 POP SWAP8 POP POP SWAP1 SWAP2 SWAP3 SWAP4 SWAP5 SWAP6 SWAP7 JUMP JUMPDEST PUSH1 0x0 DUP1 PUSH1 0x4 ADD PUSH1 0x0 CALLER PUSH20 0xFFFFFFFFFFFFFFFFFFFFFFFFFFFFFFFFFFFFFFFF AND PUSH20 0xFFFFFFFFFFFFFFFFFFFFFFFFFFFFFFFFFFFFFFFF AND DUP2 MSTORE PUSH1 0x20 ADD SWAP1 DUP2 MSTORE PUSH1 0x20 ADD PUSH1 0x0 KECCAK256 SLOAD SWAP1 POP SWAP1 JUMP JUMPDEST PUSH1 0x0 PUSH1 0x6 ADD PUSH1 0x0 SWAP1 SLOAD SWAP1 PUSH2 0x100 EXP SWAP1 DIV PUSH1 0xFF AND ISZERO PUSH2 0x213 JUMPI PUSH1 0x0 DUP1 REVERT JUMPDEST PUSH1 0x0 DUP1 PUSH1 0x3 ADD SLOAD SUB PUSH2 0x286 JUMPI DUP1 PUSH1 0x0 PUSH1 0x4 ADD PUSH1 0x0 CALLER PUSH20 0xFFFFFFFFFFFFFFFFFFFFFFFFFFFFFFFFFFFFFFFF AND PUSH20 0xFFFFFFFFFFFFFFFFFFFFFFFFFFFFFFFFFFFFFFFF AND DUP2 MSTORE PUSH1 0x20 ADD SWAP1 DUP2 MSTORE PUSH1 0x20 ADD PUSH1 0x0 KECCAK256 DUP2 SWAP1 SSTORE POP PUSH1 0x0 PUSH1 0x5 ADD PUSH1 0x0 DUP2 SLOAD DUP1 SWAP3 SWAP2 SWAP1 PUSH2 0x27C SWAP1 PUSH2 0x620 JUMP JUMPDEST SWAP2 SWAP1 POP SSTORE POP PUSH2 0x2FB JUMP JUMPDEST PUSH1 0x0 PUSH1 0x3 ADD SLOAD CALLVALUE LT ISZERO PUSH2 0x298 JUMPI PUSH1 0x0 DUP1 REVERT JUMPDEST DUP1 PUSH1 0x0 PUSH1 0x4 ADD PUSH1 0x0 CALLER PUSH20 0xFFFFFFFFFFFFFFFFFFFFFFFFFFFFFFFFFFFFFFFF AND PUSH20 0xFFFFFFFFFFFFFFFFFFFFFFFFFFFFFFFFFFFFFFFF AND DUP2 MSTORE PUSH1 0x20 ADD SWAP1 DUP2 MSTORE PUSH1 0x20 ADD PUSH1 0x0 KECCAK256 DUP2 SWAP1 SSTORE POP PUSH1 0x0 PUSH1 0x5 ADD PUSH1 0x0 DUP2 SLOAD DUP1 SWAP3 SWAP2 SWAP1 PUSH2 0x2F5 SWAP1 PUSH2 0x620 JUMP JUMPDEST SWAP2 SWAP1 POP SSTORE POP JUMPDEST PUSH1 0x0 PUSH1 0x2 ADD SLOAD SELFBALANCE LT PUSH2 0x391 JUMPI PUSH1 0x0 DUP1 ADD PUSH1 0x0 SWAP1 SLOAD SWAP1 PUSH2 0x100 EXP SWAP1 DIV PUSH20 0xFFFFFFFFFFFFFFFFFFFFFFFFFFFFFFFFFFFFFFFF AND PUSH20 0xFFFFFFFFFFFFFFFFFFFFFFFFFFFFFFFFFFFFFFFF AND PUSH2 0x8FC SELFBALANCE SWAP1 DUP2 ISZERO MUL SWAP1 PUSH1 0x40 MLOAD PUSH1 0x0 PUSH1 0x40 MLOAD DUP1 DUP4 SUB DUP2 DUP6 DUP9 DUP9 CALL SWAP4 POP POP POP POP ISZERO DUP1 ISZERO PUSH2 0x371 JUMPI RETURNDATASIZE PUSH1 0x0 DUP1 RETURNDATACOPY RETURNDATASIZE PUSH1 0x0 REVERT JUMPDEST POP PUSH1 0x1 PUSH1 0x0 PUSH1 0x6 ADD PUSH1 0x0 PUSH2 0x100 EXP DUP2 SLOAD DUP2 PUSH1 0xFF MUL NOT AND SWAP1 DUP4 ISZERO ISZERO MUL OR SWAP1 SSTORE POP JUMPDEST POP JUMP JUMPDEST PUSH1 0x0 PUSH20 0xFFFFFFFFFFFFFFFFFFFFFFFFFFFFFFFFFFFFFFFF DUP3 AND SWAP1 POP SWAP2 SWAP1 POP JUMP JUMPDEST PUSH1 0x0 PUSH2 0x3BF DUP3 PUSH2 0x394 JUMP JUMPDEST SWAP1 POP SWAP2 SWAP1 POP JUMP JUMPDEST PUSH2 0x3CF DUP2 PUSH2 0x3B4 JUMP JUMPDEST DUP3 MSTORE POP POP JUMP JUMPDEST PUSH1 0x0 DUP2 SWAP1 POP SWAP2 SWAP1 POP JUMP JUMPDEST PUSH2 0x3E8 DUP2 PUSH2 0x3D5 JUMP JUMPDEST DUP3 MSTORE POP POP JUMP JUMPDEST PUSH1 0x0 DUP2 MLOAD SWAP1 POP SWAP2 SWAP1 POP JUMP JUMPDEST PUSH1 0x0 DUP3 DUP3 MSTORE PUSH1 0x20 DUP3 ADD SWAP1 POP SWAP3 SWAP2 POP POP JUMP JUMPDEST PUSH1 0x0 JUMPDEST DUP4 DUP2 LT ISZERO PUSH2 0x428 JUMPI DUP1 DUP3 ADD MLOAD DUP2 DUP5 ADD MSTORE PUSH1 0x20 DUP2 ADD SWAP1 POP PUSH2 0x40D JUMP JUMPDEST DUP4 DUP2 GT ISZERO PUSH2 0x437 JUMPI PUSH1 0x0 DUP5 DUP5 ADD MSTORE JUMPDEST POP POP POP POP JUMP JUMPDEST PUSH1 0x0 PUSH1 0x1F NOT PUSH1 0x1F DUP4 ADD AND SWAP1 POP SWAP2 SWAP1 POP JUMP JUMPDEST PUSH1 0x0 PUSH2 0x459 DUP3 PUSH2 0x3EE JUMP JUMPDEST PUSH2 0x463 DUP2 DUP6 PUSH2 0x3F9 JUMP JUMPDEST SWAP4 POP PUSH2 0x473 DUP2 DUP6 PUSH1 0x20 DUP7 ADD PUSH2 0x40A JUMP JUMPDEST PUSH2 0x47C DUP2 PUSH2 0x43D JUMP JUMPDEST DUP5 ADD SWAP2 POP POP SWAP3 SWAP2 POP POP JUMP JUMPDEST PUSH1 0x0 DUP2 ISZERO ISZERO SWAP1 POP SWAP2 SWAP1 POP JUMP JUMPDEST PUSH2 0x49C DUP2 PUSH2 0x487 JUMP JUMPDEST DUP3 MSTORE POP POP JUMP JUMPDEST PUSH1 0x0 PUSH1 0xE0 DUP3 ADD SWAP1 POP PUSH2 0x4B7 PUSH1 0x0 DUP4 ADD DUP11 PUSH2 0x3C6 JUMP JUMPDEST PUSH2 0x4C4 PUSH1 0x20 DUP4 ADD DUP10 PUSH2 0x3DF JUMP JUMPDEST DUP2 DUP2 SUB PUSH1 0x40 DUP4 ADD MSTORE PUSH2 0x4D6 DUP2 DUP9 PUSH2 0x44E JUMP JUMPDEST SWAP1 POP PUSH2 0x4E5 PUSH1 0x60 DUP4 ADD DUP8 PUSH2 0x3DF JUMP JUMPDEST PUSH2 0x4F2 PUSH1 0x80 DUP4 ADD DUP7 PUSH2 0x3DF JUMP JUMPDEST PUSH2 0x4FF PUSH1 0xA0 DUP4 ADD DUP6 PUSH2 0x3DF JUMP JUMPDEST PUSH2 0x50C PUSH1 0xC0 DUP4 ADD DUP5 PUSH2 0x493 JUMP JUMPDEST SWAP9 SWAP8 POP POP POP POP POP POP POP POP JUMP JUMPDEST PUSH1 0x0 PUSH1 0x20 DUP3 ADD SWAP1 POP PUSH2 0x52D PUSH1 0x0 DUP4 ADD DUP5 PUSH2 0x3DF JUMP JUMPDEST SWAP3 SWAP2 POP POP JUMP JUMPDEST PUSH1 0x0 DUP1 REVERT JUMPDEST PUSH2 0x541 DUP2 PUSH2 0x3D5 JUMP JUMPDEST DUP2 EQ PUSH2 0x54C JUMPI PUSH1 0x0 DUP1 REVERT JUMPDEST POP JUMP JUMPDEST PUSH1 0x0 DUP2 CALLDATALOAD SWAP1 POP PUSH2 0x55E DUP2 PUSH2 0x538 JUMP JUMPDEST SWAP3 SWAP2 POP POP JUMP JUMPDEST PUSH1 0x0 PUSH1 0x20 DUP3 DUP5 SUB SLT ISZERO PUSH2 0x57A JUMPI PUSH2 0x579 PUSH2 0x533 JUMP JUMPDEST JUMPDEST PUSH1 0x0 PUSH2 0x588 DUP5 DUP3 DUP6 ADD PUSH2 0x54F JUMP JUMPDEST SWAP2 POP POP SWAP3 SWAP2 POP POP JUMP JUMPDEST PUSH32 0x4E487B7100000000000000000000000000000000000000000000000000000000 PUSH1 0x0 MSTORE PUSH1 0x22 PUSH1 0x4 MSTORE PUSH1 0x24 PUSH1 0x0 REVERT JUMPDEST PUSH1 0x0 PUSH1 0x2 DUP3 DIV SWAP1 POP PUSH1 0x1 DUP3 AND DUP1 PUSH2 0x5D8 JUMPI PUSH1 0x7F DUP3 AND SWAP2 POP JUMPDEST PUSH1 0x20 DUP3 LT DUP2 SUB PUSH2 0x5EB JUMPI PUSH2 0x5EA PUSH2 0x591 JUMP JUMPDEST JUMPDEST POP SWAP2 SWAP1 POP JUMP JUMPDEST PUSH32 0x4E487B7100000000000000000000000000000000000000000000000000000000 PUSH1 0x0 MSTORE PUSH1 0x11 PUSH1 0x4 MSTORE PUSH1 0x24 PUSH1 0x0 REVERT JUMPDEST PUSH1 0x0 PUSH2 0x62B DUP3 PUSH2 0x3D5 JUMP JUMPDEST SWAP2 POP PUSH32 0xFFFFFFFFFFFFFFFFFFFFFFFFFFFFFFFFFFFFFFFFFFFFFFFFFFFFFFFFFFFFFFFF DUP3 SUB PUSH2 0x65D JUMPI PUSH2 0x65C PUSH2 0x5F1 JUMP JUMPDEST JUMPDEST PUSH1 0x1 DUP3 ADD SWAP1 POP SWAP2 SWAP1 POP JUMP INVALID LOG2 PUSH5 0x6970667358 0x22 SLT KECCAK256 0xCC 0xAF 0xBF 0xB7 LOG3 PUSH26 0x96725DDF8C0D4FABEF57C182436320DE59F722AB935D2D4E4C7E PUSH5 0x736F6C6343 STOP ADDMOD 0xD STOP CALLER "
    },
    "gasEstimates": {
      "creation": {
        "codeDepositCost": "338800",
        "executionCost": "infinite",
        "totalCost": "infinite"
      },
      "external": {
        "contribute(uint256)": "infinite",
        "getCampaign()": "infinite",
        "getContributorDonate()": "2532"
      }
    },
    "methodIdentifiers": {
      "contribute(uint256)": "c1cbbca7",
      "getCampaign()": "236b8e3a",
      "getContributorDonate()": "39cbcc64"
    }
  },
  "storageLayout": {
    "storage": [
      {
        "astId": 87,
        "contract": "Campaign.sol:Campaign",
        "label": "campaign",
        "offset": 0,
        "slot": "0",
        "type": "t_struct(Information)84_storage"
      }
    ],
    "types": {
      "t_address": {
        "encoding": "inplace",
        "label": "address",
        "numberOfBytes": "20"
      },
      "t_address_payable": {
        "encoding": "inplace",
        "label": "address payable",
        "numberOfBytes": "20"
      },
      "t_bool": {
        "encoding": "inplace",
        "label": "bool",
        "numberOfBytes": "1"
      },
      "t_mapping(t_address,t_uint256)": {
        "encoding": "mapping",
        "key": "t_address",
        "label": "mapping(address => uint256)",
        "numberOfBytes": "32",
        "value": "t_uint256"
      },
      "t_string_storage": {
        "encoding": "bytes",
        "label": "string",
        "numberOfBytes": "32"
      },
      "t_struct(Information)84_storage": {
        "encoding": "inplace",
        "label": "struct Campaign.Information",
        "members": [
          {
            "astId": 69,
            "contract": "Campaign.sol:Campaign",
            "label": "manager",
            "offset": 0,
            "slot": "0",
            "type": "t_address_payable"
          },
          {
            "astId": 71,
            "contract": "Campaign.sol:Campaign",
            "label": "name",
            "offset": 0,
            "slot": "1",
            "type": "t_string_storage"
          },
          {
            "astId": 73,
            "contract": "Campaign.sol:Campaign",
            "label": "requiredBalance",
            "offset": 0,
            "slot": "2",
            "type": "t_uint256"
          },
          {
            "astId": 75,
            "contract": "Campaign.sol:Campaign",
            "label": "requiredCost",
            "offset": 0,
            "slot": "3",
            "type": "t_uint256"
          },
          {
            "astId": 79,
            "contract": "Campaign.sol:Campaign",
            "label": "contributors",
            "offset": 0,
            "slot": "4",
            "type": "t_mapping(t_address,t_uint256)"
          },
          {
            "astId": 81,
            "contract": "Campaign.sol:Campaign",
            "label": "contributorsCount",
            "offset": 0,
            "slot": "5",
            "type": "t_uint256"
          },
          {
            "astId": 83,
            "contract": "Campaign.sol:Campaign",
            "label": "complete",
            "offset": 0,
            "slot": "6",
            "type": "t_bool"
          }
        ],
        "numberOfBytes": "224"
      },
      "t_uint256": {
        "encoding": "inplace",
        "label": "uint256",
        "numberOfBytes": "32"
      }
    }
  },
  "userdoc": {
    "kind": "user",
    "methods": {},
    "version": 1
  }
}