{"abi":[{"inputs":[{"internalType":"string","name":"campaignName","type":"string"},{"internalType":"uint256","name":"requiredBalance","type":"uint256"},{"internalType":"uint256","name":"requiredCost","type":"uint256"}],"name":"createCampaign","outputs":[{"internalType":"address","name":"","type":"address"}],"stateMutability":"nonpayable","type":"function"},{"inputs":[],"name":"getDeployedCampaigns","outputs":[{"internalType":"address[]","name":"","type":"address[]"},{"internalType":"string[]","name":"","type":"string[]"}],"stateMutability":"view","type":"function"}],"devdoc":{"kind":"dev","methods":{},"version":1},"evm":{"assembly":"    /* \"Campaign.sol\":119:740  contract CampaignFactory {... */\n  mstore(0x40, 0x80)\n  callvalue\n  dup1\n  iszero\n  tag_1\n  jumpi\n  0x00\n  dup1\n  revert\ntag_1:\n  pop\n  dataSize(sub_0)\n  dup1\n  dataOffset(sub_0)\n  0x00\n  codecopy\n  0x00\n  return\nstop\n\nsub_0: assembly {\n        /* \"Campaign.sol\":119:740  contract CampaignFactory {... */\n      mstore(0x40, 0x80)\n      callvalue\n      dup1\n      iszero\n      tag_1\n      jumpi\n      0x00\n      dup1\n      revert\n    tag_1:\n      pop\n      jumpi(tag_2, lt(calldatasize, 0x04))\n      shr(0xe0, calldataload(0x00))\n      dup1\n      0x3020580b\n      eq\n      tag_3\n      jumpi\n      dup1\n      0x4acb9d4f\n      eq\n      tag_4\n      jumpi\n    tag_2:\n      0x00\n      dup1\n      revert\n        /* \"Campaign.sol\":216:581  function createCampaign(string memory campaignName, uint requiredBalance, uint requiredCost) public returns (address) {... */\n    tag_3:\n      tag_5\n      0x04\n      dup1\n      calldatasize\n      sub\n      dup2\n      add\n      swap1\n      tag_6\n      swap2\n      swap1\n      tag_7\n      jump\t// in\n    tag_6:\n      tag_8\n      jump\t// in\n    tag_5:\n      mload(0x40)\n      tag_9\n      swap2\n      swap1\n      tag_10\n      jump\t// in\n    tag_9:\n      mload(0x40)\n      dup1\n      swap2\n      sub\n      swap1\n      return\n        /* \"Campaign.sol\":589:737  function getDeployedCampaigns() public view returns (address[] memory, string[] memory) {... */\n    tag_4:\n      tag_11\n      tag_12\n      jump\t// in\n    tag_11:\n      mload(0x40)\n      tag_13\n      swap3\n      swap2\n      swap1\n      tag_14\n      jump\t// in\n    tag_13:\n      mload(0x40)\n      dup1\n      swap2\n      sub\n      swap1\n      return\n        /* \"Campaign.sol\":216:581  function createCampaign(string memory campaignName, uint requiredBalance, uint requiredCost) public returns (address) {... */\n    tag_8:\n        /* \"Campaign.sol\":325:332  address */\n      0x00\n        /* \"Campaign.sol\":345:365  Campaign newCampaign */\n      dup1\n        /* \"Campaign.sol\":381:391  msg.sender */\n      caller\n        /* \"Campaign.sol\":393:405  campaignName */\n      dup6\n        /* \"Campaign.sol\":407:422  requiredBalance */\n      dup6\n        /* \"Campaign.sol\":424:436  requiredCost */\n      dup6\n        /* \"Campaign.sol\":368:437  new Campaign(msg.sender, campaignName, requiredBalance, requiredCost) */\n      mload(0x40)\n      tag_16\n      swap1\n      tag_17\n      jump\t// in\n    tag_16:\n      tag_18\n      swap5\n      swap4\n      swap3\n      swap2\n      swap1\n      tag_19\n      jump\t// in\n    tag_18:\n      mload(0x40)\n      dup1\n      swap2\n      sub\n      swap1\n      0x00\n      create\n      dup1\n      iszero\n      dup1\n      iszero\n      tag_20\n      jumpi\n      returndatasize\n      0x00\n      dup1\n      returndatacopy\n      revert(0x00, returndatasize)\n    tag_20:\n      pop\n        /* \"Campaign.sol\":345:437  Campaign newCampaign = new Campaign(msg.sender, campaignName, requiredBalance, requiredCost) */\n      swap1\n      pop\n        /* \"Campaign.sol\":448:465  deployedCampaigns */\n      0x00\n        /* \"Campaign.sol\":479:490  newCampaign */\n      dup2\n        /* \"Campaign.sol\":448:492  deployedCampaigns.push(address(newCampaign)) */\n      swap1\n      dup1\n      0x01\n      dup2\n      sload\n      add\n      dup1\n      dup3\n      sstore\n      dup1\n      swap2\n      pop\n      pop\n      0x01\n      swap1\n      sub\n      swap1\n      0x00\n      mstore\n      keccak256(0x00, 0x20)\n      add\n      0x00\n      swap1\n      swap2\n      swap1\n      swap2\n      swap1\n      swap2\n      0x0100\n      exp\n      dup2\n      sload\n      dup2\n      0xffffffffffffffffffffffffffffffffffffffff\n      mul\n      not\n      and\n      swap1\n      dup4\n      0xffffffffffffffffffffffffffffffffffffffff\n      and\n      mul\n      or\n      swap1\n      sstore\n      pop\n        /* \"Campaign.sol\":503:516  campaignsName */\n      0x01\n        /* \"Campaign.sol\":522:534  campaignName */\n      dup6\n        /* \"Campaign.sol\":503:535  campaignsName.push(campaignName) */\n      swap1\n      dup1\n      0x01\n      dup2\n      sload\n      add\n      dup1\n      dup3\n      sstore\n      dup1\n      swap2\n      pop\n      pop\n      0x01\n      swap1\n      sub\n      swap1\n      0x00\n      mstore\n      keccak256(0x00, 0x20)\n      add\n      0x00\n      swap1\n      swap2\n      swap1\n      swap2\n      swap1\n      swap2\n      pop\n      swap1\n      dup1\n      mload\n      swap1\n      0x20\n      add\n      swap1\n      tag_23\n      swap3\n      swap2\n      swap1\n      tag_24\n      jump\t// in\n    tag_23:\n      pop\n        /* \"Campaign.sol\":561:572  newCampaign */\n      dup1\n        /* \"Campaign.sol\":546:573  return address(newCampaign) */\n      swap2\n      pop\n      pop\n        /* \"Campaign.sol\":216:581  function createCampaign(string memory campaignName, uint requiredBalance, uint requiredCost) public returns (address) {... */\n      swap4\n      swap3\n      pop\n      pop\n      pop\n      jump\t// out\n        /* \"Campaign.sol\":589:737  function getDeployedCampaigns() public view returns (address[] memory, string[] memory) {... */\n    tag_12:\n        /* \"Campaign.sol\":642:658  address[] memory */\n      0x60\n        /* \"Campaign.sol\":660:675  string[] memory */\n      dup1\n        /* \"Campaign.sol\":696:713  deployedCampaigns */\n      0x00\n        /* \"Campaign.sol\":715:728  campaignsName */\n      0x01\n        /* \"Campaign.sol\":688:729  return (deployedCampaigns, campaignsName) */\n      dup2\n      dup1\n      sload\n      dup1\n      0x20\n      mul\n      0x20\n      add\n      mload(0x40)\n      swap1\n      dup2\n      add\n      0x40\n      mstore\n      dup1\n      swap3\n      swap2\n      swap1\n      dup2\n      dup2\n      mstore\n      0x20\n      add\n      dup3\n      dup1\n      sload\n      dup1\n      iszero\n      tag_26\n      jumpi\n      0x20\n      mul\n      dup3\n      add\n      swap2\n      swap1\n      0x00\n      mstore\n      keccak256(0x00, 0x20)\n      swap1\n    tag_27:\n      dup2\n      0x00\n      swap1\n      sload\n      swap1\n      0x0100\n      exp\n      swap1\n      div\n      0xffffffffffffffffffffffffffffffffffffffff\n      and\n      0xffffffffffffffffffffffffffffffffffffffff\n      and\n      dup2\n      mstore\n      0x20\n      add\n      swap1\n      0x01\n      add\n      swap1\n      dup1\n      dup4\n      gt\n      tag_27\n      jumpi\n    tag_26:\n      pop\n      pop\n      pop\n      pop\n      pop\n      swap2\n      pop\n      dup1\n      dup1\n      sload\n      dup1\n      0x20\n      mul\n      0x20\n      add\n      mload(0x40)\n      swap1\n      dup2\n      add\n      0x40\n      mstore\n      dup1\n      swap3\n      swap2\n      swap1\n      dup2\n      dup2\n      mstore\n      0x20\n      add\n      0x00\n      swap1\n    tag_28:\n      dup3\n      dup3\n      lt\n      iszero\n      tag_29\n      jumpi\n      dup4\n      dup3\n      swap1\n      0x00\n      mstore\n      keccak256(0x00, 0x20)\n      add\n      dup1\n      sload\n      tag_31\n      swap1\n      tag_32\n      jump\t// in\n    tag_31:\n      dup1\n      0x1f\n      add\n      0x20\n      dup1\n      swap2\n      div\n      mul\n      0x20\n      add\n      mload(0x40)\n      swap1\n      dup2\n      add\n      0x40\n      mstore\n      dup1\n      swap3\n      swap2\n      swap1\n      dup2\n      dup2\n      mstore\n      0x20\n      add\n      dup3\n      dup1\n      sload\n      tag_33\n      swap1\n      tag_32\n      jump\t// in\n    tag_33:\n      dup1\n      iszero\n      tag_34\n      jumpi\n      dup1\n      0x1f\n      lt\n      tag_35\n      jumpi\n      0x0100\n      dup1\n      dup4\n      sload\n      div\n      mul\n      dup4\n      mstore\n      swap2\n      0x20\n      add\n      swap2\n      jump(tag_34)\n    tag_35:\n      dup3\n      add\n      swap2\n      swap1\n      0x00\n      mstore\n      keccak256(0x00, 0x20)\n      swap1\n    tag_36:\n      dup2\n      sload\n      dup2\n      mstore\n      swap1\n      0x01\n      add\n      swap1\n      0x20\n      add\n      dup1\n      dup4\n      gt\n      tag_36\n      jumpi\n      dup3\n      swap1\n      sub\n      0x1f\n      and\n      dup3\n      add\n      swap2\n    tag_34:\n      pop\n      pop\n      pop\n      pop\n      pop\n      dup2\n      mstore\n      0x20\n      add\n      swap1\n      0x01\n      add\n      swap1\n      jump(tag_28)\n    tag_29:\n      pop\n      pop\n      pop\n      pop\n      swap1\n      pop\n      swap2\n      pop\n      swap2\n      pop\n        /* \"Campaign.sol\":589:737  function getDeployedCampaigns() public view returns (address[] memory, string[] memory) {... */\n      swap1\n      swap2\n      jump\t// out\n    tag_17:\n      dataSize(sub_0)\n      dup1\n      dataOffset(sub_0)\n      dup4\n      codecopy\n      add\n      swap1\n      jump\t// out\n    tag_24:\n      dup3\n      dup1\n      sload\n      tag_37\n      swap1\n      tag_32\n      jump\t// in\n    tag_37:\n      swap1\n      0x00\n      mstore\n      keccak256(0x00, 0x20)\n      swap1\n      0x1f\n      add\n      0x20\n      swap1\n      div\n      dup2\n      add\n      swap3\n      dup3\n      tag_39\n      jumpi\n      0x00\n      dup6\n      sstore\n      jump(tag_38)\n    tag_39:\n      dup3\n      0x1f\n      lt\n      tag_40\n      jumpi\n      dup1\n      mload\n      not(0xff)\n      and\n      dup4\n      dup1\n      add\n      or\n      dup6\n      sstore\n      jump(tag_38)\n    tag_40:\n      dup3\n      dup1\n      add\n      0x01\n      add\n      dup6\n      sstore\n      dup3\n      iszero\n      tag_38\n      jumpi\n      swap2\n      dup3\n      add\n    tag_41:\n      dup3\n      dup2\n      gt\n      iszero\n      tag_42\n      jumpi\n      dup3\n      mload\n      dup3\n      sstore\n      swap2\n      0x20\n      add\n      swap2\n      swap1\n      0x01\n      add\n      swap1\n      jump(tag_41)\n    tag_42:\n    tag_38:\n      pop\n      swap1\n      pop\n      tag_43\n      swap2\n      swap1\n      tag_44\n      jump\t// in\n    tag_43:\n      pop\n      swap1\n      jump\t// out\n    tag_44:\n    tag_45:\n      dup1\n      dup3\n      gt\n      iszero\n      tag_46\n      jumpi\n      0x00\n      dup2\n      0x00\n      swap1\n      sstore\n      pop\n      0x01\n      add\n      jump(tag_45)\n    tag_46:\n      pop\n      swap1\n      jump\t// out\n        /* \"#utility.yul\":7:82   */\n    tag_47:\n        /* \"#utility.yul\":40:46   */\n      0x00\n        /* \"#utility.yul\":73:75   */\n      0x40\n        /* \"#utility.yul\":67:76   */\n      mload\n        /* \"#utility.yul\":57:76   */\n      swap1\n      pop\n        /* \"#utility.yul\":7:82   */\n      swap1\n      jump\t// out\n        /* \"#utility.yul\":88:205   */\n    tag_48:\n        /* \"#utility.yul\":197:198   */\n      0x00\n        /* \"#utility.yul\":194:195   */\n      dup1\n        /* \"#utility.yul\":187:199   */\n      revert\n        /* \"#utility.yul\":211:328   */\n    tag_49:\n        /* \"#utility.yul\":320:321   */\n      0x00\n        /* \"#utility.yul\":317:318   */\n      dup1\n        /* \"#utility.yul\":310:322   */\n      revert\n        /* \"#utility.yul\":334:451   */\n    tag_50:\n        /* \"#utility.yul\":443:444   */\n      0x00\n        /* \"#utility.yul\":440:441   */\n      dup1\n        /* \"#utility.yul\":433:445   */\n      revert\n        /* \"#utility.yul\":457:574   */\n    tag_51:\n        /* \"#utility.yul\":566:567   */\n      0x00\n        /* \"#utility.yul\":563:564   */\n      dup1\n        /* \"#utility.yul\":556:568   */\n      revert\n        /* \"#utility.yul\":580:682   */\n    tag_52:\n        /* \"#utility.yul\":621:627   */\n      0x00\n        /* \"#utility.yul\":672:674   */\n      0x1f\n        /* \"#utility.yul\":668:675   */\n      not\n        /* \"#utility.yul\":663:665   */\n      0x1f\n        /* \"#utility.yul\":656:661   */\n      dup4\n        /* \"#utility.yul\":652:666   */\n      add\n        /* \"#utility.yul\":648:676   */\n      and\n        /* \"#utility.yul\":638:676   */\n      swap1\n      pop\n        /* \"#utility.yul\":580:682   */\n      swap2\n      swap1\n      pop\n      jump\t// out\n        /* \"#utility.yul\":688:868   */\n    tag_53:\n        /* \"#utility.yul\":736:813   */\n      0x4e487b7100000000000000000000000000000000000000000000000000000000\n        /* \"#utility.yul\":733:734   */\n      0x00\n        /* \"#utility.yul\":726:814   */\n      mstore\n        /* \"#utility.yul\":833:837   */\n      0x41\n        /* \"#utility.yul\":830:831   */\n      0x04\n        /* \"#utility.yul\":823:838   */\n      mstore\n        /* \"#utility.yul\":857:861   */\n      0x24\n        /* \"#utility.yul\":854:855   */\n      0x00\n        /* \"#utility.yul\":847:862   */\n      revert\n        /* \"#utility.yul\":874:1155   */\n    tag_54:\n        /* \"#utility.yul\":957:984   */\n      tag_96\n        /* \"#utility.yul\":979:983   */\n      dup3\n        /* \"#utility.yul\":957:984   */\n      tag_52\n      jump\t// in\n    tag_96:\n        /* \"#utility.yul\":949:955   */\n      dup2\n        /* \"#utility.yul\":945:985   */\n      add\n        /* \"#utility.yul\":1087:1093   */\n      dup2\n        /* \"#utility.yul\":1075:1085   */\n      dup2\n        /* \"#utility.yul\":1072:1094   */\n      lt\n        /* \"#utility.yul\":1051:1069   */\n      0xffffffffffffffff\n        /* \"#utility.yul\":1039:1049   */\n      dup3\n        /* \"#utility.yul\":1036:1070   */\n      gt\n        /* \"#utility.yul\":1033:1095   */\n      or\n        /* \"#utility.yul\":1030:1118   */\n      iszero\n      tag_97\n      jumpi\n        /* \"#utility.yul\":1098:1116   */\n      tag_98\n      tag_53\n      jump\t// in\n    tag_98:\n        /* \"#utility.yul\":1030:1118   */\n    tag_97:\n        /* \"#utility.yul\":1138:1148   */\n      dup1\n        /* \"#utility.yul\":1134:1136   */\n      0x40\n        /* \"#utility.yul\":1127:1149   */\n      mstore\n        /* \"#utility.yul\":917:1155   */\n      pop\n        /* \"#utility.yul\":874:1155   */\n      pop\n      pop\n      jump\t// out\n        /* \"#utility.yul\":1161:1290   */\n    tag_55:\n        /* \"#utility.yul\":1195:1201   */\n      0x00\n        /* \"#utility.yul\":1222:1242   */\n      tag_100\n      tag_47\n      jump\t// in\n    tag_100:\n        /* \"#utility.yul\":1212:1242   */\n      swap1\n      pop\n        /* \"#utility.yul\":1251:1284   */\n      tag_101\n        /* \"#utility.yul\":1279:1283   */\n      dup3\n        /* \"#utility.yul\":1271:1277   */\n      dup3\n        /* \"#utility.yul\":1251:1284   */\n      tag_54\n      jump\t// in\n    tag_101:\n        /* \"#utility.yul\":1161:1290   */\n      swap2\n      swap1\n      pop\n      jump\t// out\n        /* \"#utility.yul\":1296:1604   */\n    tag_56:\n        /* \"#utility.yul\":1358:1362   */\n      0x00\n        /* \"#utility.yul\":1448:1466   */\n      0xffffffffffffffff\n        /* \"#utility.yul\":1440:1446   */\n      dup3\n        /* \"#utility.yul\":1437:1467   */\n      gt\n        /* \"#utility.yul\":1434:1490   */\n      iszero\n      tag_103\n      jumpi\n        /* \"#utility.yul\":1470:1488   */\n      tag_104\n      tag_53\n      jump\t// in\n    tag_104:\n        /* \"#utility.yul\":1434:1490   */\n    tag_103:\n        /* \"#utility.yul\":1508:1537   */\n      tag_105\n        /* \"#utility.yul\":1530:1536   */\n      dup3\n        /* \"#utility.yul\":1508:1537   */\n      tag_52\n      jump\t// in\n    tag_105:\n        /* \"#utility.yul\":1500:1537   */\n      swap1\n      pop\n        /* \"#utility.yul\":1592:1596   */\n      0x20\n        /* \"#utility.yul\":1586:1590   */\n      dup2\n        /* \"#utility.yul\":1582:1597   */\n      add\n        /* \"#utility.yul\":1574:1597   */\n      swap1\n      pop\n        /* \"#utility.yul\":1296:1604   */\n      swap2\n      swap1\n      pop\n      jump\t// out\n        /* \"#utility.yul\":1610:1764   */\n    tag_57:\n        /* \"#utility.yul\":1694:1700   */\n      dup3\n        /* \"#utility.yul\":1689:1692   */\n      dup2\n        /* \"#utility.yul\":1684:1687   */\n      dup4\n        /* \"#utility.yul\":1671:1701   */\n      calldatacopy\n        /* \"#utility.yul\":1756:1757   */\n      0x00\n        /* \"#utility.yul\":1747:1753   */\n      dup4\n        /* \"#utility.yul\":1742:1745   */\n      dup4\n        /* \"#utility.yul\":1738:1754   */\n      add\n        /* \"#utility.yul\":1731:1758   */\n      mstore\n        /* \"#utility.yul\":1610:1764   */\n      pop\n      pop\n      pop\n      jump\t// out\n        /* \"#utility.yul\":1770:2182   */\n    tag_58:\n        /* \"#utility.yul\":1848:1853   */\n      0x00\n        /* \"#utility.yul\":1873:1939   */\n      tag_108\n        /* \"#utility.yul\":1889:1938   */\n      tag_109\n        /* \"#utility.yul\":1931:1937   */\n      dup5\n        /* \"#utility.yul\":1889:1938   */\n      tag_56\n      jump\t// in\n    tag_109:\n        /* \"#utility.yul\":1873:1939   */\n      tag_55\n      jump\t// in\n    tag_108:\n        /* \"#utility.yul\":1864:1939   */\n      swap1\n      pop\n        /* \"#utility.yul\":1962:1968   */\n      dup3\n        /* \"#utility.yul\":1955:1960   */\n      dup2\n        /* \"#utility.yul\":1948:1969   */\n      mstore\n        /* \"#utility.yul\":2000:2004   */\n      0x20\n        /* \"#utility.yul\":1993:1998   */\n      dup2\n        /* \"#utility.yul\":1989:2005   */\n      add\n        /* \"#utility.yul\":2038:2041   */\n      dup5\n        /* \"#utility.yul\":2029:2035   */\n      dup5\n        /* \"#utility.yul\":2024:2027   */\n      dup5\n        /* \"#utility.yul\":2020:2036   */\n      add\n        /* \"#utility.yul\":2017:2042   */\n      gt\n        /* \"#utility.yul\":2014:2126   */\n      iszero\n      tag_110\n      jumpi\n        /* \"#utility.yul\":2045:2124   */\n      tag_111\n      tag_51\n      jump\t// in\n    tag_111:\n        /* \"#utility.yul\":2014:2126   */\n    tag_110:\n        /* \"#utility.yul\":2135:2176   */\n      tag_112\n        /* \"#utility.yul\":2169:2175   */\n      dup5\n        /* \"#utility.yul\":2164:2167   */\n      dup3\n        /* \"#utility.yul\":2159:2162   */\n      dup6\n        /* \"#utility.yul\":2135:2176   */\n      tag_57\n      jump\t// in\n    tag_112:\n        /* \"#utility.yul\":1854:2182   */\n      pop\n        /* \"#utility.yul\":1770:2182   */\n      swap4\n      swap3\n      pop\n      pop\n      pop\n      jump\t// out\n        /* \"#utility.yul\":2202:2542   */\n    tag_59:\n        /* \"#utility.yul\":2258:2263   */\n      0x00\n        /* \"#utility.yul\":2307:2310   */\n      dup3\n        /* \"#utility.yul\":2300:2304   */\n      0x1f\n        /* \"#utility.yul\":2292:2298   */\n      dup4\n        /* \"#utility.yul\":2288:2305   */\n      add\n        /* \"#utility.yul\":2284:2311   */\n      slt\n        /* \"#utility.yul\":2274:2396   */\n      tag_114\n      jumpi\n        /* \"#utility.yul\":2315:2394   */\n      tag_115\n      tag_50\n      jump\t// in\n    tag_115:\n        /* \"#utility.yul\":2274:2396   */\n    tag_114:\n        /* \"#utility.yul\":2432:2438   */\n      dup2\n        /* \"#utility.yul\":2419:2439   */\n      calldataload\n        /* \"#utility.yul\":2457:2536   */\n      tag_116\n        /* \"#utility.yul\":2532:2535   */\n      dup5\n        /* \"#utility.yul\":2524:2530   */\n      dup3\n        /* \"#utility.yul\":2517:2521   */\n      0x20\n        /* \"#utility.yul\":2509:2515   */\n      dup7\n        /* \"#utility.yul\":2505:2522   */\n      add\n        /* \"#utility.yul\":2457:2536   */\n      tag_58\n      jump\t// in\n    tag_116:\n        /* \"#utility.yul\":2448:2536   */\n      swap2\n      pop\n        /* \"#utility.yul\":2264:2542   */\n      pop\n        /* \"#utility.yul\":2202:2542   */\n      swap3\n      swap2\n      pop\n      pop\n      jump\t// out\n        /* \"#utility.yul\":2548:2625   */\n    tag_60:\n        /* \"#utility.yul\":2585:2592   */\n      0x00\n        /* \"#utility.yul\":2614:2619   */\n      dup2\n        /* \"#utility.yul\":2603:2619   */\n      swap1\n      pop\n        /* \"#utility.yul\":2548:2625   */\n      swap2\n      swap1\n      pop\n      jump\t// out\n        /* \"#utility.yul\":2631:2753   */\n    tag_61:\n        /* \"#utility.yul\":2704:2728   */\n      tag_119\n        /* \"#utility.yul\":2722:2727   */\n      dup2\n        /* \"#utility.yul\":2704:2728   */\n      tag_60\n      jump\t// in\n    tag_119:\n        /* \"#utility.yul\":2697:2702   */\n      dup2\n        /* \"#utility.yul\":2694:2729   */\n      eq\n        /* \"#utility.yul\":2684:2747   */\n      tag_120\n      jumpi\n        /* \"#utility.yul\":2743:2744   */\n      0x00\n        /* \"#utility.yul\":2740:2741   */\n      dup1\n        /* \"#utility.yul\":2733:2745   */\n      revert\n        /* \"#utility.yul\":2684:2747   */\n    tag_120:\n        /* \"#utility.yul\":2631:2753   */\n      pop\n      jump\t// out\n        /* \"#utility.yul\":2759:2898   */\n    tag_62:\n        /* \"#utility.yul\":2805:2810   */\n      0x00\n        /* \"#utility.yul\":2843:2849   */\n      dup2\n        /* \"#utility.yul\":2830:2850   */\n      calldataload\n        /* \"#utility.yul\":2821:2850   */\n      swap1\n      pop\n        /* \"#utility.yul\":2859:2892   */\n      tag_122\n        /* \"#utility.yul\":2886:2891   */\n      dup2\n        /* \"#utility.yul\":2859:2892   */\n      tag_61\n      jump\t// in\n    tag_122:\n        /* \"#utility.yul\":2759:2898   */\n      swap3\n      swap2\n      pop\n      pop\n      jump\t// out\n        /* \"#utility.yul\":2904:3703   */\n    tag_7:\n        /* \"#utility.yul\":2991:2997   */\n      0x00\n        /* \"#utility.yul\":2999:3005   */\n      dup1\n        /* \"#utility.yul\":3007:3013   */\n      0x00\n        /* \"#utility.yul\":3056:3058   */\n      0x60\n        /* \"#utility.yul\":3044:3053   */\n      dup5\n        /* \"#utility.yul\":3035:3042   */\n      dup7\n        /* \"#utility.yul\":3031:3054   */\n      sub\n        /* \"#utility.yul\":3027:3059   */\n      slt\n        /* \"#utility.yul\":3024:3143   */\n      iszero\n      tag_124\n      jumpi\n        /* \"#utility.yul\":3062:3141   */\n      tag_125\n      tag_48\n      jump\t// in\n    tag_125:\n        /* \"#utility.yul\":3024:3143   */\n    tag_124:\n        /* \"#utility.yul\":3210:3211   */\n      0x00\n        /* \"#utility.yul\":3199:3208   */\n      dup5\n        /* \"#utility.yul\":3195:3212   */\n      add\n        /* \"#utility.yul\":3182:3213   */\n      calldataload\n        /* \"#utility.yul\":3240:3258   */\n      0xffffffffffffffff\n        /* \"#utility.yul\":3232:3238   */\n      dup2\n        /* \"#utility.yul\":3229:3259   */\n      gt\n        /* \"#utility.yul\":3226:3343   */\n      iszero\n      tag_126\n      jumpi\n        /* \"#utility.yul\":3262:3341   */\n      tag_127\n      tag_49\n      jump\t// in\n    tag_127:\n        /* \"#utility.yul\":3226:3343   */\n    tag_126:\n        /* \"#utility.yul\":3367:3430   */\n      tag_128\n        /* \"#utility.yul\":3422:3429   */\n      dup7\n        /* \"#utility.yul\":3413:3419   */\n      dup3\n        /* \"#utility.yul\":3402:3411   */\n      dup8\n        /* \"#utility.yul\":3398:3420   */\n      add\n        /* \"#utility.yul\":3367:3430   */\n      tag_59\n      jump\t// in\n    tag_128:\n        /* \"#utility.yul\":3357:3430   */\n      swap4\n      pop\n        /* \"#utility.yul\":3153:3440   */\n      pop\n        /* \"#utility.yul\":3479:3481   */\n      0x20\n        /* \"#utility.yul\":3505:3558   */\n      tag_129\n        /* \"#utility.yul\":3550:3557   */\n      dup7\n        /* \"#utility.yul\":3541:3547   */\n      dup3\n        /* \"#utility.yul\":3530:3539   */\n      dup8\n        /* \"#utility.yul\":3526:3548   */\n      add\n        /* \"#utility.yul\":3505:3558   */\n      tag_62\n      jump\t// in\n    tag_129:\n        /* \"#utility.yul\":3495:3558   */\n      swap3\n      pop\n        /* \"#utility.yul\":3450:3568   */\n      pop\n        /* \"#utility.yul\":3607:3609   */\n      0x40\n        /* \"#utility.yul\":3633:3686   */\n      tag_130\n        /* \"#utility.yul\":3678:3685   */\n      dup7\n        /* \"#utility.yul\":3669:3675   */\n      dup3\n        /* \"#utility.yul\":3658:3667   */\n      dup8\n        /* \"#utility.yul\":3654:3676   */\n      add\n        /* \"#utility.yul\":3633:3686   */\n      tag_62\n      jump\t// in\n    tag_130:\n        /* \"#utility.yul\":3623:3686   */\n      swap2\n      pop\n        /* \"#utility.yul\":3578:3696   */\n      pop\n        /* \"#utility.yul\":2904:3703   */\n      swap3\n      pop\n      swap3\n      pop\n      swap3\n      jump\t// out\n        /* \"#utility.yul\":3709:3835   */\n    tag_63:\n        /* \"#utility.yul\":3746:3753   */\n      0x00\n        /* \"#utility.yul\":3786:3828   */\n      0xffffffffffffffffffffffffffffffffffffffff\n        /* \"#utility.yul\":3779:3784   */\n      dup3\n        /* \"#utility.yul\":3775:3829   */\n      and\n        /* \"#utility.yul\":3764:3829   */\n      swap1\n      pop\n        /* \"#utility.yul\":3709:3835   */\n      swap2\n      swap1\n      pop\n      jump\t// out\n        /* \"#utility.yul\":3841:3937   */\n    tag_64:\n        /* \"#utility.yul\":3878:3885   */\n      0x00\n        /* \"#utility.yul\":3907:3931   */\n      tag_133\n        /* \"#utility.yul\":3925:3930   */\n      dup3\n        /* \"#utility.yul\":3907:3931   */\n      tag_63\n      jump\t// in\n    tag_133:\n        /* \"#utility.yul\":3896:3931   */\n      swap1\n      pop\n        /* \"#utility.yul\":3841:3937   */\n      swap2\n      swap1\n      pop\n      jump\t// out\n        /* \"#utility.yul\":3943:4061   */\n    tag_65:\n        /* \"#utility.yul\":4030:4054   */\n      tag_135\n        /* \"#utility.yul\":4048:4053   */\n      dup2\n        /* \"#utility.yul\":4030:4054   */\n      tag_64\n      jump\t// in\n    tag_135:\n        /* \"#utility.yul\":4025:4028   */\n      dup3\n        /* \"#utility.yul\":4018:4055   */\n      mstore\n        /* \"#utility.yul\":3943:4061   */\n      pop\n      pop\n      jump\t// out\n        /* \"#utility.yul\":4067:4289   */\n    tag_10:\n        /* \"#utility.yul\":4160:4164   */\n      0x00\n        /* \"#utility.yul\":4198:4200   */\n      0x20\n        /* \"#utility.yul\":4187:4196   */\n      dup3\n        /* \"#utility.yul\":4183:4201   */\n      add\n        /* \"#utility.yul\":4175:4201   */\n      swap1\n      pop\n        /* \"#utility.yul\":4211:4282   */\n      tag_137\n        /* \"#utility.yul\":4279:4280   */\n      0x00\n        /* \"#utility.yul\":4268:4277   */\n      dup4\n        /* \"#utility.yul\":4264:4281   */\n      add\n        /* \"#utility.yul\":4255:4261   */\n      dup5\n        /* \"#utility.yul\":4211:4282   */\n      tag_65\n      jump\t// in\n    tag_137:\n        /* \"#utility.yul\":4067:4289   */\n      swap3\n      swap2\n      pop\n      pop\n      jump\t// out\n        /* \"#utility.yul\":4295:4409   */\n    tag_66:\n        /* \"#utility.yul\":4362:4368   */\n      0x00\n        /* \"#utility.yul\":4396:4401   */\n      dup2\n        /* \"#utility.yul\":4390:4402   */\n      mload\n        /* \"#utility.yul\":4380:4402   */\n      swap1\n      pop\n        /* \"#utility.yul\":4295:4409   */\n      swap2\n      swap1\n      pop\n      jump\t// out\n        /* \"#utility.yul\":4415:4599   */\n    tag_67:\n        /* \"#utility.yul\":4514:4525   */\n      0x00\n        /* \"#utility.yul\":4548:4554   */\n      dup3\n        /* \"#utility.yul\":4543:4546   */\n      dup3\n        /* \"#utility.yul\":4536:4555   */\n      mstore\n        /* \"#utility.yul\":4588:4592   */\n      0x20\n        /* \"#utility.yul\":4583:4586   */\n      dup3\n        /* \"#utility.yul\":4579:4593   */\n      add\n        /* \"#utility.yul\":4564:4593   */\n      swap1\n      pop\n        /* \"#utility.yul\":4415:4599   */\n      swap3\n      swap2\n      pop\n      pop\n      jump\t// out\n        /* \"#utility.yul\":4605:4737   */\n    tag_68:\n        /* \"#utility.yul\":4672:4676   */\n      0x00\n        /* \"#utility.yul\":4695:4698   */\n      dup2\n        /* \"#utility.yul\":4687:4698   */\n      swap1\n      pop\n        /* \"#utility.yul\":4725:4729   */\n      0x20\n        /* \"#utility.yul\":4720:4723   */\n      dup3\n        /* \"#utility.yul\":4716:4730   */\n      add\n        /* \"#utility.yul\":4708:4730   */\n      swap1\n      pop\n        /* \"#utility.yul\":4605:4737   */\n      swap2\n      swap1\n      pop\n      jump\t// out\n        /* \"#utility.yul\":4743:4851   */\n    tag_69:\n        /* \"#utility.yul\":4820:4844   */\n      tag_142\n        /* \"#utility.yul\":4838:4843   */\n      dup2\n        /* \"#utility.yul\":4820:4844   */\n      tag_64\n      jump\t// in\n    tag_142:\n        /* \"#utility.yul\":4815:4818   */\n      dup3\n        /* \"#utility.yul\":4808:4845   */\n      mstore\n        /* \"#utility.yul\":4743:4851   */\n      pop\n      pop\n      jump\t// out\n        /* \"#utility.yul\":4857:5036   */\n    tag_70:\n        /* \"#utility.yul\":4926:4936   */\n      0x00\n        /* \"#utility.yul\":4947:4993   */\n      tag_144\n        /* \"#utility.yul\":4989:4992   */\n      dup4\n        /* \"#utility.yul\":4981:4987   */\n      dup4\n        /* \"#utility.yul\":4947:4993   */\n      tag_69\n      jump\t// in\n    tag_144:\n        /* \"#utility.yul\":5025:5029   */\n      0x20\n        /* \"#utility.yul\":5020:5023   */\n      dup4\n        /* \"#utility.yul\":5016:5030   */\n      add\n        /* \"#utility.yul\":5002:5030   */\n      swap1\n      pop\n        /* \"#utility.yul\":4857:5036   */\n      swap3\n      swap2\n      pop\n      pop\n      jump\t// out\n        /* \"#utility.yul\":5042:5155   */\n    tag_71:\n        /* \"#utility.yul\":5112:5116   */\n      0x00\n        /* \"#utility.yul\":5144:5148   */\n      0x20\n        /* \"#utility.yul\":5139:5142   */\n      dup3\n        /* \"#utility.yul\":5135:5149   */\n      add\n        /* \"#utility.yul\":5127:5149   */\n      swap1\n      pop\n        /* \"#utility.yul\":5042:5155   */\n      swap2\n      swap1\n      pop\n      jump\t// out\n        /* \"#utility.yul\":5191:5923   */\n    tag_72:\n        /* \"#utility.yul\":5310:5313   */\n      0x00\n        /* \"#utility.yul\":5339:5393   */\n      tag_147\n        /* \"#utility.yul\":5387:5392   */\n      dup3\n        /* \"#utility.yul\":5339:5393   */\n      tag_66\n      jump\t// in\n    tag_147:\n        /* \"#utility.yul\":5409:5495   */\n      tag_148\n        /* \"#utility.yul\":5488:5494   */\n      dup2\n        /* \"#utility.yul\":5483:5486   */\n      dup6\n        /* \"#utility.yul\":5409:5495   */\n      tag_67\n      jump\t// in\n    tag_148:\n        /* \"#utility.yul\":5402:5495   */\n      swap4\n      pop\n        /* \"#utility.yul\":5519:5575   */\n      tag_149\n        /* \"#utility.yul\":5569:5574   */\n      dup4\n        /* \"#utility.yul\":5519:5575   */\n      tag_68\n      jump\t// in\n    tag_149:\n        /* \"#utility.yul\":5598:5605   */\n      dup1\n        /* \"#utility.yul\":5629:5630   */\n      0x00\n        /* \"#utility.yul\":5614:5898   */\n    tag_150:\n        /* \"#utility.yul\":5639:5645   */\n      dup4\n        /* \"#utility.yul\":5636:5637   */\n      dup2\n        /* \"#utility.yul\":5633:5646   */\n      lt\n        /* \"#utility.yul\":5614:5898   */\n      iszero\n      tag_152\n      jumpi\n        /* \"#utility.yul\":5715:5721   */\n      dup2\n        /* \"#utility.yul\":5709:5722   */\n      mload\n        /* \"#utility.yul\":5742:5805   */\n      tag_153\n        /* \"#utility.yul\":5801:5804   */\n      dup9\n        /* \"#utility.yul\":5786:5799   */\n      dup3\n        /* \"#utility.yul\":5742:5805   */\n      tag_70\n      jump\t// in\n    tag_153:\n        /* \"#utility.yul\":5735:5805   */\n      swap8\n      pop\n        /* \"#utility.yul\":5828:5888   */\n      tag_154\n        /* \"#utility.yul\":5881:5887   */\n      dup4\n        /* \"#utility.yul\":5828:5888   */\n      tag_71\n      jump\t// in\n    tag_154:\n        /* \"#utility.yul\":5818:5888   */\n      swap3\n      pop\n        /* \"#utility.yul\":5674:5898   */\n      pop\n        /* \"#utility.yul\":5661:5662   */\n      0x01\n        /* \"#utility.yul\":5658:5659   */\n      dup2\n        /* \"#utility.yul\":5654:5663   */\n      add\n        /* \"#utility.yul\":5649:5663   */\n      swap1\n      pop\n        /* \"#utility.yul\":5614:5898   */\n      jump(tag_150)\n    tag_152:\n        /* \"#utility.yul\":5618:5632   */\n      pop\n        /* \"#utility.yul\":5914:5917   */\n      dup6\n        /* \"#utility.yul\":5907:5917   */\n      swap4\n      pop\n        /* \"#utility.yul\":5315:5923   */\n      pop\n      pop\n      pop\n        /* \"#utility.yul\":5191:5923   */\n      swap3\n      swap2\n      pop\n      pop\n      jump\t// out\n        /* \"#utility.yul\":5929:6053   */\n    tag_73:\n        /* \"#utility.yul\":6006:6012   */\n      0x00\n        /* \"#utility.yul\":6040:6045   */\n      dup2\n        /* \"#utility.yul\":6034:6046   */\n      mload\n        /* \"#utility.yul\":6024:6046   */\n      swap1\n      pop\n        /* \"#utility.yul\":5929:6053   */\n      swap2\n      swap1\n      pop\n      jump\t// out\n        /* \"#utility.yul\":6059:6253   */\n    tag_74:\n        /* \"#utility.yul\":6168:6179   */\n      0x00\n        /* \"#utility.yul\":6202:6208   */\n      dup3\n        /* \"#utility.yul\":6197:6200   */\n      dup3\n        /* \"#utility.yul\":6190:6209   */\n      mstore\n        /* \"#utility.yul\":6242:6246   */\n      0x20\n        /* \"#utility.yul\":6237:6240   */\n      dup3\n        /* \"#utility.yul\":6233:6247   */\n      add\n        /* \"#utility.yul\":6218:6247   */\n      swap1\n      pop\n        /* \"#utility.yul\":6059:6253   */\n      swap3\n      swap2\n      pop\n      pop\n      jump\t// out\n        /* \"#utility.yul\":6259:6401   */\n    tag_75:\n        /* \"#utility.yul\":6336:6340   */\n      0x00\n        /* \"#utility.yul\":6359:6362   */\n      dup2\n        /* \"#utility.yul\":6351:6362   */\n      swap1\n      pop\n        /* \"#utility.yul\":6389:6393   */\n      0x20\n        /* \"#utility.yul\":6384:6387   */\n      dup3\n        /* \"#utility.yul\":6380:6394   */\n      add\n        /* \"#utility.yul\":6372:6394   */\n      swap1\n      pop\n        /* \"#utility.yul\":6259:6401   */\n      swap2\n      swap1\n      pop\n      jump\t// out\n        /* \"#utility.yul\":6407:6506   */\n    tag_76:\n        /* \"#utility.yul\":6459:6465   */\n      0x00\n        /* \"#utility.yul\":6493:6498   */\n      dup2\n        /* \"#utility.yul\":6487:6499   */\n      mload\n        /* \"#utility.yul\":6477:6499   */\n      swap1\n      pop\n        /* \"#utility.yul\":6407:6506   */\n      swap2\n      swap1\n      pop\n      jump\t// out\n        /* \"#utility.yul\":6512:6671   */\n    tag_77:\n        /* \"#utility.yul\":6586:6597   */\n      0x00\n        /* \"#utility.yul\":6620:6626   */\n      dup3\n        /* \"#utility.yul\":6615:6618   */\n      dup3\n        /* \"#utility.yul\":6608:6627   */\n      mstore\n        /* \"#utility.yul\":6660:6664   */\n      0x20\n        /* \"#utility.yul\":6655:6658   */\n      dup3\n        /* \"#utility.yul\":6651:6665   */\n      add\n        /* \"#utility.yul\":6636:6665   */\n      swap1\n      pop\n        /* \"#utility.yul\":6512:6671   */\n      swap3\n      swap2\n      pop\n      pop\n      jump\t// out\n        /* \"#utility.yul\":6677:6984   */\n    tag_78:\n        /* \"#utility.yul\":6745:6746   */\n      0x00\n        /* \"#utility.yul\":6755:6868   */\n    tag_161:\n        /* \"#utility.yul\":6769:6775   */\n      dup4\n        /* \"#utility.yul\":6766:6767   */\n      dup2\n        /* \"#utility.yul\":6763:6776   */\n      lt\n        /* \"#utility.yul\":6755:6868   */\n      iszero\n      tag_163\n      jumpi\n        /* \"#utility.yul\":6854:6855   */\n      dup1\n        /* \"#utility.yul\":6849:6852   */\n      dup3\n        /* \"#utility.yul\":6845:6856   */\n      add\n        /* \"#utility.yul\":6839:6857   */\n      mload\n        /* \"#utility.yul\":6835:6836   */\n      dup2\n        /* \"#utility.yul\":6830:6833   */\n      dup5\n        /* \"#utility.yul\":6826:6837   */\n      add\n        /* \"#utility.yul\":6819:6858   */\n      mstore\n        /* \"#utility.yul\":6791:6793   */\n      0x20\n        /* \"#utility.yul\":6788:6789   */\n      dup2\n        /* \"#utility.yul\":6784:6794   */\n      add\n        /* \"#utility.yul\":6779:6794   */\n      swap1\n      pop\n        /* \"#utility.yul\":6755:6868   */\n      jump(tag_161)\n    tag_163:\n        /* \"#utility.yul\":6886:6892   */\n      dup4\n        /* \"#utility.yul\":6883:6884   */\n      dup2\n        /* \"#utility.yul\":6880:6893   */\n      gt\n        /* \"#utility.yul\":6877:6978   */\n      iszero\n      tag_164\n      jumpi\n        /* \"#utility.yul\":6966:6967   */\n      0x00\n        /* \"#utility.yul\":6957:6963   */\n      dup5\n        /* \"#utility.yul\":6952:6955   */\n      dup5\n        /* \"#utility.yul\":6948:6964   */\n      add\n        /* \"#utility.yul\":6941:6968   */\n      mstore\n        /* \"#utility.yul\":6877:6978   */\n    tag_164:\n        /* \"#utility.yul\":6726:6984   */\n      pop\n        /* \"#utility.yul\":6677:6984   */\n      pop\n      pop\n      pop\n      jump\t// out\n        /* \"#utility.yul\":6990:7334   */\n    tag_79:\n        /* \"#utility.yul\":7068:7071   */\n      0x00\n        /* \"#utility.yul\":7096:7135   */\n      tag_166\n        /* \"#utility.yul\":7129:7134   */\n      dup3\n        /* \"#utility.yul\":7096:7135   */\n      tag_76\n      jump\t// in\n    tag_166:\n        /* \"#utility.yul\":7151:7212   */\n      tag_167\n        /* \"#utility.yul\":7205:7211   */\n      dup2\n        /* \"#utility.yul\":7200:7203   */\n      dup6\n        /* \"#utility.yul\":7151:7212   */\n      tag_77\n      jump\t// in\n    tag_167:\n        /* \"#utility.yul\":7144:7212   */\n      swap4\n      pop\n        /* \"#utility.yul\":7221:7273   */\n      tag_168\n        /* \"#utility.yul\":7266:7272   */\n      dup2\n        /* \"#utility.yul\":7261:7264   */\n      dup6\n        /* \"#utility.yul\":7254:7258   */\n      0x20\n        /* \"#utility.yul\":7247:7252   */\n      dup7\n        /* \"#utility.yul\":7243:7259   */\n      add\n        /* \"#utility.yul\":7221:7273   */\n      tag_78\n      jump\t// in\n    tag_168:\n        /* \"#utility.yul\":7298:7327   */\n      tag_169\n        /* \"#utility.yul\":7320:7326   */\n      dup2\n        /* \"#utility.yul\":7298:7327   */\n      tag_52\n      jump\t// in\n    tag_169:\n        /* \"#utility.yul\":7293:7296   */\n      dup5\n        /* \"#utility.yul\":7289:7328   */\n      add\n        /* \"#utility.yul\":7282:7328   */\n      swap2\n      pop\n        /* \"#utility.yul\":7072:7334   */\n      pop\n        /* \"#utility.yul\":6990:7334   */\n      swap3\n      swap2\n      pop\n      pop\n      jump\t// out\n        /* \"#utility.yul\":7340:7536   */\n    tag_80:\n        /* \"#utility.yul\":7429:7439   */\n      0x00\n        /* \"#utility.yul\":7464:7530   */\n      tag_171\n        /* \"#utility.yul\":7526:7529   */\n      dup4\n        /* \"#utility.yul\":7518:7524   */\n      dup4\n        /* \"#utility.yul\":7464:7530   */\n      tag_79\n      jump\t// in\n    tag_171:\n        /* \"#utility.yul\":7450:7530   */\n      swap1\n      pop\n        /* \"#utility.yul\":7340:7536   */\n      swap3\n      swap2\n      pop\n      pop\n      jump\t// out\n        /* \"#utility.yul\":7542:7665   */\n    tag_81:\n        /* \"#utility.yul\":7622:7626   */\n      0x00\n        /* \"#utility.yul\":7654:7658   */\n      0x20\n        /* \"#utility.yul\":7649:7652   */\n      dup3\n        /* \"#utility.yul\":7645:7659   */\n      add\n        /* \"#utility.yul\":7637:7659   */\n      swap1\n      pop\n        /* \"#utility.yul\":7542:7665   */\n      swap2\n      swap1\n      pop\n      jump\t// out\n        /* \"#utility.yul\":7699:8690   */\n    tag_82:\n        /* \"#utility.yul\":7838:7841   */\n      0x00\n        /* \"#utility.yul\":7867:7931   */\n      tag_174\n        /* \"#utility.yul\":7925:7930   */\n      dup3\n        /* \"#utility.yul\":7867:7931   */\n      tag_73\n      jump\t// in\n    tag_174:\n        /* \"#utility.yul\":7947:8043   */\n      tag_175\n        /* \"#utility.yul\":8036:8042   */\n      dup2\n        /* \"#utility.yul\":8031:8034   */\n      dup6\n        /* \"#utility.yul\":7947:8043   */\n      tag_74\n      jump\t// in\n    tag_175:\n        /* \"#utility.yul\":7940:8043   */\n      swap4\n      pop\n        /* \"#utility.yul\":8069:8072   */\n      dup4\n        /* \"#utility.yul\":8114:8118   */\n      0x20\n        /* \"#utility.yul\":8106:8112   */\n      dup3\n        /* \"#utility.yul\":8102:8119   */\n      mul\n        /* \"#utility.yul\":8097:8100   */\n      dup6\n        /* \"#utility.yul\":8093:8120   */\n      add\n        /* \"#utility.yul\":8144:8210   */\n      tag_176\n        /* \"#utility.yul\":8204:8209   */\n      dup6\n        /* \"#utility.yul\":8144:8210   */\n      tag_75\n      jump\t// in\n    tag_176:\n        /* \"#utility.yul\":8233:8240   */\n      dup1\n        /* \"#utility.yul\":8264:8265   */\n      0x00\n        /* \"#utility.yul\":8249:8645   */\n    tag_177:\n        /* \"#utility.yul\":8274:8280   */\n      dup6\n        /* \"#utility.yul\":8271:8272   */\n      dup2\n        /* \"#utility.yul\":8268:8281   */\n      lt\n        /* \"#utility.yul\":8249:8645   */\n      iszero\n      tag_179\n      jumpi\n        /* \"#utility.yul\":8345:8354   */\n      dup5\n        /* \"#utility.yul\":8339:8343   */\n      dup5\n        /* \"#utility.yul\":8335:8355   */\n      sub\n        /* \"#utility.yul\":8330:8333   */\n      dup10\n        /* \"#utility.yul\":8323:8356   */\n      mstore\n        /* \"#utility.yul\":8396:8402   */\n      dup2\n        /* \"#utility.yul\":8390:8403   */\n      mload\n        /* \"#utility.yul\":8424:8508   */\n      tag_180\n        /* \"#utility.yul\":8503:8507   */\n      dup6\n        /* \"#utility.yul\":8488:8501   */\n      dup3\n        /* \"#utility.yul\":8424:8508   */\n      tag_80\n      jump\t// in\n    tag_180:\n        /* \"#utility.yul\":8416:8508   */\n      swap5\n      pop\n        /* \"#utility.yul\":8531:8601   */\n      tag_181\n        /* \"#utility.yul\":8594:8600   */\n      dup4\n        /* \"#utility.yul\":8531:8601   */\n      tag_81\n      jump\t// in\n    tag_181:\n        /* \"#utility.yul\":8521:8601   */\n      swap3\n      pop\n        /* \"#utility.yul\":8630:8634   */\n      0x20\n        /* \"#utility.yul\":8625:8628   */\n      dup11\n        /* \"#utility.yul\":8621:8635   */\n      add\n        /* \"#utility.yul\":8614:8635   */\n      swap10\n      pop\n        /* \"#utility.yul\":8309:8645   */\n      pop\n        /* \"#utility.yul\":8296:8297   */\n      0x01\n        /* \"#utility.yul\":8293:8294   */\n      dup2\n        /* \"#utility.yul\":8289:8298   */\n      add\n        /* \"#utility.yul\":8284:8298   */\n      swap1\n      pop\n        /* \"#utility.yul\":8249:8645   */\n      jump(tag_177)\n    tag_179:\n        /* \"#utility.yul\":8253:8267   */\n      pop\n        /* \"#utility.yul\":8661:8665   */\n      dup3\n        /* \"#utility.yul\":8654:8665   */\n      swap8\n      pop\n        /* \"#utility.yul\":8681:8684   */\n      dup8\n        /* \"#utility.yul\":8674:8684   */\n      swap6\n      pop\n        /* \"#utility.yul\":7843:8690   */\n      pop\n      pop\n      pop\n      pop\n      pop\n        /* \"#utility.yul\":7699:8690   */\n      swap3\n      swap2\n      pop\n      pop\n      jump\t// out\n        /* \"#utility.yul\":8696:9370   */\n    tag_14:\n        /* \"#utility.yul\":8937:8941   */\n      0x00\n        /* \"#utility.yul\":8975:8977   */\n      0x40\n        /* \"#utility.yul\":8964:8973   */\n      dup3\n        /* \"#utility.yul\":8960:8978   */\n      add\n        /* \"#utility.yul\":8952:8978   */\n      swap1\n      pop\n        /* \"#utility.yul\":9024:9033   */\n      dup2\n        /* \"#utility.yul\":9018:9022   */\n      dup2\n        /* \"#utility.yul\":9014:9034   */\n      sub\n        /* \"#utility.yul\":9010:9011   */\n      0x00\n        /* \"#utility.yul\":8999:9008   */\n      dup4\n        /* \"#utility.yul\":8995:9012   */\n      add\n        /* \"#utility.yul\":8988:9035   */\n      mstore\n        /* \"#utility.yul\":9052:9160   */\n      tag_183\n        /* \"#utility.yul\":9155:9159   */\n      dup2\n        /* \"#utility.yul\":9146:9152   */\n      dup6\n        /* \"#utility.yul\":9052:9160   */\n      tag_72\n      jump\t// in\n    tag_183:\n        /* \"#utility.yul\":9044:9160   */\n      swap1\n      pop\n        /* \"#utility.yul\":9207:9216   */\n      dup2\n        /* \"#utility.yul\":9201:9205   */\n      dup2\n        /* \"#utility.yul\":9197:9217   */\n      sub\n        /* \"#utility.yul\":9192:9194   */\n      0x20\n        /* \"#utility.yul\":9181:9190   */\n      dup4\n        /* \"#utility.yul\":9177:9195   */\n      add\n        /* \"#utility.yul\":9170:9218   */\n      mstore\n        /* \"#utility.yul\":9235:9363   */\n      tag_184\n        /* \"#utility.yul\":9358:9362   */\n      dup2\n        /* \"#utility.yul\":9349:9355   */\n      dup5\n        /* \"#utility.yul\":9235:9363   */\n      tag_82\n      jump\t// in\n    tag_184:\n        /* \"#utility.yul\":9227:9363   */\n      swap1\n      pop\n        /* \"#utility.yul\":8696:9370   */\n      swap4\n      swap3\n      pop\n      pop\n      pop\n      jump\t// out\n        /* \"#utility.yul\":9376:9545   */\n    tag_83:\n        /* \"#utility.yul\":9460:9471   */\n      0x00\n        /* \"#utility.yul\":9494:9500   */\n      dup3\n        /* \"#utility.yul\":9489:9492   */\n      dup3\n        /* \"#utility.yul\":9482:9501   */\n      mstore\n        /* \"#utility.yul\":9534:9538   */\n      0x20\n        /* \"#utility.yul\":9529:9532   */\n      dup3\n        /* \"#utility.yul\":9525:9539   */\n      add\n        /* \"#utility.yul\":9510:9539   */\n      swap1\n      pop\n        /* \"#utility.yul\":9376:9545   */\n      swap3\n      swap2\n      pop\n      pop\n      jump\t// out\n        /* \"#utility.yul\":9551:9915   */\n    tag_84:\n        /* \"#utility.yul\":9639:9642   */\n      0x00\n        /* \"#utility.yul\":9667:9706   */\n      tag_187\n        /* \"#utility.yul\":9700:9705   */\n      dup3\n        /* \"#utility.yul\":9667:9706   */\n      tag_76\n      jump\t// in\n    tag_187:\n        /* \"#utility.yul\":9722:9793   */\n      tag_188\n        /* \"#utility.yul\":9786:9792   */\n      dup2\n        /* \"#utility.yul\":9781:9784   */\n      dup6\n        /* \"#utility.yul\":9722:9793   */\n      tag_83\n      jump\t// in\n    tag_188:\n        /* \"#utility.yul\":9715:9793   */\n      swap4\n      pop\n        /* \"#utility.yul\":9802:9854   */\n      tag_189\n        /* \"#utility.yul\":9847:9853   */\n      dup2\n        /* \"#utility.yul\":9842:9845   */\n      dup6\n        /* \"#utility.yul\":9835:9839   */\n      0x20\n        /* \"#utility.yul\":9828:9833   */\n      dup7\n        /* \"#utility.yul\":9824:9840   */\n      add\n        /* \"#utility.yul\":9802:9854   */\n      tag_78\n      jump\t// in\n    tag_189:\n        /* \"#utility.yul\":9879:9908   */\n      tag_190\n        /* \"#utility.yul\":9901:9907   */\n      dup2\n        /* \"#utility.yul\":9879:9908   */\n      tag_52\n      jump\t// in\n    tag_190:\n        /* \"#utility.yul\":9874:9877   */\n      dup5\n        /* \"#utility.yul\":9870:9909   */\n      add\n        /* \"#utility.yul\":9863:9909   */\n      swap2\n      pop\n        /* \"#utility.yul\":9643:9915   */\n      pop\n        /* \"#utility.yul\":9551:9915   */\n      swap3\n      swap2\n      pop\n      pop\n      jump\t// out\n        /* \"#utility.yul\":9921:10039   */\n    tag_85:\n        /* \"#utility.yul\":10008:10032   */\n      tag_192\n        /* \"#utility.yul\":10026:10031   */\n      dup2\n        /* \"#utility.yul\":10008:10032   */\n      tag_60\n      jump\t// in\n    tag_192:\n        /* \"#utility.yul\":10003:10006   */\n      dup3\n        /* \"#utility.yul\":9996:10033   */\n      mstore\n        /* \"#utility.yul\":9921:10039   */\n      pop\n      pop\n      jump\t// out\n        /* \"#utility.yul\":10045:10689   */\n    tag_19:\n        /* \"#utility.yul\":10242:10246   */\n      0x00\n        /* \"#utility.yul\":10280:10283   */\n      0x80\n        /* \"#utility.yul\":10269:10278   */\n      dup3\n        /* \"#utility.yul\":10265:10284   */\n      add\n        /* \"#utility.yul\":10257:10284   */\n      swap1\n      pop\n        /* \"#utility.yul\":10294:10365   */\n      tag_194\n        /* \"#utility.yul\":10362:10363   */\n      0x00\n        /* \"#utility.yul\":10351:10360   */\n      dup4\n        /* \"#utility.yul\":10347:10364   */\n      add\n        /* \"#utility.yul\":10338:10344   */\n      dup8\n        /* \"#utility.yul\":10294:10365   */\n      tag_65\n      jump\t// in\n    tag_194:\n        /* \"#utility.yul\":10412:10421   */\n      dup2\n        /* \"#utility.yul\":10406:10410   */\n      dup2\n        /* \"#utility.yul\":10402:10422   */\n      sub\n        /* \"#utility.yul\":10397:10399   */\n      0x20\n        /* \"#utility.yul\":10386:10395   */\n      dup4\n        /* \"#utility.yul\":10382:10400   */\n      add\n        /* \"#utility.yul\":10375:10423   */\n      mstore\n        /* \"#utility.yul\":10440:10518   */\n      tag_195\n        /* \"#utility.yul\":10513:10517   */\n      dup2\n        /* \"#utility.yul\":10504:10510   */\n      dup7\n        /* \"#utility.yul\":10440:10518   */\n      tag_84\n      jump\t// in\n    tag_195:\n        /* \"#utility.yul\":10432:10518   */\n      swap1\n      pop\n        /* \"#utility.yul\":10528:10600   */\n      tag_196\n        /* \"#utility.yul\":10596:10598   */\n      0x40\n        /* \"#utility.yul\":10585:10594   */\n      dup4\n        /* \"#utility.yul\":10581:10599   */\n      add\n        /* \"#utility.yul\":10572:10578   */\n      dup6\n        /* \"#utility.yul\":10528:10600   */\n      tag_85\n      jump\t// in\n    tag_196:\n        /* \"#utility.yul\":10610:10682   */\n      tag_197\n        /* \"#utility.yul\":10678:10680   */\n      0x60\n        /* \"#utility.yul\":10667:10676   */\n      dup4\n        /* \"#utility.yul\":10663:10681   */\n      add\n        /* \"#utility.yul\":10654:10660   */\n      dup5\n        /* \"#utility.yul\":10610:10682   */\n      tag_85\n      jump\t// in\n    tag_197:\n        /* \"#utility.yul\":10045:10689   */\n      swap6\n      swap5\n      pop\n      pop\n      pop\n      pop\n      pop\n      jump\t// out\n        /* \"#utility.yul\":10695:10875   */\n    tag_86:\n        /* \"#utility.yul\":10743:10820   */\n      0x4e487b7100000000000000000000000000000000000000000000000000000000\n        /* \"#utility.yul\":10740:10741   */\n      0x00\n        /* \"#utility.yul\":10733:10821   */\n      mstore\n        /* \"#utility.yul\":10840:10844   */\n      0x22\n        /* \"#utility.yul\":10837:10838   */\n      0x04\n        /* \"#utility.yul\":10830:10845   */\n      mstore\n        /* \"#utility.yul\":10864:10868   */\n      0x24\n        /* \"#utility.yul\":10861:10862   */\n      0x00\n        /* \"#utility.yul\":10854:10869   */\n      revert\n        /* \"#utility.yul\":10881:11201   */\n    tag_32:\n        /* \"#utility.yul\":10925:10931   */\n      0x00\n        /* \"#utility.yul\":10962:10963   */\n      0x02\n        /* \"#utility.yul\":10956:10960   */\n      dup3\n        /* \"#utility.yul\":10952:10964   */\n      div\n        /* \"#utility.yul\":10942:10964   */\n      swap1\n      pop\n        /* \"#utility.yul\":11009:11010   */\n      0x01\n        /* \"#utility.yul\":11003:11007   */\n      dup3\n        /* \"#utility.yul\":10999:11011   */\n      and\n        /* \"#utility.yul\":11030:11048   */\n      dup1\n        /* \"#utility.yul\":11020:11101   */\n      tag_200\n      jumpi\n        /* \"#utility.yul\":11086:11090   */\n      0x7f\n        /* \"#utility.yul\":11078:11084   */\n      dup3\n        /* \"#utility.yul\":11074:11091   */\n      and\n        /* \"#utility.yul\":11064:11091   */\n      swap2\n      pop\n        /* \"#utility.yul\":11020:11101   */\n    tag_200:\n        /* \"#utility.yul\":11148:11150   */\n      0x20\n        /* \"#utility.yul\":11140:11146   */\n      dup3\n        /* \"#utility.yul\":11137:11151   */\n      lt\n        /* \"#utility.yul\":11117:11135   */\n      dup2\n        /* \"#utility.yul\":11114:11152   */\n      sub\n        /* \"#utility.yul\":11111:11195   */\n      tag_201\n      jumpi\n        /* \"#utility.yul\":11167:11185   */\n      tag_202\n      tag_86\n      jump\t// in\n    tag_202:\n        /* \"#utility.yul\":11111:11195   */\n    tag_201:\n        /* \"#utility.yul\":10932:11201   */\n      pop\n        /* \"#utility.yul\":10881:11201   */\n      swap2\n      swap1\n      pop\n      jump\t// out\n    stop\n\n    sub_0: assembly {\n            /* \"Campaign.sol\":744:2479  contract Campaign {... */\n          mstore(0x40, 0x80)\n            /* \"Campaign.sol\":1108:1444  constructor(address creator, string memory campaignName, uint balance, uint cost) {... */\n          callvalue\n          dup1\n          iszero\n          tag_1\n          jumpi\n          0x00\n          dup1\n          revert\n        tag_1:\n          pop\n          mload(0x40)\n          sub(codesize, bytecodeSize)\n          dup1\n          bytecodeSize\n          dup4\n          codecopy\n          dup2\n          dup2\n          add\n          0x40\n          mstore\n          dup2\n          add\n          swap1\n          tag_2\n          swap2\n          swap1\n          tag_3\n          jump\t// in\n        tag_2:\n            /* \"Campaign.sol\":1228:1235  creator */\n          dup4\n            /* \"Campaign.sol\":1201:1209  campaign */\n          0x00\n            /* \"Campaign.sol\":1201:1217  campaign.manager */\n          dup1\n          add\n          0x00\n            /* \"Campaign.sol\":1201:1236  campaign.manager = payable(creator) */\n          0x0100\n          exp\n          dup2\n          sload\n          dup2\n          0xffffffffffffffffffffffffffffffffffffffff\n          mul\n          not\n          and\n          swap1\n          dup4\n          0xffffffffffffffffffffffffffffffffffffffff\n          and\n          mul\n          or\n          swap1\n          sstore\n          pop\n            /* \"Campaign.sol\":1263:1275  campaignName */\n          dup3\n            /* \"Campaign.sol\":1247:1255  campaign */\n          0x00\n            /* \"Campaign.sol\":1247:1260  campaign.name */\n          0x01\n          add\n            /* \"Campaign.sol\":1247:1275  campaign.name = campaignName */\n          swap1\n          dup1\n          mload\n          swap1\n          0x20\n          add\n          swap1\n          tag_6\n          swap3\n          swap2\n          swap1\n          tag_7\n          jump\t// in\n        tag_6:\n          pop\n            /* \"Campaign.sol\":1313:1320  balance */\n          dup2\n            /* \"Campaign.sol\":1286:1294  campaign */\n          0x00\n            /* \"Campaign.sol\":1286:1310  campaign.requiredBalance */\n          0x02\n          add\n            /* \"Campaign.sol\":1286:1320  campaign.requiredBalance = balance */\n          dup2\n          swap1\n          sstore\n          pop\n            /* \"Campaign.sol\":1355:1359  cost */\n          dup1\n            /* \"Campaign.sol\":1331:1339  campaign */\n          0x00\n            /* \"Campaign.sol\":1331:1352  campaign.requiredCost */\n          0x03\n          add\n            /* \"Campaign.sol\":1331:1359  campaign.requiredCost = cost */\n          dup2\n          swap1\n          sstore\n          pop\n            /* \"Campaign.sol\":1399:1400  0 */\n          0x00\n            /* \"Campaign.sol\":1370:1378  campaign */\n          dup1\n            /* \"Campaign.sol\":1370:1396  campaign.contributorsCount */\n          0x05\n          add\n            /* \"Campaign.sol\":1370:1400  campaign.contributorsCount = 0 */\n          dup2\n          swap1\n          sstore\n          pop\n            /* \"Campaign.sol\":1431:1436  false */\n          0x00\n            /* \"Campaign.sol\":1411:1419  campaign */\n          dup1\n            /* \"Campaign.sol\":1411:1428  campaign.complete */\n          0x06\n          add\n          0x00\n            /* \"Campaign.sol\":1411:1436  campaign.complete = false */\n          0x0100\n          exp\n          dup2\n          sload\n          dup2\n          0xff\n          mul\n          not\n          and\n          swap1\n          dup4\n          iszero\n          iszero\n          mul\n          or\n          swap1\n          sstore\n          pop\n            /* \"Campaign.sol\":1108:1444  constructor(address creator, string memory campaignName, uint balance, uint cost) {... */\n          pop\n          pop\n          pop\n          pop\n            /* \"Campaign.sol\":744:2479  contract Campaign {... */\n          jump(tag_8)\n        tag_7:\n          dup3\n          dup1\n          sload\n          tag_9\n          swap1\n          tag_10\n          jump\t// in\n        tag_9:\n          swap1\n          0x00\n          mstore\n          keccak256(0x00, 0x20)\n          swap1\n          0x1f\n          add\n          0x20\n          swap1\n          div\n          dup2\n          add\n          swap3\n          dup3\n          tag_12\n          jumpi\n          0x00\n          dup6\n          sstore\n          jump(tag_11)\n        tag_12:\n          dup3\n          0x1f\n          lt\n          tag_13\n          jumpi\n          dup1\n          mload\n          not(0xff)\n          and\n          dup4\n          dup1\n          add\n          or\n          dup6\n          sstore\n          jump(tag_11)\n        tag_13:\n          dup3\n          dup1\n          add\n          0x01\n          add\n          dup6\n          sstore\n          dup3\n          iszero\n          tag_11\n          jumpi\n          swap2\n          dup3\n          add\n        tag_14:\n          dup3\n          dup2\n          gt\n          iszero\n          tag_15\n          jumpi\n          dup3\n          mload\n          dup3\n          sstore\n          swap2\n          0x20\n          add\n          swap2\n          swap1\n          0x01\n          add\n          swap1\n          jump(tag_14)\n        tag_15:\n        tag_11:\n          pop\n          swap1\n          pop\n          tag_16\n          swap2\n          swap1\n          tag_17\n          jump\t// in\n        tag_16:\n          pop\n          swap1\n          jump\t// out\n        tag_17:\n        tag_18:\n          dup1\n          dup3\n          gt\n          iszero\n          tag_19\n          jumpi\n          0x00\n          dup2\n          0x00\n          swap1\n          sstore\n          pop\n          0x01\n          add\n          jump(tag_18)\n        tag_19:\n          pop\n          swap1\n          jump\t// out\n            /* \"#utility.yul\":7:82   */\n        tag_20:\n            /* \"#utility.yul\":40:46   */\n          0x00\n            /* \"#utility.yul\":73:75   */\n          0x40\n            /* \"#utility.yul\":67:76   */\n          mload\n            /* \"#utility.yul\":57:76   */\n          swap1\n          pop\n            /* \"#utility.yul\":7:82   */\n          swap1\n          jump\t// out\n            /* \"#utility.yul\":88:205   */\n        tag_21:\n            /* \"#utility.yul\":197:198   */\n          0x00\n            /* \"#utility.yul\":194:195   */\n          dup1\n            /* \"#utility.yul\":187:199   */\n          revert\n            /* \"#utility.yul\":211:328   */\n        tag_22:\n            /* \"#utility.yul\":320:321   */\n          0x00\n            /* \"#utility.yul\":317:318   */\n          dup1\n            /* \"#utility.yul\":310:322   */\n          revert\n            /* \"#utility.yul\":334:460   */\n        tag_23:\n            /* \"#utility.yul\":371:378   */\n          0x00\n            /* \"#utility.yul\":411:453   */\n          0xffffffffffffffffffffffffffffffffffffffff\n            /* \"#utility.yul\":404:409   */\n          dup3\n            /* \"#utility.yul\":400:454   */\n          and\n            /* \"#utility.yul\":389:454   */\n          swap1\n          pop\n            /* \"#utility.yul\":334:460   */\n          swap2\n          swap1\n          pop\n          jump\t// out\n            /* \"#utility.yul\":466:562   */\n        tag_24:\n            /* \"#utility.yul\":503:510   */\n          0x00\n            /* \"#utility.yul\":532:556   */\n          tag_47\n            /* \"#utility.yul\":550:555   */\n          dup3\n            /* \"#utility.yul\":532:556   */\n          tag_23\n          jump\t// in\n        tag_47:\n            /* \"#utility.yul\":521:556   */\n          swap1\n          pop\n            /* \"#utility.yul\":466:562   */\n          swap2\n          swap1\n          pop\n          jump\t// out\n            /* \"#utility.yul\":568:690   */\n        tag_25:\n            /* \"#utility.yul\":641:665   */\n          tag_49\n            /* \"#utility.yul\":659:664   */\n          dup2\n            /* \"#utility.yul\":641:665   */\n          tag_24\n          jump\t// in\n        tag_49:\n            /* \"#utility.yul\":634:639   */\n          dup2\n            /* \"#utility.yul\":631:666   */\n          eq\n            /* \"#utility.yul\":621:684   */\n          tag_50\n          jumpi\n            /* \"#utility.yul\":680:681   */\n          0x00\n            /* \"#utility.yul\":677:678   */\n          dup1\n            /* \"#utility.yul\":670:682   */\n          revert\n            /* \"#utility.yul\":621:684   */\n        tag_50:\n            /* \"#utility.yul\":568:690   */\n          pop\n          jump\t// out\n            /* \"#utility.yul\":696:839   */\n        tag_26:\n            /* \"#utility.yul\":753:758   */\n          0x00\n            /* \"#utility.yul\":784:790   */\n          dup2\n            /* \"#utility.yul\":778:791   */\n          mload\n            /* \"#utility.yul\":769:791   */\n          swap1\n          pop\n            /* \"#utility.yul\":800:833   */\n          tag_52\n            /* \"#utility.yul\":827:832   */\n          dup2\n            /* \"#utility.yul\":800:833   */\n          tag_25\n          jump\t// in\n        tag_52:\n            /* \"#utility.yul\":696:839   */\n          swap3\n          swap2\n          pop\n          pop\n          jump\t// out\n            /* \"#utility.yul\":845:962   */\n        tag_27:\n            /* \"#utility.yul\":954:955   */\n          0x00\n            /* \"#utility.yul\":951:952   */\n          dup1\n            /* \"#utility.yul\":944:956   */\n          revert\n            /* \"#utility.yul\":968:1085   */\n        tag_28:\n            /* \"#utility.yul\":1077:1078   */\n          0x00\n            /* \"#utility.yul\":1074:1075   */\n          dup1\n            /* \"#utility.yul\":1067:1079   */\n          revert\n            /* \"#utility.yul\":1091:1193   */\n        tag_29:\n            /* \"#utility.yul\":1132:1138   */\n          0x00\n            /* \"#utility.yul\":1183:1185   */\n          0x1f\n            /* \"#utility.yul\":1179:1186   */\n          not\n            /* \"#utility.yul\":1174:1176   */\n          0x1f\n            /* \"#utility.yul\":1167:1172   */\n          dup4\n            /* \"#utility.yul\":1163:1177   */\n          add\n            /* \"#utility.yul\":1159:1187   */\n          and\n            /* \"#utility.yul\":1149:1187   */\n          swap1\n          pop\n            /* \"#utility.yul\":1091:1193   */\n          swap2\n          swap1\n          pop\n          jump\t// out\n            /* \"#utility.yul\":1199:1379   */\n        tag_30:\n            /* \"#utility.yul\":1247:1324   */\n          0x4e487b7100000000000000000000000000000000000000000000000000000000\n            /* \"#utility.yul\":1244:1245   */\n          0x00\n            /* \"#utility.yul\":1237:1325   */\n          mstore\n            /* \"#utility.yul\":1344:1348   */\n          0x41\n            /* \"#utility.yul\":1341:1342   */\n          0x04\n            /* \"#utility.yul\":1334:1349   */\n          mstore\n            /* \"#utility.yul\":1368:1372   */\n          0x24\n            /* \"#utility.yul\":1365:1366   */\n          0x00\n            /* \"#utility.yul\":1358:1373   */\n          revert\n            /* \"#utility.yul\":1385:1666   */\n        tag_31:\n            /* \"#utility.yul\":1468:1495   */\n          tag_58\n            /* \"#utility.yul\":1490:1494   */\n          dup3\n            /* \"#utility.yul\":1468:1495   */\n          tag_29\n          jump\t// in\n        tag_58:\n            /* \"#utility.yul\":1460:1466   */\n          dup2\n            /* \"#utility.yul\":1456:1496   */\n          add\n            /* \"#utility.yul\":1598:1604   */\n          dup2\n            /* \"#utility.yul\":1586:1596   */\n          dup2\n            /* \"#utility.yul\":1583:1605   */\n          lt\n            /* \"#utility.yul\":1562:1580   */\n          0xffffffffffffffff\n            /* \"#utility.yul\":1550:1560   */\n          dup3\n            /* \"#utility.yul\":1547:1581   */\n          gt\n            /* \"#utility.yul\":1544:1606   */\n          or\n            /* \"#utility.yul\":1541:1629   */\n          iszero\n          tag_59\n          jumpi\n            /* \"#utility.yul\":1609:1627   */\n          tag_60\n          tag_30\n          jump\t// in\n        tag_60:\n            /* \"#utility.yul\":1541:1629   */\n        tag_59:\n            /* \"#utility.yul\":1649:1659   */\n          dup1\n            /* \"#utility.yul\":1645:1647   */\n          0x40\n            /* \"#utility.yul\":1638:1660   */\n          mstore\n            /* \"#utility.yul\":1428:1666   */\n          pop\n            /* \"#utility.yul\":1385:1666   */\n          pop\n          pop\n          jump\t// out\n            /* \"#utility.yul\":1672:1801   */\n        tag_32:\n            /* \"#utility.yul\":1706:1712   */\n          0x00\n            /* \"#utility.yul\":1733:1753   */\n          tag_62\n          tag_20\n          jump\t// in\n        tag_62:\n            /* \"#utility.yul\":1723:1753   */\n          swap1\n          pop\n            /* \"#utility.yul\":1762:1795   */\n          tag_63\n            /* \"#utility.yul\":1790:1794   */\n          dup3\n            /* \"#utility.yul\":1782:1788   */\n          dup3\n            /* \"#utility.yul\":1762:1795   */\n          tag_31\n          jump\t// in\n        tag_63:\n            /* \"#utility.yul\":1672:1801   */\n          swap2\n          swap1\n          pop\n          jump\t// out\n            /* \"#utility.yul\":1807:2115   */\n        tag_33:\n            /* \"#utility.yul\":1869:1873   */\n          0x00\n            /* \"#utility.yul\":1959:1977   */\n          0xffffffffffffffff\n            /* \"#utility.yul\":1951:1957   */\n          dup3\n            /* \"#utility.yul\":1948:1978   */\n          gt\n            /* \"#utility.yul\":1945:2001   */\n          iszero\n          tag_65\n          jumpi\n            /* \"#utility.yul\":1981:1999   */\n          tag_66\n          tag_30\n          jump\t// in\n        tag_66:\n            /* \"#utility.yul\":1945:2001   */\n        tag_65:\n            /* \"#utility.yul\":2019:2048   */\n          tag_67\n            /* \"#utility.yul\":2041:2047   */\n          dup3\n            /* \"#utility.yul\":2019:2048   */\n          tag_29\n          jump\t// in\n        tag_67:\n            /* \"#utility.yul\":2011:2048   */\n          swap1\n          pop\n            /* \"#utility.yul\":2103:2107   */\n          0x20\n            /* \"#utility.yul\":2097:2101   */\n          dup2\n            /* \"#utility.yul\":2093:2108   */\n          add\n            /* \"#utility.yul\":2085:2108   */\n          swap1\n          pop\n            /* \"#utility.yul\":1807:2115   */\n          swap2\n          swap1\n          pop\n          jump\t// out\n            /* \"#utility.yul\":2121:2428   */\n        tag_34:\n            /* \"#utility.yul\":2189:2190   */\n          0x00\n            /* \"#utility.yul\":2199:2312   */\n        tag_69:\n            /* \"#utility.yul\":2213:2219   */\n          dup4\n            /* \"#utility.yul\":2210:2211   */\n          dup2\n            /* \"#utility.yul\":2207:2220   */\n          lt\n            /* \"#utility.yul\":2199:2312   */\n          iszero\n          tag_71\n          jumpi\n            /* \"#utility.yul\":2298:2299   */\n          dup1\n            /* \"#utility.yul\":2293:2296   */\n          dup3\n            /* \"#utility.yul\":2289:2300   */\n          add\n            /* \"#utility.yul\":2283:2301   */\n          mload\n            /* \"#utility.yul\":2279:2280   */\n          dup2\n            /* \"#utility.yul\":2274:2277   */\n          dup5\n            /* \"#utility.yul\":2270:2281   */\n          add\n            /* \"#utility.yul\":2263:2302   */\n          mstore\n            /* \"#utility.yul\":2235:2237   */\n          0x20\n            /* \"#utility.yul\":2232:2233   */\n          dup2\n            /* \"#utility.yul\":2228:2238   */\n          add\n            /* \"#utility.yul\":2223:2238   */\n          swap1\n          pop\n            /* \"#utility.yul\":2199:2312   */\n          jump(tag_69)\n        tag_71:\n            /* \"#utility.yul\":2330:2336   */\n          dup4\n            /* \"#utility.yul\":2327:2328   */\n          dup2\n            /* \"#utility.yul\":2324:2337   */\n          gt\n            /* \"#utility.yul\":2321:2422   */\n          iszero\n          tag_72\n          jumpi\n            /* \"#utility.yul\":2410:2411   */\n          0x00\n            /* \"#utility.yul\":2401:2407   */\n          dup5\n            /* \"#utility.yul\":2396:2399   */\n          dup5\n            /* \"#utility.yul\":2392:2408   */\n          add\n            /* \"#utility.yul\":2385:2412   */\n          mstore\n            /* \"#utility.yul\":2321:2422   */\n        tag_72:\n            /* \"#utility.yul\":2170:2428   */\n          pop\n            /* \"#utility.yul\":2121:2428   */\n          pop\n          pop\n          pop\n          jump\t// out\n            /* \"#utility.yul\":2434:2855   */\n        tag_35:\n            /* \"#utility.yul\":2523:2528   */\n          0x00\n            /* \"#utility.yul\":2548:2614   */\n          tag_74\n            /* \"#utility.yul\":2564:2613   */\n          tag_75\n            /* \"#utility.yul\":2606:2612   */\n          dup5\n            /* \"#utility.yul\":2564:2613   */\n          tag_33\n          jump\t// in\n        tag_75:\n            /* \"#utility.yul\":2548:2614   */\n          tag_32\n          jump\t// in\n        tag_74:\n            /* \"#utility.yul\":2539:2614   */\n          swap1\n          pop\n            /* \"#utility.yul\":2637:2643   */\n          dup3\n            /* \"#utility.yul\":2630:2635   */\n          dup2\n            /* \"#utility.yul\":2623:2644   */\n          mstore\n            /* \"#utility.yul\":2675:2679   */\n          0x20\n            /* \"#utility.yul\":2668:2673   */\n          dup2\n            /* \"#utility.yul\":2664:2680   */\n          add\n            /* \"#utility.yul\":2713:2716   */\n          dup5\n            /* \"#utility.yul\":2704:2710   */\n          dup5\n            /* \"#utility.yul\":2699:2702   */\n          dup5\n            /* \"#utility.yul\":2695:2711   */\n          add\n            /* \"#utility.yul\":2692:2717   */\n          gt\n            /* \"#utility.yul\":2689:2801   */\n          iszero\n          tag_76\n          jumpi\n            /* \"#utility.yul\":2720:2799   */\n          tag_77\n          tag_28\n          jump\t// in\n        tag_77:\n            /* \"#utility.yul\":2689:2801   */\n        tag_76:\n            /* \"#utility.yul\":2810:2849   */\n          tag_78\n            /* \"#utility.yul\":2842:2848   */\n          dup5\n            /* \"#utility.yul\":2837:2840   */\n          dup3\n            /* \"#utility.yul\":2832:2835   */\n          dup6\n            /* \"#utility.yul\":2810:2849   */\n          tag_34\n          jump\t// in\n        tag_78:\n            /* \"#utility.yul\":2529:2855   */\n          pop\n            /* \"#utility.yul\":2434:2855   */\n          swap4\n          swap3\n          pop\n          pop\n          pop\n          jump\t// out\n            /* \"#utility.yul\":2875:3230   */\n        tag_36:\n            /* \"#utility.yul\":2942:2947   */\n          0x00\n            /* \"#utility.yul\":2991:2994   */\n          dup3\n            /* \"#utility.yul\":2984:2988   */\n          0x1f\n            /* \"#utility.yul\":2976:2982   */\n          dup4\n            /* \"#utility.yul\":2972:2989   */\n          add\n            /* \"#utility.yul\":2968:2995   */\n          slt\n            /* \"#utility.yul\":2958:3080   */\n          tag_80\n          jumpi\n            /* \"#utility.yul\":2999:3078   */\n          tag_81\n          tag_27\n          jump\t// in\n        tag_81:\n            /* \"#utility.yul\":2958:3080   */\n        tag_80:\n            /* \"#utility.yul\":3109:3115   */\n          dup2\n            /* \"#utility.yul\":3103:3116   */\n          mload\n            /* \"#utility.yul\":3134:3224   */\n          tag_82\n            /* \"#utility.yul\":3220:3223   */\n          dup5\n            /* \"#utility.yul\":3212:3218   */\n          dup3\n            /* \"#utility.yul\":3205:3209   */\n          0x20\n            /* \"#utility.yul\":3197:3203   */\n          dup7\n            /* \"#utility.yul\":3193:3210   */\n          add\n            /* \"#utility.yul\":3134:3224   */\n          tag_35\n          jump\t// in\n        tag_82:\n            /* \"#utility.yul\":3125:3224   */\n          swap2\n          pop\n            /* \"#utility.yul\":2948:3230   */\n          pop\n            /* \"#utility.yul\":2875:3230   */\n          swap3\n          swap2\n          pop\n          pop\n          jump\t// out\n            /* \"#utility.yul\":3236:3313   */\n        tag_37:\n            /* \"#utility.yul\":3273:3280   */\n          0x00\n            /* \"#utility.yul\":3302:3307   */\n          dup2\n            /* \"#utility.yul\":3291:3307   */\n          swap1\n          pop\n            /* \"#utility.yul\":3236:3313   */\n          swap2\n          swap1\n          pop\n          jump\t// out\n            /* \"#utility.yul\":3319:3441   */\n        tag_38:\n            /* \"#utility.yul\":3392:3416   */\n          tag_85\n            /* \"#utility.yul\":3410:3415   */\n          dup2\n            /* \"#utility.yul\":3392:3416   */\n          tag_37\n          jump\t// in\n        tag_85:\n            /* \"#utility.yul\":3385:3390   */\n          dup2\n            /* \"#utility.yul\":3382:3417   */\n          eq\n            /* \"#utility.yul\":3372:3435   */\n          tag_86\n          jumpi\n            /* \"#utility.yul\":3431:3432   */\n          0x00\n            /* \"#utility.yul\":3428:3429   */\n          dup1\n            /* \"#utility.yul\":3421:3433   */\n          revert\n            /* \"#utility.yul\":3372:3435   */\n        tag_86:\n            /* \"#utility.yul\":3319:3441   */\n          pop\n          jump\t// out\n            /* \"#utility.yul\":3447:3590   */\n        tag_39:\n            /* \"#utility.yul\":3504:3509   */\n          0x00\n            /* \"#utility.yul\":3535:3541   */\n          dup2\n            /* \"#utility.yul\":3529:3542   */\n          mload\n            /* \"#utility.yul\":3520:3542   */\n          swap1\n          pop\n            /* \"#utility.yul\":3551:3584   */\n          tag_88\n            /* \"#utility.yul\":3578:3583   */\n          dup2\n            /* \"#utility.yul\":3551:3584   */\n          tag_38\n          jump\t// in\n        tag_88:\n            /* \"#utility.yul\":3447:3590   */\n          swap3\n          swap2\n          pop\n          pop\n          jump\t// out\n            /* \"#utility.yul\":3596:4589   */\n        tag_3:\n            /* \"#utility.yul\":3703:3709   */\n          0x00\n            /* \"#utility.yul\":3711:3717   */\n          dup1\n            /* \"#utility.yul\":3719:3725   */\n          0x00\n            /* \"#utility.yul\":3727:3733   */\n          dup1\n            /* \"#utility.yul\":3776:3779   */\n          0x80\n            /* \"#utility.yul\":3764:3773   */\n          dup6\n            /* \"#utility.yul\":3755:3762   */\n          dup8\n            /* \"#utility.yul\":3751:3774   */\n          sub\n            /* \"#utility.yul\":3747:3780   */\n          slt\n            /* \"#utility.yul\":3744:3864   */\n          iszero\n          tag_90\n          jumpi\n            /* \"#utility.yul\":3783:3862   */\n          tag_91\n          tag_21\n          jump\t// in\n        tag_91:\n            /* \"#utility.yul\":3744:3864   */\n        tag_90:\n            /* \"#utility.yul\":3903:3904   */\n          0x00\n            /* \"#utility.yul\":3928:3992   */\n          tag_92\n            /* \"#utility.yul\":3984:3991   */\n          dup8\n            /* \"#utility.yul\":3975:3981   */\n          dup3\n            /* \"#utility.yul\":3964:3973   */\n          dup9\n            /* \"#utility.yul\":3960:3982   */\n          add\n            /* \"#utility.yul\":3928:3992   */\n          tag_26\n          jump\t// in\n        tag_92:\n            /* \"#utility.yul\":3918:3992   */\n          swap5\n          pop\n            /* \"#utility.yul\":3874:4002   */\n          pop\n            /* \"#utility.yul\":4062:4064   */\n          0x20\n            /* \"#utility.yul\":4051:4060   */\n          dup6\n            /* \"#utility.yul\":4047:4065   */\n          add\n            /* \"#utility.yul\":4041:4066   */\n          mload\n            /* \"#utility.yul\":4093:4111   */\n          0xffffffffffffffff\n            /* \"#utility.yul\":4085:4091   */\n          dup2\n            /* \"#utility.yul\":4082:4112   */\n          gt\n            /* \"#utility.yul\":4079:4196   */\n          iszero\n          tag_93\n          jumpi\n            /* \"#utility.yul\":4115:4194   */\n          tag_94\n          tag_22\n          jump\t// in\n        tag_94:\n            /* \"#utility.yul\":4079:4196   */\n        tag_93:\n            /* \"#utility.yul\":4220:4294   */\n          tag_95\n            /* \"#utility.yul\":4286:4293   */\n          dup8\n            /* \"#utility.yul\":4277:4283   */\n          dup3\n            /* \"#utility.yul\":4266:4275   */\n          dup9\n            /* \"#utility.yul\":4262:4284   */\n          add\n            /* \"#utility.yul\":4220:4294   */\n          tag_36\n          jump\t// in\n        tag_95:\n            /* \"#utility.yul\":4210:4294   */\n          swap4\n          pop\n            /* \"#utility.yul\":4012:4304   */\n          pop\n            /* \"#utility.yul\":4343:4345   */\n          0x40\n            /* \"#utility.yul\":4369:4433   */\n          tag_96\n            /* \"#utility.yul\":4425:4432   */\n          dup8\n            /* \"#utility.yul\":4416:4422   */\n          dup3\n            /* \"#utility.yul\":4405:4414   */\n          dup9\n            /* \"#utility.yul\":4401:4423   */\n          add\n            /* \"#utility.yul\":4369:4433   */\n          tag_39\n          jump\t// in\n        tag_96:\n            /* \"#utility.yul\":4359:4433   */\n          swap3\n          pop\n            /* \"#utility.yul\":4314:4443   */\n          pop\n            /* \"#utility.yul\":4482:4484   */\n          0x60\n            /* \"#utility.yul\":4508:4572   */\n          tag_97\n            /* \"#utility.yul\":4564:4571   */\n          dup8\n            /* \"#utility.yul\":4555:4561   */\n          dup3\n            /* \"#utility.yul\":4544:4553   */\n          dup9\n            /* \"#utility.yul\":4540:4562   */\n          add\n            /* \"#utility.yul\":4508:4572   */\n          tag_39\n          jump\t// in\n        tag_97:\n            /* \"#utility.yul\":4498:4572   */\n          swap2\n          pop\n            /* \"#utility.yul\":4453:4582   */\n          pop\n            /* \"#utility.yul\":3596:4589   */\n          swap3\n          swap6\n          swap2\n          swap5\n          pop\n          swap3\n          pop\n          jump\t// out\n            /* \"#utility.yul\":4595:4775   */\n        tag_40:\n            /* \"#utility.yul\":4643:4720   */\n          0x4e487b7100000000000000000000000000000000000000000000000000000000\n            /* \"#utility.yul\":4640:4641   */\n          0x00\n            /* \"#utility.yul\":4633:4721   */\n          mstore\n            /* \"#utility.yul\":4740:4744   */\n          0x22\n            /* \"#utility.yul\":4737:4738   */\n          0x04\n            /* \"#utility.yul\":4730:4745   */\n          mstore\n            /* \"#utility.yul\":4764:4768   */\n          0x24\n            /* \"#utility.yul\":4761:4762   */\n          0x00\n            /* \"#utility.yul\":4754:4769   */\n          revert\n            /* \"#utility.yul\":4781:5101   */\n        tag_10:\n            /* \"#utility.yul\":4825:4831   */\n          0x00\n            /* \"#utility.yul\":4862:4863   */\n          0x02\n            /* \"#utility.yul\":4856:4860   */\n          dup3\n            /* \"#utility.yul\":4852:4864   */\n          div\n            /* \"#utility.yul\":4842:4864   */\n          swap1\n          pop\n            /* \"#utility.yul\":4909:4910   */\n          0x01\n            /* \"#utility.yul\":4903:4907   */\n          dup3\n            /* \"#utility.yul\":4899:4911   */\n          and\n            /* \"#utility.yul\":4930:4948   */\n          dup1\n            /* \"#utility.yul\":4920:5001   */\n          tag_100\n          jumpi\n            /* \"#utility.yul\":4986:4990   */\n          0x7f\n            /* \"#utility.yul\":4978:4984   */\n          dup3\n            /* \"#utility.yul\":4974:4991   */\n          and\n            /* \"#utility.yul\":4964:4991   */\n          swap2\n          pop\n            /* \"#utility.yul\":4920:5001   */\n        tag_100:\n            /* \"#utility.yul\":5048:5050   */\n          0x20\n            /* \"#utility.yul\":5040:5046   */\n          dup3\n            /* \"#utility.yul\":5037:5051   */\n          lt\n            /* \"#utility.yul\":5017:5035   */\n          dup2\n            /* \"#utility.yul\":5014:5052   */\n          sub\n            /* \"#utility.yul\":5011:5095   */\n          tag_101\n          jumpi\n            /* \"#utility.yul\":5067:5085   */\n          tag_102\n          tag_40\n          jump\t// in\n        tag_102:\n            /* \"#utility.yul\":5011:5095   */\n        tag_101:\n            /* \"#utility.yul\":4832:5101   */\n          pop\n            /* \"#utility.yul\":4781:5101   */\n          swap2\n          swap1\n          pop\n          jump\t// out\n            /* \"Campaign.sol\":744:2479  contract Campaign {... */\n        tag_8:\n          dataSize(sub_0)\n          dup1\n          dataOffset(sub_0)\n          0x00\n          codecopy\n          0x00\n          return\n        stop\n\n        sub_0: assembly {\n                /* \"Campaign.sol\":744:2479  contract Campaign {... */\n              mstore(0x40, 0x80)\n              jumpi(tag_1, lt(calldatasize, 0x04))\n              shr(0xe0, calldataload(0x00))\n              dup1\n              0x236b8e3a\n              eq\n              tag_2\n              jumpi\n              dup1\n              0x39cbcc64\n              eq\n              tag_3\n              jumpi\n              dup1\n              0xc1cbbca7\n              eq\n              tag_4\n              jumpi\n            tag_1:\n              0x00\n              dup1\n              revert\n                /* \"Campaign.sol\":1452:1729  function getCampaign() public view returns (address, uint, string memory, uint, uint, uint, bool) {... */\n            tag_2:\n              callvalue\n              dup1\n              iszero\n              tag_5\n              jumpi\n              0x00\n              dup1\n              revert\n            tag_5:\n              pop\n              tag_6\n              tag_7\n              jump\t// in\n            tag_6:\n              mload(0x40)\n              tag_8\n              swap8\n              swap7\n              swap6\n              swap5\n              swap4\n              swap3\n              swap2\n              swap1\n              tag_9\n              jump\t// in\n            tag_8:\n              mload(0x40)\n              dup1\n              swap2\n              sub\n              swap1\n              return\n                /* \"Campaign.sol\":2358:2476  function getContributorDonate() public view returns (uint) {... */\n            tag_3:\n              callvalue\n              dup1\n              iszero\n              tag_10\n              jumpi\n              0x00\n              dup1\n              revert\n            tag_10:\n              pop\n              tag_11\n              tag_12\n              jump\t// in\n            tag_11:\n              mload(0x40)\n              tag_13\n              swap2\n              swap1\n              tag_14\n              jump\t// in\n            tag_13:\n              mload(0x40)\n              dup1\n              swap2\n              sub\n              swap1\n              return\n                /* \"Campaign.sol\":1737:2350  function contribute(uint donate) public payable {... */\n            tag_4:\n              tag_15\n              0x04\n              dup1\n              calldatasize\n              sub\n              dup2\n              add\n              swap1\n              tag_16\n              swap2\n              swap1\n              tag_17\n              jump\t// in\n            tag_16:\n              tag_18\n              jump\t// in\n            tag_15:\n              stop\n                /* \"Campaign.sol\":1452:1729  function getCampaign() public view returns (address, uint, string memory, uint, uint, uint, bool) {... */\n            tag_7:\n                /* \"Campaign.sol\":1496:1503  address */\n              0x00\n                /* \"Campaign.sol\":1505:1509  uint */\n              dup1\n                /* \"Campaign.sol\":1511:1524  string memory */\n              0x60\n                /* \"Campaign.sol\":1526:1530  uint */\n              0x00\n                /* \"Campaign.sol\":1532:1536  uint */\n              dup1\n                /* \"Campaign.sol\":1538:1542  uint */\n              0x00\n                /* \"Campaign.sol\":1544:1548  bool */\n              dup1\n                /* \"Campaign.sol\":1561:1582  Information storage c */\n              0x00\n                /* \"Campaign.sol\":1612:1613  c */\n              dup1\n                /* \"Campaign.sol\":1612:1621  c.manager */\n              0x00\n              add\n              0x00\n              swap1\n              sload\n              swap1\n              0x0100\n              exp\n              swap1\n              div\n              0xffffffffffffffffffffffffffffffffffffffff\n              and\n                /* \"Campaign.sol\":1623:1644  address(this).balance */\n              selfbalance\n                /* \"Campaign.sol\":1646:1647  c */\n              dup3\n                /* \"Campaign.sol\":1646:1652  c.name */\n              0x01\n              add\n                /* \"Campaign.sol\":1654:1655  c */\n              dup4\n                /* \"Campaign.sol\":1654:1671  c.requiredBalance */\n              0x02\n              add\n              sload\n                /* \"Campaign.sol\":1673:1674  c */\n              dup5\n                /* \"Campaign.sol\":1673:1687  c.requiredCost */\n              0x03\n              add\n              sload\n                /* \"Campaign.sol\":1689:1690  c */\n              dup6\n                /* \"Campaign.sol\":1689:1708  c.contributorsCount */\n              0x05\n              add\n              sload\n                /* \"Campaign.sol\":1710:1711  c */\n              dup7\n                /* \"Campaign.sol\":1710:1720  c.complete */\n              0x06\n              add\n              0x00\n              swap1\n              sload\n              swap1\n              0x0100\n              exp\n              swap1\n              div\n              0xff\n              and\n                /* \"Campaign.sol\":1604:1721  return (c.manager, address(this).balance, c.name, c.requiredBalance, c.requiredCost, c.contributorsCount, c.complete) */\n              dup5\n              dup1\n              sload\n              tag_20\n              swap1\n              tag_21\n              jump\t// in\n            tag_20:\n              dup1\n              0x1f\n              add\n              0x20\n              dup1\n              swap2\n              div\n              mul\n              0x20\n              add\n              mload(0x40)\n              swap1\n              dup2\n              add\n              0x40\n              mstore\n              dup1\n              swap3\n              swap2\n              swap1\n              dup2\n              dup2\n              mstore\n              0x20\n              add\n              dup3\n              dup1\n              sload\n              tag_22\n              swap1\n              tag_21\n              jump\t// in\n            tag_22:\n              dup1\n              iszero\n              tag_23\n              jumpi\n              dup1\n              0x1f\n              lt\n              tag_24\n              jumpi\n              0x0100\n              dup1\n              dup4\n              sload\n              div\n              mul\n              dup4\n              mstore\n              swap2\n              0x20\n              add\n              swap2\n              jump(tag_23)\n            tag_24:\n              dup3\n              add\n              swap2\n              swap1\n              0x00\n              mstore\n              keccak256(0x00, 0x20)\n              swap1\n            tag_25:\n              dup2\n              sload\n              dup2\n              mstore\n              swap1\n              0x01\n              add\n              swap1\n              0x20\n              add\n              dup1\n              dup4\n              gt\n              tag_25\n              jumpi\n              dup3\n              swap1\n              sub\n              0x1f\n              and\n              dup3\n              add\n              swap2\n            tag_23:\n              pop\n              pop\n              pop\n              pop\n              pop\n              swap5\n              pop\n              swap8\n              pop\n              swap8\n              pop\n              swap8\n              pop\n              swap8\n              pop\n              swap8\n              pop\n              swap8\n              pop\n              swap8\n              pop\n              pop\n                /* \"Campaign.sol\":1452:1729  function getCampaign() public view returns (address, uint, string memory, uint, uint, uint, bool) {... */\n              swap1\n              swap2\n              swap3\n              swap4\n              swap5\n              swap6\n              swap7\n              jump\t// out\n                /* \"Campaign.sol\":2358:2476  function getContributorDonate() public view returns (uint) {... */\n            tag_12:\n                /* \"Campaign.sol\":2411:2415  uint */\n              0x00\n                /* \"Campaign.sol\":2435:2443  campaign */\n              dup1\n                /* \"Campaign.sol\":2435:2456  campaign.contributors */\n              0x04\n              add\n                /* \"Campaign.sol\":2435:2468  campaign.contributors[msg.sender] */\n              0x00\n                /* \"Campaign.sol\":2457:2467  msg.sender */\n              caller\n                /* \"Campaign.sol\":2435:2468  campaign.contributors[msg.sender] */\n              0xffffffffffffffffffffffffffffffffffffffff\n              and\n              0xffffffffffffffffffffffffffffffffffffffff\n              and\n              dup2\n              mstore\n              0x20\n              add\n              swap1\n              dup2\n              mstore\n              0x20\n              add\n              0x00\n              keccak256\n              sload\n                /* \"Campaign.sol\":2428:2468  return campaign.contributors[msg.sender] */\n              swap1\n              pop\n                /* \"Campaign.sol\":2358:2476  function getContributorDonate() public view returns (uint) {... */\n              swap1\n              jump\t// out\n                /* \"Campaign.sol\":1737:2350  function contribute(uint donate) public payable {... */\n            tag_18:\n                /* \"Campaign.sol\":1805:1813  campaign */\n              0x00\n                /* \"Campaign.sol\":1805:1822  campaign.complete */\n              0x06\n              add\n              0x00\n              swap1\n              sload\n              swap1\n              0x0100\n              exp\n              swap1\n              div\n              0xff\n              and\n                /* \"Campaign.sol\":1804:1822  !campaign.complete */\n              iszero\n                /* \"Campaign.sol\":1796:1823  require(!campaign.complete) */\n              tag_28\n              jumpi\n              0x00\n              dup1\n              revert\n            tag_28:\n                /* \"Campaign.sol\":1872:1873  0 */\n              0x00\n                /* \"Campaign.sol\":1847:1855  campaign */\n              dup1\n                /* \"Campaign.sol\":1847:1868  campaign.requiredCost */\n              0x03\n              add\n              sload\n                /* \"Campaign.sol\":1847:1873  campaign.requiredCost == 0 */\n              sub\n                /* \"Campaign.sol\":1844:2163  if(campaign.requiredCost == 0) {... */\n              tag_29\n              jumpi\n                /* \"Campaign.sol\":1926:1932  donate */\n              dup1\n                /* \"Campaign.sol\":1890:1898  campaign */\n              0x00\n                /* \"Campaign.sol\":1890:1911  campaign.contributors */\n              0x04\n              add\n                /* \"Campaign.sol\":1890:1923  campaign.contributors[msg.sender] */\n              0x00\n                /* \"Campaign.sol\":1912:1922  msg.sender */\n              caller\n                /* \"Campaign.sol\":1890:1923  campaign.contributors[msg.sender] */\n              0xffffffffffffffffffffffffffffffffffffffff\n              and\n              0xffffffffffffffffffffffffffffffffffffffff\n              and\n              dup2\n              mstore\n              0x20\n              add\n              swap1\n              dup2\n              mstore\n              0x20\n              add\n              0x00\n              keccak256\n                /* \"Campaign.sol\":1890:1932  campaign.contributors[msg.sender] = donate */\n              dup2\n              swap1\n              sstore\n              pop\n                /* \"Campaign.sol\":1947:1955  campaign */\n              0x00\n                /* \"Campaign.sol\":1947:1973  campaign.contributorsCount */\n              0x05\n              add\n              0x00\n                /* \"Campaign.sol\":1947:1975  campaign.contributorsCount++ */\n              dup2\n              sload\n              dup1\n              swap3\n              swap2\n              swap1\n              tag_30\n              swap1\n              tag_31\n              jump\t// in\n            tag_30:\n              swap2\n              swap1\n              pop\n              sstore\n              pop\n                /* \"Campaign.sol\":1844:2163  if(campaign.requiredCost == 0) {... */\n              jump(tag_32)\n            tag_29:\n                /* \"Campaign.sol\":2029:2037  campaign */\n              0x00\n                /* \"Campaign.sol\":2029:2050  campaign.requiredCost */\n              0x03\n              add\n              sload\n                /* \"Campaign.sol\":2016:2025  msg.value */\n              callvalue\n                /* \"Campaign.sol\":2016:2050  msg.value >= campaign.requiredCost */\n              lt\n              iszero\n                /* \"Campaign.sol\":2008:2051  require(msg.value >= campaign.requiredCost) */\n              tag_33\n              jumpi\n              0x00\n              dup1\n              revert\n            tag_33:\n                /* \"Campaign.sol\":2102:2108  donate */\n              dup1\n                /* \"Campaign.sol\":2066:2074  campaign */\n              0x00\n                /* \"Campaign.sol\":2066:2087  campaign.contributors */\n              0x04\n              add\n                /* \"Campaign.sol\":2066:2099  campaign.contributors[msg.sender] */\n              0x00\n                /* \"Campaign.sol\":2088:2098  msg.sender */\n              caller\n                /* \"Campaign.sol\":2066:2099  campaign.contributors[msg.sender] */\n              0xffffffffffffffffffffffffffffffffffffffff\n              and\n              0xffffffffffffffffffffffffffffffffffffffff\n              and\n              dup2\n              mstore\n              0x20\n              add\n              swap1\n              dup2\n              mstore\n              0x20\n              add\n              0x00\n              keccak256\n                /* \"Campaign.sol\":2066:2108  campaign.contributors[msg.sender] = donate */\n              dup2\n              swap1\n              sstore\n              pop\n                /* \"Campaign.sol\":2123:2131  campaign */\n              0x00\n                /* \"Campaign.sol\":2123:2149  campaign.contributorsCount */\n              0x05\n              add\n              0x00\n                /* \"Campaign.sol\":2123:2151  campaign.contributorsCount++ */\n              dup2\n              sload\n              dup1\n              swap3\n              swap2\n              swap1\n              tag_34\n              swap1\n              tag_31\n              jump\t// in\n            tag_34:\n              swap2\n              swap1\n              pop\n              sstore\n              pop\n                /* \"Campaign.sol\":1844:2163  if(campaign.requiredCost == 0) {... */\n            tag_32:\n                /* \"Campaign.sol\":2203:2211  campaign */\n              0x00\n                /* \"Campaign.sol\":2203:2227  campaign.requiredBalance */\n              0x02\n              add\n              sload\n                /* \"Campaign.sol\":2178:2199  address(this).balance */\n              selfbalance\n                /* \"Campaign.sol\":2178:2227  address(this).balance >= campaign.requiredBalance */\n              lt\n                /* \"Campaign.sol\":2175:2343  if(address(this).balance >= campaign.requiredBalance) {... */\n              tag_35\n              jumpi\n                /* \"Campaign.sol\":2244:2252  campaign */\n              0x00\n                /* \"Campaign.sol\":2244:2260  campaign.manager */\n              dup1\n              add\n              0x00\n              swap1\n              sload\n              swap1\n              0x0100\n              exp\n              swap1\n              div\n              0xffffffffffffffffffffffffffffffffffffffff\n              and\n                /* \"Campaign.sol\":2244:2269  campaign.manager.transfer */\n              0xffffffffffffffffffffffffffffffffffffffff\n              and\n                /* \"Campaign.sol\":2244:2292  campaign.manager.transfer(address(this).balance) */\n              0x08fc\n                /* \"Campaign.sol\":2270:2291  address(this).balance */\n              selfbalance\n                /* \"Campaign.sol\":2244:2292  campaign.manager.transfer(address(this).balance) */\n              swap1\n              dup2\n              iszero\n              mul\n              swap1\n              mload(0x40)\n              0x00\n              mload(0x40)\n              dup1\n              dup4\n              sub\n              dup2\n              dup6\n              dup9\n              dup9\n              call\n              swap4\n              pop\n              pop\n              pop\n              pop\n              iszero\n              dup1\n              iszero\n              tag_37\n              jumpi\n              returndatasize\n              0x00\n              dup1\n              returndatacopy\n              revert(0x00, returndatasize)\n            tag_37:\n              pop\n                /* \"Campaign.sol\":2327:2331  true */\n              0x01\n                /* \"Campaign.sol\":2307:2315  campaign */\n              0x00\n                /* \"Campaign.sol\":2307:2324  campaign.complete */\n              0x06\n              add\n              0x00\n                /* \"Campaign.sol\":2307:2331  campaign.complete = true */\n              0x0100\n              exp\n              dup2\n              sload\n              dup2\n              0xff\n              mul\n              not\n              and\n              swap1\n              dup4\n              iszero\n              iszero\n              mul\n              or\n              swap1\n              sstore\n              pop\n                /* \"Campaign.sol\":2175:2343  if(address(this).balance >= campaign.requiredBalance) {... */\n            tag_35:\n                /* \"Campaign.sol\":1737:2350  function contribute(uint donate) public payable {... */\n              pop\n              jump\t// out\n                /* \"#utility.yul\":7:133   */\n            tag_38:\n                /* \"#utility.yul\":44:51   */\n              0x00\n                /* \"#utility.yul\":84:126   */\n              0xffffffffffffffffffffffffffffffffffffffff\n                /* \"#utility.yul\":77:82   */\n              dup3\n                /* \"#utility.yul\":73:127   */\n              and\n                /* \"#utility.yul\":62:127   */\n              swap1\n              pop\n                /* \"#utility.yul\":7:133   */\n              swap2\n              swap1\n              pop\n              jump\t// out\n                /* \"#utility.yul\":139:235   */\n            tag_39:\n                /* \"#utility.yul\":176:183   */\n              0x00\n                /* \"#utility.yul\":205:229   */\n              tag_60\n                /* \"#utility.yul\":223:228   */\n              dup3\n                /* \"#utility.yul\":205:229   */\n              tag_38\n              jump\t// in\n            tag_60:\n                /* \"#utility.yul\":194:229   */\n              swap1\n              pop\n                /* \"#utility.yul\":139:235   */\n              swap2\n              swap1\n              pop\n              jump\t// out\n                /* \"#utility.yul\":241:359   */\n            tag_40:\n                /* \"#utility.yul\":328:352   */\n              tag_62\n                /* \"#utility.yul\":346:351   */\n              dup2\n                /* \"#utility.yul\":328:352   */\n              tag_39\n              jump\t// in\n            tag_62:\n                /* \"#utility.yul\":323:326   */\n              dup3\n                /* \"#utility.yul\":316:353   */\n              mstore\n                /* \"#utility.yul\":241:359   */\n              pop\n              pop\n              jump\t// out\n                /* \"#utility.yul\":365:442   */\n            tag_41:\n                /* \"#utility.yul\":402:409   */\n              0x00\n                /* \"#utility.yul\":431:436   */\n              dup2\n                /* \"#utility.yul\":420:436   */\n              swap1\n              pop\n                /* \"#utility.yul\":365:442   */\n              swap2\n              swap1\n              pop\n              jump\t// out\n                /* \"#utility.yul\":448:566   */\n            tag_42:\n                /* \"#utility.yul\":535:559   */\n              tag_65\n                /* \"#utility.yul\":553:558   */\n              dup2\n                /* \"#utility.yul\":535:559   */\n              tag_41\n              jump\t// in\n            tag_65:\n                /* \"#utility.yul\":530:533   */\n              dup3\n                /* \"#utility.yul\":523:560   */\n              mstore\n                /* \"#utility.yul\":448:566   */\n              pop\n              pop\n              jump\t// out\n                /* \"#utility.yul\":572:671   */\n            tag_43:\n                /* \"#utility.yul\":624:630   */\n              0x00\n                /* \"#utility.yul\":658:663   */\n              dup2\n                /* \"#utility.yul\":652:664   */\n              mload\n                /* \"#utility.yul\":642:664   */\n              swap1\n              pop\n                /* \"#utility.yul\":572:671   */\n              swap2\n              swap1\n              pop\n              jump\t// out\n                /* \"#utility.yul\":677:846   */\n            tag_44:\n                /* \"#utility.yul\":761:772   */\n              0x00\n                /* \"#utility.yul\":795:801   */\n              dup3\n                /* \"#utility.yul\":790:793   */\n              dup3\n                /* \"#utility.yul\":783:802   */\n              mstore\n                /* \"#utility.yul\":835:839   */\n              0x20\n                /* \"#utility.yul\":830:833   */\n              dup3\n                /* \"#utility.yul\":826:840   */\n              add\n                /* \"#utility.yul\":811:840   */\n              swap1\n              pop\n                /* \"#utility.yul\":677:846   */\n              swap3\n              swap2\n              pop\n              pop\n              jump\t// out\n                /* \"#utility.yul\":852:1159   */\n            tag_45:\n                /* \"#utility.yul\":920:921   */\n              0x00\n                /* \"#utility.yul\":930:1043   */\n            tag_69:\n                /* \"#utility.yul\":944:950   */\n              dup4\n                /* \"#utility.yul\":941:942   */\n              dup2\n                /* \"#utility.yul\":938:951   */\n              lt\n                /* \"#utility.yul\":930:1043   */\n              iszero\n              tag_71\n              jumpi\n                /* \"#utility.yul\":1029:1030   */\n              dup1\n                /* \"#utility.yul\":1024:1027   */\n              dup3\n                /* \"#utility.yul\":1020:1031   */\n              add\n                /* \"#utility.yul\":1014:1032   */\n              mload\n                /* \"#utility.yul\":1010:1011   */\n              dup2\n                /* \"#utility.yul\":1005:1008   */\n              dup5\n                /* \"#utility.yul\":1001:1012   */\n              add\n                /* \"#utility.yul\":994:1033   */\n              mstore\n                /* \"#utility.yul\":966:968   */\n              0x20\n                /* \"#utility.yul\":963:964   */\n              dup2\n                /* \"#utility.yul\":959:969   */\n              add\n                /* \"#utility.yul\":954:969   */\n              swap1\n              pop\n                /* \"#utility.yul\":930:1043   */\n              jump(tag_69)\n            tag_71:\n                /* \"#utility.yul\":1061:1067   */\n              dup4\n                /* \"#utility.yul\":1058:1059   */\n              dup2\n                /* \"#utility.yul\":1055:1068   */\n              gt\n                /* \"#utility.yul\":1052:1153   */\n              iszero\n              tag_72\n              jumpi\n                /* \"#utility.yul\":1141:1142   */\n              0x00\n                /* \"#utility.yul\":1132:1138   */\n              dup5\n                /* \"#utility.yul\":1127:1130   */\n              dup5\n                /* \"#utility.yul\":1123:1139   */\n              add\n                /* \"#utility.yul\":1116:1143   */\n              mstore\n                /* \"#utility.yul\":1052:1153   */\n            tag_72:\n                /* \"#utility.yul\":901:1159   */\n              pop\n                /* \"#utility.yul\":852:1159   */\n              pop\n              pop\n              pop\n              jump\t// out\n                /* \"#utility.yul\":1165:1267   */\n            tag_46:\n                /* \"#utility.yul\":1206:1212   */\n              0x00\n                /* \"#utility.yul\":1257:1259   */\n              0x1f\n                /* \"#utility.yul\":1253:1260   */\n              not\n                /* \"#utility.yul\":1248:1250   */\n              0x1f\n                /* \"#utility.yul\":1241:1246   */\n              dup4\n                /* \"#utility.yul\":1237:1251   */\n              add\n                /* \"#utility.yul\":1233:1261   */\n              and\n                /* \"#utility.yul\":1223:1261   */\n              swap1\n              pop\n                /* \"#utility.yul\":1165:1267   */\n              swap2\n              swap1\n              pop\n              jump\t// out\n                /* \"#utility.yul\":1273:1637   */\n            tag_47:\n                /* \"#utility.yul\":1361:1364   */\n              0x00\n                /* \"#utility.yul\":1389:1428   */\n              tag_75\n                /* \"#utility.yul\":1422:1427   */\n              dup3\n                /* \"#utility.yul\":1389:1428   */\n              tag_43\n              jump\t// in\n            tag_75:\n                /* \"#utility.yul\":1444:1515   */\n              tag_76\n                /* \"#utility.yul\":1508:1514   */\n              dup2\n                /* \"#utility.yul\":1503:1506   */\n              dup6\n                /* \"#utility.yul\":1444:1515   */\n              tag_44\n              jump\t// in\n            tag_76:\n                /* \"#utility.yul\":1437:1515   */\n              swap4\n              pop\n                /* \"#utility.yul\":1524:1576   */\n              tag_77\n                /* \"#utility.yul\":1569:1575   */\n              dup2\n                /* \"#utility.yul\":1564:1567   */\n              dup6\n                /* \"#utility.yul\":1557:1561   */\n              0x20\n                /* \"#utility.yul\":1550:1555   */\n              dup7\n                /* \"#utility.yul\":1546:1562   */\n              add\n                /* \"#utility.yul\":1524:1576   */\n              tag_45\n              jump\t// in\n            tag_77:\n                /* \"#utility.yul\":1601:1630   */\n              tag_78\n                /* \"#utility.yul\":1623:1629   */\n              dup2\n                /* \"#utility.yul\":1601:1630   */\n              tag_46\n              jump\t// in\n            tag_78:\n                /* \"#utility.yul\":1596:1599   */\n              dup5\n                /* \"#utility.yul\":1592:1631   */\n              add\n                /* \"#utility.yul\":1585:1631   */\n              swap2\n              pop\n                /* \"#utility.yul\":1365:1637   */\n              pop\n                /* \"#utility.yul\":1273:1637   */\n              swap3\n              swap2\n              pop\n              pop\n              jump\t// out\n                /* \"#utility.yul\":1643:1733   */\n            tag_48:\n                /* \"#utility.yul\":1677:1684   */\n              0x00\n                /* \"#utility.yul\":1720:1725   */\n              dup2\n                /* \"#utility.yul\":1713:1726   */\n              iszero\n                /* \"#utility.yul\":1706:1727   */\n              iszero\n                /* \"#utility.yul\":1695:1727   */\n              swap1\n              pop\n                /* \"#utility.yul\":1643:1733   */\n              swap2\n              swap1\n              pop\n              jump\t// out\n                /* \"#utility.yul\":1739:1848   */\n            tag_49:\n                /* \"#utility.yul\":1820:1841   */\n              tag_81\n                /* \"#utility.yul\":1835:1840   */\n              dup2\n                /* \"#utility.yul\":1820:1841   */\n              tag_48\n              jump\t// in\n            tag_81:\n                /* \"#utility.yul\":1815:1818   */\n              dup3\n                /* \"#utility.yul\":1808:1842   */\n              mstore\n                /* \"#utility.yul\":1739:1848   */\n              pop\n              pop\n              jump\t// out\n                /* \"#utility.yul\":1854:2819   */\n            tag_9:\n                /* \"#utility.yul\":2129:2133   */\n              0x00\n                /* \"#utility.yul\":2167:2170   */\n              0xe0\n                /* \"#utility.yul\":2156:2165   */\n              dup3\n                /* \"#utility.yul\":2152:2171   */\n              add\n                /* \"#utility.yul\":2144:2171   */\n              swap1\n              pop\n                /* \"#utility.yul\":2181:2252   */\n              tag_83\n                /* \"#utility.yul\":2249:2250   */\n              0x00\n                /* \"#utility.yul\":2238:2247   */\n              dup4\n                /* \"#utility.yul\":2234:2251   */\n              add\n                /* \"#utility.yul\":2225:2231   */\n              dup11\n                /* \"#utility.yul\":2181:2252   */\n              tag_40\n              jump\t// in\n            tag_83:\n                /* \"#utility.yul\":2262:2334   */\n              tag_84\n                /* \"#utility.yul\":2330:2332   */\n              0x20\n                /* \"#utility.yul\":2319:2328   */\n              dup4\n                /* \"#utility.yul\":2315:2333   */\n              add\n                /* \"#utility.yul\":2306:2312   */\n              dup10\n                /* \"#utility.yul\":2262:2334   */\n              tag_42\n              jump\t// in\n            tag_84:\n                /* \"#utility.yul\":2381:2390   */\n              dup2\n                /* \"#utility.yul\":2375:2379   */\n              dup2\n                /* \"#utility.yul\":2371:2391   */\n              sub\n                /* \"#utility.yul\":2366:2368   */\n              0x40\n                /* \"#utility.yul\":2355:2364   */\n              dup4\n                /* \"#utility.yul\":2351:2369   */\n              add\n                /* \"#utility.yul\":2344:2392   */\n              mstore\n                /* \"#utility.yul\":2409:2487   */\n              tag_85\n                /* \"#utility.yul\":2482:2486   */\n              dup2\n                /* \"#utility.yul\":2473:2479   */\n              dup9\n                /* \"#utility.yul\":2409:2487   */\n              tag_47\n              jump\t// in\n            tag_85:\n                /* \"#utility.yul\":2401:2487   */\n              swap1\n              pop\n                /* \"#utility.yul\":2497:2569   */\n              tag_86\n                /* \"#utility.yul\":2565:2567   */\n              0x60\n                /* \"#utility.yul\":2554:2563   */\n              dup4\n                /* \"#utility.yul\":2550:2568   */\n              add\n                /* \"#utility.yul\":2541:2547   */\n              dup8\n                /* \"#utility.yul\":2497:2569   */\n              tag_42\n              jump\t// in\n            tag_86:\n                /* \"#utility.yul\":2579:2652   */\n              tag_87\n                /* \"#utility.yul\":2647:2650   */\n              0x80\n                /* \"#utility.yul\":2636:2645   */\n              dup4\n                /* \"#utility.yul\":2632:2651   */\n              add\n                /* \"#utility.yul\":2623:2629   */\n              dup7\n                /* \"#utility.yul\":2579:2652   */\n              tag_42\n              jump\t// in\n            tag_87:\n                /* \"#utility.yul\":2662:2735   */\n              tag_88\n                /* \"#utility.yul\":2730:2733   */\n              0xa0\n                /* \"#utility.yul\":2719:2728   */\n              dup4\n                /* \"#utility.yul\":2715:2734   */\n              add\n                /* \"#utility.yul\":2706:2712   */\n              dup6\n                /* \"#utility.yul\":2662:2735   */\n              tag_42\n              jump\t// in\n            tag_88:\n                /* \"#utility.yul\":2745:2812   */\n              tag_89\n                /* \"#utility.yul\":2807:2810   */\n              0xc0\n                /* \"#utility.yul\":2796:2805   */\n              dup4\n                /* \"#utility.yul\":2792:2811   */\n              add\n                /* \"#utility.yul\":2783:2789   */\n              dup5\n                /* \"#utility.yul\":2745:2812   */\n              tag_49\n              jump\t// in\n            tag_89:\n                /* \"#utility.yul\":1854:2819   */\n              swap9\n              swap8\n              pop\n              pop\n              pop\n              pop\n              pop\n              pop\n              pop\n              pop\n              jump\t// out\n                /* \"#utility.yul\":2825:3047   */\n            tag_14:\n                /* \"#utility.yul\":2918:2922   */\n              0x00\n                /* \"#utility.yul\":2956:2958   */\n              0x20\n                /* \"#utility.yul\":2945:2954   */\n              dup3\n                /* \"#utility.yul\":2941:2959   */\n              add\n                /* \"#utility.yul\":2933:2959   */\n              swap1\n              pop\n                /* \"#utility.yul\":2969:3040   */\n              tag_91\n                /* \"#utility.yul\":3037:3038   */\n              0x00\n                /* \"#utility.yul\":3026:3035   */\n              dup4\n                /* \"#utility.yul\":3022:3039   */\n              add\n                /* \"#utility.yul\":3013:3019   */\n              dup5\n                /* \"#utility.yul\":2969:3040   */\n              tag_42\n              jump\t// in\n            tag_91:\n                /* \"#utility.yul\":2825:3047   */\n              swap3\n              swap2\n              pop\n              pop\n              jump\t// out\n                /* \"#utility.yul\":3134:3251   */\n            tag_51:\n                /* \"#utility.yul\":3243:3244   */\n              0x00\n                /* \"#utility.yul\":3240:3241   */\n              dup1\n                /* \"#utility.yul\":3233:3245   */\n              revert\n                /* \"#utility.yul\":3380:3502   */\n            tag_53:\n                /* \"#utility.yul\":3453:3477   */\n              tag_96\n                /* \"#utility.yul\":3471:3476   */\n              dup2\n                /* \"#utility.yul\":3453:3477   */\n              tag_41\n              jump\t// in\n            tag_96:\n                /* \"#utility.yul\":3446:3451   */\n              dup2\n                /* \"#utility.yul\":3443:3478   */\n              eq\n                /* \"#utility.yul\":3433:3496   */\n              tag_97\n              jumpi\n                /* \"#utility.yul\":3492:3493   */\n              0x00\n                /* \"#utility.yul\":3489:3490   */\n              dup1\n                /* \"#utility.yul\":3482:3494   */\n              revert\n                /* \"#utility.yul\":3433:3496   */\n            tag_97:\n                /* \"#utility.yul\":3380:3502   */\n              pop\n              jump\t// out\n                /* \"#utility.yul\":3508:3647   */\n            tag_54:\n                /* \"#utility.yul\":3554:3559   */\n              0x00\n                /* \"#utility.yul\":3592:3598   */\n              dup2\n                /* \"#utility.yul\":3579:3599   */\n              calldataload\n                /* \"#utility.yul\":3570:3599   */\n              swap1\n              pop\n                /* \"#utility.yul\":3608:3641   */\n              tag_99\n                /* \"#utility.yul\":3635:3640   */\n              dup2\n                /* \"#utility.yul\":3608:3641   */\n              tag_53\n              jump\t// in\n            tag_99:\n                /* \"#utility.yul\":3508:3647   */\n              swap3\n              swap2\n              pop\n              pop\n              jump\t// out\n                /* \"#utility.yul\":3653:3982   */\n            tag_17:\n                /* \"#utility.yul\":3712:3718   */\n              0x00\n                /* \"#utility.yul\":3761:3763   */\n              0x20\n                /* \"#utility.yul\":3749:3758   */\n              dup3\n                /* \"#utility.yul\":3740:3747   */\n              dup5\n                /* \"#utility.yul\":3736:3759   */\n              sub\n                /* \"#utility.yul\":3732:3764   */\n              slt\n                /* \"#utility.yul\":3729:3848   */\n              iszero\n              tag_101\n              jumpi\n                /* \"#utility.yul\":3767:3846   */\n              tag_102\n              tag_51\n              jump\t// in\n            tag_102:\n                /* \"#utility.yul\":3729:3848   */\n            tag_101:\n                /* \"#utility.yul\":3887:3888   */\n              0x00\n                /* \"#utility.yul\":3912:3965   */\n              tag_103\n                /* \"#utility.yul\":3957:3964   */\n              dup5\n                /* \"#utility.yul\":3948:3954   */\n              dup3\n                /* \"#utility.yul\":3937:3946   */\n              dup6\n                /* \"#utility.yul\":3933:3955   */\n              add\n                /* \"#utility.yul\":3912:3965   */\n              tag_54\n              jump\t// in\n            tag_103:\n                /* \"#utility.yul\":3902:3965   */\n              swap2\n              pop\n                /* \"#utility.yul\":3858:3975   */\n              pop\n                /* \"#utility.yul\":3653:3982   */\n              swap3\n              swap2\n              pop\n              pop\n              jump\t// out\n                /* \"#utility.yul\":3988:4168   */\n            tag_55:\n                /* \"#utility.yul\":4036:4113   */\n              0x4e487b7100000000000000000000000000000000000000000000000000000000\n                /* \"#utility.yul\":4033:4034   */\n              0x00\n                /* \"#utility.yul\":4026:4114   */\n              mstore\n                /* \"#utility.yul\":4133:4137   */\n              0x22\n                /* \"#utility.yul\":4130:4131   */\n              0x04\n                /* \"#utility.yul\":4123:4138   */\n              mstore\n                /* \"#utility.yul\":4157:4161   */\n              0x24\n                /* \"#utility.yul\":4154:4155   */\n              0x00\n                /* \"#utility.yul\":4147:4162   */\n              revert\n                /* \"#utility.yul\":4174:4494   */\n            tag_21:\n                /* \"#utility.yul\":4218:4224   */\n              0x00\n                /* \"#utility.yul\":4255:4256   */\n              0x02\n                /* \"#utility.yul\":4249:4253   */\n              dup3\n                /* \"#utility.yul\":4245:4257   */\n              div\n                /* \"#utility.yul\":4235:4257   */\n              swap1\n              pop\n                /* \"#utility.yul\":4302:4303   */\n              0x01\n                /* \"#utility.yul\":4296:4300   */\n              dup3\n                /* \"#utility.yul\":4292:4304   */\n              and\n                /* \"#utility.yul\":4323:4341   */\n              dup1\n                /* \"#utility.yul\":4313:4394   */\n              tag_106\n              jumpi\n                /* \"#utility.yul\":4379:4383   */\n              0x7f\n                /* \"#utility.yul\":4371:4377   */\n              dup3\n                /* \"#utility.yul\":4367:4384   */\n              and\n                /* \"#utility.yul\":4357:4384   */\n              swap2\n              pop\n                /* \"#utility.yul\":4313:4394   */\n            tag_106:\n                /* \"#utility.yul\":4441:4443   */\n              0x20\n                /* \"#utility.yul\":4433:4439   */\n              dup3\n                /* \"#utility.yul\":4430:4444   */\n              lt\n                /* \"#utility.yul\":4410:4428   */\n              dup2\n                /* \"#utility.yul\":4407:4445   */\n              sub\n                /* \"#utility.yul\":4404:4488   */\n              tag_107\n              jumpi\n                /* \"#utility.yul\":4460:4478   */\n              tag_108\n              tag_55\n              jump\t// in\n            tag_108:\n                /* \"#utility.yul\":4404:4488   */\n            tag_107:\n                /* \"#utility.yul\":4225:4494   */\n              pop\n                /* \"#utility.yul\":4174:4494   */\n              swap2\n              swap1\n              pop\n              jump\t// out\n                /* \"#utility.yul\":4500:4680   */\n            tag_56:\n                /* \"#utility.yul\":4548:4625   */\n              0x4e487b7100000000000000000000000000000000000000000000000000000000\n                /* \"#utility.yul\":4545:4546   */\n              0x00\n                /* \"#utility.yul\":4538:4626   */\n              mstore\n                /* \"#utility.yul\":4645:4649   */\n              0x11\n                /* \"#utility.yul\":4642:4643   */\n              0x04\n                /* \"#utility.yul\":4635:4650   */\n              mstore\n                /* \"#utility.yul\":4669:4673   */\n              0x24\n                /* \"#utility.yul\":4666:4667   */\n              0x00\n                /* \"#utility.yul\":4659:4674   */\n              revert\n                /* \"#utility.yul\":4686:4919   */\n            tag_31:\n                /* \"#utility.yul\":4725:4728   */\n              0x00\n                /* \"#utility.yul\":4748:4772   */\n              tag_111\n                /* \"#utility.yul\":4766:4771   */\n              dup3\n                /* \"#utility.yul\":4748:4772   */\n              tag_41\n              jump\t// in\n            tag_111:\n                /* \"#utility.yul\":4739:4772   */\n              swap2\n              pop\n                /* \"#utility.yul\":4794:4860   */\n              0xffffffffffffffffffffffffffffffffffffffffffffffffffffffffffffffff\n                /* \"#utility.yul\":4787:4792   */\n              dup3\n                /* \"#utility.yul\":4784:4861   */\n              sub\n                /* \"#utility.yul\":4781:4884   */\n              tag_112\n              jumpi\n                /* \"#utility.yul\":4864:4882   */\n              tag_113\n              tag_56\n              jump\t// in\n            tag_113:\n                /* \"#utility.yul\":4781:4884   */\n            tag_112:\n                /* \"#utility.yul\":4911:4912   */\n              0x01\n                /* \"#utility.yul\":4904:4909   */\n              dup3\n                /* \"#utility.yul\":4900:4913   */\n              add\n                /* \"#utility.yul\":4893:4913   */\n              swap1\n              pop\n                /* \"#utility.yul\":4686:4919   */\n              swap2\n              swap1\n              pop\n              jump\t// out\n\n            auxdata: 0xa2646970667358221220ccafbfb7a37996725ddf8c0d4fabef57c182436320de59f722ab935d2d4e4c7e64736f6c634300080d0033\n        }\n    }\n\n    auxdata: 0xa26469706673582212200920e1933da24dec05c9210f27a1b218357ff707a0269b37c1418fccaf69603664736f6c634300080d0033\n}\n","bytecode":{"linkReferences":{},"object":"608060405234801561001057600080fd5b50611572806100206000396000f3fe60806040523480156200001157600080fd5b50600436106200003a5760003560e01c80633020580b146200003f5780634acb9d4f1462000075575b600080fd5b6200005d60048036038101906200005791906200056d565b62000098565b6040516200006c91906200062d565b60405180910390f35b6200007f62000188565b6040516200008f9291906200087b565b60405180910390f35b60008033858585604051620000ad90620002fe565b620000bc949392919062000919565b604051809103906000f080158015620000d9573d6000803e3d6000fd5b5090506000819080600181540180825580915050600190039060005260206000200160009091909190916101000a81548173ffffffffffffffffffffffffffffffffffffffff021916908373ffffffffffffffffffffffffffffffffffffffff1602179055506001859080600181540180825580915050600190039060005260206000200160009091909190915090805190602001906200017c9291906200030c565b50809150509392505050565b60608060006001818054806020026020016040519081016040528092919081815260200182805480156200021257602002820191906000526020600020905b8160009054906101000a900473ffffffffffffffffffffffffffffffffffffffff1673ffffffffffffffffffffffffffffffffffffffff1681526020019060010190808311620001c7575b5050505050915080805480602002602001604051908101604052809291908181526020016000905b82821015620002f05783829060005260206000200180546200025c906200099c565b80601f01602080910402602001604051908101604052809291908181526020018280546200028a906200099c565b8015620002db5780601f10620002af57610100808354040283529160200191620002db565b820191906000526020600020905b815481529060010190602001808311620002bd57829003601f168201915b5050505050815260200190600101906200023a565b505050509050915091509091565b610b6b80620009d283390190565b8280546200031a906200099c565b90600052602060002090601f0160209004810192826200033e57600085556200038a565b82601f106200035957805160ff19168380011785556200038a565b828001600101855582156200038a579182015b82811115620003895782518255916020019190600101906200036c565b5b5090506200039991906200039d565b5090565b5b80821115620003b85760008160009055506001016200039e565b5090565b6000604051905090565b600080fd5b600080fd5b600080fd5b600080fd5b6000601f19601f8301169050919050565b7f4e487b7100000000000000000000000000000000000000000000000000000000600052604160045260246000fd5b6200042582620003da565b810181811067ffffffffffffffff82111715620004475762000446620003eb565b5b80604052505050565b60006200045c620003bc565b90506200046a82826200041a565b919050565b600067ffffffffffffffff8211156200048d576200048c620003eb565b5b6200049882620003da565b9050602081019050919050565b82818337600083830152505050565b6000620004cb620004c5846200046f565b62000450565b905082815260208101848484011115620004ea57620004e9620003d5565b5b620004f7848285620004a5565b509392505050565b600082601f830112620005175762000516620003d0565b5b813562000529848260208601620004b4565b91505092915050565b6000819050919050565b620005478162000532565b81146200055357600080fd5b50565b60008135905062000567816200053c565b92915050565b600080600060608486031215620005895762000588620003c6565b5b600084013567ffffffffffffffff811115620005aa57620005a9620003cb565b5b620005b886828701620004ff565b9350506020620005cb8682870162000556565b9250506040620005de8682870162000556565b9150509250925092565b600073ffffffffffffffffffffffffffffffffffffffff82169050919050565b60006200061582620005e8565b9050919050565b620006278162000608565b82525050565b60006020820190506200064460008301846200061c565b92915050565b600081519050919050565b600082825260208201905092915050565b6000819050602082019050919050565b620006818162000608565b82525050565b600062000695838362000676565b60208301905092915050565b6000602082019050919050565b6000620006bb826200064a565b620006c7818562000655565b9350620006d48362000666565b8060005b838110156200070b578151620006ef888262000687565b9750620006fc83620006a1565b925050600181019050620006d8565b5085935050505092915050565b600081519050919050565b600082825260208201905092915050565b6000819050602082019050919050565b600081519050919050565b600082825260208201905092915050565b60005b838110156200078057808201518184015260208101905062000763565b8381111562000790576000848401525b50505050565b6000620007a38262000744565b620007af81856200074f565b9350620007c181856020860162000760565b620007cc81620003da565b840191505092915050565b6000620007e5838362000796565b905092915050565b6000602082019050919050565b6000620008078262000718565b62000813818562000723565b935083602082028501620008278562000734565b8060005b85811015620008695784840389528151620008478582620007d7565b94506200085483620007ed565b925060208a019950506001810190506200082b565b50829750879550505050505092915050565b60006040820190508181036000830152620008978185620006ae565b90508181036020830152620008ad8184620007fa565b90509392505050565b600082825260208201905092915050565b6000620008d48262000744565b620008e08185620008b6565b9350620008f281856020860162000760565b620008fd81620003da565b840191505092915050565b620009138162000532565b82525050565b60006080820190506200093060008301876200061c565b8181036020830152620009448186620008c7565b905062000955604083018562000908565b62000964606083018462000908565b95945050505050565b7f4e487b7100000000000000000000000000000000000000000000000000000000600052602260045260246000fd5b60006002820490506001821680620009b557607f821691505b602082108103620009cb57620009ca6200096d565b5b5091905056fe60806040523480156200001157600080fd5b5060405162000b6b38038062000b6b8339818101604052810190620000379190620003c8565b836000800160006101000a81548173ffffffffffffffffffffffffffffffffffffffff021916908373ffffffffffffffffffffffffffffffffffffffff160217905550826000600101908051906020019062000095929190620000db565b5081600060020181905550806000600301819055506000806005018190555060008060060160006101000a81548160ff02191690831515021790555050505050620004bd565b828054620000e99062000488565b90600052602060002090601f0160209004810192826200010d576000855562000159565b82601f106200012857805160ff191683800117855562000159565b8280016001018555821562000159579182015b82811115620001585782518255916020019190600101906200013b565b5b5090506200016891906200016c565b5090565b5b80821115620001875760008160009055506001016200016d565b5090565b6000604051905090565b600080fd5b600080fd5b600073ffffffffffffffffffffffffffffffffffffffff82169050919050565b6000620001cc826200019f565b9050919050565b620001de81620001bf565b8114620001ea57600080fd5b50565b600081519050620001fe81620001d3565b92915050565b600080fd5b600080fd5b6000601f19601f8301169050919050565b7f4e487b7100000000000000000000000000000000000000000000000000000000600052604160045260246000fd5b62000259826200020e565b810181811067ffffffffffffffff821117156200027b576200027a6200021f565b5b80604052505050565b6000620002906200018b565b90506200029e82826200024e565b919050565b600067ffffffffffffffff821115620002c157620002c06200021f565b5b620002cc826200020e565b9050602081019050919050565b60005b83811015620002f9578082015181840152602081019050620002dc565b8381111562000309576000848401525b50505050565b6000620003266200032084620002a3565b62000284565b90508281526020810184848401111562000345576200034462000209565b5b62000352848285620002d9565b509392505050565b600082601f83011262000372576200037162000204565b5b8151620003848482602086016200030f565b91505092915050565b6000819050919050565b620003a2816200038d565b8114620003ae57600080fd5b50565b600081519050620003c28162000397565b92915050565b60008060008060808587031215620003e557620003e462000195565b5b6000620003f587828801620001ed565b945050602085015167ffffffffffffffff8111156200041957620004186200019a565b5b62000427878288016200035a565b93505060406200043a87828801620003b1565b92505060606200044d87828801620003b1565b91505092959194509250565b7f4e487b7100000000000000000000000000000000000000000000000000000000600052602260045260246000fd5b60006002820490506001821680620004a157607f821691505b602082108103620004b757620004b662000459565b5b50919050565b61069e80620004cd6000396000f3fe6080604052600436106100345760003560e01c8063236b8e3a1461003957806339cbcc641461006a578063c1cbbca714610095575b600080fd5b34801561004557600080fd5b5061004e6100b1565b60405161006197969594939291906104a2565b60405180910390f35b34801561007657600080fd5b5061007f6101ad565b60405161008c9190610518565b60405180910390f35b6100af60048036038101906100aa9190610564565b6101f6565b005b600080606060008060008060008060000160009054906101000a900473ffffffffffffffffffffffffffffffffffffffff1647826001018360020154846003015485600501548660060160009054906101000a900460ff16848054610115906105c0565b80601f0160208091040260200160405190810160405280929190818152602001828054610141906105c0565b801561018e5780601f106101635761010080835404028352916020019161018e565b820191906000526020600020905b81548152906001019060200180831161017157829003601f168201915b5050505050945097509750975097509750975097505090919293949596565b60008060040160003373ffffffffffffffffffffffffffffffffffffffff1673ffffffffffffffffffffffffffffffffffffffff16815260200190815260200160002054905090565b600060060160009054906101000a900460ff161561021357600080fd5b60008060030154036102865780600060040160003373ffffffffffffffffffffffffffffffffffffffff1673ffffffffffffffffffffffffffffffffffffffff168152602001908152602001600020819055506000600501600081548092919061027c90610620565b91905055506102fb565b60006003015434101561029857600080fd5b80600060040160003373ffffffffffffffffffffffffffffffffffffffff1673ffffffffffffffffffffffffffffffffffffffff16815260200190815260200160002081905550600060050160008154809291906102f590610620565b91905055505b6000600201544710610391576000800160009054906101000a900473ffffffffffffffffffffffffffffffffffffffff1673ffffffffffffffffffffffffffffffffffffffff166108fc479081150290604051600060405180830381858888f19350505050158015610371573d6000803e3d6000fd5b506001600060060160006101000a81548160ff0219169083151502179055505b50565b600073ffffffffffffffffffffffffffffffffffffffff82169050919050565b60006103bf82610394565b9050919050565b6103cf816103b4565b82525050565b6000819050919050565b6103e8816103d5565b82525050565b600081519050919050565b600082825260208201905092915050565b60005b8381101561042857808201518184015260208101905061040d565b83811115610437576000848401525b50505050565b6000601f19601f8301169050919050565b6000610459826103ee565b61046381856103f9565b935061047381856020860161040a565b61047c8161043d565b840191505092915050565b60008115159050919050565b61049c81610487565b82525050565b600060e0820190506104b7600083018a6103c6565b6104c460208301896103df565b81810360408301526104d6818861044e565b90506104e560608301876103df565b6104f260808301866103df565b6104ff60a08301856103df565b61050c60c0830184610493565b98975050505050505050565b600060208201905061052d60008301846103df565b92915050565b600080fd5b610541816103d5565b811461054c57600080fd5b50565b60008135905061055e81610538565b92915050565b60006020828403121561057a57610579610533565b5b60006105888482850161054f565b91505092915050565b7f4e487b7100000000000000000000000000000000000000000000000000000000600052602260045260246000fd5b600060028204905060018216806105d857607f821691505b6020821081036105eb576105ea610591565b5b50919050565b7f4e487b7100000000000000000000000000000000000000000000000000000000600052601160045260246000fd5b600061062b826103d5565b91507fffffffffffffffffffffffffffffffffffffffffffffffffffffffffffffffff820361065d5761065c6105f1565b5b60018201905091905056fea2646970667358221220ccafbfb7a37996725ddf8c0d4fabef57c182436320de59f722ab935d2d4e4c7e64736f6c634300080d0033a26469706673582212200920e1933da24dec05c9210f27a1b218357ff707a0269b37c1418fccaf69603664736f6c634300080d0033","opcodes":"PUSH1 0x80 PUSH1 0x40 MSTORE CALLVALUE DUP1 ISZERO PUSH2 0x10 JUMPI PUSH1 0x0 DUP1 REVERT JUMPDEST POP PUSH2 0x1572 DUP1 PUSH2 0x20 PUSH1 0x0 CODECOPY PUSH1 0x0 RETURN INVALID PUSH1 0x80 PUSH1 0x40 MSTORE CALLVALUE DUP1 ISZERO PUSH3 0x11 JUMPI PUSH1 0x0 DUP1 REVERT JUMPDEST POP PUSH1 0x4 CALLDATASIZE LT PUSH3 0x3A JUMPI PUSH1 0x0 CALLDATALOAD PUSH1 0xE0 SHR DUP1 PUSH4 0x3020580B EQ PUSH3 0x3F JUMPI DUP1 PUSH4 0x4ACB9D4F EQ PUSH3 0x75 JUMPI JUMPDEST PUSH1 0x0 DUP1 REVERT JUMPDEST PUSH3 0x5D PUSH1 0x4 DUP1 CALLDATASIZE SUB DUP2 ADD SWAP1 PUSH3 0x57 SWAP2 SWAP1 PUSH3 0x56D JUMP JUMPDEST PUSH3 0x98 JUMP JUMPDEST PUSH1 0x40 MLOAD PUSH3 0x6C SWAP2 SWAP1 PUSH3 0x62D JUMP JUMPDEST PUSH1 0x40 MLOAD DUP1 SWAP2 SUB SWAP1 RETURN JUMPDEST PUSH3 0x7F PUSH3 0x188 JUMP JUMPDEST PUSH1 0x40 MLOAD PUSH3 0x8F SWAP3 SWAP2 SWAP1 PUSH3 0x87B JUMP JUMPDEST PUSH1 0x40 MLOAD DUP1 SWAP2 SUB SWAP1 RETURN JUMPDEST PUSH1 0x0 DUP1 CALLER DUP6 DUP6 DUP6 PUSH1 0x40 MLOAD PUSH3 0xAD SWAP1 PUSH3 0x2FE JUMP JUMPDEST PUSH3 0xBC SWAP5 SWAP4 SWAP3 SWAP2 SWAP1 PUSH3 0x919 JUMP JUMPDEST PUSH1 0x40 MLOAD DUP1 SWAP2 SUB SWAP1 PUSH1 0x0 CREATE DUP1 ISZERO DUP1 ISZERO PUSH3 0xD9 JUMPI RETURNDATASIZE PUSH1 0x0 DUP1 RETURNDATACOPY RETURNDATASIZE PUSH1 0x0 REVERT JUMPDEST POP SWAP1 POP PUSH1 0x0 DUP2 SWAP1 DUP1 PUSH1 0x1 DUP2 SLOAD ADD DUP1 DUP3 SSTORE DUP1 SWAP2 POP POP PUSH1 0x1 SWAP1 SUB SWAP1 PUSH1 0x0 MSTORE PUSH1 0x20 PUSH1 0x0 KECCAK256 ADD PUSH1 0x0 SWAP1 SWAP2 SWAP1 SWAP2 SWAP1 SWAP2 PUSH2 0x100 EXP DUP2 SLOAD DUP2 PUSH20 0xFFFFFFFFFFFFFFFFFFFFFFFFFFFFFFFFFFFFFFFF MUL NOT AND SWAP1 DUP4 PUSH20 0xFFFFFFFFFFFFFFFFFFFFFFFFFFFFFFFFFFFFFFFF AND MUL OR SWAP1 SSTORE POP PUSH1 0x1 DUP6 SWAP1 DUP1 PUSH1 0x1 DUP2 SLOAD ADD DUP1 DUP3 SSTORE DUP1 SWAP2 POP POP PUSH1 0x1 SWAP1 SUB SWAP1 PUSH1 0x0 MSTORE PUSH1 0x20 PUSH1 0x0 KECCAK256 ADD PUSH1 0x0 SWAP1 SWAP2 SWAP1 SWAP2 SWAP1 SWAP2 POP SWAP1 DUP1 MLOAD SWAP1 PUSH1 0x20 ADD SWAP1 PUSH3 0x17C SWAP3 SWAP2 SWAP1 PUSH3 0x30C JUMP JUMPDEST POP DUP1 SWAP2 POP POP SWAP4 SWAP3 POP POP POP JUMP JUMPDEST PUSH1 0x60 DUP1 PUSH1 0x0 PUSH1 0x1 DUP2 DUP1 SLOAD DUP1 PUSH1 0x20 MUL PUSH1 0x20 ADD PUSH1 0x40 MLOAD SWAP1 DUP2 ADD PUSH1 0x40 MSTORE DUP1 SWAP3 SWAP2 SWAP1 DUP2 DUP2 MSTORE PUSH1 0x20 ADD DUP3 DUP1 SLOAD DUP1 ISZERO PUSH3 0x212 JUMPI PUSH1 0x20 MUL DUP3 ADD SWAP2 SWAP1 PUSH1 0x0 MSTORE PUSH1 0x20 PUSH1 0x0 KECCAK256 SWAP1 JUMPDEST DUP2 PUSH1 0x0 SWAP1 SLOAD SWAP1 PUSH2 0x100 EXP SWAP1 DIV PUSH20 0xFFFFFFFFFFFFFFFFFFFFFFFFFFFFFFFFFFFFFFFF AND PUSH20 0xFFFFFFFFFFFFFFFFFFFFFFFFFFFFFFFFFFFFFFFF AND DUP2 MSTORE PUSH1 0x20 ADD SWAP1 PUSH1 0x1 ADD SWAP1 DUP1 DUP4 GT PUSH3 0x1C7 JUMPI JUMPDEST POP POP POP POP POP SWAP2 POP DUP1 DUP1 SLOAD DUP1 PUSH1 0x20 MUL PUSH1 0x20 ADD PUSH1 0x40 MLOAD SWAP1 DUP2 ADD PUSH1 0x40 MSTORE DUP1 SWAP3 SWAP2 SWAP1 DUP2 DUP2 MSTORE PUSH1 0x20 ADD PUSH1 0x0 SWAP1 JUMPDEST DUP3 DUP3 LT ISZERO PUSH3 0x2F0 JUMPI DUP4 DUP3 SWAP1 PUSH1 0x0 MSTORE PUSH1 0x20 PUSH1 0x0 KECCAK256 ADD DUP1 SLOAD PUSH3 0x25C SWAP1 PUSH3 0x99C JUMP JUMPDEST DUP1 PUSH1 0x1F ADD PUSH1 0x20 DUP1 SWAP2 DIV MUL PUSH1 0x20 ADD PUSH1 0x40 MLOAD SWAP1 DUP2 ADD PUSH1 0x40 MSTORE DUP1 SWAP3 SWAP2 SWAP1 DUP2 DUP2 MSTORE PUSH1 0x20 ADD DUP3 DUP1 SLOAD PUSH3 0x28A SWAP1 PUSH3 0x99C JUMP JUMPDEST DUP1 ISZERO PUSH3 0x2DB JUMPI DUP1 PUSH1 0x1F LT PUSH3 0x2AF JUMPI PUSH2 0x100 DUP1 DUP4 SLOAD DIV MUL DUP4 MSTORE SWAP2 PUSH1 0x20 ADD SWAP2 PUSH3 0x2DB JUMP JUMPDEST DUP3 ADD SWAP2 SWAP1 PUSH1 0x0 MSTORE PUSH1 0x20 PUSH1 0x0 KECCAK256 SWAP1 JUMPDEST DUP2 SLOAD DUP2 MSTORE SWAP1 PUSH1 0x1 ADD SWAP1 PUSH1 0x20 ADD DUP1 DUP4 GT PUSH3 0x2BD JUMPI DUP3 SWAP1 SUB PUSH1 0x1F AND DUP3 ADD SWAP2 JUMPDEST POP POP POP POP POP DUP2 MSTORE PUSH1 0x20 ADD SWAP1 PUSH1 0x1 ADD SWAP1 PUSH3 0x23A JUMP JUMPDEST POP POP POP POP SWAP1 POP SWAP2 POP SWAP2 POP SWAP1 SWAP2 JUMP JUMPDEST PUSH2 0xB6B DUP1 PUSH3 0x9D2 DUP4 CODECOPY ADD SWAP1 JUMP JUMPDEST DUP3 DUP1 SLOAD PUSH3 0x31A SWAP1 PUSH3 0x99C JUMP JUMPDEST SWAP1 PUSH1 0x0 MSTORE PUSH1 0x20 PUSH1 0x0 KECCAK256 SWAP1 PUSH1 0x1F ADD PUSH1 0x20 SWAP1 DIV DUP2 ADD SWAP3 DUP3 PUSH3 0x33E JUMPI PUSH1 0x0 DUP6 SSTORE PUSH3 0x38A JUMP JUMPDEST DUP3 PUSH1 0x1F LT PUSH3 0x359 JUMPI DUP1 MLOAD PUSH1 0xFF NOT AND DUP4 DUP1 ADD OR DUP6 SSTORE PUSH3 0x38A JUMP JUMPDEST DUP3 DUP1 ADD PUSH1 0x1 ADD DUP6 SSTORE DUP3 ISZERO PUSH3 0x38A JUMPI SWAP2 DUP3 ADD JUMPDEST DUP3 DUP2 GT ISZERO PUSH3 0x389 JUMPI DUP3 MLOAD DUP3 SSTORE SWAP2 PUSH1 0x20 ADD SWAP2 SWAP1 PUSH1 0x1 ADD SWAP1 PUSH3 0x36C JUMP JUMPDEST JUMPDEST POP SWAP1 POP PUSH3 0x399 SWAP2 SWAP1 PUSH3 0x39D JUMP JUMPDEST POP SWAP1 JUMP JUMPDEST JUMPDEST DUP1 DUP3 GT ISZERO PUSH3 0x3B8 JUMPI PUSH1 0x0 DUP2 PUSH1 0x0 SWAP1 SSTORE POP PUSH1 0x1 ADD PUSH3 0x39E JUMP JUMPDEST POP SWAP1 JUMP JUMPDEST PUSH1 0x0 PUSH1 0x40 MLOAD SWAP1 POP SWAP1 JUMP JUMPDEST PUSH1 0x0 DUP1 REVERT JUMPDEST PUSH1 0x0 DUP1 REVERT JUMPDEST PUSH1 0x0 DUP1 REVERT JUMPDEST PUSH1 0x0 DUP1 REVERT JUMPDEST PUSH1 0x0 PUSH1 0x1F NOT PUSH1 0x1F DUP4 ADD AND SWAP1 POP SWAP2 SWAP1 POP JUMP JUMPDEST PUSH32 0x4E487B7100000000000000000000000000000000000000000000000000000000 PUSH1 0x0 MSTORE PUSH1 0x41 PUSH1 0x4 MSTORE PUSH1 0x24 PUSH1 0x0 REVERT JUMPDEST PUSH3 0x425 DUP3 PUSH3 0x3DA JUMP JUMPDEST DUP2 ADD DUP2 DUP2 LT PUSH8 0xFFFFFFFFFFFFFFFF DUP3 GT OR ISZERO PUSH3 0x447 JUMPI PUSH3 0x446 PUSH3 0x3EB JUMP JUMPDEST JUMPDEST DUP1 PUSH1 0x40 MSTORE POP POP POP JUMP JUMPDEST PUSH1 0x0 PUSH3 0x45C PUSH3 0x3BC JUMP JUMPDEST SWAP1 POP PUSH3 0x46A DUP3 DUP3 PUSH3 0x41A JUMP JUMPDEST SWAP2 SWAP1 POP JUMP JUMPDEST PUSH1 0x0 PUSH8 0xFFFFFFFFFFFFFFFF DUP3 GT ISZERO PUSH3 0x48D JUMPI PUSH3 0x48C PUSH3 0x3EB JUMP JUMPDEST JUMPDEST PUSH3 0x498 DUP3 PUSH3 0x3DA JUMP JUMPDEST SWAP1 POP PUSH1 0x20 DUP2 ADD SWAP1 POP SWAP2 SWAP1 POP JUMP JUMPDEST DUP3 DUP2 DUP4 CALLDATACOPY PUSH1 0x0 DUP4 DUP4 ADD MSTORE POP POP POP JUMP JUMPDEST PUSH1 0x0 PUSH3 0x4CB PUSH3 0x4C5 DUP5 PUSH3 0x46F JUMP JUMPDEST PUSH3 0x450 JUMP JUMPDEST SWAP1 POP DUP3 DUP2 MSTORE PUSH1 0x20 DUP2 ADD DUP5 DUP5 DUP5 ADD GT ISZERO PUSH3 0x4EA JUMPI PUSH3 0x4E9 PUSH3 0x3D5 JUMP JUMPDEST JUMPDEST PUSH3 0x4F7 DUP5 DUP3 DUP6 PUSH3 0x4A5 JUMP JUMPDEST POP SWAP4 SWAP3 POP POP POP JUMP JUMPDEST PUSH1 0x0 DUP3 PUSH1 0x1F DUP4 ADD SLT PUSH3 0x517 JUMPI PUSH3 0x516 PUSH3 0x3D0 JUMP JUMPDEST JUMPDEST DUP2 CALLDATALOAD PUSH3 0x529 DUP5 DUP3 PUSH1 0x20 DUP7 ADD PUSH3 0x4B4 JUMP JUMPDEST SWAP2 POP POP SWAP3 SWAP2 POP POP JUMP JUMPDEST PUSH1 0x0 DUP2 SWAP1 POP SWAP2 SWAP1 POP JUMP JUMPDEST PUSH3 0x547 DUP2 PUSH3 0x532 JUMP JUMPDEST DUP2 EQ PUSH3 0x553 JUMPI PUSH1 0x0 DUP1 REVERT JUMPDEST POP JUMP JUMPDEST PUSH1 0x0 DUP2 CALLDATALOAD SWAP1 POP PUSH3 0x567 DUP2 PUSH3 0x53C JUMP JUMPDEST SWAP3 SWAP2 POP POP JUMP JUMPDEST PUSH1 0x0 DUP1 PUSH1 0x0 PUSH1 0x60 DUP5 DUP7 SUB SLT ISZERO PUSH3 0x589 JUMPI PUSH3 0x588 PUSH3 0x3C6 JUMP JUMPDEST JUMPDEST PUSH1 0x0 DUP5 ADD CALLDATALOAD PUSH8 0xFFFFFFFFFFFFFFFF DUP2 GT ISZERO PUSH3 0x5AA JUMPI PUSH3 0x5A9 PUSH3 0x3CB JUMP JUMPDEST JUMPDEST PUSH3 0x5B8 DUP7 DUP3 DUP8 ADD PUSH3 0x4FF JUMP JUMPDEST SWAP4 POP POP PUSH1 0x20 PUSH3 0x5CB DUP7 DUP3 DUP8 ADD PUSH3 0x556 JUMP JUMPDEST SWAP3 POP POP PUSH1 0x40 PUSH3 0x5DE DUP7 DUP3 DUP8 ADD PUSH3 0x556 JUMP JUMPDEST SWAP2 POP POP SWAP3 POP SWAP3 POP SWAP3 JUMP JUMPDEST PUSH1 0x0 PUSH20 0xFFFFFFFFFFFFFFFFFFFFFFFFFFFFFFFFFFFFFFFF DUP3 AND SWAP1 POP SWAP2 SWAP1 POP JUMP JUMPDEST PUSH1 0x0 PUSH3 0x615 DUP3 PUSH3 0x5E8 JUMP JUMPDEST SWAP1 POP SWAP2 SWAP1 POP JUMP JUMPDEST PUSH3 0x627 DUP2 PUSH3 0x608 JUMP JUMPDEST DUP3 MSTORE POP POP JUMP JUMPDEST PUSH1 0x0 PUSH1 0x20 DUP3 ADD SWAP1 POP PUSH3 0x644 PUSH1 0x0 DUP4 ADD DUP5 PUSH3 0x61C JUMP JUMPDEST SWAP3 SWAP2 POP POP JUMP JUMPDEST PUSH1 0x0 DUP2 MLOAD SWAP1 POP SWAP2 SWAP1 POP JUMP JUMPDEST PUSH1 0x0 DUP3 DUP3 MSTORE PUSH1 0x20 DUP3 ADD SWAP1 POP SWAP3 SWAP2 POP POP JUMP JUMPDEST PUSH1 0x0 DUP2 SWAP1 POP PUSH1 0x20 DUP3 ADD SWAP1 POP SWAP2 SWAP1 POP JUMP JUMPDEST PUSH3 0x681 DUP2 PUSH3 0x608 JUMP JUMPDEST DUP3 MSTORE POP POP JUMP JUMPDEST PUSH1 0x0 PUSH3 0x695 DUP4 DUP4 PUSH3 0x676 JUMP JUMPDEST PUSH1 0x20 DUP4 ADD SWAP1 POP SWAP3 SWAP2 POP POP JUMP JUMPDEST PUSH1 0x0 PUSH1 0x20 DUP3 ADD SWAP1 POP SWAP2 SWAP1 POP JUMP JUMPDEST PUSH1 0x0 PUSH3 0x6BB DUP3 PUSH3 0x64A JUMP JUMPDEST PUSH3 0x6C7 DUP2 DUP6 PUSH3 0x655 JUMP JUMPDEST SWAP4 POP PUSH3 0x6D4 DUP4 PUSH3 0x666 JUMP JUMPDEST DUP1 PUSH1 0x0 JUMPDEST DUP4 DUP2 LT ISZERO PUSH3 0x70B JUMPI DUP2 MLOAD PUSH3 0x6EF DUP9 DUP3 PUSH3 0x687 JUMP JUMPDEST SWAP8 POP PUSH3 0x6FC DUP4 PUSH3 0x6A1 JUMP JUMPDEST SWAP3 POP POP PUSH1 0x1 DUP2 ADD SWAP1 POP PUSH3 0x6D8 JUMP JUMPDEST POP DUP6 SWAP4 POP POP POP POP SWAP3 SWAP2 POP POP JUMP JUMPDEST PUSH1 0x0 DUP2 MLOAD SWAP1 POP SWAP2 SWAP1 POP JUMP JUMPDEST PUSH1 0x0 DUP3 DUP3 MSTORE PUSH1 0x20 DUP3 ADD SWAP1 POP SWAP3 SWAP2 POP POP JUMP JUMPDEST PUSH1 0x0 DUP2 SWAP1 POP PUSH1 0x20 DUP3 ADD SWAP1 POP SWAP2 SWAP1 POP JUMP JUMPDEST PUSH1 0x0 DUP2 MLOAD SWAP1 POP SWAP2 SWAP1 POP JUMP JUMPDEST PUSH1 0x0 DUP3 DUP3 MSTORE PUSH1 0x20 DUP3 ADD SWAP1 POP SWAP3 SWAP2 POP POP JUMP JUMPDEST PUSH1 0x0 JUMPDEST DUP4 DUP2 LT ISZERO PUSH3 0x780 JUMPI DUP1 DUP3 ADD MLOAD DUP2 DUP5 ADD MSTORE PUSH1 0x20 DUP2 ADD SWAP1 POP PUSH3 0x763 JUMP JUMPDEST DUP4 DUP2 GT ISZERO PUSH3 0x790 JUMPI PUSH1 0x0 DUP5 DUP5 ADD MSTORE JUMPDEST POP POP POP POP JUMP JUMPDEST PUSH1 0x0 PUSH3 0x7A3 DUP3 PUSH3 0x744 JUMP JUMPDEST PUSH3 0x7AF DUP2 DUP6 PUSH3 0x74F JUMP JUMPDEST SWAP4 POP PUSH3 0x7C1 DUP2 DUP6 PUSH1 0x20 DUP7 ADD PUSH3 0x760 JUMP JUMPDEST PUSH3 0x7CC DUP2 PUSH3 0x3DA JUMP JUMPDEST DUP5 ADD SWAP2 POP POP SWAP3 SWAP2 POP POP JUMP JUMPDEST PUSH1 0x0 PUSH3 0x7E5 DUP4 DUP4 PUSH3 0x796 JUMP JUMPDEST SWAP1 POP SWAP3 SWAP2 POP POP JUMP JUMPDEST PUSH1 0x0 PUSH1 0x20 DUP3 ADD SWAP1 POP SWAP2 SWAP1 POP JUMP JUMPDEST PUSH1 0x0 PUSH3 0x807 DUP3 PUSH3 0x718 JUMP JUMPDEST PUSH3 0x813 DUP2 DUP6 PUSH3 0x723 JUMP JUMPDEST SWAP4 POP DUP4 PUSH1 0x20 DUP3 MUL DUP6 ADD PUSH3 0x827 DUP6 PUSH3 0x734 JUMP JUMPDEST DUP1 PUSH1 0x0 JUMPDEST DUP6 DUP2 LT ISZERO PUSH3 0x869 JUMPI DUP5 DUP5 SUB DUP10 MSTORE DUP2 MLOAD PUSH3 0x847 DUP6 DUP3 PUSH3 0x7D7 JUMP JUMPDEST SWAP5 POP PUSH3 0x854 DUP4 PUSH3 0x7ED JUMP JUMPDEST SWAP3 POP PUSH1 0x20 DUP11 ADD SWAP10 POP POP PUSH1 0x1 DUP2 ADD SWAP1 POP PUSH3 0x82B JUMP JUMPDEST POP DUP3 SWAP8 POP DUP8 SWAP6 POP POP POP POP POP POP SWAP3 SWAP2 POP POP JUMP JUMPDEST PUSH1 0x0 PUSH1 0x40 DUP3 ADD SWAP1 POP DUP2 DUP2 SUB PUSH1 0x0 DUP4 ADD MSTORE PUSH3 0x897 DUP2 DUP6 PUSH3 0x6AE JUMP JUMPDEST SWAP1 POP DUP2 DUP2 SUB PUSH1 0x20 DUP4 ADD MSTORE PUSH3 0x8AD DUP2 DUP5 PUSH3 0x7FA JUMP JUMPDEST SWAP1 POP SWAP4 SWAP3 POP POP POP JUMP JUMPDEST PUSH1 0x0 DUP3 DUP3 MSTORE PUSH1 0x20 DUP3 ADD SWAP1 POP SWAP3 SWAP2 POP POP JUMP JUMPDEST PUSH1 0x0 PUSH3 0x8D4 DUP3 PUSH3 0x744 JUMP JUMPDEST PUSH3 0x8E0 DUP2 DUP6 PUSH3 0x8B6 JUMP JUMPDEST SWAP4 POP PUSH3 0x8F2 DUP2 DUP6 PUSH1 0x20 DUP7 ADD PUSH3 0x760 JUMP JUMPDEST PUSH3 0x8FD DUP2 PUSH3 0x3DA JUMP JUMPDEST DUP5 ADD SWAP2 POP POP SWAP3 SWAP2 POP POP JUMP JUMPDEST PUSH3 0x913 DUP2 PUSH3 0x532 JUMP JUMPDEST DUP3 MSTORE POP POP JUMP JUMPDEST PUSH1 0x0 PUSH1 0x80 DUP3 ADD SWAP1 POP PUSH3 0x930 PUSH1 0x0 DUP4 ADD DUP8 PUSH3 0x61C JUMP JUMPDEST DUP2 DUP2 SUB PUSH1 0x20 DUP4 ADD MSTORE PUSH3 0x944 DUP2 DUP7 PUSH3 0x8C7 JUMP JUMPDEST SWAP1 POP PUSH3 0x955 PUSH1 0x40 DUP4 ADD DUP6 PUSH3 0x908 JUMP JUMPDEST PUSH3 0x964 PUSH1 0x60 DUP4 ADD DUP5 PUSH3 0x908 JUMP JUMPDEST SWAP6 SWAP5 POP POP POP POP POP JUMP JUMPDEST PUSH32 0x4E487B7100000000000000000000000000000000000000000000000000000000 PUSH1 0x0 MSTORE PUSH1 0x22 PUSH1 0x4 MSTORE PUSH1 0x24 PUSH1 0x0 REVERT JUMPDEST PUSH1 0x0 PUSH1 0x2 DUP3 DIV SWAP1 POP PUSH1 0x1 DUP3 AND DUP1 PUSH3 0x9B5 JUMPI PUSH1 0x7F DUP3 AND SWAP2 POP JUMPDEST PUSH1 0x20 DUP3 LT DUP2 SUB PUSH3 0x9CB JUMPI PUSH3 0x9CA PUSH3 0x96D JUMP JUMPDEST JUMPDEST POP SWAP2 SWAP1 POP JUMP INVALID PUSH1 0x80 PUSH1 0x40 MSTORE CALLVALUE DUP1 ISZERO PUSH3 0x11 JUMPI PUSH1 0x0 DUP1 REVERT JUMPDEST POP PUSH1 0x40 MLOAD PUSH3 0xB6B CODESIZE SUB DUP1 PUSH3 0xB6B DUP4 CODECOPY DUP2 DUP2 ADD PUSH1 0x40 MSTORE DUP2 ADD SWAP1 PUSH3 0x37 SWAP2 SWAP1 PUSH3 0x3C8 JUMP JUMPDEST DUP4 PUSH1 0x0 DUP1 ADD PUSH1 0x0 PUSH2 0x100 EXP DUP2 SLOAD DUP2 PUSH20 0xFFFFFFFFFFFFFFFFFFFFFFFFFFFFFFFFFFFFFFFF MUL NOT AND SWAP1 DUP4 PUSH20 0xFFFFFFFFFFFFFFFFFFFFFFFFFFFFFFFFFFFFFFFF AND MUL OR SWAP1 SSTORE POP DUP3 PUSH1 0x0 PUSH1 0x1 ADD SWAP1 DUP1 MLOAD SWAP1 PUSH1 0x20 ADD SWAP1 PUSH3 0x95 SWAP3 SWAP2 SWAP1 PUSH3 0xDB JUMP JUMPDEST POP DUP2 PUSH1 0x0 PUSH1 0x2 ADD DUP2 SWAP1 SSTORE POP DUP1 PUSH1 0x0 PUSH1 0x3 ADD DUP2 SWAP1 SSTORE POP PUSH1 0x0 DUP1 PUSH1 0x5 ADD DUP2 SWAP1 SSTORE POP PUSH1 0x0 DUP1 PUSH1 0x6 ADD PUSH1 0x0 PUSH2 0x100 EXP DUP2 SLOAD DUP2 PUSH1 0xFF MUL NOT AND SWAP1 DUP4 ISZERO ISZERO MUL OR SWAP1 SSTORE POP POP POP POP POP PUSH3 0x4BD JUMP JUMPDEST DUP3 DUP1 SLOAD PUSH3 0xE9 SWAP1 PUSH3 0x488 JUMP JUMPDEST SWAP1 PUSH1 0x0 MSTORE PUSH1 0x20 PUSH1 0x0 KECCAK256 SWAP1 PUSH1 0x1F ADD PUSH1 0x20 SWAP1 DIV DUP2 ADD SWAP3 DUP3 PUSH3 0x10D JUMPI PUSH1 0x0 DUP6 SSTORE PUSH3 0x159 JUMP JUMPDEST DUP3 PUSH1 0x1F LT PUSH3 0x128 JUMPI DUP1 MLOAD PUSH1 0xFF NOT AND DUP4 DUP1 ADD OR DUP6 SSTORE PUSH3 0x159 JUMP JUMPDEST DUP3 DUP1 ADD PUSH1 0x1 ADD DUP6 SSTORE DUP3 ISZERO PUSH3 0x159 JUMPI SWAP2 DUP3 ADD JUMPDEST DUP3 DUP2 GT ISZERO PUSH3 0x158 JUMPI DUP3 MLOAD DUP3 SSTORE SWAP2 PUSH1 0x20 ADD SWAP2 SWAP1 PUSH1 0x1 ADD SWAP1 PUSH3 0x13B JUMP JUMPDEST JUMPDEST POP SWAP1 POP PUSH3 0x168 SWAP2 SWAP1 PUSH3 0x16C JUMP JUMPDEST POP SWAP1 JUMP JUMPDEST JUMPDEST DUP1 DUP3 GT ISZERO PUSH3 0x187 JUMPI PUSH1 0x0 DUP2 PUSH1 0x0 SWAP1 SSTORE POP PUSH1 0x1 ADD PUSH3 0x16D JUMP JUMPDEST POP SWAP1 JUMP JUMPDEST PUSH1 0x0 PUSH1 0x40 MLOAD SWAP1 POP SWAP1 JUMP JUMPDEST PUSH1 0x0 DUP1 REVERT JUMPDEST PUSH1 0x0 DUP1 REVERT JUMPDEST PUSH1 0x0 PUSH20 0xFFFFFFFFFFFFFFFFFFFFFFFFFFFFFFFFFFFFFFFF DUP3 AND SWAP1 POP SWAP2 SWAP1 POP JUMP JUMPDEST PUSH1 0x0 PUSH3 0x1CC DUP3 PUSH3 0x19F JUMP JUMPDEST SWAP1 POP SWAP2 SWAP1 POP JUMP JUMPDEST PUSH3 0x1DE DUP2 PUSH3 0x1BF JUMP JUMPDEST DUP2 EQ PUSH3 0x1EA JUMPI PUSH1 0x0 DUP1 REVERT JUMPDEST POP JUMP JUMPDEST PUSH1 0x0 DUP2 MLOAD SWAP1 POP PUSH3 0x1FE DUP2 PUSH3 0x1D3 JUMP JUMPDEST SWAP3 SWAP2 POP POP JUMP JUMPDEST PUSH1 0x0 DUP1 REVERT JUMPDEST PUSH1 0x0 DUP1 REVERT JUMPDEST PUSH1 0x0 PUSH1 0x1F NOT PUSH1 0x1F DUP4 ADD AND SWAP1 POP SWAP2 SWAP1 POP JUMP JUMPDEST PUSH32 0x4E487B7100000000000000000000000000000000000000000000000000000000 PUSH1 0x0 MSTORE PUSH1 0x41 PUSH1 0x4 MSTORE PUSH1 0x24 PUSH1 0x0 REVERT JUMPDEST PUSH3 0x259 DUP3 PUSH3 0x20E JUMP JUMPDEST DUP2 ADD DUP2 DUP2 LT PUSH8 0xFFFFFFFFFFFFFFFF DUP3 GT OR ISZERO PUSH3 0x27B JUMPI PUSH3 0x27A PUSH3 0x21F JUMP JUMPDEST JUMPDEST DUP1 PUSH1 0x40 MSTORE POP POP POP JUMP JUMPDEST PUSH1 0x0 PUSH3 0x290 PUSH3 0x18B JUMP JUMPDEST SWAP1 POP PUSH3 0x29E DUP3 DUP3 PUSH3 0x24E JUMP JUMPDEST SWAP2 SWAP1 POP JUMP JUMPDEST PUSH1 0x0 PUSH8 0xFFFFFFFFFFFFFFFF DUP3 GT ISZERO PUSH3 0x2C1 JUMPI PUSH3 0x2C0 PUSH3 0x21F JUMP JUMPDEST JUMPDEST PUSH3 0x2CC DUP3 PUSH3 0x20E JUMP JUMPDEST SWAP1 POP PUSH1 0x20 DUP2 ADD SWAP1 POP SWAP2 SWAP1 POP JUMP JUMPDEST PUSH1 0x0 JUMPDEST DUP4 DUP2 LT ISZERO PUSH3 0x2F9 JUMPI DUP1 DUP3 ADD MLOAD DUP2 DUP5 ADD MSTORE PUSH1 0x20 DUP2 ADD SWAP1 POP PUSH3 0x2DC JUMP JUMPDEST DUP4 DUP2 GT ISZERO PUSH3 0x309 JUMPI PUSH1 0x0 DUP5 DUP5 ADD MSTORE JUMPDEST POP POP POP POP JUMP JUMPDEST PUSH1 0x0 PUSH3 0x326 PUSH3 0x320 DUP5 PUSH3 0x2A3 JUMP JUMPDEST PUSH3 0x284 JUMP JUMPDEST SWAP1 POP DUP3 DUP2 MSTORE PUSH1 0x20 DUP2 ADD DUP5 DUP5 DUP5 ADD GT ISZERO PUSH3 0x345 JUMPI PUSH3 0x344 PUSH3 0x209 JUMP JUMPDEST JUMPDEST PUSH3 0x352 DUP5 DUP3 DUP6 PUSH3 0x2D9 JUMP JUMPDEST POP SWAP4 SWAP3 POP POP POP JUMP JUMPDEST PUSH1 0x0 DUP3 PUSH1 0x1F DUP4 ADD SLT PUSH3 0x372 JUMPI PUSH3 0x371 PUSH3 0x204 JUMP JUMPDEST JUMPDEST DUP2 MLOAD PUSH3 0x384 DUP5 DUP3 PUSH1 0x20 DUP7 ADD PUSH3 0x30F JUMP JUMPDEST SWAP2 POP POP SWAP3 SWAP2 POP POP JUMP JUMPDEST PUSH1 0x0 DUP2 SWAP1 POP SWAP2 SWAP1 POP JUMP JUMPDEST PUSH3 0x3A2 DUP2 PUSH3 0x38D JUMP JUMPDEST DUP2 EQ PUSH3 0x3AE JUMPI PUSH1 0x0 DUP1 REVERT JUMPDEST POP JUMP JUMPDEST PUSH1 0x0 DUP2 MLOAD SWAP1 POP PUSH3 0x3C2 DUP2 PUSH3 0x397 JUMP JUMPDEST SWAP3 SWAP2 POP POP JUMP JUMPDEST PUSH1 0x0 DUP1 PUSH1 0x0 DUP1 PUSH1 0x80 DUP6 DUP8 SUB SLT ISZERO PUSH3 0x3E5 JUMPI PUSH3 0x3E4 PUSH3 0x195 JUMP JUMPDEST JUMPDEST PUSH1 0x0 PUSH3 0x3F5 DUP8 DUP3 DUP9 ADD PUSH3 0x1ED JUMP JUMPDEST SWAP5 POP POP PUSH1 0x20 DUP6 ADD MLOAD PUSH8 0xFFFFFFFFFFFFFFFF DUP2 GT ISZERO PUSH3 0x419 JUMPI PUSH3 0x418 PUSH3 0x19A JUMP JUMPDEST JUMPDEST PUSH3 0x427 DUP8 DUP3 DUP9 ADD PUSH3 0x35A JUMP JUMPDEST SWAP4 POP POP PUSH1 0x40 PUSH3 0x43A DUP8 DUP3 DUP9 ADD PUSH3 0x3B1 JUMP JUMPDEST SWAP3 POP POP PUSH1 0x60 PUSH3 0x44D DUP8 DUP3 DUP9 ADD PUSH3 0x3B1 JUMP JUMPDEST SWAP2 POP POP SWAP3 SWAP6 SWAP2 SWAP5 POP SWAP3 POP JUMP JUMPDEST PUSH32 0x4E487B7100000000000000000000000000000000000000000000000000000000 PUSH1 0x0 MSTORE PUSH1 0x22 PUSH1 0x4 MSTORE PUSH1 0x24 PUSH1 0x0 REVERT JUMPDEST PUSH1 0x0 PUSH1 0x2 DUP3 DIV SWAP1 POP PUSH1 0x1 DUP3 AND DUP1 PUSH3 0x4A1 JUMPI PUSH1 0x7F DUP3 AND SWAP2 POP JUMPDEST PUSH1 0x20 DUP3 LT DUP2 SUB PUSH3 0x4B7 JUMPI PUSH3 0x4B6 PUSH3 0x459 JUMP JUMPDEST JUMPDEST POP SWAP2 SWAP1 POP JUMP JUMPDEST PUSH2 0x69E DUP1 PUSH3 0x4CD PUSH1 0x0 CODECOPY PUSH1 0x0 RETURN INVALID PUSH1 0x80 PUSH1 0x40 MSTORE PUSH1 0x4 CALLDATASIZE LT PUSH2 0x34 JUMPI PUSH1 0x0 CALLDATALOAD PUSH1 0xE0 SHR DUP1 PUSH4 0x236B8E3A EQ PUSH2 0x39 JUMPI DUP1 PUSH4 0x39CBCC64 EQ PUSH2 0x6A JUMPI DUP1 PUSH4 0xC1CBBCA7 EQ PUSH2 0x95 JUMPI JUMPDEST PUSH1 0x0 DUP1 REVERT JUMPDEST CALLVALUE DUP1 ISZERO PUSH2 0x45 JUMPI PUSH1 0x0 DUP1 REVERT JUMPDEST POP PUSH2 0x4E PUSH2 0xB1 JUMP JUMPDEST PUSH1 0x40 MLOAD PUSH2 0x61 SWAP8 SWAP7 SWAP6 SWAP5 SWAP4 SWAP3 SWAP2 SWAP1 PUSH2 0x4A2 JUMP JUMPDEST PUSH1 0x40 MLOAD DUP1 SWAP2 SUB SWAP1 RETURN JUMPDEST CALLVALUE DUP1 ISZERO PUSH2 0x76 JUMPI PUSH1 0x0 DUP1 REVERT JUMPDEST POP PUSH2 0x7F PUSH2 0x1AD JUMP JUMPDEST PUSH1 0x40 MLOAD PUSH2 0x8C SWAP2 SWAP1 PUSH2 0x518 JUMP JUMPDEST PUSH1 0x40 MLOAD DUP1 SWAP2 SUB SWAP1 RETURN JUMPDEST PUSH2 0xAF PUSH1 0x4 DUP1 CALLDATASIZE SUB DUP2 ADD SWAP1 PUSH2 0xAA SWAP2 SWAP1 PUSH2 0x564 JUMP JUMPDEST PUSH2 0x1F6 JUMP JUMPDEST STOP JUMPDEST PUSH1 0x0 DUP1 PUSH1 0x60 PUSH1 0x0 DUP1 PUSH1 0x0 DUP1 PUSH1 0x0 DUP1 PUSH1 0x0 ADD PUSH1 0x0 SWAP1 SLOAD SWAP1 PUSH2 0x100 EXP SWAP1 DIV PUSH20 0xFFFFFFFFFFFFFFFFFFFFFFFFFFFFFFFFFFFFFFFF AND SELFBALANCE DUP3 PUSH1 0x1 ADD DUP4 PUSH1 0x2 ADD SLOAD DUP5 PUSH1 0x3 ADD SLOAD DUP6 PUSH1 0x5 ADD SLOAD DUP7 PUSH1 0x6 ADD PUSH1 0x0 SWAP1 SLOAD SWAP1 PUSH2 0x100 EXP SWAP1 DIV PUSH1 0xFF AND DUP5 DUP1 SLOAD PUSH2 0x115 SWAP1 PUSH2 0x5C0 JUMP JUMPDEST DUP1 PUSH1 0x1F ADD PUSH1 0x20 DUP1 SWAP2 DIV MUL PUSH1 0x20 ADD PUSH1 0x40 MLOAD SWAP1 DUP2 ADD PUSH1 0x40 MSTORE DUP1 SWAP3 SWAP2 SWAP1 DUP2 DUP2 MSTORE PUSH1 0x20 ADD DUP3 DUP1 SLOAD PUSH2 0x141 SWAP1 PUSH2 0x5C0 JUMP JUMPDEST DUP1 ISZERO PUSH2 0x18E JUMPI DUP1 PUSH1 0x1F LT PUSH2 0x163 JUMPI PUSH2 0x100 DUP1 DUP4 SLOAD DIV MUL DUP4 MSTORE SWAP2 PUSH1 0x20 ADD SWAP2 PUSH2 0x18E JUMP JUMPDEST DUP3 ADD SWAP2 SWAP1 PUSH1 0x0 MSTORE PUSH1 0x20 PUSH1 0x0 KECCAK256 SWAP1 JUMPDEST DUP2 SLOAD DUP2 MSTORE SWAP1 PUSH1 0x1 ADD SWAP1 PUSH1 0x20 ADD DUP1 DUP4 GT PUSH2 0x171 JUMPI DUP3 SWAP1 SUB PUSH1 0x1F AND DUP3 ADD SWAP2 JUMPDEST POP POP POP POP POP SWAP5 POP SWAP8 POP SWAP8 POP SWAP8 POP SWAP8 POP SWAP8 POP SWAP8 POP SWAP8 POP POP SWAP1 SWAP2 SWAP3 SWAP4 SWAP5 SWAP6 SWAP7 JUMP JUMPDEST PUSH1 0x0 DUP1 PUSH1 0x4 ADD PUSH1 0x0 CALLER PUSH20 0xFFFFFFFFFFFFFFFFFFFFFFFFFFFFFFFFFFFFFFFF AND PUSH20 0xFFFFFFFFFFFFFFFFFFFFFFFFFFFFFFFFFFFFFFFF AND DUP2 MSTORE PUSH1 0x20 ADD SWAP1 DUP2 MSTORE PUSH1 0x20 ADD PUSH1 0x0 KECCAK256 SLOAD SWAP1 POP SWAP1 JUMP JUMPDEST PUSH1 0x0 PUSH1 0x6 ADD PUSH1 0x0 SWAP1 SLOAD SWAP1 PUSH2 0x100 EXP SWAP1 DIV PUSH1 0xFF AND ISZERO PUSH2 0x213 JUMPI PUSH1 0x0 DUP1 REVERT JUMPDEST PUSH1 0x0 DUP1 PUSH1 0x3 ADD SLOAD SUB PUSH2 0x286 JUMPI DUP1 PUSH1 0x0 PUSH1 0x4 ADD PUSH1 0x0 CALLER PUSH20 0xFFFFFFFFFFFFFFFFFFFFFFFFFFFFFFFFFFFFFFFF AND PUSH20 0xFFFFFFFFFFFFFFFFFFFFFFFFFFFFFFFFFFFFFFFF AND DUP2 MSTORE PUSH1 0x20 ADD SWAP1 DUP2 MSTORE PUSH1 0x20 ADD PUSH1 0x0 KECCAK256 DUP2 SWAP1 SSTORE POP PUSH1 0x0 PUSH1 0x5 ADD PUSH1 0x0 DUP2 SLOAD DUP1 SWAP3 SWAP2 SWAP1 PUSH2 0x27C SWAP1 PUSH2 0x620 JUMP JUMPDEST SWAP2 SWAP1 POP SSTORE POP PUSH2 0x2FB JUMP JUMPDEST PUSH1 0x0 PUSH1 0x3 ADD SLOAD CALLVALUE LT ISZERO PUSH2 0x298 JUMPI PUSH1 0x0 DUP1 REVERT JUMPDEST DUP1 PUSH1 0x0 PUSH1 0x4 ADD PUSH1 0x0 CALLER PUSH20 0xFFFFFFFFFFFFFFFFFFFFFFFFFFFFFFFFFFFFFFFF AND PUSH20 0xFFFFFFFFFFFFFFFFFFFFFFFFFFFFFFFFFFFFFFFF AND DUP2 MSTORE PUSH1 0x20 ADD SWAP1 DUP2 MSTORE PUSH1 0x20 ADD PUSH1 0x0 KECCAK256 DUP2 SWAP1 SSTORE POP PUSH1 0x0 PUSH1 0x5 ADD PUSH1 0x0 DUP2 SLOAD DUP1 SWAP3 SWAP2 SWAP1 PUSH2 0x2F5 SWAP1 PUSH2 0x620 JUMP JUMPDEST SWAP2 SWAP1 POP SSTORE POP JUMPDEST PUSH1 0x0 PUSH1 0x2 ADD SLOAD SELFBALANCE LT PUSH2 0x391 JUMPI PUSH1 0x0 DUP1 ADD PUSH1 0x0 SWAP1 SLOAD SWAP1 PUSH2 0x100 EXP SWAP1 DIV PUSH20 0xFFFFFFFFFFFFFFFFFFFFFFFFFFFFFFFFFFFFFFFF AND PUSH20 0xFFFFFFFFFFFFFFFFFFFFFFFFFFFFFFFFFFFFFFFF AND PUSH2 0x8FC SELFBALANCE SWAP1 DUP2 ISZERO MUL SWAP1 PUSH1 0x40 MLOAD PUSH1 0x0 PUSH1 0x40 MLOAD DUP1 DUP4 SUB DUP2 DUP6 DUP9 DUP9 CALL SWAP4 POP POP POP POP ISZERO DUP1 ISZERO PUSH2 0x371 JUMPI RETURNDATASIZE PUSH1 0x0 DUP1 RETURNDATACOPY RETURNDATASIZE PUSH1 0x0 REVERT JUMPDEST POP PUSH1 0x1 PUSH1 0x0 PUSH1 0x6 ADD PUSH1 0x0 PUSH2 0x100 EXP DUP2 SLOAD DUP2 PUSH1 0xFF MUL NOT AND SWAP1 DUP4 ISZERO ISZERO MUL OR SWAP1 SSTORE POP JUMPDEST POP JUMP JUMPDEST PUSH1 0x0 PUSH20 0xFFFFFFFFFFFFFFFFFFFFFFFFFFFFFFFFFFFFFFFF DUP3 AND SWAP1 POP SWAP2 SWAP1 POP JUMP JUMPDEST PUSH1 0x0 PUSH2 0x3BF DUP3 PUSH2 0x394 JUMP JUMPDEST SWAP1 POP SWAP2 SWAP1 POP JUMP JUMPDEST PUSH2 0x3CF DUP2 PUSH2 0x3B4 JUMP JUMPDEST DUP3 MSTORE POP POP JUMP JUMPDEST PUSH1 0x0 DUP2 SWAP1 POP SWAP2 SWAP1 POP JUMP JUMPDEST PUSH2 0x3E8 DUP2 PUSH2 0x3D5 JUMP JUMPDEST DUP3 MSTORE POP POP JUMP JUMPDEST PUSH1 0x0 DUP2 MLOAD SWAP1 POP SWAP2 SWAP1 POP JUMP JUMPDEST PUSH1 0x0 DUP3 DUP3 MSTORE PUSH1 0x20 DUP3 ADD SWAP1 POP SWAP3 SWAP2 POP POP JUMP JUMPDEST PUSH1 0x0 JUMPDEST DUP4 DUP2 LT ISZERO PUSH2 0x428 JUMPI DUP1 DUP3 ADD MLOAD DUP2 DUP5 ADD MSTORE PUSH1 0x20 DUP2 ADD SWAP1 POP PUSH2 0x40D JUMP JUMPDEST DUP4 DUP2 GT ISZERO PUSH2 0x437 JUMPI PUSH1 0x0 DUP5 DUP5 ADD MSTORE JUMPDEST POP POP POP POP JUMP JUMPDEST PUSH1 0x0 PUSH1 0x1F NOT PUSH1 0x1F DUP4 ADD AND SWAP1 POP SWAP2 SWAP1 POP JUMP JUMPDEST PUSH1 0x0 PUSH2 0x459 DUP3 PUSH2 0x3EE JUMP JUMPDEST PUSH2 0x463 DUP2 DUP6 PUSH2 0x3F9 JUMP JUMPDEST SWAP4 POP PUSH2 0x473 DUP2 DUP6 PUSH1 0x20 DUP7 ADD PUSH2 0x40A JUMP JUMPDEST PUSH2 0x47C DUP2 PUSH2 0x43D JUMP JUMPDEST DUP5 ADD SWAP2 POP POP SWAP3 SWAP2 POP POP JUMP JUMPDEST PUSH1 0x0 DUP2 ISZERO ISZERO SWAP1 POP SWAP2 SWAP1 POP JUMP JUMPDEST PUSH2 0x49C DUP2 PUSH2 0x487 JUMP JUMPDEST DUP3 MSTORE POP POP JUMP JUMPDEST PUSH1 0x0 PUSH1 0xE0 DUP3 ADD SWAP1 POP PUSH2 0x4B7 PUSH1 0x0 DUP4 ADD DUP11 PUSH2 0x3C6 JUMP JUMPDEST PUSH2 0x4C4 PUSH1 0x20 DUP4 ADD DUP10 PUSH2 0x3DF JUMP JUMPDEST DUP2 DUP2 SUB PUSH1 0x40 DUP4 ADD MSTORE PUSH2 0x4D6 DUP2 DUP9 PUSH2 0x44E JUMP JUMPDEST SWAP1 POP PUSH2 0x4E5 PUSH1 0x60 DUP4 ADD DUP8 PUSH2 0x3DF JUMP JUMPDEST PUSH2 0x4F2 PUSH1 0x80 DUP4 ADD DUP7 PUSH2 0x3DF JUMP JUMPDEST PUSH2 0x4FF PUSH1 0xA0 DUP4 ADD DUP6 PUSH2 0x3DF JUMP JUMPDEST PUSH2 0x50C PUSH1 0xC0 DUP4 ADD DUP5 PUSH2 0x493 JUMP JUMPDEST SWAP9 SWAP8 POP POP POP POP POP POP POP POP JUMP JUMPDEST PUSH1 0x0 PUSH1 0x20 DUP3 ADD SWAP1 POP PUSH2 0x52D PUSH1 0x0 DUP4 ADD DUP5 PUSH2 0x3DF JUMP JUMPDEST SWAP3 SWAP2 POP POP JUMP JUMPDEST PUSH1 0x0 DUP1 REVERT JUMPDEST PUSH2 0x541 DUP2 PUSH2 0x3D5 JUMP JUMPDEST DUP2 EQ PUSH2 0x54C JUMPI PUSH1 0x0 DUP1 REVERT JUMPDEST POP JUMP JUMPDEST PUSH1 0x0 DUP2 CALLDATALOAD SWAP1 POP PUSH2 0x55E DUP2 PUSH2 0x538 JUMP JUMPDEST SWAP3 SWAP2 POP POP JUMP JUMPDEST PUSH1 0x0 PUSH1 0x20 DUP3 DUP5 SUB SLT ISZERO PUSH2 0x57A JUMPI PUSH2 0x579 PUSH2 0x533 JUMP JUMPDEST JUMPDEST PUSH1 0x0 PUSH2 0x588 DUP5 DUP3 DUP6 ADD PUSH2 0x54F JUMP JUMPDEST SWAP2 POP POP SWAP3 SWAP2 POP POP JUMP JUMPDEST PUSH32 0x4E487B7100000000000000000000000000000000000000000000000000000000 PUSH1 0x0 MSTORE PUSH1 0x22 PUSH1 0x4 MSTORE PUSH1 0x24 PUSH1 0x0 REVERT JUMPDEST PUSH1 0x0 PUSH1 0x2 DUP3 DIV SWAP1 POP PUSH1 0x1 DUP3 AND DUP1 PUSH2 0x5D8 JUMPI PUSH1 0x7F DUP3 AND SWAP2 POP JUMPDEST PUSH1 0x20 DUP3 LT DUP2 SUB PUSH2 0x5EB JUMPI PUSH2 0x5EA PUSH2 0x591 JUMP JUMPDEST JUMPDEST POP SWAP2 SWAP1 POP JUMP JUMPDEST PUSH32 0x4E487B7100000000000000000000000000000000000000000000000000000000 PUSH1 0x0 MSTORE PUSH1 0x11 PUSH1 0x4 MSTORE PUSH1 0x24 PUSH1 0x0 REVERT JUMPDEST PUSH1 0x0 PUSH2 0x62B DUP3 PUSH2 0x3D5 JUMP JUMPDEST SWAP2 POP PUSH32 0xFFFFFFFFFFFFFFFFFFFFFFFFFFFFFFFFFFFFFFFFFFFFFFFFFFFFFFFFFFFFFFFF DUP3 SUB PUSH2 0x65D JUMPI PUSH2 0x65C PUSH2 0x5F1 JUMP JUMPDEST JUMPDEST PUSH1 0x1 DUP3 ADD SWAP1 POP SWAP2 SWAP1 POP JUMP INVALID LOG2 PUSH5 0x6970667358 0x22 SLT KECCAK256 0xCC 0xAF 0xBF 0xB7 LOG3 PUSH26 0x96725DDF8C0D4FABEF57C182436320DE59F722AB935D2D4E4C7E PUSH5 0x736F6C6343 STOP ADDMOD 0xD STOP CALLER LOG2 PUSH5 0x6970667358 0x22 SLT KECCAK256 MULMOD KECCAK256 0xE1 SWAP4 RETURNDATASIZE LOG2 0x4D 0xEC SDIV 0xC9 0x21 0xF 0x27 LOG1 0xB2 XOR CALLDATALOAD PUSH32 0xF707A0269B37C1418FCCAF69603664736F6C634300080D003300000000000000 "},"gasEstimates":{"creation":{"codeDepositCost":"1098000","executionCost":"1140","totalCost":"1099140"},"external":{"createCampaign(string,uint256,uint256)":"infinite","getDeployedCampaigns()":"infinite"}},"methodIdentifiers":{"createCampaign(string,uint256,uint256)":"3020580b","getDeployedCampaigns()":"4acb9d4f"}},"storageLayout":{"storage":[{"astId":4,"contract":"Campaign.sol:CampaignFactory","label":"deployedCampaigns","offset":0,"slot":"0","type":"t_array(t_address)dyn_storage"},{"astId":7,"contract":"Campaign.sol:CampaignFactory","label":"campaignsName","offset":0,"slot":"1","type":"t_array(t_string_storage)dyn_storage"}],"types":{"t_address":{"encoding":"inplace","label":"address","numberOfBytes":"20"},"t_array(t_address)dyn_storage":{"base":"t_address","encoding":"dynamic_array","label":"address[]","numberOfBytes":"32"},"t_array(t_string_storage)dyn_storage":{"base":"t_string_storage","encoding":"dynamic_array","label":"string[]","numberOfBytes":"32"},"t_string_storage":{"encoding":"bytes","label":"string","numberOfBytes":"32"}}},"userdoc":{"kind":"user","methods":{},"version":1}}