{"abi":[{"inputs":[{"internalType":"address","name":"creator","type":"address"},{"internalType":"string","name":"campaignName","type":"string"},{"internalType":"uint256","name":"balance","type":"uint256"},{"internalType":"uint256","name":"cost","type":"uint256"},{"internalType":"uint256","name":"deadline","type":"uint256"},{"internalType":"uint256","name":"min","type":"uint256"}],"stateMutability":"nonpayable","type":"constructor"},{"inputs":[],"name":"claim","outputs":[],"stateMutability":"payable","type":"function"},{"inputs":[],"name":"contribute","outputs":[],"stateMutability":"payable","type":"function"},{"inputs":[],"name":"getCampaign","outputs":[{"internalType":"address","name":"","type":"address"},{"internalType":"uint256","name":"","type":"uint256"},{"internalType":"string","name":"","type":"string"},{"internalType":"uint256","name":"","type":"uint256"},{"internalType":"uint256","name":"","type":"uint256"},{"internalType":"uint256","name":"","type":"uint256"},{"internalType":"bool","name":"","type":"bool"},{"internalType":"uint256","name":"","type":"uint256"},{"internalType":"uint256","name":"","type":"uint256"}],"stateMutability":"view","type":"function"},{"inputs":[],"name":"getIsComplete","outputs":[{"internalType":"bool","name":"","type":"bool"}],"stateMutability":"view","type":"function"}],"devdoc":{"kind":"dev","methods":{},"version":1},"evm":{"assembly":"    /* \"Campaign.sol\":877:3669  contract Campaign {... */\n  mstore(0x40, 0x80)\n    /* \"Campaign.sol\":1302:1750  constructor(address creator, string memory campaignName, uint balance, uint cost, uint256 deadline, uint min) {... */\n  callvalue\n  dup1\n  iszero\n  tag_1\n  jumpi\n  0x00\n  dup1\n  revert\ntag_1:\n  pop\n  mload(0x40)\n  sub(codesize, bytecodeSize)\n  dup1\n  bytecodeSize\n  dup4\n  codecopy\n  dup2\n  dup2\n  add\n  0x40\n  mstore\n  dup2\n  add\n  swap1\n  tag_2\n  swap2\n  swap1\n  tag_3\n  jump\t// in\ntag_2:\n    /* \"Campaign.sol\":1450:1457  creator */\n  dup6\n    /* \"Campaign.sol\":1423:1431  campaign */\n  0x00\n    /* \"Campaign.sol\":1423:1439  campaign.manager */\n  dup1\n  add\n  0x00\n    /* \"Campaign.sol\":1423:1458  campaign.manager = payable(creator) */\n  0x0100\n  exp\n  dup2\n  sload\n  dup2\n  0xffffffffffffffffffffffffffffffffffffffff\n  mul\n  not\n  and\n  swap1\n  dup4\n  0xffffffffffffffffffffffffffffffffffffffff\n  and\n  mul\n  or\n  swap1\n  sstore\n  pop\n    /* \"Campaign.sol\":1485:1497  campaignName */\n  dup5\n    /* \"Campaign.sol\":1469:1477  campaign */\n  0x00\n    /* \"Campaign.sol\":1469:1482  campaign.name */\n  0x01\n  add\n    /* \"Campaign.sol\":1469:1497  campaign.name = campaignName */\n  swap1\n  dup1\n  mload\n  swap1\n  0x20\n  add\n  swap1\n  tag_6\n  swap3\n  swap2\n  swap1\n  tag_7\n  jump\t// in\ntag_6:\n  pop\n    /* \"Campaign.sol\":1535:1542  balance */\n  dup4\n    /* \"Campaign.sol\":1508:1516  campaign */\n  0x00\n    /* \"Campaign.sol\":1508:1532  campaign.requiredBalance */\n  0x02\n  add\n    /* \"Campaign.sol\":1508:1542  campaign.requiredBalance = balance */\n  dup2\n  swap1\n  sstore\n  pop\n    /* \"Campaign.sol\":1577:1581  cost */\n  dup3\n    /* \"Campaign.sol\":1553:1561  campaign */\n  0x00\n    /* \"Campaign.sol\":1553:1574  campaign.requiredCost */\n  0x03\n  add\n    /* \"Campaign.sol\":1553:1581  campaign.requiredCost = cost */\n  dup2\n  swap1\n  sstore\n  pop\n    /* \"Campaign.sol\":1621:1622  0 */\n  0x00\n    /* \"Campaign.sol\":1592:1600  campaign */\n  dup1\n    /* \"Campaign.sol\":1592:1618  campaign.contributorsCount */\n  0x05\n  add\n    /* \"Campaign.sol\":1592:1622  campaign.contributorsCount = 0 */\n  dup2\n  swap1\n  sstore\n  pop\n    /* \"Campaign.sol\":1653:1658  false */\n  0x00\n    /* \"Campaign.sol\":1633:1641  campaign */\n  dup1\n    /* \"Campaign.sol\":1633:1650  campaign.complete */\n  0x06\n  add\n  0x00\n    /* \"Campaign.sol\":1633:1658  campaign.complete = false */\n  0x0100\n  exp\n  dup2\n  sload\n  dup2\n  0xff\n  mul\n  not\n  and\n  swap1\n  dup4\n  iszero\n  iszero\n  mul\n  or\n  swap1\n  sstore\n  pop\n    /* \"Campaign.sol\":1689:1697  deadline */\n  dup2\n    /* \"Campaign.sol\":1669:1677  campaign */\n  0x00\n    /* \"Campaign.sol\":1669:1686  campaign.deadline */\n  0x07\n  add\n    /* \"Campaign.sol\":1669:1697  campaign.deadline = deadline */\n  dup2\n  swap1\n  sstore\n  pop\n    /* \"Campaign.sol\":1738:1741  min */\n  dup1\n    /* \"Campaign.sol\":1708:1716  campaign */\n  0x00\n    /* \"Campaign.sol\":1708:1735  campaign.minimumContributor */\n  0x08\n  add\n    /* \"Campaign.sol\":1708:1741  campaign.minimumContributor = min */\n  dup2\n  swap1\n  sstore\n  pop\n    /* \"Campaign.sol\":1302:1750  constructor(address creator, string memory campaignName, uint balance, uint cost, uint256 deadline, uint min) {... */\n  pop\n  pop\n  pop\n  pop\n  pop\n  pop\n    /* \"Campaign.sol\":877:3669  contract Campaign {... */\n  jump(tag_8)\ntag_7:\n  dup3\n  dup1\n  sload\n  tag_9\n  swap1\n  tag_10\n  jump\t// in\ntag_9:\n  swap1\n  0x00\n  mstore\n  keccak256(0x00, 0x20)\n  swap1\n  0x1f\n  add\n  0x20\n  swap1\n  div\n  dup2\n  add\n  swap3\n  dup3\n  tag_12\n  jumpi\n  0x00\n  dup6\n  sstore\n  jump(tag_11)\ntag_12:\n  dup3\n  0x1f\n  lt\n  tag_13\n  jumpi\n  dup1\n  mload\n  not(0xff)\n  and\n  dup4\n  dup1\n  add\n  or\n  dup6\n  sstore\n  jump(tag_11)\ntag_13:\n  dup3\n  dup1\n  add\n  0x01\n  add\n  dup6\n  sstore\n  dup3\n  iszero\n  tag_11\n  jumpi\n  swap2\n  dup3\n  add\ntag_14:\n  dup3\n  dup2\n  gt\n  iszero\n  tag_15\n  jumpi\n  dup3\n  mload\n  dup3\n  sstore\n  swap2\n  0x20\n  add\n  swap2\n  swap1\n  0x01\n  add\n  swap1\n  jump(tag_14)\ntag_15:\ntag_11:\n  pop\n  swap1\n  pop\n  tag_16\n  swap2\n  swap1\n  tag_17\n  jump\t// in\ntag_16:\n  pop\n  swap1\n  jump\t// out\ntag_17:\ntag_18:\n  dup1\n  dup3\n  gt\n  iszero\n  tag_19\n  jumpi\n  0x00\n  dup2\n  0x00\n  swap1\n  sstore\n  pop\n  0x01\n  add\n  jump(tag_18)\ntag_19:\n  pop\n  swap1\n  jump\t// out\n    /* \"#utility.yul\":7:82   */\ntag_20:\n    /* \"#utility.yul\":40:46   */\n  0x00\n    /* \"#utility.yul\":73:75   */\n  0x40\n    /* \"#utility.yul\":67:76   */\n  mload\n    /* \"#utility.yul\":57:76   */\n  swap1\n  pop\n    /* \"#utility.yul\":7:82   */\n  swap1\n  jump\t// out\n    /* \"#utility.yul\":88:205   */\ntag_21:\n    /* \"#utility.yul\":197:198   */\n  0x00\n    /* \"#utility.yul\":194:195   */\n  dup1\n    /* \"#utility.yul\":187:199   */\n  revert\n    /* \"#utility.yul\":211:328   */\ntag_22:\n    /* \"#utility.yul\":320:321   */\n  0x00\n    /* \"#utility.yul\":317:318   */\n  dup1\n    /* \"#utility.yul\":310:322   */\n  revert\n    /* \"#utility.yul\":334:460   */\ntag_23:\n    /* \"#utility.yul\":371:378   */\n  0x00\n    /* \"#utility.yul\":411:453   */\n  0xffffffffffffffffffffffffffffffffffffffff\n    /* \"#utility.yul\":404:409   */\n  dup3\n    /* \"#utility.yul\":400:454   */\n  and\n    /* \"#utility.yul\":389:454   */\n  swap1\n  pop\n    /* \"#utility.yul\":334:460   */\n  swap2\n  swap1\n  pop\n  jump\t// out\n    /* \"#utility.yul\":466:562   */\ntag_24:\n    /* \"#utility.yul\":503:510   */\n  0x00\n    /* \"#utility.yul\":532:556   */\n  tag_47\n    /* \"#utility.yul\":550:555   */\n  dup3\n    /* \"#utility.yul\":532:556   */\n  tag_23\n  jump\t// in\ntag_47:\n    /* \"#utility.yul\":521:556   */\n  swap1\n  pop\n    /* \"#utility.yul\":466:562   */\n  swap2\n  swap1\n  pop\n  jump\t// out\n    /* \"#utility.yul\":568:690   */\ntag_25:\n    /* \"#utility.yul\":641:665   */\n  tag_49\n    /* \"#utility.yul\":659:664   */\n  dup2\n    /* \"#utility.yul\":641:665   */\n  tag_24\n  jump\t// in\ntag_49:\n    /* \"#utility.yul\":634:639   */\n  dup2\n    /* \"#utility.yul\":631:666   */\n  eq\n    /* \"#utility.yul\":621:684   */\n  tag_50\n  jumpi\n    /* \"#utility.yul\":680:681   */\n  0x00\n    /* \"#utility.yul\":677:678   */\n  dup1\n    /* \"#utility.yul\":670:682   */\n  revert\n    /* \"#utility.yul\":621:684   */\ntag_50:\n    /* \"#utility.yul\":568:690   */\n  pop\n  jump\t// out\n    /* \"#utility.yul\":696:839   */\ntag_26:\n    /* \"#utility.yul\":753:758   */\n  0x00\n    /* \"#utility.yul\":784:790   */\n  dup2\n    /* \"#utility.yul\":778:791   */\n  mload\n    /* \"#utility.yul\":769:791   */\n  swap1\n  pop\n    /* \"#utility.yul\":800:833   */\n  tag_52\n    /* \"#utility.yul\":827:832   */\n  dup2\n    /* \"#utility.yul\":800:833   */\n  tag_25\n  jump\t// in\ntag_52:\n    /* \"#utility.yul\":696:839   */\n  swap3\n  swap2\n  pop\n  pop\n  jump\t// out\n    /* \"#utility.yul\":845:962   */\ntag_27:\n    /* \"#utility.yul\":954:955   */\n  0x00\n    /* \"#utility.yul\":951:952   */\n  dup1\n    /* \"#utility.yul\":944:956   */\n  revert\n    /* \"#utility.yul\":968:1085   */\ntag_28:\n    /* \"#utility.yul\":1077:1078   */\n  0x00\n    /* \"#utility.yul\":1074:1075   */\n  dup1\n    /* \"#utility.yul\":1067:1079   */\n  revert\n    /* \"#utility.yul\":1091:1193   */\ntag_29:\n    /* \"#utility.yul\":1132:1138   */\n  0x00\n    /* \"#utility.yul\":1183:1185   */\n  0x1f\n    /* \"#utility.yul\":1179:1186   */\n  not\n    /* \"#utility.yul\":1174:1176   */\n  0x1f\n    /* \"#utility.yul\":1167:1172   */\n  dup4\n    /* \"#utility.yul\":1163:1177   */\n  add\n    /* \"#utility.yul\":1159:1187   */\n  and\n    /* \"#utility.yul\":1149:1187   */\n  swap1\n  pop\n    /* \"#utility.yul\":1091:1193   */\n  swap2\n  swap1\n  pop\n  jump\t// out\n    /* \"#utility.yul\":1199:1379   */\ntag_30:\n    /* \"#utility.yul\":1247:1324   */\n  0x4e487b7100000000000000000000000000000000000000000000000000000000\n    /* \"#utility.yul\":1244:1245   */\n  0x00\n    /* \"#utility.yul\":1237:1325   */\n  mstore\n    /* \"#utility.yul\":1344:1348   */\n  0x41\n    /* \"#utility.yul\":1341:1342   */\n  0x04\n    /* \"#utility.yul\":1334:1349   */\n  mstore\n    /* \"#utility.yul\":1368:1372   */\n  0x24\n    /* \"#utility.yul\":1365:1366   */\n  0x00\n    /* \"#utility.yul\":1358:1373   */\n  revert\n    /* \"#utility.yul\":1385:1666   */\ntag_31:\n    /* \"#utility.yul\":1468:1495   */\n  tag_58\n    /* \"#utility.yul\":1490:1494   */\n  dup3\n    /* \"#utility.yul\":1468:1495   */\n  tag_29\n  jump\t// in\ntag_58:\n    /* \"#utility.yul\":1460:1466   */\n  dup2\n    /* \"#utility.yul\":1456:1496   */\n  add\n    /* \"#utility.yul\":1598:1604   */\n  dup2\n    /* \"#utility.yul\":1586:1596   */\n  dup2\n    /* \"#utility.yul\":1583:1605   */\n  lt\n    /* \"#utility.yul\":1562:1580   */\n  0xffffffffffffffff\n    /* \"#utility.yul\":1550:1560   */\n  dup3\n    /* \"#utility.yul\":1547:1581   */\n  gt\n    /* \"#utility.yul\":1544:1606   */\n  or\n    /* \"#utility.yul\":1541:1629   */\n  iszero\n  tag_59\n  jumpi\n    /* \"#utility.yul\":1609:1627   */\n  tag_60\n  tag_30\n  jump\t// in\ntag_60:\n    /* \"#utility.yul\":1541:1629   */\ntag_59:\n    /* \"#utility.yul\":1649:1659   */\n  dup1\n    /* \"#utility.yul\":1645:1647   */\n  0x40\n    /* \"#utility.yul\":1638:1660   */\n  mstore\n    /* \"#utility.yul\":1428:1666   */\n  pop\n    /* \"#utility.yul\":1385:1666   */\n  pop\n  pop\n  jump\t// out\n    /* \"#utility.yul\":1672:1801   */\ntag_32:\n    /* \"#utility.yul\":1706:1712   */\n  0x00\n    /* \"#utility.yul\":1733:1753   */\n  tag_62\n  tag_20\n  jump\t// in\ntag_62:\n    /* \"#utility.yul\":1723:1753   */\n  swap1\n  pop\n    /* \"#utility.yul\":1762:1795   */\n  tag_63\n    /* \"#utility.yul\":1790:1794   */\n  dup3\n    /* \"#utility.yul\":1782:1788   */\n  dup3\n    /* \"#utility.yul\":1762:1795   */\n  tag_31\n  jump\t// in\ntag_63:\n    /* \"#utility.yul\":1672:1801   */\n  swap2\n  swap1\n  pop\n  jump\t// out\n    /* \"#utility.yul\":1807:2115   */\ntag_33:\n    /* \"#utility.yul\":1869:1873   */\n  0x00\n    /* \"#utility.yul\":1959:1977   */\n  0xffffffffffffffff\n    /* \"#utility.yul\":1951:1957   */\n  dup3\n    /* \"#utility.yul\":1948:1978   */\n  gt\n    /* \"#utility.yul\":1945:2001   */\n  iszero\n  tag_65\n  jumpi\n    /* \"#utility.yul\":1981:1999   */\n  tag_66\n  tag_30\n  jump\t// in\ntag_66:\n    /* \"#utility.yul\":1945:2001   */\ntag_65:\n    /* \"#utility.yul\":2019:2048   */\n  tag_67\n    /* \"#utility.yul\":2041:2047   */\n  dup3\n    /* \"#utility.yul\":2019:2048   */\n  tag_29\n  jump\t// in\ntag_67:\n    /* \"#utility.yul\":2011:2048   */\n  swap1\n  pop\n    /* \"#utility.yul\":2103:2107   */\n  0x20\n    /* \"#utility.yul\":2097:2101   */\n  dup2\n    /* \"#utility.yul\":2093:2108   */\n  add\n    /* \"#utility.yul\":2085:2108   */\n  swap1\n  pop\n    /* \"#utility.yul\":1807:2115   */\n  swap2\n  swap1\n  pop\n  jump\t// out\n    /* \"#utility.yul\":2121:2428   */\ntag_34:\n    /* \"#utility.yul\":2189:2190   */\n  0x00\n    /* \"#utility.yul\":2199:2312   */\ntag_69:\n    /* \"#utility.yul\":2213:2219   */\n  dup4\n    /* \"#utility.yul\":2210:2211   */\n  dup2\n    /* \"#utility.yul\":2207:2220   */\n  lt\n    /* \"#utility.yul\":2199:2312   */\n  iszero\n  tag_71\n  jumpi\n    /* \"#utility.yul\":2298:2299   */\n  dup1\n    /* \"#utility.yul\":2293:2296   */\n  dup3\n    /* \"#utility.yul\":2289:2300   */\n  add\n    /* \"#utility.yul\":2283:2301   */\n  mload\n    /* \"#utility.yul\":2279:2280   */\n  dup2\n    /* \"#utility.yul\":2274:2277   */\n  dup5\n    /* \"#utility.yul\":2270:2281   */\n  add\n    /* \"#utility.yul\":2263:2302   */\n  mstore\n    /* \"#utility.yul\":2235:2237   */\n  0x20\n    /* \"#utility.yul\":2232:2233   */\n  dup2\n    /* \"#utility.yul\":2228:2238   */\n  add\n    /* \"#utility.yul\":2223:2238   */\n  swap1\n  pop\n    /* \"#utility.yul\":2199:2312   */\n  jump(tag_69)\ntag_71:\n    /* \"#utility.yul\":2330:2336   */\n  dup4\n    /* \"#utility.yul\":2327:2328   */\n  dup2\n    /* \"#utility.yul\":2324:2337   */\n  gt\n    /* \"#utility.yul\":2321:2422   */\n  iszero\n  tag_72\n  jumpi\n    /* \"#utility.yul\":2410:2411   */\n  0x00\n    /* \"#utility.yul\":2401:2407   */\n  dup5\n    /* \"#utility.yul\":2396:2399   */\n  dup5\n    /* \"#utility.yul\":2392:2408   */\n  add\n    /* \"#utility.yul\":2385:2412   */\n  mstore\n    /* \"#utility.yul\":2321:2422   */\ntag_72:\n    /* \"#utility.yul\":2170:2428   */\n  pop\n    /* \"#utility.yul\":2121:2428   */\n  pop\n  pop\n  pop\n  jump\t// out\n    /* \"#utility.yul\":2434:2855   */\ntag_35:\n    /* \"#utility.yul\":2523:2528   */\n  0x00\n    /* \"#utility.yul\":2548:2614   */\n  tag_74\n    /* \"#utility.yul\":2564:2613   */\n  tag_75\n    /* \"#utility.yul\":2606:2612   */\n  dup5\n    /* \"#utility.yul\":2564:2613   */\n  tag_33\n  jump\t// in\ntag_75:\n    /* \"#utility.yul\":2548:2614   */\n  tag_32\n  jump\t// in\ntag_74:\n    /* \"#utility.yul\":2539:2614   */\n  swap1\n  pop\n    /* \"#utility.yul\":2637:2643   */\n  dup3\n    /* \"#utility.yul\":2630:2635   */\n  dup2\n    /* \"#utility.yul\":2623:2644   */\n  mstore\n    /* \"#utility.yul\":2675:2679   */\n  0x20\n    /* \"#utility.yul\":2668:2673   */\n  dup2\n    /* \"#utility.yul\":2664:2680   */\n  add\n    /* \"#utility.yul\":2713:2716   */\n  dup5\n    /* \"#utility.yul\":2704:2710   */\n  dup5\n    /* \"#utility.yul\":2699:2702   */\n  dup5\n    /* \"#utility.yul\":2695:2711   */\n  add\n    /* \"#utility.yul\":2692:2717   */\n  gt\n    /* \"#utility.yul\":2689:2801   */\n  iszero\n  tag_76\n  jumpi\n    /* \"#utility.yul\":2720:2799   */\n  tag_77\n  tag_28\n  jump\t// in\ntag_77:\n    /* \"#utility.yul\":2689:2801   */\ntag_76:\n    /* \"#utility.yul\":2810:2849   */\n  tag_78\n    /* \"#utility.yul\":2842:2848   */\n  dup5\n    /* \"#utility.yul\":2837:2840   */\n  dup3\n    /* \"#utility.yul\":2832:2835   */\n  dup6\n    /* \"#utility.yul\":2810:2849   */\n  tag_34\n  jump\t// in\ntag_78:\n    /* \"#utility.yul\":2529:2855   */\n  pop\n    /* \"#utility.yul\":2434:2855   */\n  swap4\n  swap3\n  pop\n  pop\n  pop\n  jump\t// out\n    /* \"#utility.yul\":2875:3230   */\ntag_36:\n    /* \"#utility.yul\":2942:2947   */\n  0x00\n    /* \"#utility.yul\":2991:2994   */\n  dup3\n    /* \"#utility.yul\":2984:2988   */\n  0x1f\n    /* \"#utility.yul\":2976:2982   */\n  dup4\n    /* \"#utility.yul\":2972:2989   */\n  add\n    /* \"#utility.yul\":2968:2995   */\n  slt\n    /* \"#utility.yul\":2958:3080   */\n  tag_80\n  jumpi\n    /* \"#utility.yul\":2999:3078   */\n  tag_81\n  tag_27\n  jump\t// in\ntag_81:\n    /* \"#utility.yul\":2958:3080   */\ntag_80:\n    /* \"#utility.yul\":3109:3115   */\n  dup2\n    /* \"#utility.yul\":3103:3116   */\n  mload\n    /* \"#utility.yul\":3134:3224   */\n  tag_82\n    /* \"#utility.yul\":3220:3223   */\n  dup5\n    /* \"#utility.yul\":3212:3218   */\n  dup3\n    /* \"#utility.yul\":3205:3209   */\n  0x20\n    /* \"#utility.yul\":3197:3203   */\n  dup7\n    /* \"#utility.yul\":3193:3210   */\n  add\n    /* \"#utility.yul\":3134:3224   */\n  tag_35\n  jump\t// in\ntag_82:\n    /* \"#utility.yul\":3125:3224   */\n  swap2\n  pop\n    /* \"#utility.yul\":2948:3230   */\n  pop\n    /* \"#utility.yul\":2875:3230   */\n  swap3\n  swap2\n  pop\n  pop\n  jump\t// out\n    /* \"#utility.yul\":3236:3313   */\ntag_37:\n    /* \"#utility.yul\":3273:3280   */\n  0x00\n    /* \"#utility.yul\":3302:3307   */\n  dup2\n    /* \"#utility.yul\":3291:3307   */\n  swap1\n  pop\n    /* \"#utility.yul\":3236:3313   */\n  swap2\n  swap1\n  pop\n  jump\t// out\n    /* \"#utility.yul\":3319:3441   */\ntag_38:\n    /* \"#utility.yul\":3392:3416   */\n  tag_85\n    /* \"#utility.yul\":3410:3415   */\n  dup2\n    /* \"#utility.yul\":3392:3416   */\n  tag_37\n  jump\t// in\ntag_85:\n    /* \"#utility.yul\":3385:3390   */\n  dup2\n    /* \"#utility.yul\":3382:3417   */\n  eq\n    /* \"#utility.yul\":3372:3435   */\n  tag_86\n  jumpi\n    /* \"#utility.yul\":3431:3432   */\n  0x00\n    /* \"#utility.yul\":3428:3429   */\n  dup1\n    /* \"#utility.yul\":3421:3433   */\n  revert\n    /* \"#utility.yul\":3372:3435   */\ntag_86:\n    /* \"#utility.yul\":3319:3441   */\n  pop\n  jump\t// out\n    /* \"#utility.yul\":3447:3590   */\ntag_39:\n    /* \"#utility.yul\":3504:3509   */\n  0x00\n    /* \"#utility.yul\":3535:3541   */\n  dup2\n    /* \"#utility.yul\":3529:3542   */\n  mload\n    /* \"#utility.yul\":3520:3542   */\n  swap1\n  pop\n    /* \"#utility.yul\":3551:3584   */\n  tag_88\n    /* \"#utility.yul\":3578:3583   */\n  dup2\n    /* \"#utility.yul\":3551:3584   */\n  tag_38\n  jump\t// in\ntag_88:\n    /* \"#utility.yul\":3447:3590   */\n  swap3\n  swap2\n  pop\n  pop\n  jump\t// out\n    /* \"#utility.yul\":3596:4903   */\ntag_3:\n    /* \"#utility.yul\":3721:3727   */\n  0x00\n    /* \"#utility.yul\":3729:3735   */\n  dup1\n    /* \"#utility.yul\":3737:3743   */\n  0x00\n    /* \"#utility.yul\":3745:3751   */\n  dup1\n    /* \"#utility.yul\":3753:3759   */\n  0x00\n    /* \"#utility.yul\":3761:3767   */\n  dup1\n    /* \"#utility.yul\":3810:3813   */\n  0xc0\n    /* \"#utility.yul\":3798:3807   */\n  dup8\n    /* \"#utility.yul\":3789:3796   */\n  dup10\n    /* \"#utility.yul\":3785:3808   */\n  sub\n    /* \"#utility.yul\":3781:3814   */\n  slt\n    /* \"#utility.yul\":3778:3898   */\n  iszero\n  tag_90\n  jumpi\n    /* \"#utility.yul\":3817:3896   */\n  tag_91\n  tag_21\n  jump\t// in\ntag_91:\n    /* \"#utility.yul\":3778:3898   */\ntag_90:\n    /* \"#utility.yul\":3937:3938   */\n  0x00\n    /* \"#utility.yul\":3962:4026   */\n  tag_92\n    /* \"#utility.yul\":4018:4025   */\n  dup10\n    /* \"#utility.yul\":4009:4015   */\n  dup3\n    /* \"#utility.yul\":3998:4007   */\n  dup11\n    /* \"#utility.yul\":3994:4016   */\n  add\n    /* \"#utility.yul\":3962:4026   */\n  tag_26\n  jump\t// in\ntag_92:\n    /* \"#utility.yul\":3952:4026   */\n  swap7\n  pop\n    /* \"#utility.yul\":3908:4036   */\n  pop\n    /* \"#utility.yul\":4096:4098   */\n  0x20\n    /* \"#utility.yul\":4085:4094   */\n  dup8\n    /* \"#utility.yul\":4081:4099   */\n  add\n    /* \"#utility.yul\":4075:4100   */\n  mload\n    /* \"#utility.yul\":4127:4145   */\n  0xffffffffffffffff\n    /* \"#utility.yul\":4119:4125   */\n  dup2\n    /* \"#utility.yul\":4116:4146   */\n  gt\n    /* \"#utility.yul\":4113:4230   */\n  iszero\n  tag_93\n  jumpi\n    /* \"#utility.yul\":4149:4228   */\n  tag_94\n  tag_22\n  jump\t// in\ntag_94:\n    /* \"#utility.yul\":4113:4230   */\ntag_93:\n    /* \"#utility.yul\":4254:4328   */\n  tag_95\n    /* \"#utility.yul\":4320:4327   */\n  dup10\n    /* \"#utility.yul\":4311:4317   */\n  dup3\n    /* \"#utility.yul\":4300:4309   */\n  dup11\n    /* \"#utility.yul\":4296:4318   */\n  add\n    /* \"#utility.yul\":4254:4328   */\n  tag_36\n  jump\t// in\ntag_95:\n    /* \"#utility.yul\":4244:4328   */\n  swap6\n  pop\n    /* \"#utility.yul\":4046:4338   */\n  pop\n    /* \"#utility.yul\":4377:4379   */\n  0x40\n    /* \"#utility.yul\":4403:4467   */\n  tag_96\n    /* \"#utility.yul\":4459:4466   */\n  dup10\n    /* \"#utility.yul\":4450:4456   */\n  dup3\n    /* \"#utility.yul\":4439:4448   */\n  dup11\n    /* \"#utility.yul\":4435:4457   */\n  add\n    /* \"#utility.yul\":4403:4467   */\n  tag_39\n  jump\t// in\ntag_96:\n    /* \"#utility.yul\":4393:4467   */\n  swap5\n  pop\n    /* \"#utility.yul\":4348:4477   */\n  pop\n    /* \"#utility.yul\":4516:4518   */\n  0x60\n    /* \"#utility.yul\":4542:4606   */\n  tag_97\n    /* \"#utility.yul\":4598:4605   */\n  dup10\n    /* \"#utility.yul\":4589:4595   */\n  dup3\n    /* \"#utility.yul\":4578:4587   */\n  dup11\n    /* \"#utility.yul\":4574:4596   */\n  add\n    /* \"#utility.yul\":4542:4606   */\n  tag_39\n  jump\t// in\ntag_97:\n    /* \"#utility.yul\":4532:4606   */\n  swap4\n  pop\n    /* \"#utility.yul\":4487:4616   */\n  pop\n    /* \"#utility.yul\":4655:4658   */\n  0x80\n    /* \"#utility.yul\":4682:4746   */\n  tag_98\n    /* \"#utility.yul\":4738:4745   */\n  dup10\n    /* \"#utility.yul\":4729:4735   */\n  dup3\n    /* \"#utility.yul\":4718:4727   */\n  dup11\n    /* \"#utility.yul\":4714:4736   */\n  add\n    /* \"#utility.yul\":4682:4746   */\n  tag_39\n  jump\t// in\ntag_98:\n    /* \"#utility.yul\":4672:4746   */\n  swap3\n  pop\n    /* \"#utility.yul\":4626:4756   */\n  pop\n    /* \"#utility.yul\":4795:4798   */\n  0xa0\n    /* \"#utility.yul\":4822:4886   */\n  tag_99\n    /* \"#utility.yul\":4878:4885   */\n  dup10\n    /* \"#utility.yul\":4869:4875   */\n  dup3\n    /* \"#utility.yul\":4858:4867   */\n  dup11\n    /* \"#utility.yul\":4854:4876   */\n  add\n    /* \"#utility.yul\":4822:4886   */\n  tag_39\n  jump\t// in\ntag_99:\n    /* \"#utility.yul\":4812:4886   */\n  swap2\n  pop\n    /* \"#utility.yul\":4766:4896   */\n  pop\n    /* \"#utility.yul\":3596:4903   */\n  swap3\n  swap6\n  pop\n  swap3\n  swap6\n  pop\n  swap3\n  swap6\n  jump\t// out\n    /* \"#utility.yul\":4909:5089   */\ntag_40:\n    /* \"#utility.yul\":4957:5034   */\n  0x4e487b7100000000000000000000000000000000000000000000000000000000\n    /* \"#utility.yul\":4954:4955   */\n  0x00\n    /* \"#utility.yul\":4947:5035   */\n  mstore\n    /* \"#utility.yul\":5054:5058   */\n  0x22\n    /* \"#utility.yul\":5051:5052   */\n  0x04\n    /* \"#utility.yul\":5044:5059   */\n  mstore\n    /* \"#utility.yul\":5078:5082   */\n  0x24\n    /* \"#utility.yul\":5075:5076   */\n  0x00\n    /* \"#utility.yul\":5068:5083   */\n  revert\n    /* \"#utility.yul\":5095:5415   */\ntag_10:\n    /* \"#utility.yul\":5139:5145   */\n  0x00\n    /* \"#utility.yul\":5176:5177   */\n  0x02\n    /* \"#utility.yul\":5170:5174   */\n  dup3\n    /* \"#utility.yul\":5166:5178   */\n  div\n    /* \"#utility.yul\":5156:5178   */\n  swap1\n  pop\n    /* \"#utility.yul\":5223:5224   */\n  0x01\n    /* \"#utility.yul\":5217:5221   */\n  dup3\n    /* \"#utility.yul\":5213:5225   */\n  and\n    /* \"#utility.yul\":5244:5262   */\n  dup1\n    /* \"#utility.yul\":5234:5315   */\n  tag_102\n  jumpi\n    /* \"#utility.yul\":5300:5304   */\n  0x7f\n    /* \"#utility.yul\":5292:5298   */\n  dup3\n    /* \"#utility.yul\":5288:5305   */\n  and\n    /* \"#utility.yul\":5278:5305   */\n  swap2\n  pop\n    /* \"#utility.yul\":5234:5315   */\ntag_102:\n    /* \"#utility.yul\":5362:5364   */\n  0x20\n    /* \"#utility.yul\":5354:5360   */\n  dup3\n    /* \"#utility.yul\":5351:5365   */\n  lt\n    /* \"#utility.yul\":5331:5349   */\n  dup2\n    /* \"#utility.yul\":5328:5366   */\n  sub\n    /* \"#utility.yul\":5325:5409   */\n  tag_103\n  jumpi\n    /* \"#utility.yul\":5381:5399   */\n  tag_104\n  tag_40\n  jump\t// in\ntag_104:\n    /* \"#utility.yul\":5325:5409   */\ntag_103:\n    /* \"#utility.yul\":5146:5415   */\n  pop\n    /* \"#utility.yul\":5095:5415   */\n  swap2\n  swap1\n  pop\n  jump\t// out\n    /* \"Campaign.sol\":877:3669  contract Campaign {... */\ntag_8:\n  dataSize(sub_0)\n  dup1\n  dataOffset(sub_0)\n  0x00\n  codecopy\n  0x00\n  return\nstop\n\nsub_0: assembly {\n        /* \"Campaign.sol\":877:3669  contract Campaign {... */\n      mstore(0x40, 0x80)\n      jumpi(tag_1, lt(calldatasize, 0x04))\n      shr(0xe0, calldataload(0x00))\n      dup1\n      0x236b8e3a\n      eq\n      tag_2\n      jumpi\n      dup1\n      0x4111b033\n      eq\n      tag_3\n      jumpi\n      dup1\n      0x4e71d92d\n      eq\n      tag_4\n      jumpi\n      dup1\n      0xd7bb99ba\n      eq\n      tag_5\n      jumpi\n    tag_1:\n      0x00\n      dup1\n      revert\n        /* \"Campaign.sol\":1758:2090  function getCampaign() public view returns (address, uint, string memory, uint, uint, uint, bool, uint256, uint) {... */\n    tag_2:\n      callvalue\n      dup1\n      iszero\n      tag_6\n      jumpi\n      0x00\n      dup1\n      revert\n    tag_6:\n      pop\n      tag_7\n      tag_8\n      jump\t// in\n    tag_7:\n      mload(0x40)\n      tag_9\n      swap10\n      swap9\n      swap8\n      swap7\n      swap6\n      swap5\n      swap4\n      swap3\n      swap2\n      swap1\n      tag_10\n      jump\t// in\n    tag_9:\n      mload(0x40)\n      dup1\n      swap2\n      sub\n      swap1\n      return\n        /* \"Campaign.sol\":3571:3666  function getIsComplete() public view returns (bool) {... */\n    tag_3:\n      callvalue\n      dup1\n      iszero\n      tag_11\n      jumpi\n      0x00\n      dup1\n      revert\n    tag_11:\n      pop\n      tag_12\n      tag_13\n      jump\t// in\n    tag_12:\n      mload(0x40)\n      tag_14\n      swap2\n      swap1\n      tag_15\n      jump\t// in\n    tag_14:\n      mload(0x40)\n      dup1\n      swap2\n      sub\n      swap1\n      return\n        /* \"Campaign.sol\":3342:3563  function claim() public payable {... */\n    tag_4:\n      tag_16\n      tag_17\n      jump\t// in\n    tag_16:\n      stop\n        /* \"Campaign.sol\":2098:3334  function contribute() public payable {... */\n    tag_5:\n      tag_18\n      tag_19\n      jump\t// in\n    tag_18:\n      stop\n        /* \"Campaign.sol\":1758:2090  function getCampaign() public view returns (address, uint, string memory, uint, uint, uint, bool, uint256, uint) {... */\n    tag_8:\n        /* \"Campaign.sol\":1802:1809  address */\n      0x00\n        /* \"Campaign.sol\":1811:1815  uint */\n      dup1\n        /* \"Campaign.sol\":1817:1830  string memory */\n      0x60\n        /* \"Campaign.sol\":1832:1836  uint */\n      0x00\n        /* \"Campaign.sol\":1838:1842  uint */\n      dup1\n        /* \"Campaign.sol\":1844:1848  uint */\n      0x00\n        /* \"Campaign.sol\":1850:1854  bool */\n      dup1\n        /* \"Campaign.sol\":1856:1863  uint256 */\n      0x00\n        /* \"Campaign.sol\":1865:1869  uint */\n      dup1\n        /* \"Campaign.sol\":1882:1903  Information storage c */\n      0x00\n        /* \"Campaign.sol\":1933:1934  c */\n      dup1\n        /* \"Campaign.sol\":1933:1942  c.manager */\n      0x00\n      add\n      0x00\n      swap1\n      sload\n      swap1\n      0x0100\n      exp\n      swap1\n      div\n      0xffffffffffffffffffffffffffffffffffffffff\n      and\n        /* \"Campaign.sol\":1944:1965  address(this).balance */\n      selfbalance\n        /* \"Campaign.sol\":1967:1968  c */\n      dup3\n        /* \"Campaign.sol\":1967:1973  c.name */\n      0x01\n      add\n        /* \"Campaign.sol\":1975:1976  c */\n      dup4\n        /* \"Campaign.sol\":1975:1992  c.requiredBalance */\n      0x02\n      add\n      sload\n        /* \"Campaign.sol\":1994:1995  c */\n      dup5\n        /* \"Campaign.sol\":1994:2008  c.requiredCost */\n      0x03\n      add\n      sload\n        /* \"Campaign.sol\":2010:2011  c */\n      dup6\n        /* \"Campaign.sol\":2010:2029  c.contributorsCount */\n      0x05\n      add\n      sload\n        /* \"Campaign.sol\":2031:2032  c */\n      dup7\n        /* \"Campaign.sol\":2031:2041  c.complete */\n      0x06\n      add\n      0x00\n      swap1\n      sload\n      swap1\n      0x0100\n      exp\n      swap1\n      div\n      0xff\n      and\n        /* \"Campaign.sol\":2043:2044  c */\n      dup8\n        /* \"Campaign.sol\":2043:2053  c.deadline */\n      0x07\n      add\n      sload\n        /* \"Campaign.sol\":2055:2056  c */\n      dup9\n        /* \"Campaign.sol\":2055:2069  c.contributors */\n      0x04\n      add\n        /* \"Campaign.sol\":2055:2081  c.contributors[msg.sender] */\n      0x00\n        /* \"Campaign.sol\":2070:2080  msg.sender */\n      caller\n        /* \"Campaign.sol\":2055:2081  c.contributors[msg.sender] */\n      0xffffffffffffffffffffffffffffffffffffffff\n      and\n      0xffffffffffffffffffffffffffffffffffffffff\n      and\n      dup2\n      mstore\n      0x20\n      add\n      swap1\n      dup2\n      mstore\n      0x20\n      add\n      0x00\n      keccak256\n      sload\n        /* \"Campaign.sol\":1925:2082  return (c.manager, address(this).balance, c.name, c.requiredBalance, c.requiredCost, c.contributorsCount, c.complete, c.deadline, c.contributors[msg.sender]) */\n      dup7\n      dup1\n      sload\n      tag_21\n      swap1\n      tag_22\n      jump\t// in\n    tag_21:\n      dup1\n      0x1f\n      add\n      0x20\n      dup1\n      swap2\n      div\n      mul\n      0x20\n      add\n      mload(0x40)\n      swap1\n      dup2\n      add\n      0x40\n      mstore\n      dup1\n      swap3\n      swap2\n      swap1\n      dup2\n      dup2\n      mstore\n      0x20\n      add\n      dup3\n      dup1\n      sload\n      tag_23\n      swap1\n      tag_22\n      jump\t// in\n    tag_23:\n      dup1\n      iszero\n      tag_24\n      jumpi\n      dup1\n      0x1f\n      lt\n      tag_25\n      jumpi\n      0x0100\n      dup1\n      dup4\n      sload\n      div\n      mul\n      dup4\n      mstore\n      swap2\n      0x20\n      add\n      swap2\n      jump(tag_24)\n    tag_25:\n      dup3\n      add\n      swap2\n      swap1\n      0x00\n      mstore\n      keccak256(0x00, 0x20)\n      swap1\n    tag_26:\n      dup2\n      sload\n      dup2\n      mstore\n      swap1\n      0x01\n      add\n      swap1\n      0x20\n      add\n      dup1\n      dup4\n      gt\n      tag_26\n      jumpi\n      dup3\n      swap1\n      sub\n      0x1f\n      and\n      dup3\n      add\n      swap2\n    tag_24:\n      pop\n      pop\n      pop\n      pop\n      pop\n      swap7\n      pop\n      swap10\n      pop\n      swap10\n      pop\n      swap10\n      pop\n      swap10\n      pop\n      swap10\n      pop\n      swap10\n      pop\n      swap10\n      pop\n      swap10\n      pop\n      swap10\n      pop\n      pop\n        /* \"Campaign.sol\":1758:2090  function getCampaign() public view returns (address, uint, string memory, uint, uint, uint, bool, uint256, uint) {... */\n      swap1\n      swap2\n      swap3\n      swap4\n      swap5\n      swap6\n      swap7\n      swap8\n      swap9\n      jump\t// out\n        /* \"Campaign.sol\":3571:3666  function getIsComplete() public view returns (bool) {... */\n    tag_13:\n        /* \"Campaign.sol\":3617:3621  bool */\n      0x00\n        /* \"Campaign.sol\":3641:3649  campaign */\n      dup1\n        /* \"Campaign.sol\":3641:3658  campaign.complete */\n      0x06\n      add\n      0x00\n      swap1\n      sload\n      swap1\n      0x0100\n      exp\n      swap1\n      div\n      0xff\n      and\n        /* \"Campaign.sol\":3634:3658  return campaign.complete */\n      swap1\n      pop\n        /* \"Campaign.sol\":3571:3666  function getIsComplete() public view returns (bool) {... */\n      swap1\n      jump\t// out\n        /* \"Campaign.sol\":3342:3563  function claim() public payable {... */\n    tag_17:\n        /* \"Campaign.sol\":3412:3420  campaign */\n      0x00\n        /* \"Campaign.sol\":3412:3429  campaign.deadline */\n      0x07\n      add\n      sload\n        /* \"Campaign.sol\":3393:3408  block.timestamp */\n      timestamp\n        /* \"Campaign.sol\":3393:3429  block.timestamp >= campaign.deadline */\n      lt\n      iszero\n        /* \"Campaign.sol\":3385:3430  require(block.timestamp >= campaign.deadline) */\n      tag_29\n      jumpi\n      0x00\n      dup1\n      revert\n    tag_29:\n        /* \"Campaign.sol\":3449:3459  msg.sender */\n      caller\n        /* \"Campaign.sol\":3441:3469  payable(msg.sender).transfer */\n      0xffffffffffffffffffffffffffffffffffffffff\n      and\n        /* \"Campaign.sol\":3441:3504  payable(msg.sender).transfer(campaign.contributors[msg.sender]) */\n      0x08fc\n        /* \"Campaign.sol\":3470:3478  campaign */\n      0x00\n        /* \"Campaign.sol\":3470:3491  campaign.contributors */\n      0x04\n      add\n        /* \"Campaign.sol\":3470:3503  campaign.contributors[msg.sender] */\n      0x00\n        /* \"Campaign.sol\":3492:3502  msg.sender */\n      caller\n        /* \"Campaign.sol\":3470:3503  campaign.contributors[msg.sender] */\n      0xffffffffffffffffffffffffffffffffffffffff\n      and\n      0xffffffffffffffffffffffffffffffffffffffff\n      and\n      dup2\n      mstore\n      0x20\n      add\n      swap1\n      dup2\n      mstore\n      0x20\n      add\n      0x00\n      keccak256\n      sload\n        /* \"Campaign.sol\":3441:3504  payable(msg.sender).transfer(campaign.contributors[msg.sender]) */\n      swap1\n      dup2\n      iszero\n      mul\n      swap1\n      mload(0x40)\n      0x00\n      mload(0x40)\n      dup1\n      dup4\n      sub\n      dup2\n      dup6\n      dup9\n      dup9\n      call\n      swap4\n      pop\n      pop\n      pop\n      pop\n      iszero\n      dup1\n      iszero\n      tag_31\n      jumpi\n      returndatasize\n      0x00\n      dup1\n      returndatacopy\n      revert(0x00, returndatasize)\n    tag_31:\n      pop\n        /* \"Campaign.sol\":3522:3530  campaign */\n      0x00\n        /* \"Campaign.sol\":3522:3543  campaign.contributors */\n      0x04\n      add\n        /* \"Campaign.sol\":3522:3555  campaign.contributors[msg.sender] */\n      0x00\n        /* \"Campaign.sol\":3544:3554  msg.sender */\n      caller\n        /* \"Campaign.sol\":3522:3555  campaign.contributors[msg.sender] */\n      0xffffffffffffffffffffffffffffffffffffffff\n      and\n      0xffffffffffffffffffffffffffffffffffffffff\n      and\n      dup2\n      mstore\n      0x20\n      add\n      swap1\n      dup2\n      mstore\n      0x20\n      add\n      0x00\n      keccak256\n        /* \"Campaign.sol\":3515:3555  delete campaign.contributors[msg.sender] */\n      0x00\n      swap1\n      sstore\n        /* \"Campaign.sol\":3342:3563  function claim() public payable {... */\n      jump\t// out\n        /* \"Campaign.sol\":2098:3334  function contribute() public payable {... */\n    tag_19:\n        /* \"Campaign.sol\":2281:2289  campaign */\n      0x00\n        /* \"Campaign.sol\":2281:2298  campaign.complete */\n      0x06\n      add\n      0x00\n      swap1\n      sload\n      swap1\n      0x0100\n      exp\n      swap1\n      div\n      0xff\n      and\n        /* \"Campaign.sol\":2280:2298  !campaign.complete */\n      iszero\n        /* \"Campaign.sol\":2272:2329  require(!campaign.complete, \"campaign already completed\") */\n      tag_33\n      jumpi\n      mload(0x40)\n      0x08c379a000000000000000000000000000000000000000000000000000000000\n      dup2\n      mstore\n      0x04\n      add\n      tag_34\n      swap1\n      tag_35\n      jump\t// in\n    tag_34:\n      mload(0x40)\n      dup1\n      swap2\n      sub\n      swap1\n      revert\n    tag_33:\n        /* \"Campaign.sol\":2365:2373  campaign */\n      0x00\n        /* \"Campaign.sol\":2365:2386  campaign.requiredCost */\n      0x03\n      add\n      sload\n        /* \"Campaign.sol\":2352:2361  msg.value */\n      callvalue\n        /* \"Campaign.sol\":2352:2386  msg.value >= campaign.requiredCost */\n      lt\n      iszero\n        /* \"Campaign.sol\":2344:2418  require(msg.value >= campaign.requiredCost, \"value less than requirement\") */\n      tag_36\n      jumpi\n      mload(0x40)\n      0x08c379a000000000000000000000000000000000000000000000000000000000\n      dup2\n      mstore\n      0x04\n      add\n      tag_37\n      swap1\n      tag_38\n      jump\t// in\n    tag_37:\n      mload(0x40)\n      dup1\n      swap2\n      sub\n      swap1\n      revert\n    tag_36:\n        /* \"Campaign.sol\":2495:2496  0 */\n      0x00\n        /* \"Campaign.sol\":2464:2472  campaign */\n      dup1\n        /* \"Campaign.sol\":2464:2491  campaign.minimumContributor */\n      0x08\n      add\n      sload\n        /* \"Campaign.sol\":2464:2496  campaign.minimumContributor == 0 */\n      sub\n        /* \"Campaign.sol\":2461:2784  if(campaign.minimumContributor == 0) {... */\n      tag_39\n      jumpi\n        /* \"Campaign.sol\":2574:2583  msg.value */\n      callvalue\n        /* \"Campaign.sol\":2538:2546  campaign */\n      0x00\n        /* \"Campaign.sol\":2538:2559  campaign.contributors */\n      0x04\n      add\n        /* \"Campaign.sol\":2538:2571  campaign.contributors[msg.sender] */\n      0x00\n        /* \"Campaign.sol\":2560:2570  msg.sender */\n      caller\n        /* \"Campaign.sol\":2538:2571  campaign.contributors[msg.sender] */\n      0xffffffffffffffffffffffffffffffffffffffff\n      and\n      0xffffffffffffffffffffffffffffffffffffffff\n      and\n      dup2\n      mstore\n      0x20\n      add\n      swap1\n      dup2\n      mstore\n      0x20\n      add\n      0x00\n      keccak256\n        /* \"Campaign.sol\":2538:2583  campaign.contributors[msg.sender] = msg.value */\n      dup2\n      swap1\n      sstore\n      pop\n        /* \"Campaign.sol\":2598:2606  campaign */\n      0x00\n        /* \"Campaign.sol\":2598:2624  campaign.contributorsCount */\n      0x05\n      add\n      0x00\n        /* \"Campaign.sol\":2598:2626  campaign.contributorsCount++ */\n      dup2\n      sload\n      dup1\n      swap3\n      swap2\n      swap1\n      tag_40\n      swap1\n      tag_41\n      jump\t// in\n    tag_40:\n      swap2\n      swap1\n      pop\n      sstore\n      pop\n        /* \"Campaign.sol\":2461:2784  if(campaign.minimumContributor == 0) {... */\n      jump(tag_42)\n    tag_39:\n        /* \"Campaign.sol\":2720:2729  msg.value */\n      callvalue\n        /* \"Campaign.sol\":2684:2692  campaign */\n      0x00\n        /* \"Campaign.sol\":2684:2705  campaign.contributors */\n      0x04\n      add\n        /* \"Campaign.sol\":2684:2717  campaign.contributors[msg.sender] */\n      0x00\n        /* \"Campaign.sol\":2706:2716  msg.sender */\n      caller\n        /* \"Campaign.sol\":2684:2717  campaign.contributors[msg.sender] */\n      0xffffffffffffffffffffffffffffffffffffffff\n      and\n      0xffffffffffffffffffffffffffffffffffffffff\n      and\n      dup2\n      mstore\n      0x20\n      add\n      swap1\n      dup2\n      mstore\n      0x20\n      add\n      0x00\n      keccak256\n        /* \"Campaign.sol\":2684:2729  campaign.contributors[msg.sender] = msg.value */\n      dup2\n      swap1\n      sstore\n      pop\n        /* \"Campaign.sol\":2744:2752  campaign */\n      0x00\n        /* \"Campaign.sol\":2744:2770  campaign.contributorsCount */\n      0x05\n      add\n      0x00\n        /* \"Campaign.sol\":2744:2772  campaign.contributorsCount++ */\n      dup2\n      sload\n      dup1\n      swap3\n      swap2\n      swap1\n      tag_43\n      swap1\n      tag_41\n      jump\t// in\n    tag_43:\n      swap2\n      swap1\n      pop\n      sstore\n      pop\n        /* \"Campaign.sol\":2461:2784  if(campaign.minimumContributor == 0) {... */\n    tag_42:\n        /* \"Campaign.sol\":2856:2864  campaign */\n      0x00\n        /* \"Campaign.sol\":2856:2880  campaign.requiredBalance */\n      0x02\n      add\n      sload\n        /* \"Campaign.sol\":2831:2852  address(this).balance */\n      selfbalance\n        /* \"Campaign.sol\":2831:2880  address(this).balance >= campaign.requiredBalance */\n      lt\n        /* \"Campaign.sol\":2828:3323  if(address(this).balance >= campaign.requiredBalance) {... */\n      tag_44\n      jumpi\n        /* \"Campaign.sol\":2931:2932  0 */\n      0x00\n        /* \"Campaign.sol\":2900:2908  campaign */\n      dup1\n        /* \"Campaign.sol\":2900:2927  campaign.minimumContributor */\n      0x08\n      add\n      sload\n        /* \"Campaign.sol\":2900:2932  campaign.minimumContributor == 0 */\n      sub\n        /* \"Campaign.sol\":2897:3312  if(campaign.minimumContributor == 0) {... */\n      tag_45\n      jumpi\n        /* \"Campaign.sol\":2982:2990  campaign */\n      0x00\n        /* \"Campaign.sol\":2982:2998  campaign.manager */\n      dup1\n      add\n      0x00\n      swap1\n      sload\n      swap1\n      0x0100\n      exp\n      swap1\n      div\n      0xffffffffffffffffffffffffffffffffffffffff\n      and\n        /* \"Campaign.sol\":2982:3007  campaign.manager.transfer */\n      0xffffffffffffffffffffffffffffffffffffffff\n      and\n        /* \"Campaign.sol\":2982:3030  campaign.manager.transfer(address(this).balance) */\n      0x08fc\n        /* \"Campaign.sol\":3008:3029  address(this).balance */\n      selfbalance\n        /* \"Campaign.sol\":2982:3030  campaign.manager.transfer(address(this).balance) */\n      swap1\n      dup2\n      iszero\n      mul\n      swap1\n      mload(0x40)\n      0x00\n      mload(0x40)\n      dup1\n      dup4\n      sub\n      dup2\n      dup6\n      dup9\n      dup9\n      call\n      swap4\n      pop\n      pop\n      pop\n      pop\n      iszero\n      dup1\n      iszero\n      tag_47\n      jumpi\n      returndatasize\n      0x00\n      dup1\n      returndatacopy\n      revert(0x00, returndatasize)\n    tag_47:\n      pop\n        /* \"Campaign.sol\":3069:3073  true */\n      0x01\n        /* \"Campaign.sol\":3049:3057  campaign */\n      0x00\n        /* \"Campaign.sol\":3049:3066  campaign.complete */\n      0x06\n      add\n      0x00\n        /* \"Campaign.sol\":3049:3073  campaign.complete = true */\n      0x0100\n      exp\n      dup2\n      sload\n      dup2\n      0xff\n      mul\n      not\n      and\n      swap1\n      dup4\n      iszero\n      iszero\n      mul\n      or\n      swap1\n      sstore\n      pop\n        /* \"Campaign.sol\":2897:3312  if(campaign.minimumContributor == 0) {... */\n      jump(tag_48)\n    tag_45:\n        /* \"Campaign.sol\":3128:3136  campaign */\n      0x00\n        /* \"Campaign.sol\":3128:3155  campaign.minimumContributor */\n      0x08\n      add\n      sload\n        /* \"Campaign.sol\":3098:3106  campaign */\n      0x00\n        /* \"Campaign.sol\":3098:3124  campaign.contributorsCount */\n      0x05\n      add\n      sload\n        /* \"Campaign.sol\":3098:3155  campaign.contributorsCount == campaign.minimumContributor */\n      sub\n        /* \"Campaign.sol\":3095:3312  if(campaign.contributorsCount == campaign.minimumContributor) {... */\n      tag_49\n      jumpi\n        /* \"Campaign.sol\":3205:3213  campaign */\n      0x00\n        /* \"Campaign.sol\":3205:3221  campaign.manager */\n      dup1\n      add\n      0x00\n      swap1\n      sload\n      swap1\n      0x0100\n      exp\n      swap1\n      div\n      0xffffffffffffffffffffffffffffffffffffffff\n      and\n        /* \"Campaign.sol\":3205:3230  campaign.manager.transfer */\n      0xffffffffffffffffffffffffffffffffffffffff\n      and\n        /* \"Campaign.sol\":3205:3253  campaign.manager.transfer(address(this).balance) */\n      0x08fc\n        /* \"Campaign.sol\":3231:3252  address(this).balance */\n      selfbalance\n        /* \"Campaign.sol\":3205:3253  campaign.manager.transfer(address(this).balance) */\n      swap1\n      dup2\n      iszero\n      mul\n      swap1\n      mload(0x40)\n      0x00\n      mload(0x40)\n      dup1\n      dup4\n      sub\n      dup2\n      dup6\n      dup9\n      dup9\n      call\n      swap4\n      pop\n      pop\n      pop\n      pop\n      iszero\n      dup1\n      iszero\n      tag_51\n      jumpi\n      returndatasize\n      0x00\n      dup1\n      returndatacopy\n      revert(0x00, returndatasize)\n    tag_51:\n      pop\n        /* \"Campaign.sol\":3292:3296  true */\n      0x01\n        /* \"Campaign.sol\":3272:3280  campaign */\n      0x00\n        /* \"Campaign.sol\":3272:3289  campaign.complete */\n      0x06\n      add\n      0x00\n        /* \"Campaign.sol\":3272:3296  campaign.complete = true */\n      0x0100\n      exp\n      dup2\n      sload\n      dup2\n      0xff\n      mul\n      not\n      and\n      swap1\n      dup4\n      iszero\n      iszero\n      mul\n      or\n      swap1\n      sstore\n      pop\n        /* \"Campaign.sol\":3095:3312  if(campaign.contributorsCount == campaign.minimumContributor) {... */\n    tag_49:\n        /* \"Campaign.sol\":2897:3312  if(campaign.minimumContributor == 0) {... */\n    tag_48:\n        /* \"Campaign.sol\":2828:3323  if(address(this).balance >= campaign.requiredBalance) {... */\n    tag_44:\n        /* \"Campaign.sol\":2098:3334  function contribute() public payable {... */\n      jump\t// out\n        /* \"#utility.yul\":7:133   */\n    tag_52:\n        /* \"#utility.yul\":44:51   */\n      0x00\n        /* \"#utility.yul\":84:126   */\n      0xffffffffffffffffffffffffffffffffffffffff\n        /* \"#utility.yul\":77:82   */\n      dup3\n        /* \"#utility.yul\":73:127   */\n      and\n        /* \"#utility.yul\":62:127   */\n      swap1\n      pop\n        /* \"#utility.yul\":7:133   */\n      swap2\n      swap1\n      pop\n      jump\t// out\n        /* \"#utility.yul\":139:235   */\n    tag_53:\n        /* \"#utility.yul\":176:183   */\n      0x00\n        /* \"#utility.yul\":205:229   */\n      tag_73\n        /* \"#utility.yul\":223:228   */\n      dup3\n        /* \"#utility.yul\":205:229   */\n      tag_52\n      jump\t// in\n    tag_73:\n        /* \"#utility.yul\":194:229   */\n      swap1\n      pop\n        /* \"#utility.yul\":139:235   */\n      swap2\n      swap1\n      pop\n      jump\t// out\n        /* \"#utility.yul\":241:359   */\n    tag_54:\n        /* \"#utility.yul\":328:352   */\n      tag_75\n        /* \"#utility.yul\":346:351   */\n      dup2\n        /* \"#utility.yul\":328:352   */\n      tag_53\n      jump\t// in\n    tag_75:\n        /* \"#utility.yul\":323:326   */\n      dup3\n        /* \"#utility.yul\":316:353   */\n      mstore\n        /* \"#utility.yul\":241:359   */\n      pop\n      pop\n      jump\t// out\n        /* \"#utility.yul\":365:442   */\n    tag_55:\n        /* \"#utility.yul\":402:409   */\n      0x00\n        /* \"#utility.yul\":431:436   */\n      dup2\n        /* \"#utility.yul\":420:436   */\n      swap1\n      pop\n        /* \"#utility.yul\":365:442   */\n      swap2\n      swap1\n      pop\n      jump\t// out\n        /* \"#utility.yul\":448:566   */\n    tag_56:\n        /* \"#utility.yul\":535:559   */\n      tag_78\n        /* \"#utility.yul\":553:558   */\n      dup2\n        /* \"#utility.yul\":535:559   */\n      tag_55\n      jump\t// in\n    tag_78:\n        /* \"#utility.yul\":530:533   */\n      dup3\n        /* \"#utility.yul\":523:560   */\n      mstore\n        /* \"#utility.yul\":448:566   */\n      pop\n      pop\n      jump\t// out\n        /* \"#utility.yul\":572:671   */\n    tag_57:\n        /* \"#utility.yul\":624:630   */\n      0x00\n        /* \"#utility.yul\":658:663   */\n      dup2\n        /* \"#utility.yul\":652:664   */\n      mload\n        /* \"#utility.yul\":642:664   */\n      swap1\n      pop\n        /* \"#utility.yul\":572:671   */\n      swap2\n      swap1\n      pop\n      jump\t// out\n        /* \"#utility.yul\":677:846   */\n    tag_58:\n        /* \"#utility.yul\":761:772   */\n      0x00\n        /* \"#utility.yul\":795:801   */\n      dup3\n        /* \"#utility.yul\":790:793   */\n      dup3\n        /* \"#utility.yul\":783:802   */\n      mstore\n        /* \"#utility.yul\":835:839   */\n      0x20\n        /* \"#utility.yul\":830:833   */\n      dup3\n        /* \"#utility.yul\":826:840   */\n      add\n        /* \"#utility.yul\":811:840   */\n      swap1\n      pop\n        /* \"#utility.yul\":677:846   */\n      swap3\n      swap2\n      pop\n      pop\n      jump\t// out\n        /* \"#utility.yul\":852:1159   */\n    tag_59:\n        /* \"#utility.yul\":920:921   */\n      0x00\n        /* \"#utility.yul\":930:1043   */\n    tag_82:\n        /* \"#utility.yul\":944:950   */\n      dup4\n        /* \"#utility.yul\":941:942   */\n      dup2\n        /* \"#utility.yul\":938:951   */\n      lt\n        /* \"#utility.yul\":930:1043   */\n      iszero\n      tag_84\n      jumpi\n        /* \"#utility.yul\":1029:1030   */\n      dup1\n        /* \"#utility.yul\":1024:1027   */\n      dup3\n        /* \"#utility.yul\":1020:1031   */\n      add\n        /* \"#utility.yul\":1014:1032   */\n      mload\n        /* \"#utility.yul\":1010:1011   */\n      dup2\n        /* \"#utility.yul\":1005:1008   */\n      dup5\n        /* \"#utility.yul\":1001:1012   */\n      add\n        /* \"#utility.yul\":994:1033   */\n      mstore\n        /* \"#utility.yul\":966:968   */\n      0x20\n        /* \"#utility.yul\":963:964   */\n      dup2\n        /* \"#utility.yul\":959:969   */\n      add\n        /* \"#utility.yul\":954:969   */\n      swap1\n      pop\n        /* \"#utility.yul\":930:1043   */\n      jump(tag_82)\n    tag_84:\n        /* \"#utility.yul\":1061:1067   */\n      dup4\n        /* \"#utility.yul\":1058:1059   */\n      dup2\n        /* \"#utility.yul\":1055:1068   */\n      gt\n        /* \"#utility.yul\":1052:1153   */\n      iszero\n      tag_85\n      jumpi\n        /* \"#utility.yul\":1141:1142   */\n      0x00\n        /* \"#utility.yul\":1132:1138   */\n      dup5\n        /* \"#utility.yul\":1127:1130   */\n      dup5\n        /* \"#utility.yul\":1123:1139   */\n      add\n        /* \"#utility.yul\":1116:1143   */\n      mstore\n        /* \"#utility.yul\":1052:1153   */\n    tag_85:\n        /* \"#utility.yul\":901:1159   */\n      pop\n        /* \"#utility.yul\":852:1159   */\n      pop\n      pop\n      pop\n      jump\t// out\n        /* \"#utility.yul\":1165:1267   */\n    tag_60:\n        /* \"#utility.yul\":1206:1212   */\n      0x00\n        /* \"#utility.yul\":1257:1259   */\n      0x1f\n        /* \"#utility.yul\":1253:1260   */\n      not\n        /* \"#utility.yul\":1248:1250   */\n      0x1f\n        /* \"#utility.yul\":1241:1246   */\n      dup4\n        /* \"#utility.yul\":1237:1251   */\n      add\n        /* \"#utility.yul\":1233:1261   */\n      and\n        /* \"#utility.yul\":1223:1261   */\n      swap1\n      pop\n        /* \"#utility.yul\":1165:1267   */\n      swap2\n      swap1\n      pop\n      jump\t// out\n        /* \"#utility.yul\":1273:1637   */\n    tag_61:\n        /* \"#utility.yul\":1361:1364   */\n      0x00\n        /* \"#utility.yul\":1389:1428   */\n      tag_88\n        /* \"#utility.yul\":1422:1427   */\n      dup3\n        /* \"#utility.yul\":1389:1428   */\n      tag_57\n      jump\t// in\n    tag_88:\n        /* \"#utility.yul\":1444:1515   */\n      tag_89\n        /* \"#utility.yul\":1508:1514   */\n      dup2\n        /* \"#utility.yul\":1503:1506   */\n      dup6\n        /* \"#utility.yul\":1444:1515   */\n      tag_58\n      jump\t// in\n    tag_89:\n        /* \"#utility.yul\":1437:1515   */\n      swap4\n      pop\n        /* \"#utility.yul\":1524:1576   */\n      tag_90\n        /* \"#utility.yul\":1569:1575   */\n      dup2\n        /* \"#utility.yul\":1564:1567   */\n      dup6\n        /* \"#utility.yul\":1557:1561   */\n      0x20\n        /* \"#utility.yul\":1550:1555   */\n      dup7\n        /* \"#utility.yul\":1546:1562   */\n      add\n        /* \"#utility.yul\":1524:1576   */\n      tag_59\n      jump\t// in\n    tag_90:\n        /* \"#utility.yul\":1601:1630   */\n      tag_91\n        /* \"#utility.yul\":1623:1629   */\n      dup2\n        /* \"#utility.yul\":1601:1630   */\n      tag_60\n      jump\t// in\n    tag_91:\n        /* \"#utility.yul\":1596:1599   */\n      dup5\n        /* \"#utility.yul\":1592:1631   */\n      add\n        /* \"#utility.yul\":1585:1631   */\n      swap2\n      pop\n        /* \"#utility.yul\":1365:1637   */\n      pop\n        /* \"#utility.yul\":1273:1637   */\n      swap3\n      swap2\n      pop\n      pop\n      jump\t// out\n        /* \"#utility.yul\":1643:1733   */\n    tag_62:\n        /* \"#utility.yul\":1677:1684   */\n      0x00\n        /* \"#utility.yul\":1720:1725   */\n      dup2\n        /* \"#utility.yul\":1713:1726   */\n      iszero\n        /* \"#utility.yul\":1706:1727   */\n      iszero\n        /* \"#utility.yul\":1695:1727   */\n      swap1\n      pop\n        /* \"#utility.yul\":1643:1733   */\n      swap2\n      swap1\n      pop\n      jump\t// out\n        /* \"#utility.yul\":1739:1848   */\n    tag_63:\n        /* \"#utility.yul\":1820:1841   */\n      tag_94\n        /* \"#utility.yul\":1835:1840   */\n      dup2\n        /* \"#utility.yul\":1820:1841   */\n      tag_62\n      jump\t// in\n    tag_94:\n        /* \"#utility.yul\":1815:1818   */\n      dup3\n        /* \"#utility.yul\":1808:1842   */\n      mstore\n        /* \"#utility.yul\":1739:1848   */\n      pop\n      pop\n      jump\t// out\n        /* \"#utility.yul\":1854:3041   */\n    tag_10:\n        /* \"#utility.yul\":2185:2189   */\n      0x00\n        /* \"#utility.yul\":2223:2226   */\n      0x0120\n        /* \"#utility.yul\":2212:2221   */\n      dup3\n        /* \"#utility.yul\":2208:2227   */\n      add\n        /* \"#utility.yul\":2200:2227   */\n      swap1\n      pop\n        /* \"#utility.yul\":2237:2308   */\n      tag_96\n        /* \"#utility.yul\":2305:2306   */\n      0x00\n        /* \"#utility.yul\":2294:2303   */\n      dup4\n        /* \"#utility.yul\":2290:2307   */\n      add\n        /* \"#utility.yul\":2281:2287   */\n      dup13\n        /* \"#utility.yul\":2237:2308   */\n      tag_54\n      jump\t// in\n    tag_96:\n        /* \"#utility.yul\":2318:2390   */\n      tag_97\n        /* \"#utility.yul\":2386:2388   */\n      0x20\n        /* \"#utility.yul\":2375:2384   */\n      dup4\n        /* \"#utility.yul\":2371:2389   */\n      add\n        /* \"#utility.yul\":2362:2368   */\n      dup12\n        /* \"#utility.yul\":2318:2390   */\n      tag_56\n      jump\t// in\n    tag_97:\n        /* \"#utility.yul\":2437:2446   */\n      dup2\n        /* \"#utility.yul\":2431:2435   */\n      dup2\n        /* \"#utility.yul\":2427:2447   */\n      sub\n        /* \"#utility.yul\":2422:2424   */\n      0x40\n        /* \"#utility.yul\":2411:2420   */\n      dup4\n        /* \"#utility.yul\":2407:2425   */\n      add\n        /* \"#utility.yul\":2400:2448   */\n      mstore\n        /* \"#utility.yul\":2465:2543   */\n      tag_98\n        /* \"#utility.yul\":2538:2542   */\n      dup2\n        /* \"#utility.yul\":2529:2535   */\n      dup11\n        /* \"#utility.yul\":2465:2543   */\n      tag_61\n      jump\t// in\n    tag_98:\n        /* \"#utility.yul\":2457:2543   */\n      swap1\n      pop\n        /* \"#utility.yul\":2553:2625   */\n      tag_99\n        /* \"#utility.yul\":2621:2623   */\n      0x60\n        /* \"#utility.yul\":2610:2619   */\n      dup4\n        /* \"#utility.yul\":2606:2624   */\n      add\n        /* \"#utility.yul\":2597:2603   */\n      dup10\n        /* \"#utility.yul\":2553:2625   */\n      tag_56\n      jump\t// in\n    tag_99:\n        /* \"#utility.yul\":2635:2708   */\n      tag_100\n        /* \"#utility.yul\":2703:2706   */\n      0x80\n        /* \"#utility.yul\":2692:2701   */\n      dup4\n        /* \"#utility.yul\":2688:2707   */\n      add\n        /* \"#utility.yul\":2679:2685   */\n      dup9\n        /* \"#utility.yul\":2635:2708   */\n      tag_56\n      jump\t// in\n    tag_100:\n        /* \"#utility.yul\":2718:2791   */\n      tag_101\n        /* \"#utility.yul\":2786:2789   */\n      0xa0\n        /* \"#utility.yul\":2775:2784   */\n      dup4\n        /* \"#utility.yul\":2771:2790   */\n      add\n        /* \"#utility.yul\":2762:2768   */\n      dup8\n        /* \"#utility.yul\":2718:2791   */\n      tag_56\n      jump\t// in\n    tag_101:\n        /* \"#utility.yul\":2801:2868   */\n      tag_102\n        /* \"#utility.yul\":2863:2866   */\n      0xc0\n        /* \"#utility.yul\":2852:2861   */\n      dup4\n        /* \"#utility.yul\":2848:2867   */\n      add\n        /* \"#utility.yul\":2839:2845   */\n      dup7\n        /* \"#utility.yul\":2801:2868   */\n      tag_63\n      jump\t// in\n    tag_102:\n        /* \"#utility.yul\":2878:2951   */\n      tag_103\n        /* \"#utility.yul\":2946:2949   */\n      0xe0\n        /* \"#utility.yul\":2935:2944   */\n      dup4\n        /* \"#utility.yul\":2931:2950   */\n      add\n        /* \"#utility.yul\":2922:2928   */\n      dup6\n        /* \"#utility.yul\":2878:2951   */\n      tag_56\n      jump\t// in\n    tag_103:\n        /* \"#utility.yul\":2961:3034   */\n      tag_104\n        /* \"#utility.yul\":3029:3032   */\n      0x0100\n        /* \"#utility.yul\":3018:3027   */\n      dup4\n        /* \"#utility.yul\":3014:3033   */\n      add\n        /* \"#utility.yul\":3005:3011   */\n      dup5\n        /* \"#utility.yul\":2961:3034   */\n      tag_56\n      jump\t// in\n    tag_104:\n        /* \"#utility.yul\":1854:3041   */\n      swap11\n      swap10\n      pop\n      pop\n      pop\n      pop\n      pop\n      pop\n      pop\n      pop\n      pop\n      pop\n      jump\t// out\n        /* \"#utility.yul\":3047:3257   */\n    tag_15:\n        /* \"#utility.yul\":3134:3138   */\n      0x00\n        /* \"#utility.yul\":3172:3174   */\n      0x20\n        /* \"#utility.yul\":3161:3170   */\n      dup3\n        /* \"#utility.yul\":3157:3175   */\n      add\n        /* \"#utility.yul\":3149:3175   */\n      swap1\n      pop\n        /* \"#utility.yul\":3185:3250   */\n      tag_106\n        /* \"#utility.yul\":3247:3248   */\n      0x00\n        /* \"#utility.yul\":3236:3245   */\n      dup4\n        /* \"#utility.yul\":3232:3249   */\n      add\n        /* \"#utility.yul\":3223:3229   */\n      dup5\n        /* \"#utility.yul\":3185:3250   */\n      tag_63\n      jump\t// in\n    tag_106:\n        /* \"#utility.yul\":3047:3257   */\n      swap3\n      swap2\n      pop\n      pop\n      jump\t// out\n        /* \"#utility.yul\":3263:3443   */\n    tag_64:\n        /* \"#utility.yul\":3311:3388   */\n      0x4e487b7100000000000000000000000000000000000000000000000000000000\n        /* \"#utility.yul\":3308:3309   */\n      0x00\n        /* \"#utility.yul\":3301:3389   */\n      mstore\n        /* \"#utility.yul\":3408:3412   */\n      0x22\n        /* \"#utility.yul\":3405:3406   */\n      0x04\n        /* \"#utility.yul\":3398:3413   */\n      mstore\n        /* \"#utility.yul\":3432:3436   */\n      0x24\n        /* \"#utility.yul\":3429:3430   */\n      0x00\n        /* \"#utility.yul\":3422:3437   */\n      revert\n        /* \"#utility.yul\":3449:3769   */\n    tag_22:\n        /* \"#utility.yul\":3493:3499   */\n      0x00\n        /* \"#utility.yul\":3530:3531   */\n      0x02\n        /* \"#utility.yul\":3524:3528   */\n      dup3\n        /* \"#utility.yul\":3520:3532   */\n      div\n        /* \"#utility.yul\":3510:3532   */\n      swap1\n      pop\n        /* \"#utility.yul\":3577:3578   */\n      0x01\n        /* \"#utility.yul\":3571:3575   */\n      dup3\n        /* \"#utility.yul\":3567:3579   */\n      and\n        /* \"#utility.yul\":3598:3616   */\n      dup1\n        /* \"#utility.yul\":3588:3669   */\n      tag_109\n      jumpi\n        /* \"#utility.yul\":3654:3658   */\n      0x7f\n        /* \"#utility.yul\":3646:3652   */\n      dup3\n        /* \"#utility.yul\":3642:3659   */\n      and\n        /* \"#utility.yul\":3632:3659   */\n      swap2\n      pop\n        /* \"#utility.yul\":3588:3669   */\n    tag_109:\n        /* \"#utility.yul\":3716:3718   */\n      0x20\n        /* \"#utility.yul\":3708:3714   */\n      dup3\n        /* \"#utility.yul\":3705:3719   */\n      lt\n        /* \"#utility.yul\":3685:3703   */\n      dup2\n        /* \"#utility.yul\":3682:3720   */\n      sub\n        /* \"#utility.yul\":3679:3763   */\n      tag_110\n      jumpi\n        /* \"#utility.yul\":3735:3753   */\n      tag_111\n      tag_64\n      jump\t// in\n    tag_111:\n        /* \"#utility.yul\":3679:3763   */\n    tag_110:\n        /* \"#utility.yul\":3500:3769   */\n      pop\n        /* \"#utility.yul\":3449:3769   */\n      swap2\n      swap1\n      pop\n      jump\t// out\n        /* \"#utility.yul\":3775:3951   */\n    tag_65:\n        /* \"#utility.yul\":3915:3943   */\n      0x63616d706169676e20616c726561647920636f6d706c65746564000000000000\n        /* \"#utility.yul\":3911:3912   */\n      0x00\n        /* \"#utility.yul\":3903:3909   */\n      dup3\n        /* \"#utility.yul\":3899:3913   */\n      add\n        /* \"#utility.yul\":3892:3944   */\n      mstore\n        /* \"#utility.yul\":3775:3951   */\n      pop\n      jump\t// out\n        /* \"#utility.yul\":3957:4323   */\n    tag_66:\n        /* \"#utility.yul\":4099:4102   */\n      0x00\n        /* \"#utility.yul\":4120:4187   */\n      tag_114\n        /* \"#utility.yul\":4184:4186   */\n      0x1a\n        /* \"#utility.yul\":4179:4182   */\n      dup4\n        /* \"#utility.yul\":4120:4187   */\n      tag_58\n      jump\t// in\n    tag_114:\n        /* \"#utility.yul\":4113:4187   */\n      swap2\n      pop\n        /* \"#utility.yul\":4196:4289   */\n      tag_115\n        /* \"#utility.yul\":4285:4288   */\n      dup3\n        /* \"#utility.yul\":4196:4289   */\n      tag_65\n      jump\t// in\n    tag_115:\n        /* \"#utility.yul\":4314:4316   */\n      0x20\n        /* \"#utility.yul\":4309:4312   */\n      dup3\n        /* \"#utility.yul\":4305:4317   */\n      add\n        /* \"#utility.yul\":4298:4317   */\n      swap1\n      pop\n        /* \"#utility.yul\":3957:4323   */\n      swap2\n      swap1\n      pop\n      jump\t// out\n        /* \"#utility.yul\":4329:4748   */\n    tag_35:\n        /* \"#utility.yul\":4495:4499   */\n      0x00\n        /* \"#utility.yul\":4533:4535   */\n      0x20\n        /* \"#utility.yul\":4522:4531   */\n      dup3\n        /* \"#utility.yul\":4518:4536   */\n      add\n        /* \"#utility.yul\":4510:4536   */\n      swap1\n      pop\n        /* \"#utility.yul\":4582:4591   */\n      dup2\n        /* \"#utility.yul\":4576:4580   */\n      dup2\n        /* \"#utility.yul\":4572:4592   */\n      sub\n        /* \"#utility.yul\":4568:4569   */\n      0x00\n        /* \"#utility.yul\":4557:4566   */\n      dup4\n        /* \"#utility.yul\":4553:4570   */\n      add\n        /* \"#utility.yul\":4546:4593   */\n      mstore\n        /* \"#utility.yul\":4610:4741   */\n      tag_117\n        /* \"#utility.yul\":4736:4740   */\n      dup2\n        /* \"#utility.yul\":4610:4741   */\n      tag_66\n      jump\t// in\n    tag_117:\n        /* \"#utility.yul\":4602:4741   */\n      swap1\n      pop\n        /* \"#utility.yul\":4329:4748   */\n      swap2\n      swap1\n      pop\n      jump\t// out\n        /* \"#utility.yul\":4754:4931   */\n    tag_67:\n        /* \"#utility.yul\":4894:4923   */\n      0x76616c7565206c657373207468616e20726571756972656d656e740000000000\n        /* \"#utility.yul\":4890:4891   */\n      0x00\n        /* \"#utility.yul\":4882:4888   */\n      dup3\n        /* \"#utility.yul\":4878:4892   */\n      add\n        /* \"#utility.yul\":4871:4924   */\n      mstore\n        /* \"#utility.yul\":4754:4931   */\n      pop\n      jump\t// out\n        /* \"#utility.yul\":4937:5303   */\n    tag_68:\n        /* \"#utility.yul\":5079:5082   */\n      0x00\n        /* \"#utility.yul\":5100:5167   */\n      tag_120\n        /* \"#utility.yul\":5164:5166   */\n      0x1b\n        /* \"#utility.yul\":5159:5162   */\n      dup4\n        /* \"#utility.yul\":5100:5167   */\n      tag_58\n      jump\t// in\n    tag_120:\n        /* \"#utility.yul\":5093:5167   */\n      swap2\n      pop\n        /* \"#utility.yul\":5176:5269   */\n      tag_121\n        /* \"#utility.yul\":5265:5268   */\n      dup3\n        /* \"#utility.yul\":5176:5269   */\n      tag_67\n      jump\t// in\n    tag_121:\n        /* \"#utility.yul\":5294:5296   */\n      0x20\n        /* \"#utility.yul\":5289:5292   */\n      dup3\n        /* \"#utility.yul\":5285:5297   */\n      add\n        /* \"#utility.yul\":5278:5297   */\n      swap1\n      pop\n        /* \"#utility.yul\":4937:5303   */\n      swap2\n      swap1\n      pop\n      jump\t// out\n        /* \"#utility.yul\":5309:5728   */\n    tag_38:\n        /* \"#utility.yul\":5475:5479   */\n      0x00\n        /* \"#utility.yul\":5513:5515   */\n      0x20\n        /* \"#utility.yul\":5502:5511   */\n      dup3\n        /* \"#utility.yul\":5498:5516   */\n      add\n        /* \"#utility.yul\":5490:5516   */\n      swap1\n      pop\n        /* \"#utility.yul\":5562:5571   */\n      dup2\n        /* \"#utility.yul\":5556:5560   */\n      dup2\n        /* \"#utility.yul\":5552:5572   */\n      sub\n        /* \"#utility.yul\":5548:5549   */\n      0x00\n        /* \"#utility.yul\":5537:5546   */\n      dup4\n        /* \"#utility.yul\":5533:5550   */\n      add\n        /* \"#utility.yul\":5526:5573   */\n      mstore\n        /* \"#utility.yul\":5590:5721   */\n      tag_123\n        /* \"#utility.yul\":5716:5720   */\n      dup2\n        /* \"#utility.yul\":5590:5721   */\n      tag_68\n      jump\t// in\n    tag_123:\n        /* \"#utility.yul\":5582:5721   */\n      swap1\n      pop\n        /* \"#utility.yul\":5309:5728   */\n      swap2\n      swap1\n      pop\n      jump\t// out\n        /* \"#utility.yul\":5734:5914   */\n    tag_69:\n        /* \"#utility.yul\":5782:5859   */\n      0x4e487b7100000000000000000000000000000000000000000000000000000000\n        /* \"#utility.yul\":5779:5780   */\n      0x00\n        /* \"#utility.yul\":5772:5860   */\n      mstore\n        /* \"#utility.yul\":5879:5883   */\n      0x11\n        /* \"#utility.yul\":5876:5877   */\n      0x04\n        /* \"#utility.yul\":5869:5884   */\n      mstore\n        /* \"#utility.yul\":5903:5907   */\n      0x24\n        /* \"#utility.yul\":5900:5901   */\n      0x00\n        /* \"#utility.yul\":5893:5908   */\n      revert\n        /* \"#utility.yul\":5920:6153   */\n    tag_41:\n        /* \"#utility.yul\":5959:5962   */\n      0x00\n        /* \"#utility.yul\":5982:6006   */\n      tag_126\n        /* \"#utility.yul\":6000:6005   */\n      dup3\n        /* \"#utility.yul\":5982:6006   */\n      tag_55\n      jump\t// in\n    tag_126:\n        /* \"#utility.yul\":5973:6006   */\n      swap2\n      pop\n        /* \"#utility.yul\":6028:6094   */\n      0xffffffffffffffffffffffffffffffffffffffffffffffffffffffffffffffff\n        /* \"#utility.yul\":6021:6026   */\n      dup3\n        /* \"#utility.yul\":6018:6095   */\n      sub\n        /* \"#utility.yul\":6015:6118   */\n      tag_127\n      jumpi\n        /* \"#utility.yul\":6098:6116   */\n      tag_128\n      tag_69\n      jump\t// in\n    tag_128:\n        /* \"#utility.yul\":6015:6118   */\n    tag_127:\n        /* \"#utility.yul\":6145:6146   */\n      0x01\n        /* \"#utility.yul\":6138:6143   */\n      dup3\n        /* \"#utility.yul\":6134:6147   */\n      add\n        /* \"#utility.yul\":6127:6147   */\n      swap1\n      pop\n        /* \"#utility.yul\":5920:6153   */\n      swap2\n      swap1\n      pop\n      jump\t// out\n\n    auxdata: 0xa26469706673582212206d1de60602ad9802aa6c1f45ef7a64fe9b5842b0e2e1174247e610536be726bb64736f6c634300080e0033\n}\n","bytecode":{"linkReferences":{},"object":"60806040523480156200001157600080fd5b5060405162000e6338038062000e638339818101604052810190620000379190620003de565b856000800160006101000a81548173ffffffffffffffffffffffffffffffffffffffff021916908373ffffffffffffffffffffffffffffffffffffffff160217905550846000600101908051906020019062000095929190620000f1565b5083600060020181905550826000600301819055506000806005018190555060008060060160006101000a81548160ff0219169083151502179055508160006007018190555080600060080181905550505050505050620004fd565b828054620000ff90620004c8565b90600052602060002090601f0160209004810192826200012357600085556200016f565b82601f106200013e57805160ff19168380011785556200016f565b828001600101855582156200016f579182015b828111156200016e57825182559160200191906001019062000151565b5b5090506200017e919062000182565b5090565b5b808211156200019d57600081600090555060010162000183565b5090565b6000604051905090565b600080fd5b600080fd5b600073ffffffffffffffffffffffffffffffffffffffff82169050919050565b6000620001e282620001b5565b9050919050565b620001f481620001d5565b81146200020057600080fd5b50565b6000815190506200021481620001e9565b92915050565b600080fd5b600080fd5b6000601f19601f8301169050919050565b7f4e487b7100000000000000000000000000000000000000000000000000000000600052604160045260246000fd5b6200026f8262000224565b810181811067ffffffffffffffff8211171562000291576200029062000235565b5b80604052505050565b6000620002a6620001a1565b9050620002b4828262000264565b919050565b600067ffffffffffffffff821115620002d757620002d662000235565b5b620002e28262000224565b9050602081019050919050565b60005b838110156200030f578082015181840152602081019050620002f2565b838111156200031f576000848401525b50505050565b60006200033c6200033684620002b9565b6200029a565b9050828152602081018484840111156200035b576200035a6200021f565b5b62000368848285620002ef565b509392505050565b600082601f8301126200038857620003876200021a565b5b81516200039a84826020860162000325565b91505092915050565b6000819050919050565b620003b881620003a3565b8114620003c457600080fd5b50565b600081519050620003d881620003ad565b92915050565b60008060008060008060c08789031215620003fe57620003fd620001ab565b5b60006200040e89828a0162000203565b965050602087015167ffffffffffffffff811115620004325762000431620001b0565b5b6200044089828a0162000370565b95505060406200045389828a01620003c7565b94505060606200046689828a01620003c7565b93505060806200047989828a01620003c7565b92505060a06200048c89828a01620003c7565b9150509295509295509295565b7f4e487b7100000000000000000000000000000000000000000000000000000000600052602260045260246000fd5b60006002820490506001821680620004e157607f821691505b602082108103620004f757620004f662000499565b5b50919050565b610956806200050d6000396000f3fe60806040526004361061003f5760003560e01c8063236b8e3a146100445780634111b033146100775780634e71d92d146100a2578063d7bb99ba146100ac575b600080fd5b34801561005057600080fd5b506100596100b6565b60405161006e999897969594939291906106c2565b60405180910390f35b34801561008357600080fd5b5061008c610202565b6040516100999190610756565b60405180910390f35b6100aa61021b565b005b6100b46102fe565b005b600080606060008060008060008060008060000160009054906101000a900473ffffffffffffffffffffffffffffffffffffffff1647826001018360020154846003015485600501548660060160009054906101000a900460ff1687600701548860040160003373ffffffffffffffffffffffffffffffffffffffff1673ffffffffffffffffffffffffffffffffffffffff16815260200190815260200160002054868054610164906107a0565b80601f0160208091040260200160405190810160405280929190818152602001828054610190906107a0565b80156101dd5780601f106101b2576101008083540402835291602001916101dd565b820191906000526020600020905b8154815290600101906020018083116101c057829003601f168201915b5050505050965099509950995099509950995099509950995050909192939495969798565b60008060060160009054906101000a900460ff16905090565b60006007015442101561022d57600080fd5b3373ffffffffffffffffffffffffffffffffffffffff166108fc600060040160003373ffffffffffffffffffffffffffffffffffffffff1673ffffffffffffffffffffffffffffffffffffffff168152602001908152602001600020549081150290604051600060405180830381858888f193505050501580156102b5573d6000803e3d6000fd5b50600060040160003373ffffffffffffffffffffffffffffffffffffffff1673ffffffffffffffffffffffffffffffffffffffff16815260200190815260200160002060009055565b600060060160009054906101000a900460ff1615610351576040517f08c379a00000000000000000000000000000000000000000000000000000000081526004016103489061081d565b60405180910390fd5b600060030154341015610399576040517f08c379a000000000000000000000000000000000000000000000000000000000815260040161039090610889565b60405180910390fd5b600080600801540361040c5734600060040160003373ffffffffffffffffffffffffffffffffffffffff1673ffffffffffffffffffffffffffffffffffffffff1681526020019081526020016000208190555060006005016000815480929190610402906108d8565b919050555061046f565b34600060040160003373ffffffffffffffffffffffffffffffffffffffff1673ffffffffffffffffffffffffffffffffffffffff1681526020019081526020016000208190555060006005016000815480929190610469906108d8565b91905055505b60006002015447106105b2576000806008015403610515576000800160009054906101000a900473ffffffffffffffffffffffffffffffffffffffff1673ffffffffffffffffffffffffffffffffffffffff166108fc479081150290604051600060405180830381858888f193505050501580156104f1573d6000803e3d6000fd5b506001600060060160006101000a81548160ff0219169083151502179055506105b1565b600060080154600060050154036105b0576000800160009054906101000a900473ffffffffffffffffffffffffffffffffffffffff1673ffffffffffffffffffffffffffffffffffffffff166108fc479081150290604051600060405180830381858888f19350505050158015610590573d6000803e3d6000fd5b506001600060060160006101000a81548160ff0219169083151502179055505b5b5b565b600073ffffffffffffffffffffffffffffffffffffffff82169050919050565b60006105df826105b4565b9050919050565b6105ef816105d4565b82525050565b6000819050919050565b610608816105f5565b82525050565b600081519050919050565b600082825260208201905092915050565b60005b8381101561064857808201518184015260208101905061062d565b83811115610657576000848401525b50505050565b6000601f19601f8301169050919050565b60006106798261060e565b6106838185610619565b935061069381856020860161062a565b61069c8161065d565b840191505092915050565b60008115159050919050565b6106bc816106a7565b82525050565b6000610120820190506106d8600083018c6105e6565b6106e5602083018b6105ff565b81810360408301526106f7818a61066e565b905061070660608301896105ff565b61071360808301886105ff565b61072060a08301876105ff565b61072d60c08301866106b3565b61073a60e08301856105ff565b6107486101008301846105ff565b9a9950505050505050505050565b600060208201905061076b60008301846106b3565b92915050565b7f4e487b7100000000000000000000000000000000000000000000000000000000600052602260045260246000fd5b600060028204905060018216806107b857607f821691505b6020821081036107cb576107ca610771565b5b50919050565b7f63616d706169676e20616c726561647920636f6d706c65746564000000000000600082015250565b6000610807601a83610619565b9150610812826107d1565b602082019050919050565b60006020820190508181036000830152610836816107fa565b9050919050565b7f76616c7565206c657373207468616e20726571756972656d656e740000000000600082015250565b6000610873601b83610619565b915061087e8261083d565b602082019050919050565b600060208201905081810360008301526108a281610866565b9050919050565b7f4e487b7100000000000000000000000000000000000000000000000000000000600052601160045260246000fd5b60006108e3826105f5565b91507fffffffffffffffffffffffffffffffffffffffffffffffffffffffffffffffff8203610915576109146108a9565b5b60018201905091905056fea26469706673582212206d1de60602ad9802aa6c1f45ef7a64fe9b5842b0e2e1174247e610536be726bb64736f6c634300080e0033","opcodes":"PUSH1 0x80 PUSH1 0x40 MSTORE CALLVALUE DUP1 ISZERO PUSH3 0x11 JUMPI PUSH1 0x0 DUP1 REVERT JUMPDEST POP PUSH1 0x40 MLOAD PUSH3 0xE63 CODESIZE SUB DUP1 PUSH3 0xE63 DUP4 CODECOPY DUP2 DUP2 ADD PUSH1 0x40 MSTORE DUP2 ADD SWAP1 PUSH3 0x37 SWAP2 SWAP1 PUSH3 0x3DE JUMP JUMPDEST DUP6 PUSH1 0x0 DUP1 ADD PUSH1 0x0 PUSH2 0x100 EXP DUP2 SLOAD DUP2 PUSH20 0xFFFFFFFFFFFFFFFFFFFFFFFFFFFFFFFFFFFFFFFF MUL NOT AND SWAP1 DUP4 PUSH20 0xFFFFFFFFFFFFFFFFFFFFFFFFFFFFFFFFFFFFFFFF AND MUL OR SWAP1 SSTORE POP DUP5 PUSH1 0x0 PUSH1 0x1 ADD SWAP1 DUP1 MLOAD SWAP1 PUSH1 0x20 ADD SWAP1 PUSH3 0x95 SWAP3 SWAP2 SWAP1 PUSH3 0xF1 JUMP JUMPDEST POP DUP4 PUSH1 0x0 PUSH1 0x2 ADD DUP2 SWAP1 SSTORE POP DUP3 PUSH1 0x0 PUSH1 0x3 ADD DUP2 SWAP1 SSTORE POP PUSH1 0x0 DUP1 PUSH1 0x5 ADD DUP2 SWAP1 SSTORE POP PUSH1 0x0 DUP1 PUSH1 0x6 ADD PUSH1 0x0 PUSH2 0x100 EXP DUP2 SLOAD DUP2 PUSH1 0xFF MUL NOT AND SWAP1 DUP4 ISZERO ISZERO MUL OR SWAP1 SSTORE POP DUP2 PUSH1 0x0 PUSH1 0x7 ADD DUP2 SWAP1 SSTORE POP DUP1 PUSH1 0x0 PUSH1 0x8 ADD DUP2 SWAP1 SSTORE POP POP POP POP POP POP POP PUSH3 0x4FD JUMP JUMPDEST DUP3 DUP1 SLOAD PUSH3 0xFF SWAP1 PUSH3 0x4C8 JUMP JUMPDEST SWAP1 PUSH1 0x0 MSTORE PUSH1 0x20 PUSH1 0x0 KECCAK256 SWAP1 PUSH1 0x1F ADD PUSH1 0x20 SWAP1 DIV DUP2 ADD SWAP3 DUP3 PUSH3 0x123 JUMPI PUSH1 0x0 DUP6 SSTORE PUSH3 0x16F JUMP JUMPDEST DUP3 PUSH1 0x1F LT PUSH3 0x13E JUMPI DUP1 MLOAD PUSH1 0xFF NOT AND DUP4 DUP1 ADD OR DUP6 SSTORE PUSH3 0x16F JUMP JUMPDEST DUP3 DUP1 ADD PUSH1 0x1 ADD DUP6 SSTORE DUP3 ISZERO PUSH3 0x16F JUMPI SWAP2 DUP3 ADD JUMPDEST DUP3 DUP2 GT ISZERO PUSH3 0x16E JUMPI DUP3 MLOAD DUP3 SSTORE SWAP2 PUSH1 0x20 ADD SWAP2 SWAP1 PUSH1 0x1 ADD SWAP1 PUSH3 0x151 JUMP JUMPDEST JUMPDEST POP SWAP1 POP PUSH3 0x17E SWAP2 SWAP1 PUSH3 0x182 JUMP JUMPDEST POP SWAP1 JUMP JUMPDEST JUMPDEST DUP1 DUP3 GT ISZERO PUSH3 0x19D JUMPI PUSH1 0x0 DUP2 PUSH1 0x0 SWAP1 SSTORE POP PUSH1 0x1 ADD PUSH3 0x183 JUMP JUMPDEST POP SWAP1 JUMP JUMPDEST PUSH1 0x0 PUSH1 0x40 MLOAD SWAP1 POP SWAP1 JUMP JUMPDEST PUSH1 0x0 DUP1 REVERT JUMPDEST PUSH1 0x0 DUP1 REVERT JUMPDEST PUSH1 0x0 PUSH20 0xFFFFFFFFFFFFFFFFFFFFFFFFFFFFFFFFFFFFFFFF DUP3 AND SWAP1 POP SWAP2 SWAP1 POP JUMP JUMPDEST PUSH1 0x0 PUSH3 0x1E2 DUP3 PUSH3 0x1B5 JUMP JUMPDEST SWAP1 POP SWAP2 SWAP1 POP JUMP JUMPDEST PUSH3 0x1F4 DUP2 PUSH3 0x1D5 JUMP JUMPDEST DUP2 EQ PUSH3 0x200 JUMPI PUSH1 0x0 DUP1 REVERT JUMPDEST POP JUMP JUMPDEST PUSH1 0x0 DUP2 MLOAD SWAP1 POP PUSH3 0x214 DUP2 PUSH3 0x1E9 JUMP JUMPDEST SWAP3 SWAP2 POP POP JUMP JUMPDEST PUSH1 0x0 DUP1 REVERT JUMPDEST PUSH1 0x0 DUP1 REVERT JUMPDEST PUSH1 0x0 PUSH1 0x1F NOT PUSH1 0x1F DUP4 ADD AND SWAP1 POP SWAP2 SWAP1 POP JUMP JUMPDEST PUSH32 0x4E487B7100000000000000000000000000000000000000000000000000000000 PUSH1 0x0 MSTORE PUSH1 0x41 PUSH1 0x4 MSTORE PUSH1 0x24 PUSH1 0x0 REVERT JUMPDEST PUSH3 0x26F DUP3 PUSH3 0x224 JUMP JUMPDEST DUP2 ADD DUP2 DUP2 LT PUSH8 0xFFFFFFFFFFFFFFFF DUP3 GT OR ISZERO PUSH3 0x291 JUMPI PUSH3 0x290 PUSH3 0x235 JUMP JUMPDEST JUMPDEST DUP1 PUSH1 0x40 MSTORE POP POP POP JUMP JUMPDEST PUSH1 0x0 PUSH3 0x2A6 PUSH3 0x1A1 JUMP JUMPDEST SWAP1 POP PUSH3 0x2B4 DUP3 DUP3 PUSH3 0x264 JUMP JUMPDEST SWAP2 SWAP1 POP JUMP JUMPDEST PUSH1 0x0 PUSH8 0xFFFFFFFFFFFFFFFF DUP3 GT ISZERO PUSH3 0x2D7 JUMPI PUSH3 0x2D6 PUSH3 0x235 JUMP JUMPDEST JUMPDEST PUSH3 0x2E2 DUP3 PUSH3 0x224 JUMP JUMPDEST SWAP1 POP PUSH1 0x20 DUP2 ADD SWAP1 POP SWAP2 SWAP1 POP JUMP JUMPDEST PUSH1 0x0 JUMPDEST DUP4 DUP2 LT ISZERO PUSH3 0x30F JUMPI DUP1 DUP3 ADD MLOAD DUP2 DUP5 ADD MSTORE PUSH1 0x20 DUP2 ADD SWAP1 POP PUSH3 0x2F2 JUMP JUMPDEST DUP4 DUP2 GT ISZERO PUSH3 0x31F JUMPI PUSH1 0x0 DUP5 DUP5 ADD MSTORE JUMPDEST POP POP POP POP JUMP JUMPDEST PUSH1 0x0 PUSH3 0x33C PUSH3 0x336 DUP5 PUSH3 0x2B9 JUMP JUMPDEST PUSH3 0x29A JUMP JUMPDEST SWAP1 POP DUP3 DUP2 MSTORE PUSH1 0x20 DUP2 ADD DUP5 DUP5 DUP5 ADD GT ISZERO PUSH3 0x35B JUMPI PUSH3 0x35A PUSH3 0x21F JUMP JUMPDEST JUMPDEST PUSH3 0x368 DUP5 DUP3 DUP6 PUSH3 0x2EF JUMP JUMPDEST POP SWAP4 SWAP3 POP POP POP JUMP JUMPDEST PUSH1 0x0 DUP3 PUSH1 0x1F DUP4 ADD SLT PUSH3 0x388 JUMPI PUSH3 0x387 PUSH3 0x21A JUMP JUMPDEST JUMPDEST DUP2 MLOAD PUSH3 0x39A DUP5 DUP3 PUSH1 0x20 DUP7 ADD PUSH3 0x325 JUMP JUMPDEST SWAP2 POP POP SWAP3 SWAP2 POP POP JUMP JUMPDEST PUSH1 0x0 DUP2 SWAP1 POP SWAP2 SWAP1 POP JUMP JUMPDEST PUSH3 0x3B8 DUP2 PUSH3 0x3A3 JUMP JUMPDEST DUP2 EQ PUSH3 0x3C4 JUMPI PUSH1 0x0 DUP1 REVERT JUMPDEST POP JUMP JUMPDEST PUSH1 0x0 DUP2 MLOAD SWAP1 POP PUSH3 0x3D8 DUP2 PUSH3 0x3AD JUMP JUMPDEST SWAP3 SWAP2 POP POP JUMP JUMPDEST PUSH1 0x0 DUP1 PUSH1 0x0 DUP1 PUSH1 0x0 DUP1 PUSH1 0xC0 DUP8 DUP10 SUB SLT ISZERO PUSH3 0x3FE JUMPI PUSH3 0x3FD PUSH3 0x1AB JUMP JUMPDEST JUMPDEST PUSH1 0x0 PUSH3 0x40E DUP10 DUP3 DUP11 ADD PUSH3 0x203 JUMP JUMPDEST SWAP7 POP POP PUSH1 0x20 DUP8 ADD MLOAD PUSH8 0xFFFFFFFFFFFFFFFF DUP2 GT ISZERO PUSH3 0x432 JUMPI PUSH3 0x431 PUSH3 0x1B0 JUMP JUMPDEST JUMPDEST PUSH3 0x440 DUP10 DUP3 DUP11 ADD PUSH3 0x370 JUMP JUMPDEST SWAP6 POP POP PUSH1 0x40 PUSH3 0x453 DUP10 DUP3 DUP11 ADD PUSH3 0x3C7 JUMP JUMPDEST SWAP5 POP POP PUSH1 0x60 PUSH3 0x466 DUP10 DUP3 DUP11 ADD PUSH3 0x3C7 JUMP JUMPDEST SWAP4 POP POP PUSH1 0x80 PUSH3 0x479 DUP10 DUP3 DUP11 ADD PUSH3 0x3C7 JUMP JUMPDEST SWAP3 POP POP PUSH1 0xA0 PUSH3 0x48C DUP10 DUP3 DUP11 ADD PUSH3 0x3C7 JUMP JUMPDEST SWAP2 POP POP SWAP3 SWAP6 POP SWAP3 SWAP6 POP SWAP3 SWAP6 JUMP JUMPDEST PUSH32 0x4E487B7100000000000000000000000000000000000000000000000000000000 PUSH1 0x0 MSTORE PUSH1 0x22 PUSH1 0x4 MSTORE PUSH1 0x24 PUSH1 0x0 REVERT JUMPDEST PUSH1 0x0 PUSH1 0x2 DUP3 DIV SWAP1 POP PUSH1 0x1 DUP3 AND DUP1 PUSH3 0x4E1 JUMPI PUSH1 0x7F DUP3 AND SWAP2 POP JUMPDEST PUSH1 0x20 DUP3 LT DUP2 SUB PUSH3 0x4F7 JUMPI PUSH3 0x4F6 PUSH3 0x499 JUMP JUMPDEST JUMPDEST POP SWAP2 SWAP1 POP JUMP JUMPDEST PUSH2 0x956 DUP1 PUSH3 0x50D PUSH1 0x0 CODECOPY PUSH1 0x0 RETURN INVALID PUSH1 0x80 PUSH1 0x40 MSTORE PUSH1 0x4 CALLDATASIZE LT PUSH2 0x3F JUMPI PUSH1 0x0 CALLDATALOAD PUSH1 0xE0 SHR DUP1 PUSH4 0x236B8E3A EQ PUSH2 0x44 JUMPI DUP1 PUSH4 0x4111B033 EQ PUSH2 0x77 JUMPI DUP1 PUSH4 0x4E71D92D EQ PUSH2 0xA2 JUMPI DUP1 PUSH4 0xD7BB99BA EQ PUSH2 0xAC JUMPI JUMPDEST PUSH1 0x0 DUP1 REVERT JUMPDEST CALLVALUE DUP1 ISZERO PUSH2 0x50 JUMPI PUSH1 0x0 DUP1 REVERT JUMPDEST POP PUSH2 0x59 PUSH2 0xB6 JUMP JUMPDEST PUSH1 0x40 MLOAD PUSH2 0x6E SWAP10 SWAP9 SWAP8 SWAP7 SWAP6 SWAP5 SWAP4 SWAP3 SWAP2 SWAP1 PUSH2 0x6C2 JUMP JUMPDEST PUSH1 0x40 MLOAD DUP1 SWAP2 SUB SWAP1 RETURN JUMPDEST CALLVALUE DUP1 ISZERO PUSH2 0x83 JUMPI PUSH1 0x0 DUP1 REVERT JUMPDEST POP PUSH2 0x8C PUSH2 0x202 JUMP JUMPDEST PUSH1 0x40 MLOAD PUSH2 0x99 SWAP2 SWAP1 PUSH2 0x756 JUMP JUMPDEST PUSH1 0x40 MLOAD DUP1 SWAP2 SUB SWAP1 RETURN JUMPDEST PUSH2 0xAA PUSH2 0x21B JUMP JUMPDEST STOP JUMPDEST PUSH2 0xB4 PUSH2 0x2FE JUMP JUMPDEST STOP JUMPDEST PUSH1 0x0 DUP1 PUSH1 0x60 PUSH1 0x0 DUP1 PUSH1 0x0 DUP1 PUSH1 0x0 DUP1 PUSH1 0x0 DUP1 PUSH1 0x0 ADD PUSH1 0x0 SWAP1 SLOAD SWAP1 PUSH2 0x100 EXP SWAP1 DIV PUSH20 0xFFFFFFFFFFFFFFFFFFFFFFFFFFFFFFFFFFFFFFFF AND SELFBALANCE DUP3 PUSH1 0x1 ADD DUP4 PUSH1 0x2 ADD SLOAD DUP5 PUSH1 0x3 ADD SLOAD DUP6 PUSH1 0x5 ADD SLOAD DUP7 PUSH1 0x6 ADD PUSH1 0x0 SWAP1 SLOAD SWAP1 PUSH2 0x100 EXP SWAP1 DIV PUSH1 0xFF AND DUP8 PUSH1 0x7 ADD SLOAD DUP9 PUSH1 0x4 ADD PUSH1 0x0 CALLER PUSH20 0xFFFFFFFFFFFFFFFFFFFFFFFFFFFFFFFFFFFFFFFF AND PUSH20 0xFFFFFFFFFFFFFFFFFFFFFFFFFFFFFFFFFFFFFFFF AND DUP2 MSTORE PUSH1 0x20 ADD SWAP1 DUP2 MSTORE PUSH1 0x20 ADD PUSH1 0x0 KECCAK256 SLOAD DUP7 DUP1 SLOAD PUSH2 0x164 SWAP1 PUSH2 0x7A0 JUMP JUMPDEST DUP1 PUSH1 0x1F ADD PUSH1 0x20 DUP1 SWAP2 DIV MUL PUSH1 0x20 ADD PUSH1 0x40 MLOAD SWAP1 DUP2 ADD PUSH1 0x40 MSTORE DUP1 SWAP3 SWAP2 SWAP1 DUP2 DUP2 MSTORE PUSH1 0x20 ADD DUP3 DUP1 SLOAD PUSH2 0x190 SWAP1 PUSH2 0x7A0 JUMP JUMPDEST DUP1 ISZERO PUSH2 0x1DD JUMPI DUP1 PUSH1 0x1F LT PUSH2 0x1B2 JUMPI PUSH2 0x100 DUP1 DUP4 SLOAD DIV MUL DUP4 MSTORE SWAP2 PUSH1 0x20 ADD SWAP2 PUSH2 0x1DD JUMP JUMPDEST DUP3 ADD SWAP2 SWAP1 PUSH1 0x0 MSTORE PUSH1 0x20 PUSH1 0x0 KECCAK256 SWAP1 JUMPDEST DUP2 SLOAD DUP2 MSTORE SWAP1 PUSH1 0x1 ADD SWAP1 PUSH1 0x20 ADD DUP1 DUP4 GT PUSH2 0x1C0 JUMPI DUP3 SWAP1 SUB PUSH1 0x1F AND DUP3 ADD SWAP2 JUMPDEST POP POP POP POP POP SWAP7 POP SWAP10 POP SWAP10 POP SWAP10 POP SWAP10 POP SWAP10 POP SWAP10 POP SWAP10 POP SWAP10 POP SWAP10 POP POP SWAP1 SWAP2 SWAP3 SWAP4 SWAP5 SWAP6 SWAP7 SWAP8 SWAP9 JUMP JUMPDEST PUSH1 0x0 DUP1 PUSH1 0x6 ADD PUSH1 0x0 SWAP1 SLOAD SWAP1 PUSH2 0x100 EXP SWAP1 DIV PUSH1 0xFF AND SWAP1 POP SWAP1 JUMP JUMPDEST PUSH1 0x0 PUSH1 0x7 ADD SLOAD TIMESTAMP LT ISZERO PUSH2 0x22D JUMPI PUSH1 0x0 DUP1 REVERT JUMPDEST CALLER PUSH20 0xFFFFFFFFFFFFFFFFFFFFFFFFFFFFFFFFFFFFFFFF AND PUSH2 0x8FC PUSH1 0x0 PUSH1 0x4 ADD PUSH1 0x0 CALLER PUSH20 0xFFFFFFFFFFFFFFFFFFFFFFFFFFFFFFFFFFFFFFFF AND PUSH20 0xFFFFFFFFFFFFFFFFFFFFFFFFFFFFFFFFFFFFFFFF AND DUP2 MSTORE PUSH1 0x20 ADD SWAP1 DUP2 MSTORE PUSH1 0x20 ADD PUSH1 0x0 KECCAK256 SLOAD SWAP1 DUP2 ISZERO MUL SWAP1 PUSH1 0x40 MLOAD PUSH1 0x0 PUSH1 0x40 MLOAD DUP1 DUP4 SUB DUP2 DUP6 DUP9 DUP9 CALL SWAP4 POP POP POP POP ISZERO DUP1 ISZERO PUSH2 0x2B5 JUMPI RETURNDATASIZE PUSH1 0x0 DUP1 RETURNDATACOPY RETURNDATASIZE PUSH1 0x0 REVERT JUMPDEST POP PUSH1 0x0 PUSH1 0x4 ADD PUSH1 0x0 CALLER PUSH20 0xFFFFFFFFFFFFFFFFFFFFFFFFFFFFFFFFFFFFFFFF AND PUSH20 0xFFFFFFFFFFFFFFFFFFFFFFFFFFFFFFFFFFFFFFFF AND DUP2 MSTORE PUSH1 0x20 ADD SWAP1 DUP2 MSTORE PUSH1 0x20 ADD PUSH1 0x0 KECCAK256 PUSH1 0x0 SWAP1 SSTORE JUMP JUMPDEST PUSH1 0x0 PUSH1 0x6 ADD PUSH1 0x0 SWAP1 SLOAD SWAP1 PUSH2 0x100 EXP SWAP1 DIV PUSH1 0xFF AND ISZERO PUSH2 0x351 JUMPI PUSH1 0x40 MLOAD PUSH32 0x8C379A000000000000000000000000000000000000000000000000000000000 DUP2 MSTORE PUSH1 0x4 ADD PUSH2 0x348 SWAP1 PUSH2 0x81D JUMP JUMPDEST PUSH1 0x40 MLOAD DUP1 SWAP2 SUB SWAP1 REVERT JUMPDEST PUSH1 0x0 PUSH1 0x3 ADD SLOAD CALLVALUE LT ISZERO PUSH2 0x399 JUMPI PUSH1 0x40 MLOAD PUSH32 0x8C379A000000000000000000000000000000000000000000000000000000000 DUP2 MSTORE PUSH1 0x4 ADD PUSH2 0x390 SWAP1 PUSH2 0x889 JUMP JUMPDEST PUSH1 0x40 MLOAD DUP1 SWAP2 SUB SWAP1 REVERT JUMPDEST PUSH1 0x0 DUP1 PUSH1 0x8 ADD SLOAD SUB PUSH2 0x40C JUMPI CALLVALUE PUSH1 0x0 PUSH1 0x4 ADD PUSH1 0x0 CALLER PUSH20 0xFFFFFFFFFFFFFFFFFFFFFFFFFFFFFFFFFFFFFFFF AND PUSH20 0xFFFFFFFFFFFFFFFFFFFFFFFFFFFFFFFFFFFFFFFF AND DUP2 MSTORE PUSH1 0x20 ADD SWAP1 DUP2 MSTORE PUSH1 0x20 ADD PUSH1 0x0 KECCAK256 DUP2 SWAP1 SSTORE POP PUSH1 0x0 PUSH1 0x5 ADD PUSH1 0x0 DUP2 SLOAD DUP1 SWAP3 SWAP2 SWAP1 PUSH2 0x402 SWAP1 PUSH2 0x8D8 JUMP JUMPDEST SWAP2 SWAP1 POP SSTORE POP PUSH2 0x46F JUMP JUMPDEST CALLVALUE PUSH1 0x0 PUSH1 0x4 ADD PUSH1 0x0 CALLER PUSH20 0xFFFFFFFFFFFFFFFFFFFFFFFFFFFFFFFFFFFFFFFF AND PUSH20 0xFFFFFFFFFFFFFFFFFFFFFFFFFFFFFFFFFFFFFFFF AND DUP2 MSTORE PUSH1 0x20 ADD SWAP1 DUP2 MSTORE PUSH1 0x20 ADD PUSH1 0x0 KECCAK256 DUP2 SWAP1 SSTORE POP PUSH1 0x0 PUSH1 0x5 ADD PUSH1 0x0 DUP2 SLOAD DUP1 SWAP3 SWAP2 SWAP1 PUSH2 0x469 SWAP1 PUSH2 0x8D8 JUMP JUMPDEST SWAP2 SWAP1 POP SSTORE POP JUMPDEST PUSH1 0x0 PUSH1 0x2 ADD SLOAD SELFBALANCE LT PUSH2 0x5B2 JUMPI PUSH1 0x0 DUP1 PUSH1 0x8 ADD SLOAD SUB PUSH2 0x515 JUMPI PUSH1 0x0 DUP1 ADD PUSH1 0x0 SWAP1 SLOAD SWAP1 PUSH2 0x100 EXP SWAP1 DIV PUSH20 0xFFFFFFFFFFFFFFFFFFFFFFFFFFFFFFFFFFFFFFFF AND PUSH20 0xFFFFFFFFFFFFFFFFFFFFFFFFFFFFFFFFFFFFFFFF AND PUSH2 0x8FC SELFBALANCE SWAP1 DUP2 ISZERO MUL SWAP1 PUSH1 0x40 MLOAD PUSH1 0x0 PUSH1 0x40 MLOAD DUP1 DUP4 SUB DUP2 DUP6 DUP9 DUP9 CALL SWAP4 POP POP POP POP ISZERO DUP1 ISZERO PUSH2 0x4F1 JUMPI RETURNDATASIZE PUSH1 0x0 DUP1 RETURNDATACOPY RETURNDATASIZE PUSH1 0x0 REVERT JUMPDEST POP PUSH1 0x1 PUSH1 0x0 PUSH1 0x6 ADD PUSH1 0x0 PUSH2 0x100 EXP DUP2 SLOAD DUP2 PUSH1 0xFF MUL NOT AND SWAP1 DUP4 ISZERO ISZERO MUL OR SWAP1 SSTORE POP PUSH2 0x5B1 JUMP JUMPDEST PUSH1 0x0 PUSH1 0x8 ADD SLOAD PUSH1 0x0 PUSH1 0x5 ADD SLOAD SUB PUSH2 0x5B0 JUMPI PUSH1 0x0 DUP1 ADD PUSH1 0x0 SWAP1 SLOAD SWAP1 PUSH2 0x100 EXP SWAP1 DIV PUSH20 0xFFFFFFFFFFFFFFFFFFFFFFFFFFFFFFFFFFFFFFFF AND PUSH20 0xFFFFFFFFFFFFFFFFFFFFFFFFFFFFFFFFFFFFFFFF AND PUSH2 0x8FC SELFBALANCE SWAP1 DUP2 ISZERO MUL SWAP1 PUSH1 0x40 MLOAD PUSH1 0x0 PUSH1 0x40 MLOAD DUP1 DUP4 SUB DUP2 DUP6 DUP9 DUP9 CALL SWAP4 POP POP POP POP ISZERO DUP1 ISZERO PUSH2 0x590 JUMPI RETURNDATASIZE PUSH1 0x0 DUP1 RETURNDATACOPY RETURNDATASIZE PUSH1 0x0 REVERT JUMPDEST POP PUSH1 0x1 PUSH1 0x0 PUSH1 0x6 ADD PUSH1 0x0 PUSH2 0x100 EXP DUP2 SLOAD DUP2 PUSH1 0xFF MUL NOT AND SWAP1 DUP4 ISZERO ISZERO MUL OR SWAP1 SSTORE POP JUMPDEST JUMPDEST JUMPDEST JUMP JUMPDEST PUSH1 0x0 PUSH20 0xFFFFFFFFFFFFFFFFFFFFFFFFFFFFFFFFFFFFFFFF DUP3 AND SWAP1 POP SWAP2 SWAP1 POP JUMP JUMPDEST PUSH1 0x0 PUSH2 0x5DF DUP3 PUSH2 0x5B4 JUMP JUMPDEST SWAP1 POP SWAP2 SWAP1 POP JUMP JUMPDEST PUSH2 0x5EF DUP2 PUSH2 0x5D4 JUMP JUMPDEST DUP3 MSTORE POP POP JUMP JUMPDEST PUSH1 0x0 DUP2 SWAP1 POP SWAP2 SWAP1 POP JUMP JUMPDEST PUSH2 0x608 DUP2 PUSH2 0x5F5 JUMP JUMPDEST DUP3 MSTORE POP POP JUMP JUMPDEST PUSH1 0x0 DUP2 MLOAD SWAP1 POP SWAP2 SWAP1 POP JUMP JUMPDEST PUSH1 0x0 DUP3 DUP3 MSTORE PUSH1 0x20 DUP3 ADD SWAP1 POP SWAP3 SWAP2 POP POP JUMP JUMPDEST PUSH1 0x0 JUMPDEST DUP4 DUP2 LT ISZERO PUSH2 0x648 JUMPI DUP1 DUP3 ADD MLOAD DUP2 DUP5 ADD MSTORE PUSH1 0x20 DUP2 ADD SWAP1 POP PUSH2 0x62D JUMP JUMPDEST DUP4 DUP2 GT ISZERO PUSH2 0x657 JUMPI PUSH1 0x0 DUP5 DUP5 ADD MSTORE JUMPDEST POP POP POP POP JUMP JUMPDEST PUSH1 0x0 PUSH1 0x1F NOT PUSH1 0x1F DUP4 ADD AND SWAP1 POP SWAP2 SWAP1 POP JUMP JUMPDEST PUSH1 0x0 PUSH2 0x679 DUP3 PUSH2 0x60E JUMP JUMPDEST PUSH2 0x683 DUP2 DUP6 PUSH2 0x619 JUMP JUMPDEST SWAP4 POP PUSH2 0x693 DUP2 DUP6 PUSH1 0x20 DUP7 ADD PUSH2 0x62A JUMP JUMPDEST PUSH2 0x69C DUP2 PUSH2 0x65D JUMP JUMPDEST DUP5 ADD SWAP2 POP POP SWAP3 SWAP2 POP POP JUMP JUMPDEST PUSH1 0x0 DUP2 ISZERO ISZERO SWAP1 POP SWAP2 SWAP1 POP JUMP JUMPDEST PUSH2 0x6BC DUP2 PUSH2 0x6A7 JUMP JUMPDEST DUP3 MSTORE POP POP JUMP JUMPDEST PUSH1 0x0 PUSH2 0x120 DUP3 ADD SWAP1 POP PUSH2 0x6D8 PUSH1 0x0 DUP4 ADD DUP13 PUSH2 0x5E6 JUMP JUMPDEST PUSH2 0x6E5 PUSH1 0x20 DUP4 ADD DUP12 PUSH2 0x5FF JUMP JUMPDEST DUP2 DUP2 SUB PUSH1 0x40 DUP4 ADD MSTORE PUSH2 0x6F7 DUP2 DUP11 PUSH2 0x66E JUMP JUMPDEST SWAP1 POP PUSH2 0x706 PUSH1 0x60 DUP4 ADD DUP10 PUSH2 0x5FF JUMP JUMPDEST PUSH2 0x713 PUSH1 0x80 DUP4 ADD DUP9 PUSH2 0x5FF JUMP JUMPDEST PUSH2 0x720 PUSH1 0xA0 DUP4 ADD DUP8 PUSH2 0x5FF JUMP JUMPDEST PUSH2 0x72D PUSH1 0xC0 DUP4 ADD DUP7 PUSH2 0x6B3 JUMP JUMPDEST PUSH2 0x73A PUSH1 0xE0 DUP4 ADD DUP6 PUSH2 0x5FF JUMP JUMPDEST PUSH2 0x748 PUSH2 0x100 DUP4 ADD DUP5 PUSH2 0x5FF JUMP JUMPDEST SWAP11 SWAP10 POP POP POP POP POP POP POP POP POP POP JUMP JUMPDEST PUSH1 0x0 PUSH1 0x20 DUP3 ADD SWAP1 POP PUSH2 0x76B PUSH1 0x0 DUP4 ADD DUP5 PUSH2 0x6B3 JUMP JUMPDEST SWAP3 SWAP2 POP POP JUMP JUMPDEST PUSH32 0x4E487B7100000000000000000000000000000000000000000000000000000000 PUSH1 0x0 MSTORE PUSH1 0x22 PUSH1 0x4 MSTORE PUSH1 0x24 PUSH1 0x0 REVERT JUMPDEST PUSH1 0x0 PUSH1 0x2 DUP3 DIV SWAP1 POP PUSH1 0x1 DUP3 AND DUP1 PUSH2 0x7B8 JUMPI PUSH1 0x7F DUP3 AND SWAP2 POP JUMPDEST PUSH1 0x20 DUP3 LT DUP2 SUB PUSH2 0x7CB JUMPI PUSH2 0x7CA PUSH2 0x771 JUMP JUMPDEST JUMPDEST POP SWAP2 SWAP1 POP JUMP JUMPDEST PUSH32 0x63616D706169676E20616C726561647920636F6D706C65746564000000000000 PUSH1 0x0 DUP3 ADD MSTORE POP JUMP JUMPDEST PUSH1 0x0 PUSH2 0x807 PUSH1 0x1A DUP4 PUSH2 0x619 JUMP JUMPDEST SWAP2 POP PUSH2 0x812 DUP3 PUSH2 0x7D1 JUMP JUMPDEST PUSH1 0x20 DUP3 ADD SWAP1 POP SWAP2 SWAP1 POP JUMP JUMPDEST PUSH1 0x0 PUSH1 0x20 DUP3 ADD SWAP1 POP DUP2 DUP2 SUB PUSH1 0x0 DUP4 ADD MSTORE PUSH2 0x836 DUP2 PUSH2 0x7FA JUMP JUMPDEST SWAP1 POP SWAP2 SWAP1 POP JUMP JUMPDEST PUSH32 0x76616C7565206C657373207468616E20726571756972656D656E740000000000 PUSH1 0x0 DUP3 ADD MSTORE POP JUMP JUMPDEST PUSH1 0x0 PUSH2 0x873 PUSH1 0x1B DUP4 PUSH2 0x619 JUMP JUMPDEST SWAP2 POP PUSH2 0x87E DUP3 PUSH2 0x83D JUMP JUMPDEST PUSH1 0x20 DUP3 ADD SWAP1 POP SWAP2 SWAP1 POP JUMP JUMPDEST PUSH1 0x0 PUSH1 0x20 DUP3 ADD SWAP1 POP DUP2 DUP2 SUB PUSH1 0x0 DUP4 ADD MSTORE PUSH2 0x8A2 DUP2 PUSH2 0x866 JUMP JUMPDEST SWAP1 POP SWAP2 SWAP1 POP JUMP JUMPDEST PUSH32 0x4E487B7100000000000000000000000000000000000000000000000000000000 PUSH1 0x0 MSTORE PUSH1 0x11 PUSH1 0x4 MSTORE PUSH1 0x24 PUSH1 0x0 REVERT JUMPDEST PUSH1 0x0 PUSH2 0x8E3 DUP3 PUSH2 0x5F5 JUMP JUMPDEST SWAP2 POP PUSH32 0xFFFFFFFFFFFFFFFFFFFFFFFFFFFFFFFFFFFFFFFFFFFFFFFFFFFFFFFFFFFFFFFF DUP3 SUB PUSH2 0x915 JUMPI PUSH2 0x914 PUSH2 0x8A9 JUMP JUMPDEST JUMPDEST PUSH1 0x1 DUP3 ADD SWAP1 POP SWAP2 SWAP1 POP JUMP INVALID LOG2 PUSH5 0x6970667358 0x22 SLT KECCAK256 PUSH14 0x1DE60602AD9802AA6C1F45EF7A64 INVALID SWAP12 PC TIMESTAMP 0xB0 0xE2 0xE1 OR TIMESTAMP SELFBALANCE 0xE6 LT MSTORE8 PUSH12 0xE726BB64736F6C634300080E STOP CALLER "},"gasEstimates":{"creation":{"codeDepositCost":"478000","executionCost":"infinite","totalCost":"infinite"},"external":{"claim()":"infinite","contribute()":"infinite","getCampaign()":"infinite","getIsComplete()":"2485"}},"methodIdentifiers":{"claim()":"4e71d92d","contribute()":"d7bb99ba","getCampaign()":"236b8e3a","getIsComplete()":"4111b033"}},"storageLayout":{"storage":[{"astId":110,"contract":"Campaign.sol:Campaign","label":"campaign","offset":0,"slot":"0","type":"t_struct(Information)107_storage"}],"types":{"t_address":{"encoding":"inplace","label":"address","numberOfBytes":"20"},"t_address_payable":{"encoding":"inplace","label":"address payable","numberOfBytes":"20"},"t_bool":{"encoding":"inplace","label":"bool","numberOfBytes":"1"},"t_mapping(t_address,t_uint256)":{"encoding":"mapping","key":"t_address","label":"mapping(address => uint256)","numberOfBytes":"32","value":"t_uint256"},"t_string_storage":{"encoding":"bytes","label":"string","numberOfBytes":"32"},"t_struct(Information)107_storage":{"encoding":"inplace","label":"struct Campaign.Information","members":[{"astId":88,"contract":"Campaign.sol:Campaign","label":"manager","offset":0,"slot":"0","type":"t_address_payable"},{"astId":90,"contract":"Campaign.sol:Campaign","label":"name","offset":0,"slot":"1","type":"t_string_storage"},{"astId":92,"contract":"Campaign.sol:Campaign","label":"requiredBalance","offset":0,"slot":"2","type":"t_uint256"},{"astId":94,"contract":"Campaign.sol:Campaign","label":"requiredCost","offset":0,"slot":"3","type":"t_uint256"},{"astId":98,"contract":"Campaign.sol:Campaign","label":"contributors","offset":0,"slot":"4","type":"t_mapping(t_address,t_uint256)"},{"astId":100,"contract":"Campaign.sol:Campaign","label":"contributorsCount","offset":0,"slot":"5","type":"t_uint256"},{"astId":102,"contract":"Campaign.sol:Campaign","label":"complete","offset":0,"slot":"6","type":"t_bool"},{"astId":104,"contract":"Campaign.sol:Campaign","label":"deadline","offset":0,"slot":"7","type":"t_uint256"},{"astId":106,"contract":"Campaign.sol:Campaign","label":"minimumContributor","offset":0,"slot":"8","type":"t_uint256"}],"numberOfBytes":"288"},"t_uint256":{"encoding":"inplace","label":"uint256","numberOfBytes":"32"}}},"userdoc":{"kind":"user","methods":{},"version":1}}