{"abi":[{"inputs":[{"internalType":"string","name":"campaignName","type":"string"},{"internalType":"uint256","name":"requiredBalance","type":"uint256"},{"internalType":"uint256","name":"requiredCost","type":"uint256"},{"internalType":"uint256","name":"deadline","type":"uint256"}],"name":"createCampaign","outputs":[{"internalType":"address","name":"","type":"address"}],"stateMutability":"nonpayable","type":"function"},{"inputs":[],"name":"getDeployedCampaigns","outputs":[{"internalType":"address[]","name":"","type":"address[]"},{"internalType":"string[]","name":"","type":"string[]"}],"stateMutability":"view","type":"function"}],"devdoc":{"kind":"dev","methods":{},"version":1},"evm":{"assembly":"    /* \"Campaign.sol\":119:768  contract CampaignFactory {... */\n  mstore(0x40, 0x80)\n  callvalue\n  dup1\n  iszero\n  tag_1\n  jumpi\n  0x00\n  dup1\n  revert\ntag_1:\n  pop\n  dataSize(sub_0)\n  dup1\n  dataOffset(sub_0)\n  0x00\n  codecopy\n  0x00\n  return\nstop\n\nsub_0: assembly {\n        /* \"Campaign.sol\":119:768  contract CampaignFactory {... */\n      mstore(0x40, 0x80)\n      callvalue\n      dup1\n      iszero\n      tag_1\n      jumpi\n      0x00\n      dup1\n      revert\n    tag_1:\n      pop\n      jumpi(tag_2, lt(calldatasize, 0x04))\n      shr(0xe0, calldataload(0x00))\n      dup1\n      0x4acb9d4f\n      eq\n      tag_3\n      jumpi\n      dup1\n      0xb5a898ae\n      eq\n      tag_4\n      jumpi\n    tag_2:\n      0x00\n      dup1\n      revert\n        /* \"Campaign.sol\":617:765  function getDeployedCampaigns() public view returns (address[] memory, string[] memory) {... */\n    tag_3:\n      tag_5\n      tag_6\n      jump\t// in\n    tag_5:\n      mload(0x40)\n      tag_7\n      swap3\n      swap2\n      swap1\n      tag_8\n      jump\t// in\n    tag_7:\n      mload(0x40)\n      dup1\n      swap2\n      sub\n      swap1\n      return\n        /* \"Campaign.sol\":216:609  function createCampaign(string memory campaignName, uint requiredBalance, uint requiredCost, uint256 deadline) public returns (address) {... */\n    tag_4:\n      tag_9\n      0x04\n      dup1\n      calldatasize\n      sub\n      dup2\n      add\n      swap1\n      tag_10\n      swap2\n      swap1\n      tag_11\n      jump\t// in\n    tag_10:\n      tag_12\n      jump\t// in\n    tag_9:\n      mload(0x40)\n      tag_13\n      swap2\n      swap1\n      tag_14\n      jump\t// in\n    tag_13:\n      mload(0x40)\n      dup1\n      swap2\n      sub\n      swap1\n      return\n        /* \"Campaign.sol\":617:765  function getDeployedCampaigns() public view returns (address[] memory, string[] memory) {... */\n    tag_6:\n        /* \"Campaign.sol\":670:686  address[] memory */\n      0x60\n        /* \"Campaign.sol\":688:703  string[] memory */\n      dup1\n        /* \"Campaign.sol\":724:741  deployedCampaigns */\n      0x00\n        /* \"Campaign.sol\":743:756  campaignsName */\n      0x01\n        /* \"Campaign.sol\":716:757  return (deployedCampaigns, campaignsName) */\n      dup2\n      dup1\n      sload\n      dup1\n      0x20\n      mul\n      0x20\n      add\n      mload(0x40)\n      swap1\n      dup2\n      add\n      0x40\n      mstore\n      dup1\n      swap3\n      swap2\n      swap1\n      dup2\n      dup2\n      mstore\n      0x20\n      add\n      dup3\n      dup1\n      sload\n      dup1\n      iszero\n      tag_16\n      jumpi\n      0x20\n      mul\n      dup3\n      add\n      swap2\n      swap1\n      0x00\n      mstore\n      keccak256(0x00, 0x20)\n      swap1\n    tag_17:\n      dup2\n      0x00\n      swap1\n      sload\n      swap1\n      0x0100\n      exp\n      swap1\n      div\n      0xffffffffffffffffffffffffffffffffffffffff\n      and\n      0xffffffffffffffffffffffffffffffffffffffff\n      and\n      dup2\n      mstore\n      0x20\n      add\n      swap1\n      0x01\n      add\n      swap1\n      dup1\n      dup4\n      gt\n      tag_17\n      jumpi\n    tag_16:\n      pop\n      pop\n      pop\n      pop\n      pop\n      swap2\n      pop\n      dup1\n      dup1\n      sload\n      dup1\n      0x20\n      mul\n      0x20\n      add\n      mload(0x40)\n      swap1\n      dup2\n      add\n      0x40\n      mstore\n      dup1\n      swap3\n      swap2\n      swap1\n      dup2\n      dup2\n      mstore\n      0x20\n      add\n      0x00\n      swap1\n    tag_18:\n      dup3\n      dup3\n      lt\n      iszero\n      tag_19\n      jumpi\n      dup4\n      dup3\n      swap1\n      0x00\n      mstore\n      keccak256(0x00, 0x20)\n      add\n      dup1\n      sload\n      tag_21\n      swap1\n      tag_22\n      jump\t// in\n    tag_21:\n      dup1\n      0x1f\n      add\n      0x20\n      dup1\n      swap2\n      div\n      mul\n      0x20\n      add\n      mload(0x40)\n      swap1\n      dup2\n      add\n      0x40\n      mstore\n      dup1\n      swap3\n      swap2\n      swap1\n      dup2\n      dup2\n      mstore\n      0x20\n      add\n      dup3\n      dup1\n      sload\n      tag_23\n      swap1\n      tag_22\n      jump\t// in\n    tag_23:\n      dup1\n      iszero\n      tag_24\n      jumpi\n      dup1\n      0x1f\n      lt\n      tag_25\n      jumpi\n      0x0100\n      dup1\n      dup4\n      sload\n      div\n      mul\n      dup4\n      mstore\n      swap2\n      0x20\n      add\n      swap2\n      jump(tag_24)\n    tag_25:\n      dup3\n      add\n      swap2\n      swap1\n      0x00\n      mstore\n      keccak256(0x00, 0x20)\n      swap1\n    tag_26:\n      dup2\n      sload\n      dup2\n      mstore\n      swap1\n      0x01\n      add\n      swap1\n      0x20\n      add\n      dup1\n      dup4\n      gt\n      tag_26\n      jumpi\n      dup3\n      swap1\n      sub\n      0x1f\n      and\n      dup3\n      add\n      swap2\n    tag_24:\n      pop\n      pop\n      pop\n      pop\n      pop\n      dup2\n      mstore\n      0x20\n      add\n      swap1\n      0x01\n      add\n      swap1\n      jump(tag_18)\n    tag_19:\n      pop\n      pop\n      pop\n      pop\n      swap1\n      pop\n      swap2\n      pop\n      swap2\n      pop\n        /* \"Campaign.sol\":617:765  function getDeployedCampaigns() public view returns (address[] memory, string[] memory) {... */\n      swap1\n      swap2\n      jump\t// out\n        /* \"Campaign.sol\":216:609  function createCampaign(string memory campaignName, uint requiredBalance, uint requiredCost, uint256 deadline) public returns (address) {... */\n    tag_12:\n        /* \"Campaign.sol\":343:350  address */\n      0x00\n        /* \"Campaign.sol\":363:383  Campaign newCampaign */\n      dup1\n        /* \"Campaign.sol\":399:409  msg.sender */\n      caller\n        /* \"Campaign.sol\":411:423  campaignName */\n      dup7\n        /* \"Campaign.sol\":425:440  requiredBalance */\n      dup7\n        /* \"Campaign.sol\":442:454  requiredCost */\n      dup7\n        /* \"Campaign.sol\":456:464  deadline */\n      dup7\n        /* \"Campaign.sol\":386:465  new Campaign(msg.sender, campaignName, requiredBalance, requiredCost, deadline) */\n      mload(0x40)\n      tag_28\n      swap1\n      tag_29\n      jump\t// in\n    tag_28:\n      tag_30\n      swap6\n      swap5\n      swap4\n      swap3\n      swap2\n      swap1\n      tag_31\n      jump\t// in\n    tag_30:\n      mload(0x40)\n      dup1\n      swap2\n      sub\n      swap1\n      0x00\n      create\n      dup1\n      iszero\n      dup1\n      iszero\n      tag_32\n      jumpi\n      returndatasize\n      0x00\n      dup1\n      returndatacopy\n      revert(0x00, returndatasize)\n    tag_32:\n      pop\n        /* \"Campaign.sol\":363:465  Campaign newCampaign = new Campaign(msg.sender, campaignName, requiredBalance, requiredCost, deadline) */\n      swap1\n      pop\n        /* \"Campaign.sol\":476:493  deployedCampaigns */\n      0x00\n        /* \"Campaign.sol\":507:518  newCampaign */\n      dup2\n        /* \"Campaign.sol\":476:520  deployedCampaigns.push(address(newCampaign)) */\n      swap1\n      dup1\n      0x01\n      dup2\n      sload\n      add\n      dup1\n      dup3\n      sstore\n      dup1\n      swap2\n      pop\n      pop\n      0x01\n      swap1\n      sub\n      swap1\n      0x00\n      mstore\n      keccak256(0x00, 0x20)\n      add\n      0x00\n      swap1\n      swap2\n      swap1\n      swap2\n      swap1\n      swap2\n      0x0100\n      exp\n      dup2\n      sload\n      dup2\n      0xffffffffffffffffffffffffffffffffffffffff\n      mul\n      not\n      and\n      swap1\n      dup4\n      0xffffffffffffffffffffffffffffffffffffffff\n      and\n      mul\n      or\n      swap1\n      sstore\n      pop\n        /* \"Campaign.sol\":531:544  campaignsName */\n      0x01\n        /* \"Campaign.sol\":550:562  campaignName */\n      dup7\n        /* \"Campaign.sol\":531:563  campaignsName.push(campaignName) */\n      swap1\n      dup1\n      0x01\n      dup2\n      sload\n      add\n      dup1\n      dup3\n      sstore\n      dup1\n      swap2\n      pop\n      pop\n      0x01\n      swap1\n      sub\n      swap1\n      0x00\n      mstore\n      keccak256(0x00, 0x20)\n      add\n      0x00\n      swap1\n      swap2\n      swap1\n      swap2\n      swap1\n      swap2\n      pop\n      swap1\n      dup1\n      mload\n      swap1\n      0x20\n      add\n      swap1\n      tag_35\n      swap3\n      swap2\n      swap1\n      tag_36\n      jump\t// in\n    tag_35:\n      pop\n        /* \"Campaign.sol\":589:600  newCampaign */\n      dup1\n        /* \"Campaign.sol\":574:601  return address(newCampaign) */\n      swap2\n      pop\n      pop\n        /* \"Campaign.sol\":216:609  function createCampaign(string memory campaignName, uint requiredBalance, uint requiredCost, uint256 deadline) public returns (address) {... */\n      swap5\n      swap4\n      pop\n      pop\n      pop\n      pop\n      jump\t// out\n    tag_29:\n      dataSize(sub_0)\n      dup1\n      dataOffset(sub_0)\n      dup4\n      codecopy\n      add\n      swap1\n      jump\t// out\n    tag_36:\n      dup3\n      dup1\n      sload\n      tag_37\n      swap1\n      tag_22\n      jump\t// in\n    tag_37:\n      swap1\n      0x00\n      mstore\n      keccak256(0x00, 0x20)\n      swap1\n      0x1f\n      add\n      0x20\n      swap1\n      div\n      dup2\n      add\n      swap3\n      dup3\n      tag_39\n      jumpi\n      0x00\n      dup6\n      sstore\n      jump(tag_38)\n    tag_39:\n      dup3\n      0x1f\n      lt\n      tag_40\n      jumpi\n      dup1\n      mload\n      not(0xff)\n      and\n      dup4\n      dup1\n      add\n      or\n      dup6\n      sstore\n      jump(tag_38)\n    tag_40:\n      dup3\n      dup1\n      add\n      0x01\n      add\n      dup6\n      sstore\n      dup3\n      iszero\n      tag_38\n      jumpi\n      swap2\n      dup3\n      add\n    tag_41:\n      dup3\n      dup2\n      gt\n      iszero\n      tag_42\n      jumpi\n      dup3\n      mload\n      dup3\n      sstore\n      swap2\n      0x20\n      add\n      swap2\n      swap1\n      0x01\n      add\n      swap1\n      jump(tag_41)\n    tag_42:\n    tag_38:\n      pop\n      swap1\n      pop\n      tag_43\n      swap2\n      swap1\n      tag_44\n      jump\t// in\n    tag_43:\n      pop\n      swap1\n      jump\t// out\n    tag_44:\n    tag_45:\n      dup1\n      dup3\n      gt\n      iszero\n      tag_46\n      jumpi\n      0x00\n      dup2\n      0x00\n      swap1\n      sstore\n      pop\n      0x01\n      add\n      jump(tag_45)\n    tag_46:\n      pop\n      swap1\n      jump\t// out\n        /* \"#utility.yul\":7:121   */\n    tag_47:\n        /* \"#utility.yul\":74:80   */\n      0x00\n        /* \"#utility.yul\":108:113   */\n      dup2\n        /* \"#utility.yul\":102:114   */\n      mload\n        /* \"#utility.yul\":92:114   */\n      swap1\n      pop\n        /* \"#utility.yul\":7:121   */\n      swap2\n      swap1\n      pop\n      jump\t// out\n        /* \"#utility.yul\":127:311   */\n    tag_48:\n        /* \"#utility.yul\":226:237   */\n      0x00\n        /* \"#utility.yul\":260:266   */\n      dup3\n        /* \"#utility.yul\":255:258   */\n      dup3\n        /* \"#utility.yul\":248:267   */\n      mstore\n        /* \"#utility.yul\":300:304   */\n      0x20\n        /* \"#utility.yul\":295:298   */\n      dup3\n        /* \"#utility.yul\":291:305   */\n      add\n        /* \"#utility.yul\":276:305   */\n      swap1\n      pop\n        /* \"#utility.yul\":127:311   */\n      swap3\n      swap2\n      pop\n      pop\n      jump\t// out\n        /* \"#utility.yul\":317:449   */\n    tag_49:\n        /* \"#utility.yul\":384:388   */\n      0x00\n        /* \"#utility.yul\":407:410   */\n      dup2\n        /* \"#utility.yul\":399:410   */\n      swap1\n      pop\n        /* \"#utility.yul\":437:441   */\n      0x20\n        /* \"#utility.yul\":432:435   */\n      dup3\n        /* \"#utility.yul\":428:442   */\n      add\n        /* \"#utility.yul\":420:442   */\n      swap1\n      pop\n        /* \"#utility.yul\":317:449   */\n      swap2\n      swap1\n      pop\n      jump\t// out\n        /* \"#utility.yul\":455:581   */\n    tag_50:\n        /* \"#utility.yul\":492:499   */\n      0x00\n        /* \"#utility.yul\":532:574   */\n      0xffffffffffffffffffffffffffffffffffffffff\n        /* \"#utility.yul\":525:530   */\n      dup3\n        /* \"#utility.yul\":521:575   */\n      and\n        /* \"#utility.yul\":510:575   */\n      swap1\n      pop\n        /* \"#utility.yul\":455:581   */\n      swap2\n      swap1\n      pop\n      jump\t// out\n        /* \"#utility.yul\":587:683   */\n    tag_51:\n        /* \"#utility.yul\":624:631   */\n      0x00\n        /* \"#utility.yul\":653:677   */\n      tag_93\n        /* \"#utility.yul\":671:676   */\n      dup3\n        /* \"#utility.yul\":653:677   */\n      tag_50\n      jump\t// in\n    tag_93:\n        /* \"#utility.yul\":642:677   */\n      swap1\n      pop\n        /* \"#utility.yul\":587:683   */\n      swap2\n      swap1\n      pop\n      jump\t// out\n        /* \"#utility.yul\":689:797   */\n    tag_52:\n        /* \"#utility.yul\":766:790   */\n      tag_95\n        /* \"#utility.yul\":784:789   */\n      dup2\n        /* \"#utility.yul\":766:790   */\n      tag_51\n      jump\t// in\n    tag_95:\n        /* \"#utility.yul\":761:764   */\n      dup3\n        /* \"#utility.yul\":754:791   */\n      mstore\n        /* \"#utility.yul\":689:797   */\n      pop\n      pop\n      jump\t// out\n        /* \"#utility.yul\":803:982   */\n    tag_53:\n        /* \"#utility.yul\":872:882   */\n      0x00\n        /* \"#utility.yul\":893:939   */\n      tag_97\n        /* \"#utility.yul\":935:938   */\n      dup4\n        /* \"#utility.yul\":927:933   */\n      dup4\n        /* \"#utility.yul\":893:939   */\n      tag_52\n      jump\t// in\n    tag_97:\n        /* \"#utility.yul\":971:975   */\n      0x20\n        /* \"#utility.yul\":966:969   */\n      dup4\n        /* \"#utility.yul\":962:976   */\n      add\n        /* \"#utility.yul\":948:976   */\n      swap1\n      pop\n        /* \"#utility.yul\":803:982   */\n      swap3\n      swap2\n      pop\n      pop\n      jump\t// out\n        /* \"#utility.yul\":988:1101   */\n    tag_54:\n        /* \"#utility.yul\":1058:1062   */\n      0x00\n        /* \"#utility.yul\":1090:1094   */\n      0x20\n        /* \"#utility.yul\":1085:1088   */\n      dup3\n        /* \"#utility.yul\":1081:1095   */\n      add\n        /* \"#utility.yul\":1073:1095   */\n      swap1\n      pop\n        /* \"#utility.yul\":988:1101   */\n      swap2\n      swap1\n      pop\n      jump\t// out\n        /* \"#utility.yul\":1137:1869   */\n    tag_55:\n        /* \"#utility.yul\":1256:1259   */\n      0x00\n        /* \"#utility.yul\":1285:1339   */\n      tag_100\n        /* \"#utility.yul\":1333:1338   */\n      dup3\n        /* \"#utility.yul\":1285:1339   */\n      tag_47\n      jump\t// in\n    tag_100:\n        /* \"#utility.yul\":1355:1441   */\n      tag_101\n        /* \"#utility.yul\":1434:1440   */\n      dup2\n        /* \"#utility.yul\":1429:1432   */\n      dup6\n        /* \"#utility.yul\":1355:1441   */\n      tag_48\n      jump\t// in\n    tag_101:\n        /* \"#utility.yul\":1348:1441   */\n      swap4\n      pop\n        /* \"#utility.yul\":1465:1521   */\n      tag_102\n        /* \"#utility.yul\":1515:1520   */\n      dup4\n        /* \"#utility.yul\":1465:1521   */\n      tag_49\n      jump\t// in\n    tag_102:\n        /* \"#utility.yul\":1544:1551   */\n      dup1\n        /* \"#utility.yul\":1575:1576   */\n      0x00\n        /* \"#utility.yul\":1560:1844   */\n    tag_103:\n        /* \"#utility.yul\":1585:1591   */\n      dup4\n        /* \"#utility.yul\":1582:1583   */\n      dup2\n        /* \"#utility.yul\":1579:1592   */\n      lt\n        /* \"#utility.yul\":1560:1844   */\n      iszero\n      tag_105\n      jumpi\n        /* \"#utility.yul\":1661:1667   */\n      dup2\n        /* \"#utility.yul\":1655:1668   */\n      mload\n        /* \"#utility.yul\":1688:1751   */\n      tag_106\n        /* \"#utility.yul\":1747:1750   */\n      dup9\n        /* \"#utility.yul\":1732:1745   */\n      dup3\n        /* \"#utility.yul\":1688:1751   */\n      tag_53\n      jump\t// in\n    tag_106:\n        /* \"#utility.yul\":1681:1751   */\n      swap8\n      pop\n        /* \"#utility.yul\":1774:1834   */\n      tag_107\n        /* \"#utility.yul\":1827:1833   */\n      dup4\n        /* \"#utility.yul\":1774:1834   */\n      tag_54\n      jump\t// in\n    tag_107:\n        /* \"#utility.yul\":1764:1834   */\n      swap3\n      pop\n        /* \"#utility.yul\":1620:1844   */\n      pop\n        /* \"#utility.yul\":1607:1608   */\n      0x01\n        /* \"#utility.yul\":1604:1605   */\n      dup2\n        /* \"#utility.yul\":1600:1609   */\n      add\n        /* \"#utility.yul\":1595:1609   */\n      swap1\n      pop\n        /* \"#utility.yul\":1560:1844   */\n      jump(tag_103)\n    tag_105:\n        /* \"#utility.yul\":1564:1578   */\n      pop\n        /* \"#utility.yul\":1860:1863   */\n      dup6\n        /* \"#utility.yul\":1853:1863   */\n      swap4\n      pop\n        /* \"#utility.yul\":1261:1869   */\n      pop\n      pop\n      pop\n        /* \"#utility.yul\":1137:1869   */\n      swap3\n      swap2\n      pop\n      pop\n      jump\t// out\n        /* \"#utility.yul\":1875:1999   */\n    tag_56:\n        /* \"#utility.yul\":1952:1958   */\n      0x00\n        /* \"#utility.yul\":1986:1991   */\n      dup2\n        /* \"#utility.yul\":1980:1992   */\n      mload\n        /* \"#utility.yul\":1970:1992   */\n      swap1\n      pop\n        /* \"#utility.yul\":1875:1999   */\n      swap2\n      swap1\n      pop\n      jump\t// out\n        /* \"#utility.yul\":2005:2199   */\n    tag_57:\n        /* \"#utility.yul\":2114:2125   */\n      0x00\n        /* \"#utility.yul\":2148:2154   */\n      dup3\n        /* \"#utility.yul\":2143:2146   */\n      dup3\n        /* \"#utility.yul\":2136:2155   */\n      mstore\n        /* \"#utility.yul\":2188:2192   */\n      0x20\n        /* \"#utility.yul\":2183:2186   */\n      dup3\n        /* \"#utility.yul\":2179:2193   */\n      add\n        /* \"#utility.yul\":2164:2193   */\n      swap1\n      pop\n        /* \"#utility.yul\":2005:2199   */\n      swap3\n      swap2\n      pop\n      pop\n      jump\t// out\n        /* \"#utility.yul\":2205:2347   */\n    tag_58:\n        /* \"#utility.yul\":2282:2286   */\n      0x00\n        /* \"#utility.yul\":2305:2308   */\n      dup2\n        /* \"#utility.yul\":2297:2308   */\n      swap1\n      pop\n        /* \"#utility.yul\":2335:2339   */\n      0x20\n        /* \"#utility.yul\":2330:2333   */\n      dup3\n        /* \"#utility.yul\":2326:2340   */\n      add\n        /* \"#utility.yul\":2318:2340   */\n      swap1\n      pop\n        /* \"#utility.yul\":2205:2347   */\n      swap2\n      swap1\n      pop\n      jump\t// out\n        /* \"#utility.yul\":2353:2452   */\n    tag_59:\n        /* \"#utility.yul\":2405:2411   */\n      0x00\n        /* \"#utility.yul\":2439:2444   */\n      dup2\n        /* \"#utility.yul\":2433:2445   */\n      mload\n        /* \"#utility.yul\":2423:2445   */\n      swap1\n      pop\n        /* \"#utility.yul\":2353:2452   */\n      swap2\n      swap1\n      pop\n      jump\t// out\n        /* \"#utility.yul\":2458:2617   */\n    tag_60:\n        /* \"#utility.yul\":2532:2543   */\n      0x00\n        /* \"#utility.yul\":2566:2572   */\n      dup3\n        /* \"#utility.yul\":2561:2564   */\n      dup3\n        /* \"#utility.yul\":2554:2573   */\n      mstore\n        /* \"#utility.yul\":2606:2610   */\n      0x20\n        /* \"#utility.yul\":2601:2604   */\n      dup3\n        /* \"#utility.yul\":2597:2611   */\n      add\n        /* \"#utility.yul\":2582:2611   */\n      swap1\n      pop\n        /* \"#utility.yul\":2458:2617   */\n      swap3\n      swap2\n      pop\n      pop\n      jump\t// out\n        /* \"#utility.yul\":2623:2930   */\n    tag_61:\n        /* \"#utility.yul\":2691:2692   */\n      0x00\n        /* \"#utility.yul\":2701:2814   */\n    tag_114:\n        /* \"#utility.yul\":2715:2721   */\n      dup4\n        /* \"#utility.yul\":2712:2713   */\n      dup2\n        /* \"#utility.yul\":2709:2722   */\n      lt\n        /* \"#utility.yul\":2701:2814   */\n      iszero\n      tag_116\n      jumpi\n        /* \"#utility.yul\":2800:2801   */\n      dup1\n        /* \"#utility.yul\":2795:2798   */\n      dup3\n        /* \"#utility.yul\":2791:2802   */\n      add\n        /* \"#utility.yul\":2785:2803   */\n      mload\n        /* \"#utility.yul\":2781:2782   */\n      dup2\n        /* \"#utility.yul\":2776:2779   */\n      dup5\n        /* \"#utility.yul\":2772:2783   */\n      add\n        /* \"#utility.yul\":2765:2804   */\n      mstore\n        /* \"#utility.yul\":2737:2739   */\n      0x20\n        /* \"#utility.yul\":2734:2735   */\n      dup2\n        /* \"#utility.yul\":2730:2740   */\n      add\n        /* \"#utility.yul\":2725:2740   */\n      swap1\n      pop\n        /* \"#utility.yul\":2701:2814   */\n      jump(tag_114)\n    tag_116:\n        /* \"#utility.yul\":2832:2838   */\n      dup4\n        /* \"#utility.yul\":2829:2830   */\n      dup2\n        /* \"#utility.yul\":2826:2839   */\n      gt\n        /* \"#utility.yul\":2823:2924   */\n      iszero\n      tag_117\n      jumpi\n        /* \"#utility.yul\":2912:2913   */\n      0x00\n        /* \"#utility.yul\":2903:2909   */\n      dup5\n        /* \"#utility.yul\":2898:2901   */\n      dup5\n        /* \"#utility.yul\":2894:2910   */\n      add\n        /* \"#utility.yul\":2887:2914   */\n      mstore\n        /* \"#utility.yul\":2823:2924   */\n    tag_117:\n        /* \"#utility.yul\":2672:2930   */\n      pop\n        /* \"#utility.yul\":2623:2930   */\n      pop\n      pop\n      pop\n      jump\t// out\n        /* \"#utility.yul\":2936:3038   */\n    tag_62:\n        /* \"#utility.yul\":2977:2983   */\n      0x00\n        /* \"#utility.yul\":3028:3030   */\n      0x1f\n        /* \"#utility.yul\":3024:3031   */\n      not\n        /* \"#utility.yul\":3019:3021   */\n      0x1f\n        /* \"#utility.yul\":3012:3017   */\n      dup4\n        /* \"#utility.yul\":3008:3022   */\n      add\n        /* \"#utility.yul\":3004:3032   */\n      and\n        /* \"#utility.yul\":2994:3032   */\n      swap1\n      pop\n        /* \"#utility.yul\":2936:3038   */\n      swap2\n      swap1\n      pop\n      jump\t// out\n        /* \"#utility.yul\":3044:3388   */\n    tag_63:\n        /* \"#utility.yul\":3122:3125   */\n      0x00\n        /* \"#utility.yul\":3150:3189   */\n      tag_120\n        /* \"#utility.yul\":3183:3188   */\n      dup3\n        /* \"#utility.yul\":3150:3189   */\n      tag_59\n      jump\t// in\n    tag_120:\n        /* \"#utility.yul\":3205:3266   */\n      tag_121\n        /* \"#utility.yul\":3259:3265   */\n      dup2\n        /* \"#utility.yul\":3254:3257   */\n      dup6\n        /* \"#utility.yul\":3205:3266   */\n      tag_60\n      jump\t// in\n    tag_121:\n        /* \"#utility.yul\":3198:3266   */\n      swap4\n      pop\n        /* \"#utility.yul\":3275:3327   */\n      tag_122\n        /* \"#utility.yul\":3320:3326   */\n      dup2\n        /* \"#utility.yul\":3315:3318   */\n      dup6\n        /* \"#utility.yul\":3308:3312   */\n      0x20\n        /* \"#utility.yul\":3301:3306   */\n      dup7\n        /* \"#utility.yul\":3297:3313   */\n      add\n        /* \"#utility.yul\":3275:3327   */\n      tag_61\n      jump\t// in\n    tag_122:\n        /* \"#utility.yul\":3352:3381   */\n      tag_123\n        /* \"#utility.yul\":3374:3380   */\n      dup2\n        /* \"#utility.yul\":3352:3381   */\n      tag_62\n      jump\t// in\n    tag_123:\n        /* \"#utility.yul\":3347:3350   */\n      dup5\n        /* \"#utility.yul\":3343:3382   */\n      add\n        /* \"#utility.yul\":3336:3382   */\n      swap2\n      pop\n        /* \"#utility.yul\":3126:3388   */\n      pop\n        /* \"#utility.yul\":3044:3388   */\n      swap3\n      swap2\n      pop\n      pop\n      jump\t// out\n        /* \"#utility.yul\":3394:3590   */\n    tag_64:\n        /* \"#utility.yul\":3483:3493   */\n      0x00\n        /* \"#utility.yul\":3518:3584   */\n      tag_125\n        /* \"#utility.yul\":3580:3583   */\n      dup4\n        /* \"#utility.yul\":3572:3578   */\n      dup4\n        /* \"#utility.yul\":3518:3584   */\n      tag_63\n      jump\t// in\n    tag_125:\n        /* \"#utility.yul\":3504:3584   */\n      swap1\n      pop\n        /* \"#utility.yul\":3394:3590   */\n      swap3\n      swap2\n      pop\n      pop\n      jump\t// out\n        /* \"#utility.yul\":3596:3719   */\n    tag_65:\n        /* \"#utility.yul\":3676:3680   */\n      0x00\n        /* \"#utility.yul\":3708:3712   */\n      0x20\n        /* \"#utility.yul\":3703:3706   */\n      dup3\n        /* \"#utility.yul\":3699:3713   */\n      add\n        /* \"#utility.yul\":3691:3713   */\n      swap1\n      pop\n        /* \"#utility.yul\":3596:3719   */\n      swap2\n      swap1\n      pop\n      jump\t// out\n        /* \"#utility.yul\":3753:4744   */\n    tag_66:\n        /* \"#utility.yul\":3892:3895   */\n      0x00\n        /* \"#utility.yul\":3921:3985   */\n      tag_128\n        /* \"#utility.yul\":3979:3984   */\n      dup3\n        /* \"#utility.yul\":3921:3985   */\n      tag_56\n      jump\t// in\n    tag_128:\n        /* \"#utility.yul\":4001:4097   */\n      tag_129\n        /* \"#utility.yul\":4090:4096   */\n      dup2\n        /* \"#utility.yul\":4085:4088   */\n      dup6\n        /* \"#utility.yul\":4001:4097   */\n      tag_57\n      jump\t// in\n    tag_129:\n        /* \"#utility.yul\":3994:4097   */\n      swap4\n      pop\n        /* \"#utility.yul\":4123:4126   */\n      dup4\n        /* \"#utility.yul\":4168:4172   */\n      0x20\n        /* \"#utility.yul\":4160:4166   */\n      dup3\n        /* \"#utility.yul\":4156:4173   */\n      mul\n        /* \"#utility.yul\":4151:4154   */\n      dup6\n        /* \"#utility.yul\":4147:4174   */\n      add\n        /* \"#utility.yul\":4198:4264   */\n      tag_130\n        /* \"#utility.yul\":4258:4263   */\n      dup6\n        /* \"#utility.yul\":4198:4264   */\n      tag_58\n      jump\t// in\n    tag_130:\n        /* \"#utility.yul\":4287:4294   */\n      dup1\n        /* \"#utility.yul\":4318:4319   */\n      0x00\n        /* \"#utility.yul\":4303:4699   */\n    tag_131:\n        /* \"#utility.yul\":4328:4334   */\n      dup6\n        /* \"#utility.yul\":4325:4326   */\n      dup2\n        /* \"#utility.yul\":4322:4335   */\n      lt\n        /* \"#utility.yul\":4303:4699   */\n      iszero\n      tag_133\n      jumpi\n        /* \"#utility.yul\":4399:4408   */\n      dup5\n        /* \"#utility.yul\":4393:4397   */\n      dup5\n        /* \"#utility.yul\":4389:4409   */\n      sub\n        /* \"#utility.yul\":4384:4387   */\n      dup10\n        /* \"#utility.yul\":4377:4410   */\n      mstore\n        /* \"#utility.yul\":4450:4456   */\n      dup2\n        /* \"#utility.yul\":4444:4457   */\n      mload\n        /* \"#utility.yul\":4478:4562   */\n      tag_134\n        /* \"#utility.yul\":4557:4561   */\n      dup6\n        /* \"#utility.yul\":4542:4555   */\n      dup3\n        /* \"#utility.yul\":4478:4562   */\n      tag_64\n      jump\t// in\n    tag_134:\n        /* \"#utility.yul\":4470:4562   */\n      swap5\n      pop\n        /* \"#utility.yul\":4585:4655   */\n      tag_135\n        /* \"#utility.yul\":4648:4654   */\n      dup4\n        /* \"#utility.yul\":4585:4655   */\n      tag_65\n      jump\t// in\n    tag_135:\n        /* \"#utility.yul\":4575:4655   */\n      swap3\n      pop\n        /* \"#utility.yul\":4684:4688   */\n      0x20\n        /* \"#utility.yul\":4679:4682   */\n      dup11\n        /* \"#utility.yul\":4675:4689   */\n      add\n        /* \"#utility.yul\":4668:4689   */\n      swap10\n      pop\n        /* \"#utility.yul\":4363:4699   */\n      pop\n        /* \"#utility.yul\":4350:4351   */\n      0x01\n        /* \"#utility.yul\":4347:4348   */\n      dup2\n        /* \"#utility.yul\":4343:4352   */\n      add\n        /* \"#utility.yul\":4338:4352   */\n      swap1\n      pop\n        /* \"#utility.yul\":4303:4699   */\n      jump(tag_131)\n    tag_133:\n        /* \"#utility.yul\":4307:4321   */\n      pop\n        /* \"#utility.yul\":4715:4719   */\n      dup3\n        /* \"#utility.yul\":4708:4719   */\n      swap8\n      pop\n        /* \"#utility.yul\":4735:4738   */\n      dup8\n        /* \"#utility.yul\":4728:4738   */\n      swap6\n      pop\n        /* \"#utility.yul\":3897:4744   */\n      pop\n      pop\n      pop\n      pop\n      pop\n        /* \"#utility.yul\":3753:4744   */\n      swap3\n      swap2\n      pop\n      pop\n      jump\t// out\n        /* \"#utility.yul\":4750:5424   */\n    tag_8:\n        /* \"#utility.yul\":4991:4995   */\n      0x00\n        /* \"#utility.yul\":5029:5031   */\n      0x40\n        /* \"#utility.yul\":5018:5027   */\n      dup3\n        /* \"#utility.yul\":5014:5032   */\n      add\n        /* \"#utility.yul\":5006:5032   */\n      swap1\n      pop\n        /* \"#utility.yul\":5078:5087   */\n      dup2\n        /* \"#utility.yul\":5072:5076   */\n      dup2\n        /* \"#utility.yul\":5068:5088   */\n      sub\n        /* \"#utility.yul\":5064:5065   */\n      0x00\n        /* \"#utility.yul\":5053:5062   */\n      dup4\n        /* \"#utility.yul\":5049:5066   */\n      add\n        /* \"#utility.yul\":5042:5089   */\n      mstore\n        /* \"#utility.yul\":5106:5214   */\n      tag_137\n        /* \"#utility.yul\":5209:5213   */\n      dup2\n        /* \"#utility.yul\":5200:5206   */\n      dup6\n        /* \"#utility.yul\":5106:5214   */\n      tag_55\n      jump\t// in\n    tag_137:\n        /* \"#utility.yul\":5098:5214   */\n      swap1\n      pop\n        /* \"#utility.yul\":5261:5270   */\n      dup2\n        /* \"#utility.yul\":5255:5259   */\n      dup2\n        /* \"#utility.yul\":5251:5271   */\n      sub\n        /* \"#utility.yul\":5246:5248   */\n      0x20\n        /* \"#utility.yul\":5235:5244   */\n      dup4\n        /* \"#utility.yul\":5231:5249   */\n      add\n        /* \"#utility.yul\":5224:5272   */\n      mstore\n        /* \"#utility.yul\":5289:5417   */\n      tag_138\n        /* \"#utility.yul\":5412:5416   */\n      dup2\n        /* \"#utility.yul\":5403:5409   */\n      dup5\n        /* \"#utility.yul\":5289:5417   */\n      tag_66\n      jump\t// in\n    tag_138:\n        /* \"#utility.yul\":5281:5417   */\n      swap1\n      pop\n        /* \"#utility.yul\":4750:5424   */\n      swap4\n      swap3\n      pop\n      pop\n      pop\n      jump\t// out\n        /* \"#utility.yul\":5430:5505   */\n    tag_67:\n        /* \"#utility.yul\":5463:5469   */\n      0x00\n        /* \"#utility.yul\":5496:5498   */\n      0x40\n        /* \"#utility.yul\":5490:5499   */\n      mload\n        /* \"#utility.yul\":5480:5499   */\n      swap1\n      pop\n        /* \"#utility.yul\":5430:5505   */\n      swap1\n      jump\t// out\n        /* \"#utility.yul\":5511:5628   */\n    tag_68:\n        /* \"#utility.yul\":5620:5621   */\n      0x00\n        /* \"#utility.yul\":5617:5618   */\n      dup1\n        /* \"#utility.yul\":5610:5622   */\n      revert\n        /* \"#utility.yul\":5634:5751   */\n    tag_69:\n        /* \"#utility.yul\":5743:5744   */\n      0x00\n        /* \"#utility.yul\":5740:5741   */\n      dup1\n        /* \"#utility.yul\":5733:5745   */\n      revert\n        /* \"#utility.yul\":5757:5874   */\n    tag_70:\n        /* \"#utility.yul\":5866:5867   */\n      0x00\n        /* \"#utility.yul\":5863:5864   */\n      dup1\n        /* \"#utility.yul\":5856:5868   */\n      revert\n        /* \"#utility.yul\":5880:5997   */\n    tag_71:\n        /* \"#utility.yul\":5989:5990   */\n      0x00\n        /* \"#utility.yul\":5986:5987   */\n      dup1\n        /* \"#utility.yul\":5979:5991   */\n      revert\n        /* \"#utility.yul\":6003:6183   */\n    tag_72:\n        /* \"#utility.yul\":6051:6128   */\n      0x4e487b7100000000000000000000000000000000000000000000000000000000\n        /* \"#utility.yul\":6048:6049   */\n      0x00\n        /* \"#utility.yul\":6041:6129   */\n      mstore\n        /* \"#utility.yul\":6148:6152   */\n      0x41\n        /* \"#utility.yul\":6145:6146   */\n      0x04\n        /* \"#utility.yul\":6138:6153   */\n      mstore\n        /* \"#utility.yul\":6172:6176   */\n      0x24\n        /* \"#utility.yul\":6169:6170   */\n      0x00\n        /* \"#utility.yul\":6162:6177   */\n      revert\n        /* \"#utility.yul\":6189:6470   */\n    tag_73:\n        /* \"#utility.yul\":6272:6299   */\n      tag_146\n        /* \"#utility.yul\":6294:6298   */\n      dup3\n        /* \"#utility.yul\":6272:6299   */\n      tag_62\n      jump\t// in\n    tag_146:\n        /* \"#utility.yul\":6264:6270   */\n      dup2\n        /* \"#utility.yul\":6260:6300   */\n      add\n        /* \"#utility.yul\":6402:6408   */\n      dup2\n        /* \"#utility.yul\":6390:6400   */\n      dup2\n        /* \"#utility.yul\":6387:6409   */\n      lt\n        /* \"#utility.yul\":6366:6384   */\n      0xffffffffffffffff\n        /* \"#utility.yul\":6354:6364   */\n      dup3\n        /* \"#utility.yul\":6351:6385   */\n      gt\n        /* \"#utility.yul\":6348:6410   */\n      or\n        /* \"#utility.yul\":6345:6433   */\n      iszero\n      tag_147\n      jumpi\n        /* \"#utility.yul\":6413:6431   */\n      tag_148\n      tag_72\n      jump\t// in\n    tag_148:\n        /* \"#utility.yul\":6345:6433   */\n    tag_147:\n        /* \"#utility.yul\":6453:6463   */\n      dup1\n        /* \"#utility.yul\":6449:6451   */\n      0x40\n        /* \"#utility.yul\":6442:6464   */\n      mstore\n        /* \"#utility.yul\":6232:6470   */\n      pop\n        /* \"#utility.yul\":6189:6470   */\n      pop\n      pop\n      jump\t// out\n        /* \"#utility.yul\":6476:6605   */\n    tag_74:\n        /* \"#utility.yul\":6510:6516   */\n      0x00\n        /* \"#utility.yul\":6537:6557   */\n      tag_150\n      tag_67\n      jump\t// in\n    tag_150:\n        /* \"#utility.yul\":6527:6557   */\n      swap1\n      pop\n        /* \"#utility.yul\":6566:6599   */\n      tag_151\n        /* \"#utility.yul\":6594:6598   */\n      dup3\n        /* \"#utility.yul\":6586:6592   */\n      dup3\n        /* \"#utility.yul\":6566:6599   */\n      tag_73\n      jump\t// in\n    tag_151:\n        /* \"#utility.yul\":6476:6605   */\n      swap2\n      swap1\n      pop\n      jump\t// out\n        /* \"#utility.yul\":6611:6919   */\n    tag_75:\n        /* \"#utility.yul\":6673:6677   */\n      0x00\n        /* \"#utility.yul\":6763:6781   */\n      0xffffffffffffffff\n        /* \"#utility.yul\":6755:6761   */\n      dup3\n        /* \"#utility.yul\":6752:6782   */\n      gt\n        /* \"#utility.yul\":6749:6805   */\n      iszero\n      tag_153\n      jumpi\n        /* \"#utility.yul\":6785:6803   */\n      tag_154\n      tag_72\n      jump\t// in\n    tag_154:\n        /* \"#utility.yul\":6749:6805   */\n    tag_153:\n        /* \"#utility.yul\":6823:6852   */\n      tag_155\n        /* \"#utility.yul\":6845:6851   */\n      dup3\n        /* \"#utility.yul\":6823:6852   */\n      tag_62\n      jump\t// in\n    tag_155:\n        /* \"#utility.yul\":6815:6852   */\n      swap1\n      pop\n        /* \"#utility.yul\":6907:6911   */\n      0x20\n        /* \"#utility.yul\":6901:6905   */\n      dup2\n        /* \"#utility.yul\":6897:6912   */\n      add\n        /* \"#utility.yul\":6889:6912   */\n      swap1\n      pop\n        /* \"#utility.yul\":6611:6919   */\n      swap2\n      swap1\n      pop\n      jump\t// out\n        /* \"#utility.yul\":6925:7079   */\n    tag_76:\n        /* \"#utility.yul\":7009:7015   */\n      dup3\n        /* \"#utility.yul\":7004:7007   */\n      dup2\n        /* \"#utility.yul\":6999:7002   */\n      dup4\n        /* \"#utility.yul\":6986:7016   */\n      calldatacopy\n        /* \"#utility.yul\":7071:7072   */\n      0x00\n        /* \"#utility.yul\":7062:7068   */\n      dup4\n        /* \"#utility.yul\":7057:7060   */\n      dup4\n        /* \"#utility.yul\":7053:7069   */\n      add\n        /* \"#utility.yul\":7046:7073   */\n      mstore\n        /* \"#utility.yul\":6925:7079   */\n      pop\n      pop\n      pop\n      jump\t// out\n        /* \"#utility.yul\":7085:7497   */\n    tag_77:\n        /* \"#utility.yul\":7163:7168   */\n      0x00\n        /* \"#utility.yul\":7188:7254   */\n      tag_158\n        /* \"#utility.yul\":7204:7253   */\n      tag_159\n        /* \"#utility.yul\":7246:7252   */\n      dup5\n        /* \"#utility.yul\":7204:7253   */\n      tag_75\n      jump\t// in\n    tag_159:\n        /* \"#utility.yul\":7188:7254   */\n      tag_74\n      jump\t// in\n    tag_158:\n        /* \"#utility.yul\":7179:7254   */\n      swap1\n      pop\n        /* \"#utility.yul\":7277:7283   */\n      dup3\n        /* \"#utility.yul\":7270:7275   */\n      dup2\n        /* \"#utility.yul\":7263:7284   */\n      mstore\n        /* \"#utility.yul\":7315:7319   */\n      0x20\n        /* \"#utility.yul\":7308:7313   */\n      dup2\n        /* \"#utility.yul\":7304:7320   */\n      add\n        /* \"#utility.yul\":7353:7356   */\n      dup5\n        /* \"#utility.yul\":7344:7350   */\n      dup5\n        /* \"#utility.yul\":7339:7342   */\n      dup5\n        /* \"#utility.yul\":7335:7351   */\n      add\n        /* \"#utility.yul\":7332:7357   */\n      gt\n        /* \"#utility.yul\":7329:7441   */\n      iszero\n      tag_160\n      jumpi\n        /* \"#utility.yul\":7360:7439   */\n      tag_161\n      tag_71\n      jump\t// in\n    tag_161:\n        /* \"#utility.yul\":7329:7441   */\n    tag_160:\n        /* \"#utility.yul\":7450:7491   */\n      tag_162\n        /* \"#utility.yul\":7484:7490   */\n      dup5\n        /* \"#utility.yul\":7479:7482   */\n      dup3\n        /* \"#utility.yul\":7474:7477   */\n      dup6\n        /* \"#utility.yul\":7450:7491   */\n      tag_76\n      jump\t// in\n    tag_162:\n        /* \"#utility.yul\":7169:7497   */\n      pop\n        /* \"#utility.yul\":7085:7497   */\n      swap4\n      swap3\n      pop\n      pop\n      pop\n      jump\t// out\n        /* \"#utility.yul\":7517:7857   */\n    tag_78:\n        /* \"#utility.yul\":7573:7578   */\n      0x00\n        /* \"#utility.yul\":7622:7625   */\n      dup3\n        /* \"#utility.yul\":7615:7619   */\n      0x1f\n        /* \"#utility.yul\":7607:7613   */\n      dup4\n        /* \"#utility.yul\":7603:7620   */\n      add\n        /* \"#utility.yul\":7599:7626   */\n      slt\n        /* \"#utility.yul\":7589:7711   */\n      tag_164\n      jumpi\n        /* \"#utility.yul\":7630:7709   */\n      tag_165\n      tag_70\n      jump\t// in\n    tag_165:\n        /* \"#utility.yul\":7589:7711   */\n    tag_164:\n        /* \"#utility.yul\":7747:7753   */\n      dup2\n        /* \"#utility.yul\":7734:7754   */\n      calldataload\n        /* \"#utility.yul\":7772:7851   */\n      tag_166\n        /* \"#utility.yul\":7847:7850   */\n      dup5\n        /* \"#utility.yul\":7839:7845   */\n      dup3\n        /* \"#utility.yul\":7832:7836   */\n      0x20\n        /* \"#utility.yul\":7824:7830   */\n      dup7\n        /* \"#utility.yul\":7820:7837   */\n      add\n        /* \"#utility.yul\":7772:7851   */\n      tag_77\n      jump\t// in\n    tag_166:\n        /* \"#utility.yul\":7763:7851   */\n      swap2\n      pop\n        /* \"#utility.yul\":7579:7857   */\n      pop\n        /* \"#utility.yul\":7517:7857   */\n      swap3\n      swap2\n      pop\n      pop\n      jump\t// out\n        /* \"#utility.yul\":7863:7940   */\n    tag_79:\n        /* \"#utility.yul\":7900:7907   */\n      0x00\n        /* \"#utility.yul\":7929:7934   */\n      dup2\n        /* \"#utility.yul\":7918:7934   */\n      swap1\n      pop\n        /* \"#utility.yul\":7863:7940   */\n      swap2\n      swap1\n      pop\n      jump\t// out\n        /* \"#utility.yul\":7946:8068   */\n    tag_80:\n        /* \"#utility.yul\":8019:8043   */\n      tag_169\n        /* \"#utility.yul\":8037:8042   */\n      dup2\n        /* \"#utility.yul\":8019:8043   */\n      tag_79\n      jump\t// in\n    tag_169:\n        /* \"#utility.yul\":8012:8017   */\n      dup2\n        /* \"#utility.yul\":8009:8044   */\n      eq\n        /* \"#utility.yul\":7999:8062   */\n      tag_170\n      jumpi\n        /* \"#utility.yul\":8058:8059   */\n      0x00\n        /* \"#utility.yul\":8055:8056   */\n      dup1\n        /* \"#utility.yul\":8048:8060   */\n      revert\n        /* \"#utility.yul\":7999:8062   */\n    tag_170:\n        /* \"#utility.yul\":7946:8068   */\n      pop\n      jump\t// out\n        /* \"#utility.yul\":8074:8213   */\n    tag_81:\n        /* \"#utility.yul\":8120:8125   */\n      0x00\n        /* \"#utility.yul\":8158:8164   */\n      dup2\n        /* \"#utility.yul\":8145:8165   */\n      calldataload\n        /* \"#utility.yul\":8136:8165   */\n      swap1\n      pop\n        /* \"#utility.yul\":8174:8207   */\n      tag_172\n        /* \"#utility.yul\":8201:8206   */\n      dup2\n        /* \"#utility.yul\":8174:8207   */\n      tag_80\n      jump\t// in\n    tag_172:\n        /* \"#utility.yul\":8074:8213   */\n      swap3\n      swap2\n      pop\n      pop\n      jump\t// out\n        /* \"#utility.yul\":8219:9164   */\n    tag_11:\n        /* \"#utility.yul\":8315:8321   */\n      0x00\n        /* \"#utility.yul\":8323:8329   */\n      dup1\n        /* \"#utility.yul\":8331:8337   */\n      0x00\n        /* \"#utility.yul\":8339:8345   */\n      dup1\n        /* \"#utility.yul\":8388:8391   */\n      0x80\n        /* \"#utility.yul\":8376:8385   */\n      dup6\n        /* \"#utility.yul\":8367:8374   */\n      dup8\n        /* \"#utility.yul\":8363:8386   */\n      sub\n        /* \"#utility.yul\":8359:8392   */\n      slt\n        /* \"#utility.yul\":8356:8476   */\n      iszero\n      tag_174\n      jumpi\n        /* \"#utility.yul\":8395:8474   */\n      tag_175\n      tag_68\n      jump\t// in\n    tag_175:\n        /* \"#utility.yul\":8356:8476   */\n    tag_174:\n        /* \"#utility.yul\":8543:8544   */\n      0x00\n        /* \"#utility.yul\":8532:8541   */\n      dup6\n        /* \"#utility.yul\":8528:8545   */\n      add\n        /* \"#utility.yul\":8515:8546   */\n      calldataload\n        /* \"#utility.yul\":8573:8591   */\n      0xffffffffffffffff\n        /* \"#utility.yul\":8565:8571   */\n      dup2\n        /* \"#utility.yul\":8562:8592   */\n      gt\n        /* \"#utility.yul\":8559:8676   */\n      iszero\n      tag_176\n      jumpi\n        /* \"#utility.yul\":8595:8674   */\n      tag_177\n      tag_69\n      jump\t// in\n    tag_177:\n        /* \"#utility.yul\":8559:8676   */\n    tag_176:\n        /* \"#utility.yul\":8700:8763   */\n      tag_178\n        /* \"#utility.yul\":8755:8762   */\n      dup8\n        /* \"#utility.yul\":8746:8752   */\n      dup3\n        /* \"#utility.yul\":8735:8744   */\n      dup9\n        /* \"#utility.yul\":8731:8753   */\n      add\n        /* \"#utility.yul\":8700:8763   */\n      tag_78\n      jump\t// in\n    tag_178:\n        /* \"#utility.yul\":8690:8763   */\n      swap5\n      pop\n        /* \"#utility.yul\":8486:8773   */\n      pop\n        /* \"#utility.yul\":8812:8814   */\n      0x20\n        /* \"#utility.yul\":8838:8891   */\n      tag_179\n        /* \"#utility.yul\":8883:8890   */\n      dup8\n        /* \"#utility.yul\":8874:8880   */\n      dup3\n        /* \"#utility.yul\":8863:8872   */\n      dup9\n        /* \"#utility.yul\":8859:8881   */\n      add\n        /* \"#utility.yul\":8838:8891   */\n      tag_81\n      jump\t// in\n    tag_179:\n        /* \"#utility.yul\":8828:8891   */\n      swap4\n      pop\n        /* \"#utility.yul\":8783:8901   */\n      pop\n        /* \"#utility.yul\":8940:8942   */\n      0x40\n        /* \"#utility.yul\":8966:9019   */\n      tag_180\n        /* \"#utility.yul\":9011:9018   */\n      dup8\n        /* \"#utility.yul\":9002:9008   */\n      dup3\n        /* \"#utility.yul\":8991:9000   */\n      dup9\n        /* \"#utility.yul\":8987:9009   */\n      add\n        /* \"#utility.yul\":8966:9019   */\n      tag_81\n      jump\t// in\n    tag_180:\n        /* \"#utility.yul\":8956:9019   */\n      swap3\n      pop\n        /* \"#utility.yul\":8911:9029   */\n      pop\n        /* \"#utility.yul\":9068:9070   */\n      0x60\n        /* \"#utility.yul\":9094:9147   */\n      tag_181\n        /* \"#utility.yul\":9139:9146   */\n      dup8\n        /* \"#utility.yul\":9130:9136   */\n      dup3\n        /* \"#utility.yul\":9119:9128   */\n      dup9\n        /* \"#utility.yul\":9115:9137   */\n      add\n        /* \"#utility.yul\":9094:9147   */\n      tag_81\n      jump\t// in\n    tag_181:\n        /* \"#utility.yul\":9084:9147   */\n      swap2\n      pop\n        /* \"#utility.yul\":9039:9157   */\n      pop\n        /* \"#utility.yul\":8219:9164   */\n      swap3\n      swap6\n      swap2\n      swap5\n      pop\n      swap3\n      pop\n      jump\t// out\n        /* \"#utility.yul\":9170:9288   */\n    tag_82:\n        /* \"#utility.yul\":9257:9281   */\n      tag_183\n        /* \"#utility.yul\":9275:9280   */\n      dup2\n        /* \"#utility.yul\":9257:9281   */\n      tag_51\n      jump\t// in\n    tag_183:\n        /* \"#utility.yul\":9252:9255   */\n      dup3\n        /* \"#utility.yul\":9245:9282   */\n      mstore\n        /* \"#utility.yul\":9170:9288   */\n      pop\n      pop\n      jump\t// out\n        /* \"#utility.yul\":9294:9516   */\n    tag_14:\n        /* \"#utility.yul\":9387:9391   */\n      0x00\n        /* \"#utility.yul\":9425:9427   */\n      0x20\n        /* \"#utility.yul\":9414:9423   */\n      dup3\n        /* \"#utility.yul\":9410:9428   */\n      add\n        /* \"#utility.yul\":9402:9428   */\n      swap1\n      pop\n        /* \"#utility.yul\":9438:9509   */\n      tag_185\n        /* \"#utility.yul\":9506:9507   */\n      0x00\n        /* \"#utility.yul\":9495:9504   */\n      dup4\n        /* \"#utility.yul\":9491:9508   */\n      add\n        /* \"#utility.yul\":9482:9488   */\n      dup5\n        /* \"#utility.yul\":9438:9509   */\n      tag_82\n      jump\t// in\n    tag_185:\n        /* \"#utility.yul\":9294:9516   */\n      swap3\n      swap2\n      pop\n      pop\n      jump\t// out\n        /* \"#utility.yul\":9522:9702   */\n    tag_83:\n        /* \"#utility.yul\":9570:9647   */\n      0x4e487b7100000000000000000000000000000000000000000000000000000000\n        /* \"#utility.yul\":9567:9568   */\n      0x00\n        /* \"#utility.yul\":9560:9648   */\n      mstore\n        /* \"#utility.yul\":9667:9671   */\n      0x22\n        /* \"#utility.yul\":9664:9665   */\n      0x04\n        /* \"#utility.yul\":9657:9672   */\n      mstore\n        /* \"#utility.yul\":9691:9695   */\n      0x24\n        /* \"#utility.yul\":9688:9689   */\n      0x00\n        /* \"#utility.yul\":9681:9696   */\n      revert\n        /* \"#utility.yul\":9708:10028   */\n    tag_22:\n        /* \"#utility.yul\":9752:9758   */\n      0x00\n        /* \"#utility.yul\":9789:9790   */\n      0x02\n        /* \"#utility.yul\":9783:9787   */\n      dup3\n        /* \"#utility.yul\":9779:9791   */\n      div\n        /* \"#utility.yul\":9769:9791   */\n      swap1\n      pop\n        /* \"#utility.yul\":9836:9837   */\n      0x01\n        /* \"#utility.yul\":9830:9834   */\n      dup3\n        /* \"#utility.yul\":9826:9838   */\n      and\n        /* \"#utility.yul\":9857:9875   */\n      dup1\n        /* \"#utility.yul\":9847:9928   */\n      tag_188\n      jumpi\n        /* \"#utility.yul\":9913:9917   */\n      0x7f\n        /* \"#utility.yul\":9905:9911   */\n      dup3\n        /* \"#utility.yul\":9901:9918   */\n      and\n        /* \"#utility.yul\":9891:9918   */\n      swap2\n      pop\n        /* \"#utility.yul\":9847:9928   */\n    tag_188:\n        /* \"#utility.yul\":9975:9977   */\n      0x20\n        /* \"#utility.yul\":9967:9973   */\n      dup3\n        /* \"#utility.yul\":9964:9978   */\n      lt\n        /* \"#utility.yul\":9944:9962   */\n      dup2\n        /* \"#utility.yul\":9941:9979   */\n      sub\n        /* \"#utility.yul\":9938:10022   */\n      tag_189\n      jumpi\n        /* \"#utility.yul\":9994:10012   */\n      tag_190\n      tag_83\n      jump\t// in\n    tag_190:\n        /* \"#utility.yul\":9938:10022   */\n    tag_189:\n        /* \"#utility.yul\":9759:10028   */\n      pop\n        /* \"#utility.yul\":9708:10028   */\n      swap2\n      swap1\n      pop\n      jump\t// out\n        /* \"#utility.yul\":10034:10203   */\n    tag_84:\n        /* \"#utility.yul\":10118:10129   */\n      0x00\n        /* \"#utility.yul\":10152:10158   */\n      dup3\n        /* \"#utility.yul\":10147:10150   */\n      dup3\n        /* \"#utility.yul\":10140:10159   */\n      mstore\n        /* \"#utility.yul\":10192:10196   */\n      0x20\n        /* \"#utility.yul\":10187:10190   */\n      dup3\n        /* \"#utility.yul\":10183:10197   */\n      add\n        /* \"#utility.yul\":10168:10197   */\n      swap1\n      pop\n        /* \"#utility.yul\":10034:10203   */\n      swap3\n      swap2\n      pop\n      pop\n      jump\t// out\n        /* \"#utility.yul\":10209:10573   */\n    tag_85:\n        /* \"#utility.yul\":10297:10300   */\n      0x00\n        /* \"#utility.yul\":10325:10364   */\n      tag_193\n        /* \"#utility.yul\":10358:10363   */\n      dup3\n        /* \"#utility.yul\":10325:10364   */\n      tag_59\n      jump\t// in\n    tag_193:\n        /* \"#utility.yul\":10380:10451   */\n      tag_194\n        /* \"#utility.yul\":10444:10450   */\n      dup2\n        /* \"#utility.yul\":10439:10442   */\n      dup6\n        /* \"#utility.yul\":10380:10451   */\n      tag_84\n      jump\t// in\n    tag_194:\n        /* \"#utility.yul\":10373:10451   */\n      swap4\n      pop\n        /* \"#utility.yul\":10460:10512   */\n      tag_195\n        /* \"#utility.yul\":10505:10511   */\n      dup2\n        /* \"#utility.yul\":10500:10503   */\n      dup6\n        /* \"#utility.yul\":10493:10497   */\n      0x20\n        /* \"#utility.yul\":10486:10491   */\n      dup7\n        /* \"#utility.yul\":10482:10498   */\n      add\n        /* \"#utility.yul\":10460:10512   */\n      tag_61\n      jump\t// in\n    tag_195:\n        /* \"#utility.yul\":10537:10566   */\n      tag_196\n        /* \"#utility.yul\":10559:10565   */\n      dup2\n        /* \"#utility.yul\":10537:10566   */\n      tag_62\n      jump\t// in\n    tag_196:\n        /* \"#utility.yul\":10532:10535   */\n      dup5\n        /* \"#utility.yul\":10528:10567   */\n      add\n        /* \"#utility.yul\":10521:10567   */\n      swap2\n      pop\n        /* \"#utility.yul\":10301:10573   */\n      pop\n        /* \"#utility.yul\":10209:10573   */\n      swap3\n      swap2\n      pop\n      pop\n      jump\t// out\n        /* \"#utility.yul\":10579:10697   */\n    tag_86:\n        /* \"#utility.yul\":10666:10690   */\n      tag_198\n        /* \"#utility.yul\":10684:10689   */\n      dup2\n        /* \"#utility.yul\":10666:10690   */\n      tag_79\n      jump\t// in\n    tag_198:\n        /* \"#utility.yul\":10661:10664   */\n      dup3\n        /* \"#utility.yul\":10654:10691   */\n      mstore\n        /* \"#utility.yul\":10579:10697   */\n      pop\n      pop\n      jump\t// out\n        /* \"#utility.yul\":10703:11458   */\n    tag_31:\n        /* \"#utility.yul\":10928:10932   */\n      0x00\n        /* \"#utility.yul\":10966:10969   */\n      0xa0\n        /* \"#utility.yul\":10955:10964   */\n      dup3\n        /* \"#utility.yul\":10951:10970   */\n      add\n        /* \"#utility.yul\":10943:10970   */\n      swap1\n      pop\n        /* \"#utility.yul\":10980:11051   */\n      tag_200\n        /* \"#utility.yul\":11048:11049   */\n      0x00\n        /* \"#utility.yul\":11037:11046   */\n      dup4\n        /* \"#utility.yul\":11033:11050   */\n      add\n        /* \"#utility.yul\":11024:11030   */\n      dup9\n        /* \"#utility.yul\":10980:11051   */\n      tag_82\n      jump\t// in\n    tag_200:\n        /* \"#utility.yul\":11098:11107   */\n      dup2\n        /* \"#utility.yul\":11092:11096   */\n      dup2\n        /* \"#utility.yul\":11088:11108   */\n      sub\n        /* \"#utility.yul\":11083:11085   */\n      0x20\n        /* \"#utility.yul\":11072:11081   */\n      dup4\n        /* \"#utility.yul\":11068:11086   */\n      add\n        /* \"#utility.yul\":11061:11109   */\n      mstore\n        /* \"#utility.yul\":11126:11204   */\n      tag_201\n        /* \"#utility.yul\":11199:11203   */\n      dup2\n        /* \"#utility.yul\":11190:11196   */\n      dup8\n        /* \"#utility.yul\":11126:11204   */\n      tag_85\n      jump\t// in\n    tag_201:\n        /* \"#utility.yul\":11118:11204   */\n      swap1\n      pop\n        /* \"#utility.yul\":11214:11286   */\n      tag_202\n        /* \"#utility.yul\":11282:11284   */\n      0x40\n        /* \"#utility.yul\":11271:11280   */\n      dup4\n        /* \"#utility.yul\":11267:11285   */\n      add\n        /* \"#utility.yul\":11258:11264   */\n      dup7\n        /* \"#utility.yul\":11214:11286   */\n      tag_86\n      jump\t// in\n    tag_202:\n        /* \"#utility.yul\":11296:11368   */\n      tag_203\n        /* \"#utility.yul\":11364:11366   */\n      0x60\n        /* \"#utility.yul\":11353:11362   */\n      dup4\n        /* \"#utility.yul\":11349:11367   */\n      add\n        /* \"#utility.yul\":11340:11346   */\n      dup6\n        /* \"#utility.yul\":11296:11368   */\n      tag_86\n      jump\t// in\n    tag_203:\n        /* \"#utility.yul\":11378:11451   */\n      tag_204\n        /* \"#utility.yul\":11446:11449   */\n      0x80\n        /* \"#utility.yul\":11435:11444   */\n      dup4\n        /* \"#utility.yul\":11431:11450   */\n      add\n        /* \"#utility.yul\":11422:11428   */\n      dup5\n        /* \"#utility.yul\":11378:11451   */\n      tag_86\n      jump\t// in\n    tag_204:\n        /* \"#utility.yul\":10703:11458   */\n      swap7\n      swap6\n      pop\n      pop\n      pop\n      pop\n      pop\n      pop\n      jump\t// out\n    stop\n\n    sub_0: assembly {\n            /* \"Campaign.sol\":772:2790  contract Campaign {... */\n          mstore(0x40, 0x80)\n            /* \"Campaign.sol\":1163:1556  constructor(address creator, string memory campaignName, uint balance, uint cost, uint256 deadline) {... */\n          callvalue\n          dup1\n          iszero\n          tag_1\n          jumpi\n          0x00\n          dup1\n          revert\n        tag_1:\n          pop\n          mload(0x40)\n          sub(codesize, bytecodeSize)\n          dup1\n          bytecodeSize\n          dup4\n          codecopy\n          dup2\n          dup2\n          add\n          0x40\n          mstore\n          dup2\n          add\n          swap1\n          tag_2\n          swap2\n          swap1\n          tag_3\n          jump\t// in\n        tag_2:\n            /* \"Campaign.sol\":1301:1308  creator */\n          dup5\n            /* \"Campaign.sol\":1274:1282  campaign */\n          0x00\n            /* \"Campaign.sol\":1274:1290  campaign.manager */\n          dup1\n          add\n          0x00\n            /* \"Campaign.sol\":1274:1309  campaign.manager = payable(creator) */\n          0x0100\n          exp\n          dup2\n          sload\n          dup2\n          0xffffffffffffffffffffffffffffffffffffffff\n          mul\n          not\n          and\n          swap1\n          dup4\n          0xffffffffffffffffffffffffffffffffffffffff\n          and\n          mul\n          or\n          swap1\n          sstore\n          pop\n            /* \"Campaign.sol\":1336:1348  campaignName */\n          dup4\n            /* \"Campaign.sol\":1320:1328  campaign */\n          0x00\n            /* \"Campaign.sol\":1320:1333  campaign.name */\n          0x01\n          add\n            /* \"Campaign.sol\":1320:1348  campaign.name = campaignName */\n          swap1\n          dup1\n          mload\n          swap1\n          0x20\n          add\n          swap1\n          tag_6\n          swap3\n          swap2\n          swap1\n          tag_7\n          jump\t// in\n        tag_6:\n          pop\n            /* \"Campaign.sol\":1386:1393  balance */\n          dup3\n            /* \"Campaign.sol\":1359:1367  campaign */\n          0x00\n            /* \"Campaign.sol\":1359:1383  campaign.requiredBalance */\n          0x02\n          add\n            /* \"Campaign.sol\":1359:1393  campaign.requiredBalance = balance */\n          dup2\n          swap1\n          sstore\n          pop\n            /* \"Campaign.sol\":1428:1432  cost */\n          dup2\n            /* \"Campaign.sol\":1404:1412  campaign */\n          0x00\n            /* \"Campaign.sol\":1404:1425  campaign.requiredCost */\n          0x03\n          add\n            /* \"Campaign.sol\":1404:1432  campaign.requiredCost = cost */\n          dup2\n          swap1\n          sstore\n          pop\n            /* \"Campaign.sol\":1472:1473  0 */\n          0x00\n            /* \"Campaign.sol\":1443:1451  campaign */\n          dup1\n            /* \"Campaign.sol\":1443:1469  campaign.contributorsCount */\n          0x05\n          add\n            /* \"Campaign.sol\":1443:1473  campaign.contributorsCount = 0 */\n          dup2\n          swap1\n          sstore\n          pop\n            /* \"Campaign.sol\":1504:1509  false */\n          0x00\n            /* \"Campaign.sol\":1484:1492  campaign */\n          dup1\n            /* \"Campaign.sol\":1484:1501  campaign.complete */\n          0x06\n          add\n          0x00\n            /* \"Campaign.sol\":1484:1509  campaign.complete = false */\n          0x0100\n          exp\n          dup2\n          sload\n          dup2\n          0xff\n          mul\n          not\n          and\n          swap1\n          dup4\n          iszero\n          iszero\n          mul\n          or\n          swap1\n          sstore\n          pop\n            /* \"Campaign.sol\":1540:1548  deadline */\n          dup1\n            /* \"Campaign.sol\":1520:1528  campaign */\n          0x00\n            /* \"Campaign.sol\":1520:1537  campaign.deadline */\n          0x07\n          add\n            /* \"Campaign.sol\":1520:1548  campaign.deadline = deadline */\n          dup2\n          swap1\n          sstore\n          pop\n            /* \"Campaign.sol\":1163:1556  constructor(address creator, string memory campaignName, uint balance, uint cost, uint256 deadline) {... */\n          pop\n          pop\n          pop\n          pop\n          pop\n            /* \"Campaign.sol\":772:2790  contract Campaign {... */\n          jump(tag_8)\n        tag_7:\n          dup3\n          dup1\n          sload\n          tag_9\n          swap1\n          tag_10\n          jump\t// in\n        tag_9:\n          swap1\n          0x00\n          mstore\n          keccak256(0x00, 0x20)\n          swap1\n          0x1f\n          add\n          0x20\n          swap1\n          div\n          dup2\n          add\n          swap3\n          dup3\n          tag_12\n          jumpi\n          0x00\n          dup6\n          sstore\n          jump(tag_11)\n        tag_12:\n          dup3\n          0x1f\n          lt\n          tag_13\n          jumpi\n          dup1\n          mload\n          not(0xff)\n          and\n          dup4\n          dup1\n          add\n          or\n          dup6\n          sstore\n          jump(tag_11)\n        tag_13:\n          dup3\n          dup1\n          add\n          0x01\n          add\n          dup6\n          sstore\n          dup3\n          iszero\n          tag_11\n          jumpi\n          swap2\n          dup3\n          add\n        tag_14:\n          dup3\n          dup2\n          gt\n          iszero\n          tag_15\n          jumpi\n          dup3\n          mload\n          dup3\n          sstore\n          swap2\n          0x20\n          add\n          swap2\n          swap1\n          0x01\n          add\n          swap1\n          jump(tag_14)\n        tag_15:\n        tag_11:\n          pop\n          swap1\n          pop\n          tag_16\n          swap2\n          swap1\n          tag_17\n          jump\t// in\n        tag_16:\n          pop\n          swap1\n          jump\t// out\n        tag_17:\n        tag_18:\n          dup1\n          dup3\n          gt\n          iszero\n          tag_19\n          jumpi\n          0x00\n          dup2\n          0x00\n          swap1\n          sstore\n          pop\n          0x01\n          add\n          jump(tag_18)\n        tag_19:\n          pop\n          swap1\n          jump\t// out\n            /* \"#utility.yul\":7:82   */\n        tag_20:\n            /* \"#utility.yul\":40:46   */\n          0x00\n            /* \"#utility.yul\":73:75   */\n          0x40\n            /* \"#utility.yul\":67:76   */\n          mload\n            /* \"#utility.yul\":57:76   */\n          swap1\n          pop\n            /* \"#utility.yul\":7:82   */\n          swap1\n          jump\t// out\n            /* \"#utility.yul\":88:205   */\n        tag_21:\n            /* \"#utility.yul\":197:198   */\n          0x00\n            /* \"#utility.yul\":194:195   */\n          dup1\n            /* \"#utility.yul\":187:199   */\n          revert\n            /* \"#utility.yul\":211:328   */\n        tag_22:\n            /* \"#utility.yul\":320:321   */\n          0x00\n            /* \"#utility.yul\":317:318   */\n          dup1\n            /* \"#utility.yul\":310:322   */\n          revert\n            /* \"#utility.yul\":334:460   */\n        tag_23:\n            /* \"#utility.yul\":371:378   */\n          0x00\n            /* \"#utility.yul\":411:453   */\n          0xffffffffffffffffffffffffffffffffffffffff\n            /* \"#utility.yul\":404:409   */\n          dup3\n            /* \"#utility.yul\":400:454   */\n          and\n            /* \"#utility.yul\":389:454   */\n          swap1\n          pop\n            /* \"#utility.yul\":334:460   */\n          swap2\n          swap1\n          pop\n          jump\t// out\n            /* \"#utility.yul\":466:562   */\n        tag_24:\n            /* \"#utility.yul\":503:510   */\n          0x00\n            /* \"#utility.yul\":532:556   */\n          tag_47\n            /* \"#utility.yul\":550:555   */\n          dup3\n            /* \"#utility.yul\":532:556   */\n          tag_23\n          jump\t// in\n        tag_47:\n            /* \"#utility.yul\":521:556   */\n          swap1\n          pop\n            /* \"#utility.yul\":466:562   */\n          swap2\n          swap1\n          pop\n          jump\t// out\n            /* \"#utility.yul\":568:690   */\n        tag_25:\n            /* \"#utility.yul\":641:665   */\n          tag_49\n            /* \"#utility.yul\":659:664   */\n          dup2\n            /* \"#utility.yul\":641:665   */\n          tag_24\n          jump\t// in\n        tag_49:\n            /* \"#utility.yul\":634:639   */\n          dup2\n            /* \"#utility.yul\":631:666   */\n          eq\n            /* \"#utility.yul\":621:684   */\n          tag_50\n          jumpi\n            /* \"#utility.yul\":680:681   */\n          0x00\n            /* \"#utility.yul\":677:678   */\n          dup1\n            /* \"#utility.yul\":670:682   */\n          revert\n            /* \"#utility.yul\":621:684   */\n        tag_50:\n            /* \"#utility.yul\":568:690   */\n          pop\n          jump\t// out\n            /* \"#utility.yul\":696:839   */\n        tag_26:\n            /* \"#utility.yul\":753:758   */\n          0x00\n            /* \"#utility.yul\":784:790   */\n          dup2\n            /* \"#utility.yul\":778:791   */\n          mload\n            /* \"#utility.yul\":769:791   */\n          swap1\n          pop\n            /* \"#utility.yul\":800:833   */\n          tag_52\n            /* \"#utility.yul\":827:832   */\n          dup2\n            /* \"#utility.yul\":800:833   */\n          tag_25\n          jump\t// in\n        tag_52:\n            /* \"#utility.yul\":696:839   */\n          swap3\n          swap2\n          pop\n          pop\n          jump\t// out\n            /* \"#utility.yul\":845:962   */\n        tag_27:\n            /* \"#utility.yul\":954:955   */\n          0x00\n            /* \"#utility.yul\":951:952   */\n          dup1\n            /* \"#utility.yul\":944:956   */\n          revert\n            /* \"#utility.yul\":968:1085   */\n        tag_28:\n            /* \"#utility.yul\":1077:1078   */\n          0x00\n            /* \"#utility.yul\":1074:1075   */\n          dup1\n            /* \"#utility.yul\":1067:1079   */\n          revert\n            /* \"#utility.yul\":1091:1193   */\n        tag_29:\n            /* \"#utility.yul\":1132:1138   */\n          0x00\n            /* \"#utility.yul\":1183:1185   */\n          0x1f\n            /* \"#utility.yul\":1179:1186   */\n          not\n            /* \"#utility.yul\":1174:1176   */\n          0x1f\n            /* \"#utility.yul\":1167:1172   */\n          dup4\n            /* \"#utility.yul\":1163:1177   */\n          add\n            /* \"#utility.yul\":1159:1187   */\n          and\n            /* \"#utility.yul\":1149:1187   */\n          swap1\n          pop\n            /* \"#utility.yul\":1091:1193   */\n          swap2\n          swap1\n          pop\n          jump\t// out\n            /* \"#utility.yul\":1199:1379   */\n        tag_30:\n            /* \"#utility.yul\":1247:1324   */\n          0x4e487b7100000000000000000000000000000000000000000000000000000000\n            /* \"#utility.yul\":1244:1245   */\n          0x00\n            /* \"#utility.yul\":1237:1325   */\n          mstore\n            /* \"#utility.yul\":1344:1348   */\n          0x41\n            /* \"#utility.yul\":1341:1342   */\n          0x04\n            /* \"#utility.yul\":1334:1349   */\n          mstore\n            /* \"#utility.yul\":1368:1372   */\n          0x24\n            /* \"#utility.yul\":1365:1366   */\n          0x00\n            /* \"#utility.yul\":1358:1373   */\n          revert\n            /* \"#utility.yul\":1385:1666   */\n        tag_31:\n            /* \"#utility.yul\":1468:1495   */\n          tag_58\n            /* \"#utility.yul\":1490:1494   */\n          dup3\n            /* \"#utility.yul\":1468:1495   */\n          tag_29\n          jump\t// in\n        tag_58:\n            /* \"#utility.yul\":1460:1466   */\n          dup2\n            /* \"#utility.yul\":1456:1496   */\n          add\n            /* \"#utility.yul\":1598:1604   */\n          dup2\n            /* \"#utility.yul\":1586:1596   */\n          dup2\n            /* \"#utility.yul\":1583:1605   */\n          lt\n            /* \"#utility.yul\":1562:1580   */\n          0xffffffffffffffff\n            /* \"#utility.yul\":1550:1560   */\n          dup3\n            /* \"#utility.yul\":1547:1581   */\n          gt\n            /* \"#utility.yul\":1544:1606   */\n          or\n            /* \"#utility.yul\":1541:1629   */\n          iszero\n          tag_59\n          jumpi\n            /* \"#utility.yul\":1609:1627   */\n          tag_60\n          tag_30\n          jump\t// in\n        tag_60:\n            /* \"#utility.yul\":1541:1629   */\n        tag_59:\n            /* \"#utility.yul\":1649:1659   */\n          dup1\n            /* \"#utility.yul\":1645:1647   */\n          0x40\n            /* \"#utility.yul\":1638:1660   */\n          mstore\n            /* \"#utility.yul\":1428:1666   */\n          pop\n            /* \"#utility.yul\":1385:1666   */\n          pop\n          pop\n          jump\t// out\n            /* \"#utility.yul\":1672:1801   */\n        tag_32:\n            /* \"#utility.yul\":1706:1712   */\n          0x00\n            /* \"#utility.yul\":1733:1753   */\n          tag_62\n          tag_20\n          jump\t// in\n        tag_62:\n            /* \"#utility.yul\":1723:1753   */\n          swap1\n          pop\n            /* \"#utility.yul\":1762:1795   */\n          tag_63\n            /* \"#utility.yul\":1790:1794   */\n          dup3\n            /* \"#utility.yul\":1782:1788   */\n          dup3\n            /* \"#utility.yul\":1762:1795   */\n          tag_31\n          jump\t// in\n        tag_63:\n            /* \"#utility.yul\":1672:1801   */\n          swap2\n          swap1\n          pop\n          jump\t// out\n            /* \"#utility.yul\":1807:2115   */\n        tag_33:\n            /* \"#utility.yul\":1869:1873   */\n          0x00\n            /* \"#utility.yul\":1959:1977   */\n          0xffffffffffffffff\n            /* \"#utility.yul\":1951:1957   */\n          dup3\n            /* \"#utility.yul\":1948:1978   */\n          gt\n            /* \"#utility.yul\":1945:2001   */\n          iszero\n          tag_65\n          jumpi\n            /* \"#utility.yul\":1981:1999   */\n          tag_66\n          tag_30\n          jump\t// in\n        tag_66:\n            /* \"#utility.yul\":1945:2001   */\n        tag_65:\n            /* \"#utility.yul\":2019:2048   */\n          tag_67\n            /* \"#utility.yul\":2041:2047   */\n          dup3\n            /* \"#utility.yul\":2019:2048   */\n          tag_29\n          jump\t// in\n        tag_67:\n            /* \"#utility.yul\":2011:2048   */\n          swap1\n          pop\n            /* \"#utility.yul\":2103:2107   */\n          0x20\n            /* \"#utility.yul\":2097:2101   */\n          dup2\n            /* \"#utility.yul\":2093:2108   */\n          add\n            /* \"#utility.yul\":2085:2108   */\n          swap1\n          pop\n            /* \"#utility.yul\":1807:2115   */\n          swap2\n          swap1\n          pop\n          jump\t// out\n            /* \"#utility.yul\":2121:2428   */\n        tag_34:\n            /* \"#utility.yul\":2189:2190   */\n          0x00\n            /* \"#utility.yul\":2199:2312   */\n        tag_69:\n            /* \"#utility.yul\":2213:2219   */\n          dup4\n            /* \"#utility.yul\":2210:2211   */\n          dup2\n            /* \"#utility.yul\":2207:2220   */\n          lt\n            /* \"#utility.yul\":2199:2312   */\n          iszero\n          tag_71\n          jumpi\n            /* \"#utility.yul\":2298:2299   */\n          dup1\n            /* \"#utility.yul\":2293:2296   */\n          dup3\n            /* \"#utility.yul\":2289:2300   */\n          add\n            /* \"#utility.yul\":2283:2301   */\n          mload\n            /* \"#utility.yul\":2279:2280   */\n          dup2\n            /* \"#utility.yul\":2274:2277   */\n          dup5\n            /* \"#utility.yul\":2270:2281   */\n          add\n            /* \"#utility.yul\":2263:2302   */\n          mstore\n            /* \"#utility.yul\":2235:2237   */\n          0x20\n            /* \"#utility.yul\":2232:2233   */\n          dup2\n            /* \"#utility.yul\":2228:2238   */\n          add\n            /* \"#utility.yul\":2223:2238   */\n          swap1\n          pop\n            /* \"#utility.yul\":2199:2312   */\n          jump(tag_69)\n        tag_71:\n            /* \"#utility.yul\":2330:2336   */\n          dup4\n            /* \"#utility.yul\":2327:2328   */\n          dup2\n            /* \"#utility.yul\":2324:2337   */\n          gt\n            /* \"#utility.yul\":2321:2422   */\n          iszero\n          tag_72\n          jumpi\n            /* \"#utility.yul\":2410:2411   */\n          0x00\n            /* \"#utility.yul\":2401:2407   */\n          dup5\n            /* \"#utility.yul\":2396:2399   */\n          dup5\n            /* \"#utility.yul\":2392:2408   */\n          add\n            /* \"#utility.yul\":2385:2412   */\n          mstore\n            /* \"#utility.yul\":2321:2422   */\n        tag_72:\n            /* \"#utility.yul\":2170:2428   */\n          pop\n            /* \"#utility.yul\":2121:2428   */\n          pop\n          pop\n          pop\n          jump\t// out\n            /* \"#utility.yul\":2434:2855   */\n        tag_35:\n            /* \"#utility.yul\":2523:2528   */\n          0x00\n            /* \"#utility.yul\":2548:2614   */\n          tag_74\n            /* \"#utility.yul\":2564:2613   */\n          tag_75\n            /* \"#utility.yul\":2606:2612   */\n          dup5\n            /* \"#utility.yul\":2564:2613   */\n          tag_33\n          jump\t// in\n        tag_75:\n            /* \"#utility.yul\":2548:2614   */\n          tag_32\n          jump\t// in\n        tag_74:\n            /* \"#utility.yul\":2539:2614   */\n          swap1\n          pop\n            /* \"#utility.yul\":2637:2643   */\n          dup3\n            /* \"#utility.yul\":2630:2635   */\n          dup2\n            /* \"#utility.yul\":2623:2644   */\n          mstore\n            /* \"#utility.yul\":2675:2679   */\n          0x20\n            /* \"#utility.yul\":2668:2673   */\n          dup2\n            /* \"#utility.yul\":2664:2680   */\n          add\n            /* \"#utility.yul\":2713:2716   */\n          dup5\n            /* \"#utility.yul\":2704:2710   */\n          dup5\n            /* \"#utility.yul\":2699:2702   */\n          dup5\n            /* \"#utility.yul\":2695:2711   */\n          add\n            /* \"#utility.yul\":2692:2717   */\n          gt\n            /* \"#utility.yul\":2689:2801   */\n          iszero\n          tag_76\n          jumpi\n            /* \"#utility.yul\":2720:2799   */\n          tag_77\n          tag_28\n          jump\t// in\n        tag_77:\n            /* \"#utility.yul\":2689:2801   */\n        tag_76:\n            /* \"#utility.yul\":2810:2849   */\n          tag_78\n            /* \"#utility.yul\":2842:2848   */\n          dup5\n            /* \"#utility.yul\":2837:2840   */\n          dup3\n            /* \"#utility.yul\":2832:2835   */\n          dup6\n            /* \"#utility.yul\":2810:2849   */\n          tag_34\n          jump\t// in\n        tag_78:\n            /* \"#utility.yul\":2529:2855   */\n          pop\n            /* \"#utility.yul\":2434:2855   */\n          swap4\n          swap3\n          pop\n          pop\n          pop\n          jump\t// out\n            /* \"#utility.yul\":2875:3230   */\n        tag_36:\n            /* \"#utility.yul\":2942:2947   */\n          0x00\n            /* \"#utility.yul\":2991:2994   */\n          dup3\n            /* \"#utility.yul\":2984:2988   */\n          0x1f\n            /* \"#utility.yul\":2976:2982   */\n          dup4\n            /* \"#utility.yul\":2972:2989   */\n          add\n            /* \"#utility.yul\":2968:2995   */\n          slt\n            /* \"#utility.yul\":2958:3080   */\n          tag_80\n          jumpi\n            /* \"#utility.yul\":2999:3078   */\n          tag_81\n          tag_27\n          jump\t// in\n        tag_81:\n            /* \"#utility.yul\":2958:3080   */\n        tag_80:\n            /* \"#utility.yul\":3109:3115   */\n          dup2\n            /* \"#utility.yul\":3103:3116   */\n          mload\n            /* \"#utility.yul\":3134:3224   */\n          tag_82\n            /* \"#utility.yul\":3220:3223   */\n          dup5\n            /* \"#utility.yul\":3212:3218   */\n          dup3\n            /* \"#utility.yul\":3205:3209   */\n          0x20\n            /* \"#utility.yul\":3197:3203   */\n          dup7\n            /* \"#utility.yul\":3193:3210   */\n          add\n            /* \"#utility.yul\":3134:3224   */\n          tag_35\n          jump\t// in\n        tag_82:\n            /* \"#utility.yul\":3125:3224   */\n          swap2\n          pop\n            /* \"#utility.yul\":2948:3230   */\n          pop\n            /* \"#utility.yul\":2875:3230   */\n          swap3\n          swap2\n          pop\n          pop\n          jump\t// out\n            /* \"#utility.yul\":3236:3313   */\n        tag_37:\n            /* \"#utility.yul\":3273:3280   */\n          0x00\n            /* \"#utility.yul\":3302:3307   */\n          dup2\n            /* \"#utility.yul\":3291:3307   */\n          swap1\n          pop\n            /* \"#utility.yul\":3236:3313   */\n          swap2\n          swap1\n          pop\n          jump\t// out\n            /* \"#utility.yul\":3319:3441   */\n        tag_38:\n            /* \"#utility.yul\":3392:3416   */\n          tag_85\n            /* \"#utility.yul\":3410:3415   */\n          dup2\n            /* \"#utility.yul\":3392:3416   */\n          tag_37\n          jump\t// in\n        tag_85:\n            /* \"#utility.yul\":3385:3390   */\n          dup2\n            /* \"#utility.yul\":3382:3417   */\n          eq\n            /* \"#utility.yul\":3372:3435   */\n          tag_86\n          jumpi\n            /* \"#utility.yul\":3431:3432   */\n          0x00\n            /* \"#utility.yul\":3428:3429   */\n          dup1\n            /* \"#utility.yul\":3421:3433   */\n          revert\n            /* \"#utility.yul\":3372:3435   */\n        tag_86:\n            /* \"#utility.yul\":3319:3441   */\n          pop\n          jump\t// out\n            /* \"#utility.yul\":3447:3590   */\n        tag_39:\n            /* \"#utility.yul\":3504:3509   */\n          0x00\n            /* \"#utility.yul\":3535:3541   */\n          dup2\n            /* \"#utility.yul\":3529:3542   */\n          mload\n            /* \"#utility.yul\":3520:3542   */\n          swap1\n          pop\n            /* \"#utility.yul\":3551:3584   */\n          tag_88\n            /* \"#utility.yul\":3578:3583   */\n          dup2\n            /* \"#utility.yul\":3551:3584   */\n          tag_38\n          jump\t// in\n        tag_88:\n            /* \"#utility.yul\":3447:3590   */\n          swap3\n          swap2\n          pop\n          pop\n          jump\t// out\n            /* \"#utility.yul\":3596:4746   */\n        tag_3:\n            /* \"#utility.yul\":3712:3718   */\n          0x00\n            /* \"#utility.yul\":3720:3726   */\n          dup1\n            /* \"#utility.yul\":3728:3734   */\n          0x00\n            /* \"#utility.yul\":3736:3742   */\n          dup1\n            /* \"#utility.yul\":3744:3750   */\n          0x00\n            /* \"#utility.yul\":3793:3796   */\n          0xa0\n            /* \"#utility.yul\":3781:3790   */\n          dup7\n            /* \"#utility.yul\":3772:3779   */\n          dup9\n            /* \"#utility.yul\":3768:3791   */\n          sub\n            /* \"#utility.yul\":3764:3797   */\n          slt\n            /* \"#utility.yul\":3761:3881   */\n          iszero\n          tag_90\n          jumpi\n            /* \"#utility.yul\":3800:3879   */\n          tag_91\n          tag_21\n          jump\t// in\n        tag_91:\n            /* \"#utility.yul\":3761:3881   */\n        tag_90:\n            /* \"#utility.yul\":3920:3921   */\n          0x00\n            /* \"#utility.yul\":3945:4009   */\n          tag_92\n            /* \"#utility.yul\":4001:4008   */\n          dup9\n            /* \"#utility.yul\":3992:3998   */\n          dup3\n            /* \"#utility.yul\":3981:3990   */\n          dup10\n            /* \"#utility.yul\":3977:3999   */\n          add\n            /* \"#utility.yul\":3945:4009   */\n          tag_26\n          jump\t// in\n        tag_92:\n            /* \"#utility.yul\":3935:4009   */\n          swap6\n          pop\n            /* \"#utility.yul\":3891:4019   */\n          pop\n            /* \"#utility.yul\":4079:4081   */\n          0x20\n            /* \"#utility.yul\":4068:4077   */\n          dup7\n            /* \"#utility.yul\":4064:4082   */\n          add\n            /* \"#utility.yul\":4058:4083   */\n          mload\n            /* \"#utility.yul\":4110:4128   */\n          0xffffffffffffffff\n            /* \"#utility.yul\":4102:4108   */\n          dup2\n            /* \"#utility.yul\":4099:4129   */\n          gt\n            /* \"#utility.yul\":4096:4213   */\n          iszero\n          tag_93\n          jumpi\n            /* \"#utility.yul\":4132:4211   */\n          tag_94\n          tag_22\n          jump\t// in\n        tag_94:\n            /* \"#utility.yul\":4096:4213   */\n        tag_93:\n            /* \"#utility.yul\":4237:4311   */\n          tag_95\n            /* \"#utility.yul\":4303:4310   */\n          dup9\n            /* \"#utility.yul\":4294:4300   */\n          dup3\n            /* \"#utility.yul\":4283:4292   */\n          dup10\n            /* \"#utility.yul\":4279:4301   */\n          add\n            /* \"#utility.yul\":4237:4311   */\n          tag_36\n          jump\t// in\n        tag_95:\n            /* \"#utility.yul\":4227:4311   */\n          swap5\n          pop\n            /* \"#utility.yul\":4029:4321   */\n          pop\n            /* \"#utility.yul\":4360:4362   */\n          0x40\n            /* \"#utility.yul\":4386:4450   */\n          tag_96\n            /* \"#utility.yul\":4442:4449   */\n          dup9\n            /* \"#utility.yul\":4433:4439   */\n          dup3\n            /* \"#utility.yul\":4422:4431   */\n          dup10\n            /* \"#utility.yul\":4418:4440   */\n          add\n            /* \"#utility.yul\":4386:4450   */\n          tag_39\n          jump\t// in\n        tag_96:\n            /* \"#utility.yul\":4376:4450   */\n          swap4\n          pop\n            /* \"#utility.yul\":4331:4460   */\n          pop\n            /* \"#utility.yul\":4499:4501   */\n          0x60\n            /* \"#utility.yul\":4525:4589   */\n          tag_97\n            /* \"#utility.yul\":4581:4588   */\n          dup9\n            /* \"#utility.yul\":4572:4578   */\n          dup3\n            /* \"#utility.yul\":4561:4570   */\n          dup10\n            /* \"#utility.yul\":4557:4579   */\n          add\n            /* \"#utility.yul\":4525:4589   */\n          tag_39\n          jump\t// in\n        tag_97:\n            /* \"#utility.yul\":4515:4589   */\n          swap3\n          pop\n            /* \"#utility.yul\":4470:4599   */\n          pop\n            /* \"#utility.yul\":4638:4641   */\n          0x80\n            /* \"#utility.yul\":4665:4729   */\n          tag_98\n            /* \"#utility.yul\":4721:4728   */\n          dup9\n            /* \"#utility.yul\":4712:4718   */\n          dup3\n            /* \"#utility.yul\":4701:4710   */\n          dup10\n            /* \"#utility.yul\":4697:4719   */\n          add\n            /* \"#utility.yul\":4665:4729   */\n          tag_39\n          jump\t// in\n        tag_98:\n            /* \"#utility.yul\":4655:4729   */\n          swap2\n          pop\n            /* \"#utility.yul\":4609:4739   */\n          pop\n            /* \"#utility.yul\":3596:4746   */\n          swap3\n          swap6\n          pop\n          swap3\n          swap6\n          swap1\n          swap4\n          pop\n          jump\t// out\n            /* \"#utility.yul\":4752:4932   */\n        tag_40:\n            /* \"#utility.yul\":4800:4877   */\n          0x4e487b7100000000000000000000000000000000000000000000000000000000\n            /* \"#utility.yul\":4797:4798   */\n          0x00\n            /* \"#utility.yul\":4790:4878   */\n          mstore\n            /* \"#utility.yul\":4897:4901   */\n          0x22\n            /* \"#utility.yul\":4894:4895   */\n          0x04\n            /* \"#utility.yul\":4887:4902   */\n          mstore\n            /* \"#utility.yul\":4921:4925   */\n          0x24\n            /* \"#utility.yul\":4918:4919   */\n          0x00\n            /* \"#utility.yul\":4911:4926   */\n          revert\n            /* \"#utility.yul\":4938:5258   */\n        tag_10:\n            /* \"#utility.yul\":4982:4988   */\n          0x00\n            /* \"#utility.yul\":5019:5020   */\n          0x02\n            /* \"#utility.yul\":5013:5017   */\n          dup3\n            /* \"#utility.yul\":5009:5021   */\n          div\n            /* \"#utility.yul\":4999:5021   */\n          swap1\n          pop\n            /* \"#utility.yul\":5066:5067   */\n          0x01\n            /* \"#utility.yul\":5060:5064   */\n          dup3\n            /* \"#utility.yul\":5056:5068   */\n          and\n            /* \"#utility.yul\":5087:5105   */\n          dup1\n            /* \"#utility.yul\":5077:5158   */\n          tag_101\n          jumpi\n            /* \"#utility.yul\":5143:5147   */\n          0x7f\n            /* \"#utility.yul\":5135:5141   */\n          dup3\n            /* \"#utility.yul\":5131:5148   */\n          and\n            /* \"#utility.yul\":5121:5148   */\n          swap2\n          pop\n            /* \"#utility.yul\":5077:5158   */\n        tag_101:\n            /* \"#utility.yul\":5205:5207   */\n          0x20\n            /* \"#utility.yul\":5197:5203   */\n          dup3\n            /* \"#utility.yul\":5194:5208   */\n          lt\n            /* \"#utility.yul\":5174:5192   */\n          dup2\n            /* \"#utility.yul\":5171:5209   */\n          sub\n            /* \"#utility.yul\":5168:5252   */\n          tag_102\n          jumpi\n            /* \"#utility.yul\":5224:5242   */\n          tag_103\n          tag_40\n          jump\t// in\n        tag_103:\n            /* \"#utility.yul\":5168:5252   */\n        tag_102:\n            /* \"#utility.yul\":4989:5258   */\n          pop\n            /* \"#utility.yul\":4938:5258   */\n          swap2\n          swap1\n          pop\n          jump\t// out\n            /* \"Campaign.sol\":772:2790  contract Campaign {... */\n        tag_8:\n          dataSize(sub_0)\n          dup1\n          dataOffset(sub_0)\n          0x00\n          codecopy\n          0x00\n          return\n        stop\n\n        sub_0: assembly {\n                /* \"Campaign.sol\":772:2790  contract Campaign {... */\n              mstore(0x40, 0x80)\n              jumpi(tag_1, lt(calldatasize, 0x04))\n              shr(0xe0, calldataload(0x00))\n              dup1\n              0x236b8e3a\n              eq\n              tag_2\n              jumpi\n              dup1\n              0x39cbcc64\n              eq\n              tag_3\n              jumpi\n              dup1\n              0x4e71d92d\n              eq\n              tag_4\n              jumpi\n              dup1\n              0xc1cbbca7\n              eq\n              tag_5\n              jumpi\n            tag_1:\n              0x00\n              dup1\n              revert\n                /* \"Campaign.sol\":1564:1862  function getCampaign() public view returns (address, uint, string memory, uint, uint, uint, bool, uint256) {... */\n            tag_2:\n              callvalue\n              dup1\n              iszero\n              tag_6\n              jumpi\n              0x00\n              dup1\n              revert\n            tag_6:\n              pop\n              tag_7\n              tag_8\n              jump\t// in\n            tag_7:\n              mload(0x40)\n              tag_9\n              swap9\n              swap8\n              swap7\n              swap6\n              swap5\n              swap4\n              swap3\n              swap2\n              swap1\n              tag_10\n              jump\t// in\n            tag_9:\n              mload(0x40)\n              dup1\n              swap2\n              sub\n              swap1\n              return\n                /* \"Campaign.sol\":2491:2609  function getContributorDonate() public view returns (uint) {... */\n            tag_3:\n              callvalue\n              dup1\n              iszero\n              tag_11\n              jumpi\n              0x00\n              dup1\n              revert\n            tag_11:\n              pop\n              tag_12\n              tag_13\n              jump\t// in\n            tag_12:\n              mload(0x40)\n              tag_14\n              swap2\n              swap1\n              tag_15\n              jump\t// in\n            tag_14:\n              mload(0x40)\n              dup1\n              swap2\n              sub\n              swap1\n              return\n                /* \"Campaign.sol\":2617:2787  function claim() public payable {... */\n            tag_4:\n              tag_16\n              tag_17\n              jump\t// in\n            tag_16:\n              stop\n                /* \"Campaign.sol\":1870:2483  function contribute(uint donate) public payable {... */\n            tag_5:\n              tag_18\n              0x04\n              dup1\n              calldatasize\n              sub\n              dup2\n              add\n              swap1\n              tag_19\n              swap2\n              swap1\n              tag_20\n              jump\t// in\n            tag_19:\n              tag_21\n              jump\t// in\n            tag_18:\n              stop\n                /* \"Campaign.sol\":1564:1862  function getCampaign() public view returns (address, uint, string memory, uint, uint, uint, bool, uint256) {... */\n            tag_8:\n                /* \"Campaign.sol\":1608:1615  address */\n              0x00\n                /* \"Campaign.sol\":1617:1621  uint */\n              dup1\n                /* \"Campaign.sol\":1623:1636  string memory */\n              0x60\n                /* \"Campaign.sol\":1638:1642  uint */\n              0x00\n                /* \"Campaign.sol\":1644:1648  uint */\n              dup1\n                /* \"Campaign.sol\":1650:1654  uint */\n              0x00\n                /* \"Campaign.sol\":1656:1660  bool */\n              dup1\n                /* \"Campaign.sol\":1662:1669  uint256 */\n              0x00\n                /* \"Campaign.sol\":1682:1703  Information storage c */\n              dup1\n                /* \"Campaign.sol\":1706:1714  campaign */\n              0x00\n                /* \"Campaign.sol\":1682:1714  Information storage c = campaign */\n              swap1\n              pop\n                /* \"Campaign.sol\":1733:1734  c */\n              dup1\n                /* \"Campaign.sol\":1733:1742  c.manager */\n              0x00\n              add\n              0x00\n              swap1\n              sload\n              swap1\n              0x0100\n              exp\n              swap1\n              div\n              0xffffffffffffffffffffffffffffffffffffffff\n              and\n                /* \"Campaign.sol\":1744:1765  address(this).balance */\n              selfbalance\n                /* \"Campaign.sol\":1767:1768  c */\n              dup3\n                /* \"Campaign.sol\":1767:1773  c.name */\n              0x01\n              add\n                /* \"Campaign.sol\":1775:1776  c */\n              dup4\n                /* \"Campaign.sol\":1775:1792  c.requiredBalance */\n              0x02\n              add\n              sload\n                /* \"Campaign.sol\":1794:1795  c */\n              dup5\n                /* \"Campaign.sol\":1794:1808  c.requiredCost */\n              0x03\n              add\n              sload\n                /* \"Campaign.sol\":1810:1811  c */\n              dup6\n                /* \"Campaign.sol\":1810:1829  c.contributorsCount */\n              0x05\n              add\n              sload\n                /* \"Campaign.sol\":1831:1832  c */\n              dup7\n                /* \"Campaign.sol\":1831:1841  c.complete */\n              0x06\n              add\n              0x00\n              swap1\n              sload\n              swap1\n              0x0100\n              exp\n              swap1\n              div\n              0xff\n              and\n                /* \"Campaign.sol\":1843:1844  c */\n              dup8\n                /* \"Campaign.sol\":1843:1853  c.deadline */\n              0x07\n              add\n              sload\n                /* \"Campaign.sol\":1725:1854  return (c.manager, address(this).balance, c.name, c.requiredBalance, c.requiredCost, c.contributorsCount, c.complete, c.deadline) */\n              dup6\n              dup1\n              sload\n              tag_23\n              swap1\n              tag_24\n              jump\t// in\n            tag_23:\n              dup1\n              0x1f\n              add\n              0x20\n              dup1\n              swap2\n              div\n              mul\n              0x20\n              add\n              mload(0x40)\n              swap1\n              dup2\n              add\n              0x40\n              mstore\n              dup1\n              swap3\n              swap2\n              swap1\n              dup2\n              dup2\n              mstore\n              0x20\n              add\n              dup3\n              dup1\n              sload\n              tag_25\n              swap1\n              tag_24\n              jump\t// in\n            tag_25:\n              dup1\n              iszero\n              tag_26\n              jumpi\n              dup1\n              0x1f\n              lt\n              tag_27\n              jumpi\n              0x0100\n              dup1\n              dup4\n              sload\n              div\n              mul\n              dup4\n              mstore\n              swap2\n              0x20\n              add\n              swap2\n              jump(tag_26)\n            tag_27:\n              dup3\n              add\n              swap2\n              swap1\n              0x00\n              mstore\n              keccak256(0x00, 0x20)\n              swap1\n            tag_28:\n              dup2\n              sload\n              dup2\n              mstore\n              swap1\n              0x01\n              add\n              swap1\n              0x20\n              add\n              dup1\n              dup4\n              gt\n              tag_28\n              jumpi\n              dup3\n              swap1\n              sub\n              0x1f\n              and\n              dup3\n              add\n              swap2\n            tag_26:\n              pop\n              pop\n              pop\n              pop\n              pop\n              swap6\n              pop\n              swap9\n              pop\n              swap9\n              pop\n              swap9\n              pop\n              swap9\n              pop\n              swap9\n              pop\n              swap9\n              pop\n              swap9\n              pop\n              swap9\n              pop\n              pop\n                /* \"Campaign.sol\":1564:1862  function getCampaign() public view returns (address, uint, string memory, uint, uint, uint, bool, uint256) {... */\n              swap1\n              swap2\n              swap3\n              swap4\n              swap5\n              swap6\n              swap7\n              swap8\n              jump\t// out\n                /* \"Campaign.sol\":2491:2609  function getContributorDonate() public view returns (uint) {... */\n            tag_13:\n                /* \"Campaign.sol\":2544:2548  uint */\n              0x00\n                /* \"Campaign.sol\":2568:2576  campaign */\n              dup1\n                /* \"Campaign.sol\":2568:2589  campaign.contributors */\n              0x04\n              add\n                /* \"Campaign.sol\":2568:2601  campaign.contributors[msg.sender] */\n              0x00\n                /* \"Campaign.sol\":2590:2600  msg.sender */\n              caller\n                /* \"Campaign.sol\":2568:2601  campaign.contributors[msg.sender] */\n              0xffffffffffffffffffffffffffffffffffffffff\n              and\n              0xffffffffffffffffffffffffffffffffffffffff\n              and\n              dup2\n              mstore\n              0x20\n              add\n              swap1\n              dup2\n              mstore\n              0x20\n              add\n              0x00\n              keccak256\n              sload\n                /* \"Campaign.sol\":2561:2601  return campaign.contributors[msg.sender] */\n              swap1\n              pop\n                /* \"Campaign.sol\":2491:2609  function getContributorDonate() public view returns (uint) {... */\n              swap1\n              jump\t// out\n                /* \"Campaign.sol\":2617:2787  function claim() public payable {... */\n            tag_17:\n                /* \"Campaign.sol\":2687:2695  campaign */\n              0x00\n                /* \"Campaign.sol\":2687:2704  campaign.deadline */\n              0x07\n              add\n              sload\n                /* \"Campaign.sol\":2668:2683  block.timestamp */\n              timestamp\n                /* \"Campaign.sol\":2668:2704  block.timestamp >= campaign.deadline */\n              lt\n              iszero\n                /* \"Campaign.sol\":2660:2705  require(block.timestamp >= campaign.deadline) */\n              tag_31\n              jumpi\n              0x00\n              dup1\n              revert\n            tag_31:\n                /* \"Campaign.sol\":2724:2734  msg.sender */\n              caller\n                /* \"Campaign.sol\":2716:2744  payable(msg.sender).transfer */\n              0xffffffffffffffffffffffffffffffffffffffff\n              and\n                /* \"Campaign.sol\":2716:2779  payable(msg.sender).transfer(campaign.contributors[msg.sender]) */\n              0x08fc\n                /* \"Campaign.sol\":2745:2753  campaign */\n              0x00\n                /* \"Campaign.sol\":2745:2766  campaign.contributors */\n              0x04\n              add\n                /* \"Campaign.sol\":2745:2778  campaign.contributors[msg.sender] */\n              0x00\n                /* \"Campaign.sol\":2767:2777  msg.sender */\n              caller\n                /* \"Campaign.sol\":2745:2778  campaign.contributors[msg.sender] */\n              0xffffffffffffffffffffffffffffffffffffffff\n              and\n              0xffffffffffffffffffffffffffffffffffffffff\n              and\n              dup2\n              mstore\n              0x20\n              add\n              swap1\n              dup2\n              mstore\n              0x20\n              add\n              0x00\n              keccak256\n              sload\n                /* \"Campaign.sol\":2716:2779  payable(msg.sender).transfer(campaign.contributors[msg.sender]) */\n              swap1\n              dup2\n              iszero\n              mul\n              swap1\n              mload(0x40)\n              0x00\n              mload(0x40)\n              dup1\n              dup4\n              sub\n              dup2\n              dup6\n              dup9\n              dup9\n              call\n              swap4\n              pop\n              pop\n              pop\n              pop\n              iszero\n              dup1\n              iszero\n              tag_33\n              jumpi\n              returndatasize\n              0x00\n              dup1\n              returndatacopy\n              revert(0x00, returndatasize)\n            tag_33:\n              pop\n                /* \"Campaign.sol\":2617:2787  function claim() public payable {... */\n              jump\t// out\n                /* \"Campaign.sol\":1870:2483  function contribute(uint donate) public payable {... */\n            tag_21:\n                /* \"Campaign.sol\":1938:1946  campaign */\n              0x00\n                /* \"Campaign.sol\":1938:1955  campaign.complete */\n              0x06\n              add\n              0x00\n              swap1\n              sload\n              swap1\n              0x0100\n              exp\n              swap1\n              div\n              0xff\n              and\n                /* \"Campaign.sol\":1937:1955  !campaign.complete */\n              iszero\n                /* \"Campaign.sol\":1929:1956  require(!campaign.complete) */\n              tag_35\n              jumpi\n              0x00\n              dup1\n              revert\n            tag_35:\n                /* \"Campaign.sol\":2005:2006  0 */\n              0x00\n                /* \"Campaign.sol\":1980:1988  campaign */\n              dup1\n                /* \"Campaign.sol\":1980:2001  campaign.requiredCost */\n              0x03\n              add\n              sload\n                /* \"Campaign.sol\":1980:2006  campaign.requiredCost == 0 */\n              sub\n                /* \"Campaign.sol\":1977:2296  if(campaign.requiredCost == 0) {... */\n              tag_36\n              jumpi\n                /* \"Campaign.sol\":2059:2065  donate */\n              dup1\n                /* \"Campaign.sol\":2023:2031  campaign */\n              0x00\n                /* \"Campaign.sol\":2023:2044  campaign.contributors */\n              0x04\n              add\n                /* \"Campaign.sol\":2023:2056  campaign.contributors[msg.sender] */\n              0x00\n                /* \"Campaign.sol\":2045:2055  msg.sender */\n              caller\n                /* \"Campaign.sol\":2023:2056  campaign.contributors[msg.sender] */\n              0xffffffffffffffffffffffffffffffffffffffff\n              and\n              0xffffffffffffffffffffffffffffffffffffffff\n              and\n              dup2\n              mstore\n              0x20\n              add\n              swap1\n              dup2\n              mstore\n              0x20\n              add\n              0x00\n              keccak256\n                /* \"Campaign.sol\":2023:2065  campaign.contributors[msg.sender] = donate */\n              dup2\n              swap1\n              sstore\n              pop\n                /* \"Campaign.sol\":2080:2088  campaign */\n              0x00\n                /* \"Campaign.sol\":2080:2106  campaign.contributorsCount */\n              0x05\n              add\n              0x00\n                /* \"Campaign.sol\":2080:2108  campaign.contributorsCount++ */\n              dup2\n              sload\n              dup1\n              swap3\n              swap2\n              swap1\n              tag_37\n              swap1\n              tag_38\n              jump\t// in\n            tag_37:\n              swap2\n              swap1\n              pop\n              sstore\n              pop\n                /* \"Campaign.sol\":1977:2296  if(campaign.requiredCost == 0) {... */\n              jump(tag_39)\n            tag_36:\n                /* \"Campaign.sol\":2162:2170  campaign */\n              0x00\n                /* \"Campaign.sol\":2162:2183  campaign.requiredCost */\n              0x03\n              add\n              sload\n                /* \"Campaign.sol\":2149:2158  msg.value */\n              callvalue\n                /* \"Campaign.sol\":2149:2183  msg.value >= campaign.requiredCost */\n              lt\n              iszero\n                /* \"Campaign.sol\":2141:2184  require(msg.value >= campaign.requiredCost) */\n              tag_40\n              jumpi\n              0x00\n              dup1\n              revert\n            tag_40:\n                /* \"Campaign.sol\":2235:2241  donate */\n              dup1\n                /* \"Campaign.sol\":2199:2207  campaign */\n              0x00\n                /* \"Campaign.sol\":2199:2220  campaign.contributors */\n              0x04\n              add\n                /* \"Campaign.sol\":2199:2232  campaign.contributors[msg.sender] */\n              0x00\n                /* \"Campaign.sol\":2221:2231  msg.sender */\n              caller\n                /* \"Campaign.sol\":2199:2232  campaign.contributors[msg.sender] */\n              0xffffffffffffffffffffffffffffffffffffffff\n              and\n              0xffffffffffffffffffffffffffffffffffffffff\n              and\n              dup2\n              mstore\n              0x20\n              add\n              swap1\n              dup2\n              mstore\n              0x20\n              add\n              0x00\n              keccak256\n                /* \"Campaign.sol\":2199:2241  campaign.contributors[msg.sender] = donate */\n              dup2\n              swap1\n              sstore\n              pop\n                /* \"Campaign.sol\":2256:2264  campaign */\n              0x00\n                /* \"Campaign.sol\":2256:2282  campaign.contributorsCount */\n              0x05\n              add\n              0x00\n                /* \"Campaign.sol\":2256:2284  campaign.contributorsCount++ */\n              dup2\n              sload\n              dup1\n              swap3\n              swap2\n              swap1\n              tag_41\n              swap1\n              tag_38\n              jump\t// in\n            tag_41:\n              swap2\n              swap1\n              pop\n              sstore\n              pop\n                /* \"Campaign.sol\":1977:2296  if(campaign.requiredCost == 0) {... */\n            tag_39:\n                /* \"Campaign.sol\":2336:2344  campaign */\n              0x00\n                /* \"Campaign.sol\":2336:2360  campaign.requiredBalance */\n              0x02\n              add\n              sload\n                /* \"Campaign.sol\":2311:2332  address(this).balance */\n              selfbalance\n                /* \"Campaign.sol\":2311:2360  address(this).balance >= campaign.requiredBalance */\n              lt\n                /* \"Campaign.sol\":2308:2476  if(address(this).balance >= campaign.requiredBalance) {... */\n              tag_42\n              jumpi\n                /* \"Campaign.sol\":2377:2385  campaign */\n              0x00\n                /* \"Campaign.sol\":2377:2393  campaign.manager */\n              dup1\n              add\n              0x00\n              swap1\n              sload\n              swap1\n              0x0100\n              exp\n              swap1\n              div\n              0xffffffffffffffffffffffffffffffffffffffff\n              and\n                /* \"Campaign.sol\":2377:2402  campaign.manager.transfer */\n              0xffffffffffffffffffffffffffffffffffffffff\n              and\n                /* \"Campaign.sol\":2377:2425  campaign.manager.transfer(address(this).balance) */\n              0x08fc\n                /* \"Campaign.sol\":2403:2424  address(this).balance */\n              selfbalance\n                /* \"Campaign.sol\":2377:2425  campaign.manager.transfer(address(this).balance) */\n              swap1\n              dup2\n              iszero\n              mul\n              swap1\n              mload(0x40)\n              0x00\n              mload(0x40)\n              dup1\n              dup4\n              sub\n              dup2\n              dup6\n              dup9\n              dup9\n              call\n              swap4\n              pop\n              pop\n              pop\n              pop\n              iszero\n              dup1\n              iszero\n              tag_44\n              jumpi\n              returndatasize\n              0x00\n              dup1\n              returndatacopy\n              revert(0x00, returndatasize)\n            tag_44:\n              pop\n                /* \"Campaign.sol\":2460:2464  true */\n              0x01\n                /* \"Campaign.sol\":2440:2448  campaign */\n              0x00\n                /* \"Campaign.sol\":2440:2457  campaign.complete */\n              0x06\n              add\n              0x00\n                /* \"Campaign.sol\":2440:2464  campaign.complete = true */\n              0x0100\n              exp\n              dup2\n              sload\n              dup2\n              0xff\n              mul\n              not\n              and\n              swap1\n              dup4\n              iszero\n              iszero\n              mul\n              or\n              swap1\n              sstore\n              pop\n                /* \"Campaign.sol\":2308:2476  if(address(this).balance >= campaign.requiredBalance) {... */\n            tag_42:\n                /* \"Campaign.sol\":1870:2483  function contribute(uint donate) public payable {... */\n              pop\n              jump\t// out\n                /* \"#utility.yul\":7:133   */\n            tag_45:\n                /* \"#utility.yul\":44:51   */\n              0x00\n                /* \"#utility.yul\":84:126   */\n              0xffffffffffffffffffffffffffffffffffffffff\n                /* \"#utility.yul\":77:82   */\n              dup3\n                /* \"#utility.yul\":73:127   */\n              and\n                /* \"#utility.yul\":62:127   */\n              swap1\n              pop\n                /* \"#utility.yul\":7:133   */\n              swap2\n              swap1\n              pop\n              jump\t// out\n                /* \"#utility.yul\":139:235   */\n            tag_46:\n                /* \"#utility.yul\":176:183   */\n              0x00\n                /* \"#utility.yul\":205:229   */\n              tag_67\n                /* \"#utility.yul\":223:228   */\n              dup3\n                /* \"#utility.yul\":205:229   */\n              tag_45\n              jump\t// in\n            tag_67:\n                /* \"#utility.yul\":194:229   */\n              swap1\n              pop\n                /* \"#utility.yul\":139:235   */\n              swap2\n              swap1\n              pop\n              jump\t// out\n                /* \"#utility.yul\":241:359   */\n            tag_47:\n                /* \"#utility.yul\":328:352   */\n              tag_69\n                /* \"#utility.yul\":346:351   */\n              dup2\n                /* \"#utility.yul\":328:352   */\n              tag_46\n              jump\t// in\n            tag_69:\n                /* \"#utility.yul\":323:326   */\n              dup3\n                /* \"#utility.yul\":316:353   */\n              mstore\n                /* \"#utility.yul\":241:359   */\n              pop\n              pop\n              jump\t// out\n                /* \"#utility.yul\":365:442   */\n            tag_48:\n                /* \"#utility.yul\":402:409   */\n              0x00\n                /* \"#utility.yul\":431:436   */\n              dup2\n                /* \"#utility.yul\":420:436   */\n              swap1\n              pop\n                /* \"#utility.yul\":365:442   */\n              swap2\n              swap1\n              pop\n              jump\t// out\n                /* \"#utility.yul\":448:566   */\n            tag_49:\n                /* \"#utility.yul\":535:559   */\n              tag_72\n                /* \"#utility.yul\":553:558   */\n              dup2\n                /* \"#utility.yul\":535:559   */\n              tag_48\n              jump\t// in\n            tag_72:\n                /* \"#utility.yul\":530:533   */\n              dup3\n                /* \"#utility.yul\":523:560   */\n              mstore\n                /* \"#utility.yul\":448:566   */\n              pop\n              pop\n              jump\t// out\n                /* \"#utility.yul\":572:671   */\n            tag_50:\n                /* \"#utility.yul\":624:630   */\n              0x00\n                /* \"#utility.yul\":658:663   */\n              dup2\n                /* \"#utility.yul\":652:664   */\n              mload\n                /* \"#utility.yul\":642:664   */\n              swap1\n              pop\n                /* \"#utility.yul\":572:671   */\n              swap2\n              swap1\n              pop\n              jump\t// out\n                /* \"#utility.yul\":677:846   */\n            tag_51:\n                /* \"#utility.yul\":761:772   */\n              0x00\n                /* \"#utility.yul\":795:801   */\n              dup3\n                /* \"#utility.yul\":790:793   */\n              dup3\n                /* \"#utility.yul\":783:802   */\n              mstore\n                /* \"#utility.yul\":835:839   */\n              0x20\n                /* \"#utility.yul\":830:833   */\n              dup3\n                /* \"#utility.yul\":826:840   */\n              add\n                /* \"#utility.yul\":811:840   */\n              swap1\n              pop\n                /* \"#utility.yul\":677:846   */\n              swap3\n              swap2\n              pop\n              pop\n              jump\t// out\n                /* \"#utility.yul\":852:1159   */\n            tag_52:\n                /* \"#utility.yul\":920:921   */\n              0x00\n                /* \"#utility.yul\":930:1043   */\n            tag_76:\n                /* \"#utility.yul\":944:950   */\n              dup4\n                /* \"#utility.yul\":941:942   */\n              dup2\n                /* \"#utility.yul\":938:951   */\n              lt\n                /* \"#utility.yul\":930:1043   */\n              iszero\n              tag_78\n              jumpi\n                /* \"#utility.yul\":1029:1030   */\n              dup1\n                /* \"#utility.yul\":1024:1027   */\n              dup3\n                /* \"#utility.yul\":1020:1031   */\n              add\n                /* \"#utility.yul\":1014:1032   */\n              mload\n                /* \"#utility.yul\":1010:1011   */\n              dup2\n                /* \"#utility.yul\":1005:1008   */\n              dup5\n                /* \"#utility.yul\":1001:1012   */\n              add\n                /* \"#utility.yul\":994:1033   */\n              mstore\n                /* \"#utility.yul\":966:968   */\n              0x20\n                /* \"#utility.yul\":963:964   */\n              dup2\n                /* \"#utility.yul\":959:969   */\n              add\n                /* \"#utility.yul\":954:969   */\n              swap1\n              pop\n                /* \"#utility.yul\":930:1043   */\n              jump(tag_76)\n            tag_78:\n                /* \"#utility.yul\":1061:1067   */\n              dup4\n                /* \"#utility.yul\":1058:1059   */\n              dup2\n                /* \"#utility.yul\":1055:1068   */\n              gt\n                /* \"#utility.yul\":1052:1153   */\n              iszero\n              tag_79\n              jumpi\n                /* \"#utility.yul\":1141:1142   */\n              0x00\n                /* \"#utility.yul\":1132:1138   */\n              dup5\n                /* \"#utility.yul\":1127:1130   */\n              dup5\n                /* \"#utility.yul\":1123:1139   */\n              add\n                /* \"#utility.yul\":1116:1143   */\n              mstore\n                /* \"#utility.yul\":1052:1153   */\n            tag_79:\n                /* \"#utility.yul\":901:1159   */\n              pop\n                /* \"#utility.yul\":852:1159   */\n              pop\n              pop\n              pop\n              jump\t// out\n                /* \"#utility.yul\":1165:1267   */\n            tag_53:\n                /* \"#utility.yul\":1206:1212   */\n              0x00\n                /* \"#utility.yul\":1257:1259   */\n              0x1f\n                /* \"#utility.yul\":1253:1260   */\n              not\n                /* \"#utility.yul\":1248:1250   */\n              0x1f\n                /* \"#utility.yul\":1241:1246   */\n              dup4\n                /* \"#utility.yul\":1237:1251   */\n              add\n                /* \"#utility.yul\":1233:1261   */\n              and\n                /* \"#utility.yul\":1223:1261   */\n              swap1\n              pop\n                /* \"#utility.yul\":1165:1267   */\n              swap2\n              swap1\n              pop\n              jump\t// out\n                /* \"#utility.yul\":1273:1637   */\n            tag_54:\n                /* \"#utility.yul\":1361:1364   */\n              0x00\n                /* \"#utility.yul\":1389:1428   */\n              tag_82\n                /* \"#utility.yul\":1422:1427   */\n              dup3\n                /* \"#utility.yul\":1389:1428   */\n              tag_50\n              jump\t// in\n            tag_82:\n                /* \"#utility.yul\":1444:1515   */\n              tag_83\n                /* \"#utility.yul\":1508:1514   */\n              dup2\n                /* \"#utility.yul\":1503:1506   */\n              dup6\n                /* \"#utility.yul\":1444:1515   */\n              tag_51\n              jump\t// in\n            tag_83:\n                /* \"#utility.yul\":1437:1515   */\n              swap4\n              pop\n                /* \"#utility.yul\":1524:1576   */\n              tag_84\n                /* \"#utility.yul\":1569:1575   */\n              dup2\n                /* \"#utility.yul\":1564:1567   */\n              dup6\n                /* \"#utility.yul\":1557:1561   */\n              0x20\n                /* \"#utility.yul\":1550:1555   */\n              dup7\n                /* \"#utility.yul\":1546:1562   */\n              add\n                /* \"#utility.yul\":1524:1576   */\n              tag_52\n              jump\t// in\n            tag_84:\n                /* \"#utility.yul\":1601:1630   */\n              tag_85\n                /* \"#utility.yul\":1623:1629   */\n              dup2\n                /* \"#utility.yul\":1601:1630   */\n              tag_53\n              jump\t// in\n            tag_85:\n                /* \"#utility.yul\":1596:1599   */\n              dup5\n                /* \"#utility.yul\":1592:1631   */\n              add\n                /* \"#utility.yul\":1585:1631   */\n              swap2\n              pop\n                /* \"#utility.yul\":1365:1637   */\n              pop\n                /* \"#utility.yul\":1273:1637   */\n              swap3\n              swap2\n              pop\n              pop\n              jump\t// out\n                /* \"#utility.yul\":1643:1733   */\n            tag_55:\n                /* \"#utility.yul\":1677:1684   */\n              0x00\n                /* \"#utility.yul\":1720:1725   */\n              dup2\n                /* \"#utility.yul\":1713:1726   */\n              iszero\n                /* \"#utility.yul\":1706:1727   */\n              iszero\n                /* \"#utility.yul\":1695:1727   */\n              swap1\n              pop\n                /* \"#utility.yul\":1643:1733   */\n              swap2\n              swap1\n              pop\n              jump\t// out\n                /* \"#utility.yul\":1739:1848   */\n            tag_56:\n                /* \"#utility.yul\":1820:1841   */\n              tag_88\n                /* \"#utility.yul\":1835:1840   */\n              dup2\n                /* \"#utility.yul\":1820:1841   */\n              tag_55\n              jump\t// in\n            tag_88:\n                /* \"#utility.yul\":1815:1818   */\n              dup3\n                /* \"#utility.yul\":1808:1842   */\n              mstore\n                /* \"#utility.yul\":1739:1848   */\n              pop\n              pop\n              jump\t// out\n                /* \"#utility.yul\":1854:2930   */\n            tag_10:\n                /* \"#utility.yul\":2157:2161   */\n              0x00\n                /* \"#utility.yul\":2195:2198   */\n              0x0100\n                /* \"#utility.yul\":2184:2193   */\n              dup3\n                /* \"#utility.yul\":2180:2199   */\n              add\n                /* \"#utility.yul\":2172:2199   */\n              swap1\n              pop\n                /* \"#utility.yul\":2209:2280   */\n              tag_90\n                /* \"#utility.yul\":2277:2278   */\n              0x00\n                /* \"#utility.yul\":2266:2275   */\n              dup4\n                /* \"#utility.yul\":2262:2279   */\n              add\n                /* \"#utility.yul\":2253:2259   */\n              dup12\n                /* \"#utility.yul\":2209:2280   */\n              tag_47\n              jump\t// in\n            tag_90:\n                /* \"#utility.yul\":2290:2362   */\n              tag_91\n                /* \"#utility.yul\":2358:2360   */\n              0x20\n                /* \"#utility.yul\":2347:2356   */\n              dup4\n                /* \"#utility.yul\":2343:2361   */\n              add\n                /* \"#utility.yul\":2334:2340   */\n              dup11\n                /* \"#utility.yul\":2290:2362   */\n              tag_49\n              jump\t// in\n            tag_91:\n                /* \"#utility.yul\":2409:2418   */\n              dup2\n                /* \"#utility.yul\":2403:2407   */\n              dup2\n                /* \"#utility.yul\":2399:2419   */\n              sub\n                /* \"#utility.yul\":2394:2396   */\n              0x40\n                /* \"#utility.yul\":2383:2392   */\n              dup4\n                /* \"#utility.yul\":2379:2397   */\n              add\n                /* \"#utility.yul\":2372:2420   */\n              mstore\n                /* \"#utility.yul\":2437:2515   */\n              tag_92\n                /* \"#utility.yul\":2510:2514   */\n              dup2\n                /* \"#utility.yul\":2501:2507   */\n              dup10\n                /* \"#utility.yul\":2437:2515   */\n              tag_54\n              jump\t// in\n            tag_92:\n                /* \"#utility.yul\":2429:2515   */\n              swap1\n              pop\n                /* \"#utility.yul\":2525:2597   */\n              tag_93\n                /* \"#utility.yul\":2593:2595   */\n              0x60\n                /* \"#utility.yul\":2582:2591   */\n              dup4\n                /* \"#utility.yul\":2578:2596   */\n              add\n                /* \"#utility.yul\":2569:2575   */\n              dup9\n                /* \"#utility.yul\":2525:2597   */\n              tag_49\n              jump\t// in\n            tag_93:\n                /* \"#utility.yul\":2607:2680   */\n              tag_94\n                /* \"#utility.yul\":2675:2678   */\n              0x80\n                /* \"#utility.yul\":2664:2673   */\n              dup4\n                /* \"#utility.yul\":2660:2679   */\n              add\n                /* \"#utility.yul\":2651:2657   */\n              dup8\n                /* \"#utility.yul\":2607:2680   */\n              tag_49\n              jump\t// in\n            tag_94:\n                /* \"#utility.yul\":2690:2763   */\n              tag_95\n                /* \"#utility.yul\":2758:2761   */\n              0xa0\n                /* \"#utility.yul\":2747:2756   */\n              dup4\n                /* \"#utility.yul\":2743:2762   */\n              add\n                /* \"#utility.yul\":2734:2740   */\n              dup7\n                /* \"#utility.yul\":2690:2763   */\n              tag_49\n              jump\t// in\n            tag_95:\n                /* \"#utility.yul\":2773:2840   */\n              tag_96\n                /* \"#utility.yul\":2835:2838   */\n              0xc0\n                /* \"#utility.yul\":2824:2833   */\n              dup4\n                /* \"#utility.yul\":2820:2839   */\n              add\n                /* \"#utility.yul\":2811:2817   */\n              dup6\n                /* \"#utility.yul\":2773:2840   */\n              tag_56\n              jump\t// in\n            tag_96:\n                /* \"#utility.yul\":2850:2923   */\n              tag_97\n                /* \"#utility.yul\":2918:2921   */\n              0xe0\n                /* \"#utility.yul\":2907:2916   */\n              dup4\n                /* \"#utility.yul\":2903:2922   */\n              add\n                /* \"#utility.yul\":2894:2900   */\n              dup5\n                /* \"#utility.yul\":2850:2923   */\n              tag_49\n              jump\t// in\n            tag_97:\n                /* \"#utility.yul\":1854:2930   */\n              swap10\n              swap9\n              pop\n              pop\n              pop\n              pop\n              pop\n              pop\n              pop\n              pop\n              pop\n              jump\t// out\n                /* \"#utility.yul\":2936:3158   */\n            tag_15:\n                /* \"#utility.yul\":3029:3033   */\n              0x00\n                /* \"#utility.yul\":3067:3069   */\n              0x20\n                /* \"#utility.yul\":3056:3065   */\n              dup3\n                /* \"#utility.yul\":3052:3070   */\n              add\n                /* \"#utility.yul\":3044:3070   */\n              swap1\n              pop\n                /* \"#utility.yul\":3080:3151   */\n              tag_99\n                /* \"#utility.yul\":3148:3149   */\n              0x00\n                /* \"#utility.yul\":3137:3146   */\n              dup4\n                /* \"#utility.yul\":3133:3150   */\n              add\n                /* \"#utility.yul\":3124:3130   */\n              dup5\n                /* \"#utility.yul\":3080:3151   */\n              tag_49\n              jump\t// in\n            tag_99:\n                /* \"#utility.yul\":2936:3158   */\n              swap3\n              swap2\n              pop\n              pop\n              jump\t// out\n                /* \"#utility.yul\":3245:3362   */\n            tag_58:\n                /* \"#utility.yul\":3354:3355   */\n              0x00\n                /* \"#utility.yul\":3351:3352   */\n              dup1\n                /* \"#utility.yul\":3344:3356   */\n              revert\n                /* \"#utility.yul\":3491:3613   */\n            tag_60:\n                /* \"#utility.yul\":3564:3588   */\n              tag_104\n                /* \"#utility.yul\":3582:3587   */\n              dup2\n                /* \"#utility.yul\":3564:3588   */\n              tag_48\n              jump\t// in\n            tag_104:\n                /* \"#utility.yul\":3557:3562   */\n              dup2\n                /* \"#utility.yul\":3554:3589   */\n              eq\n                /* \"#utility.yul\":3544:3607   */\n              tag_105\n              jumpi\n                /* \"#utility.yul\":3603:3604   */\n              0x00\n                /* \"#utility.yul\":3600:3601   */\n              dup1\n                /* \"#utility.yul\":3593:3605   */\n              revert\n                /* \"#utility.yul\":3544:3607   */\n            tag_105:\n                /* \"#utility.yul\":3491:3613   */\n              pop\n              jump\t// out\n                /* \"#utility.yul\":3619:3758   */\n            tag_61:\n                /* \"#utility.yul\":3665:3670   */\n              0x00\n                /* \"#utility.yul\":3703:3709   */\n              dup2\n                /* \"#utility.yul\":3690:3710   */\n              calldataload\n                /* \"#utility.yul\":3681:3710   */\n              swap1\n              pop\n                /* \"#utility.yul\":3719:3752   */\n              tag_107\n                /* \"#utility.yul\":3746:3751   */\n              dup2\n                /* \"#utility.yul\":3719:3752   */\n              tag_60\n              jump\t// in\n            tag_107:\n                /* \"#utility.yul\":3619:3758   */\n              swap3\n              swap2\n              pop\n              pop\n              jump\t// out\n                /* \"#utility.yul\":3764:4093   */\n            tag_20:\n                /* \"#utility.yul\":3823:3829   */\n              0x00\n                /* \"#utility.yul\":3872:3874   */\n              0x20\n                /* \"#utility.yul\":3860:3869   */\n              dup3\n                /* \"#utility.yul\":3851:3858   */\n              dup5\n                /* \"#utility.yul\":3847:3870   */\n              sub\n                /* \"#utility.yul\":3843:3875   */\n              slt\n                /* \"#utility.yul\":3840:3959   */\n              iszero\n              tag_109\n              jumpi\n                /* \"#utility.yul\":3878:3957   */\n              tag_110\n              tag_58\n              jump\t// in\n            tag_110:\n                /* \"#utility.yul\":3840:3959   */\n            tag_109:\n                /* \"#utility.yul\":3998:3999   */\n              0x00\n                /* \"#utility.yul\":4023:4076   */\n              tag_111\n                /* \"#utility.yul\":4068:4075   */\n              dup5\n                /* \"#utility.yul\":4059:4065   */\n              dup3\n                /* \"#utility.yul\":4048:4057   */\n              dup6\n                /* \"#utility.yul\":4044:4066   */\n              add\n                /* \"#utility.yul\":4023:4076   */\n              tag_61\n              jump\t// in\n            tag_111:\n                /* \"#utility.yul\":4013:4076   */\n              swap2\n              pop\n                /* \"#utility.yul\":3969:4086   */\n              pop\n                /* \"#utility.yul\":3764:4093   */\n              swap3\n              swap2\n              pop\n              pop\n              jump\t// out\n                /* \"#utility.yul\":4099:4279   */\n            tag_62:\n                /* \"#utility.yul\":4147:4224   */\n              0x4e487b7100000000000000000000000000000000000000000000000000000000\n                /* \"#utility.yul\":4144:4145   */\n              0x00\n                /* \"#utility.yul\":4137:4225   */\n              mstore\n                /* \"#utility.yul\":4244:4248   */\n              0x22\n                /* \"#utility.yul\":4241:4242   */\n              0x04\n                /* \"#utility.yul\":4234:4249   */\n              mstore\n                /* \"#utility.yul\":4268:4272   */\n              0x24\n                /* \"#utility.yul\":4265:4266   */\n              0x00\n                /* \"#utility.yul\":4258:4273   */\n              revert\n                /* \"#utility.yul\":4285:4605   */\n            tag_24:\n                /* \"#utility.yul\":4329:4335   */\n              0x00\n                /* \"#utility.yul\":4366:4367   */\n              0x02\n                /* \"#utility.yul\":4360:4364   */\n              dup3\n                /* \"#utility.yul\":4356:4368   */\n              div\n                /* \"#utility.yul\":4346:4368   */\n              swap1\n              pop\n                /* \"#utility.yul\":4413:4414   */\n              0x01\n                /* \"#utility.yul\":4407:4411   */\n              dup3\n                /* \"#utility.yul\":4403:4415   */\n              and\n                /* \"#utility.yul\":4434:4452   */\n              dup1\n                /* \"#utility.yul\":4424:4505   */\n              tag_114\n              jumpi\n                /* \"#utility.yul\":4490:4494   */\n              0x7f\n                /* \"#utility.yul\":4482:4488   */\n              dup3\n                /* \"#utility.yul\":4478:4495   */\n              and\n                /* \"#utility.yul\":4468:4495   */\n              swap2\n              pop\n                /* \"#utility.yul\":4424:4505   */\n            tag_114:\n                /* \"#utility.yul\":4552:4554   */\n              0x20\n                /* \"#utility.yul\":4544:4550   */\n              dup3\n                /* \"#utility.yul\":4541:4555   */\n              lt\n                /* \"#utility.yul\":4521:4539   */\n              dup2\n                /* \"#utility.yul\":4518:4556   */\n              sub\n                /* \"#utility.yul\":4515:4599   */\n              tag_115\n              jumpi\n                /* \"#utility.yul\":4571:4589   */\n              tag_116\n              tag_62\n              jump\t// in\n            tag_116:\n                /* \"#utility.yul\":4515:4599   */\n            tag_115:\n                /* \"#utility.yul\":4336:4605   */\n              pop\n                /* \"#utility.yul\":4285:4605   */\n              swap2\n              swap1\n              pop\n              jump\t// out\n                /* \"#utility.yul\":4611:4791   */\n            tag_63:\n                /* \"#utility.yul\":4659:4736   */\n              0x4e487b7100000000000000000000000000000000000000000000000000000000\n                /* \"#utility.yul\":4656:4657   */\n              0x00\n                /* \"#utility.yul\":4649:4737   */\n              mstore\n                /* \"#utility.yul\":4756:4760   */\n              0x11\n                /* \"#utility.yul\":4753:4754   */\n              0x04\n                /* \"#utility.yul\":4746:4761   */\n              mstore\n                /* \"#utility.yul\":4780:4784   */\n              0x24\n                /* \"#utility.yul\":4777:4778   */\n              0x00\n                /* \"#utility.yul\":4770:4785   */\n              revert\n                /* \"#utility.yul\":4797:5030   */\n            tag_38:\n                /* \"#utility.yul\":4836:4839   */\n              0x00\n                /* \"#utility.yul\":4859:4883   */\n              tag_119\n                /* \"#utility.yul\":4877:4882   */\n              dup3\n                /* \"#utility.yul\":4859:4883   */\n              tag_48\n              jump\t// in\n            tag_119:\n                /* \"#utility.yul\":4850:4883   */\n              swap2\n              pop\n                /* \"#utility.yul\":4905:4971   */\n              0xffffffffffffffffffffffffffffffffffffffffffffffffffffffffffffffff\n                /* \"#utility.yul\":4898:4903   */\n              dup3\n                /* \"#utility.yul\":4895:4972   */\n              sub\n                /* \"#utility.yul\":4892:4995   */\n              tag_120\n              jumpi\n                /* \"#utility.yul\":4975:4993   */\n              tag_121\n              tag_63\n              jump\t// in\n            tag_121:\n                /* \"#utility.yul\":4892:4995   */\n            tag_120:\n                /* \"#utility.yul\":5022:5023   */\n              0x01\n                /* \"#utility.yul\":5015:5020   */\n              dup3\n                /* \"#utility.yul\":5011:5024   */\n              add\n                /* \"#utility.yul\":5004:5024   */\n              swap1\n              pop\n                /* \"#utility.yul\":4797:5030   */\n              swap2\n              swap1\n              pop\n              jump\t// out\n\n            auxdata: 0xa26469706673582212203dc43f6d1c27677670c0f6a36d5c0519c547e7dcd8b02d4b937ba29ddc4d3af464736f6c634300080d0033\n        }\n    }\n\n    auxdata: 0xa26469706673582212203028f1f3635d848e20f8120b6bac78705d0a1887f5d325826c3273bb07e3642464736f6c634300080d0033\n}\n","bytecode":{"linkReferences":{},"object":"608060405234801561001057600080fd5b5061168b806100206000396000f3fe60806040523480156200001157600080fd5b50600436106200003a5760003560e01c80634acb9d4f146200003f578063b5a898ae1462000062575b600080fd5b6200004962000098565b6040516200005992919062000635565b60405180910390f35b6200008060048036038101906200007a919062000810565b6200020e565b6040516200008f9190620008b2565b60405180910390f35b60608060006001818054806020026020016040519081016040528092919081815260200182805480156200012257602002820191906000526020600020905b8160009054906101000a900473ffffffffffffffffffffffffffffffffffffffff1673ffffffffffffffffffffffffffffffffffffffff1681526020019060010190808311620000d7575b5050505050915080805480602002602001604051908101604052809291908181526020016000905b82821015620002005783829060005260206000200180546200016c90620008fe565b80601f01602080910402602001604051908101604052809291908181526020018280546200019a90620008fe565b8015620001eb5780601f10620001bf57610100808354040283529160200191620001eb565b820191906000526020600020905b815481529060010190602001808311620001cd57829003601f168201915b5050505050815260200190600101906200014a565b505050509050915091509091565b6000803386868686604051620002249062000301565b6200023495949392919062000996565b604051809103906000f08015801562000251573d6000803e3d6000fd5b5090506000819080600181540180825580915050600190039060005260206000200160009091909190916101000a81548173ffffffffffffffffffffffffffffffffffffffff021916908373ffffffffffffffffffffffffffffffffffffffff160217905550600186908060018154018082558091505060019003906000526020600020016000909190919091509080519060200190620002f49291906200030f565b5080915050949350505050565b610c5b80620009fb83390190565b8280546200031d90620008fe565b90600052602060002090601f0160209004810192826200034157600085556200038d565b82601f106200035c57805160ff19168380011785556200038d565b828001600101855582156200038d579182015b828111156200038c5782518255916020019190600101906200036f565b5b5090506200039c9190620003a0565b5090565b5b80821115620003bb576000816000905550600101620003a1565b5090565b600081519050919050565b600082825260208201905092915050565b6000819050602082019050919050565b600073ffffffffffffffffffffffffffffffffffffffff82169050919050565b60006200041882620003eb565b9050919050565b6200042a816200040b565b82525050565b60006200043e83836200041f565b60208301905092915050565b6000602082019050919050565b60006200046482620003bf565b620004708185620003ca565b93506200047d83620003db565b8060005b83811015620004b457815162000498888262000430565b9750620004a5836200044a565b92505060018101905062000481565b5085935050505092915050565b600081519050919050565b600082825260208201905092915050565b6000819050602082019050919050565b600081519050919050565b600082825260208201905092915050565b60005b83811015620005295780820151818401526020810190506200050c565b8381111562000539576000848401525b50505050565b6000601f19601f8301169050919050565b60006200055d82620004ed565b620005698185620004f8565b93506200057b81856020860162000509565b62000586816200053f565b840191505092915050565b60006200059f838362000550565b905092915050565b6000602082019050919050565b6000620005c182620004c1565b620005cd8185620004cc565b935083602082028501620005e185620004dd565b8060005b8581101562000623578484038952815162000601858262000591565b94506200060e83620005a7565b925060208a01995050600181019050620005e5565b50829750879550505050505092915050565b6000604082019050818103600083015262000651818562000457565b90508181036020830152620006678184620005b4565b90509392505050565b6000604051905090565b600080fd5b600080fd5b600080fd5b600080fd5b7f4e487b7100000000000000000000000000000000000000000000000000000000600052604160045260246000fd5b620006c8826200053f565b810181811067ffffffffffffffff82111715620006ea57620006e96200068e565b5b80604052505050565b6000620006ff62000670565b90506200070d8282620006bd565b919050565b600067ffffffffffffffff82111562000730576200072f6200068e565b5b6200073b826200053f565b9050602081019050919050565b82818337600083830152505050565b60006200076e620007688462000712565b620006f3565b9050828152602081018484840111156200078d576200078c62000689565b5b6200079a84828562000748565b509392505050565b600082601f830112620007ba57620007b962000684565b5b8135620007cc84826020860162000757565b91505092915050565b6000819050919050565b620007ea81620007d5565b8114620007f657600080fd5b50565b6000813590506200080a81620007df565b92915050565b600080600080608085870312156200082d576200082c6200067a565b5b600085013567ffffffffffffffff8111156200084e576200084d6200067f565b5b6200085c87828801620007a2565b94505060206200086f87828801620007f9565b93505060406200088287828801620007f9565b92505060606200089587828801620007f9565b91505092959194509250565b620008ac816200040b565b82525050565b6000602082019050620008c96000830184620008a1565b92915050565b7f4e487b7100000000000000000000000000000000000000000000000000000000600052602260045260246000fd5b600060028204905060018216806200091757607f821691505b6020821081036200092d576200092c620008cf565b5b50919050565b600082825260208201905092915050565b60006200095182620004ed565b6200095d818562000933565b93506200096f81856020860162000509565b6200097a816200053f565b840191505092915050565b6200099081620007d5565b82525050565b600060a082019050620009ad6000830188620008a1565b8181036020830152620009c1818762000944565b9050620009d2604083018662000985565b620009e1606083018562000985565b620009f0608083018462000985565b969550505050505056fe60806040523480156200001157600080fd5b5060405162000c5b38038062000c5b8339818101604052810190620000379190620003d3565b846000800160006101000a81548173ffffffffffffffffffffffffffffffffffffffff021916908373ffffffffffffffffffffffffffffffffffffffff160217905550836000600101908051906020019062000095929190620000e6565b5082600060020181905550816000600301819055506000806005018190555060008060060160006101000a81548160ff021916908315150217905550806000600701819055505050505050620004de565b828054620000f490620004a9565b90600052602060002090601f01602090048101928262000118576000855562000164565b82601f106200013357805160ff191683800117855562000164565b8280016001018555821562000164579182015b828111156200016357825182559160200191906001019062000146565b5b50905062000173919062000177565b5090565b5b808211156200019257600081600090555060010162000178565b5090565b6000604051905090565b600080fd5b600080fd5b600073ffffffffffffffffffffffffffffffffffffffff82169050919050565b6000620001d782620001aa565b9050919050565b620001e981620001ca565b8114620001f557600080fd5b50565b6000815190506200020981620001de565b92915050565b600080fd5b600080fd5b6000601f19601f8301169050919050565b7f4e487b7100000000000000000000000000000000000000000000000000000000600052604160045260246000fd5b620002648262000219565b810181811067ffffffffffffffff821117156200028657620002856200022a565b5b80604052505050565b60006200029b62000196565b9050620002a9828262000259565b919050565b600067ffffffffffffffff821115620002cc57620002cb6200022a565b5b620002d78262000219565b9050602081019050919050565b60005b8381101562000304578082015181840152602081019050620002e7565b8381111562000314576000848401525b50505050565b6000620003316200032b84620002ae565b6200028f565b90508281526020810184848401111562000350576200034f62000214565b5b6200035d848285620002e4565b509392505050565b600082601f8301126200037d576200037c6200020f565b5b81516200038f8482602086016200031a565b91505092915050565b6000819050919050565b620003ad8162000398565b8114620003b957600080fd5b50565b600081519050620003cd81620003a2565b92915050565b600080600080600060a08688031215620003f257620003f1620001a0565b5b60006200040288828901620001f8565b955050602086015167ffffffffffffffff811115620004265762000425620001a5565b5b620004348882890162000365565b94505060406200044788828901620003bc565b93505060606200045a88828901620003bc565b92505060806200046d88828901620003bc565b9150509295509295909350565b7f4e487b7100000000000000000000000000000000000000000000000000000000600052602260045260246000fd5b60006002820490506001821680620004c257607f821691505b602082108103620004d857620004d76200047a565b5b50919050565b61076d80620004ee6000396000f3fe60806040526004361061003f5760003560e01c8063236b8e3a1461004457806339cbcc64146100765780634e71d92d146100a1578063c1cbbca7146100ab575b600080fd5b34801561005057600080fd5b506100596100c7565b60405161006d989796959493929190610562565b60405180910390f35b34801561008257600080fd5b5061008b6101d0565b60405161009891906105e7565b60405180910390f35b6100a9610219565b005b6100c560048036038101906100c09190610633565b6102b6565b005b6000806060600080600080600080600090508060000160009054906101000a900473ffffffffffffffffffffffffffffffffffffffff1647826001018360020154846003015485600501548660060160009054906101000a900460ff1687600701548580546101359061068f565b80601f01602080910402602001604051908101604052809291908181526020018280546101619061068f565b80156101ae5780601f10610183576101008083540402835291602001916101ae565b820191906000526020600020905b81548152906001019060200180831161019157829003601f168201915b5050505050955098509850985098509850985098509850509091929394959697565b60008060040160003373ffffffffffffffffffffffffffffffffffffffff1673ffffffffffffffffffffffffffffffffffffffff16815260200190815260200160002054905090565b60006007015442101561022b57600080fd5b3373ffffffffffffffffffffffffffffffffffffffff166108fc600060040160003373ffffffffffffffffffffffffffffffffffffffff1673ffffffffffffffffffffffffffffffffffffffff168152602001908152602001600020549081150290604051600060405180830381858888f193505050501580156102b3573d6000803e3d6000fd5b50565b600060060160009054906101000a900460ff16156102d357600080fd5b60008060030154036103465780600060040160003373ffffffffffffffffffffffffffffffffffffffff1673ffffffffffffffffffffffffffffffffffffffff168152602001908152602001600020819055506000600501600081548092919061033c906106ef565b91905055506103bb565b60006003015434101561035857600080fd5b80600060040160003373ffffffffffffffffffffffffffffffffffffffff1673ffffffffffffffffffffffffffffffffffffffff16815260200190815260200160002081905550600060050160008154809291906103b5906106ef565b91905055505b6000600201544710610451576000800160009054906101000a900473ffffffffffffffffffffffffffffffffffffffff1673ffffffffffffffffffffffffffffffffffffffff166108fc479081150290604051600060405180830381858888f19350505050158015610431573d6000803e3d6000fd5b506001600060060160006101000a81548160ff0219169083151502179055505b50565b600073ffffffffffffffffffffffffffffffffffffffff82169050919050565b600061047f82610454565b9050919050565b61048f81610474565b82525050565b6000819050919050565b6104a881610495565b82525050565b600081519050919050565b600082825260208201905092915050565b60005b838110156104e85780820151818401526020810190506104cd565b838111156104f7576000848401525b50505050565b6000601f19601f8301169050919050565b6000610519826104ae565b61052381856104b9565b93506105338185602086016104ca565b61053c816104fd565b840191505092915050565b60008115159050919050565b61055c81610547565b82525050565b600061010082019050610578600083018b610486565b610585602083018a61049f565b8181036040830152610597818961050e565b90506105a6606083018861049f565b6105b3608083018761049f565b6105c060a083018661049f565b6105cd60c0830185610553565b6105da60e083018461049f565b9998505050505050505050565b60006020820190506105fc600083018461049f565b92915050565b600080fd5b61061081610495565b811461061b57600080fd5b50565b60008135905061062d81610607565b92915050565b60006020828403121561064957610648610602565b5b60006106578482850161061e565b91505092915050565b7f4e487b7100000000000000000000000000000000000000000000000000000000600052602260045260246000fd5b600060028204905060018216806106a757607f821691505b6020821081036106ba576106b9610660565b5b50919050565b7f4e487b7100000000000000000000000000000000000000000000000000000000600052601160045260246000fd5b60006106fa82610495565b91507fffffffffffffffffffffffffffffffffffffffffffffffffffffffffffffffff820361072c5761072b6106c0565b5b60018201905091905056fea26469706673582212203dc43f6d1c27677670c0f6a36d5c0519c547e7dcd8b02d4b937ba29ddc4d3af464736f6c634300080d0033a26469706673582212203028f1f3635d848e20f8120b6bac78705d0a1887f5d325826c3273bb07e3642464736f6c634300080d0033","opcodes":"PUSH1 0x80 PUSH1 0x40 MSTORE CALLVALUE DUP1 ISZERO PUSH2 0x10 JUMPI PUSH1 0x0 DUP1 REVERT JUMPDEST POP PUSH2 0x168B DUP1 PUSH2 0x20 PUSH1 0x0 CODECOPY PUSH1 0x0 RETURN INVALID PUSH1 0x80 PUSH1 0x40 MSTORE CALLVALUE DUP1 ISZERO PUSH3 0x11 JUMPI PUSH1 0x0 DUP1 REVERT JUMPDEST POP PUSH1 0x4 CALLDATASIZE LT PUSH3 0x3A JUMPI PUSH1 0x0 CALLDATALOAD PUSH1 0xE0 SHR DUP1 PUSH4 0x4ACB9D4F EQ PUSH3 0x3F JUMPI DUP1 PUSH4 0xB5A898AE EQ PUSH3 0x62 JUMPI JUMPDEST PUSH1 0x0 DUP1 REVERT JUMPDEST PUSH3 0x49 PUSH3 0x98 JUMP JUMPDEST PUSH1 0x40 MLOAD PUSH3 0x59 SWAP3 SWAP2 SWAP1 PUSH3 0x635 JUMP JUMPDEST PUSH1 0x40 MLOAD DUP1 SWAP2 SUB SWAP1 RETURN JUMPDEST PUSH3 0x80 PUSH1 0x4 DUP1 CALLDATASIZE SUB DUP2 ADD SWAP1 PUSH3 0x7A SWAP2 SWAP1 PUSH3 0x810 JUMP JUMPDEST PUSH3 0x20E JUMP JUMPDEST PUSH1 0x40 MLOAD PUSH3 0x8F SWAP2 SWAP1 PUSH3 0x8B2 JUMP JUMPDEST PUSH1 0x40 MLOAD DUP1 SWAP2 SUB SWAP1 RETURN JUMPDEST PUSH1 0x60 DUP1 PUSH1 0x0 PUSH1 0x1 DUP2 DUP1 SLOAD DUP1 PUSH1 0x20 MUL PUSH1 0x20 ADD PUSH1 0x40 MLOAD SWAP1 DUP2 ADD PUSH1 0x40 MSTORE DUP1 SWAP3 SWAP2 SWAP1 DUP2 DUP2 MSTORE PUSH1 0x20 ADD DUP3 DUP1 SLOAD DUP1 ISZERO PUSH3 0x122 JUMPI PUSH1 0x20 MUL DUP3 ADD SWAP2 SWAP1 PUSH1 0x0 MSTORE PUSH1 0x20 PUSH1 0x0 KECCAK256 SWAP1 JUMPDEST DUP2 PUSH1 0x0 SWAP1 SLOAD SWAP1 PUSH2 0x100 EXP SWAP1 DIV PUSH20 0xFFFFFFFFFFFFFFFFFFFFFFFFFFFFFFFFFFFFFFFF AND PUSH20 0xFFFFFFFFFFFFFFFFFFFFFFFFFFFFFFFFFFFFFFFF AND DUP2 MSTORE PUSH1 0x20 ADD SWAP1 PUSH1 0x1 ADD SWAP1 DUP1 DUP4 GT PUSH3 0xD7 JUMPI JUMPDEST POP POP POP POP POP SWAP2 POP DUP1 DUP1 SLOAD DUP1 PUSH1 0x20 MUL PUSH1 0x20 ADD PUSH1 0x40 MLOAD SWAP1 DUP2 ADD PUSH1 0x40 MSTORE DUP1 SWAP3 SWAP2 SWAP1 DUP2 DUP2 MSTORE PUSH1 0x20 ADD PUSH1 0x0 SWAP1 JUMPDEST DUP3 DUP3 LT ISZERO PUSH3 0x200 JUMPI DUP4 DUP3 SWAP1 PUSH1 0x0 MSTORE PUSH1 0x20 PUSH1 0x0 KECCAK256 ADD DUP1 SLOAD PUSH3 0x16C SWAP1 PUSH3 0x8FE JUMP JUMPDEST DUP1 PUSH1 0x1F ADD PUSH1 0x20 DUP1 SWAP2 DIV MUL PUSH1 0x20 ADD PUSH1 0x40 MLOAD SWAP1 DUP2 ADD PUSH1 0x40 MSTORE DUP1 SWAP3 SWAP2 SWAP1 DUP2 DUP2 MSTORE PUSH1 0x20 ADD DUP3 DUP1 SLOAD PUSH3 0x19A SWAP1 PUSH3 0x8FE JUMP JUMPDEST DUP1 ISZERO PUSH3 0x1EB JUMPI DUP1 PUSH1 0x1F LT PUSH3 0x1BF JUMPI PUSH2 0x100 DUP1 DUP4 SLOAD DIV MUL DUP4 MSTORE SWAP2 PUSH1 0x20 ADD SWAP2 PUSH3 0x1EB JUMP JUMPDEST DUP3 ADD SWAP2 SWAP1 PUSH1 0x0 MSTORE PUSH1 0x20 PUSH1 0x0 KECCAK256 SWAP1 JUMPDEST DUP2 SLOAD DUP2 MSTORE SWAP1 PUSH1 0x1 ADD SWAP1 PUSH1 0x20 ADD DUP1 DUP4 GT PUSH3 0x1CD JUMPI DUP3 SWAP1 SUB PUSH1 0x1F AND DUP3 ADD SWAP2 JUMPDEST POP POP POP POP POP DUP2 MSTORE PUSH1 0x20 ADD SWAP1 PUSH1 0x1 ADD SWAP1 PUSH3 0x14A JUMP JUMPDEST POP POP POP POP SWAP1 POP SWAP2 POP SWAP2 POP SWAP1 SWAP2 JUMP JUMPDEST PUSH1 0x0 DUP1 CALLER DUP7 DUP7 DUP7 DUP7 PUSH1 0x40 MLOAD PUSH3 0x224 SWAP1 PUSH3 0x301 JUMP JUMPDEST PUSH3 0x234 SWAP6 SWAP5 SWAP4 SWAP3 SWAP2 SWAP1 PUSH3 0x996 JUMP JUMPDEST PUSH1 0x40 MLOAD DUP1 SWAP2 SUB SWAP1 PUSH1 0x0 CREATE DUP1 ISZERO DUP1 ISZERO PUSH3 0x251 JUMPI RETURNDATASIZE PUSH1 0x0 DUP1 RETURNDATACOPY RETURNDATASIZE PUSH1 0x0 REVERT JUMPDEST POP SWAP1 POP PUSH1 0x0 DUP2 SWAP1 DUP1 PUSH1 0x1 DUP2 SLOAD ADD DUP1 DUP3 SSTORE DUP1 SWAP2 POP POP PUSH1 0x1 SWAP1 SUB SWAP1 PUSH1 0x0 MSTORE PUSH1 0x20 PUSH1 0x0 KECCAK256 ADD PUSH1 0x0 SWAP1 SWAP2 SWAP1 SWAP2 SWAP1 SWAP2 PUSH2 0x100 EXP DUP2 SLOAD DUP2 PUSH20 0xFFFFFFFFFFFFFFFFFFFFFFFFFFFFFFFFFFFFFFFF MUL NOT AND SWAP1 DUP4 PUSH20 0xFFFFFFFFFFFFFFFFFFFFFFFFFFFFFFFFFFFFFFFF AND MUL OR SWAP1 SSTORE POP PUSH1 0x1 DUP7 SWAP1 DUP1 PUSH1 0x1 DUP2 SLOAD ADD DUP1 DUP3 SSTORE DUP1 SWAP2 POP POP PUSH1 0x1 SWAP1 SUB SWAP1 PUSH1 0x0 MSTORE PUSH1 0x20 PUSH1 0x0 KECCAK256 ADD PUSH1 0x0 SWAP1 SWAP2 SWAP1 SWAP2 SWAP1 SWAP2 POP SWAP1 DUP1 MLOAD SWAP1 PUSH1 0x20 ADD SWAP1 PUSH3 0x2F4 SWAP3 SWAP2 SWAP1 PUSH3 0x30F JUMP JUMPDEST POP DUP1 SWAP2 POP POP SWAP5 SWAP4 POP POP POP POP JUMP JUMPDEST PUSH2 0xC5B DUP1 PUSH3 0x9FB DUP4 CODECOPY ADD SWAP1 JUMP JUMPDEST DUP3 DUP1 SLOAD PUSH3 0x31D SWAP1 PUSH3 0x8FE JUMP JUMPDEST SWAP1 PUSH1 0x0 MSTORE PUSH1 0x20 PUSH1 0x0 KECCAK256 SWAP1 PUSH1 0x1F ADD PUSH1 0x20 SWAP1 DIV DUP2 ADD SWAP3 DUP3 PUSH3 0x341 JUMPI PUSH1 0x0 DUP6 SSTORE PUSH3 0x38D JUMP JUMPDEST DUP3 PUSH1 0x1F LT PUSH3 0x35C JUMPI DUP1 MLOAD PUSH1 0xFF NOT AND DUP4 DUP1 ADD OR DUP6 SSTORE PUSH3 0x38D JUMP JUMPDEST DUP3 DUP1 ADD PUSH1 0x1 ADD DUP6 SSTORE DUP3 ISZERO PUSH3 0x38D JUMPI SWAP2 DUP3 ADD JUMPDEST DUP3 DUP2 GT ISZERO PUSH3 0x38C JUMPI DUP3 MLOAD DUP3 SSTORE SWAP2 PUSH1 0x20 ADD SWAP2 SWAP1 PUSH1 0x1 ADD SWAP1 PUSH3 0x36F JUMP JUMPDEST JUMPDEST POP SWAP1 POP PUSH3 0x39C SWAP2 SWAP1 PUSH3 0x3A0 JUMP JUMPDEST POP SWAP1 JUMP JUMPDEST JUMPDEST DUP1 DUP3 GT ISZERO PUSH3 0x3BB JUMPI PUSH1 0x0 DUP2 PUSH1 0x0 SWAP1 SSTORE POP PUSH1 0x1 ADD PUSH3 0x3A1 JUMP JUMPDEST POP SWAP1 JUMP JUMPDEST PUSH1 0x0 DUP2 MLOAD SWAP1 POP SWAP2 SWAP1 POP JUMP JUMPDEST PUSH1 0x0 DUP3 DUP3 MSTORE PUSH1 0x20 DUP3 ADD SWAP1 POP SWAP3 SWAP2 POP POP JUMP JUMPDEST PUSH1 0x0 DUP2 SWAP1 POP PUSH1 0x20 DUP3 ADD SWAP1 POP SWAP2 SWAP1 POP JUMP JUMPDEST PUSH1 0x0 PUSH20 0xFFFFFFFFFFFFFFFFFFFFFFFFFFFFFFFFFFFFFFFF DUP3 AND SWAP1 POP SWAP2 SWAP1 POP JUMP JUMPDEST PUSH1 0x0 PUSH3 0x418 DUP3 PUSH3 0x3EB JUMP JUMPDEST SWAP1 POP SWAP2 SWAP1 POP JUMP JUMPDEST PUSH3 0x42A DUP2 PUSH3 0x40B JUMP JUMPDEST DUP3 MSTORE POP POP JUMP JUMPDEST PUSH1 0x0 PUSH3 0x43E DUP4 DUP4 PUSH3 0x41F JUMP JUMPDEST PUSH1 0x20 DUP4 ADD SWAP1 POP SWAP3 SWAP2 POP POP JUMP JUMPDEST PUSH1 0x0 PUSH1 0x20 DUP3 ADD SWAP1 POP SWAP2 SWAP1 POP JUMP JUMPDEST PUSH1 0x0 PUSH3 0x464 DUP3 PUSH3 0x3BF JUMP JUMPDEST PUSH3 0x470 DUP2 DUP6 PUSH3 0x3CA JUMP JUMPDEST SWAP4 POP PUSH3 0x47D DUP4 PUSH3 0x3DB JUMP JUMPDEST DUP1 PUSH1 0x0 JUMPDEST DUP4 DUP2 LT ISZERO PUSH3 0x4B4 JUMPI DUP2 MLOAD PUSH3 0x498 DUP9 DUP3 PUSH3 0x430 JUMP JUMPDEST SWAP8 POP PUSH3 0x4A5 DUP4 PUSH3 0x44A JUMP JUMPDEST SWAP3 POP POP PUSH1 0x1 DUP2 ADD SWAP1 POP PUSH3 0x481 JUMP JUMPDEST POP DUP6 SWAP4 POP POP POP POP SWAP3 SWAP2 POP POP JUMP JUMPDEST PUSH1 0x0 DUP2 MLOAD SWAP1 POP SWAP2 SWAP1 POP JUMP JUMPDEST PUSH1 0x0 DUP3 DUP3 MSTORE PUSH1 0x20 DUP3 ADD SWAP1 POP SWAP3 SWAP2 POP POP JUMP JUMPDEST PUSH1 0x0 DUP2 SWAP1 POP PUSH1 0x20 DUP3 ADD SWAP1 POP SWAP2 SWAP1 POP JUMP JUMPDEST PUSH1 0x0 DUP2 MLOAD SWAP1 POP SWAP2 SWAP1 POP JUMP JUMPDEST PUSH1 0x0 DUP3 DUP3 MSTORE PUSH1 0x20 DUP3 ADD SWAP1 POP SWAP3 SWAP2 POP POP JUMP JUMPDEST PUSH1 0x0 JUMPDEST DUP4 DUP2 LT ISZERO PUSH3 0x529 JUMPI DUP1 DUP3 ADD MLOAD DUP2 DUP5 ADD MSTORE PUSH1 0x20 DUP2 ADD SWAP1 POP PUSH3 0x50C JUMP JUMPDEST DUP4 DUP2 GT ISZERO PUSH3 0x539 JUMPI PUSH1 0x0 DUP5 DUP5 ADD MSTORE JUMPDEST POP POP POP POP JUMP JUMPDEST PUSH1 0x0 PUSH1 0x1F NOT PUSH1 0x1F DUP4 ADD AND SWAP1 POP SWAP2 SWAP1 POP JUMP JUMPDEST PUSH1 0x0 PUSH3 0x55D DUP3 PUSH3 0x4ED JUMP JUMPDEST PUSH3 0x569 DUP2 DUP6 PUSH3 0x4F8 JUMP JUMPDEST SWAP4 POP PUSH3 0x57B DUP2 DUP6 PUSH1 0x20 DUP7 ADD PUSH3 0x509 JUMP JUMPDEST PUSH3 0x586 DUP2 PUSH3 0x53F JUMP JUMPDEST DUP5 ADD SWAP2 POP POP SWAP3 SWAP2 POP POP JUMP JUMPDEST PUSH1 0x0 PUSH3 0x59F DUP4 DUP4 PUSH3 0x550 JUMP JUMPDEST SWAP1 POP SWAP3 SWAP2 POP POP JUMP JUMPDEST PUSH1 0x0 PUSH1 0x20 DUP3 ADD SWAP1 POP SWAP2 SWAP1 POP JUMP JUMPDEST PUSH1 0x0 PUSH3 0x5C1 DUP3 PUSH3 0x4C1 JUMP JUMPDEST PUSH3 0x5CD DUP2 DUP6 PUSH3 0x4CC JUMP JUMPDEST SWAP4 POP DUP4 PUSH1 0x20 DUP3 MUL DUP6 ADD PUSH3 0x5E1 DUP6 PUSH3 0x4DD JUMP JUMPDEST DUP1 PUSH1 0x0 JUMPDEST DUP6 DUP2 LT ISZERO PUSH3 0x623 JUMPI DUP5 DUP5 SUB DUP10 MSTORE DUP2 MLOAD PUSH3 0x601 DUP6 DUP3 PUSH3 0x591 JUMP JUMPDEST SWAP5 POP PUSH3 0x60E DUP4 PUSH3 0x5A7 JUMP JUMPDEST SWAP3 POP PUSH1 0x20 DUP11 ADD SWAP10 POP POP PUSH1 0x1 DUP2 ADD SWAP1 POP PUSH3 0x5E5 JUMP JUMPDEST POP DUP3 SWAP8 POP DUP8 SWAP6 POP POP POP POP POP POP SWAP3 SWAP2 POP POP JUMP JUMPDEST PUSH1 0x0 PUSH1 0x40 DUP3 ADD SWAP1 POP DUP2 DUP2 SUB PUSH1 0x0 DUP4 ADD MSTORE PUSH3 0x651 DUP2 DUP6 PUSH3 0x457 JUMP JUMPDEST SWAP1 POP DUP2 DUP2 SUB PUSH1 0x20 DUP4 ADD MSTORE PUSH3 0x667 DUP2 DUP5 PUSH3 0x5B4 JUMP JUMPDEST SWAP1 POP SWAP4 SWAP3 POP POP POP JUMP JUMPDEST PUSH1 0x0 PUSH1 0x40 MLOAD SWAP1 POP SWAP1 JUMP JUMPDEST PUSH1 0x0 DUP1 REVERT JUMPDEST PUSH1 0x0 DUP1 REVERT JUMPDEST PUSH1 0x0 DUP1 REVERT JUMPDEST PUSH1 0x0 DUP1 REVERT JUMPDEST PUSH32 0x4E487B7100000000000000000000000000000000000000000000000000000000 PUSH1 0x0 MSTORE PUSH1 0x41 PUSH1 0x4 MSTORE PUSH1 0x24 PUSH1 0x0 REVERT JUMPDEST PUSH3 0x6C8 DUP3 PUSH3 0x53F JUMP JUMPDEST DUP2 ADD DUP2 DUP2 LT PUSH8 0xFFFFFFFFFFFFFFFF DUP3 GT OR ISZERO PUSH3 0x6EA JUMPI PUSH3 0x6E9 PUSH3 0x68E JUMP JUMPDEST JUMPDEST DUP1 PUSH1 0x40 MSTORE POP POP POP JUMP JUMPDEST PUSH1 0x0 PUSH3 0x6FF PUSH3 0x670 JUMP JUMPDEST SWAP1 POP PUSH3 0x70D DUP3 DUP3 PUSH3 0x6BD JUMP JUMPDEST SWAP2 SWAP1 POP JUMP JUMPDEST PUSH1 0x0 PUSH8 0xFFFFFFFFFFFFFFFF DUP3 GT ISZERO PUSH3 0x730 JUMPI PUSH3 0x72F PUSH3 0x68E JUMP JUMPDEST JUMPDEST PUSH3 0x73B DUP3 PUSH3 0x53F JUMP JUMPDEST SWAP1 POP PUSH1 0x20 DUP2 ADD SWAP1 POP SWAP2 SWAP1 POP JUMP JUMPDEST DUP3 DUP2 DUP4 CALLDATACOPY PUSH1 0x0 DUP4 DUP4 ADD MSTORE POP POP POP JUMP JUMPDEST PUSH1 0x0 PUSH3 0x76E PUSH3 0x768 DUP5 PUSH3 0x712 JUMP JUMPDEST PUSH3 0x6F3 JUMP JUMPDEST SWAP1 POP DUP3 DUP2 MSTORE PUSH1 0x20 DUP2 ADD DUP5 DUP5 DUP5 ADD GT ISZERO PUSH3 0x78D JUMPI PUSH3 0x78C PUSH3 0x689 JUMP JUMPDEST JUMPDEST PUSH3 0x79A DUP5 DUP3 DUP6 PUSH3 0x748 JUMP JUMPDEST POP SWAP4 SWAP3 POP POP POP JUMP JUMPDEST PUSH1 0x0 DUP3 PUSH1 0x1F DUP4 ADD SLT PUSH3 0x7BA JUMPI PUSH3 0x7B9 PUSH3 0x684 JUMP JUMPDEST JUMPDEST DUP2 CALLDATALOAD PUSH3 0x7CC DUP5 DUP3 PUSH1 0x20 DUP7 ADD PUSH3 0x757 JUMP JUMPDEST SWAP2 POP POP SWAP3 SWAP2 POP POP JUMP JUMPDEST PUSH1 0x0 DUP2 SWAP1 POP SWAP2 SWAP1 POP JUMP JUMPDEST PUSH3 0x7EA DUP2 PUSH3 0x7D5 JUMP JUMPDEST DUP2 EQ PUSH3 0x7F6 JUMPI PUSH1 0x0 DUP1 REVERT JUMPDEST POP JUMP JUMPDEST PUSH1 0x0 DUP2 CALLDATALOAD SWAP1 POP PUSH3 0x80A DUP2 PUSH3 0x7DF JUMP JUMPDEST SWAP3 SWAP2 POP POP JUMP JUMPDEST PUSH1 0x0 DUP1 PUSH1 0x0 DUP1 PUSH1 0x80 DUP6 DUP8 SUB SLT ISZERO PUSH3 0x82D JUMPI PUSH3 0x82C PUSH3 0x67A JUMP JUMPDEST JUMPDEST PUSH1 0x0 DUP6 ADD CALLDATALOAD PUSH8 0xFFFFFFFFFFFFFFFF DUP2 GT ISZERO PUSH3 0x84E JUMPI PUSH3 0x84D PUSH3 0x67F JUMP JUMPDEST JUMPDEST PUSH3 0x85C DUP8 DUP3 DUP9 ADD PUSH3 0x7A2 JUMP JUMPDEST SWAP5 POP POP PUSH1 0x20 PUSH3 0x86F DUP8 DUP3 DUP9 ADD PUSH3 0x7F9 JUMP JUMPDEST SWAP4 POP POP PUSH1 0x40 PUSH3 0x882 DUP8 DUP3 DUP9 ADD PUSH3 0x7F9 JUMP JUMPDEST SWAP3 POP POP PUSH1 0x60 PUSH3 0x895 DUP8 DUP3 DUP9 ADD PUSH3 0x7F9 JUMP JUMPDEST SWAP2 POP POP SWAP3 SWAP6 SWAP2 SWAP5 POP SWAP3 POP JUMP JUMPDEST PUSH3 0x8AC DUP2 PUSH3 0x40B JUMP JUMPDEST DUP3 MSTORE POP POP JUMP JUMPDEST PUSH1 0x0 PUSH1 0x20 DUP3 ADD SWAP1 POP PUSH3 0x8C9 PUSH1 0x0 DUP4 ADD DUP5 PUSH3 0x8A1 JUMP JUMPDEST SWAP3 SWAP2 POP POP JUMP JUMPDEST PUSH32 0x4E487B7100000000000000000000000000000000000000000000000000000000 PUSH1 0x0 MSTORE PUSH1 0x22 PUSH1 0x4 MSTORE PUSH1 0x24 PUSH1 0x0 REVERT JUMPDEST PUSH1 0x0 PUSH1 0x2 DUP3 DIV SWAP1 POP PUSH1 0x1 DUP3 AND DUP1 PUSH3 0x917 JUMPI PUSH1 0x7F DUP3 AND SWAP2 POP JUMPDEST PUSH1 0x20 DUP3 LT DUP2 SUB PUSH3 0x92D JUMPI PUSH3 0x92C PUSH3 0x8CF JUMP JUMPDEST JUMPDEST POP SWAP2 SWAP1 POP JUMP JUMPDEST PUSH1 0x0 DUP3 DUP3 MSTORE PUSH1 0x20 DUP3 ADD SWAP1 POP SWAP3 SWAP2 POP POP JUMP JUMPDEST PUSH1 0x0 PUSH3 0x951 DUP3 PUSH3 0x4ED JUMP JUMPDEST PUSH3 0x95D DUP2 DUP6 PUSH3 0x933 JUMP JUMPDEST SWAP4 POP PUSH3 0x96F DUP2 DUP6 PUSH1 0x20 DUP7 ADD PUSH3 0x509 JUMP JUMPDEST PUSH3 0x97A DUP2 PUSH3 0x53F JUMP JUMPDEST DUP5 ADD SWAP2 POP POP SWAP3 SWAP2 POP POP JUMP JUMPDEST PUSH3 0x990 DUP2 PUSH3 0x7D5 JUMP JUMPDEST DUP3 MSTORE POP POP JUMP JUMPDEST PUSH1 0x0 PUSH1 0xA0 DUP3 ADD SWAP1 POP PUSH3 0x9AD PUSH1 0x0 DUP4 ADD DUP9 PUSH3 0x8A1 JUMP JUMPDEST DUP2 DUP2 SUB PUSH1 0x20 DUP4 ADD MSTORE PUSH3 0x9C1 DUP2 DUP8 PUSH3 0x944 JUMP JUMPDEST SWAP1 POP PUSH3 0x9D2 PUSH1 0x40 DUP4 ADD DUP7 PUSH3 0x985 JUMP JUMPDEST PUSH3 0x9E1 PUSH1 0x60 DUP4 ADD DUP6 PUSH3 0x985 JUMP JUMPDEST PUSH3 0x9F0 PUSH1 0x80 DUP4 ADD DUP5 PUSH3 0x985 JUMP JUMPDEST SWAP7 SWAP6 POP POP POP POP POP POP JUMP INVALID PUSH1 0x80 PUSH1 0x40 MSTORE CALLVALUE DUP1 ISZERO PUSH3 0x11 JUMPI PUSH1 0x0 DUP1 REVERT JUMPDEST POP PUSH1 0x40 MLOAD PUSH3 0xC5B CODESIZE SUB DUP1 PUSH3 0xC5B DUP4 CODECOPY DUP2 DUP2 ADD PUSH1 0x40 MSTORE DUP2 ADD SWAP1 PUSH3 0x37 SWAP2 SWAP1 PUSH3 0x3D3 JUMP JUMPDEST DUP5 PUSH1 0x0 DUP1 ADD PUSH1 0x0 PUSH2 0x100 EXP DUP2 SLOAD DUP2 PUSH20 0xFFFFFFFFFFFFFFFFFFFFFFFFFFFFFFFFFFFFFFFF MUL NOT AND SWAP1 DUP4 PUSH20 0xFFFFFFFFFFFFFFFFFFFFFFFFFFFFFFFFFFFFFFFF AND MUL OR SWAP1 SSTORE POP DUP4 PUSH1 0x0 PUSH1 0x1 ADD SWAP1 DUP1 MLOAD SWAP1 PUSH1 0x20 ADD SWAP1 PUSH3 0x95 SWAP3 SWAP2 SWAP1 PUSH3 0xE6 JUMP JUMPDEST POP DUP3 PUSH1 0x0 PUSH1 0x2 ADD DUP2 SWAP1 SSTORE POP DUP2 PUSH1 0x0 PUSH1 0x3 ADD DUP2 SWAP1 SSTORE POP PUSH1 0x0 DUP1 PUSH1 0x5 ADD DUP2 SWAP1 SSTORE POP PUSH1 0x0 DUP1 PUSH1 0x6 ADD PUSH1 0x0 PUSH2 0x100 EXP DUP2 SLOAD DUP2 PUSH1 0xFF MUL NOT AND SWAP1 DUP4 ISZERO ISZERO MUL OR SWAP1 SSTORE POP DUP1 PUSH1 0x0 PUSH1 0x7 ADD DUP2 SWAP1 SSTORE POP POP POP POP POP POP PUSH3 0x4DE JUMP JUMPDEST DUP3 DUP1 SLOAD PUSH3 0xF4 SWAP1 PUSH3 0x4A9 JUMP JUMPDEST SWAP1 PUSH1 0x0 MSTORE PUSH1 0x20 PUSH1 0x0 KECCAK256 SWAP1 PUSH1 0x1F ADD PUSH1 0x20 SWAP1 DIV DUP2 ADD SWAP3 DUP3 PUSH3 0x118 JUMPI PUSH1 0x0 DUP6 SSTORE PUSH3 0x164 JUMP JUMPDEST DUP3 PUSH1 0x1F LT PUSH3 0x133 JUMPI DUP1 MLOAD PUSH1 0xFF NOT AND DUP4 DUP1 ADD OR DUP6 SSTORE PUSH3 0x164 JUMP JUMPDEST DUP3 DUP1 ADD PUSH1 0x1 ADD DUP6 SSTORE DUP3 ISZERO PUSH3 0x164 JUMPI SWAP2 DUP3 ADD JUMPDEST DUP3 DUP2 GT ISZERO PUSH3 0x163 JUMPI DUP3 MLOAD DUP3 SSTORE SWAP2 PUSH1 0x20 ADD SWAP2 SWAP1 PUSH1 0x1 ADD SWAP1 PUSH3 0x146 JUMP JUMPDEST JUMPDEST POP SWAP1 POP PUSH3 0x173 SWAP2 SWAP1 PUSH3 0x177 JUMP JUMPDEST POP SWAP1 JUMP JUMPDEST JUMPDEST DUP1 DUP3 GT ISZERO PUSH3 0x192 JUMPI PUSH1 0x0 DUP2 PUSH1 0x0 SWAP1 SSTORE POP PUSH1 0x1 ADD PUSH3 0x178 JUMP JUMPDEST POP SWAP1 JUMP JUMPDEST PUSH1 0x0 PUSH1 0x40 MLOAD SWAP1 POP SWAP1 JUMP JUMPDEST PUSH1 0x0 DUP1 REVERT JUMPDEST PUSH1 0x0 DUP1 REVERT JUMPDEST PUSH1 0x0 PUSH20 0xFFFFFFFFFFFFFFFFFFFFFFFFFFFFFFFFFFFFFFFF DUP3 AND SWAP1 POP SWAP2 SWAP1 POP JUMP JUMPDEST PUSH1 0x0 PUSH3 0x1D7 DUP3 PUSH3 0x1AA JUMP JUMPDEST SWAP1 POP SWAP2 SWAP1 POP JUMP JUMPDEST PUSH3 0x1E9 DUP2 PUSH3 0x1CA JUMP JUMPDEST DUP2 EQ PUSH3 0x1F5 JUMPI PUSH1 0x0 DUP1 REVERT JUMPDEST POP JUMP JUMPDEST PUSH1 0x0 DUP2 MLOAD SWAP1 POP PUSH3 0x209 DUP2 PUSH3 0x1DE JUMP JUMPDEST SWAP3 SWAP2 POP POP JUMP JUMPDEST PUSH1 0x0 DUP1 REVERT JUMPDEST PUSH1 0x0 DUP1 REVERT JUMPDEST PUSH1 0x0 PUSH1 0x1F NOT PUSH1 0x1F DUP4 ADD AND SWAP1 POP SWAP2 SWAP1 POP JUMP JUMPDEST PUSH32 0x4E487B7100000000000000000000000000000000000000000000000000000000 PUSH1 0x0 MSTORE PUSH1 0x41 PUSH1 0x4 MSTORE PUSH1 0x24 PUSH1 0x0 REVERT JUMPDEST PUSH3 0x264 DUP3 PUSH3 0x219 JUMP JUMPDEST DUP2 ADD DUP2 DUP2 LT PUSH8 0xFFFFFFFFFFFFFFFF DUP3 GT OR ISZERO PUSH3 0x286 JUMPI PUSH3 0x285 PUSH3 0x22A JUMP JUMPDEST JUMPDEST DUP1 PUSH1 0x40 MSTORE POP POP POP JUMP JUMPDEST PUSH1 0x0 PUSH3 0x29B PUSH3 0x196 JUMP JUMPDEST SWAP1 POP PUSH3 0x2A9 DUP3 DUP3 PUSH3 0x259 JUMP JUMPDEST SWAP2 SWAP1 POP JUMP JUMPDEST PUSH1 0x0 PUSH8 0xFFFFFFFFFFFFFFFF DUP3 GT ISZERO PUSH3 0x2CC JUMPI PUSH3 0x2CB PUSH3 0x22A JUMP JUMPDEST JUMPDEST PUSH3 0x2D7 DUP3 PUSH3 0x219 JUMP JUMPDEST SWAP1 POP PUSH1 0x20 DUP2 ADD SWAP1 POP SWAP2 SWAP1 POP JUMP JUMPDEST PUSH1 0x0 JUMPDEST DUP4 DUP2 LT ISZERO PUSH3 0x304 JUMPI DUP1 DUP3 ADD MLOAD DUP2 DUP5 ADD MSTORE PUSH1 0x20 DUP2 ADD SWAP1 POP PUSH3 0x2E7 JUMP JUMPDEST DUP4 DUP2 GT ISZERO PUSH3 0x314 JUMPI PUSH1 0x0 DUP5 DUP5 ADD MSTORE JUMPDEST POP POP POP POP JUMP JUMPDEST PUSH1 0x0 PUSH3 0x331 PUSH3 0x32B DUP5 PUSH3 0x2AE JUMP JUMPDEST PUSH3 0x28F JUMP JUMPDEST SWAP1 POP DUP3 DUP2 MSTORE PUSH1 0x20 DUP2 ADD DUP5 DUP5 DUP5 ADD GT ISZERO PUSH3 0x350 JUMPI PUSH3 0x34F PUSH3 0x214 JUMP JUMPDEST JUMPDEST PUSH3 0x35D DUP5 DUP3 DUP6 PUSH3 0x2E4 JUMP JUMPDEST POP SWAP4 SWAP3 POP POP POP JUMP JUMPDEST PUSH1 0x0 DUP3 PUSH1 0x1F DUP4 ADD SLT PUSH3 0x37D JUMPI PUSH3 0x37C PUSH3 0x20F JUMP JUMPDEST JUMPDEST DUP2 MLOAD PUSH3 0x38F DUP5 DUP3 PUSH1 0x20 DUP7 ADD PUSH3 0x31A JUMP JUMPDEST SWAP2 POP POP SWAP3 SWAP2 POP POP JUMP JUMPDEST PUSH1 0x0 DUP2 SWAP1 POP SWAP2 SWAP1 POP JUMP JUMPDEST PUSH3 0x3AD DUP2 PUSH3 0x398 JUMP JUMPDEST DUP2 EQ PUSH3 0x3B9 JUMPI PUSH1 0x0 DUP1 REVERT JUMPDEST POP JUMP JUMPDEST PUSH1 0x0 DUP2 MLOAD SWAP1 POP PUSH3 0x3CD DUP2 PUSH3 0x3A2 JUMP JUMPDEST SWAP3 SWAP2 POP POP JUMP JUMPDEST PUSH1 0x0 DUP1 PUSH1 0x0 DUP1 PUSH1 0x0 PUSH1 0xA0 DUP7 DUP9 SUB SLT ISZERO PUSH3 0x3F2 JUMPI PUSH3 0x3F1 PUSH3 0x1A0 JUMP JUMPDEST JUMPDEST PUSH1 0x0 PUSH3 0x402 DUP9 DUP3 DUP10 ADD PUSH3 0x1F8 JUMP JUMPDEST SWAP6 POP POP PUSH1 0x20 DUP7 ADD MLOAD PUSH8 0xFFFFFFFFFFFFFFFF DUP2 GT ISZERO PUSH3 0x426 JUMPI PUSH3 0x425 PUSH3 0x1A5 JUMP JUMPDEST JUMPDEST PUSH3 0x434 DUP9 DUP3 DUP10 ADD PUSH3 0x365 JUMP JUMPDEST SWAP5 POP POP PUSH1 0x40 PUSH3 0x447 DUP9 DUP3 DUP10 ADD PUSH3 0x3BC JUMP JUMPDEST SWAP4 POP POP PUSH1 0x60 PUSH3 0x45A DUP9 DUP3 DUP10 ADD PUSH3 0x3BC JUMP JUMPDEST SWAP3 POP POP PUSH1 0x80 PUSH3 0x46D DUP9 DUP3 DUP10 ADD PUSH3 0x3BC JUMP JUMPDEST SWAP2 POP POP SWAP3 SWAP6 POP SWAP3 SWAP6 SWAP1 SWAP4 POP JUMP JUMPDEST PUSH32 0x4E487B7100000000000000000000000000000000000000000000000000000000 PUSH1 0x0 MSTORE PUSH1 0x22 PUSH1 0x4 MSTORE PUSH1 0x24 PUSH1 0x0 REVERT JUMPDEST PUSH1 0x0 PUSH1 0x2 DUP3 DIV SWAP1 POP PUSH1 0x1 DUP3 AND DUP1 PUSH3 0x4C2 JUMPI PUSH1 0x7F DUP3 AND SWAP2 POP JUMPDEST PUSH1 0x20 DUP3 LT DUP2 SUB PUSH3 0x4D8 JUMPI PUSH3 0x4D7 PUSH3 0x47A JUMP JUMPDEST JUMPDEST POP SWAP2 SWAP1 POP JUMP JUMPDEST PUSH2 0x76D DUP1 PUSH3 0x4EE PUSH1 0x0 CODECOPY PUSH1 0x0 RETURN INVALID PUSH1 0x80 PUSH1 0x40 MSTORE PUSH1 0x4 CALLDATASIZE LT PUSH2 0x3F JUMPI PUSH1 0x0 CALLDATALOAD PUSH1 0xE0 SHR DUP1 PUSH4 0x236B8E3A EQ PUSH2 0x44 JUMPI DUP1 PUSH4 0x39CBCC64 EQ PUSH2 0x76 JUMPI DUP1 PUSH4 0x4E71D92D EQ PUSH2 0xA1 JUMPI DUP1 PUSH4 0xC1CBBCA7 EQ PUSH2 0xAB JUMPI JUMPDEST PUSH1 0x0 DUP1 REVERT JUMPDEST CALLVALUE DUP1 ISZERO PUSH2 0x50 JUMPI PUSH1 0x0 DUP1 REVERT JUMPDEST POP PUSH2 0x59 PUSH2 0xC7 JUMP JUMPDEST PUSH1 0x40 MLOAD PUSH2 0x6D SWAP9 SWAP8 SWAP7 SWAP6 SWAP5 SWAP4 SWAP3 SWAP2 SWAP1 PUSH2 0x562 JUMP JUMPDEST PUSH1 0x40 MLOAD DUP1 SWAP2 SUB SWAP1 RETURN JUMPDEST CALLVALUE DUP1 ISZERO PUSH2 0x82 JUMPI PUSH1 0x0 DUP1 REVERT JUMPDEST POP PUSH2 0x8B PUSH2 0x1D0 JUMP JUMPDEST PUSH1 0x40 MLOAD PUSH2 0x98 SWAP2 SWAP1 PUSH2 0x5E7 JUMP JUMPDEST PUSH1 0x40 MLOAD DUP1 SWAP2 SUB SWAP1 RETURN JUMPDEST PUSH2 0xA9 PUSH2 0x219 JUMP JUMPDEST STOP JUMPDEST PUSH2 0xC5 PUSH1 0x4 DUP1 CALLDATASIZE SUB DUP2 ADD SWAP1 PUSH2 0xC0 SWAP2 SWAP1 PUSH2 0x633 JUMP JUMPDEST PUSH2 0x2B6 JUMP JUMPDEST STOP JUMPDEST PUSH1 0x0 DUP1 PUSH1 0x60 PUSH1 0x0 DUP1 PUSH1 0x0 DUP1 PUSH1 0x0 DUP1 PUSH1 0x0 SWAP1 POP DUP1 PUSH1 0x0 ADD PUSH1 0x0 SWAP1 SLOAD SWAP1 PUSH2 0x100 EXP SWAP1 DIV PUSH20 0xFFFFFFFFFFFFFFFFFFFFFFFFFFFFFFFFFFFFFFFF AND SELFBALANCE DUP3 PUSH1 0x1 ADD DUP4 PUSH1 0x2 ADD SLOAD DUP5 PUSH1 0x3 ADD SLOAD DUP6 PUSH1 0x5 ADD SLOAD DUP7 PUSH1 0x6 ADD PUSH1 0x0 SWAP1 SLOAD SWAP1 PUSH2 0x100 EXP SWAP1 DIV PUSH1 0xFF AND DUP8 PUSH1 0x7 ADD SLOAD DUP6 DUP1 SLOAD PUSH2 0x135 SWAP1 PUSH2 0x68F JUMP JUMPDEST DUP1 PUSH1 0x1F ADD PUSH1 0x20 DUP1 SWAP2 DIV MUL PUSH1 0x20 ADD PUSH1 0x40 MLOAD SWAP1 DUP2 ADD PUSH1 0x40 MSTORE DUP1 SWAP3 SWAP2 SWAP1 DUP2 DUP2 MSTORE PUSH1 0x20 ADD DUP3 DUP1 SLOAD PUSH2 0x161 SWAP1 PUSH2 0x68F JUMP JUMPDEST DUP1 ISZERO PUSH2 0x1AE JUMPI DUP1 PUSH1 0x1F LT PUSH2 0x183 JUMPI PUSH2 0x100 DUP1 DUP4 SLOAD DIV MUL DUP4 MSTORE SWAP2 PUSH1 0x20 ADD SWAP2 PUSH2 0x1AE JUMP JUMPDEST DUP3 ADD SWAP2 SWAP1 PUSH1 0x0 MSTORE PUSH1 0x20 PUSH1 0x0 KECCAK256 SWAP1 JUMPDEST DUP2 SLOAD DUP2 MSTORE SWAP1 PUSH1 0x1 ADD SWAP1 PUSH1 0x20 ADD DUP1 DUP4 GT PUSH2 0x191 JUMPI DUP3 SWAP1 SUB PUSH1 0x1F AND DUP3 ADD SWAP2 JUMPDEST POP POP POP POP POP SWAP6 POP SWAP9 POP SWAP9 POP SWAP9 POP SWAP9 POP SWAP9 POP SWAP9 POP SWAP9 POP SWAP9 POP POP SWAP1 SWAP2 SWAP3 SWAP4 SWAP5 SWAP6 SWAP7 SWAP8 JUMP JUMPDEST PUSH1 0x0 DUP1 PUSH1 0x4 ADD PUSH1 0x0 CALLER PUSH20 0xFFFFFFFFFFFFFFFFFFFFFFFFFFFFFFFFFFFFFFFF AND PUSH20 0xFFFFFFFFFFFFFFFFFFFFFFFFFFFFFFFFFFFFFFFF AND DUP2 MSTORE PUSH1 0x20 ADD SWAP1 DUP2 MSTORE PUSH1 0x20 ADD PUSH1 0x0 KECCAK256 SLOAD SWAP1 POP SWAP1 JUMP JUMPDEST PUSH1 0x0 PUSH1 0x7 ADD SLOAD TIMESTAMP LT ISZERO PUSH2 0x22B JUMPI PUSH1 0x0 DUP1 REVERT JUMPDEST CALLER PUSH20 0xFFFFFFFFFFFFFFFFFFFFFFFFFFFFFFFFFFFFFFFF AND PUSH2 0x8FC PUSH1 0x0 PUSH1 0x4 ADD PUSH1 0x0 CALLER PUSH20 0xFFFFFFFFFFFFFFFFFFFFFFFFFFFFFFFFFFFFFFFF AND PUSH20 0xFFFFFFFFFFFFFFFFFFFFFFFFFFFFFFFFFFFFFFFF AND DUP2 MSTORE PUSH1 0x20 ADD SWAP1 DUP2 MSTORE PUSH1 0x20 ADD PUSH1 0x0 KECCAK256 SLOAD SWAP1 DUP2 ISZERO MUL SWAP1 PUSH1 0x40 MLOAD PUSH1 0x0 PUSH1 0x40 MLOAD DUP1 DUP4 SUB DUP2 DUP6 DUP9 DUP9 CALL SWAP4 POP POP POP POP ISZERO DUP1 ISZERO PUSH2 0x2B3 JUMPI RETURNDATASIZE PUSH1 0x0 DUP1 RETURNDATACOPY RETURNDATASIZE PUSH1 0x0 REVERT JUMPDEST POP JUMP JUMPDEST PUSH1 0x0 PUSH1 0x6 ADD PUSH1 0x0 SWAP1 SLOAD SWAP1 PUSH2 0x100 EXP SWAP1 DIV PUSH1 0xFF AND ISZERO PUSH2 0x2D3 JUMPI PUSH1 0x0 DUP1 REVERT JUMPDEST PUSH1 0x0 DUP1 PUSH1 0x3 ADD SLOAD SUB PUSH2 0x346 JUMPI DUP1 PUSH1 0x0 PUSH1 0x4 ADD PUSH1 0x0 CALLER PUSH20 0xFFFFFFFFFFFFFFFFFFFFFFFFFFFFFFFFFFFFFFFF AND PUSH20 0xFFFFFFFFFFFFFFFFFFFFFFFFFFFFFFFFFFFFFFFF AND DUP2 MSTORE PUSH1 0x20 ADD SWAP1 DUP2 MSTORE PUSH1 0x20 ADD PUSH1 0x0 KECCAK256 DUP2 SWAP1 SSTORE POP PUSH1 0x0 PUSH1 0x5 ADD PUSH1 0x0 DUP2 SLOAD DUP1 SWAP3 SWAP2 SWAP1 PUSH2 0x33C SWAP1 PUSH2 0x6EF JUMP JUMPDEST SWAP2 SWAP1 POP SSTORE POP PUSH2 0x3BB JUMP JUMPDEST PUSH1 0x0 PUSH1 0x3 ADD SLOAD CALLVALUE LT ISZERO PUSH2 0x358 JUMPI PUSH1 0x0 DUP1 REVERT JUMPDEST DUP1 PUSH1 0x0 PUSH1 0x4 ADD PUSH1 0x0 CALLER PUSH20 0xFFFFFFFFFFFFFFFFFFFFFFFFFFFFFFFFFFFFFFFF AND PUSH20 0xFFFFFFFFFFFFFFFFFFFFFFFFFFFFFFFFFFFFFFFF AND DUP2 MSTORE PUSH1 0x20 ADD SWAP1 DUP2 MSTORE PUSH1 0x20 ADD PUSH1 0x0 KECCAK256 DUP2 SWAP1 SSTORE POP PUSH1 0x0 PUSH1 0x5 ADD PUSH1 0x0 DUP2 SLOAD DUP1 SWAP3 SWAP2 SWAP1 PUSH2 0x3B5 SWAP1 PUSH2 0x6EF JUMP JUMPDEST SWAP2 SWAP1 POP SSTORE POP JUMPDEST PUSH1 0x0 PUSH1 0x2 ADD SLOAD SELFBALANCE LT PUSH2 0x451 JUMPI PUSH1 0x0 DUP1 ADD PUSH1 0x0 SWAP1 SLOAD SWAP1 PUSH2 0x100 EXP SWAP1 DIV PUSH20 0xFFFFFFFFFFFFFFFFFFFFFFFFFFFFFFFFFFFFFFFF AND PUSH20 0xFFFFFFFFFFFFFFFFFFFFFFFFFFFFFFFFFFFFFFFF AND PUSH2 0x8FC SELFBALANCE SWAP1 DUP2 ISZERO MUL SWAP1 PUSH1 0x40 MLOAD PUSH1 0x0 PUSH1 0x40 MLOAD DUP1 DUP4 SUB DUP2 DUP6 DUP9 DUP9 CALL SWAP4 POP POP POP POP ISZERO DUP1 ISZERO PUSH2 0x431 JUMPI RETURNDATASIZE PUSH1 0x0 DUP1 RETURNDATACOPY RETURNDATASIZE PUSH1 0x0 REVERT JUMPDEST POP PUSH1 0x1 PUSH1 0x0 PUSH1 0x6 ADD PUSH1 0x0 PUSH2 0x100 EXP DUP2 SLOAD DUP2 PUSH1 0xFF MUL NOT AND SWAP1 DUP4 ISZERO ISZERO MUL OR SWAP1 SSTORE POP JUMPDEST POP JUMP JUMPDEST PUSH1 0x0 PUSH20 0xFFFFFFFFFFFFFFFFFFFFFFFFFFFFFFFFFFFFFFFF DUP3 AND SWAP1 POP SWAP2 SWAP1 POP JUMP JUMPDEST PUSH1 0x0 PUSH2 0x47F DUP3 PUSH2 0x454 JUMP JUMPDEST SWAP1 POP SWAP2 SWAP1 POP JUMP JUMPDEST PUSH2 0x48F DUP2 PUSH2 0x474 JUMP JUMPDEST DUP3 MSTORE POP POP JUMP JUMPDEST PUSH1 0x0 DUP2 SWAP1 POP SWAP2 SWAP1 POP JUMP JUMPDEST PUSH2 0x4A8 DUP2 PUSH2 0x495 JUMP JUMPDEST DUP3 MSTORE POP POP JUMP JUMPDEST PUSH1 0x0 DUP2 MLOAD SWAP1 POP SWAP2 SWAP1 POP JUMP JUMPDEST PUSH1 0x0 DUP3 DUP3 MSTORE PUSH1 0x20 DUP3 ADD SWAP1 POP SWAP3 SWAP2 POP POP JUMP JUMPDEST PUSH1 0x0 JUMPDEST DUP4 DUP2 LT ISZERO PUSH2 0x4E8 JUMPI DUP1 DUP3 ADD MLOAD DUP2 DUP5 ADD MSTORE PUSH1 0x20 DUP2 ADD SWAP1 POP PUSH2 0x4CD JUMP JUMPDEST DUP4 DUP2 GT ISZERO PUSH2 0x4F7 JUMPI PUSH1 0x0 DUP5 DUP5 ADD MSTORE JUMPDEST POP POP POP POP JUMP JUMPDEST PUSH1 0x0 PUSH1 0x1F NOT PUSH1 0x1F DUP4 ADD AND SWAP1 POP SWAP2 SWAP1 POP JUMP JUMPDEST PUSH1 0x0 PUSH2 0x519 DUP3 PUSH2 0x4AE JUMP JUMPDEST PUSH2 0x523 DUP2 DUP6 PUSH2 0x4B9 JUMP JUMPDEST SWAP4 POP PUSH2 0x533 DUP2 DUP6 PUSH1 0x20 DUP7 ADD PUSH2 0x4CA JUMP JUMPDEST PUSH2 0x53C DUP2 PUSH2 0x4FD JUMP JUMPDEST DUP5 ADD SWAP2 POP POP SWAP3 SWAP2 POP POP JUMP JUMPDEST PUSH1 0x0 DUP2 ISZERO ISZERO SWAP1 POP SWAP2 SWAP1 POP JUMP JUMPDEST PUSH2 0x55C DUP2 PUSH2 0x547 JUMP JUMPDEST DUP3 MSTORE POP POP JUMP JUMPDEST PUSH1 0x0 PUSH2 0x100 DUP3 ADD SWAP1 POP PUSH2 0x578 PUSH1 0x0 DUP4 ADD DUP12 PUSH2 0x486 JUMP JUMPDEST PUSH2 0x585 PUSH1 0x20 DUP4 ADD DUP11 PUSH2 0x49F JUMP JUMPDEST DUP2 DUP2 SUB PUSH1 0x40 DUP4 ADD MSTORE PUSH2 0x597 DUP2 DUP10 PUSH2 0x50E JUMP JUMPDEST SWAP1 POP PUSH2 0x5A6 PUSH1 0x60 DUP4 ADD DUP9 PUSH2 0x49F JUMP JUMPDEST PUSH2 0x5B3 PUSH1 0x80 DUP4 ADD DUP8 PUSH2 0x49F JUMP JUMPDEST PUSH2 0x5C0 PUSH1 0xA0 DUP4 ADD DUP7 PUSH2 0x49F JUMP JUMPDEST PUSH2 0x5CD PUSH1 0xC0 DUP4 ADD DUP6 PUSH2 0x553 JUMP JUMPDEST PUSH2 0x5DA PUSH1 0xE0 DUP4 ADD DUP5 PUSH2 0x49F JUMP JUMPDEST SWAP10 SWAP9 POP POP POP POP POP POP POP POP POP JUMP JUMPDEST PUSH1 0x0 PUSH1 0x20 DUP3 ADD SWAP1 POP PUSH2 0x5FC PUSH1 0x0 DUP4 ADD DUP5 PUSH2 0x49F JUMP JUMPDEST SWAP3 SWAP2 POP POP JUMP JUMPDEST PUSH1 0x0 DUP1 REVERT JUMPDEST PUSH2 0x610 DUP2 PUSH2 0x495 JUMP JUMPDEST DUP2 EQ PUSH2 0x61B JUMPI PUSH1 0x0 DUP1 REVERT JUMPDEST POP JUMP JUMPDEST PUSH1 0x0 DUP2 CALLDATALOAD SWAP1 POP PUSH2 0x62D DUP2 PUSH2 0x607 JUMP JUMPDEST SWAP3 SWAP2 POP POP JUMP JUMPDEST PUSH1 0x0 PUSH1 0x20 DUP3 DUP5 SUB SLT ISZERO PUSH2 0x649 JUMPI PUSH2 0x648 PUSH2 0x602 JUMP JUMPDEST JUMPDEST PUSH1 0x0 PUSH2 0x657 DUP5 DUP3 DUP6 ADD PUSH2 0x61E JUMP JUMPDEST SWAP2 POP POP SWAP3 SWAP2 POP POP JUMP JUMPDEST PUSH32 0x4E487B7100000000000000000000000000000000000000000000000000000000 PUSH1 0x0 MSTORE PUSH1 0x22 PUSH1 0x4 MSTORE PUSH1 0x24 PUSH1 0x0 REVERT JUMPDEST PUSH1 0x0 PUSH1 0x2 DUP3 DIV SWAP1 POP PUSH1 0x1 DUP3 AND DUP1 PUSH2 0x6A7 JUMPI PUSH1 0x7F DUP3 AND SWAP2 POP JUMPDEST PUSH1 0x20 DUP3 LT DUP2 SUB PUSH2 0x6BA JUMPI PUSH2 0x6B9 PUSH2 0x660 JUMP JUMPDEST JUMPDEST POP SWAP2 SWAP1 POP JUMP JUMPDEST PUSH32 0x4E487B7100000000000000000000000000000000000000000000000000000000 PUSH1 0x0 MSTORE PUSH1 0x11 PUSH1 0x4 MSTORE PUSH1 0x24 PUSH1 0x0 REVERT JUMPDEST PUSH1 0x0 PUSH2 0x6FA DUP3 PUSH2 0x495 JUMP JUMPDEST SWAP2 POP PUSH32 0xFFFFFFFFFFFFFFFFFFFFFFFFFFFFFFFFFFFFFFFFFFFFFFFFFFFFFFFFFFFFFFFF DUP3 SUB PUSH2 0x72C JUMPI PUSH2 0x72B PUSH2 0x6C0 JUMP JUMPDEST JUMPDEST PUSH1 0x1 DUP3 ADD SWAP1 POP SWAP2 SWAP1 POP JUMP INVALID LOG2 PUSH5 0x6970667358 0x22 SLT KECCAK256 RETURNDATASIZE 0xC4 EXTCODEHASH PUSH14 0x1C27677670C0F6A36D5C0519C547 0xE7 0xDC 0xD8 0xB0 0x2D 0x4B SWAP4 PUSH28 0xA29DDC4D3AF464736F6C634300080D0033A264697066735822122030 0x28 CALL RETURN PUSH4 0x5D848E20 0xF8 SLT SIGNEXTEND PUSH12 0xAC78705D0A1887F5D325826C ORIGIN PUSH20 0xBB07E3642464736F6C634300080D003300000000 "},"gasEstimates":{"creation":{"codeDepositCost":"1154200","executionCost":"1200","totalCost":"1155400"},"external":{"createCampaign(string,uint256,uint256,uint256)":"infinite","getDeployedCampaigns()":"infinite"}},"methodIdentifiers":{"createCampaign(string,uint256,uint256,uint256)":"b5a898ae","getDeployedCampaigns()":"4acb9d4f"}},"storageLayout":{"storage":[{"astId":4,"contract":"Campaign.sol:CampaignFactory","label":"deployedCampaigns","offset":0,"slot":"0","type":"t_array(t_address)dyn_storage"},{"astId":7,"contract":"Campaign.sol:CampaignFactory","label":"campaignsName","offset":0,"slot":"1","type":"t_array(t_string_storage)dyn_storage"}],"types":{"t_address":{"encoding":"inplace","label":"address","numberOfBytes":"20"},"t_array(t_address)dyn_storage":{"base":"t_address","encoding":"dynamic_array","label":"address[]","numberOfBytes":"32"},"t_array(t_string_storage)dyn_storage":{"base":"t_string_storage","encoding":"dynamic_array","label":"string[]","numberOfBytes":"32"},"t_string_storage":{"encoding":"bytes","label":"string","numberOfBytes":"32"}}},"userdoc":{"kind":"user","methods":{},"version":1}}