{"abi":[{"inputs":[{"internalType":"address","name":"creator","type":"address"},{"internalType":"string","name":"campaignName","type":"string"},{"internalType":"uint256","name":"balance","type":"uint256"},{"internalType":"uint256","name":"cost","type":"uint256"},{"internalType":"uint256","name":"deadline","type":"uint256"}],"stateMutability":"nonpayable","type":"constructor"},{"inputs":[],"name":"claim","outputs":[],"stateMutability":"payable","type":"function"},{"inputs":[{"internalType":"uint256","name":"donate","type":"uint256"}],"name":"contribute","outputs":[],"stateMutability":"payable","type":"function"},{"inputs":[],"name":"getCampaign","outputs":[{"internalType":"address","name":"","type":"address"},{"internalType":"uint256","name":"","type":"uint256"},{"internalType":"string","name":"","type":"string"},{"internalType":"uint256","name":"","type":"uint256"},{"internalType":"uint256","name":"","type":"uint256"},{"internalType":"uint256","name":"","type":"uint256"},{"internalType":"bool","name":"","type":"bool"},{"internalType":"uint256","name":"","type":"uint256"}],"stateMutability":"view","type":"function"},{"inputs":[],"name":"getContributorDonate","outputs":[{"internalType":"uint256","name":"","type":"uint256"}],"stateMutability":"view","type":"function"}],"devdoc":{"kind":"dev","methods":{},"version":1},"evm":{"assembly":"    /* \"Campaign.sol\":772:2790  contract Campaign {... */\n  mstore(0x40, 0x80)\n    /* \"Campaign.sol\":1163:1556  constructor(address creator, string memory campaignName, uint balance, uint cost, uint256 deadline) {... */\n  callvalue\n  dup1\n  iszero\n  tag_1\n  jumpi\n  0x00\n  dup1\n  revert\ntag_1:\n  pop\n  mload(0x40)\n  sub(codesize, bytecodeSize)\n  dup1\n  bytecodeSize\n  dup4\n  codecopy\n  dup2\n  dup2\n  add\n  0x40\n  mstore\n  dup2\n  add\n  swap1\n  tag_2\n  swap2\n  swap1\n  tag_3\n  jump\t// in\ntag_2:\n    /* \"Campaign.sol\":1301:1308  creator */\n  dup5\n    /* \"Campaign.sol\":1274:1282  campaign */\n  0x00\n    /* \"Campaign.sol\":1274:1290  campaign.manager */\n  dup1\n  add\n  0x00\n    /* \"Campaign.sol\":1274:1309  campaign.manager = payable(creator) */\n  0x0100\n  exp\n  dup2\n  sload\n  dup2\n  0xffffffffffffffffffffffffffffffffffffffff\n  mul\n  not\n  and\n  swap1\n  dup4\n  0xffffffffffffffffffffffffffffffffffffffff\n  and\n  mul\n  or\n  swap1\n  sstore\n  pop\n    /* \"Campaign.sol\":1336:1348  campaignName */\n  dup4\n    /* \"Campaign.sol\":1320:1328  campaign */\n  0x00\n    /* \"Campaign.sol\":1320:1333  campaign.name */\n  0x01\n  add\n    /* \"Campaign.sol\":1320:1348  campaign.name = campaignName */\n  swap1\n  dup1\n  mload\n  swap1\n  0x20\n  add\n  swap1\n  tag_6\n  swap3\n  swap2\n  swap1\n  tag_7\n  jump\t// in\ntag_6:\n  pop\n    /* \"Campaign.sol\":1386:1393  balance */\n  dup3\n    /* \"Campaign.sol\":1359:1367  campaign */\n  0x00\n    /* \"Campaign.sol\":1359:1383  campaign.requiredBalance */\n  0x02\n  add\n    /* \"Campaign.sol\":1359:1393  campaign.requiredBalance = balance */\n  dup2\n  swap1\n  sstore\n  pop\n    /* \"Campaign.sol\":1428:1432  cost */\n  dup2\n    /* \"Campaign.sol\":1404:1412  campaign */\n  0x00\n    /* \"Campaign.sol\":1404:1425  campaign.requiredCost */\n  0x03\n  add\n    /* \"Campaign.sol\":1404:1432  campaign.requiredCost = cost */\n  dup2\n  swap1\n  sstore\n  pop\n    /* \"Campaign.sol\":1472:1473  0 */\n  0x00\n    /* \"Campaign.sol\":1443:1451  campaign */\n  dup1\n    /* \"Campaign.sol\":1443:1469  campaign.contributorsCount */\n  0x05\n  add\n    /* \"Campaign.sol\":1443:1473  campaign.contributorsCount = 0 */\n  dup2\n  swap1\n  sstore\n  pop\n    /* \"Campaign.sol\":1504:1509  false */\n  0x00\n    /* \"Campaign.sol\":1484:1492  campaign */\n  dup1\n    /* \"Campaign.sol\":1484:1501  campaign.complete */\n  0x06\n  add\n  0x00\n    /* \"Campaign.sol\":1484:1509  campaign.complete = false */\n  0x0100\n  exp\n  dup2\n  sload\n  dup2\n  0xff\n  mul\n  not\n  and\n  swap1\n  dup4\n  iszero\n  iszero\n  mul\n  or\n  swap1\n  sstore\n  pop\n    /* \"Campaign.sol\":1540:1548  deadline */\n  dup1\n    /* \"Campaign.sol\":1520:1528  campaign */\n  0x00\n    /* \"Campaign.sol\":1520:1537  campaign.deadline */\n  0x07\n  add\n    /* \"Campaign.sol\":1520:1548  campaign.deadline = deadline */\n  dup2\n  swap1\n  sstore\n  pop\n    /* \"Campaign.sol\":1163:1556  constructor(address creator, string memory campaignName, uint balance, uint cost, uint256 deadline) {... */\n  pop\n  pop\n  pop\n  pop\n  pop\n    /* \"Campaign.sol\":772:2790  contract Campaign {... */\n  jump(tag_8)\ntag_7:\n  dup3\n  dup1\n  sload\n  tag_9\n  swap1\n  tag_10\n  jump\t// in\ntag_9:\n  swap1\n  0x00\n  mstore\n  keccak256(0x00, 0x20)\n  swap1\n  0x1f\n  add\n  0x20\n  swap1\n  div\n  dup2\n  add\n  swap3\n  dup3\n  tag_12\n  jumpi\n  0x00\n  dup6\n  sstore\n  jump(tag_11)\ntag_12:\n  dup3\n  0x1f\n  lt\n  tag_13\n  jumpi\n  dup1\n  mload\n  not(0xff)\n  and\n  dup4\n  dup1\n  add\n  or\n  dup6\n  sstore\n  jump(tag_11)\ntag_13:\n  dup3\n  dup1\n  add\n  0x01\n  add\n  dup6\n  sstore\n  dup3\n  iszero\n  tag_11\n  jumpi\n  swap2\n  dup3\n  add\ntag_14:\n  dup3\n  dup2\n  gt\n  iszero\n  tag_15\n  jumpi\n  dup3\n  mload\n  dup3\n  sstore\n  swap2\n  0x20\n  add\n  swap2\n  swap1\n  0x01\n  add\n  swap1\n  jump(tag_14)\ntag_15:\ntag_11:\n  pop\n  swap1\n  pop\n  tag_16\n  swap2\n  swap1\n  tag_17\n  jump\t// in\ntag_16:\n  pop\n  swap1\n  jump\t// out\ntag_17:\ntag_18:\n  dup1\n  dup3\n  gt\n  iszero\n  tag_19\n  jumpi\n  0x00\n  dup2\n  0x00\n  swap1\n  sstore\n  pop\n  0x01\n  add\n  jump(tag_18)\ntag_19:\n  pop\n  swap1\n  jump\t// out\n    /* \"#utility.yul\":7:82   */\ntag_20:\n    /* \"#utility.yul\":40:46   */\n  0x00\n    /* \"#utility.yul\":73:75   */\n  0x40\n    /* \"#utility.yul\":67:76   */\n  mload\n    /* \"#utility.yul\":57:76   */\n  swap1\n  pop\n    /* \"#utility.yul\":7:82   */\n  swap1\n  jump\t// out\n    /* \"#utility.yul\":88:205   */\ntag_21:\n    /* \"#utility.yul\":197:198   */\n  0x00\n    /* \"#utility.yul\":194:195   */\n  dup1\n    /* \"#utility.yul\":187:199   */\n  revert\n    /* \"#utility.yul\":211:328   */\ntag_22:\n    /* \"#utility.yul\":320:321   */\n  0x00\n    /* \"#utility.yul\":317:318   */\n  dup1\n    /* \"#utility.yul\":310:322   */\n  revert\n    /* \"#utility.yul\":334:460   */\ntag_23:\n    /* \"#utility.yul\":371:378   */\n  0x00\n    /* \"#utility.yul\":411:453   */\n  0xffffffffffffffffffffffffffffffffffffffff\n    /* \"#utility.yul\":404:409   */\n  dup3\n    /* \"#utility.yul\":400:454   */\n  and\n    /* \"#utility.yul\":389:454   */\n  swap1\n  pop\n    /* \"#utility.yul\":334:460   */\n  swap2\n  swap1\n  pop\n  jump\t// out\n    /* \"#utility.yul\":466:562   */\ntag_24:\n    /* \"#utility.yul\":503:510   */\n  0x00\n    /* \"#utility.yul\":532:556   */\n  tag_47\n    /* \"#utility.yul\":550:555   */\n  dup3\n    /* \"#utility.yul\":532:556   */\n  tag_23\n  jump\t// in\ntag_47:\n    /* \"#utility.yul\":521:556   */\n  swap1\n  pop\n    /* \"#utility.yul\":466:562   */\n  swap2\n  swap1\n  pop\n  jump\t// out\n    /* \"#utility.yul\":568:690   */\ntag_25:\n    /* \"#utility.yul\":641:665   */\n  tag_49\n    /* \"#utility.yul\":659:664   */\n  dup2\n    /* \"#utility.yul\":641:665   */\n  tag_24\n  jump\t// in\ntag_49:\n    /* \"#utility.yul\":634:639   */\n  dup2\n    /* \"#utility.yul\":631:666   */\n  eq\n    /* \"#utility.yul\":621:684   */\n  tag_50\n  jumpi\n    /* \"#utility.yul\":680:681   */\n  0x00\n    /* \"#utility.yul\":677:678   */\n  dup1\n    /* \"#utility.yul\":670:682   */\n  revert\n    /* \"#utility.yul\":621:684   */\ntag_50:\n    /* \"#utility.yul\":568:690   */\n  pop\n  jump\t// out\n    /* \"#utility.yul\":696:839   */\ntag_26:\n    /* \"#utility.yul\":753:758   */\n  0x00\n    /* \"#utility.yul\":784:790   */\n  dup2\n    /* \"#utility.yul\":778:791   */\n  mload\n    /* \"#utility.yul\":769:791   */\n  swap1\n  pop\n    /* \"#utility.yul\":800:833   */\n  tag_52\n    /* \"#utility.yul\":827:832   */\n  dup2\n    /* \"#utility.yul\":800:833   */\n  tag_25\n  jump\t// in\ntag_52:\n    /* \"#utility.yul\":696:839   */\n  swap3\n  swap2\n  pop\n  pop\n  jump\t// out\n    /* \"#utility.yul\":845:962   */\ntag_27:\n    /* \"#utility.yul\":954:955   */\n  0x00\n    /* \"#utility.yul\":951:952   */\n  dup1\n    /* \"#utility.yul\":944:956   */\n  revert\n    /* \"#utility.yul\":968:1085   */\ntag_28:\n    /* \"#utility.yul\":1077:1078   */\n  0x00\n    /* \"#utility.yul\":1074:1075   */\n  dup1\n    /* \"#utility.yul\":1067:1079   */\n  revert\n    /* \"#utility.yul\":1091:1193   */\ntag_29:\n    /* \"#utility.yul\":1132:1138   */\n  0x00\n    /* \"#utility.yul\":1183:1185   */\n  0x1f\n    /* \"#utility.yul\":1179:1186   */\n  not\n    /* \"#utility.yul\":1174:1176   */\n  0x1f\n    /* \"#utility.yul\":1167:1172   */\n  dup4\n    /* \"#utility.yul\":1163:1177   */\n  add\n    /* \"#utility.yul\":1159:1187   */\n  and\n    /* \"#utility.yul\":1149:1187   */\n  swap1\n  pop\n    /* \"#utility.yul\":1091:1193   */\n  swap2\n  swap1\n  pop\n  jump\t// out\n    /* \"#utility.yul\":1199:1379   */\ntag_30:\n    /* \"#utility.yul\":1247:1324   */\n  0x4e487b7100000000000000000000000000000000000000000000000000000000\n    /* \"#utility.yul\":1244:1245   */\n  0x00\n    /* \"#utility.yul\":1237:1325   */\n  mstore\n    /* \"#utility.yul\":1344:1348   */\n  0x41\n    /* \"#utility.yul\":1341:1342   */\n  0x04\n    /* \"#utility.yul\":1334:1349   */\n  mstore\n    /* \"#utility.yul\":1368:1372   */\n  0x24\n    /* \"#utility.yul\":1365:1366   */\n  0x00\n    /* \"#utility.yul\":1358:1373   */\n  revert\n    /* \"#utility.yul\":1385:1666   */\ntag_31:\n    /* \"#utility.yul\":1468:1495   */\n  tag_58\n    /* \"#utility.yul\":1490:1494   */\n  dup3\n    /* \"#utility.yul\":1468:1495   */\n  tag_29\n  jump\t// in\ntag_58:\n    /* \"#utility.yul\":1460:1466   */\n  dup2\n    /* \"#utility.yul\":1456:1496   */\n  add\n    /* \"#utility.yul\":1598:1604   */\n  dup2\n    /* \"#utility.yul\":1586:1596   */\n  dup2\n    /* \"#utility.yul\":1583:1605   */\n  lt\n    /* \"#utility.yul\":1562:1580   */\n  0xffffffffffffffff\n    /* \"#utility.yul\":1550:1560   */\n  dup3\n    /* \"#utility.yul\":1547:1581   */\n  gt\n    /* \"#utility.yul\":1544:1606   */\n  or\n    /* \"#utility.yul\":1541:1629   */\n  iszero\n  tag_59\n  jumpi\n    /* \"#utility.yul\":1609:1627   */\n  tag_60\n  tag_30\n  jump\t// in\ntag_60:\n    /* \"#utility.yul\":1541:1629   */\ntag_59:\n    /* \"#utility.yul\":1649:1659   */\n  dup1\n    /* \"#utility.yul\":1645:1647   */\n  0x40\n    /* \"#utility.yul\":1638:1660   */\n  mstore\n    /* \"#utility.yul\":1428:1666   */\n  pop\n    /* \"#utility.yul\":1385:1666   */\n  pop\n  pop\n  jump\t// out\n    /* \"#utility.yul\":1672:1801   */\ntag_32:\n    /* \"#utility.yul\":1706:1712   */\n  0x00\n    /* \"#utility.yul\":1733:1753   */\n  tag_62\n  tag_20\n  jump\t// in\ntag_62:\n    /* \"#utility.yul\":1723:1753   */\n  swap1\n  pop\n    /* \"#utility.yul\":1762:1795   */\n  tag_63\n    /* \"#utility.yul\":1790:1794   */\n  dup3\n    /* \"#utility.yul\":1782:1788   */\n  dup3\n    /* \"#utility.yul\":1762:1795   */\n  tag_31\n  jump\t// in\ntag_63:\n    /* \"#utility.yul\":1672:1801   */\n  swap2\n  swap1\n  pop\n  jump\t// out\n    /* \"#utility.yul\":1807:2115   */\ntag_33:\n    /* \"#utility.yul\":1869:1873   */\n  0x00\n    /* \"#utility.yul\":1959:1977   */\n  0xffffffffffffffff\n    /* \"#utility.yul\":1951:1957   */\n  dup3\n    /* \"#utility.yul\":1948:1978   */\n  gt\n    /* \"#utility.yul\":1945:2001   */\n  iszero\n  tag_65\n  jumpi\n    /* \"#utility.yul\":1981:1999   */\n  tag_66\n  tag_30\n  jump\t// in\ntag_66:\n    /* \"#utility.yul\":1945:2001   */\ntag_65:\n    /* \"#utility.yul\":2019:2048   */\n  tag_67\n    /* \"#utility.yul\":2041:2047   */\n  dup3\n    /* \"#utility.yul\":2019:2048   */\n  tag_29\n  jump\t// in\ntag_67:\n    /* \"#utility.yul\":2011:2048   */\n  swap1\n  pop\n    /* \"#utility.yul\":2103:2107   */\n  0x20\n    /* \"#utility.yul\":2097:2101   */\n  dup2\n    /* \"#utility.yul\":2093:2108   */\n  add\n    /* \"#utility.yul\":2085:2108   */\n  swap1\n  pop\n    /* \"#utility.yul\":1807:2115   */\n  swap2\n  swap1\n  pop\n  jump\t// out\n    /* \"#utility.yul\":2121:2428   */\ntag_34:\n    /* \"#utility.yul\":2189:2190   */\n  0x00\n    /* \"#utility.yul\":2199:2312   */\ntag_69:\n    /* \"#utility.yul\":2213:2219   */\n  dup4\n    /* \"#utility.yul\":2210:2211   */\n  dup2\n    /* \"#utility.yul\":2207:2220   */\n  lt\n    /* \"#utility.yul\":2199:2312   */\n  iszero\n  tag_71\n  jumpi\n    /* \"#utility.yul\":2298:2299   */\n  dup1\n    /* \"#utility.yul\":2293:2296   */\n  dup3\n    /* \"#utility.yul\":2289:2300   */\n  add\n    /* \"#utility.yul\":2283:2301   */\n  mload\n    /* \"#utility.yul\":2279:2280   */\n  dup2\n    /* \"#utility.yul\":2274:2277   */\n  dup5\n    /* \"#utility.yul\":2270:2281   */\n  add\n    /* \"#utility.yul\":2263:2302   */\n  mstore\n    /* \"#utility.yul\":2235:2237   */\n  0x20\n    /* \"#utility.yul\":2232:2233   */\n  dup2\n    /* \"#utility.yul\":2228:2238   */\n  add\n    /* \"#utility.yul\":2223:2238   */\n  swap1\n  pop\n    /* \"#utility.yul\":2199:2312   */\n  jump(tag_69)\ntag_71:\n    /* \"#utility.yul\":2330:2336   */\n  dup4\n    /* \"#utility.yul\":2327:2328   */\n  dup2\n    /* \"#utility.yul\":2324:2337   */\n  gt\n    /* \"#utility.yul\":2321:2422   */\n  iszero\n  tag_72\n  jumpi\n    /* \"#utility.yul\":2410:2411   */\n  0x00\n    /* \"#utility.yul\":2401:2407   */\n  dup5\n    /* \"#utility.yul\":2396:2399   */\n  dup5\n    /* \"#utility.yul\":2392:2408   */\n  add\n    /* \"#utility.yul\":2385:2412   */\n  mstore\n    /* \"#utility.yul\":2321:2422   */\ntag_72:\n    /* \"#utility.yul\":2170:2428   */\n  pop\n    /* \"#utility.yul\":2121:2428   */\n  pop\n  pop\n  pop\n  jump\t// out\n    /* \"#utility.yul\":2434:2855   */\ntag_35:\n    /* \"#utility.yul\":2523:2528   */\n  0x00\n    /* \"#utility.yul\":2548:2614   */\n  tag_74\n    /* \"#utility.yul\":2564:2613   */\n  tag_75\n    /* \"#utility.yul\":2606:2612   */\n  dup5\n    /* \"#utility.yul\":2564:2613   */\n  tag_33\n  jump\t// in\ntag_75:\n    /* \"#utility.yul\":2548:2614   */\n  tag_32\n  jump\t// in\ntag_74:\n    /* \"#utility.yul\":2539:2614   */\n  swap1\n  pop\n    /* \"#utility.yul\":2637:2643   */\n  dup3\n    /* \"#utility.yul\":2630:2635   */\n  dup2\n    /* \"#utility.yul\":2623:2644   */\n  mstore\n    /* \"#utility.yul\":2675:2679   */\n  0x20\n    /* \"#utility.yul\":2668:2673   */\n  dup2\n    /* \"#utility.yul\":2664:2680   */\n  add\n    /* \"#utility.yul\":2713:2716   */\n  dup5\n    /* \"#utility.yul\":2704:2710   */\n  dup5\n    /* \"#utility.yul\":2699:2702   */\n  dup5\n    /* \"#utility.yul\":2695:2711   */\n  add\n    /* \"#utility.yul\":2692:2717   */\n  gt\n    /* \"#utility.yul\":2689:2801   */\n  iszero\n  tag_76\n  jumpi\n    /* \"#utility.yul\":2720:2799   */\n  tag_77\n  tag_28\n  jump\t// in\ntag_77:\n    /* \"#utility.yul\":2689:2801   */\ntag_76:\n    /* \"#utility.yul\":2810:2849   */\n  tag_78\n    /* \"#utility.yul\":2842:2848   */\n  dup5\n    /* \"#utility.yul\":2837:2840   */\n  dup3\n    /* \"#utility.yul\":2832:2835   */\n  dup6\n    /* \"#utility.yul\":2810:2849   */\n  tag_34\n  jump\t// in\ntag_78:\n    /* \"#utility.yul\":2529:2855   */\n  pop\n    /* \"#utility.yul\":2434:2855   */\n  swap4\n  swap3\n  pop\n  pop\n  pop\n  jump\t// out\n    /* \"#utility.yul\":2875:3230   */\ntag_36:\n    /* \"#utility.yul\":2942:2947   */\n  0x00\n    /* \"#utility.yul\":2991:2994   */\n  dup3\n    /* \"#utility.yul\":2984:2988   */\n  0x1f\n    /* \"#utility.yul\":2976:2982   */\n  dup4\n    /* \"#utility.yul\":2972:2989   */\n  add\n    /* \"#utility.yul\":2968:2995   */\n  slt\n    /* \"#utility.yul\":2958:3080   */\n  tag_80\n  jumpi\n    /* \"#utility.yul\":2999:3078   */\n  tag_81\n  tag_27\n  jump\t// in\ntag_81:\n    /* \"#utility.yul\":2958:3080   */\ntag_80:\n    /* \"#utility.yul\":3109:3115   */\n  dup2\n    /* \"#utility.yul\":3103:3116   */\n  mload\n    /* \"#utility.yul\":3134:3224   */\n  tag_82\n    /* \"#utility.yul\":3220:3223   */\n  dup5\n    /* \"#utility.yul\":3212:3218   */\n  dup3\n    /* \"#utility.yul\":3205:3209   */\n  0x20\n    /* \"#utility.yul\":3197:3203   */\n  dup7\n    /* \"#utility.yul\":3193:3210   */\n  add\n    /* \"#utility.yul\":3134:3224   */\n  tag_35\n  jump\t// in\ntag_82:\n    /* \"#utility.yul\":3125:3224   */\n  swap2\n  pop\n    /* \"#utility.yul\":2948:3230   */\n  pop\n    /* \"#utility.yul\":2875:3230   */\n  swap3\n  swap2\n  pop\n  pop\n  jump\t// out\n    /* \"#utility.yul\":3236:3313   */\ntag_37:\n    /* \"#utility.yul\":3273:3280   */\n  0x00\n    /* \"#utility.yul\":3302:3307   */\n  dup2\n    /* \"#utility.yul\":3291:3307   */\n  swap1\n  pop\n    /* \"#utility.yul\":3236:3313   */\n  swap2\n  swap1\n  pop\n  jump\t// out\n    /* \"#utility.yul\":3319:3441   */\ntag_38:\n    /* \"#utility.yul\":3392:3416   */\n  tag_85\n    /* \"#utility.yul\":3410:3415   */\n  dup2\n    /* \"#utility.yul\":3392:3416   */\n  tag_37\n  jump\t// in\ntag_85:\n    /* \"#utility.yul\":3385:3390   */\n  dup2\n    /* \"#utility.yul\":3382:3417   */\n  eq\n    /* \"#utility.yul\":3372:3435   */\n  tag_86\n  jumpi\n    /* \"#utility.yul\":3431:3432   */\n  0x00\n    /* \"#utility.yul\":3428:3429   */\n  dup1\n    /* \"#utility.yul\":3421:3433   */\n  revert\n    /* \"#utility.yul\":3372:3435   */\ntag_86:\n    /* \"#utility.yul\":3319:3441   */\n  pop\n  jump\t// out\n    /* \"#utility.yul\":3447:3590   */\ntag_39:\n    /* \"#utility.yul\":3504:3509   */\n  0x00\n    /* \"#utility.yul\":3535:3541   */\n  dup2\n    /* \"#utility.yul\":3529:3542   */\n  mload\n    /* \"#utility.yul\":3520:3542   */\n  swap1\n  pop\n    /* \"#utility.yul\":3551:3584   */\n  tag_88\n    /* \"#utility.yul\":3578:3583   */\n  dup2\n    /* \"#utility.yul\":3551:3584   */\n  tag_38\n  jump\t// in\ntag_88:\n    /* \"#utility.yul\":3447:3590   */\n  swap3\n  swap2\n  pop\n  pop\n  jump\t// out\n    /* \"#utility.yul\":3596:4746   */\ntag_3:\n    /* \"#utility.yul\":3712:3718   */\n  0x00\n    /* \"#utility.yul\":3720:3726   */\n  dup1\n    /* \"#utility.yul\":3728:3734   */\n  0x00\n    /* \"#utility.yul\":3736:3742   */\n  dup1\n    /* \"#utility.yul\":3744:3750   */\n  0x00\n    /* \"#utility.yul\":3793:3796   */\n  0xa0\n    /* \"#utility.yul\":3781:3790   */\n  dup7\n    /* \"#utility.yul\":3772:3779   */\n  dup9\n    /* \"#utility.yul\":3768:3791   */\n  sub\n    /* \"#utility.yul\":3764:3797   */\n  slt\n    /* \"#utility.yul\":3761:3881   */\n  iszero\n  tag_90\n  jumpi\n    /* \"#utility.yul\":3800:3879   */\n  tag_91\n  tag_21\n  jump\t// in\ntag_91:\n    /* \"#utility.yul\":3761:3881   */\ntag_90:\n    /* \"#utility.yul\":3920:3921   */\n  0x00\n    /* \"#utility.yul\":3945:4009   */\n  tag_92\n    /* \"#utility.yul\":4001:4008   */\n  dup9\n    /* \"#utility.yul\":3992:3998   */\n  dup3\n    /* \"#utility.yul\":3981:3990   */\n  dup10\n    /* \"#utility.yul\":3977:3999   */\n  add\n    /* \"#utility.yul\":3945:4009   */\n  tag_26\n  jump\t// in\ntag_92:\n    /* \"#utility.yul\":3935:4009   */\n  swap6\n  pop\n    /* \"#utility.yul\":3891:4019   */\n  pop\n    /* \"#utility.yul\":4079:4081   */\n  0x20\n    /* \"#utility.yul\":4068:4077   */\n  dup7\n    /* \"#utility.yul\":4064:4082   */\n  add\n    /* \"#utility.yul\":4058:4083   */\n  mload\n    /* \"#utility.yul\":4110:4128   */\n  0xffffffffffffffff\n    /* \"#utility.yul\":4102:4108   */\n  dup2\n    /* \"#utility.yul\":4099:4129   */\n  gt\n    /* \"#utility.yul\":4096:4213   */\n  iszero\n  tag_93\n  jumpi\n    /* \"#utility.yul\":4132:4211   */\n  tag_94\n  tag_22\n  jump\t// in\ntag_94:\n    /* \"#utility.yul\":4096:4213   */\ntag_93:\n    /* \"#utility.yul\":4237:4311   */\n  tag_95\n    /* \"#utility.yul\":4303:4310   */\n  dup9\n    /* \"#utility.yul\":4294:4300   */\n  dup3\n    /* \"#utility.yul\":4283:4292   */\n  dup10\n    /* \"#utility.yul\":4279:4301   */\n  add\n    /* \"#utility.yul\":4237:4311   */\n  tag_36\n  jump\t// in\ntag_95:\n    /* \"#utility.yul\":4227:4311   */\n  swap5\n  pop\n    /* \"#utility.yul\":4029:4321   */\n  pop\n    /* \"#utility.yul\":4360:4362   */\n  0x40\n    /* \"#utility.yul\":4386:4450   */\n  tag_96\n    /* \"#utility.yul\":4442:4449   */\n  dup9\n    /* \"#utility.yul\":4433:4439   */\n  dup3\n    /* \"#utility.yul\":4422:4431   */\n  dup10\n    /* \"#utility.yul\":4418:4440   */\n  add\n    /* \"#utility.yul\":4386:4450   */\n  tag_39\n  jump\t// in\ntag_96:\n    /* \"#utility.yul\":4376:4450   */\n  swap4\n  pop\n    /* \"#utility.yul\":4331:4460   */\n  pop\n    /* \"#utility.yul\":4499:4501   */\n  0x60\n    /* \"#utility.yul\":4525:4589   */\n  tag_97\n    /* \"#utility.yul\":4581:4588   */\n  dup9\n    /* \"#utility.yul\":4572:4578   */\n  dup3\n    /* \"#utility.yul\":4561:4570   */\n  dup10\n    /* \"#utility.yul\":4557:4579   */\n  add\n    /* \"#utility.yul\":4525:4589   */\n  tag_39\n  jump\t// in\ntag_97:\n    /* \"#utility.yul\":4515:4589   */\n  swap3\n  pop\n    /* \"#utility.yul\":4470:4599   */\n  pop\n    /* \"#utility.yul\":4638:4641   */\n  0x80\n    /* \"#utility.yul\":4665:4729   */\n  tag_98\n    /* \"#utility.yul\":4721:4728   */\n  dup9\n    /* \"#utility.yul\":4712:4718   */\n  dup3\n    /* \"#utility.yul\":4701:4710   */\n  dup10\n    /* \"#utility.yul\":4697:4719   */\n  add\n    /* \"#utility.yul\":4665:4729   */\n  tag_39\n  jump\t// in\ntag_98:\n    /* \"#utility.yul\":4655:4729   */\n  swap2\n  pop\n    /* \"#utility.yul\":4609:4739   */\n  pop\n    /* \"#utility.yul\":3596:4746   */\n  swap3\n  swap6\n  pop\n  swap3\n  swap6\n  swap1\n  swap4\n  pop\n  jump\t// out\n    /* \"#utility.yul\":4752:4932   */\ntag_40:\n    /* \"#utility.yul\":4800:4877   */\n  0x4e487b7100000000000000000000000000000000000000000000000000000000\n    /* \"#utility.yul\":4797:4798   */\n  0x00\n    /* \"#utility.yul\":4790:4878   */\n  mstore\n    /* \"#utility.yul\":4897:4901   */\n  0x22\n    /* \"#utility.yul\":4894:4895   */\n  0x04\n    /* \"#utility.yul\":4887:4902   */\n  mstore\n    /* \"#utility.yul\":4921:4925   */\n  0x24\n    /* \"#utility.yul\":4918:4919   */\n  0x00\n    /* \"#utility.yul\":4911:4926   */\n  revert\n    /* \"#utility.yul\":4938:5258   */\ntag_10:\n    /* \"#utility.yul\":4982:4988   */\n  0x00\n    /* \"#utility.yul\":5019:5020   */\n  0x02\n    /* \"#utility.yul\":5013:5017   */\n  dup3\n    /* \"#utility.yul\":5009:5021   */\n  div\n    /* \"#utility.yul\":4999:5021   */\n  swap1\n  pop\n    /* \"#utility.yul\":5066:5067   */\n  0x01\n    /* \"#utility.yul\":5060:5064   */\n  dup3\n    /* \"#utility.yul\":5056:5068   */\n  and\n    /* \"#utility.yul\":5087:5105   */\n  dup1\n    /* \"#utility.yul\":5077:5158   */\n  tag_101\n  jumpi\n    /* \"#utility.yul\":5143:5147   */\n  0x7f\n    /* \"#utility.yul\":5135:5141   */\n  dup3\n    /* \"#utility.yul\":5131:5148   */\n  and\n    /* \"#utility.yul\":5121:5148   */\n  swap2\n  pop\n    /* \"#utility.yul\":5077:5158   */\ntag_101:\n    /* \"#utility.yul\":5205:5207   */\n  0x20\n    /* \"#utility.yul\":5197:5203   */\n  dup3\n    /* \"#utility.yul\":5194:5208   */\n  lt\n    /* \"#utility.yul\":5174:5192   */\n  dup2\n    /* \"#utility.yul\":5171:5209   */\n  sub\n    /* \"#utility.yul\":5168:5252   */\n  tag_102\n  jumpi\n    /* \"#utility.yul\":5224:5242   */\n  tag_103\n  tag_40\n  jump\t// in\ntag_103:\n    /* \"#utility.yul\":5168:5252   */\ntag_102:\n    /* \"#utility.yul\":4989:5258   */\n  pop\n    /* \"#utility.yul\":4938:5258   */\n  swap2\n  swap1\n  pop\n  jump\t// out\n    /* \"Campaign.sol\":772:2790  contract Campaign {... */\ntag_8:\n  dataSize(sub_0)\n  dup1\n  dataOffset(sub_0)\n  0x00\n  codecopy\n  0x00\n  return\nstop\n\nsub_0: assembly {\n        /* \"Campaign.sol\":772:2790  contract Campaign {... */\n      mstore(0x40, 0x80)\n      jumpi(tag_1, lt(calldatasize, 0x04))\n      shr(0xe0, calldataload(0x00))\n      dup1\n      0x236b8e3a\n      eq\n      tag_2\n      jumpi\n      dup1\n      0x39cbcc64\n      eq\n      tag_3\n      jumpi\n      dup1\n      0x4e71d92d\n      eq\n      tag_4\n      jumpi\n      dup1\n      0xc1cbbca7\n      eq\n      tag_5\n      jumpi\n    tag_1:\n      0x00\n      dup1\n      revert\n        /* \"Campaign.sol\":1564:1862  function getCampaign() public view returns (address, uint, string memory, uint, uint, uint, bool, uint256) {... */\n    tag_2:\n      callvalue\n      dup1\n      iszero\n      tag_6\n      jumpi\n      0x00\n      dup1\n      revert\n    tag_6:\n      pop\n      tag_7\n      tag_8\n      jump\t// in\n    tag_7:\n      mload(0x40)\n      tag_9\n      swap9\n      swap8\n      swap7\n      swap6\n      swap5\n      swap4\n      swap3\n      swap2\n      swap1\n      tag_10\n      jump\t// in\n    tag_9:\n      mload(0x40)\n      dup1\n      swap2\n      sub\n      swap1\n      return\n        /* \"Campaign.sol\":2491:2609  function getContributorDonate() public view returns (uint) {... */\n    tag_3:\n      callvalue\n      dup1\n      iszero\n      tag_11\n      jumpi\n      0x00\n      dup1\n      revert\n    tag_11:\n      pop\n      tag_12\n      tag_13\n      jump\t// in\n    tag_12:\n      mload(0x40)\n      tag_14\n      swap2\n      swap1\n      tag_15\n      jump\t// in\n    tag_14:\n      mload(0x40)\n      dup1\n      swap2\n      sub\n      swap1\n      return\n        /* \"Campaign.sol\":2617:2787  function claim() public payable {... */\n    tag_4:\n      tag_16\n      tag_17\n      jump\t// in\n    tag_16:\n      stop\n        /* \"Campaign.sol\":1870:2483  function contribute(uint donate) public payable {... */\n    tag_5:\n      tag_18\n      0x04\n      dup1\n      calldatasize\n      sub\n      dup2\n      add\n      swap1\n      tag_19\n      swap2\n      swap1\n      tag_20\n      jump\t// in\n    tag_19:\n      tag_21\n      jump\t// in\n    tag_18:\n      stop\n        /* \"Campaign.sol\":1564:1862  function getCampaign() public view returns (address, uint, string memory, uint, uint, uint, bool, uint256) {... */\n    tag_8:\n        /* \"Campaign.sol\":1608:1615  address */\n      0x00\n        /* \"Campaign.sol\":1617:1621  uint */\n      dup1\n        /* \"Campaign.sol\":1623:1636  string memory */\n      0x60\n        /* \"Campaign.sol\":1638:1642  uint */\n      0x00\n        /* \"Campaign.sol\":1644:1648  uint */\n      dup1\n        /* \"Campaign.sol\":1650:1654  uint */\n      0x00\n        /* \"Campaign.sol\":1656:1660  bool */\n      dup1\n        /* \"Campaign.sol\":1662:1669  uint256 */\n      0x00\n        /* \"Campaign.sol\":1682:1703  Information storage c */\n      dup1\n        /* \"Campaign.sol\":1706:1714  campaign */\n      0x00\n        /* \"Campaign.sol\":1682:1714  Information storage c = campaign */\n      swap1\n      pop\n        /* \"Campaign.sol\":1733:1734  c */\n      dup1\n        /* \"Campaign.sol\":1733:1742  c.manager */\n      0x00\n      add\n      0x00\n      swap1\n      sload\n      swap1\n      0x0100\n      exp\n      swap1\n      div\n      0xffffffffffffffffffffffffffffffffffffffff\n      and\n        /* \"Campaign.sol\":1744:1765  address(this).balance */\n      selfbalance\n        /* \"Campaign.sol\":1767:1768  c */\n      dup3\n        /* \"Campaign.sol\":1767:1773  c.name */\n      0x01\n      add\n        /* \"Campaign.sol\":1775:1776  c */\n      dup4\n        /* \"Campaign.sol\":1775:1792  c.requiredBalance */\n      0x02\n      add\n      sload\n        /* \"Campaign.sol\":1794:1795  c */\n      dup5\n        /* \"Campaign.sol\":1794:1808  c.requiredCost */\n      0x03\n      add\n      sload\n        /* \"Campaign.sol\":1810:1811  c */\n      dup6\n        /* \"Campaign.sol\":1810:1829  c.contributorsCount */\n      0x05\n      add\n      sload\n        /* \"Campaign.sol\":1831:1832  c */\n      dup7\n        /* \"Campaign.sol\":1831:1841  c.complete */\n      0x06\n      add\n      0x00\n      swap1\n      sload\n      swap1\n      0x0100\n      exp\n      swap1\n      div\n      0xff\n      and\n        /* \"Campaign.sol\":1843:1844  c */\n      dup8\n        /* \"Campaign.sol\":1843:1853  c.deadline */\n      0x07\n      add\n      sload\n        /* \"Campaign.sol\":1725:1854  return (c.manager, address(this).balance, c.name, c.requiredBalance, c.requiredCost, c.contributorsCount, c.complete, c.deadline) */\n      dup6\n      dup1\n      sload\n      tag_23\n      swap1\n      tag_24\n      jump\t// in\n    tag_23:\n      dup1\n      0x1f\n      add\n      0x20\n      dup1\n      swap2\n      div\n      mul\n      0x20\n      add\n      mload(0x40)\n      swap1\n      dup2\n      add\n      0x40\n      mstore\n      dup1\n      swap3\n      swap2\n      swap1\n      dup2\n      dup2\n      mstore\n      0x20\n      add\n      dup3\n      dup1\n      sload\n      tag_25\n      swap1\n      tag_24\n      jump\t// in\n    tag_25:\n      dup1\n      iszero\n      tag_26\n      jumpi\n      dup1\n      0x1f\n      lt\n      tag_27\n      jumpi\n      0x0100\n      dup1\n      dup4\n      sload\n      div\n      mul\n      dup4\n      mstore\n      swap2\n      0x20\n      add\n      swap2\n      jump(tag_26)\n    tag_27:\n      dup3\n      add\n      swap2\n      swap1\n      0x00\n      mstore\n      keccak256(0x00, 0x20)\n      swap1\n    tag_28:\n      dup2\n      sload\n      dup2\n      mstore\n      swap1\n      0x01\n      add\n      swap1\n      0x20\n      add\n      dup1\n      dup4\n      gt\n      tag_28\n      jumpi\n      dup3\n      swap1\n      sub\n      0x1f\n      and\n      dup3\n      add\n      swap2\n    tag_26:\n      pop\n      pop\n      pop\n      pop\n      pop\n      swap6\n      pop\n      swap9\n      pop\n      swap9\n      pop\n      swap9\n      pop\n      swap9\n      pop\n      swap9\n      pop\n      swap9\n      pop\n      swap9\n      pop\n      swap9\n      pop\n      pop\n        /* \"Campaign.sol\":1564:1862  function getCampaign() public view returns (address, uint, string memory, uint, uint, uint, bool, uint256) {... */\n      swap1\n      swap2\n      swap3\n      swap4\n      swap5\n      swap6\n      swap7\n      swap8\n      jump\t// out\n        /* \"Campaign.sol\":2491:2609  function getContributorDonate() public view returns (uint) {... */\n    tag_13:\n        /* \"Campaign.sol\":2544:2548  uint */\n      0x00\n        /* \"Campaign.sol\":2568:2576  campaign */\n      dup1\n        /* \"Campaign.sol\":2568:2589  campaign.contributors */\n      0x04\n      add\n        /* \"Campaign.sol\":2568:2601  campaign.contributors[msg.sender] */\n      0x00\n        /* \"Campaign.sol\":2590:2600  msg.sender */\n      caller\n        /* \"Campaign.sol\":2568:2601  campaign.contributors[msg.sender] */\n      0xffffffffffffffffffffffffffffffffffffffff\n      and\n      0xffffffffffffffffffffffffffffffffffffffff\n      and\n      dup2\n      mstore\n      0x20\n      add\n      swap1\n      dup2\n      mstore\n      0x20\n      add\n      0x00\n      keccak256\n      sload\n        /* \"Campaign.sol\":2561:2601  return campaign.contributors[msg.sender] */\n      swap1\n      pop\n        /* \"Campaign.sol\":2491:2609  function getContributorDonate() public view returns (uint) {... */\n      swap1\n      jump\t// out\n        /* \"Campaign.sol\":2617:2787  function claim() public payable {... */\n    tag_17:\n        /* \"Campaign.sol\":2687:2695  campaign */\n      0x00\n        /* \"Campaign.sol\":2687:2704  campaign.deadline */\n      0x07\n      add\n      sload\n        /* \"Campaign.sol\":2668:2683  block.timestamp */\n      timestamp\n        /* \"Campaign.sol\":2668:2704  block.timestamp >= campaign.deadline */\n      lt\n      iszero\n        /* \"Campaign.sol\":2660:2705  require(block.timestamp >= campaign.deadline) */\n      tag_31\n      jumpi\n      0x00\n      dup1\n      revert\n    tag_31:\n        /* \"Campaign.sol\":2724:2734  msg.sender */\n      caller\n        /* \"Campaign.sol\":2716:2744  payable(msg.sender).transfer */\n      0xffffffffffffffffffffffffffffffffffffffff\n      and\n        /* \"Campaign.sol\":2716:2779  payable(msg.sender).transfer(campaign.contributors[msg.sender]) */\n      0x08fc\n        /* \"Campaign.sol\":2745:2753  campaign */\n      0x00\n        /* \"Campaign.sol\":2745:2766  campaign.contributors */\n      0x04\n      add\n        /* \"Campaign.sol\":2745:2778  campaign.contributors[msg.sender] */\n      0x00\n        /* \"Campaign.sol\":2767:2777  msg.sender */\n      caller\n        /* \"Campaign.sol\":2745:2778  campaign.contributors[msg.sender] */\n      0xffffffffffffffffffffffffffffffffffffffff\n      and\n      0xffffffffffffffffffffffffffffffffffffffff\n      and\n      dup2\n      mstore\n      0x20\n      add\n      swap1\n      dup2\n      mstore\n      0x20\n      add\n      0x00\n      keccak256\n      sload\n        /* \"Campaign.sol\":2716:2779  payable(msg.sender).transfer(campaign.contributors[msg.sender]) */\n      swap1\n      dup2\n      iszero\n      mul\n      swap1\n      mload(0x40)\n      0x00\n      mload(0x40)\n      dup1\n      dup4\n      sub\n      dup2\n      dup6\n      dup9\n      dup9\n      call\n      swap4\n      pop\n      pop\n      pop\n      pop\n      iszero\n      dup1\n      iszero\n      tag_33\n      jumpi\n      returndatasize\n      0x00\n      dup1\n      returndatacopy\n      revert(0x00, returndatasize)\n    tag_33:\n      pop\n        /* \"Campaign.sol\":2617:2787  function claim() public payable {... */\n      jump\t// out\n        /* \"Campaign.sol\":1870:2483  function contribute(uint donate) public payable {... */\n    tag_21:\n        /* \"Campaign.sol\":1938:1946  campaign */\n      0x00\n        /* \"Campaign.sol\":1938:1955  campaign.complete */\n      0x06\n      add\n      0x00\n      swap1\n      sload\n      swap1\n      0x0100\n      exp\n      swap1\n      div\n      0xff\n      and\n        /* \"Campaign.sol\":1937:1955  !campaign.complete */\n      iszero\n        /* \"Campaign.sol\":1929:1956  require(!campaign.complete) */\n      tag_35\n      jumpi\n      0x00\n      dup1\n      revert\n    tag_35:\n        /* \"Campaign.sol\":2005:2006  0 */\n      0x00\n        /* \"Campaign.sol\":1980:1988  campaign */\n      dup1\n        /* \"Campaign.sol\":1980:2001  campaign.requiredCost */\n      0x03\n      add\n      sload\n        /* \"Campaign.sol\":1980:2006  campaign.requiredCost == 0 */\n      sub\n        /* \"Campaign.sol\":1977:2296  if(campaign.requiredCost == 0) {... */\n      tag_36\n      jumpi\n        /* \"Campaign.sol\":2059:2065  donate */\n      dup1\n        /* \"Campaign.sol\":2023:2031  campaign */\n      0x00\n        /* \"Campaign.sol\":2023:2044  campaign.contributors */\n      0x04\n      add\n        /* \"Campaign.sol\":2023:2056  campaign.contributors[msg.sender] */\n      0x00\n        /* \"Campaign.sol\":2045:2055  msg.sender */\n      caller\n        /* \"Campaign.sol\":2023:2056  campaign.contributors[msg.sender] */\n      0xffffffffffffffffffffffffffffffffffffffff\n      and\n      0xffffffffffffffffffffffffffffffffffffffff\n      and\n      dup2\n      mstore\n      0x20\n      add\n      swap1\n      dup2\n      mstore\n      0x20\n      add\n      0x00\n      keccak256\n        /* \"Campaign.sol\":2023:2065  campaign.contributors[msg.sender] = donate */\n      dup2\n      swap1\n      sstore\n      pop\n        /* \"Campaign.sol\":2080:2088  campaign */\n      0x00\n        /* \"Campaign.sol\":2080:2106  campaign.contributorsCount */\n      0x05\n      add\n      0x00\n        /* \"Campaign.sol\":2080:2108  campaign.contributorsCount++ */\n      dup2\n      sload\n      dup1\n      swap3\n      swap2\n      swap1\n      tag_37\n      swap1\n      tag_38\n      jump\t// in\n    tag_37:\n      swap2\n      swap1\n      pop\n      sstore\n      pop\n        /* \"Campaign.sol\":1977:2296  if(campaign.requiredCost == 0) {... */\n      jump(tag_39)\n    tag_36:\n        /* \"Campaign.sol\":2162:2170  campaign */\n      0x00\n        /* \"Campaign.sol\":2162:2183  campaign.requiredCost */\n      0x03\n      add\n      sload\n        /* \"Campaign.sol\":2149:2158  msg.value */\n      callvalue\n        /* \"Campaign.sol\":2149:2183  msg.value >= campaign.requiredCost */\n      lt\n      iszero\n        /* \"Campaign.sol\":2141:2184  require(msg.value >= campaign.requiredCost) */\n      tag_40\n      jumpi\n      0x00\n      dup1\n      revert\n    tag_40:\n        /* \"Campaign.sol\":2235:2241  donate */\n      dup1\n        /* \"Campaign.sol\":2199:2207  campaign */\n      0x00\n        /* \"Campaign.sol\":2199:2220  campaign.contributors */\n      0x04\n      add\n        /* \"Campaign.sol\":2199:2232  campaign.contributors[msg.sender] */\n      0x00\n        /* \"Campaign.sol\":2221:2231  msg.sender */\n      caller\n        /* \"Campaign.sol\":2199:2232  campaign.contributors[msg.sender] */\n      0xffffffffffffffffffffffffffffffffffffffff\n      and\n      0xffffffffffffffffffffffffffffffffffffffff\n      and\n      dup2\n      mstore\n      0x20\n      add\n      swap1\n      dup2\n      mstore\n      0x20\n      add\n      0x00\n      keccak256\n        /* \"Campaign.sol\":2199:2241  campaign.contributors[msg.sender] = donate */\n      dup2\n      swap1\n      sstore\n      pop\n        /* \"Campaign.sol\":2256:2264  campaign */\n      0x00\n        /* \"Campaign.sol\":2256:2282  campaign.contributorsCount */\n      0x05\n      add\n      0x00\n        /* \"Campaign.sol\":2256:2284  campaign.contributorsCount++ */\n      dup2\n      sload\n      dup1\n      swap3\n      swap2\n      swap1\n      tag_41\n      swap1\n      tag_38\n      jump\t// in\n    tag_41:\n      swap2\n      swap1\n      pop\n      sstore\n      pop\n        /* \"Campaign.sol\":1977:2296  if(campaign.requiredCost == 0) {... */\n    tag_39:\n        /* \"Campaign.sol\":2336:2344  campaign */\n      0x00\n        /* \"Campaign.sol\":2336:2360  campaign.requiredBalance */\n      0x02\n      add\n      sload\n        /* \"Campaign.sol\":2311:2332  address(this).balance */\n      selfbalance\n        /* \"Campaign.sol\":2311:2360  address(this).balance >= campaign.requiredBalance */\n      lt\n        /* \"Campaign.sol\":2308:2476  if(address(this).balance >= campaign.requiredBalance) {... */\n      tag_42\n      jumpi\n        /* \"Campaign.sol\":2377:2385  campaign */\n      0x00\n        /* \"Campaign.sol\":2377:2393  campaign.manager */\n      dup1\n      add\n      0x00\n      swap1\n      sload\n      swap1\n      0x0100\n      exp\n      swap1\n      div\n      0xffffffffffffffffffffffffffffffffffffffff\n      and\n        /* \"Campaign.sol\":2377:2402  campaign.manager.transfer */\n      0xffffffffffffffffffffffffffffffffffffffff\n      and\n        /* \"Campaign.sol\":2377:2425  campaign.manager.transfer(address(this).balance) */\n      0x08fc\n        /* \"Campaign.sol\":2403:2424  address(this).balance */\n      selfbalance\n        /* \"Campaign.sol\":2377:2425  campaign.manager.transfer(address(this).balance) */\n      swap1\n      dup2\n      iszero\n      mul\n      swap1\n      mload(0x40)\n      0x00\n      mload(0x40)\n      dup1\n      dup4\n      sub\n      dup2\n      dup6\n      dup9\n      dup9\n      call\n      swap4\n      pop\n      pop\n      pop\n      pop\n      iszero\n      dup1\n      iszero\n      tag_44\n      jumpi\n      returndatasize\n      0x00\n      dup1\n      returndatacopy\n      revert(0x00, returndatasize)\n    tag_44:\n      pop\n        /* \"Campaign.sol\":2460:2464  true */\n      0x01\n        /* \"Campaign.sol\":2440:2448  campaign */\n      0x00\n        /* \"Campaign.sol\":2440:2457  campaign.complete */\n      0x06\n      add\n      0x00\n        /* \"Campaign.sol\":2440:2464  campaign.complete = true */\n      0x0100\n      exp\n      dup2\n      sload\n      dup2\n      0xff\n      mul\n      not\n      and\n      swap1\n      dup4\n      iszero\n      iszero\n      mul\n      or\n      swap1\n      sstore\n      pop\n        /* \"Campaign.sol\":2308:2476  if(address(this).balance >= campaign.requiredBalance) {... */\n    tag_42:\n        /* \"Campaign.sol\":1870:2483  function contribute(uint donate) public payable {... */\n      pop\n      jump\t// out\n        /* \"#utility.yul\":7:133   */\n    tag_45:\n        /* \"#utility.yul\":44:51   */\n      0x00\n        /* \"#utility.yul\":84:126   */\n      0xffffffffffffffffffffffffffffffffffffffff\n        /* \"#utility.yul\":77:82   */\n      dup3\n        /* \"#utility.yul\":73:127   */\n      and\n        /* \"#utility.yul\":62:127   */\n      swap1\n      pop\n        /* \"#utility.yul\":7:133   */\n      swap2\n      swap1\n      pop\n      jump\t// out\n        /* \"#utility.yul\":139:235   */\n    tag_46:\n        /* \"#utility.yul\":176:183   */\n      0x00\n        /* \"#utility.yul\":205:229   */\n      tag_67\n        /* \"#utility.yul\":223:228   */\n      dup3\n        /* \"#utility.yul\":205:229   */\n      tag_45\n      jump\t// in\n    tag_67:\n        /* \"#utility.yul\":194:229   */\n      swap1\n      pop\n        /* \"#utility.yul\":139:235   */\n      swap2\n      swap1\n      pop\n      jump\t// out\n        /* \"#utility.yul\":241:359   */\n    tag_47:\n        /* \"#utility.yul\":328:352   */\n      tag_69\n        /* \"#utility.yul\":346:351   */\n      dup2\n        /* \"#utility.yul\":328:352   */\n      tag_46\n      jump\t// in\n    tag_69:\n        /* \"#utility.yul\":323:326   */\n      dup3\n        /* \"#utility.yul\":316:353   */\n      mstore\n        /* \"#utility.yul\":241:359   */\n      pop\n      pop\n      jump\t// out\n        /* \"#utility.yul\":365:442   */\n    tag_48:\n        /* \"#utility.yul\":402:409   */\n      0x00\n        /* \"#utility.yul\":431:436   */\n      dup2\n        /* \"#utility.yul\":420:436   */\n      swap1\n      pop\n        /* \"#utility.yul\":365:442   */\n      swap2\n      swap1\n      pop\n      jump\t// out\n        /* \"#utility.yul\":448:566   */\n    tag_49:\n        /* \"#utility.yul\":535:559   */\n      tag_72\n        /* \"#utility.yul\":553:558   */\n      dup2\n        /* \"#utility.yul\":535:559   */\n      tag_48\n      jump\t// in\n    tag_72:\n        /* \"#utility.yul\":530:533   */\n      dup3\n        /* \"#utility.yul\":523:560   */\n      mstore\n        /* \"#utility.yul\":448:566   */\n      pop\n      pop\n      jump\t// out\n        /* \"#utility.yul\":572:671   */\n    tag_50:\n        /* \"#utility.yul\":624:630   */\n      0x00\n        /* \"#utility.yul\":658:663   */\n      dup2\n        /* \"#utility.yul\":652:664   */\n      mload\n        /* \"#utility.yul\":642:664   */\n      swap1\n      pop\n        /* \"#utility.yul\":572:671   */\n      swap2\n      swap1\n      pop\n      jump\t// out\n        /* \"#utility.yul\":677:846   */\n    tag_51:\n        /* \"#utility.yul\":761:772   */\n      0x00\n        /* \"#utility.yul\":795:801   */\n      dup3\n        /* \"#utility.yul\":790:793   */\n      dup3\n        /* \"#utility.yul\":783:802   */\n      mstore\n        /* \"#utility.yul\":835:839   */\n      0x20\n        /* \"#utility.yul\":830:833   */\n      dup3\n        /* \"#utility.yul\":826:840   */\n      add\n        /* \"#utility.yul\":811:840   */\n      swap1\n      pop\n        /* \"#utility.yul\":677:846   */\n      swap3\n      swap2\n      pop\n      pop\n      jump\t// out\n        /* \"#utility.yul\":852:1159   */\n    tag_52:\n        /* \"#utility.yul\":920:921   */\n      0x00\n        /* \"#utility.yul\":930:1043   */\n    tag_76:\n        /* \"#utility.yul\":944:950   */\n      dup4\n        /* \"#utility.yul\":941:942   */\n      dup2\n        /* \"#utility.yul\":938:951   */\n      lt\n        /* \"#utility.yul\":930:1043   */\n      iszero\n      tag_78\n      jumpi\n        /* \"#utility.yul\":1029:1030   */\n      dup1\n        /* \"#utility.yul\":1024:1027   */\n      dup3\n        /* \"#utility.yul\":1020:1031   */\n      add\n        /* \"#utility.yul\":1014:1032   */\n      mload\n        /* \"#utility.yul\":1010:1011   */\n      dup2\n        /* \"#utility.yul\":1005:1008   */\n      dup5\n        /* \"#utility.yul\":1001:1012   */\n      add\n        /* \"#utility.yul\":994:1033   */\n      mstore\n        /* \"#utility.yul\":966:968   */\n      0x20\n        /* \"#utility.yul\":963:964   */\n      dup2\n        /* \"#utility.yul\":959:969   */\n      add\n        /* \"#utility.yul\":954:969   */\n      swap1\n      pop\n        /* \"#utility.yul\":930:1043   */\n      jump(tag_76)\n    tag_78:\n        /* \"#utility.yul\":1061:1067   */\n      dup4\n        /* \"#utility.yul\":1058:1059   */\n      dup2\n        /* \"#utility.yul\":1055:1068   */\n      gt\n        /* \"#utility.yul\":1052:1153   */\n      iszero\n      tag_79\n      jumpi\n        /* \"#utility.yul\":1141:1142   */\n      0x00\n        /* \"#utility.yul\":1132:1138   */\n      dup5\n        /* \"#utility.yul\":1127:1130   */\n      dup5\n        /* \"#utility.yul\":1123:1139   */\n      add\n        /* \"#utility.yul\":1116:1143   */\n      mstore\n        /* \"#utility.yul\":1052:1153   */\n    tag_79:\n        /* \"#utility.yul\":901:1159   */\n      pop\n        /* \"#utility.yul\":852:1159   */\n      pop\n      pop\n      pop\n      jump\t// out\n        /* \"#utility.yul\":1165:1267   */\n    tag_53:\n        /* \"#utility.yul\":1206:1212   */\n      0x00\n        /* \"#utility.yul\":1257:1259   */\n      0x1f\n        /* \"#utility.yul\":1253:1260   */\n      not\n        /* \"#utility.yul\":1248:1250   */\n      0x1f\n        /* \"#utility.yul\":1241:1246   */\n      dup4\n        /* \"#utility.yul\":1237:1251   */\n      add\n        /* \"#utility.yul\":1233:1261   */\n      and\n        /* \"#utility.yul\":1223:1261   */\n      swap1\n      pop\n        /* \"#utility.yul\":1165:1267   */\n      swap2\n      swap1\n      pop\n      jump\t// out\n        /* \"#utility.yul\":1273:1637   */\n    tag_54:\n        /* \"#utility.yul\":1361:1364   */\n      0x00\n        /* \"#utility.yul\":1389:1428   */\n      tag_82\n        /* \"#utility.yul\":1422:1427   */\n      dup3\n        /* \"#utility.yul\":1389:1428   */\n      tag_50\n      jump\t// in\n    tag_82:\n        /* \"#utility.yul\":1444:1515   */\n      tag_83\n        /* \"#utility.yul\":1508:1514   */\n      dup2\n        /* \"#utility.yul\":1503:1506   */\n      dup6\n        /* \"#utility.yul\":1444:1515   */\n      tag_51\n      jump\t// in\n    tag_83:\n        /* \"#utility.yul\":1437:1515   */\n      swap4\n      pop\n        /* \"#utility.yul\":1524:1576   */\n      tag_84\n        /* \"#utility.yul\":1569:1575   */\n      dup2\n        /* \"#utility.yul\":1564:1567   */\n      dup6\n        /* \"#utility.yul\":1557:1561   */\n      0x20\n        /* \"#utility.yul\":1550:1555   */\n      dup7\n        /* \"#utility.yul\":1546:1562   */\n      add\n        /* \"#utility.yul\":1524:1576   */\n      tag_52\n      jump\t// in\n    tag_84:\n        /* \"#utility.yul\":1601:1630   */\n      tag_85\n        /* \"#utility.yul\":1623:1629   */\n      dup2\n        /* \"#utility.yul\":1601:1630   */\n      tag_53\n      jump\t// in\n    tag_85:\n        /* \"#utility.yul\":1596:1599   */\n      dup5\n        /* \"#utility.yul\":1592:1631   */\n      add\n        /* \"#utility.yul\":1585:1631   */\n      swap2\n      pop\n        /* \"#utility.yul\":1365:1637   */\n      pop\n        /* \"#utility.yul\":1273:1637   */\n      swap3\n      swap2\n      pop\n      pop\n      jump\t// out\n        /* \"#utility.yul\":1643:1733   */\n    tag_55:\n        /* \"#utility.yul\":1677:1684   */\n      0x00\n        /* \"#utility.yul\":1720:1725   */\n      dup2\n        /* \"#utility.yul\":1713:1726   */\n      iszero\n        /* \"#utility.yul\":1706:1727   */\n      iszero\n        /* \"#utility.yul\":1695:1727   */\n      swap1\n      pop\n        /* \"#utility.yul\":1643:1733   */\n      swap2\n      swap1\n      pop\n      jump\t// out\n        /* \"#utility.yul\":1739:1848   */\n    tag_56:\n        /* \"#utility.yul\":1820:1841   */\n      tag_88\n        /* \"#utility.yul\":1835:1840   */\n      dup2\n        /* \"#utility.yul\":1820:1841   */\n      tag_55\n      jump\t// in\n    tag_88:\n        /* \"#utility.yul\":1815:1818   */\n      dup3\n        /* \"#utility.yul\":1808:1842   */\n      mstore\n        /* \"#utility.yul\":1739:1848   */\n      pop\n      pop\n      jump\t// out\n        /* \"#utility.yul\":1854:2930   */\n    tag_10:\n        /* \"#utility.yul\":2157:2161   */\n      0x00\n        /* \"#utility.yul\":2195:2198   */\n      0x0100\n        /* \"#utility.yul\":2184:2193   */\n      dup3\n        /* \"#utility.yul\":2180:2199   */\n      add\n        /* \"#utility.yul\":2172:2199   */\n      swap1\n      pop\n        /* \"#utility.yul\":2209:2280   */\n      tag_90\n        /* \"#utility.yul\":2277:2278   */\n      0x00\n        /* \"#utility.yul\":2266:2275   */\n      dup4\n        /* \"#utility.yul\":2262:2279   */\n      add\n        /* \"#utility.yul\":2253:2259   */\n      dup12\n        /* \"#utility.yul\":2209:2280   */\n      tag_47\n      jump\t// in\n    tag_90:\n        /* \"#utility.yul\":2290:2362   */\n      tag_91\n        /* \"#utility.yul\":2358:2360   */\n      0x20\n        /* \"#utility.yul\":2347:2356   */\n      dup4\n        /* \"#utility.yul\":2343:2361   */\n      add\n        /* \"#utility.yul\":2334:2340   */\n      dup11\n        /* \"#utility.yul\":2290:2362   */\n      tag_49\n      jump\t// in\n    tag_91:\n        /* \"#utility.yul\":2409:2418   */\n      dup2\n        /* \"#utility.yul\":2403:2407   */\n      dup2\n        /* \"#utility.yul\":2399:2419   */\n      sub\n        /* \"#utility.yul\":2394:2396   */\n      0x40\n        /* \"#utility.yul\":2383:2392   */\n      dup4\n        /* \"#utility.yul\":2379:2397   */\n      add\n        /* \"#utility.yul\":2372:2420   */\n      mstore\n        /* \"#utility.yul\":2437:2515   */\n      tag_92\n        /* \"#utility.yul\":2510:2514   */\n      dup2\n        /* \"#utility.yul\":2501:2507   */\n      dup10\n        /* \"#utility.yul\":2437:2515   */\n      tag_54\n      jump\t// in\n    tag_92:\n        /* \"#utility.yul\":2429:2515   */\n      swap1\n      pop\n        /* \"#utility.yul\":2525:2597   */\n      tag_93\n        /* \"#utility.yul\":2593:2595   */\n      0x60\n        /* \"#utility.yul\":2582:2591   */\n      dup4\n        /* \"#utility.yul\":2578:2596   */\n      add\n        /* \"#utility.yul\":2569:2575   */\n      dup9\n        /* \"#utility.yul\":2525:2597   */\n      tag_49\n      jump\t// in\n    tag_93:\n        /* \"#utility.yul\":2607:2680   */\n      tag_94\n        /* \"#utility.yul\":2675:2678   */\n      0x80\n        /* \"#utility.yul\":2664:2673   */\n      dup4\n        /* \"#utility.yul\":2660:2679   */\n      add\n        /* \"#utility.yul\":2651:2657   */\n      dup8\n        /* \"#utility.yul\":2607:2680   */\n      tag_49\n      jump\t// in\n    tag_94:\n        /* \"#utility.yul\":2690:2763   */\n      tag_95\n        /* \"#utility.yul\":2758:2761   */\n      0xa0\n        /* \"#utility.yul\":2747:2756   */\n      dup4\n        /* \"#utility.yul\":2743:2762   */\n      add\n        /* \"#utility.yul\":2734:2740   */\n      dup7\n        /* \"#utility.yul\":2690:2763   */\n      tag_49\n      jump\t// in\n    tag_95:\n        /* \"#utility.yul\":2773:2840   */\n      tag_96\n        /* \"#utility.yul\":2835:2838   */\n      0xc0\n        /* \"#utility.yul\":2824:2833   */\n      dup4\n        /* \"#utility.yul\":2820:2839   */\n      add\n        /* \"#utility.yul\":2811:2817   */\n      dup6\n        /* \"#utility.yul\":2773:2840   */\n      tag_56\n      jump\t// in\n    tag_96:\n        /* \"#utility.yul\":2850:2923   */\n      tag_97\n        /* \"#utility.yul\":2918:2921   */\n      0xe0\n        /* \"#utility.yul\":2907:2916   */\n      dup4\n        /* \"#utility.yul\":2903:2922   */\n      add\n        /* \"#utility.yul\":2894:2900   */\n      dup5\n        /* \"#utility.yul\":2850:2923   */\n      tag_49\n      jump\t// in\n    tag_97:\n        /* \"#utility.yul\":1854:2930   */\n      swap10\n      swap9\n      pop\n      pop\n      pop\n      pop\n      pop\n      pop\n      pop\n      pop\n      pop\n      jump\t// out\n        /* \"#utility.yul\":2936:3158   */\n    tag_15:\n        /* \"#utility.yul\":3029:3033   */\n      0x00\n        /* \"#utility.yul\":3067:3069   */\n      0x20\n        /* \"#utility.yul\":3056:3065   */\n      dup3\n        /* \"#utility.yul\":3052:3070   */\n      add\n        /* \"#utility.yul\":3044:3070   */\n      swap1\n      pop\n        /* \"#utility.yul\":3080:3151   */\n      tag_99\n        /* \"#utility.yul\":3148:3149   */\n      0x00\n        /* \"#utility.yul\":3137:3146   */\n      dup4\n        /* \"#utility.yul\":3133:3150   */\n      add\n        /* \"#utility.yul\":3124:3130   */\n      dup5\n        /* \"#utility.yul\":3080:3151   */\n      tag_49\n      jump\t// in\n    tag_99:\n        /* \"#utility.yul\":2936:3158   */\n      swap3\n      swap2\n      pop\n      pop\n      jump\t// out\n        /* \"#utility.yul\":3245:3362   */\n    tag_58:\n        /* \"#utility.yul\":3354:3355   */\n      0x00\n        /* \"#utility.yul\":3351:3352   */\n      dup1\n        /* \"#utility.yul\":3344:3356   */\n      revert\n        /* \"#utility.yul\":3491:3613   */\n    tag_60:\n        /* \"#utility.yul\":3564:3588   */\n      tag_104\n        /* \"#utility.yul\":3582:3587   */\n      dup2\n        /* \"#utility.yul\":3564:3588   */\n      tag_48\n      jump\t// in\n    tag_104:\n        /* \"#utility.yul\":3557:3562   */\n      dup2\n        /* \"#utility.yul\":3554:3589   */\n      eq\n        /* \"#utility.yul\":3544:3607   */\n      tag_105\n      jumpi\n        /* \"#utility.yul\":3603:3604   */\n      0x00\n        /* \"#utility.yul\":3600:3601   */\n      dup1\n        /* \"#utility.yul\":3593:3605   */\n      revert\n        /* \"#utility.yul\":3544:3607   */\n    tag_105:\n        /* \"#utility.yul\":3491:3613   */\n      pop\n      jump\t// out\n        /* \"#utility.yul\":3619:3758   */\n    tag_61:\n        /* \"#utility.yul\":3665:3670   */\n      0x00\n        /* \"#utility.yul\":3703:3709   */\n      dup2\n        /* \"#utility.yul\":3690:3710   */\n      calldataload\n        /* \"#utility.yul\":3681:3710   */\n      swap1\n      pop\n        /* \"#utility.yul\":3719:3752   */\n      tag_107\n        /* \"#utility.yul\":3746:3751   */\n      dup2\n        /* \"#utility.yul\":3719:3752   */\n      tag_60\n      jump\t// in\n    tag_107:\n        /* \"#utility.yul\":3619:3758   */\n      swap3\n      swap2\n      pop\n      pop\n      jump\t// out\n        /* \"#utility.yul\":3764:4093   */\n    tag_20:\n        /* \"#utility.yul\":3823:3829   */\n      0x00\n        /* \"#utility.yul\":3872:3874   */\n      0x20\n        /* \"#utility.yul\":3860:3869   */\n      dup3\n        /* \"#utility.yul\":3851:3858   */\n      dup5\n        /* \"#utility.yul\":3847:3870   */\n      sub\n        /* \"#utility.yul\":3843:3875   */\n      slt\n        /* \"#utility.yul\":3840:3959   */\n      iszero\n      tag_109\n      jumpi\n        /* \"#utility.yul\":3878:3957   */\n      tag_110\n      tag_58\n      jump\t// in\n    tag_110:\n        /* \"#utility.yul\":3840:3959   */\n    tag_109:\n        /* \"#utility.yul\":3998:3999   */\n      0x00\n        /* \"#utility.yul\":4023:4076   */\n      tag_111\n        /* \"#utility.yul\":4068:4075   */\n      dup5\n        /* \"#utility.yul\":4059:4065   */\n      dup3\n        /* \"#utility.yul\":4048:4057   */\n      dup6\n        /* \"#utility.yul\":4044:4066   */\n      add\n        /* \"#utility.yul\":4023:4076   */\n      tag_61\n      jump\t// in\n    tag_111:\n        /* \"#utility.yul\":4013:4076   */\n      swap2\n      pop\n        /* \"#utility.yul\":3969:4086   */\n      pop\n        /* \"#utility.yul\":3764:4093   */\n      swap3\n      swap2\n      pop\n      pop\n      jump\t// out\n        /* \"#utility.yul\":4099:4279   */\n    tag_62:\n        /* \"#utility.yul\":4147:4224   */\n      0x4e487b7100000000000000000000000000000000000000000000000000000000\n        /* \"#utility.yul\":4144:4145   */\n      0x00\n        /* \"#utility.yul\":4137:4225   */\n      mstore\n        /* \"#utility.yul\":4244:4248   */\n      0x22\n        /* \"#utility.yul\":4241:4242   */\n      0x04\n        /* \"#utility.yul\":4234:4249   */\n      mstore\n        /* \"#utility.yul\":4268:4272   */\n      0x24\n        /* \"#utility.yul\":4265:4266   */\n      0x00\n        /* \"#utility.yul\":4258:4273   */\n      revert\n        /* \"#utility.yul\":4285:4605   */\n    tag_24:\n        /* \"#utility.yul\":4329:4335   */\n      0x00\n        /* \"#utility.yul\":4366:4367   */\n      0x02\n        /* \"#utility.yul\":4360:4364   */\n      dup3\n        /* \"#utility.yul\":4356:4368   */\n      div\n        /* \"#utility.yul\":4346:4368   */\n      swap1\n      pop\n        /* \"#utility.yul\":4413:4414   */\n      0x01\n        /* \"#utility.yul\":4407:4411   */\n      dup3\n        /* \"#utility.yul\":4403:4415   */\n      and\n        /* \"#utility.yul\":4434:4452   */\n      dup1\n        /* \"#utility.yul\":4424:4505   */\n      tag_114\n      jumpi\n        /* \"#utility.yul\":4490:4494   */\n      0x7f\n        /* \"#utility.yul\":4482:4488   */\n      dup3\n        /* \"#utility.yul\":4478:4495   */\n      and\n        /* \"#utility.yul\":4468:4495   */\n      swap2\n      pop\n        /* \"#utility.yul\":4424:4505   */\n    tag_114:\n        /* \"#utility.yul\":4552:4554   */\n      0x20\n        /* \"#utility.yul\":4544:4550   */\n      dup3\n        /* \"#utility.yul\":4541:4555   */\n      lt\n        /* \"#utility.yul\":4521:4539   */\n      dup2\n        /* \"#utility.yul\":4518:4556   */\n      sub\n        /* \"#utility.yul\":4515:4599   */\n      tag_115\n      jumpi\n        /* \"#utility.yul\":4571:4589   */\n      tag_116\n      tag_62\n      jump\t// in\n    tag_116:\n        /* \"#utility.yul\":4515:4599   */\n    tag_115:\n        /* \"#utility.yul\":4336:4605   */\n      pop\n        /* \"#utility.yul\":4285:4605   */\n      swap2\n      swap1\n      pop\n      jump\t// out\n        /* \"#utility.yul\":4611:4791   */\n    tag_63:\n        /* \"#utility.yul\":4659:4736   */\n      0x4e487b7100000000000000000000000000000000000000000000000000000000\n        /* \"#utility.yul\":4656:4657   */\n      0x00\n        /* \"#utility.yul\":4649:4737   */\n      mstore\n        /* \"#utility.yul\":4756:4760   */\n      0x11\n        /* \"#utility.yul\":4753:4754   */\n      0x04\n        /* \"#utility.yul\":4746:4761   */\n      mstore\n        /* \"#utility.yul\":4780:4784   */\n      0x24\n        /* \"#utility.yul\":4777:4778   */\n      0x00\n        /* \"#utility.yul\":4770:4785   */\n      revert\n        /* \"#utility.yul\":4797:5030   */\n    tag_38:\n        /* \"#utility.yul\":4836:4839   */\n      0x00\n        /* \"#utility.yul\":4859:4883   */\n      tag_119\n        /* \"#utility.yul\":4877:4882   */\n      dup3\n        /* \"#utility.yul\":4859:4883   */\n      tag_48\n      jump\t// in\n    tag_119:\n        /* \"#utility.yul\":4850:4883   */\n      swap2\n      pop\n        /* \"#utility.yul\":4905:4971   */\n      0xffffffffffffffffffffffffffffffffffffffffffffffffffffffffffffffff\n        /* \"#utility.yul\":4898:4903   */\n      dup3\n        /* \"#utility.yul\":4895:4972   */\n      sub\n        /* \"#utility.yul\":4892:4995   */\n      tag_120\n      jumpi\n        /* \"#utility.yul\":4975:4993   */\n      tag_121\n      tag_63\n      jump\t// in\n    tag_121:\n        /* \"#utility.yul\":4892:4995   */\n    tag_120:\n        /* \"#utility.yul\":5022:5023   */\n      0x01\n        /* \"#utility.yul\":5015:5020   */\n      dup3\n        /* \"#utility.yul\":5011:5024   */\n      add\n        /* \"#utility.yul\":5004:5024   */\n      swap1\n      pop\n        /* \"#utility.yul\":4797:5030   */\n      swap2\n      swap1\n      pop\n      jump\t// out\n\n    auxdata: 0xa26469706673582212203dc43f6d1c27677670c0f6a36d5c0519c547e7dcd8b02d4b937ba29ddc4d3af464736f6c634300080d0033\n}\n","bytecode":{"linkReferences":{},"object":"60806040523480156200001157600080fd5b5060405162000c5b38038062000c5b8339818101604052810190620000379190620003d3565b846000800160006101000a81548173ffffffffffffffffffffffffffffffffffffffff021916908373ffffffffffffffffffffffffffffffffffffffff160217905550836000600101908051906020019062000095929190620000e6565b5082600060020181905550816000600301819055506000806005018190555060008060060160006101000a81548160ff021916908315150217905550806000600701819055505050505050620004de565b828054620000f490620004a9565b90600052602060002090601f01602090048101928262000118576000855562000164565b82601f106200013357805160ff191683800117855562000164565b8280016001018555821562000164579182015b828111156200016357825182559160200191906001019062000146565b5b50905062000173919062000177565b5090565b5b808211156200019257600081600090555060010162000178565b5090565b6000604051905090565b600080fd5b600080fd5b600073ffffffffffffffffffffffffffffffffffffffff82169050919050565b6000620001d782620001aa565b9050919050565b620001e981620001ca565b8114620001f557600080fd5b50565b6000815190506200020981620001de565b92915050565b600080fd5b600080fd5b6000601f19601f8301169050919050565b7f4e487b7100000000000000000000000000000000000000000000000000000000600052604160045260246000fd5b620002648262000219565b810181811067ffffffffffffffff821117156200028657620002856200022a565b5b80604052505050565b60006200029b62000196565b9050620002a9828262000259565b919050565b600067ffffffffffffffff821115620002cc57620002cb6200022a565b5b620002d78262000219565b9050602081019050919050565b60005b8381101562000304578082015181840152602081019050620002e7565b8381111562000314576000848401525b50505050565b6000620003316200032b84620002ae565b6200028f565b90508281526020810184848401111562000350576200034f62000214565b5b6200035d848285620002e4565b509392505050565b600082601f8301126200037d576200037c6200020f565b5b81516200038f8482602086016200031a565b91505092915050565b6000819050919050565b620003ad8162000398565b8114620003b957600080fd5b50565b600081519050620003cd81620003a2565b92915050565b600080600080600060a08688031215620003f257620003f1620001a0565b5b60006200040288828901620001f8565b955050602086015167ffffffffffffffff811115620004265762000425620001a5565b5b620004348882890162000365565b94505060406200044788828901620003bc565b93505060606200045a88828901620003bc565b92505060806200046d88828901620003bc565b9150509295509295909350565b7f4e487b7100000000000000000000000000000000000000000000000000000000600052602260045260246000fd5b60006002820490506001821680620004c257607f821691505b602082108103620004d857620004d76200047a565b5b50919050565b61076d80620004ee6000396000f3fe60806040526004361061003f5760003560e01c8063236b8e3a1461004457806339cbcc64146100765780634e71d92d146100a1578063c1cbbca7146100ab575b600080fd5b34801561005057600080fd5b506100596100c7565b60405161006d989796959493929190610562565b60405180910390f35b34801561008257600080fd5b5061008b6101d0565b60405161009891906105e7565b60405180910390f35b6100a9610219565b005b6100c560048036038101906100c09190610633565b6102b6565b005b6000806060600080600080600080600090508060000160009054906101000a900473ffffffffffffffffffffffffffffffffffffffff1647826001018360020154846003015485600501548660060160009054906101000a900460ff1687600701548580546101359061068f565b80601f01602080910402602001604051908101604052809291908181526020018280546101619061068f565b80156101ae5780601f10610183576101008083540402835291602001916101ae565b820191906000526020600020905b81548152906001019060200180831161019157829003601f168201915b5050505050955098509850985098509850985098509850509091929394959697565b60008060040160003373ffffffffffffffffffffffffffffffffffffffff1673ffffffffffffffffffffffffffffffffffffffff16815260200190815260200160002054905090565b60006007015442101561022b57600080fd5b3373ffffffffffffffffffffffffffffffffffffffff166108fc600060040160003373ffffffffffffffffffffffffffffffffffffffff1673ffffffffffffffffffffffffffffffffffffffff168152602001908152602001600020549081150290604051600060405180830381858888f193505050501580156102b3573d6000803e3d6000fd5b50565b600060060160009054906101000a900460ff16156102d357600080fd5b60008060030154036103465780600060040160003373ffffffffffffffffffffffffffffffffffffffff1673ffffffffffffffffffffffffffffffffffffffff168152602001908152602001600020819055506000600501600081548092919061033c906106ef565b91905055506103bb565b60006003015434101561035857600080fd5b80600060040160003373ffffffffffffffffffffffffffffffffffffffff1673ffffffffffffffffffffffffffffffffffffffff16815260200190815260200160002081905550600060050160008154809291906103b5906106ef565b91905055505b6000600201544710610451576000800160009054906101000a900473ffffffffffffffffffffffffffffffffffffffff1673ffffffffffffffffffffffffffffffffffffffff166108fc479081150290604051600060405180830381858888f19350505050158015610431573d6000803e3d6000fd5b506001600060060160006101000a81548160ff0219169083151502179055505b50565b600073ffffffffffffffffffffffffffffffffffffffff82169050919050565b600061047f82610454565b9050919050565b61048f81610474565b82525050565b6000819050919050565b6104a881610495565b82525050565b600081519050919050565b600082825260208201905092915050565b60005b838110156104e85780820151818401526020810190506104cd565b838111156104f7576000848401525b50505050565b6000601f19601f8301169050919050565b6000610519826104ae565b61052381856104b9565b93506105338185602086016104ca565b61053c816104fd565b840191505092915050565b60008115159050919050565b61055c81610547565b82525050565b600061010082019050610578600083018b610486565b610585602083018a61049f565b8181036040830152610597818961050e565b90506105a6606083018861049f565b6105b3608083018761049f565b6105c060a083018661049f565b6105cd60c0830185610553565b6105da60e083018461049f565b9998505050505050505050565b60006020820190506105fc600083018461049f565b92915050565b600080fd5b61061081610495565b811461061b57600080fd5b50565b60008135905061062d81610607565b92915050565b60006020828403121561064957610648610602565b5b60006106578482850161061e565b91505092915050565b7f4e487b7100000000000000000000000000000000000000000000000000000000600052602260045260246000fd5b600060028204905060018216806106a757607f821691505b6020821081036106ba576106b9610660565b5b50919050565b7f4e487b7100000000000000000000000000000000000000000000000000000000600052601160045260246000fd5b60006106fa82610495565b91507fffffffffffffffffffffffffffffffffffffffffffffffffffffffffffffffff820361072c5761072b6106c0565b5b60018201905091905056fea26469706673582212203dc43f6d1c27677670c0f6a36d5c0519c547e7dcd8b02d4b937ba29ddc4d3af464736f6c634300080d0033","opcodes":"PUSH1 0x80 PUSH1 0x40 MSTORE CALLVALUE DUP1 ISZERO PUSH3 0x11 JUMPI PUSH1 0x0 DUP1 REVERT JUMPDEST POP PUSH1 0x40 MLOAD PUSH3 0xC5B CODESIZE SUB DUP1 PUSH3 0xC5B DUP4 CODECOPY DUP2 DUP2 ADD PUSH1 0x40 MSTORE DUP2 ADD SWAP1 PUSH3 0x37 SWAP2 SWAP1 PUSH3 0x3D3 JUMP JUMPDEST DUP5 PUSH1 0x0 DUP1 ADD PUSH1 0x0 PUSH2 0x100 EXP DUP2 SLOAD DUP2 PUSH20 0xFFFFFFFFFFFFFFFFFFFFFFFFFFFFFFFFFFFFFFFF MUL NOT AND SWAP1 DUP4 PUSH20 0xFFFFFFFFFFFFFFFFFFFFFFFFFFFFFFFFFFFFFFFF AND MUL OR SWAP1 SSTORE POP DUP4 PUSH1 0x0 PUSH1 0x1 ADD SWAP1 DUP1 MLOAD SWAP1 PUSH1 0x20 ADD SWAP1 PUSH3 0x95 SWAP3 SWAP2 SWAP1 PUSH3 0xE6 JUMP JUMPDEST POP DUP3 PUSH1 0x0 PUSH1 0x2 ADD DUP2 SWAP1 SSTORE POP DUP2 PUSH1 0x0 PUSH1 0x3 ADD DUP2 SWAP1 SSTORE POP PUSH1 0x0 DUP1 PUSH1 0x5 ADD DUP2 SWAP1 SSTORE POP PUSH1 0x0 DUP1 PUSH1 0x6 ADD PUSH1 0x0 PUSH2 0x100 EXP DUP2 SLOAD DUP2 PUSH1 0xFF MUL NOT AND SWAP1 DUP4 ISZERO ISZERO MUL OR SWAP1 SSTORE POP DUP1 PUSH1 0x0 PUSH1 0x7 ADD DUP2 SWAP1 SSTORE POP POP POP POP POP POP PUSH3 0x4DE JUMP JUMPDEST DUP3 DUP1 SLOAD PUSH3 0xF4 SWAP1 PUSH3 0x4A9 JUMP JUMPDEST SWAP1 PUSH1 0x0 MSTORE PUSH1 0x20 PUSH1 0x0 KECCAK256 SWAP1 PUSH1 0x1F ADD PUSH1 0x20 SWAP1 DIV DUP2 ADD SWAP3 DUP3 PUSH3 0x118 JUMPI PUSH1 0x0 DUP6 SSTORE PUSH3 0x164 JUMP JUMPDEST DUP3 PUSH1 0x1F LT PUSH3 0x133 JUMPI DUP1 MLOAD PUSH1 0xFF NOT AND DUP4 DUP1 ADD OR DUP6 SSTORE PUSH3 0x164 JUMP JUMPDEST DUP3 DUP1 ADD PUSH1 0x1 ADD DUP6 SSTORE DUP3 ISZERO PUSH3 0x164 JUMPI SWAP2 DUP3 ADD JUMPDEST DUP3 DUP2 GT ISZERO PUSH3 0x163 JUMPI DUP3 MLOAD DUP3 SSTORE SWAP2 PUSH1 0x20 ADD SWAP2 SWAP1 PUSH1 0x1 ADD SWAP1 PUSH3 0x146 JUMP JUMPDEST JUMPDEST POP SWAP1 POP PUSH3 0x173 SWAP2 SWAP1 PUSH3 0x177 JUMP JUMPDEST POP SWAP1 JUMP JUMPDEST JUMPDEST DUP1 DUP3 GT ISZERO PUSH3 0x192 JUMPI PUSH1 0x0 DUP2 PUSH1 0x0 SWAP1 SSTORE POP PUSH1 0x1 ADD PUSH3 0x178 JUMP JUMPDEST POP SWAP1 JUMP JUMPDEST PUSH1 0x0 PUSH1 0x40 MLOAD SWAP1 POP SWAP1 JUMP JUMPDEST PUSH1 0x0 DUP1 REVERT JUMPDEST PUSH1 0x0 DUP1 REVERT JUMPDEST PUSH1 0x0 PUSH20 0xFFFFFFFFFFFFFFFFFFFFFFFFFFFFFFFFFFFFFFFF DUP3 AND SWAP1 POP SWAP2 SWAP1 POP JUMP JUMPDEST PUSH1 0x0 PUSH3 0x1D7 DUP3 PUSH3 0x1AA JUMP JUMPDEST SWAP1 POP SWAP2 SWAP1 POP JUMP JUMPDEST PUSH3 0x1E9 DUP2 PUSH3 0x1CA JUMP JUMPDEST DUP2 EQ PUSH3 0x1F5 JUMPI PUSH1 0x0 DUP1 REVERT JUMPDEST POP JUMP JUMPDEST PUSH1 0x0 DUP2 MLOAD SWAP1 POP PUSH3 0x209 DUP2 PUSH3 0x1DE JUMP JUMPDEST SWAP3 SWAP2 POP POP JUMP JUMPDEST PUSH1 0x0 DUP1 REVERT JUMPDEST PUSH1 0x0 DUP1 REVERT JUMPDEST PUSH1 0x0 PUSH1 0x1F NOT PUSH1 0x1F DUP4 ADD AND SWAP1 POP SWAP2 SWAP1 POP JUMP JUMPDEST PUSH32 0x4E487B7100000000000000000000000000000000000000000000000000000000 PUSH1 0x0 MSTORE PUSH1 0x41 PUSH1 0x4 MSTORE PUSH1 0x24 PUSH1 0x0 REVERT JUMPDEST PUSH3 0x264 DUP3 PUSH3 0x219 JUMP JUMPDEST DUP2 ADD DUP2 DUP2 LT PUSH8 0xFFFFFFFFFFFFFFFF DUP3 GT OR ISZERO PUSH3 0x286 JUMPI PUSH3 0x285 PUSH3 0x22A JUMP JUMPDEST JUMPDEST DUP1 PUSH1 0x40 MSTORE POP POP POP JUMP JUMPDEST PUSH1 0x0 PUSH3 0x29B PUSH3 0x196 JUMP JUMPDEST SWAP1 POP PUSH3 0x2A9 DUP3 DUP3 PUSH3 0x259 JUMP JUMPDEST SWAP2 SWAP1 POP JUMP JUMPDEST PUSH1 0x0 PUSH8 0xFFFFFFFFFFFFFFFF DUP3 GT ISZERO PUSH3 0x2CC JUMPI PUSH3 0x2CB PUSH3 0x22A JUMP JUMPDEST JUMPDEST PUSH3 0x2D7 DUP3 PUSH3 0x219 JUMP JUMPDEST SWAP1 POP PUSH1 0x20 DUP2 ADD SWAP1 POP SWAP2 SWAP1 POP JUMP JUMPDEST PUSH1 0x0 JUMPDEST DUP4 DUP2 LT ISZERO PUSH3 0x304 JUMPI DUP1 DUP3 ADD MLOAD DUP2 DUP5 ADD MSTORE PUSH1 0x20 DUP2 ADD SWAP1 POP PUSH3 0x2E7 JUMP JUMPDEST DUP4 DUP2 GT ISZERO PUSH3 0x314 JUMPI PUSH1 0x0 DUP5 DUP5 ADD MSTORE JUMPDEST POP POP POP POP JUMP JUMPDEST PUSH1 0x0 PUSH3 0x331 PUSH3 0x32B DUP5 PUSH3 0x2AE JUMP JUMPDEST PUSH3 0x28F JUMP JUMPDEST SWAP1 POP DUP3 DUP2 MSTORE PUSH1 0x20 DUP2 ADD DUP5 DUP5 DUP5 ADD GT ISZERO PUSH3 0x350 JUMPI PUSH3 0x34F PUSH3 0x214 JUMP JUMPDEST JUMPDEST PUSH3 0x35D DUP5 DUP3 DUP6 PUSH3 0x2E4 JUMP JUMPDEST POP SWAP4 SWAP3 POP POP POP JUMP JUMPDEST PUSH1 0x0 DUP3 PUSH1 0x1F DUP4 ADD SLT PUSH3 0x37D JUMPI PUSH3 0x37C PUSH3 0x20F JUMP JUMPDEST JUMPDEST DUP2 MLOAD PUSH3 0x38F DUP5 DUP3 PUSH1 0x20 DUP7 ADD PUSH3 0x31A JUMP JUMPDEST SWAP2 POP POP SWAP3 SWAP2 POP POP JUMP JUMPDEST PUSH1 0x0 DUP2 SWAP1 POP SWAP2 SWAP1 POP JUMP JUMPDEST PUSH3 0x3AD DUP2 PUSH3 0x398 JUMP JUMPDEST DUP2 EQ PUSH3 0x3B9 JUMPI PUSH1 0x0 DUP1 REVERT JUMPDEST POP JUMP JUMPDEST PUSH1 0x0 DUP2 MLOAD SWAP1 POP PUSH3 0x3CD DUP2 PUSH3 0x3A2 JUMP JUMPDEST SWAP3 SWAP2 POP POP JUMP JUMPDEST PUSH1 0x0 DUP1 PUSH1 0x0 DUP1 PUSH1 0x0 PUSH1 0xA0 DUP7 DUP9 SUB SLT ISZERO PUSH3 0x3F2 JUMPI PUSH3 0x3F1 PUSH3 0x1A0 JUMP JUMPDEST JUMPDEST PUSH1 0x0 PUSH3 0x402 DUP9 DUP3 DUP10 ADD PUSH3 0x1F8 JUMP JUMPDEST SWAP6 POP POP PUSH1 0x20 DUP7 ADD MLOAD PUSH8 0xFFFFFFFFFFFFFFFF DUP2 GT ISZERO PUSH3 0x426 JUMPI PUSH3 0x425 PUSH3 0x1A5 JUMP JUMPDEST JUMPDEST PUSH3 0x434 DUP9 DUP3 DUP10 ADD PUSH3 0x365 JUMP JUMPDEST SWAP5 POP POP PUSH1 0x40 PUSH3 0x447 DUP9 DUP3 DUP10 ADD PUSH3 0x3BC JUMP JUMPDEST SWAP4 POP POP PUSH1 0x60 PUSH3 0x45A DUP9 DUP3 DUP10 ADD PUSH3 0x3BC JUMP JUMPDEST SWAP3 POP POP PUSH1 0x80 PUSH3 0x46D DUP9 DUP3 DUP10 ADD PUSH3 0x3BC JUMP JUMPDEST SWAP2 POP POP SWAP3 SWAP6 POP SWAP3 SWAP6 SWAP1 SWAP4 POP JUMP JUMPDEST PUSH32 0x4E487B7100000000000000000000000000000000000000000000000000000000 PUSH1 0x0 MSTORE PUSH1 0x22 PUSH1 0x4 MSTORE PUSH1 0x24 PUSH1 0x0 REVERT JUMPDEST PUSH1 0x0 PUSH1 0x2 DUP3 DIV SWAP1 POP PUSH1 0x1 DUP3 AND DUP1 PUSH3 0x4C2 JUMPI PUSH1 0x7F DUP3 AND SWAP2 POP JUMPDEST PUSH1 0x20 DUP3 LT DUP2 SUB PUSH3 0x4D8 JUMPI PUSH3 0x4D7 PUSH3 0x47A JUMP JUMPDEST JUMPDEST POP SWAP2 SWAP1 POP JUMP JUMPDEST PUSH2 0x76D DUP1 PUSH3 0x4EE PUSH1 0x0 CODECOPY PUSH1 0x0 RETURN INVALID PUSH1 0x80 PUSH1 0x40 MSTORE PUSH1 0x4 CALLDATASIZE LT PUSH2 0x3F JUMPI PUSH1 0x0 CALLDATALOAD PUSH1 0xE0 SHR DUP1 PUSH4 0x236B8E3A EQ PUSH2 0x44 JUMPI DUP1 PUSH4 0x39CBCC64 EQ PUSH2 0x76 JUMPI DUP1 PUSH4 0x4E71D92D EQ PUSH2 0xA1 JUMPI DUP1 PUSH4 0xC1CBBCA7 EQ PUSH2 0xAB JUMPI JUMPDEST PUSH1 0x0 DUP1 REVERT JUMPDEST CALLVALUE DUP1 ISZERO PUSH2 0x50 JUMPI PUSH1 0x0 DUP1 REVERT JUMPDEST POP PUSH2 0x59 PUSH2 0xC7 JUMP JUMPDEST PUSH1 0x40 MLOAD PUSH2 0x6D SWAP9 SWAP8 SWAP7 SWAP6 SWAP5 SWAP4 SWAP3 SWAP2 SWAP1 PUSH2 0x562 JUMP JUMPDEST PUSH1 0x40 MLOAD DUP1 SWAP2 SUB SWAP1 RETURN JUMPDEST CALLVALUE DUP1 ISZERO PUSH2 0x82 JUMPI PUSH1 0x0 DUP1 REVERT JUMPDEST POP PUSH2 0x8B PUSH2 0x1D0 JUMP JUMPDEST PUSH1 0x40 MLOAD PUSH2 0x98 SWAP2 SWAP1 PUSH2 0x5E7 JUMP JUMPDEST PUSH1 0x40 MLOAD DUP1 SWAP2 SUB SWAP1 RETURN JUMPDEST PUSH2 0xA9 PUSH2 0x219 JUMP JUMPDEST STOP JUMPDEST PUSH2 0xC5 PUSH1 0x4 DUP1 CALLDATASIZE SUB DUP2 ADD SWAP1 PUSH2 0xC0 SWAP2 SWAP1 PUSH2 0x633 JUMP JUMPDEST PUSH2 0x2B6 JUMP JUMPDEST STOP JUMPDEST PUSH1 0x0 DUP1 PUSH1 0x60 PUSH1 0x0 DUP1 PUSH1 0x0 DUP1 PUSH1 0x0 DUP1 PUSH1 0x0 SWAP1 POP DUP1 PUSH1 0x0 ADD PUSH1 0x0 SWAP1 SLOAD SWAP1 PUSH2 0x100 EXP SWAP1 DIV PUSH20 0xFFFFFFFFFFFFFFFFFFFFFFFFFFFFFFFFFFFFFFFF AND SELFBALANCE DUP3 PUSH1 0x1 ADD DUP4 PUSH1 0x2 ADD SLOAD DUP5 PUSH1 0x3 ADD SLOAD DUP6 PUSH1 0x5 ADD SLOAD DUP7 PUSH1 0x6 ADD PUSH1 0x0 SWAP1 SLOAD SWAP1 PUSH2 0x100 EXP SWAP1 DIV PUSH1 0xFF AND DUP8 PUSH1 0x7 ADD SLOAD DUP6 DUP1 SLOAD PUSH2 0x135 SWAP1 PUSH2 0x68F JUMP JUMPDEST DUP1 PUSH1 0x1F ADD PUSH1 0x20 DUP1 SWAP2 DIV MUL PUSH1 0x20 ADD PUSH1 0x40 MLOAD SWAP1 DUP2 ADD PUSH1 0x40 MSTORE DUP1 SWAP3 SWAP2 SWAP1 DUP2 DUP2 MSTORE PUSH1 0x20 ADD DUP3 DUP1 SLOAD PUSH2 0x161 SWAP1 PUSH2 0x68F JUMP JUMPDEST DUP1 ISZERO PUSH2 0x1AE JUMPI DUP1 PUSH1 0x1F LT PUSH2 0x183 JUMPI PUSH2 0x100 DUP1 DUP4 SLOAD DIV MUL DUP4 MSTORE SWAP2 PUSH1 0x20 ADD SWAP2 PUSH2 0x1AE JUMP JUMPDEST DUP3 ADD SWAP2 SWAP1 PUSH1 0x0 MSTORE PUSH1 0x20 PUSH1 0x0 KECCAK256 SWAP1 JUMPDEST DUP2 SLOAD DUP2 MSTORE SWAP1 PUSH1 0x1 ADD SWAP1 PUSH1 0x20 ADD DUP1 DUP4 GT PUSH2 0x191 JUMPI DUP3 SWAP1 SUB PUSH1 0x1F AND DUP3 ADD SWAP2 JUMPDEST POP POP POP POP POP SWAP6 POP SWAP9 POP SWAP9 POP SWAP9 POP SWAP9 POP SWAP9 POP SWAP9 POP SWAP9 POP SWAP9 POP POP SWAP1 SWAP2 SWAP3 SWAP4 SWAP5 SWAP6 SWAP7 SWAP8 JUMP JUMPDEST PUSH1 0x0 DUP1 PUSH1 0x4 ADD PUSH1 0x0 CALLER PUSH20 0xFFFFFFFFFFFFFFFFFFFFFFFFFFFFFFFFFFFFFFFF AND PUSH20 0xFFFFFFFFFFFFFFFFFFFFFFFFFFFFFFFFFFFFFFFF AND DUP2 MSTORE PUSH1 0x20 ADD SWAP1 DUP2 MSTORE PUSH1 0x20 ADD PUSH1 0x0 KECCAK256 SLOAD SWAP1 POP SWAP1 JUMP JUMPDEST PUSH1 0x0 PUSH1 0x7 ADD SLOAD TIMESTAMP LT ISZERO PUSH2 0x22B JUMPI PUSH1 0x0 DUP1 REVERT JUMPDEST CALLER PUSH20 0xFFFFFFFFFFFFFFFFFFFFFFFFFFFFFFFFFFFFFFFF AND PUSH2 0x8FC PUSH1 0x0 PUSH1 0x4 ADD PUSH1 0x0 CALLER PUSH20 0xFFFFFFFFFFFFFFFFFFFFFFFFFFFFFFFFFFFFFFFF AND PUSH20 0xFFFFFFFFFFFFFFFFFFFFFFFFFFFFFFFFFFFFFFFF AND DUP2 MSTORE PUSH1 0x20 ADD SWAP1 DUP2 MSTORE PUSH1 0x20 ADD PUSH1 0x0 KECCAK256 SLOAD SWAP1 DUP2 ISZERO MUL SWAP1 PUSH1 0x40 MLOAD PUSH1 0x0 PUSH1 0x40 MLOAD DUP1 DUP4 SUB DUP2 DUP6 DUP9 DUP9 CALL SWAP4 POP POP POP POP ISZERO DUP1 ISZERO PUSH2 0x2B3 JUMPI RETURNDATASIZE PUSH1 0x0 DUP1 RETURNDATACOPY RETURNDATASIZE PUSH1 0x0 REVERT JUMPDEST POP JUMP JUMPDEST PUSH1 0x0 PUSH1 0x6 ADD PUSH1 0x0 SWAP1 SLOAD SWAP1 PUSH2 0x100 EXP SWAP1 DIV PUSH1 0xFF AND ISZERO PUSH2 0x2D3 JUMPI PUSH1 0x0 DUP1 REVERT JUMPDEST PUSH1 0x0 DUP1 PUSH1 0x3 ADD SLOAD SUB PUSH2 0x346 JUMPI DUP1 PUSH1 0x0 PUSH1 0x4 ADD PUSH1 0x0 CALLER PUSH20 0xFFFFFFFFFFFFFFFFFFFFFFFFFFFFFFFFFFFFFFFF AND PUSH20 0xFFFFFFFFFFFFFFFFFFFFFFFFFFFFFFFFFFFFFFFF AND DUP2 MSTORE PUSH1 0x20 ADD SWAP1 DUP2 MSTORE PUSH1 0x20 ADD PUSH1 0x0 KECCAK256 DUP2 SWAP1 SSTORE POP PUSH1 0x0 PUSH1 0x5 ADD PUSH1 0x0 DUP2 SLOAD DUP1 SWAP3 SWAP2 SWAP1 PUSH2 0x33C SWAP1 PUSH2 0x6EF JUMP JUMPDEST SWAP2 SWAP1 POP SSTORE POP PUSH2 0x3BB JUMP JUMPDEST PUSH1 0x0 PUSH1 0x3 ADD SLOAD CALLVALUE LT ISZERO PUSH2 0x358 JUMPI PUSH1 0x0 DUP1 REVERT JUMPDEST DUP1 PUSH1 0x0 PUSH1 0x4 ADD PUSH1 0x0 CALLER PUSH20 0xFFFFFFFFFFFFFFFFFFFFFFFFFFFFFFFFFFFFFFFF AND PUSH20 0xFFFFFFFFFFFFFFFFFFFFFFFFFFFFFFFFFFFFFFFF AND DUP2 MSTORE PUSH1 0x20 ADD SWAP1 DUP2 MSTORE PUSH1 0x20 ADD PUSH1 0x0 KECCAK256 DUP2 SWAP1 SSTORE POP PUSH1 0x0 PUSH1 0x5 ADD PUSH1 0x0 DUP2 SLOAD DUP1 SWAP3 SWAP2 SWAP1 PUSH2 0x3B5 SWAP1 PUSH2 0x6EF JUMP JUMPDEST SWAP2 SWAP1 POP SSTORE POP JUMPDEST PUSH1 0x0 PUSH1 0x2 ADD SLOAD SELFBALANCE LT PUSH2 0x451 JUMPI PUSH1 0x0 DUP1 ADD PUSH1 0x0 SWAP1 SLOAD SWAP1 PUSH2 0x100 EXP SWAP1 DIV PUSH20 0xFFFFFFFFFFFFFFFFFFFFFFFFFFFFFFFFFFFFFFFF AND PUSH20 0xFFFFFFFFFFFFFFFFFFFFFFFFFFFFFFFFFFFFFFFF AND PUSH2 0x8FC SELFBALANCE SWAP1 DUP2 ISZERO MUL SWAP1 PUSH1 0x40 MLOAD PUSH1 0x0 PUSH1 0x40 MLOAD DUP1 DUP4 SUB DUP2 DUP6 DUP9 DUP9 CALL SWAP4 POP POP POP POP ISZERO DUP1 ISZERO PUSH2 0x431 JUMPI RETURNDATASIZE PUSH1 0x0 DUP1 RETURNDATACOPY RETURNDATASIZE PUSH1 0x0 REVERT JUMPDEST POP PUSH1 0x1 PUSH1 0x0 PUSH1 0x6 ADD PUSH1 0x0 PUSH2 0x100 EXP DUP2 SLOAD DUP2 PUSH1 0xFF MUL NOT AND SWAP1 DUP4 ISZERO ISZERO MUL OR SWAP1 SSTORE POP JUMPDEST POP JUMP JUMPDEST PUSH1 0x0 PUSH20 0xFFFFFFFFFFFFFFFFFFFFFFFFFFFFFFFFFFFFFFFF DUP3 AND SWAP1 POP SWAP2 SWAP1 POP JUMP JUMPDEST PUSH1 0x0 PUSH2 0x47F DUP3 PUSH2 0x454 JUMP JUMPDEST SWAP1 POP SWAP2 SWAP1 POP JUMP JUMPDEST PUSH2 0x48F DUP2 PUSH2 0x474 JUMP JUMPDEST DUP3 MSTORE POP POP JUMP JUMPDEST PUSH1 0x0 DUP2 SWAP1 POP SWAP2 SWAP1 POP JUMP JUMPDEST PUSH2 0x4A8 DUP2 PUSH2 0x495 JUMP JUMPDEST DUP3 MSTORE POP POP JUMP JUMPDEST PUSH1 0x0 DUP2 MLOAD SWAP1 POP SWAP2 SWAP1 POP JUMP JUMPDEST PUSH1 0x0 DUP3 DUP3 MSTORE PUSH1 0x20 DUP3 ADD SWAP1 POP SWAP3 SWAP2 POP POP JUMP JUMPDEST PUSH1 0x0 JUMPDEST DUP4 DUP2 LT ISZERO PUSH2 0x4E8 JUMPI DUP1 DUP3 ADD MLOAD DUP2 DUP5 ADD MSTORE PUSH1 0x20 DUP2 ADD SWAP1 POP PUSH2 0x4CD JUMP JUMPDEST DUP4 DUP2 GT ISZERO PUSH2 0x4F7 JUMPI PUSH1 0x0 DUP5 DUP5 ADD MSTORE JUMPDEST POP POP POP POP JUMP JUMPDEST PUSH1 0x0 PUSH1 0x1F NOT PUSH1 0x1F DUP4 ADD AND SWAP1 POP SWAP2 SWAP1 POP JUMP JUMPDEST PUSH1 0x0 PUSH2 0x519 DUP3 PUSH2 0x4AE JUMP JUMPDEST PUSH2 0x523 DUP2 DUP6 PUSH2 0x4B9 JUMP JUMPDEST SWAP4 POP PUSH2 0x533 DUP2 DUP6 PUSH1 0x20 DUP7 ADD PUSH2 0x4CA JUMP JUMPDEST PUSH2 0x53C DUP2 PUSH2 0x4FD JUMP JUMPDEST DUP5 ADD SWAP2 POP POP SWAP3 SWAP2 POP POP JUMP JUMPDEST PUSH1 0x0 DUP2 ISZERO ISZERO SWAP1 POP SWAP2 SWAP1 POP JUMP JUMPDEST PUSH2 0x55C DUP2 PUSH2 0x547 JUMP JUMPDEST DUP3 MSTORE POP POP JUMP JUMPDEST PUSH1 0x0 PUSH2 0x100 DUP3 ADD SWAP1 POP PUSH2 0x578 PUSH1 0x0 DUP4 ADD DUP12 PUSH2 0x486 JUMP JUMPDEST PUSH2 0x585 PUSH1 0x20 DUP4 ADD DUP11 PUSH2 0x49F JUMP JUMPDEST DUP2 DUP2 SUB PUSH1 0x40 DUP4 ADD MSTORE PUSH2 0x597 DUP2 DUP10 PUSH2 0x50E JUMP JUMPDEST SWAP1 POP PUSH2 0x5A6 PUSH1 0x60 DUP4 ADD DUP9 PUSH2 0x49F JUMP JUMPDEST PUSH2 0x5B3 PUSH1 0x80 DUP4 ADD DUP8 PUSH2 0x49F JUMP JUMPDEST PUSH2 0x5C0 PUSH1 0xA0 DUP4 ADD DUP7 PUSH2 0x49F JUMP JUMPDEST PUSH2 0x5CD PUSH1 0xC0 DUP4 ADD DUP6 PUSH2 0x553 JUMP JUMPDEST PUSH2 0x5DA PUSH1 0xE0 DUP4 ADD DUP5 PUSH2 0x49F JUMP JUMPDEST SWAP10 SWAP9 POP POP POP POP POP POP POP POP POP JUMP JUMPDEST PUSH1 0x0 PUSH1 0x20 DUP3 ADD SWAP1 POP PUSH2 0x5FC PUSH1 0x0 DUP4 ADD DUP5 PUSH2 0x49F JUMP JUMPDEST SWAP3 SWAP2 POP POP JUMP JUMPDEST PUSH1 0x0 DUP1 REVERT JUMPDEST PUSH2 0x610 DUP2 PUSH2 0x495 JUMP JUMPDEST DUP2 EQ PUSH2 0x61B JUMPI PUSH1 0x0 DUP1 REVERT JUMPDEST POP JUMP JUMPDEST PUSH1 0x0 DUP2 CALLDATALOAD SWAP1 POP PUSH2 0x62D DUP2 PUSH2 0x607 JUMP JUMPDEST SWAP3 SWAP2 POP POP JUMP JUMPDEST PUSH1 0x0 PUSH1 0x20 DUP3 DUP5 SUB SLT ISZERO PUSH2 0x649 JUMPI PUSH2 0x648 PUSH2 0x602 JUMP JUMPDEST JUMPDEST PUSH1 0x0 PUSH2 0x657 DUP5 DUP3 DUP6 ADD PUSH2 0x61E JUMP JUMPDEST SWAP2 POP POP SWAP3 SWAP2 POP POP JUMP JUMPDEST PUSH32 0x4E487B7100000000000000000000000000000000000000000000000000000000 PUSH1 0x0 MSTORE PUSH1 0x22 PUSH1 0x4 MSTORE PUSH1 0x24 PUSH1 0x0 REVERT JUMPDEST PUSH1 0x0 PUSH1 0x2 DUP3 DIV SWAP1 POP PUSH1 0x1 DUP3 AND DUP1 PUSH2 0x6A7 JUMPI PUSH1 0x7F DUP3 AND SWAP2 POP JUMPDEST PUSH1 0x20 DUP3 LT DUP2 SUB PUSH2 0x6BA JUMPI PUSH2 0x6B9 PUSH2 0x660 JUMP JUMPDEST JUMPDEST POP SWAP2 SWAP1 POP JUMP JUMPDEST PUSH32 0x4E487B7100000000000000000000000000000000000000000000000000000000 PUSH1 0x0 MSTORE PUSH1 0x11 PUSH1 0x4 MSTORE PUSH1 0x24 PUSH1 0x0 REVERT JUMPDEST PUSH1 0x0 PUSH2 0x6FA DUP3 PUSH2 0x495 JUMP JUMPDEST SWAP2 POP PUSH32 0xFFFFFFFFFFFFFFFFFFFFFFFFFFFFFFFFFFFFFFFFFFFFFFFFFFFFFFFFFFFFFFFF DUP3 SUB PUSH2 0x72C JUMPI PUSH2 0x72B PUSH2 0x6C0 JUMP JUMPDEST JUMPDEST PUSH1 0x1 DUP3 ADD SWAP1 POP SWAP2 SWAP1 POP JUMP INVALID LOG2 PUSH5 0x6970667358 0x22 SLT KECCAK256 RETURNDATASIZE 0xC4 EXTCODEHASH PUSH14 0x1C27677670C0F6A36D5C0519C547 0xE7 0xDC 0xD8 0xB0 0x2D 0x4B SWAP4 PUSH28 0xA29DDC4D3AF464736F6C634300080D00330000000000000000000000 "},"gasEstimates":{"creation":{"codeDepositCost":"380200","executionCost":"infinite","totalCost":"infinite"},"external":{"claim()":"infinite","contribute(uint256)":"infinite","getCampaign()":"infinite","getContributorDonate()":"2532"}},"methodIdentifiers":{"claim()":"4e71d92d","contribute(uint256)":"c1cbbca7","getCampaign()":"236b8e3a","getContributorDonate()":"39cbcc64"}},"storageLayout":{"storage":[{"astId":92,"contract":"Campaign.sol:Campaign","label":"campaign","offset":0,"slot":"0","type":"t_struct(Information)89_storage"}],"types":{"t_address":{"encoding":"inplace","label":"address","numberOfBytes":"20"},"t_address_payable":{"encoding":"inplace","label":"address payable","numberOfBytes":"20"},"t_bool":{"encoding":"inplace","label":"bool","numberOfBytes":"1"},"t_mapping(t_address,t_uint256)":{"encoding":"mapping","key":"t_address","label":"mapping(address => uint256)","numberOfBytes":"32","value":"t_uint256"},"t_string_storage":{"encoding":"bytes","label":"string","numberOfBytes":"32"},"t_struct(Information)89_storage":{"encoding":"inplace","label":"struct Campaign.Information","members":[{"astId":72,"contract":"Campaign.sol:Campaign","label":"manager","offset":0,"slot":"0","type":"t_address_payable"},{"astId":74,"contract":"Campaign.sol:Campaign","label":"name","offset":0,"slot":"1","type":"t_string_storage"},{"astId":76,"contract":"Campaign.sol:Campaign","label":"requiredBalance","offset":0,"slot":"2","type":"t_uint256"},{"astId":78,"contract":"Campaign.sol:Campaign","label":"requiredCost","offset":0,"slot":"3","type":"t_uint256"},{"astId":82,"contract":"Campaign.sol:Campaign","label":"contributors","offset":0,"slot":"4","type":"t_mapping(t_address,t_uint256)"},{"astId":84,"contract":"Campaign.sol:Campaign","label":"contributorsCount","offset":0,"slot":"5","type":"t_uint256"},{"astId":86,"contract":"Campaign.sol:Campaign","label":"complete","offset":0,"slot":"6","type":"t_bool"},{"astId":88,"contract":"Campaign.sol:Campaign","label":"deadline","offset":0,"slot":"7","type":"t_uint256"}],"numberOfBytes":"256"},"t_uint256":{"encoding":"inplace","label":"uint256","numberOfBytes":"32"}}},"userdoc":{"kind":"user","methods":{},"version":1}}