{"abi":[{"inputs":[{"internalType":"string","name":"campaignName","type":"string"},{"internalType":"uint256","name":"requiredBalance","type":"uint256"},{"internalType":"uint256","name":"requiredCost","type":"uint256"},{"internalType":"uint256","name":"deadline","type":"uint256"},{"internalType":"uint256","name":"min","type":"uint256"}],"name":"createCampaign","outputs":[{"internalType":"address","name":"","type":"address"}],"stateMutability":"nonpayable","type":"function"},{"inputs":[],"name":"getDeployedCampaigns","outputs":[{"internalType":"address[]","name":"","type":"address[]"},{"internalType":"string[]","name":"","type":"string[]"},{"internalType":"uint256[]","name":"","type":"uint256[]"}],"stateMutability":"view","type":"function"}],"devdoc":{"kind":"dev","methods":{},"version":1},"evm":{"assembly":"    /* \"Campaign.sol\":119:873  contract CampaignFactory {... */\n  mstore(0x40, 0x80)\n  callvalue\n  dup1\n  iszero\n  tag_1\n  jumpi\n  0x00\n  dup1\n  revert\ntag_1:\n  pop\n  dataSize(sub_0)\n  dup1\n  dataOffset(sub_0)\n  0x00\n  codecopy\n  0x00\n  return\nstop\n\nsub_0: assembly {\n        /* \"Campaign.sol\":119:873  contract CampaignFactory {... */\n      mstore(0x40, 0x80)\n      callvalue\n      dup1\n      iszero\n      tag_1\n      jumpi\n      0x00\n      dup1\n      revert\n    tag_1:\n      pop\n      jumpi(tag_2, lt(calldatasize, 0x04))\n      shr(0xe0, calldataload(0x00))\n      dup1\n      0x4acb9d4f\n      eq\n      tag_3\n      jumpi\n      dup1\n      0xc79de09b\n      eq\n      tag_4\n      jumpi\n    tag_2:\n      0x00\n      dup1\n      revert\n        /* \"Campaign.sol\":693:870  function getDeployedCampaigns() public view returns (address[] memory, string[] memory, uint256[] memory) {... */\n    tag_3:\n      tag_5\n      tag_6\n      jump\t// in\n    tag_5:\n      mload(0x40)\n      tag_7\n      swap4\n      swap3\n      swap2\n      swap1\n      tag_8\n      jump\t// in\n    tag_7:\n      mload(0x40)\n      dup1\n      swap2\n      sub\n      swap1\n      return\n        /* \"Campaign.sol\":242:685  function createCampaign(string memory campaignName, uint requiredBalance, uint requiredCost, uint256 deadline, uint min) public returns (address) {... */\n    tag_4:\n      tag_9\n      0x04\n      dup1\n      calldatasize\n      sub\n      dup2\n      add\n      swap1\n      tag_10\n      swap2\n      swap1\n      tag_11\n      jump\t// in\n    tag_10:\n      tag_12\n      jump\t// in\n    tag_9:\n      mload(0x40)\n      tag_13\n      swap2\n      swap1\n      tag_14\n      jump\t// in\n    tag_13:\n      mload(0x40)\n      dup1\n      swap2\n      sub\n      swap1\n      return\n        /* \"Campaign.sol\":693:870  function getDeployedCampaigns() public view returns (address[] memory, string[] memory, uint256[] memory) {... */\n    tag_6:\n        /* \"Campaign.sol\":746:762  address[] memory */\n      0x60\n        /* \"Campaign.sol\":764:779  string[] memory */\n      dup1\n        /* \"Campaign.sol\":781:797  uint256[] memory */\n      0x60\n        /* \"Campaign.sol\":818:835  deployedCampaigns */\n      0x00\n        /* \"Campaign.sol\":837:850  campaignsName */\n      0x01\n        /* \"Campaign.sol\":852:861  deadlines */\n      0x02\n        /* \"Campaign.sol\":810:862  return (deployedCampaigns, campaignsName, deadlines) */\n      dup3\n      dup1\n      sload\n      dup1\n      0x20\n      mul\n      0x20\n      add\n      mload(0x40)\n      swap1\n      dup2\n      add\n      0x40\n      mstore\n      dup1\n      swap3\n      swap2\n      swap1\n      dup2\n      dup2\n      mstore\n      0x20\n      add\n      dup3\n      dup1\n      sload\n      dup1\n      iszero\n      tag_16\n      jumpi\n      0x20\n      mul\n      dup3\n      add\n      swap2\n      swap1\n      0x00\n      mstore\n      keccak256(0x00, 0x20)\n      swap1\n    tag_17:\n      dup2\n      0x00\n      swap1\n      sload\n      swap1\n      0x0100\n      exp\n      swap1\n      div\n      0xffffffffffffffffffffffffffffffffffffffff\n      and\n      0xffffffffffffffffffffffffffffffffffffffff\n      and\n      dup2\n      mstore\n      0x20\n      add\n      swap1\n      0x01\n      add\n      swap1\n      dup1\n      dup4\n      gt\n      tag_17\n      jumpi\n    tag_16:\n      pop\n      pop\n      pop\n      pop\n      pop\n      swap3\n      pop\n      dup2\n      dup1\n      sload\n      dup1\n      0x20\n      mul\n      0x20\n      add\n      mload(0x40)\n      swap1\n      dup2\n      add\n      0x40\n      mstore\n      dup1\n      swap3\n      swap2\n      swap1\n      dup2\n      dup2\n      mstore\n      0x20\n      add\n      0x00\n      swap1\n    tag_18:\n      dup3\n      dup3\n      lt\n      iszero\n      tag_19\n      jumpi\n      dup4\n      dup3\n      swap1\n      0x00\n      mstore\n      keccak256(0x00, 0x20)\n      add\n      dup1\n      sload\n      tag_21\n      swap1\n      tag_22\n      jump\t// in\n    tag_21:\n      dup1\n      0x1f\n      add\n      0x20\n      dup1\n      swap2\n      div\n      mul\n      0x20\n      add\n      mload(0x40)\n      swap1\n      dup2\n      add\n      0x40\n      mstore\n      dup1\n      swap3\n      swap2\n      swap1\n      dup2\n      dup2\n      mstore\n      0x20\n      add\n      dup3\n      dup1\n      sload\n      tag_23\n      swap1\n      tag_22\n      jump\t// in\n    tag_23:\n      dup1\n      iszero\n      tag_24\n      jumpi\n      dup1\n      0x1f\n      lt\n      tag_25\n      jumpi\n      0x0100\n      dup1\n      dup4\n      sload\n      div\n      mul\n      dup4\n      mstore\n      swap2\n      0x20\n      add\n      swap2\n      jump(tag_24)\n    tag_25:\n      dup3\n      add\n      swap2\n      swap1\n      0x00\n      mstore\n      keccak256(0x00, 0x20)\n      swap1\n    tag_26:\n      dup2\n      sload\n      dup2\n      mstore\n      swap1\n      0x01\n      add\n      swap1\n      0x20\n      add\n      dup1\n      dup4\n      gt\n      tag_26\n      jumpi\n      dup3\n      swap1\n      sub\n      0x1f\n      and\n      dup3\n      add\n      swap2\n    tag_24:\n      pop\n      pop\n      pop\n      pop\n      pop\n      dup2\n      mstore\n      0x20\n      add\n      swap1\n      0x01\n      add\n      swap1\n      jump(tag_18)\n    tag_19:\n      pop\n      pop\n      pop\n      pop\n      swap2\n      pop\n      dup1\n      dup1\n      sload\n      dup1\n      0x20\n      mul\n      0x20\n      add\n      mload(0x40)\n      swap1\n      dup2\n      add\n      0x40\n      mstore\n      dup1\n      swap3\n      swap2\n      swap1\n      dup2\n      dup2\n      mstore\n      0x20\n      add\n      dup3\n      dup1\n      sload\n      dup1\n      iszero\n      tag_27\n      jumpi\n      0x20\n      mul\n      dup3\n      add\n      swap2\n      swap1\n      0x00\n      mstore\n      keccak256(0x00, 0x20)\n      swap1\n    tag_28:\n      dup2\n      sload\n      dup2\n      mstore\n      0x20\n      add\n      swap1\n      0x01\n      add\n      swap1\n      dup1\n      dup4\n      gt\n      tag_28\n      jumpi\n    tag_27:\n      pop\n      pop\n      pop\n      pop\n      pop\n      swap1\n      pop\n      swap3\n      pop\n      swap3\n      pop\n      swap3\n      pop\n        /* \"Campaign.sol\":693:870  function getDeployedCampaigns() public view returns (address[] memory, string[] memory, uint256[] memory) {... */\n      swap1\n      swap2\n      swap3\n      jump\t// out\n        /* \"Campaign.sol\":242:685  function createCampaign(string memory campaignName, uint requiredBalance, uint requiredCost, uint256 deadline, uint min) public returns (address) {... */\n    tag_12:\n        /* \"Campaign.sol\":379:386  address */\n      0x00\n        /* \"Campaign.sol\":399:419  Campaign newCampaign */\n      dup1\n        /* \"Campaign.sol\":435:445  msg.sender */\n      caller\n        /* \"Campaign.sol\":447:459  campaignName */\n      dup8\n        /* \"Campaign.sol\":461:476  requiredBalance */\n      dup8\n        /* \"Campaign.sol\":478:490  requiredCost */\n      dup8\n        /* \"Campaign.sol\":492:500  deadline */\n      dup8\n        /* \"Campaign.sol\":502:505  min */\n      dup8\n        /* \"Campaign.sol\":422:506  new Campaign(msg.sender, campaignName, requiredBalance, requiredCost, deadline, min) */\n      mload(0x40)\n      tag_30\n      swap1\n      tag_31\n      jump\t// in\n    tag_30:\n      tag_32\n      swap7\n      swap6\n      swap5\n      swap4\n      swap3\n      swap2\n      swap1\n      tag_33\n      jump\t// in\n    tag_32:\n      mload(0x40)\n      dup1\n      swap2\n      sub\n      swap1\n      0x00\n      create\n      dup1\n      iszero\n      dup1\n      iszero\n      tag_34\n      jumpi\n      returndatasize\n      0x00\n      dup1\n      returndatacopy\n      revert(0x00, returndatasize)\n    tag_34:\n      pop\n        /* \"Campaign.sol\":399:506  Campaign newCampaign = new Campaign(msg.sender, campaignName, requiredBalance, requiredCost, deadline, min) */\n      swap1\n      pop\n        /* \"Campaign.sol\":517:534  deployedCampaigns */\n      0x00\n        /* \"Campaign.sol\":548:559  newCampaign */\n      dup2\n        /* \"Campaign.sol\":517:561  deployedCampaigns.push(address(newCampaign)) */\n      swap1\n      dup1\n      0x01\n      dup2\n      sload\n      add\n      dup1\n      dup3\n      sstore\n      dup1\n      swap2\n      pop\n      pop\n      0x01\n      swap1\n      sub\n      swap1\n      0x00\n      mstore\n      keccak256(0x00, 0x20)\n      add\n      0x00\n      swap1\n      swap2\n      swap1\n      swap2\n      swap1\n      swap2\n      0x0100\n      exp\n      dup2\n      sload\n      dup2\n      0xffffffffffffffffffffffffffffffffffffffff\n      mul\n      not\n      and\n      swap1\n      dup4\n      0xffffffffffffffffffffffffffffffffffffffff\n      and\n      mul\n      or\n      swap1\n      sstore\n      pop\n        /* \"Campaign.sol\":572:585  campaignsName */\n      0x01\n        /* \"Campaign.sol\":591:603  campaignName */\n      dup8\n        /* \"Campaign.sol\":572:604  campaignsName.push(campaignName) */\n      swap1\n      dup1\n      0x01\n      dup2\n      sload\n      add\n      dup1\n      dup3\n      sstore\n      dup1\n      swap2\n      pop\n      pop\n      0x01\n      swap1\n      sub\n      swap1\n      0x00\n      mstore\n      keccak256(0x00, 0x20)\n      add\n      0x00\n      swap1\n      swap2\n      swap1\n      swap2\n      swap1\n      swap2\n      pop\n      swap1\n      dup1\n      mload\n      swap1\n      0x20\n      add\n      swap1\n      tag_37\n      swap3\n      swap2\n      swap1\n      tag_38\n      jump\t// in\n    tag_37:\n      pop\n        /* \"Campaign.sol\":615:624  deadlines */\n      0x02\n        /* \"Campaign.sol\":630:638  deadline */\n      dup5\n        /* \"Campaign.sol\":615:639  deadlines.push(deadline) */\n      swap1\n      dup1\n      0x01\n      dup2\n      sload\n      add\n      dup1\n      dup3\n      sstore\n      dup1\n      swap2\n      pop\n      pop\n      0x01\n      swap1\n      sub\n      swap1\n      0x00\n      mstore\n      keccak256(0x00, 0x20)\n      add\n      0x00\n      swap1\n      swap2\n      swap1\n      swap2\n      swap1\n      swap2\n      pop\n      sstore\n        /* \"Campaign.sol\":665:676  newCampaign */\n      dup1\n        /* \"Campaign.sol\":650:677  return address(newCampaign) */\n      swap2\n      pop\n      pop\n        /* \"Campaign.sol\":242:685  function createCampaign(string memory campaignName, uint requiredBalance, uint requiredCost, uint256 deadline, uint min) public returns (address) {... */\n      swap6\n      swap5\n      pop\n      pop\n      pop\n      pop\n      pop\n      jump\t// out\n    tag_31:\n      dataSize(sub_0)\n      dup1\n      dataOffset(sub_0)\n      dup4\n      codecopy\n      add\n      swap1\n      jump\t// out\n    tag_38:\n      dup3\n      dup1\n      sload\n      tag_40\n      swap1\n      tag_22\n      jump\t// in\n    tag_40:\n      swap1\n      0x00\n      mstore\n      keccak256(0x00, 0x20)\n      swap1\n      0x1f\n      add\n      0x20\n      swap1\n      div\n      dup2\n      add\n      swap3\n      dup3\n      tag_42\n      jumpi\n      0x00\n      dup6\n      sstore\n      jump(tag_41)\n    tag_42:\n      dup3\n      0x1f\n      lt\n      tag_43\n      jumpi\n      dup1\n      mload\n      not(0xff)\n      and\n      dup4\n      dup1\n      add\n      or\n      dup6\n      sstore\n      jump(tag_41)\n    tag_43:\n      dup3\n      dup1\n      add\n      0x01\n      add\n      dup6\n      sstore\n      dup3\n      iszero\n      tag_41\n      jumpi\n      swap2\n      dup3\n      add\n    tag_44:\n      dup3\n      dup2\n      gt\n      iszero\n      tag_45\n      jumpi\n      dup3\n      mload\n      dup3\n      sstore\n      swap2\n      0x20\n      add\n      swap2\n      swap1\n      0x01\n      add\n      swap1\n      jump(tag_44)\n    tag_45:\n    tag_41:\n      pop\n      swap1\n      pop\n      tag_46\n      swap2\n      swap1\n      tag_47\n      jump\t// in\n    tag_46:\n      pop\n      swap1\n      jump\t// out\n    tag_47:\n    tag_48:\n      dup1\n      dup3\n      gt\n      iszero\n      tag_49\n      jumpi\n      0x00\n      dup2\n      0x00\n      swap1\n      sstore\n      pop\n      0x01\n      add\n      jump(tag_48)\n    tag_49:\n      pop\n      swap1\n      jump\t// out\n        /* \"#utility.yul\":7:121   */\n    tag_50:\n        /* \"#utility.yul\":74:80   */\n      0x00\n        /* \"#utility.yul\":108:113   */\n      dup2\n        /* \"#utility.yul\":102:114   */\n      mload\n        /* \"#utility.yul\":92:114   */\n      swap1\n      pop\n        /* \"#utility.yul\":7:121   */\n      swap2\n      swap1\n      pop\n      jump\t// out\n        /* \"#utility.yul\":127:311   */\n    tag_51:\n        /* \"#utility.yul\":226:237   */\n      0x00\n        /* \"#utility.yul\":260:266   */\n      dup3\n        /* \"#utility.yul\":255:258   */\n      dup3\n        /* \"#utility.yul\":248:267   */\n      mstore\n        /* \"#utility.yul\":300:304   */\n      0x20\n        /* \"#utility.yul\":295:298   */\n      dup3\n        /* \"#utility.yul\":291:305   */\n      add\n        /* \"#utility.yul\":276:305   */\n      swap1\n      pop\n        /* \"#utility.yul\":127:311   */\n      swap3\n      swap2\n      pop\n      pop\n      jump\t// out\n        /* \"#utility.yul\":317:449   */\n    tag_52:\n        /* \"#utility.yul\":384:388   */\n      0x00\n        /* \"#utility.yul\":407:410   */\n      dup2\n        /* \"#utility.yul\":399:410   */\n      swap1\n      pop\n        /* \"#utility.yul\":437:441   */\n      0x20\n        /* \"#utility.yul\":432:435   */\n      dup3\n        /* \"#utility.yul\":428:442   */\n      add\n        /* \"#utility.yul\":420:442   */\n      swap1\n      pop\n        /* \"#utility.yul\":317:449   */\n      swap2\n      swap1\n      pop\n      jump\t// out\n        /* \"#utility.yul\":455:581   */\n    tag_53:\n        /* \"#utility.yul\":492:499   */\n      0x00\n        /* \"#utility.yul\":532:574   */\n      0xffffffffffffffffffffffffffffffffffffffff\n        /* \"#utility.yul\":525:530   */\n      dup3\n        /* \"#utility.yul\":521:575   */\n      and\n        /* \"#utility.yul\":510:575   */\n      swap1\n      pop\n        /* \"#utility.yul\":455:581   */\n      swap2\n      swap1\n      pop\n      jump\t// out\n        /* \"#utility.yul\":587:683   */\n    tag_54:\n        /* \"#utility.yul\":624:631   */\n      0x00\n        /* \"#utility.yul\":653:677   */\n      tag_103\n        /* \"#utility.yul\":671:676   */\n      dup3\n        /* \"#utility.yul\":653:677   */\n      tag_53\n      jump\t// in\n    tag_103:\n        /* \"#utility.yul\":642:677   */\n      swap1\n      pop\n        /* \"#utility.yul\":587:683   */\n      swap2\n      swap1\n      pop\n      jump\t// out\n        /* \"#utility.yul\":689:797   */\n    tag_55:\n        /* \"#utility.yul\":766:790   */\n      tag_105\n        /* \"#utility.yul\":784:789   */\n      dup2\n        /* \"#utility.yul\":766:790   */\n      tag_54\n      jump\t// in\n    tag_105:\n        /* \"#utility.yul\":761:764   */\n      dup3\n        /* \"#utility.yul\":754:791   */\n      mstore\n        /* \"#utility.yul\":689:797   */\n      pop\n      pop\n      jump\t// out\n        /* \"#utility.yul\":803:982   */\n    tag_56:\n        /* \"#utility.yul\":872:882   */\n      0x00\n        /* \"#utility.yul\":893:939   */\n      tag_107\n        /* \"#utility.yul\":935:938   */\n      dup4\n        /* \"#utility.yul\":927:933   */\n      dup4\n        /* \"#utility.yul\":893:939   */\n      tag_55\n      jump\t// in\n    tag_107:\n        /* \"#utility.yul\":971:975   */\n      0x20\n        /* \"#utility.yul\":966:969   */\n      dup4\n        /* \"#utility.yul\":962:976   */\n      add\n        /* \"#utility.yul\":948:976   */\n      swap1\n      pop\n        /* \"#utility.yul\":803:982   */\n      swap3\n      swap2\n      pop\n      pop\n      jump\t// out\n        /* \"#utility.yul\":988:1101   */\n    tag_57:\n        /* \"#utility.yul\":1058:1062   */\n      0x00\n        /* \"#utility.yul\":1090:1094   */\n      0x20\n        /* \"#utility.yul\":1085:1088   */\n      dup3\n        /* \"#utility.yul\":1081:1095   */\n      add\n        /* \"#utility.yul\":1073:1095   */\n      swap1\n      pop\n        /* \"#utility.yul\":988:1101   */\n      swap2\n      swap1\n      pop\n      jump\t// out\n        /* \"#utility.yul\":1137:1869   */\n    tag_58:\n        /* \"#utility.yul\":1256:1259   */\n      0x00\n        /* \"#utility.yul\":1285:1339   */\n      tag_110\n        /* \"#utility.yul\":1333:1338   */\n      dup3\n        /* \"#utility.yul\":1285:1339   */\n      tag_50\n      jump\t// in\n    tag_110:\n        /* \"#utility.yul\":1355:1441   */\n      tag_111\n        /* \"#utility.yul\":1434:1440   */\n      dup2\n        /* \"#utility.yul\":1429:1432   */\n      dup6\n        /* \"#utility.yul\":1355:1441   */\n      tag_51\n      jump\t// in\n    tag_111:\n        /* \"#utility.yul\":1348:1441   */\n      swap4\n      pop\n        /* \"#utility.yul\":1465:1521   */\n      tag_112\n        /* \"#utility.yul\":1515:1520   */\n      dup4\n        /* \"#utility.yul\":1465:1521   */\n      tag_52\n      jump\t// in\n    tag_112:\n        /* \"#utility.yul\":1544:1551   */\n      dup1\n        /* \"#utility.yul\":1575:1576   */\n      0x00\n        /* \"#utility.yul\":1560:1844   */\n    tag_113:\n        /* \"#utility.yul\":1585:1591   */\n      dup4\n        /* \"#utility.yul\":1582:1583   */\n      dup2\n        /* \"#utility.yul\":1579:1592   */\n      lt\n        /* \"#utility.yul\":1560:1844   */\n      iszero\n      tag_115\n      jumpi\n        /* \"#utility.yul\":1661:1667   */\n      dup2\n        /* \"#utility.yul\":1655:1668   */\n      mload\n        /* \"#utility.yul\":1688:1751   */\n      tag_116\n        /* \"#utility.yul\":1747:1750   */\n      dup9\n        /* \"#utility.yul\":1732:1745   */\n      dup3\n        /* \"#utility.yul\":1688:1751   */\n      tag_56\n      jump\t// in\n    tag_116:\n        /* \"#utility.yul\":1681:1751   */\n      swap8\n      pop\n        /* \"#utility.yul\":1774:1834   */\n      tag_117\n        /* \"#utility.yul\":1827:1833   */\n      dup4\n        /* \"#utility.yul\":1774:1834   */\n      tag_57\n      jump\t// in\n    tag_117:\n        /* \"#utility.yul\":1764:1834   */\n      swap3\n      pop\n        /* \"#utility.yul\":1620:1844   */\n      pop\n        /* \"#utility.yul\":1607:1608   */\n      0x01\n        /* \"#utility.yul\":1604:1605   */\n      dup2\n        /* \"#utility.yul\":1600:1609   */\n      add\n        /* \"#utility.yul\":1595:1609   */\n      swap1\n      pop\n        /* \"#utility.yul\":1560:1844   */\n      jump(tag_113)\n    tag_115:\n        /* \"#utility.yul\":1564:1578   */\n      pop\n        /* \"#utility.yul\":1860:1863   */\n      dup6\n        /* \"#utility.yul\":1853:1863   */\n      swap4\n      pop\n        /* \"#utility.yul\":1261:1869   */\n      pop\n      pop\n      pop\n        /* \"#utility.yul\":1137:1869   */\n      swap3\n      swap2\n      pop\n      pop\n      jump\t// out\n        /* \"#utility.yul\":1875:1999   */\n    tag_59:\n        /* \"#utility.yul\":1952:1958   */\n      0x00\n        /* \"#utility.yul\":1986:1991   */\n      dup2\n        /* \"#utility.yul\":1980:1992   */\n      mload\n        /* \"#utility.yul\":1970:1992   */\n      swap1\n      pop\n        /* \"#utility.yul\":1875:1999   */\n      swap2\n      swap1\n      pop\n      jump\t// out\n        /* \"#utility.yul\":2005:2199   */\n    tag_60:\n        /* \"#utility.yul\":2114:2125   */\n      0x00\n        /* \"#utility.yul\":2148:2154   */\n      dup3\n        /* \"#utility.yul\":2143:2146   */\n      dup3\n        /* \"#utility.yul\":2136:2155   */\n      mstore\n        /* \"#utility.yul\":2188:2192   */\n      0x20\n        /* \"#utility.yul\":2183:2186   */\n      dup3\n        /* \"#utility.yul\":2179:2193   */\n      add\n        /* \"#utility.yul\":2164:2193   */\n      swap1\n      pop\n        /* \"#utility.yul\":2005:2199   */\n      swap3\n      swap2\n      pop\n      pop\n      jump\t// out\n        /* \"#utility.yul\":2205:2347   */\n    tag_61:\n        /* \"#utility.yul\":2282:2286   */\n      0x00\n        /* \"#utility.yul\":2305:2308   */\n      dup2\n        /* \"#utility.yul\":2297:2308   */\n      swap1\n      pop\n        /* \"#utility.yul\":2335:2339   */\n      0x20\n        /* \"#utility.yul\":2330:2333   */\n      dup3\n        /* \"#utility.yul\":2326:2340   */\n      add\n        /* \"#utility.yul\":2318:2340   */\n      swap1\n      pop\n        /* \"#utility.yul\":2205:2347   */\n      swap2\n      swap1\n      pop\n      jump\t// out\n        /* \"#utility.yul\":2353:2452   */\n    tag_62:\n        /* \"#utility.yul\":2405:2411   */\n      0x00\n        /* \"#utility.yul\":2439:2444   */\n      dup2\n        /* \"#utility.yul\":2433:2445   */\n      mload\n        /* \"#utility.yul\":2423:2445   */\n      swap1\n      pop\n        /* \"#utility.yul\":2353:2452   */\n      swap2\n      swap1\n      pop\n      jump\t// out\n        /* \"#utility.yul\":2458:2617   */\n    tag_63:\n        /* \"#utility.yul\":2532:2543   */\n      0x00\n        /* \"#utility.yul\":2566:2572   */\n      dup3\n        /* \"#utility.yul\":2561:2564   */\n      dup3\n        /* \"#utility.yul\":2554:2573   */\n      mstore\n        /* \"#utility.yul\":2606:2610   */\n      0x20\n        /* \"#utility.yul\":2601:2604   */\n      dup3\n        /* \"#utility.yul\":2597:2611   */\n      add\n        /* \"#utility.yul\":2582:2611   */\n      swap1\n      pop\n        /* \"#utility.yul\":2458:2617   */\n      swap3\n      swap2\n      pop\n      pop\n      jump\t// out\n        /* \"#utility.yul\":2623:2930   */\n    tag_64:\n        /* \"#utility.yul\":2691:2692   */\n      0x00\n        /* \"#utility.yul\":2701:2814   */\n    tag_124:\n        /* \"#utility.yul\":2715:2721   */\n      dup4\n        /* \"#utility.yul\":2712:2713   */\n      dup2\n        /* \"#utility.yul\":2709:2722   */\n      lt\n        /* \"#utility.yul\":2701:2814   */\n      iszero\n      tag_126\n      jumpi\n        /* \"#utility.yul\":2800:2801   */\n      dup1\n        /* \"#utility.yul\":2795:2798   */\n      dup3\n        /* \"#utility.yul\":2791:2802   */\n      add\n        /* \"#utility.yul\":2785:2803   */\n      mload\n        /* \"#utility.yul\":2781:2782   */\n      dup2\n        /* \"#utility.yul\":2776:2779   */\n      dup5\n        /* \"#utility.yul\":2772:2783   */\n      add\n        /* \"#utility.yul\":2765:2804   */\n      mstore\n        /* \"#utility.yul\":2737:2739   */\n      0x20\n        /* \"#utility.yul\":2734:2735   */\n      dup2\n        /* \"#utility.yul\":2730:2740   */\n      add\n        /* \"#utility.yul\":2725:2740   */\n      swap1\n      pop\n        /* \"#utility.yul\":2701:2814   */\n      jump(tag_124)\n    tag_126:\n        /* \"#utility.yul\":2832:2838   */\n      dup4\n        /* \"#utility.yul\":2829:2830   */\n      dup2\n        /* \"#utility.yul\":2826:2839   */\n      gt\n        /* \"#utility.yul\":2823:2924   */\n      iszero\n      tag_127\n      jumpi\n        /* \"#utility.yul\":2912:2913   */\n      0x00\n        /* \"#utility.yul\":2903:2909   */\n      dup5\n        /* \"#utility.yul\":2898:2901   */\n      dup5\n        /* \"#utility.yul\":2894:2910   */\n      add\n        /* \"#utility.yul\":2887:2914   */\n      mstore\n        /* \"#utility.yul\":2823:2924   */\n    tag_127:\n        /* \"#utility.yul\":2672:2930   */\n      pop\n        /* \"#utility.yul\":2623:2930   */\n      pop\n      pop\n      pop\n      jump\t// out\n        /* \"#utility.yul\":2936:3038   */\n    tag_65:\n        /* \"#utility.yul\":2977:2983   */\n      0x00\n        /* \"#utility.yul\":3028:3030   */\n      0x1f\n        /* \"#utility.yul\":3024:3031   */\n      not\n        /* \"#utility.yul\":3019:3021   */\n      0x1f\n        /* \"#utility.yul\":3012:3017   */\n      dup4\n        /* \"#utility.yul\":3008:3022   */\n      add\n        /* \"#utility.yul\":3004:3032   */\n      and\n        /* \"#utility.yul\":2994:3032   */\n      swap1\n      pop\n        /* \"#utility.yul\":2936:3038   */\n      swap2\n      swap1\n      pop\n      jump\t// out\n        /* \"#utility.yul\":3044:3388   */\n    tag_66:\n        /* \"#utility.yul\":3122:3125   */\n      0x00\n        /* \"#utility.yul\":3150:3189   */\n      tag_130\n        /* \"#utility.yul\":3183:3188   */\n      dup3\n        /* \"#utility.yul\":3150:3189   */\n      tag_62\n      jump\t// in\n    tag_130:\n        /* \"#utility.yul\":3205:3266   */\n      tag_131\n        /* \"#utility.yul\":3259:3265   */\n      dup2\n        /* \"#utility.yul\":3254:3257   */\n      dup6\n        /* \"#utility.yul\":3205:3266   */\n      tag_63\n      jump\t// in\n    tag_131:\n        /* \"#utility.yul\":3198:3266   */\n      swap4\n      pop\n        /* \"#utility.yul\":3275:3327   */\n      tag_132\n        /* \"#utility.yul\":3320:3326   */\n      dup2\n        /* \"#utility.yul\":3315:3318   */\n      dup6\n        /* \"#utility.yul\":3308:3312   */\n      0x20\n        /* \"#utility.yul\":3301:3306   */\n      dup7\n        /* \"#utility.yul\":3297:3313   */\n      add\n        /* \"#utility.yul\":3275:3327   */\n      tag_64\n      jump\t// in\n    tag_132:\n        /* \"#utility.yul\":3352:3381   */\n      tag_133\n        /* \"#utility.yul\":3374:3380   */\n      dup2\n        /* \"#utility.yul\":3352:3381   */\n      tag_65\n      jump\t// in\n    tag_133:\n        /* \"#utility.yul\":3347:3350   */\n      dup5\n        /* \"#utility.yul\":3343:3382   */\n      add\n        /* \"#utility.yul\":3336:3382   */\n      swap2\n      pop\n        /* \"#utility.yul\":3126:3388   */\n      pop\n        /* \"#utility.yul\":3044:3388   */\n      swap3\n      swap2\n      pop\n      pop\n      jump\t// out\n        /* \"#utility.yul\":3394:3590   */\n    tag_67:\n        /* \"#utility.yul\":3483:3493   */\n      0x00\n        /* \"#utility.yul\":3518:3584   */\n      tag_135\n        /* \"#utility.yul\":3580:3583   */\n      dup4\n        /* \"#utility.yul\":3572:3578   */\n      dup4\n        /* \"#utility.yul\":3518:3584   */\n      tag_66\n      jump\t// in\n    tag_135:\n        /* \"#utility.yul\":3504:3584   */\n      swap1\n      pop\n        /* \"#utility.yul\":3394:3590   */\n      swap3\n      swap2\n      pop\n      pop\n      jump\t// out\n        /* \"#utility.yul\":3596:3719   */\n    tag_68:\n        /* \"#utility.yul\":3676:3680   */\n      0x00\n        /* \"#utility.yul\":3708:3712   */\n      0x20\n        /* \"#utility.yul\":3703:3706   */\n      dup3\n        /* \"#utility.yul\":3699:3713   */\n      add\n        /* \"#utility.yul\":3691:3713   */\n      swap1\n      pop\n        /* \"#utility.yul\":3596:3719   */\n      swap2\n      swap1\n      pop\n      jump\t// out\n        /* \"#utility.yul\":3753:4744   */\n    tag_69:\n        /* \"#utility.yul\":3892:3895   */\n      0x00\n        /* \"#utility.yul\":3921:3985   */\n      tag_138\n        /* \"#utility.yul\":3979:3984   */\n      dup3\n        /* \"#utility.yul\":3921:3985   */\n      tag_59\n      jump\t// in\n    tag_138:\n        /* \"#utility.yul\":4001:4097   */\n      tag_139\n        /* \"#utility.yul\":4090:4096   */\n      dup2\n        /* \"#utility.yul\":4085:4088   */\n      dup6\n        /* \"#utility.yul\":4001:4097   */\n      tag_60\n      jump\t// in\n    tag_139:\n        /* \"#utility.yul\":3994:4097   */\n      swap4\n      pop\n        /* \"#utility.yul\":4123:4126   */\n      dup4\n        /* \"#utility.yul\":4168:4172   */\n      0x20\n        /* \"#utility.yul\":4160:4166   */\n      dup3\n        /* \"#utility.yul\":4156:4173   */\n      mul\n        /* \"#utility.yul\":4151:4154   */\n      dup6\n        /* \"#utility.yul\":4147:4174   */\n      add\n        /* \"#utility.yul\":4198:4264   */\n      tag_140\n        /* \"#utility.yul\":4258:4263   */\n      dup6\n        /* \"#utility.yul\":4198:4264   */\n      tag_61\n      jump\t// in\n    tag_140:\n        /* \"#utility.yul\":4287:4294   */\n      dup1\n        /* \"#utility.yul\":4318:4319   */\n      0x00\n        /* \"#utility.yul\":4303:4699   */\n    tag_141:\n        /* \"#utility.yul\":4328:4334   */\n      dup6\n        /* \"#utility.yul\":4325:4326   */\n      dup2\n        /* \"#utility.yul\":4322:4335   */\n      lt\n        /* \"#utility.yul\":4303:4699   */\n      iszero\n      tag_143\n      jumpi\n        /* \"#utility.yul\":4399:4408   */\n      dup5\n        /* \"#utility.yul\":4393:4397   */\n      dup5\n        /* \"#utility.yul\":4389:4409   */\n      sub\n        /* \"#utility.yul\":4384:4387   */\n      dup10\n        /* \"#utility.yul\":4377:4410   */\n      mstore\n        /* \"#utility.yul\":4450:4456   */\n      dup2\n        /* \"#utility.yul\":4444:4457   */\n      mload\n        /* \"#utility.yul\":4478:4562   */\n      tag_144\n        /* \"#utility.yul\":4557:4561   */\n      dup6\n        /* \"#utility.yul\":4542:4555   */\n      dup3\n        /* \"#utility.yul\":4478:4562   */\n      tag_67\n      jump\t// in\n    tag_144:\n        /* \"#utility.yul\":4470:4562   */\n      swap5\n      pop\n        /* \"#utility.yul\":4585:4655   */\n      tag_145\n        /* \"#utility.yul\":4648:4654   */\n      dup4\n        /* \"#utility.yul\":4585:4655   */\n      tag_68\n      jump\t// in\n    tag_145:\n        /* \"#utility.yul\":4575:4655   */\n      swap3\n      pop\n        /* \"#utility.yul\":4684:4688   */\n      0x20\n        /* \"#utility.yul\":4679:4682   */\n      dup11\n        /* \"#utility.yul\":4675:4689   */\n      add\n        /* \"#utility.yul\":4668:4689   */\n      swap10\n      pop\n        /* \"#utility.yul\":4363:4699   */\n      pop\n        /* \"#utility.yul\":4350:4351   */\n      0x01\n        /* \"#utility.yul\":4347:4348   */\n      dup2\n        /* \"#utility.yul\":4343:4352   */\n      add\n        /* \"#utility.yul\":4338:4352   */\n      swap1\n      pop\n        /* \"#utility.yul\":4303:4699   */\n      jump(tag_141)\n    tag_143:\n        /* \"#utility.yul\":4307:4321   */\n      pop\n        /* \"#utility.yul\":4715:4719   */\n      dup3\n        /* \"#utility.yul\":4708:4719   */\n      swap8\n      pop\n        /* \"#utility.yul\":4735:4738   */\n      dup8\n        /* \"#utility.yul\":4728:4738   */\n      swap6\n      pop\n        /* \"#utility.yul\":3897:4744   */\n      pop\n      pop\n      pop\n      pop\n      pop\n        /* \"#utility.yul\":3753:4744   */\n      swap3\n      swap2\n      pop\n      pop\n      jump\t// out\n        /* \"#utility.yul\":4750:4864   */\n    tag_70:\n        /* \"#utility.yul\":4817:4823   */\n      0x00\n        /* \"#utility.yul\":4851:4856   */\n      dup2\n        /* \"#utility.yul\":4845:4857   */\n      mload\n        /* \"#utility.yul\":4835:4857   */\n      swap1\n      pop\n        /* \"#utility.yul\":4750:4864   */\n      swap2\n      swap1\n      pop\n      jump\t// out\n        /* \"#utility.yul\":4870:5054   */\n    tag_71:\n        /* \"#utility.yul\":4969:4980   */\n      0x00\n        /* \"#utility.yul\":5003:5009   */\n      dup3\n        /* \"#utility.yul\":4998:5001   */\n      dup3\n        /* \"#utility.yul\":4991:5010   */\n      mstore\n        /* \"#utility.yul\":5043:5047   */\n      0x20\n        /* \"#utility.yul\":5038:5041   */\n      dup3\n        /* \"#utility.yul\":5034:5048   */\n      add\n        /* \"#utility.yul\":5019:5048   */\n      swap1\n      pop\n        /* \"#utility.yul\":4870:5054   */\n      swap3\n      swap2\n      pop\n      pop\n      jump\t// out\n        /* \"#utility.yul\":5060:5192   */\n    tag_72:\n        /* \"#utility.yul\":5127:5131   */\n      0x00\n        /* \"#utility.yul\":5150:5153   */\n      dup2\n        /* \"#utility.yul\":5142:5153   */\n      swap1\n      pop\n        /* \"#utility.yul\":5180:5184   */\n      0x20\n        /* \"#utility.yul\":5175:5178   */\n      dup3\n        /* \"#utility.yul\":5171:5185   */\n      add\n        /* \"#utility.yul\":5163:5185   */\n      swap1\n      pop\n        /* \"#utility.yul\":5060:5192   */\n      swap2\n      swap1\n      pop\n      jump\t// out\n        /* \"#utility.yul\":5198:5275   */\n    tag_73:\n        /* \"#utility.yul\":5235:5242   */\n      0x00\n        /* \"#utility.yul\":5264:5269   */\n      dup2\n        /* \"#utility.yul\":5253:5269   */\n      swap1\n      pop\n        /* \"#utility.yul\":5198:5275   */\n      swap2\n      swap1\n      pop\n      jump\t// out\n        /* \"#utility.yul\":5281:5389   */\n    tag_74:\n        /* \"#utility.yul\":5358:5382   */\n      tag_151\n        /* \"#utility.yul\":5376:5381   */\n      dup2\n        /* \"#utility.yul\":5358:5382   */\n      tag_73\n      jump\t// in\n    tag_151:\n        /* \"#utility.yul\":5353:5356   */\n      dup3\n        /* \"#utility.yul\":5346:5383   */\n      mstore\n        /* \"#utility.yul\":5281:5389   */\n      pop\n      pop\n      jump\t// out\n        /* \"#utility.yul\":5395:5574   */\n    tag_75:\n        /* \"#utility.yul\":5464:5474   */\n      0x00\n        /* \"#utility.yul\":5485:5531   */\n      tag_153\n        /* \"#utility.yul\":5527:5530   */\n      dup4\n        /* \"#utility.yul\":5519:5525   */\n      dup4\n        /* \"#utility.yul\":5485:5531   */\n      tag_74\n      jump\t// in\n    tag_153:\n        /* \"#utility.yul\":5563:5567   */\n      0x20\n        /* \"#utility.yul\":5558:5561   */\n      dup4\n        /* \"#utility.yul\":5554:5568   */\n      add\n        /* \"#utility.yul\":5540:5568   */\n      swap1\n      pop\n        /* \"#utility.yul\":5395:5574   */\n      swap3\n      swap2\n      pop\n      pop\n      jump\t// out\n        /* \"#utility.yul\":5580:5693   */\n    tag_76:\n        /* \"#utility.yul\":5650:5654   */\n      0x00\n        /* \"#utility.yul\":5682:5686   */\n      0x20\n        /* \"#utility.yul\":5677:5680   */\n      dup3\n        /* \"#utility.yul\":5673:5687   */\n      add\n        /* \"#utility.yul\":5665:5687   */\n      swap1\n      pop\n        /* \"#utility.yul\":5580:5693   */\n      swap2\n      swap1\n      pop\n      jump\t// out\n        /* \"#utility.yul\":5729:6461   */\n    tag_77:\n        /* \"#utility.yul\":5848:5851   */\n      0x00\n        /* \"#utility.yul\":5877:5931   */\n      tag_156\n        /* \"#utility.yul\":5925:5930   */\n      dup3\n        /* \"#utility.yul\":5877:5931   */\n      tag_70\n      jump\t// in\n    tag_156:\n        /* \"#utility.yul\":5947:6033   */\n      tag_157\n        /* \"#utility.yul\":6026:6032   */\n      dup2\n        /* \"#utility.yul\":6021:6024   */\n      dup6\n        /* \"#utility.yul\":5947:6033   */\n      tag_71\n      jump\t// in\n    tag_157:\n        /* \"#utility.yul\":5940:6033   */\n      swap4\n      pop\n        /* \"#utility.yul\":6057:6113   */\n      tag_158\n        /* \"#utility.yul\":6107:6112   */\n      dup4\n        /* \"#utility.yul\":6057:6113   */\n      tag_72\n      jump\t// in\n    tag_158:\n        /* \"#utility.yul\":6136:6143   */\n      dup1\n        /* \"#utility.yul\":6167:6168   */\n      0x00\n        /* \"#utility.yul\":6152:6436   */\n    tag_159:\n        /* \"#utility.yul\":6177:6183   */\n      dup4\n        /* \"#utility.yul\":6174:6175   */\n      dup2\n        /* \"#utility.yul\":6171:6184   */\n      lt\n        /* \"#utility.yul\":6152:6436   */\n      iszero\n      tag_161\n      jumpi\n        /* \"#utility.yul\":6253:6259   */\n      dup2\n        /* \"#utility.yul\":6247:6260   */\n      mload\n        /* \"#utility.yul\":6280:6343   */\n      tag_162\n        /* \"#utility.yul\":6339:6342   */\n      dup9\n        /* \"#utility.yul\":6324:6337   */\n      dup3\n        /* \"#utility.yul\":6280:6343   */\n      tag_75\n      jump\t// in\n    tag_162:\n        /* \"#utility.yul\":6273:6343   */\n      swap8\n      pop\n        /* \"#utility.yul\":6366:6426   */\n      tag_163\n        /* \"#utility.yul\":6419:6425   */\n      dup4\n        /* \"#utility.yul\":6366:6426   */\n      tag_76\n      jump\t// in\n    tag_163:\n        /* \"#utility.yul\":6356:6426   */\n      swap3\n      pop\n        /* \"#utility.yul\":6212:6436   */\n      pop\n        /* \"#utility.yul\":6199:6200   */\n      0x01\n        /* \"#utility.yul\":6196:6197   */\n      dup2\n        /* \"#utility.yul\":6192:6201   */\n      add\n        /* \"#utility.yul\":6187:6201   */\n      swap1\n      pop\n        /* \"#utility.yul\":6152:6436   */\n      jump(tag_159)\n    tag_161:\n        /* \"#utility.yul\":6156:6170   */\n      pop\n        /* \"#utility.yul\":6452:6455   */\n      dup6\n        /* \"#utility.yul\":6445:6455   */\n      swap4\n      pop\n        /* \"#utility.yul\":5853:6461   */\n      pop\n      pop\n      pop\n        /* \"#utility.yul\":5729:6461   */\n      swap3\n      swap2\n      pop\n      pop\n      jump\t// out\n        /* \"#utility.yul\":6467:7402   */\n    tag_8:\n        /* \"#utility.yul\":6786:6790   */\n      0x00\n        /* \"#utility.yul\":6824:6826   */\n      0x60\n        /* \"#utility.yul\":6813:6822   */\n      dup3\n        /* \"#utility.yul\":6809:6827   */\n      add\n        /* \"#utility.yul\":6801:6827   */\n      swap1\n      pop\n        /* \"#utility.yul\":6873:6882   */\n      dup2\n        /* \"#utility.yul\":6867:6871   */\n      dup2\n        /* \"#utility.yul\":6863:6883   */\n      sub\n        /* \"#utility.yul\":6859:6860   */\n      0x00\n        /* \"#utility.yul\":6848:6857   */\n      dup4\n        /* \"#utility.yul\":6844:6861   */\n      add\n        /* \"#utility.yul\":6837:6884   */\n      mstore\n        /* \"#utility.yul\":6901:7009   */\n      tag_165\n        /* \"#utility.yul\":7004:7008   */\n      dup2\n        /* \"#utility.yul\":6995:7001   */\n      dup7\n        /* \"#utility.yul\":6901:7009   */\n      tag_58\n      jump\t// in\n    tag_165:\n        /* \"#utility.yul\":6893:7009   */\n      swap1\n      pop\n        /* \"#utility.yul\":7056:7065   */\n      dup2\n        /* \"#utility.yul\":7050:7054   */\n      dup2\n        /* \"#utility.yul\":7046:7066   */\n      sub\n        /* \"#utility.yul\":7041:7043   */\n      0x20\n        /* \"#utility.yul\":7030:7039   */\n      dup4\n        /* \"#utility.yul\":7026:7044   */\n      add\n        /* \"#utility.yul\":7019:7067   */\n      mstore\n        /* \"#utility.yul\":7084:7212   */\n      tag_166\n        /* \"#utility.yul\":7207:7211   */\n      dup2\n        /* \"#utility.yul\":7198:7204   */\n      dup6\n        /* \"#utility.yul\":7084:7212   */\n      tag_69\n      jump\t// in\n    tag_166:\n        /* \"#utility.yul\":7076:7212   */\n      swap1\n      pop\n        /* \"#utility.yul\":7259:7268   */\n      dup2\n        /* \"#utility.yul\":7253:7257   */\n      dup2\n        /* \"#utility.yul\":7249:7269   */\n      sub\n        /* \"#utility.yul\":7244:7246   */\n      0x40\n        /* \"#utility.yul\":7233:7242   */\n      dup4\n        /* \"#utility.yul\":7229:7247   */\n      add\n        /* \"#utility.yul\":7222:7270   */\n      mstore\n        /* \"#utility.yul\":7287:7395   */\n      tag_167\n        /* \"#utility.yul\":7390:7394   */\n      dup2\n        /* \"#utility.yul\":7381:7387   */\n      dup5\n        /* \"#utility.yul\":7287:7395   */\n      tag_77\n      jump\t// in\n    tag_167:\n        /* \"#utility.yul\":7279:7395   */\n      swap1\n      pop\n        /* \"#utility.yul\":6467:7402   */\n      swap5\n      swap4\n      pop\n      pop\n      pop\n      pop\n      jump\t// out\n        /* \"#utility.yul\":7408:7483   */\n    tag_78:\n        /* \"#utility.yul\":7441:7447   */\n      0x00\n        /* \"#utility.yul\":7474:7476   */\n      0x40\n        /* \"#utility.yul\":7468:7477   */\n      mload\n        /* \"#utility.yul\":7458:7477   */\n      swap1\n      pop\n        /* \"#utility.yul\":7408:7483   */\n      swap1\n      jump\t// out\n        /* \"#utility.yul\":7489:7606   */\n    tag_79:\n        /* \"#utility.yul\":7598:7599   */\n      0x00\n        /* \"#utility.yul\":7595:7596   */\n      dup1\n        /* \"#utility.yul\":7588:7600   */\n      revert\n        /* \"#utility.yul\":7612:7729   */\n    tag_80:\n        /* \"#utility.yul\":7721:7722   */\n      0x00\n        /* \"#utility.yul\":7718:7719   */\n      dup1\n        /* \"#utility.yul\":7711:7723   */\n      revert\n        /* \"#utility.yul\":7735:7852   */\n    tag_81:\n        /* \"#utility.yul\":7844:7845   */\n      0x00\n        /* \"#utility.yul\":7841:7842   */\n      dup1\n        /* \"#utility.yul\":7834:7846   */\n      revert\n        /* \"#utility.yul\":7858:7975   */\n    tag_82:\n        /* \"#utility.yul\":7967:7968   */\n      0x00\n        /* \"#utility.yul\":7964:7965   */\n      dup1\n        /* \"#utility.yul\":7957:7969   */\n      revert\n        /* \"#utility.yul\":7981:8161   */\n    tag_83:\n        /* \"#utility.yul\":8029:8106   */\n      0x4e487b7100000000000000000000000000000000000000000000000000000000\n        /* \"#utility.yul\":8026:8027   */\n      0x00\n        /* \"#utility.yul\":8019:8107   */\n      mstore\n        /* \"#utility.yul\":8126:8130   */\n      0x41\n        /* \"#utility.yul\":8123:8124   */\n      0x04\n        /* \"#utility.yul\":8116:8131   */\n      mstore\n        /* \"#utility.yul\":8150:8154   */\n      0x24\n        /* \"#utility.yul\":8147:8148   */\n      0x00\n        /* \"#utility.yul\":8140:8155   */\n      revert\n        /* \"#utility.yul\":8167:8448   */\n    tag_84:\n        /* \"#utility.yul\":8250:8277   */\n      tag_175\n        /* \"#utility.yul\":8272:8276   */\n      dup3\n        /* \"#utility.yul\":8250:8277   */\n      tag_65\n      jump\t// in\n    tag_175:\n        /* \"#utility.yul\":8242:8248   */\n      dup2\n        /* \"#utility.yul\":8238:8278   */\n      add\n        /* \"#utility.yul\":8380:8386   */\n      dup2\n        /* \"#utility.yul\":8368:8378   */\n      dup2\n        /* \"#utility.yul\":8365:8387   */\n      lt\n        /* \"#utility.yul\":8344:8362   */\n      0xffffffffffffffff\n        /* \"#utility.yul\":8332:8342   */\n      dup3\n        /* \"#utility.yul\":8329:8363   */\n      gt\n        /* \"#utility.yul\":8326:8388   */\n      or\n        /* \"#utility.yul\":8323:8411   */\n      iszero\n      tag_176\n      jumpi\n        /* \"#utility.yul\":8391:8409   */\n      tag_177\n      tag_83\n      jump\t// in\n    tag_177:\n        /* \"#utility.yul\":8323:8411   */\n    tag_176:\n        /* \"#utility.yul\":8431:8441   */\n      dup1\n        /* \"#utility.yul\":8427:8429   */\n      0x40\n        /* \"#utility.yul\":8420:8442   */\n      mstore\n        /* \"#utility.yul\":8210:8448   */\n      pop\n        /* \"#utility.yul\":8167:8448   */\n      pop\n      pop\n      jump\t// out\n        /* \"#utility.yul\":8454:8583   */\n    tag_85:\n        /* \"#utility.yul\":8488:8494   */\n      0x00\n        /* \"#utility.yul\":8515:8535   */\n      tag_179\n      tag_78\n      jump\t// in\n    tag_179:\n        /* \"#utility.yul\":8505:8535   */\n      swap1\n      pop\n        /* \"#utility.yul\":8544:8577   */\n      tag_180\n        /* \"#utility.yul\":8572:8576   */\n      dup3\n        /* \"#utility.yul\":8564:8570   */\n      dup3\n        /* \"#utility.yul\":8544:8577   */\n      tag_84\n      jump\t// in\n    tag_180:\n        /* \"#utility.yul\":8454:8583   */\n      swap2\n      swap1\n      pop\n      jump\t// out\n        /* \"#utility.yul\":8589:8897   */\n    tag_86:\n        /* \"#utility.yul\":8651:8655   */\n      0x00\n        /* \"#utility.yul\":8741:8759   */\n      0xffffffffffffffff\n        /* \"#utility.yul\":8733:8739   */\n      dup3\n        /* \"#utility.yul\":8730:8760   */\n      gt\n        /* \"#utility.yul\":8727:8783   */\n      iszero\n      tag_182\n      jumpi\n        /* \"#utility.yul\":8763:8781   */\n      tag_183\n      tag_83\n      jump\t// in\n    tag_183:\n        /* \"#utility.yul\":8727:8783   */\n    tag_182:\n        /* \"#utility.yul\":8801:8830   */\n      tag_184\n        /* \"#utility.yul\":8823:8829   */\n      dup3\n        /* \"#utility.yul\":8801:8830   */\n      tag_65\n      jump\t// in\n    tag_184:\n        /* \"#utility.yul\":8793:8830   */\n      swap1\n      pop\n        /* \"#utility.yul\":8885:8889   */\n      0x20\n        /* \"#utility.yul\":8879:8883   */\n      dup2\n        /* \"#utility.yul\":8875:8890   */\n      add\n        /* \"#utility.yul\":8867:8890   */\n      swap1\n      pop\n        /* \"#utility.yul\":8589:8897   */\n      swap2\n      swap1\n      pop\n      jump\t// out\n        /* \"#utility.yul\":8903:9057   */\n    tag_87:\n        /* \"#utility.yul\":8987:8993   */\n      dup3\n        /* \"#utility.yul\":8982:8985   */\n      dup2\n        /* \"#utility.yul\":8977:8980   */\n      dup4\n        /* \"#utility.yul\":8964:8994   */\n      calldatacopy\n        /* \"#utility.yul\":9049:9050   */\n      0x00\n        /* \"#utility.yul\":9040:9046   */\n      dup4\n        /* \"#utility.yul\":9035:9038   */\n      dup4\n        /* \"#utility.yul\":9031:9047   */\n      add\n        /* \"#utility.yul\":9024:9051   */\n      mstore\n        /* \"#utility.yul\":8903:9057   */\n      pop\n      pop\n      pop\n      jump\t// out\n        /* \"#utility.yul\":9063:9475   */\n    tag_88:\n        /* \"#utility.yul\":9141:9146   */\n      0x00\n        /* \"#utility.yul\":9166:9232   */\n      tag_187\n        /* \"#utility.yul\":9182:9231   */\n      tag_188\n        /* \"#utility.yul\":9224:9230   */\n      dup5\n        /* \"#utility.yul\":9182:9231   */\n      tag_86\n      jump\t// in\n    tag_188:\n        /* \"#utility.yul\":9166:9232   */\n      tag_85\n      jump\t// in\n    tag_187:\n        /* \"#utility.yul\":9157:9232   */\n      swap1\n      pop\n        /* \"#utility.yul\":9255:9261   */\n      dup3\n        /* \"#utility.yul\":9248:9253   */\n      dup2\n        /* \"#utility.yul\":9241:9262   */\n      mstore\n        /* \"#utility.yul\":9293:9297   */\n      0x20\n        /* \"#utility.yul\":9286:9291   */\n      dup2\n        /* \"#utility.yul\":9282:9298   */\n      add\n        /* \"#utility.yul\":9331:9334   */\n      dup5\n        /* \"#utility.yul\":9322:9328   */\n      dup5\n        /* \"#utility.yul\":9317:9320   */\n      dup5\n        /* \"#utility.yul\":9313:9329   */\n      add\n        /* \"#utility.yul\":9310:9335   */\n      gt\n        /* \"#utility.yul\":9307:9419   */\n      iszero\n      tag_189\n      jumpi\n        /* \"#utility.yul\":9338:9417   */\n      tag_190\n      tag_82\n      jump\t// in\n    tag_190:\n        /* \"#utility.yul\":9307:9419   */\n    tag_189:\n        /* \"#utility.yul\":9428:9469   */\n      tag_191\n        /* \"#utility.yul\":9462:9468   */\n      dup5\n        /* \"#utility.yul\":9457:9460   */\n      dup3\n        /* \"#utility.yul\":9452:9455   */\n      dup6\n        /* \"#utility.yul\":9428:9469   */\n      tag_87\n      jump\t// in\n    tag_191:\n        /* \"#utility.yul\":9147:9475   */\n      pop\n        /* \"#utility.yul\":9063:9475   */\n      swap4\n      swap3\n      pop\n      pop\n      pop\n      jump\t// out\n        /* \"#utility.yul\":9495:9835   */\n    tag_89:\n        /* \"#utility.yul\":9551:9556   */\n      0x00\n        /* \"#utility.yul\":9600:9603   */\n      dup3\n        /* \"#utility.yul\":9593:9597   */\n      0x1f\n        /* \"#utility.yul\":9585:9591   */\n      dup4\n        /* \"#utility.yul\":9581:9598   */\n      add\n        /* \"#utility.yul\":9577:9604   */\n      slt\n        /* \"#utility.yul\":9567:9689   */\n      tag_193\n      jumpi\n        /* \"#utility.yul\":9608:9687   */\n      tag_194\n      tag_81\n      jump\t// in\n    tag_194:\n        /* \"#utility.yul\":9567:9689   */\n    tag_193:\n        /* \"#utility.yul\":9725:9731   */\n      dup2\n        /* \"#utility.yul\":9712:9732   */\n      calldataload\n        /* \"#utility.yul\":9750:9829   */\n      tag_195\n        /* \"#utility.yul\":9825:9828   */\n      dup5\n        /* \"#utility.yul\":9817:9823   */\n      dup3\n        /* \"#utility.yul\":9810:9814   */\n      0x20\n        /* \"#utility.yul\":9802:9808   */\n      dup7\n        /* \"#utility.yul\":9798:9815   */\n      add\n        /* \"#utility.yul\":9750:9829   */\n      tag_88\n      jump\t// in\n    tag_195:\n        /* \"#utility.yul\":9741:9829   */\n      swap2\n      pop\n        /* \"#utility.yul\":9557:9835   */\n      pop\n        /* \"#utility.yul\":9495:9835   */\n      swap3\n      swap2\n      pop\n      pop\n      jump\t// out\n        /* \"#utility.yul\":9841:9963   */\n    tag_90:\n        /* \"#utility.yul\":9914:9938   */\n      tag_197\n        /* \"#utility.yul\":9932:9937   */\n      dup2\n        /* \"#utility.yul\":9914:9938   */\n      tag_73\n      jump\t// in\n    tag_197:\n        /* \"#utility.yul\":9907:9912   */\n      dup2\n        /* \"#utility.yul\":9904:9939   */\n      eq\n        /* \"#utility.yul\":9894:9957   */\n      tag_198\n      jumpi\n        /* \"#utility.yul\":9953:9954   */\n      0x00\n        /* \"#utility.yul\":9950:9951   */\n      dup1\n        /* \"#utility.yul\":9943:9955   */\n      revert\n        /* \"#utility.yul\":9894:9957   */\n    tag_198:\n        /* \"#utility.yul\":9841:9963   */\n      pop\n      jump\t// out\n        /* \"#utility.yul\":9969:10108   */\n    tag_91:\n        /* \"#utility.yul\":10015:10020   */\n      0x00\n        /* \"#utility.yul\":10053:10059   */\n      dup2\n        /* \"#utility.yul\":10040:10060   */\n      calldataload\n        /* \"#utility.yul\":10031:10060   */\n      swap1\n      pop\n        /* \"#utility.yul\":10069:10102   */\n      tag_200\n        /* \"#utility.yul\":10096:10101   */\n      dup2\n        /* \"#utility.yul\":10069:10102   */\n      tag_90\n      jump\t// in\n    tag_200:\n        /* \"#utility.yul\":9969:10108   */\n      swap3\n      swap2\n      pop\n      pop\n      jump\t// out\n        /* \"#utility.yul\":10114:11205   */\n    tag_11:\n        /* \"#utility.yul\":10219:10225   */\n      0x00\n        /* \"#utility.yul\":10227:10233   */\n      dup1\n        /* \"#utility.yul\":10235:10241   */\n      0x00\n        /* \"#utility.yul\":10243:10249   */\n      dup1\n        /* \"#utility.yul\":10251:10257   */\n      0x00\n        /* \"#utility.yul\":10300:10303   */\n      0xa0\n        /* \"#utility.yul\":10288:10297   */\n      dup7\n        /* \"#utility.yul\":10279:10286   */\n      dup9\n        /* \"#utility.yul\":10275:10298   */\n      sub\n        /* \"#utility.yul\":10271:10304   */\n      slt\n        /* \"#utility.yul\":10268:10388   */\n      iszero\n      tag_202\n      jumpi\n        /* \"#utility.yul\":10307:10386   */\n      tag_203\n      tag_79\n      jump\t// in\n    tag_203:\n        /* \"#utility.yul\":10268:10388   */\n    tag_202:\n        /* \"#utility.yul\":10455:10456   */\n      0x00\n        /* \"#utility.yul\":10444:10453   */\n      dup7\n        /* \"#utility.yul\":10440:10457   */\n      add\n        /* \"#utility.yul\":10427:10458   */\n      calldataload\n        /* \"#utility.yul\":10485:10503   */\n      0xffffffffffffffff\n        /* \"#utility.yul\":10477:10483   */\n      dup2\n        /* \"#utility.yul\":10474:10504   */\n      gt\n        /* \"#utility.yul\":10471:10588   */\n      iszero\n      tag_204\n      jumpi\n        /* \"#utility.yul\":10507:10586   */\n      tag_205\n      tag_80\n      jump\t// in\n    tag_205:\n        /* \"#utility.yul\":10471:10588   */\n    tag_204:\n        /* \"#utility.yul\":10612:10675   */\n      tag_206\n        /* \"#utility.yul\":10667:10674   */\n      dup9\n        /* \"#utility.yul\":10658:10664   */\n      dup3\n        /* \"#utility.yul\":10647:10656   */\n      dup10\n        /* \"#utility.yul\":10643:10665   */\n      add\n        /* \"#utility.yul\":10612:10675   */\n      tag_89\n      jump\t// in\n    tag_206:\n        /* \"#utility.yul\":10602:10675   */\n      swap6\n      pop\n        /* \"#utility.yul\":10398:10685   */\n      pop\n        /* \"#utility.yul\":10724:10726   */\n      0x20\n        /* \"#utility.yul\":10750:10803   */\n      tag_207\n        /* \"#utility.yul\":10795:10802   */\n      dup9\n        /* \"#utility.yul\":10786:10792   */\n      dup3\n        /* \"#utility.yul\":10775:10784   */\n      dup10\n        /* \"#utility.yul\":10771:10793   */\n      add\n        /* \"#utility.yul\":10750:10803   */\n      tag_91\n      jump\t// in\n    tag_207:\n        /* \"#utility.yul\":10740:10803   */\n      swap5\n      pop\n        /* \"#utility.yul\":10695:10813   */\n      pop\n        /* \"#utility.yul\":10852:10854   */\n      0x40\n        /* \"#utility.yul\":10878:10931   */\n      tag_208\n        /* \"#utility.yul\":10923:10930   */\n      dup9\n        /* \"#utility.yul\":10914:10920   */\n      dup3\n        /* \"#utility.yul\":10903:10912   */\n      dup10\n        /* \"#utility.yul\":10899:10921   */\n      add\n        /* \"#utility.yul\":10878:10931   */\n      tag_91\n      jump\t// in\n    tag_208:\n        /* \"#utility.yul\":10868:10931   */\n      swap4\n      pop\n        /* \"#utility.yul\":10823:10941   */\n      pop\n        /* \"#utility.yul\":10980:10982   */\n      0x60\n        /* \"#utility.yul\":11006:11059   */\n      tag_209\n        /* \"#utility.yul\":11051:11058   */\n      dup9\n        /* \"#utility.yul\":11042:11048   */\n      dup3\n        /* \"#utility.yul\":11031:11040   */\n      dup10\n        /* \"#utility.yul\":11027:11049   */\n      add\n        /* \"#utility.yul\":11006:11059   */\n      tag_91\n      jump\t// in\n    tag_209:\n        /* \"#utility.yul\":10996:11059   */\n      swap3\n      pop\n        /* \"#utility.yul\":10951:11069   */\n      pop\n        /* \"#utility.yul\":11108:11111   */\n      0x80\n        /* \"#utility.yul\":11135:11188   */\n      tag_210\n        /* \"#utility.yul\":11180:11187   */\n      dup9\n        /* \"#utility.yul\":11171:11177   */\n      dup3\n        /* \"#utility.yul\":11160:11169   */\n      dup10\n        /* \"#utility.yul\":11156:11178   */\n      add\n        /* \"#utility.yul\":11135:11188   */\n      tag_91\n      jump\t// in\n    tag_210:\n        /* \"#utility.yul\":11125:11188   */\n      swap2\n      pop\n        /* \"#utility.yul\":11079:11198   */\n      pop\n        /* \"#utility.yul\":10114:11205   */\n      swap3\n      swap6\n      pop\n      swap3\n      swap6\n      swap1\n      swap4\n      pop\n      jump\t// out\n        /* \"#utility.yul\":11211:11329   */\n    tag_92:\n        /* \"#utility.yul\":11298:11322   */\n      tag_212\n        /* \"#utility.yul\":11316:11321   */\n      dup2\n        /* \"#utility.yul\":11298:11322   */\n      tag_54\n      jump\t// in\n    tag_212:\n        /* \"#utility.yul\":11293:11296   */\n      dup3\n        /* \"#utility.yul\":11286:11323   */\n      mstore\n        /* \"#utility.yul\":11211:11329   */\n      pop\n      pop\n      jump\t// out\n        /* \"#utility.yul\":11335:11557   */\n    tag_14:\n        /* \"#utility.yul\":11428:11432   */\n      0x00\n        /* \"#utility.yul\":11466:11468   */\n      0x20\n        /* \"#utility.yul\":11455:11464   */\n      dup3\n        /* \"#utility.yul\":11451:11469   */\n      add\n        /* \"#utility.yul\":11443:11469   */\n      swap1\n      pop\n        /* \"#utility.yul\":11479:11550   */\n      tag_214\n        /* \"#utility.yul\":11547:11548   */\n      0x00\n        /* \"#utility.yul\":11536:11545   */\n      dup4\n        /* \"#utility.yul\":11532:11549   */\n      add\n        /* \"#utility.yul\":11523:11529   */\n      dup5\n        /* \"#utility.yul\":11479:11550   */\n      tag_92\n      jump\t// in\n    tag_214:\n        /* \"#utility.yul\":11335:11557   */\n      swap3\n      swap2\n      pop\n      pop\n      jump\t// out\n        /* \"#utility.yul\":11563:11743   */\n    tag_93:\n        /* \"#utility.yul\":11611:11688   */\n      0x4e487b7100000000000000000000000000000000000000000000000000000000\n        /* \"#utility.yul\":11608:11609   */\n      0x00\n        /* \"#utility.yul\":11601:11689   */\n      mstore\n        /* \"#utility.yul\":11708:11712   */\n      0x22\n        /* \"#utility.yul\":11705:11706   */\n      0x04\n        /* \"#utility.yul\":11698:11713   */\n      mstore\n        /* \"#utility.yul\":11732:11736   */\n      0x24\n        /* \"#utility.yul\":11729:11730   */\n      0x00\n        /* \"#utility.yul\":11722:11737   */\n      revert\n        /* \"#utility.yul\":11749:12069   */\n    tag_22:\n        /* \"#utility.yul\":11793:11799   */\n      0x00\n        /* \"#utility.yul\":11830:11831   */\n      0x02\n        /* \"#utility.yul\":11824:11828   */\n      dup3\n        /* \"#utility.yul\":11820:11832   */\n      div\n        /* \"#utility.yul\":11810:11832   */\n      swap1\n      pop\n        /* \"#utility.yul\":11877:11878   */\n      0x01\n        /* \"#utility.yul\":11871:11875   */\n      dup3\n        /* \"#utility.yul\":11867:11879   */\n      and\n        /* \"#utility.yul\":11898:11916   */\n      dup1\n        /* \"#utility.yul\":11888:11969   */\n      tag_217\n      jumpi\n        /* \"#utility.yul\":11954:11958   */\n      0x7f\n        /* \"#utility.yul\":11946:11952   */\n      dup3\n        /* \"#utility.yul\":11942:11959   */\n      and\n        /* \"#utility.yul\":11932:11959   */\n      swap2\n      pop\n        /* \"#utility.yul\":11888:11969   */\n    tag_217:\n        /* \"#utility.yul\":12016:12018   */\n      0x20\n        /* \"#utility.yul\":12008:12014   */\n      dup3\n        /* \"#utility.yul\":12005:12019   */\n      lt\n        /* \"#utility.yul\":11985:12003   */\n      dup2\n        /* \"#utility.yul\":11982:12020   */\n      sub\n        /* \"#utility.yul\":11979:12063   */\n      tag_218\n      jumpi\n        /* \"#utility.yul\":12035:12053   */\n      tag_219\n      tag_93\n      jump\t// in\n    tag_219:\n        /* \"#utility.yul\":11979:12063   */\n    tag_218:\n        /* \"#utility.yul\":11800:12069   */\n      pop\n        /* \"#utility.yul\":11749:12069   */\n      swap2\n      swap1\n      pop\n      jump\t// out\n        /* \"#utility.yul\":12075:12244   */\n    tag_94:\n        /* \"#utility.yul\":12159:12170   */\n      0x00\n        /* \"#utility.yul\":12193:12199   */\n      dup3\n        /* \"#utility.yul\":12188:12191   */\n      dup3\n        /* \"#utility.yul\":12181:12200   */\n      mstore\n        /* \"#utility.yul\":12233:12237   */\n      0x20\n        /* \"#utility.yul\":12228:12231   */\n      dup3\n        /* \"#utility.yul\":12224:12238   */\n      add\n        /* \"#utility.yul\":12209:12238   */\n      swap1\n      pop\n        /* \"#utility.yul\":12075:12244   */\n      swap3\n      swap2\n      pop\n      pop\n      jump\t// out\n        /* \"#utility.yul\":12250:12614   */\n    tag_95:\n        /* \"#utility.yul\":12338:12341   */\n      0x00\n        /* \"#utility.yul\":12366:12405   */\n      tag_222\n        /* \"#utility.yul\":12399:12404   */\n      dup3\n        /* \"#utility.yul\":12366:12405   */\n      tag_62\n      jump\t// in\n    tag_222:\n        /* \"#utility.yul\":12421:12492   */\n      tag_223\n        /* \"#utility.yul\":12485:12491   */\n      dup2\n        /* \"#utility.yul\":12480:12483   */\n      dup6\n        /* \"#utility.yul\":12421:12492   */\n      tag_94\n      jump\t// in\n    tag_223:\n        /* \"#utility.yul\":12414:12492   */\n      swap4\n      pop\n        /* \"#utility.yul\":12501:12553   */\n      tag_224\n        /* \"#utility.yul\":12546:12552   */\n      dup2\n        /* \"#utility.yul\":12541:12544   */\n      dup6\n        /* \"#utility.yul\":12534:12538   */\n      0x20\n        /* \"#utility.yul\":12527:12532   */\n      dup7\n        /* \"#utility.yul\":12523:12539   */\n      add\n        /* \"#utility.yul\":12501:12553   */\n      tag_64\n      jump\t// in\n    tag_224:\n        /* \"#utility.yul\":12578:12607   */\n      tag_225\n        /* \"#utility.yul\":12600:12606   */\n      dup2\n        /* \"#utility.yul\":12578:12607   */\n      tag_65\n      jump\t// in\n    tag_225:\n        /* \"#utility.yul\":12573:12576   */\n      dup5\n        /* \"#utility.yul\":12569:12608   */\n      add\n        /* \"#utility.yul\":12562:12608   */\n      swap2\n      pop\n        /* \"#utility.yul\":12342:12614   */\n      pop\n        /* \"#utility.yul\":12250:12614   */\n      swap3\n      swap2\n      pop\n      pop\n      jump\t// out\n        /* \"#utility.yul\":12620:12738   */\n    tag_96:\n        /* \"#utility.yul\":12707:12731   */\n      tag_227\n        /* \"#utility.yul\":12725:12730   */\n      dup2\n        /* \"#utility.yul\":12707:12731   */\n      tag_73\n      jump\t// in\n    tag_227:\n        /* \"#utility.yul\":12702:12705   */\n      dup3\n        /* \"#utility.yul\":12695:12732   */\n      mstore\n        /* \"#utility.yul\":12620:12738   */\n      pop\n      pop\n      jump\t// out\n        /* \"#utility.yul\":12744:13610   */\n    tag_33:\n        /* \"#utility.yul\":12997:13001   */\n      0x00\n        /* \"#utility.yul\":13035:13038   */\n      0xc0\n        /* \"#utility.yul\":13024:13033   */\n      dup3\n        /* \"#utility.yul\":13020:13039   */\n      add\n        /* \"#utility.yul\":13012:13039   */\n      swap1\n      pop\n        /* \"#utility.yul\":13049:13120   */\n      tag_229\n        /* \"#utility.yul\":13117:13118   */\n      0x00\n        /* \"#utility.yul\":13106:13115   */\n      dup4\n        /* \"#utility.yul\":13102:13119   */\n      add\n        /* \"#utility.yul\":13093:13099   */\n      dup10\n        /* \"#utility.yul\":13049:13120   */\n      tag_92\n      jump\t// in\n    tag_229:\n        /* \"#utility.yul\":13167:13176   */\n      dup2\n        /* \"#utility.yul\":13161:13165   */\n      dup2\n        /* \"#utility.yul\":13157:13177   */\n      sub\n        /* \"#utility.yul\":13152:13154   */\n      0x20\n        /* \"#utility.yul\":13141:13150   */\n      dup4\n        /* \"#utility.yul\":13137:13155   */\n      add\n        /* \"#utility.yul\":13130:13178   */\n      mstore\n        /* \"#utility.yul\":13195:13273   */\n      tag_230\n        /* \"#utility.yul\":13268:13272   */\n      dup2\n        /* \"#utility.yul\":13259:13265   */\n      dup9\n        /* \"#utility.yul\":13195:13273   */\n      tag_95\n      jump\t// in\n    tag_230:\n        /* \"#utility.yul\":13187:13273   */\n      swap1\n      pop\n        /* \"#utility.yul\":13283:13355   */\n      tag_231\n        /* \"#utility.yul\":13351:13353   */\n      0x40\n        /* \"#utility.yul\":13340:13349   */\n      dup4\n        /* \"#utility.yul\":13336:13354   */\n      add\n        /* \"#utility.yul\":13327:13333   */\n      dup8\n        /* \"#utility.yul\":13283:13355   */\n      tag_96\n      jump\t// in\n    tag_231:\n        /* \"#utility.yul\":13365:13437   */\n      tag_232\n        /* \"#utility.yul\":13433:13435   */\n      0x60\n        /* \"#utility.yul\":13422:13431   */\n      dup4\n        /* \"#utility.yul\":13418:13436   */\n      add\n        /* \"#utility.yul\":13409:13415   */\n      dup7\n        /* \"#utility.yul\":13365:13437   */\n      tag_96\n      jump\t// in\n    tag_232:\n        /* \"#utility.yul\":13447:13520   */\n      tag_233\n        /* \"#utility.yul\":13515:13518   */\n      0x80\n        /* \"#utility.yul\":13504:13513   */\n      dup4\n        /* \"#utility.yul\":13500:13519   */\n      add\n        /* \"#utility.yul\":13491:13497   */\n      dup6\n        /* \"#utility.yul\":13447:13520   */\n      tag_96\n      jump\t// in\n    tag_233:\n        /* \"#utility.yul\":13530:13603   */\n      tag_234\n        /* \"#utility.yul\":13598:13601   */\n      0xa0\n        /* \"#utility.yul\":13587:13596   */\n      dup4\n        /* \"#utility.yul\":13583:13602   */\n      add\n        /* \"#utility.yul\":13574:13580   */\n      dup5\n        /* \"#utility.yul\":13530:13603   */\n      tag_96\n      jump\t// in\n    tag_234:\n        /* \"#utility.yul\":12744:13610   */\n      swap8\n      swap7\n      pop\n      pop\n      pop\n      pop\n      pop\n      pop\n      pop\n      jump\t// out\n    stop\n\n    sub_0: assembly {\n            /* \"Campaign.sol\":877:3697  contract Campaign {... */\n          mstore(0x40, 0x80)\n            /* \"Campaign.sol\":1302:1750  constructor(address creator, string memory campaignName, uint balance, uint cost, uint256 deadline, uint min) {... */\n          callvalue\n          dup1\n          iszero\n          tag_1\n          jumpi\n          0x00\n          dup1\n          revert\n        tag_1:\n          pop\n          mload(0x40)\n          sub(codesize, bytecodeSize)\n          dup1\n          bytecodeSize\n          dup4\n          codecopy\n          dup2\n          dup2\n          add\n          0x40\n          mstore\n          dup2\n          add\n          swap1\n          tag_2\n          swap2\n          swap1\n          tag_3\n          jump\t// in\n        tag_2:\n            /* \"Campaign.sol\":1450:1457  creator */\n          dup6\n            /* \"Campaign.sol\":1423:1431  campaign */\n          0x00\n            /* \"Campaign.sol\":1423:1439  campaign.manager */\n          dup1\n          add\n          0x00\n            /* \"Campaign.sol\":1423:1458  campaign.manager = payable(creator) */\n          0x0100\n          exp\n          dup2\n          sload\n          dup2\n          0xffffffffffffffffffffffffffffffffffffffff\n          mul\n          not\n          and\n          swap1\n          dup4\n          0xffffffffffffffffffffffffffffffffffffffff\n          and\n          mul\n          or\n          swap1\n          sstore\n          pop\n            /* \"Campaign.sol\":1485:1497  campaignName */\n          dup5\n            /* \"Campaign.sol\":1469:1477  campaign */\n          0x00\n            /* \"Campaign.sol\":1469:1482  campaign.name */\n          0x01\n          add\n            /* \"Campaign.sol\":1469:1497  campaign.name = campaignName */\n          swap1\n          dup1\n          mload\n          swap1\n          0x20\n          add\n          swap1\n          tag_6\n          swap3\n          swap2\n          swap1\n          tag_7\n          jump\t// in\n        tag_6:\n          pop\n            /* \"Campaign.sol\":1535:1542  balance */\n          dup4\n            /* \"Campaign.sol\":1508:1516  campaign */\n          0x00\n            /* \"Campaign.sol\":1508:1532  campaign.requiredBalance */\n          0x02\n          add\n            /* \"Campaign.sol\":1508:1542  campaign.requiredBalance = balance */\n          dup2\n          swap1\n          sstore\n          pop\n            /* \"Campaign.sol\":1577:1581  cost */\n          dup3\n            /* \"Campaign.sol\":1553:1561  campaign */\n          0x00\n            /* \"Campaign.sol\":1553:1574  campaign.requiredCost */\n          0x03\n          add\n            /* \"Campaign.sol\":1553:1581  campaign.requiredCost = cost */\n          dup2\n          swap1\n          sstore\n          pop\n            /* \"Campaign.sol\":1621:1622  0 */\n          0x00\n            /* \"Campaign.sol\":1592:1600  campaign */\n          dup1\n            /* \"Campaign.sol\":1592:1618  campaign.contributorsCount */\n          0x05\n          add\n            /* \"Campaign.sol\":1592:1622  campaign.contributorsCount = 0 */\n          dup2\n          swap1\n          sstore\n          pop\n            /* \"Campaign.sol\":1653:1658  false */\n          0x00\n            /* \"Campaign.sol\":1633:1641  campaign */\n          dup1\n            /* \"Campaign.sol\":1633:1650  campaign.complete */\n          0x06\n          add\n          0x00\n            /* \"Campaign.sol\":1633:1658  campaign.complete = false */\n          0x0100\n          exp\n          dup2\n          sload\n          dup2\n          0xff\n          mul\n          not\n          and\n          swap1\n          dup4\n          iszero\n          iszero\n          mul\n          or\n          swap1\n          sstore\n          pop\n            /* \"Campaign.sol\":1689:1697  deadline */\n          dup2\n            /* \"Campaign.sol\":1669:1677  campaign */\n          0x00\n            /* \"Campaign.sol\":1669:1686  campaign.deadline */\n          0x07\n          add\n            /* \"Campaign.sol\":1669:1697  campaign.deadline = deadline */\n          dup2\n          swap1\n          sstore\n          pop\n            /* \"Campaign.sol\":1738:1741  min */\n          dup1\n            /* \"Campaign.sol\":1708:1716  campaign */\n          0x00\n            /* \"Campaign.sol\":1708:1735  campaign.minimumContributor */\n          0x08\n          add\n            /* \"Campaign.sol\":1708:1741  campaign.minimumContributor = min */\n          dup2\n          swap1\n          sstore\n          pop\n            /* \"Campaign.sol\":1302:1750  constructor(address creator, string memory campaignName, uint balance, uint cost, uint256 deadline, uint min) {... */\n          pop\n          pop\n          pop\n          pop\n          pop\n          pop\n            /* \"Campaign.sol\":877:3697  contract Campaign {... */\n          jump(tag_8)\n        tag_7:\n          dup3\n          dup1\n          sload\n          tag_9\n          swap1\n          tag_10\n          jump\t// in\n        tag_9:\n          swap1\n          0x00\n          mstore\n          keccak256(0x00, 0x20)\n          swap1\n          0x1f\n          add\n          0x20\n          swap1\n          div\n          dup2\n          add\n          swap3\n          dup3\n          tag_12\n          jumpi\n          0x00\n          dup6\n          sstore\n          jump(tag_11)\n        tag_12:\n          dup3\n          0x1f\n          lt\n          tag_13\n          jumpi\n          dup1\n          mload\n          not(0xff)\n          and\n          dup4\n          dup1\n          add\n          or\n          dup6\n          sstore\n          jump(tag_11)\n        tag_13:\n          dup3\n          dup1\n          add\n          0x01\n          add\n          dup6\n          sstore\n          dup3\n          iszero\n          tag_11\n          jumpi\n          swap2\n          dup3\n          add\n        tag_14:\n          dup3\n          dup2\n          gt\n          iszero\n          tag_15\n          jumpi\n          dup3\n          mload\n          dup3\n          sstore\n          swap2\n          0x20\n          add\n          swap2\n          swap1\n          0x01\n          add\n          swap1\n          jump(tag_14)\n        tag_15:\n        tag_11:\n          pop\n          swap1\n          pop\n          tag_16\n          swap2\n          swap1\n          tag_17\n          jump\t// in\n        tag_16:\n          pop\n          swap1\n          jump\t// out\n        tag_17:\n        tag_18:\n          dup1\n          dup3\n          gt\n          iszero\n          tag_19\n          jumpi\n          0x00\n          dup2\n          0x00\n          swap1\n          sstore\n          pop\n          0x01\n          add\n          jump(tag_18)\n        tag_19:\n          pop\n          swap1\n          jump\t// out\n            /* \"#utility.yul\":7:82   */\n        tag_20:\n            /* \"#utility.yul\":40:46   */\n          0x00\n            /* \"#utility.yul\":73:75   */\n          0x40\n            /* \"#utility.yul\":67:76   */\n          mload\n            /* \"#utility.yul\":57:76   */\n          swap1\n          pop\n            /* \"#utility.yul\":7:82   */\n          swap1\n          jump\t// out\n            /* \"#utility.yul\":88:205   */\n        tag_21:\n            /* \"#utility.yul\":197:198   */\n          0x00\n            /* \"#utility.yul\":194:195   */\n          dup1\n            /* \"#utility.yul\":187:199   */\n          revert\n            /* \"#utility.yul\":211:328   */\n        tag_22:\n            /* \"#utility.yul\":320:321   */\n          0x00\n            /* \"#utility.yul\":317:318   */\n          dup1\n            /* \"#utility.yul\":310:322   */\n          revert\n            /* \"#utility.yul\":334:460   */\n        tag_23:\n            /* \"#utility.yul\":371:378   */\n          0x00\n            /* \"#utility.yul\":411:453   */\n          0xffffffffffffffffffffffffffffffffffffffff\n            /* \"#utility.yul\":404:409   */\n          dup3\n            /* \"#utility.yul\":400:454   */\n          and\n            /* \"#utility.yul\":389:454   */\n          swap1\n          pop\n            /* \"#utility.yul\":334:460   */\n          swap2\n          swap1\n          pop\n          jump\t// out\n            /* \"#utility.yul\":466:562   */\n        tag_24:\n            /* \"#utility.yul\":503:510   */\n          0x00\n            /* \"#utility.yul\":532:556   */\n          tag_47\n            /* \"#utility.yul\":550:555   */\n          dup3\n            /* \"#utility.yul\":532:556   */\n          tag_23\n          jump\t// in\n        tag_47:\n            /* \"#utility.yul\":521:556   */\n          swap1\n          pop\n            /* \"#utility.yul\":466:562   */\n          swap2\n          swap1\n          pop\n          jump\t// out\n            /* \"#utility.yul\":568:690   */\n        tag_25:\n            /* \"#utility.yul\":641:665   */\n          tag_49\n            /* \"#utility.yul\":659:664   */\n          dup2\n            /* \"#utility.yul\":641:665   */\n          tag_24\n          jump\t// in\n        tag_49:\n            /* \"#utility.yul\":634:639   */\n          dup2\n            /* \"#utility.yul\":631:666   */\n          eq\n            /* \"#utility.yul\":621:684   */\n          tag_50\n          jumpi\n            /* \"#utility.yul\":680:681   */\n          0x00\n            /* \"#utility.yul\":677:678   */\n          dup1\n            /* \"#utility.yul\":670:682   */\n          revert\n            /* \"#utility.yul\":621:684   */\n        tag_50:\n            /* \"#utility.yul\":568:690   */\n          pop\n          jump\t// out\n            /* \"#utility.yul\":696:839   */\n        tag_26:\n            /* \"#utility.yul\":753:758   */\n          0x00\n            /* \"#utility.yul\":784:790   */\n          dup2\n            /* \"#utility.yul\":778:791   */\n          mload\n            /* \"#utility.yul\":769:791   */\n          swap1\n          pop\n            /* \"#utility.yul\":800:833   */\n          tag_52\n            /* \"#utility.yul\":827:832   */\n          dup2\n            /* \"#utility.yul\":800:833   */\n          tag_25\n          jump\t// in\n        tag_52:\n            /* \"#utility.yul\":696:839   */\n          swap3\n          swap2\n          pop\n          pop\n          jump\t// out\n            /* \"#utility.yul\":845:962   */\n        tag_27:\n            /* \"#utility.yul\":954:955   */\n          0x00\n            /* \"#utility.yul\":951:952   */\n          dup1\n            /* \"#utility.yul\":944:956   */\n          revert\n            /* \"#utility.yul\":968:1085   */\n        tag_28:\n            /* \"#utility.yul\":1077:1078   */\n          0x00\n            /* \"#utility.yul\":1074:1075   */\n          dup1\n            /* \"#utility.yul\":1067:1079   */\n          revert\n            /* \"#utility.yul\":1091:1193   */\n        tag_29:\n            /* \"#utility.yul\":1132:1138   */\n          0x00\n            /* \"#utility.yul\":1183:1185   */\n          0x1f\n            /* \"#utility.yul\":1179:1186   */\n          not\n            /* \"#utility.yul\":1174:1176   */\n          0x1f\n            /* \"#utility.yul\":1167:1172   */\n          dup4\n            /* \"#utility.yul\":1163:1177   */\n          add\n            /* \"#utility.yul\":1159:1187   */\n          and\n            /* \"#utility.yul\":1149:1187   */\n          swap1\n          pop\n            /* \"#utility.yul\":1091:1193   */\n          swap2\n          swap1\n          pop\n          jump\t// out\n            /* \"#utility.yul\":1199:1379   */\n        tag_30:\n            /* \"#utility.yul\":1247:1324   */\n          0x4e487b7100000000000000000000000000000000000000000000000000000000\n            /* \"#utility.yul\":1244:1245   */\n          0x00\n            /* \"#utility.yul\":1237:1325   */\n          mstore\n            /* \"#utility.yul\":1344:1348   */\n          0x41\n            /* \"#utility.yul\":1341:1342   */\n          0x04\n            /* \"#utility.yul\":1334:1349   */\n          mstore\n            /* \"#utility.yul\":1368:1372   */\n          0x24\n            /* \"#utility.yul\":1365:1366   */\n          0x00\n            /* \"#utility.yul\":1358:1373   */\n          revert\n            /* \"#utility.yul\":1385:1666   */\n        tag_31:\n            /* \"#utility.yul\":1468:1495   */\n          tag_58\n            /* \"#utility.yul\":1490:1494   */\n          dup3\n            /* \"#utility.yul\":1468:1495   */\n          tag_29\n          jump\t// in\n        tag_58:\n            /* \"#utility.yul\":1460:1466   */\n          dup2\n            /* \"#utility.yul\":1456:1496   */\n          add\n            /* \"#utility.yul\":1598:1604   */\n          dup2\n            /* \"#utility.yul\":1586:1596   */\n          dup2\n            /* \"#utility.yul\":1583:1605   */\n          lt\n            /* \"#utility.yul\":1562:1580   */\n          0xffffffffffffffff\n            /* \"#utility.yul\":1550:1560   */\n          dup3\n            /* \"#utility.yul\":1547:1581   */\n          gt\n            /* \"#utility.yul\":1544:1606   */\n          or\n            /* \"#utility.yul\":1541:1629   */\n          iszero\n          tag_59\n          jumpi\n            /* \"#utility.yul\":1609:1627   */\n          tag_60\n          tag_30\n          jump\t// in\n        tag_60:\n            /* \"#utility.yul\":1541:1629   */\n        tag_59:\n            /* \"#utility.yul\":1649:1659   */\n          dup1\n            /* \"#utility.yul\":1645:1647   */\n          0x40\n            /* \"#utility.yul\":1638:1660   */\n          mstore\n            /* \"#utility.yul\":1428:1666   */\n          pop\n            /* \"#utility.yul\":1385:1666   */\n          pop\n          pop\n          jump\t// out\n            /* \"#utility.yul\":1672:1801   */\n        tag_32:\n            /* \"#utility.yul\":1706:1712   */\n          0x00\n            /* \"#utility.yul\":1733:1753   */\n          tag_62\n          tag_20\n          jump\t// in\n        tag_62:\n            /* \"#utility.yul\":1723:1753   */\n          swap1\n          pop\n            /* \"#utility.yul\":1762:1795   */\n          tag_63\n            /* \"#utility.yul\":1790:1794   */\n          dup3\n            /* \"#utility.yul\":1782:1788   */\n          dup3\n            /* \"#utility.yul\":1762:1795   */\n          tag_31\n          jump\t// in\n        tag_63:\n            /* \"#utility.yul\":1672:1801   */\n          swap2\n          swap1\n          pop\n          jump\t// out\n            /* \"#utility.yul\":1807:2115   */\n        tag_33:\n            /* \"#utility.yul\":1869:1873   */\n          0x00\n            /* \"#utility.yul\":1959:1977   */\n          0xffffffffffffffff\n            /* \"#utility.yul\":1951:1957   */\n          dup3\n            /* \"#utility.yul\":1948:1978   */\n          gt\n            /* \"#utility.yul\":1945:2001   */\n          iszero\n          tag_65\n          jumpi\n            /* \"#utility.yul\":1981:1999   */\n          tag_66\n          tag_30\n          jump\t// in\n        tag_66:\n            /* \"#utility.yul\":1945:2001   */\n        tag_65:\n            /* \"#utility.yul\":2019:2048   */\n          tag_67\n            /* \"#utility.yul\":2041:2047   */\n          dup3\n            /* \"#utility.yul\":2019:2048   */\n          tag_29\n          jump\t// in\n        tag_67:\n            /* \"#utility.yul\":2011:2048   */\n          swap1\n          pop\n            /* \"#utility.yul\":2103:2107   */\n          0x20\n            /* \"#utility.yul\":2097:2101   */\n          dup2\n            /* \"#utility.yul\":2093:2108   */\n          add\n            /* \"#utility.yul\":2085:2108   */\n          swap1\n          pop\n            /* \"#utility.yul\":1807:2115   */\n          swap2\n          swap1\n          pop\n          jump\t// out\n            /* \"#utility.yul\":2121:2428   */\n        tag_34:\n            /* \"#utility.yul\":2189:2190   */\n          0x00\n            /* \"#utility.yul\":2199:2312   */\n        tag_69:\n            /* \"#utility.yul\":2213:2219   */\n          dup4\n            /* \"#utility.yul\":2210:2211   */\n          dup2\n            /* \"#utility.yul\":2207:2220   */\n          lt\n            /* \"#utility.yul\":2199:2312   */\n          iszero\n          tag_71\n          jumpi\n            /* \"#utility.yul\":2298:2299   */\n          dup1\n            /* \"#utility.yul\":2293:2296   */\n          dup3\n            /* \"#utility.yul\":2289:2300   */\n          add\n            /* \"#utility.yul\":2283:2301   */\n          mload\n            /* \"#utility.yul\":2279:2280   */\n          dup2\n            /* \"#utility.yul\":2274:2277   */\n          dup5\n            /* \"#utility.yul\":2270:2281   */\n          add\n            /* \"#utility.yul\":2263:2302   */\n          mstore\n            /* \"#utility.yul\":2235:2237   */\n          0x20\n            /* \"#utility.yul\":2232:2233   */\n          dup2\n            /* \"#utility.yul\":2228:2238   */\n          add\n            /* \"#utility.yul\":2223:2238   */\n          swap1\n          pop\n            /* \"#utility.yul\":2199:2312   */\n          jump(tag_69)\n        tag_71:\n            /* \"#utility.yul\":2330:2336   */\n          dup4\n            /* \"#utility.yul\":2327:2328   */\n          dup2\n            /* \"#utility.yul\":2324:2337   */\n          gt\n            /* \"#utility.yul\":2321:2422   */\n          iszero\n          tag_72\n          jumpi\n            /* \"#utility.yul\":2410:2411   */\n          0x00\n            /* \"#utility.yul\":2401:2407   */\n          dup5\n            /* \"#utility.yul\":2396:2399   */\n          dup5\n            /* \"#utility.yul\":2392:2408   */\n          add\n            /* \"#utility.yul\":2385:2412   */\n          mstore\n            /* \"#utility.yul\":2321:2422   */\n        tag_72:\n            /* \"#utility.yul\":2170:2428   */\n          pop\n            /* \"#utility.yul\":2121:2428   */\n          pop\n          pop\n          pop\n          jump\t// out\n            /* \"#utility.yul\":2434:2855   */\n        tag_35:\n            /* \"#utility.yul\":2523:2528   */\n          0x00\n            /* \"#utility.yul\":2548:2614   */\n          tag_74\n            /* \"#utility.yul\":2564:2613   */\n          tag_75\n            /* \"#utility.yul\":2606:2612   */\n          dup5\n            /* \"#utility.yul\":2564:2613   */\n          tag_33\n          jump\t// in\n        tag_75:\n            /* \"#utility.yul\":2548:2614   */\n          tag_32\n          jump\t// in\n        tag_74:\n            /* \"#utility.yul\":2539:2614   */\n          swap1\n          pop\n            /* \"#utility.yul\":2637:2643   */\n          dup3\n            /* \"#utility.yul\":2630:2635   */\n          dup2\n            /* \"#utility.yul\":2623:2644   */\n          mstore\n            /* \"#utility.yul\":2675:2679   */\n          0x20\n            /* \"#utility.yul\":2668:2673   */\n          dup2\n            /* \"#utility.yul\":2664:2680   */\n          add\n            /* \"#utility.yul\":2713:2716   */\n          dup5\n            /* \"#utility.yul\":2704:2710   */\n          dup5\n            /* \"#utility.yul\":2699:2702   */\n          dup5\n            /* \"#utility.yul\":2695:2711   */\n          add\n            /* \"#utility.yul\":2692:2717   */\n          gt\n            /* \"#utility.yul\":2689:2801   */\n          iszero\n          tag_76\n          jumpi\n            /* \"#utility.yul\":2720:2799   */\n          tag_77\n          tag_28\n          jump\t// in\n        tag_77:\n            /* \"#utility.yul\":2689:2801   */\n        tag_76:\n            /* \"#utility.yul\":2810:2849   */\n          tag_78\n            /* \"#utility.yul\":2842:2848   */\n          dup5\n            /* \"#utility.yul\":2837:2840   */\n          dup3\n            /* \"#utility.yul\":2832:2835   */\n          dup6\n            /* \"#utility.yul\":2810:2849   */\n          tag_34\n          jump\t// in\n        tag_78:\n            /* \"#utility.yul\":2529:2855   */\n          pop\n            /* \"#utility.yul\":2434:2855   */\n          swap4\n          swap3\n          pop\n          pop\n          pop\n          jump\t// out\n            /* \"#utility.yul\":2875:3230   */\n        tag_36:\n            /* \"#utility.yul\":2942:2947   */\n          0x00\n            /* \"#utility.yul\":2991:2994   */\n          dup3\n            /* \"#utility.yul\":2984:2988   */\n          0x1f\n            /* \"#utility.yul\":2976:2982   */\n          dup4\n            /* \"#utility.yul\":2972:2989   */\n          add\n            /* \"#utility.yul\":2968:2995   */\n          slt\n            /* \"#utility.yul\":2958:3080   */\n          tag_80\n          jumpi\n            /* \"#utility.yul\":2999:3078   */\n          tag_81\n          tag_27\n          jump\t// in\n        tag_81:\n            /* \"#utility.yul\":2958:3080   */\n        tag_80:\n            /* \"#utility.yul\":3109:3115   */\n          dup2\n            /* \"#utility.yul\":3103:3116   */\n          mload\n            /* \"#utility.yul\":3134:3224   */\n          tag_82\n            /* \"#utility.yul\":3220:3223   */\n          dup5\n            /* \"#utility.yul\":3212:3218   */\n          dup3\n            /* \"#utility.yul\":3205:3209   */\n          0x20\n            /* \"#utility.yul\":3197:3203   */\n          dup7\n            /* \"#utility.yul\":3193:3210   */\n          add\n            /* \"#utility.yul\":3134:3224   */\n          tag_35\n          jump\t// in\n        tag_82:\n            /* \"#utility.yul\":3125:3224   */\n          swap2\n          pop\n            /* \"#utility.yul\":2948:3230   */\n          pop\n            /* \"#utility.yul\":2875:3230   */\n          swap3\n          swap2\n          pop\n          pop\n          jump\t// out\n            /* \"#utility.yul\":3236:3313   */\n        tag_37:\n            /* \"#utility.yul\":3273:3280   */\n          0x00\n            /* \"#utility.yul\":3302:3307   */\n          dup2\n            /* \"#utility.yul\":3291:3307   */\n          swap1\n          pop\n            /* \"#utility.yul\":3236:3313   */\n          swap2\n          swap1\n          pop\n          jump\t// out\n            /* \"#utility.yul\":3319:3441   */\n        tag_38:\n            /* \"#utility.yul\":3392:3416   */\n          tag_85\n            /* \"#utility.yul\":3410:3415   */\n          dup2\n            /* \"#utility.yul\":3392:3416   */\n          tag_37\n          jump\t// in\n        tag_85:\n            /* \"#utility.yul\":3385:3390   */\n          dup2\n            /* \"#utility.yul\":3382:3417   */\n          eq\n            /* \"#utility.yul\":3372:3435   */\n          tag_86\n          jumpi\n            /* \"#utility.yul\":3431:3432   */\n          0x00\n            /* \"#utility.yul\":3428:3429   */\n          dup1\n            /* \"#utility.yul\":3421:3433   */\n          revert\n            /* \"#utility.yul\":3372:3435   */\n        tag_86:\n            /* \"#utility.yul\":3319:3441   */\n          pop\n          jump\t// out\n            /* \"#utility.yul\":3447:3590   */\n        tag_39:\n            /* \"#utility.yul\":3504:3509   */\n          0x00\n            /* \"#utility.yul\":3535:3541   */\n          dup2\n            /* \"#utility.yul\":3529:3542   */\n          mload\n            /* \"#utility.yul\":3520:3542   */\n          swap1\n          pop\n            /* \"#utility.yul\":3551:3584   */\n          tag_88\n            /* \"#utility.yul\":3578:3583   */\n          dup2\n            /* \"#utility.yul\":3551:3584   */\n          tag_38\n          jump\t// in\n        tag_88:\n            /* \"#utility.yul\":3447:3590   */\n          swap3\n          swap2\n          pop\n          pop\n          jump\t// out\n            /* \"#utility.yul\":3596:4903   */\n        tag_3:\n            /* \"#utility.yul\":3721:3727   */\n          0x00\n            /* \"#utility.yul\":3729:3735   */\n          dup1\n            /* \"#utility.yul\":3737:3743   */\n          0x00\n            /* \"#utility.yul\":3745:3751   */\n          dup1\n            /* \"#utility.yul\":3753:3759   */\n          0x00\n            /* \"#utility.yul\":3761:3767   */\n          dup1\n            /* \"#utility.yul\":3810:3813   */\n          0xc0\n            /* \"#utility.yul\":3798:3807   */\n          dup8\n            /* \"#utility.yul\":3789:3796   */\n          dup10\n            /* \"#utility.yul\":3785:3808   */\n          sub\n            /* \"#utility.yul\":3781:3814   */\n          slt\n            /* \"#utility.yul\":3778:3898   */\n          iszero\n          tag_90\n          jumpi\n            /* \"#utility.yul\":3817:3896   */\n          tag_91\n          tag_21\n          jump\t// in\n        tag_91:\n            /* \"#utility.yul\":3778:3898   */\n        tag_90:\n            /* \"#utility.yul\":3937:3938   */\n          0x00\n            /* \"#utility.yul\":3962:4026   */\n          tag_92\n            /* \"#utility.yul\":4018:4025   */\n          dup10\n            /* \"#utility.yul\":4009:4015   */\n          dup3\n            /* \"#utility.yul\":3998:4007   */\n          dup11\n            /* \"#utility.yul\":3994:4016   */\n          add\n            /* \"#utility.yul\":3962:4026   */\n          tag_26\n          jump\t// in\n        tag_92:\n            /* \"#utility.yul\":3952:4026   */\n          swap7\n          pop\n            /* \"#utility.yul\":3908:4036   */\n          pop\n            /* \"#utility.yul\":4096:4098   */\n          0x20\n            /* \"#utility.yul\":4085:4094   */\n          dup8\n            /* \"#utility.yul\":4081:4099   */\n          add\n            /* \"#utility.yul\":4075:4100   */\n          mload\n            /* \"#utility.yul\":4127:4145   */\n          0xffffffffffffffff\n            /* \"#utility.yul\":4119:4125   */\n          dup2\n            /* \"#utility.yul\":4116:4146   */\n          gt\n            /* \"#utility.yul\":4113:4230   */\n          iszero\n          tag_93\n          jumpi\n            /* \"#utility.yul\":4149:4228   */\n          tag_94\n          tag_22\n          jump\t// in\n        tag_94:\n            /* \"#utility.yul\":4113:4230   */\n        tag_93:\n            /* \"#utility.yul\":4254:4328   */\n          tag_95\n            /* \"#utility.yul\":4320:4327   */\n          dup10\n            /* \"#utility.yul\":4311:4317   */\n          dup3\n            /* \"#utility.yul\":4300:4309   */\n          dup11\n            /* \"#utility.yul\":4296:4318   */\n          add\n            /* \"#utility.yul\":4254:4328   */\n          tag_36\n          jump\t// in\n        tag_95:\n            /* \"#utility.yul\":4244:4328   */\n          swap6\n          pop\n            /* \"#utility.yul\":4046:4338   */\n          pop\n            /* \"#utility.yul\":4377:4379   */\n          0x40\n            /* \"#utility.yul\":4403:4467   */\n          tag_96\n            /* \"#utility.yul\":4459:4466   */\n          dup10\n            /* \"#utility.yul\":4450:4456   */\n          dup3\n            /* \"#utility.yul\":4439:4448   */\n          dup11\n            /* \"#utility.yul\":4435:4457   */\n          add\n            /* \"#utility.yul\":4403:4467   */\n          tag_39\n          jump\t// in\n        tag_96:\n            /* \"#utility.yul\":4393:4467   */\n          swap5\n          pop\n            /* \"#utility.yul\":4348:4477   */\n          pop\n            /* \"#utility.yul\":4516:4518   */\n          0x60\n            /* \"#utility.yul\":4542:4606   */\n          tag_97\n            /* \"#utility.yul\":4598:4605   */\n          dup10\n            /* \"#utility.yul\":4589:4595   */\n          dup3\n            /* \"#utility.yul\":4578:4587   */\n          dup11\n            /* \"#utility.yul\":4574:4596   */\n          add\n            /* \"#utility.yul\":4542:4606   */\n          tag_39\n          jump\t// in\n        tag_97:\n            /* \"#utility.yul\":4532:4606   */\n          swap4\n          pop\n            /* \"#utility.yul\":4487:4616   */\n          pop\n            /* \"#utility.yul\":4655:4658   */\n          0x80\n            /* \"#utility.yul\":4682:4746   */\n          tag_98\n            /* \"#utility.yul\":4738:4745   */\n          dup10\n            /* \"#utility.yul\":4729:4735   */\n          dup3\n            /* \"#utility.yul\":4718:4727   */\n          dup11\n            /* \"#utility.yul\":4714:4736   */\n          add\n            /* \"#utility.yul\":4682:4746   */\n          tag_39\n          jump\t// in\n        tag_98:\n            /* \"#utility.yul\":4672:4746   */\n          swap3\n          pop\n            /* \"#utility.yul\":4626:4756   */\n          pop\n            /* \"#utility.yul\":4795:4798   */\n          0xa0\n            /* \"#utility.yul\":4822:4886   */\n          tag_99\n            /* \"#utility.yul\":4878:4885   */\n          dup10\n            /* \"#utility.yul\":4869:4875   */\n          dup3\n            /* \"#utility.yul\":4858:4867   */\n          dup11\n            /* \"#utility.yul\":4854:4876   */\n          add\n            /* \"#utility.yul\":4822:4886   */\n          tag_39\n          jump\t// in\n        tag_99:\n            /* \"#utility.yul\":4812:4886   */\n          swap2\n          pop\n            /* \"#utility.yul\":4766:4896   */\n          pop\n            /* \"#utility.yul\":3596:4903   */\n          swap3\n          swap6\n          pop\n          swap3\n          swap6\n          pop\n          swap3\n          swap6\n          jump\t// out\n            /* \"#utility.yul\":4909:5089   */\n        tag_40:\n            /* \"#utility.yul\":4957:5034   */\n          0x4e487b7100000000000000000000000000000000000000000000000000000000\n            /* \"#utility.yul\":4954:4955   */\n          0x00\n            /* \"#utility.yul\":4947:5035   */\n          mstore\n            /* \"#utility.yul\":5054:5058   */\n          0x22\n            /* \"#utility.yul\":5051:5052   */\n          0x04\n            /* \"#utility.yul\":5044:5059   */\n          mstore\n            /* \"#utility.yul\":5078:5082   */\n          0x24\n            /* \"#utility.yul\":5075:5076   */\n          0x00\n            /* \"#utility.yul\":5068:5083   */\n          revert\n            /* \"#utility.yul\":5095:5415   */\n        tag_10:\n            /* \"#utility.yul\":5139:5145   */\n          0x00\n            /* \"#utility.yul\":5176:5177   */\n          0x02\n            /* \"#utility.yul\":5170:5174   */\n          dup3\n            /* \"#utility.yul\":5166:5178   */\n          div\n            /* \"#utility.yul\":5156:5178   */\n          swap1\n          pop\n            /* \"#utility.yul\":5223:5224   */\n          0x01\n            /* \"#utility.yul\":5217:5221   */\n          dup3\n            /* \"#utility.yul\":5213:5225   */\n          and\n            /* \"#utility.yul\":5244:5262   */\n          dup1\n            /* \"#utility.yul\":5234:5315   */\n          tag_102\n          jumpi\n            /* \"#utility.yul\":5300:5304   */\n          0x7f\n            /* \"#utility.yul\":5292:5298   */\n          dup3\n            /* \"#utility.yul\":5288:5305   */\n          and\n            /* \"#utility.yul\":5278:5305   */\n          swap2\n          pop\n            /* \"#utility.yul\":5234:5315   */\n        tag_102:\n            /* \"#utility.yul\":5362:5364   */\n          0x20\n            /* \"#utility.yul\":5354:5360   */\n          dup3\n            /* \"#utility.yul\":5351:5365   */\n          lt\n            /* \"#utility.yul\":5331:5349   */\n          dup2\n            /* \"#utility.yul\":5328:5366   */\n          sub\n            /* \"#utility.yul\":5325:5409   */\n          tag_103\n          jumpi\n            /* \"#utility.yul\":5381:5399   */\n          tag_104\n          tag_40\n          jump\t// in\n        tag_104:\n            /* \"#utility.yul\":5325:5409   */\n        tag_103:\n            /* \"#utility.yul\":5146:5415   */\n          pop\n            /* \"#utility.yul\":5095:5415   */\n          swap2\n          swap1\n          pop\n          jump\t// out\n            /* \"Campaign.sol\":877:3697  contract Campaign {... */\n        tag_8:\n          dataSize(sub_0)\n          dup1\n          dataOffset(sub_0)\n          0x00\n          codecopy\n          0x00\n          return\n        stop\n\n        sub_0: assembly {\n                /* \"Campaign.sol\":877:3697  contract Campaign {... */\n              mstore(0x40, 0x80)\n              jumpi(tag_1, lt(calldatasize, 0x04))\n              shr(0xe0, calldataload(0x00))\n              dup1\n              0x236b8e3a\n              eq\n              tag_2\n              jumpi\n              dup1\n              0x4111b033\n              eq\n              tag_3\n              jumpi\n              dup1\n              0x4e71d92d\n              eq\n              tag_4\n              jumpi\n              dup1\n              0xd7bb99ba\n              eq\n              tag_5\n              jumpi\n            tag_1:\n              0x00\n              dup1\n              revert\n                /* \"Campaign.sol\":1758:2118  function getCampaign() public view returns (address, uint, string memory, uint, uint, uint, bool, uint256, uint, uint) {... */\n            tag_2:\n              callvalue\n              dup1\n              iszero\n              tag_6\n              jumpi\n              0x00\n              dup1\n              revert\n            tag_6:\n              pop\n              tag_7\n              tag_8\n              jump\t// in\n            tag_7:\n              mload(0x40)\n              tag_9\n              swap11\n              swap10\n              swap9\n              swap8\n              swap7\n              swap6\n              swap5\n              swap4\n              swap3\n              swap2\n              swap1\n              tag_10\n              jump\t// in\n            tag_9:\n              mload(0x40)\n              dup1\n              swap2\n              sub\n              swap1\n              return\n                /* \"Campaign.sol\":3599:3694  function getIsComplete() public view returns (bool) {... */\n            tag_3:\n              callvalue\n              dup1\n              iszero\n              tag_11\n              jumpi\n              0x00\n              dup1\n              revert\n            tag_11:\n              pop\n              tag_12\n              tag_13\n              jump\t// in\n            tag_12:\n              mload(0x40)\n              tag_14\n              swap2\n              swap1\n              tag_15\n              jump\t// in\n            tag_14:\n              mload(0x40)\n              dup1\n              swap2\n              sub\n              swap1\n              return\n                /* \"Campaign.sol\":3370:3591  function claim() public payable {... */\n            tag_4:\n              tag_16\n              tag_17\n              jump\t// in\n            tag_16:\n              stop\n                /* \"Campaign.sol\":2126:3362  function contribute() public payable {... */\n            tag_5:\n              tag_18\n              tag_19\n              jump\t// in\n            tag_18:\n              stop\n                /* \"Campaign.sol\":1758:2118  function getCampaign() public view returns (address, uint, string memory, uint, uint, uint, bool, uint256, uint, uint) {... */\n            tag_8:\n                /* \"Campaign.sol\":1802:1809  address */\n              0x00\n                /* \"Campaign.sol\":1811:1815  uint */\n              dup1\n                /* \"Campaign.sol\":1817:1830  string memory */\n              0x60\n                /* \"Campaign.sol\":1832:1836  uint */\n              0x00\n                /* \"Campaign.sol\":1838:1842  uint */\n              dup1\n                /* \"Campaign.sol\":1844:1848  uint */\n              0x00\n                /* \"Campaign.sol\":1850:1854  bool */\n              dup1\n                /* \"Campaign.sol\":1856:1863  uint256 */\n              0x00\n                /* \"Campaign.sol\":1865:1869  uint */\n              dup1\n                /* \"Campaign.sol\":1871:1875  uint */\n              0x00\n                /* \"Campaign.sol\":1888:1909  Information storage c */\n              dup1\n                /* \"Campaign.sol\":1912:1920  campaign */\n              0x00\n                /* \"Campaign.sol\":1888:1920  Information storage c = campaign */\n              swap1\n              pop\n                /* \"Campaign.sol\":1939:1940  c */\n              dup1\n                /* \"Campaign.sol\":1939:1948  c.manager */\n              0x00\n              add\n              0x00\n              swap1\n              sload\n              swap1\n              0x0100\n              exp\n              swap1\n              div\n              0xffffffffffffffffffffffffffffffffffffffff\n              and\n                /* \"Campaign.sol\":1950:1971  address(this).balance */\n              selfbalance\n                /* \"Campaign.sol\":1973:1974  c */\n              dup3\n                /* \"Campaign.sol\":1973:1979  c.name */\n              0x01\n              add\n                /* \"Campaign.sol\":1981:1982  c */\n              dup4\n                /* \"Campaign.sol\":1981:1998  c.requiredBalance */\n              0x02\n              add\n              sload\n                /* \"Campaign.sol\":2000:2001  c */\n              dup5\n                /* \"Campaign.sol\":2000:2014  c.requiredCost */\n              0x03\n              add\n              sload\n                /* \"Campaign.sol\":2016:2017  c */\n              dup6\n                /* \"Campaign.sol\":2016:2035  c.contributorsCount */\n              0x05\n              add\n              sload\n                /* \"Campaign.sol\":2037:2038  c */\n              dup7\n                /* \"Campaign.sol\":2037:2047  c.complete */\n              0x06\n              add\n              0x00\n              swap1\n              sload\n              swap1\n              0x0100\n              exp\n              swap1\n              div\n              0xff\n              and\n                /* \"Campaign.sol\":2049:2050  c */\n              dup8\n                /* \"Campaign.sol\":2049:2059  c.deadline */\n              0x07\n              add\n              sload\n                /* \"Campaign.sol\":2061:2062  c */\n              dup9\n                /* \"Campaign.sol\":2061:2075  c.contributors */\n              0x04\n              add\n                /* \"Campaign.sol\":2061:2087  c.contributors[msg.sender] */\n              0x00\n                /* \"Campaign.sol\":2076:2086  msg.sender */\n              caller\n                /* \"Campaign.sol\":2061:2087  c.contributors[msg.sender] */\n              0xffffffffffffffffffffffffffffffffffffffff\n              and\n              0xffffffffffffffffffffffffffffffffffffffff\n              and\n              dup2\n              mstore\n              0x20\n              add\n              swap1\n              dup2\n              mstore\n              0x20\n              add\n              0x00\n              keccak256\n              sload\n                /* \"Campaign.sol\":2089:2090  c */\n              dup10\n                /* \"Campaign.sol\":2089:2109  c.minimumContributor */\n              0x08\n              add\n              sload\n                /* \"Campaign.sol\":1931:2110  return (c.manager, address(this).balance, c.name, c.requiredBalance, c.requiredCost, c.contributorsCount, c.complete, c.deadline, c.contributors[msg.sender], c.minimumContributor) */\n              dup8\n              dup1\n              sload\n              tag_21\n              swap1\n              tag_22\n              jump\t// in\n            tag_21:\n              dup1\n              0x1f\n              add\n              0x20\n              dup1\n              swap2\n              div\n              mul\n              0x20\n              add\n              mload(0x40)\n              swap1\n              dup2\n              add\n              0x40\n              mstore\n              dup1\n              swap3\n              swap2\n              swap1\n              dup2\n              dup2\n              mstore\n              0x20\n              add\n              dup3\n              dup1\n              sload\n              tag_23\n              swap1\n              tag_22\n              jump\t// in\n            tag_23:\n              dup1\n              iszero\n              tag_24\n              jumpi\n              dup1\n              0x1f\n              lt\n              tag_25\n              jumpi\n              0x0100\n              dup1\n              dup4\n              sload\n              div\n              mul\n              dup4\n              mstore\n              swap2\n              0x20\n              add\n              swap2\n              jump(tag_24)\n            tag_25:\n              dup3\n              add\n              swap2\n              swap1\n              0x00\n              mstore\n              keccak256(0x00, 0x20)\n              swap1\n            tag_26:\n              dup2\n              sload\n              dup2\n              mstore\n              swap1\n              0x01\n              add\n              swap1\n              0x20\n              add\n              dup1\n              dup4\n              gt\n              tag_26\n              jumpi\n              dup3\n              swap1\n              sub\n              0x1f\n              and\n              dup3\n              add\n              swap2\n            tag_24:\n              pop\n              pop\n              pop\n              pop\n              pop\n              swap8\n              pop\n              swap11\n              pop\n              swap11\n              pop\n              swap11\n              pop\n              swap11\n              pop\n              swap11\n              pop\n              swap11\n              pop\n              swap11\n              pop\n              swap11\n              pop\n              swap11\n              pop\n              swap11\n              pop\n              pop\n                /* \"Campaign.sol\":1758:2118  function getCampaign() public view returns (address, uint, string memory, uint, uint, uint, bool, uint256, uint, uint) {... */\n              swap1\n              swap2\n              swap3\n              swap4\n              swap5\n              swap6\n              swap7\n              swap8\n              swap9\n              swap10\n              jump\t// out\n                /* \"Campaign.sol\":3599:3694  function getIsComplete() public view returns (bool) {... */\n            tag_13:\n                /* \"Campaign.sol\":3645:3649  bool */\n              0x00\n                /* \"Campaign.sol\":3669:3677  campaign */\n              dup1\n                /* \"Campaign.sol\":3669:3686  campaign.complete */\n              0x06\n              add\n              0x00\n              swap1\n              sload\n              swap1\n              0x0100\n              exp\n              swap1\n              div\n              0xff\n              and\n                /* \"Campaign.sol\":3662:3686  return campaign.complete */\n              swap1\n              pop\n                /* \"Campaign.sol\":3599:3694  function getIsComplete() public view returns (bool) {... */\n              swap1\n              jump\t// out\n                /* \"Campaign.sol\":3370:3591  function claim() public payable {... */\n            tag_17:\n                /* \"Campaign.sol\":3440:3448  campaign */\n              0x00\n                /* \"Campaign.sol\":3440:3457  campaign.deadline */\n              0x07\n              add\n              sload\n                /* \"Campaign.sol\":3421:3436  block.timestamp */\n              timestamp\n                /* \"Campaign.sol\":3421:3457  block.timestamp >= campaign.deadline */\n              lt\n              iszero\n                /* \"Campaign.sol\":3413:3458  require(block.timestamp >= campaign.deadline) */\n              tag_29\n              jumpi\n              0x00\n              dup1\n              revert\n            tag_29:\n                /* \"Campaign.sol\":3477:3487  msg.sender */\n              caller\n                /* \"Campaign.sol\":3469:3497  payable(msg.sender).transfer */\n              0xffffffffffffffffffffffffffffffffffffffff\n              and\n                /* \"Campaign.sol\":3469:3532  payable(msg.sender).transfer(campaign.contributors[msg.sender]) */\n              0x08fc\n                /* \"Campaign.sol\":3498:3506  campaign */\n              0x00\n                /* \"Campaign.sol\":3498:3519  campaign.contributors */\n              0x04\n              add\n                /* \"Campaign.sol\":3498:3531  campaign.contributors[msg.sender] */\n              0x00\n                /* \"Campaign.sol\":3520:3530  msg.sender */\n              caller\n                /* \"Campaign.sol\":3498:3531  campaign.contributors[msg.sender] */\n              0xffffffffffffffffffffffffffffffffffffffff\n              and\n              0xffffffffffffffffffffffffffffffffffffffff\n              and\n              dup2\n              mstore\n              0x20\n              add\n              swap1\n              dup2\n              mstore\n              0x20\n              add\n              0x00\n              keccak256\n              sload\n                /* \"Campaign.sol\":3469:3532  payable(msg.sender).transfer(campaign.contributors[msg.sender]) */\n              swap1\n              dup2\n              iszero\n              mul\n              swap1\n              mload(0x40)\n              0x00\n              mload(0x40)\n              dup1\n              dup4\n              sub\n              dup2\n              dup6\n              dup9\n              dup9\n              call\n              swap4\n              pop\n              pop\n              pop\n              pop\n              iszero\n              dup1\n              iszero\n              tag_31\n              jumpi\n              returndatasize\n              0x00\n              dup1\n              returndatacopy\n              revert(0x00, returndatasize)\n            tag_31:\n              pop\n                /* \"Campaign.sol\":3550:3558  campaign */\n              0x00\n                /* \"Campaign.sol\":3550:3571  campaign.contributors */\n              0x04\n              add\n                /* \"Campaign.sol\":3550:3583  campaign.contributors[msg.sender] */\n              0x00\n                /* \"Campaign.sol\":3572:3582  msg.sender */\n              caller\n                /* \"Campaign.sol\":3550:3583  campaign.contributors[msg.sender] */\n              0xffffffffffffffffffffffffffffffffffffffff\n              and\n              0xffffffffffffffffffffffffffffffffffffffff\n              and\n              dup2\n              mstore\n              0x20\n              add\n              swap1\n              dup2\n              mstore\n              0x20\n              add\n              0x00\n              keccak256\n                /* \"Campaign.sol\":3543:3583  delete campaign.contributors[msg.sender] */\n              0x00\n              swap1\n              sstore\n                /* \"Campaign.sol\":3370:3591  function claim() public payable {... */\n              jump\t// out\n                /* \"Campaign.sol\":2126:3362  function contribute() public payable {... */\n            tag_19:\n                /* \"Campaign.sol\":2309:2317  campaign */\n              0x00\n                /* \"Campaign.sol\":2309:2326  campaign.complete */\n              0x06\n              add\n              0x00\n              swap1\n              sload\n              swap1\n              0x0100\n              exp\n              swap1\n              div\n              0xff\n              and\n                /* \"Campaign.sol\":2308:2326  !campaign.complete */\n              iszero\n                /* \"Campaign.sol\":2300:2357  require(!campaign.complete, \"campaign already completed\") */\n              tag_33\n              jumpi\n              mload(0x40)\n              0x08c379a000000000000000000000000000000000000000000000000000000000\n              dup2\n              mstore\n              0x04\n              add\n              tag_34\n              swap1\n              tag_35\n              jump\t// in\n            tag_34:\n              mload(0x40)\n              dup1\n              swap2\n              sub\n              swap1\n              revert\n            tag_33:\n                /* \"Campaign.sol\":2393:2401  campaign */\n              0x00\n                /* \"Campaign.sol\":2393:2414  campaign.requiredCost */\n              0x03\n              add\n              sload\n                /* \"Campaign.sol\":2380:2389  msg.value */\n              callvalue\n                /* \"Campaign.sol\":2380:2414  msg.value >= campaign.requiredCost */\n              lt\n              iszero\n                /* \"Campaign.sol\":2372:2446  require(msg.value >= campaign.requiredCost, \"value less than requirement\") */\n              tag_36\n              jumpi\n              mload(0x40)\n              0x08c379a000000000000000000000000000000000000000000000000000000000\n              dup2\n              mstore\n              0x04\n              add\n              tag_37\n              swap1\n              tag_38\n              jump\t// in\n            tag_37:\n              mload(0x40)\n              dup1\n              swap2\n              sub\n              swap1\n              revert\n            tag_36:\n                /* \"Campaign.sol\":2523:2524  0 */\n              0x00\n                /* \"Campaign.sol\":2492:2500  campaign */\n              dup1\n                /* \"Campaign.sol\":2492:2519  campaign.minimumContributor */\n              0x08\n              add\n              sload\n                /* \"Campaign.sol\":2492:2524  campaign.minimumContributor == 0 */\n              sub\n                /* \"Campaign.sol\":2489:2812  if(campaign.minimumContributor == 0) {... */\n              tag_39\n              jumpi\n                /* \"Campaign.sol\":2602:2611  msg.value */\n              callvalue\n                /* \"Campaign.sol\":2566:2574  campaign */\n              0x00\n                /* \"Campaign.sol\":2566:2587  campaign.contributors */\n              0x04\n              add\n                /* \"Campaign.sol\":2566:2599  campaign.contributors[msg.sender] */\n              0x00\n                /* \"Campaign.sol\":2588:2598  msg.sender */\n              caller\n                /* \"Campaign.sol\":2566:2599  campaign.contributors[msg.sender] */\n              0xffffffffffffffffffffffffffffffffffffffff\n              and\n              0xffffffffffffffffffffffffffffffffffffffff\n              and\n              dup2\n              mstore\n              0x20\n              add\n              swap1\n              dup2\n              mstore\n              0x20\n              add\n              0x00\n              keccak256\n                /* \"Campaign.sol\":2566:2611  campaign.contributors[msg.sender] = msg.value */\n              dup2\n              swap1\n              sstore\n              pop\n                /* \"Campaign.sol\":2626:2634  campaign */\n              0x00\n                /* \"Campaign.sol\":2626:2652  campaign.contributorsCount */\n              0x05\n              add\n              0x00\n                /* \"Campaign.sol\":2626:2654  campaign.contributorsCount++ */\n              dup2\n              sload\n              dup1\n              swap3\n              swap2\n              swap1\n              tag_40\n              swap1\n              tag_41\n              jump\t// in\n            tag_40:\n              swap2\n              swap1\n              pop\n              sstore\n              pop\n                /* \"Campaign.sol\":2489:2812  if(campaign.minimumContributor == 0) {... */\n              jump(tag_42)\n            tag_39:\n                /* \"Campaign.sol\":2748:2757  msg.value */\n              callvalue\n                /* \"Campaign.sol\":2712:2720  campaign */\n              0x00\n                /* \"Campaign.sol\":2712:2733  campaign.contributors */\n              0x04\n              add\n                /* \"Campaign.sol\":2712:2745  campaign.contributors[msg.sender] */\n              0x00\n                /* \"Campaign.sol\":2734:2744  msg.sender */\n              caller\n                /* \"Campaign.sol\":2712:2745  campaign.contributors[msg.sender] */\n              0xffffffffffffffffffffffffffffffffffffffff\n              and\n              0xffffffffffffffffffffffffffffffffffffffff\n              and\n              dup2\n              mstore\n              0x20\n              add\n              swap1\n              dup2\n              mstore\n              0x20\n              add\n              0x00\n              keccak256\n                /* \"Campaign.sol\":2712:2757  campaign.contributors[msg.sender] = msg.value */\n              dup2\n              swap1\n              sstore\n              pop\n                /* \"Campaign.sol\":2772:2780  campaign */\n              0x00\n                /* \"Campaign.sol\":2772:2798  campaign.contributorsCount */\n              0x05\n              add\n              0x00\n                /* \"Campaign.sol\":2772:2800  campaign.contributorsCount++ */\n              dup2\n              sload\n              dup1\n              swap3\n              swap2\n              swap1\n              tag_43\n              swap1\n              tag_41\n              jump\t// in\n            tag_43:\n              swap2\n              swap1\n              pop\n              sstore\n              pop\n                /* \"Campaign.sol\":2489:2812  if(campaign.minimumContributor == 0) {... */\n            tag_42:\n                /* \"Campaign.sol\":2884:2892  campaign */\n              0x00\n                /* \"Campaign.sol\":2884:2908  campaign.requiredBalance */\n              0x02\n              add\n              sload\n                /* \"Campaign.sol\":2859:2880  address(this).balance */\n              selfbalance\n                /* \"Campaign.sol\":2859:2908  address(this).balance >= campaign.requiredBalance */\n              lt\n                /* \"Campaign.sol\":2856:3351  if(address(this).balance >= campaign.requiredBalance) {... */\n              tag_44\n              jumpi\n                /* \"Campaign.sol\":2959:2960  0 */\n              0x00\n                /* \"Campaign.sol\":2928:2936  campaign */\n              dup1\n                /* \"Campaign.sol\":2928:2955  campaign.minimumContributor */\n              0x08\n              add\n              sload\n                /* \"Campaign.sol\":2928:2960  campaign.minimumContributor == 0 */\n              sub\n                /* \"Campaign.sol\":2925:3340  if(campaign.minimumContributor == 0) {... */\n              tag_45\n              jumpi\n                /* \"Campaign.sol\":3010:3018  campaign */\n              0x00\n                /* \"Campaign.sol\":3010:3026  campaign.manager */\n              dup1\n              add\n              0x00\n              swap1\n              sload\n              swap1\n              0x0100\n              exp\n              swap1\n              div\n              0xffffffffffffffffffffffffffffffffffffffff\n              and\n                /* \"Campaign.sol\":3010:3035  campaign.manager.transfer */\n              0xffffffffffffffffffffffffffffffffffffffff\n              and\n                /* \"Campaign.sol\":3010:3058  campaign.manager.transfer(address(this).balance) */\n              0x08fc\n                /* \"Campaign.sol\":3036:3057  address(this).balance */\n              selfbalance\n                /* \"Campaign.sol\":3010:3058  campaign.manager.transfer(address(this).balance) */\n              swap1\n              dup2\n              iszero\n              mul\n              swap1\n              mload(0x40)\n              0x00\n              mload(0x40)\n              dup1\n              dup4\n              sub\n              dup2\n              dup6\n              dup9\n              dup9\n              call\n              swap4\n              pop\n              pop\n              pop\n              pop\n              iszero\n              dup1\n              iszero\n              tag_47\n              jumpi\n              returndatasize\n              0x00\n              dup1\n              returndatacopy\n              revert(0x00, returndatasize)\n            tag_47:\n              pop\n                /* \"Campaign.sol\":3097:3101  true */\n              0x01\n                /* \"Campaign.sol\":3077:3085  campaign */\n              0x00\n                /* \"Campaign.sol\":3077:3094  campaign.complete */\n              0x06\n              add\n              0x00\n                /* \"Campaign.sol\":3077:3101  campaign.complete = true */\n              0x0100\n              exp\n              dup2\n              sload\n              dup2\n              0xff\n              mul\n              not\n              and\n              swap1\n              dup4\n              iszero\n              iszero\n              mul\n              or\n              swap1\n              sstore\n              pop\n                /* \"Campaign.sol\":2925:3340  if(campaign.minimumContributor == 0) {... */\n              jump(tag_48)\n            tag_45:\n                /* \"Campaign.sol\":3156:3164  campaign */\n              0x00\n                /* \"Campaign.sol\":3156:3183  campaign.minimumContributor */\n              0x08\n              add\n              sload\n                /* \"Campaign.sol\":3126:3134  campaign */\n              0x00\n                /* \"Campaign.sol\":3126:3152  campaign.contributorsCount */\n              0x05\n              add\n              sload\n                /* \"Campaign.sol\":3126:3183  campaign.contributorsCount == campaign.minimumContributor */\n              sub\n                /* \"Campaign.sol\":3123:3340  if(campaign.contributorsCount == campaign.minimumContributor) {... */\n              tag_49\n              jumpi\n                /* \"Campaign.sol\":3233:3241  campaign */\n              0x00\n                /* \"Campaign.sol\":3233:3249  campaign.manager */\n              dup1\n              add\n              0x00\n              swap1\n              sload\n              swap1\n              0x0100\n              exp\n              swap1\n              div\n              0xffffffffffffffffffffffffffffffffffffffff\n              and\n                /* \"Campaign.sol\":3233:3258  campaign.manager.transfer */\n              0xffffffffffffffffffffffffffffffffffffffff\n              and\n                /* \"Campaign.sol\":3233:3281  campaign.manager.transfer(address(this).balance) */\n              0x08fc\n                /* \"Campaign.sol\":3259:3280  address(this).balance */\n              selfbalance\n                /* \"Campaign.sol\":3233:3281  campaign.manager.transfer(address(this).balance) */\n              swap1\n              dup2\n              iszero\n              mul\n              swap1\n              mload(0x40)\n              0x00\n              mload(0x40)\n              dup1\n              dup4\n              sub\n              dup2\n              dup6\n              dup9\n              dup9\n              call\n              swap4\n              pop\n              pop\n              pop\n              pop\n              iszero\n              dup1\n              iszero\n              tag_51\n              jumpi\n              returndatasize\n              0x00\n              dup1\n              returndatacopy\n              revert(0x00, returndatasize)\n            tag_51:\n              pop\n                /* \"Campaign.sol\":3320:3324  true */\n              0x01\n                /* \"Campaign.sol\":3300:3308  campaign */\n              0x00\n                /* \"Campaign.sol\":3300:3317  campaign.complete */\n              0x06\n              add\n              0x00\n                /* \"Campaign.sol\":3300:3324  campaign.complete = true */\n              0x0100\n              exp\n              dup2\n              sload\n              dup2\n              0xff\n              mul\n              not\n              and\n              swap1\n              dup4\n              iszero\n              iszero\n              mul\n              or\n              swap1\n              sstore\n              pop\n                /* \"Campaign.sol\":3123:3340  if(campaign.contributorsCount == campaign.minimumContributor) {... */\n            tag_49:\n                /* \"Campaign.sol\":2925:3340  if(campaign.minimumContributor == 0) {... */\n            tag_48:\n                /* \"Campaign.sol\":2856:3351  if(address(this).balance >= campaign.requiredBalance) {... */\n            tag_44:\n                /* \"Campaign.sol\":2126:3362  function contribute() public payable {... */\n              jump\t// out\n                /* \"#utility.yul\":7:133   */\n            tag_52:\n                /* \"#utility.yul\":44:51   */\n              0x00\n                /* \"#utility.yul\":84:126   */\n              0xffffffffffffffffffffffffffffffffffffffff\n                /* \"#utility.yul\":77:82   */\n              dup3\n                /* \"#utility.yul\":73:127   */\n              and\n                /* \"#utility.yul\":62:127   */\n              swap1\n              pop\n                /* \"#utility.yul\":7:133   */\n              swap2\n              swap1\n              pop\n              jump\t// out\n                /* \"#utility.yul\":139:235   */\n            tag_53:\n                /* \"#utility.yul\":176:183   */\n              0x00\n                /* \"#utility.yul\":205:229   */\n              tag_73\n                /* \"#utility.yul\":223:228   */\n              dup3\n                /* \"#utility.yul\":205:229   */\n              tag_52\n              jump\t// in\n            tag_73:\n                /* \"#utility.yul\":194:229   */\n              swap1\n              pop\n                /* \"#utility.yul\":139:235   */\n              swap2\n              swap1\n              pop\n              jump\t// out\n                /* \"#utility.yul\":241:359   */\n            tag_54:\n                /* \"#utility.yul\":328:352   */\n              tag_75\n                /* \"#utility.yul\":346:351   */\n              dup2\n                /* \"#utility.yul\":328:352   */\n              tag_53\n              jump\t// in\n            tag_75:\n                /* \"#utility.yul\":323:326   */\n              dup3\n                /* \"#utility.yul\":316:353   */\n              mstore\n                /* \"#utility.yul\":241:359   */\n              pop\n              pop\n              jump\t// out\n                /* \"#utility.yul\":365:442   */\n            tag_55:\n                /* \"#utility.yul\":402:409   */\n              0x00\n                /* \"#utility.yul\":431:436   */\n              dup2\n                /* \"#utility.yul\":420:436   */\n              swap1\n              pop\n                /* \"#utility.yul\":365:442   */\n              swap2\n              swap1\n              pop\n              jump\t// out\n                /* \"#utility.yul\":448:566   */\n            tag_56:\n                /* \"#utility.yul\":535:559   */\n              tag_78\n                /* \"#utility.yul\":553:558   */\n              dup2\n                /* \"#utility.yul\":535:559   */\n              tag_55\n              jump\t// in\n            tag_78:\n                /* \"#utility.yul\":530:533   */\n              dup3\n                /* \"#utility.yul\":523:560   */\n              mstore\n                /* \"#utility.yul\":448:566   */\n              pop\n              pop\n              jump\t// out\n                /* \"#utility.yul\":572:671   */\n            tag_57:\n                /* \"#utility.yul\":624:630   */\n              0x00\n                /* \"#utility.yul\":658:663   */\n              dup2\n                /* \"#utility.yul\":652:664   */\n              mload\n                /* \"#utility.yul\":642:664   */\n              swap1\n              pop\n                /* \"#utility.yul\":572:671   */\n              swap2\n              swap1\n              pop\n              jump\t// out\n                /* \"#utility.yul\":677:846   */\n            tag_58:\n                /* \"#utility.yul\":761:772   */\n              0x00\n                /* \"#utility.yul\":795:801   */\n              dup3\n                /* \"#utility.yul\":790:793   */\n              dup3\n                /* \"#utility.yul\":783:802   */\n              mstore\n                /* \"#utility.yul\":835:839   */\n              0x20\n                /* \"#utility.yul\":830:833   */\n              dup3\n                /* \"#utility.yul\":826:840   */\n              add\n                /* \"#utility.yul\":811:840   */\n              swap1\n              pop\n                /* \"#utility.yul\":677:846   */\n              swap3\n              swap2\n              pop\n              pop\n              jump\t// out\n                /* \"#utility.yul\":852:1159   */\n            tag_59:\n                /* \"#utility.yul\":920:921   */\n              0x00\n                /* \"#utility.yul\":930:1043   */\n            tag_82:\n                /* \"#utility.yul\":944:950   */\n              dup4\n                /* \"#utility.yul\":941:942   */\n              dup2\n                /* \"#utility.yul\":938:951   */\n              lt\n                /* \"#utility.yul\":930:1043   */\n              iszero\n              tag_84\n              jumpi\n                /* \"#utility.yul\":1029:1030   */\n              dup1\n                /* \"#utility.yul\":1024:1027   */\n              dup3\n                /* \"#utility.yul\":1020:1031   */\n              add\n                /* \"#utility.yul\":1014:1032   */\n              mload\n                /* \"#utility.yul\":1010:1011   */\n              dup2\n                /* \"#utility.yul\":1005:1008   */\n              dup5\n                /* \"#utility.yul\":1001:1012   */\n              add\n                /* \"#utility.yul\":994:1033   */\n              mstore\n                /* \"#utility.yul\":966:968   */\n              0x20\n                /* \"#utility.yul\":963:964   */\n              dup2\n                /* \"#utility.yul\":959:969   */\n              add\n                /* \"#utility.yul\":954:969   */\n              swap1\n              pop\n                /* \"#utility.yul\":930:1043   */\n              jump(tag_82)\n            tag_84:\n                /* \"#utility.yul\":1061:1067   */\n              dup4\n                /* \"#utility.yul\":1058:1059   */\n              dup2\n                /* \"#utility.yul\":1055:1068   */\n              gt\n                /* \"#utility.yul\":1052:1153   */\n              iszero\n              tag_85\n              jumpi\n                /* \"#utility.yul\":1141:1142   */\n              0x00\n                /* \"#utility.yul\":1132:1138   */\n              dup5\n                /* \"#utility.yul\":1127:1130   */\n              dup5\n                /* \"#utility.yul\":1123:1139   */\n              add\n                /* \"#utility.yul\":1116:1143   */\n              mstore\n                /* \"#utility.yul\":1052:1153   */\n            tag_85:\n                /* \"#utility.yul\":901:1159   */\n              pop\n                /* \"#utility.yul\":852:1159   */\n              pop\n              pop\n              pop\n              jump\t// out\n                /* \"#utility.yul\":1165:1267   */\n            tag_60:\n                /* \"#utility.yul\":1206:1212   */\n              0x00\n                /* \"#utility.yul\":1257:1259   */\n              0x1f\n                /* \"#utility.yul\":1253:1260   */\n              not\n                /* \"#utility.yul\":1248:1250   */\n              0x1f\n                /* \"#utility.yul\":1241:1246   */\n              dup4\n                /* \"#utility.yul\":1237:1251   */\n              add\n                /* \"#utility.yul\":1233:1261   */\n              and\n                /* \"#utility.yul\":1223:1261   */\n              swap1\n              pop\n                /* \"#utility.yul\":1165:1267   */\n              swap2\n              swap1\n              pop\n              jump\t// out\n                /* \"#utility.yul\":1273:1637   */\n            tag_61:\n                /* \"#utility.yul\":1361:1364   */\n              0x00\n                /* \"#utility.yul\":1389:1428   */\n              tag_88\n                /* \"#utility.yul\":1422:1427   */\n              dup3\n                /* \"#utility.yul\":1389:1428   */\n              tag_57\n              jump\t// in\n            tag_88:\n                /* \"#utility.yul\":1444:1515   */\n              tag_89\n                /* \"#utility.yul\":1508:1514   */\n              dup2\n                /* \"#utility.yul\":1503:1506   */\n              dup6\n                /* \"#utility.yul\":1444:1515   */\n              tag_58\n              jump\t// in\n            tag_89:\n                /* \"#utility.yul\":1437:1515   */\n              swap4\n              pop\n                /* \"#utility.yul\":1524:1576   */\n              tag_90\n                /* \"#utility.yul\":1569:1575   */\n              dup2\n                /* \"#utility.yul\":1564:1567   */\n              dup6\n                /* \"#utility.yul\":1557:1561   */\n              0x20\n                /* \"#utility.yul\":1550:1555   */\n              dup7\n                /* \"#utility.yul\":1546:1562   */\n              add\n                /* \"#utility.yul\":1524:1576   */\n              tag_59\n              jump\t// in\n            tag_90:\n                /* \"#utility.yul\":1601:1630   */\n              tag_91\n                /* \"#utility.yul\":1623:1629   */\n              dup2\n                /* \"#utility.yul\":1601:1630   */\n              tag_60\n              jump\t// in\n            tag_91:\n                /* \"#utility.yul\":1596:1599   */\n              dup5\n                /* \"#utility.yul\":1592:1631   */\n              add\n                /* \"#utility.yul\":1585:1631   */\n              swap2\n              pop\n                /* \"#utility.yul\":1365:1637   */\n              pop\n                /* \"#utility.yul\":1273:1637   */\n              swap3\n              swap2\n              pop\n              pop\n              jump\t// out\n                /* \"#utility.yul\":1643:1733   */\n            tag_62:\n                /* \"#utility.yul\":1677:1684   */\n              0x00\n                /* \"#utility.yul\":1720:1725   */\n              dup2\n                /* \"#utility.yul\":1713:1726   */\n              iszero\n                /* \"#utility.yul\":1706:1727   */\n              iszero\n                /* \"#utility.yul\":1695:1727   */\n              swap1\n              pop\n                /* \"#utility.yul\":1643:1733   */\n              swap2\n              swap1\n              pop\n              jump\t// out\n                /* \"#utility.yul\":1739:1848   */\n            tag_63:\n                /* \"#utility.yul\":1820:1841   */\n              tag_94\n                /* \"#utility.yul\":1835:1840   */\n              dup2\n                /* \"#utility.yul\":1820:1841   */\n              tag_62\n              jump\t// in\n            tag_94:\n                /* \"#utility.yul\":1815:1818   */\n              dup3\n                /* \"#utility.yul\":1808:1842   */\n              mstore\n                /* \"#utility.yul\":1739:1848   */\n              pop\n              pop\n              jump\t// out\n                /* \"#utility.yul\":1854:3152   */\n            tag_10:\n                /* \"#utility.yul\":2213:2217   */\n              0x00\n                /* \"#utility.yul\":2251:2254   */\n              0x0140\n                /* \"#utility.yul\":2240:2249   */\n              dup3\n                /* \"#utility.yul\":2236:2255   */\n              add\n                /* \"#utility.yul\":2228:2255   */\n              swap1\n              pop\n                /* \"#utility.yul\":2265:2336   */\n              tag_96\n                /* \"#utility.yul\":2333:2334   */\n              0x00\n                /* \"#utility.yul\":2322:2331   */\n              dup4\n                /* \"#utility.yul\":2318:2335   */\n              add\n                /* \"#utility.yul\":2309:2315   */\n              dup14\n                /* \"#utility.yul\":2265:2336   */\n              tag_54\n              jump\t// in\n            tag_96:\n                /* \"#utility.yul\":2346:2418   */\n              tag_97\n                /* \"#utility.yul\":2414:2416   */\n              0x20\n                /* \"#utility.yul\":2403:2412   */\n              dup4\n                /* \"#utility.yul\":2399:2417   */\n              add\n                /* \"#utility.yul\":2390:2396   */\n              dup13\n                /* \"#utility.yul\":2346:2418   */\n              tag_56\n              jump\t// in\n            tag_97:\n                /* \"#utility.yul\":2465:2474   */\n              dup2\n                /* \"#utility.yul\":2459:2463   */\n              dup2\n                /* \"#utility.yul\":2455:2475   */\n              sub\n                /* \"#utility.yul\":2450:2452   */\n              0x40\n                /* \"#utility.yul\":2439:2448   */\n              dup4\n                /* \"#utility.yul\":2435:2453   */\n              add\n                /* \"#utility.yul\":2428:2476   */\n              mstore\n                /* \"#utility.yul\":2493:2571   */\n              tag_98\n                /* \"#utility.yul\":2566:2570   */\n              dup2\n                /* \"#utility.yul\":2557:2563   */\n              dup12\n                /* \"#utility.yul\":2493:2571   */\n              tag_61\n              jump\t// in\n            tag_98:\n                /* \"#utility.yul\":2485:2571   */\n              swap1\n              pop\n                /* \"#utility.yul\":2581:2653   */\n              tag_99\n                /* \"#utility.yul\":2649:2651   */\n              0x60\n                /* \"#utility.yul\":2638:2647   */\n              dup4\n                /* \"#utility.yul\":2634:2652   */\n              add\n                /* \"#utility.yul\":2625:2631   */\n              dup11\n                /* \"#utility.yul\":2581:2653   */\n              tag_56\n              jump\t// in\n            tag_99:\n                /* \"#utility.yul\":2663:2736   */\n              tag_100\n                /* \"#utility.yul\":2731:2734   */\n              0x80\n                /* \"#utility.yul\":2720:2729   */\n              dup4\n                /* \"#utility.yul\":2716:2735   */\n              add\n                /* \"#utility.yul\":2707:2713   */\n              dup10\n                /* \"#utility.yul\":2663:2736   */\n              tag_56\n              jump\t// in\n            tag_100:\n                /* \"#utility.yul\":2746:2819   */\n              tag_101\n                /* \"#utility.yul\":2814:2817   */\n              0xa0\n                /* \"#utility.yul\":2803:2812   */\n              dup4\n                /* \"#utility.yul\":2799:2818   */\n              add\n                /* \"#utility.yul\":2790:2796   */\n              dup9\n                /* \"#utility.yul\":2746:2819   */\n              tag_56\n              jump\t// in\n            tag_101:\n                /* \"#utility.yul\":2829:2896   */\n              tag_102\n                /* \"#utility.yul\":2891:2894   */\n              0xc0\n                /* \"#utility.yul\":2880:2889   */\n              dup4\n                /* \"#utility.yul\":2876:2895   */\n              add\n                /* \"#utility.yul\":2867:2873   */\n              dup8\n                /* \"#utility.yul\":2829:2896   */\n              tag_63\n              jump\t// in\n            tag_102:\n                /* \"#utility.yul\":2906:2979   */\n              tag_103\n                /* \"#utility.yul\":2974:2977   */\n              0xe0\n                /* \"#utility.yul\":2963:2972   */\n              dup4\n                /* \"#utility.yul\":2959:2978   */\n              add\n                /* \"#utility.yul\":2950:2956   */\n              dup7\n                /* \"#utility.yul\":2906:2979   */\n              tag_56\n              jump\t// in\n            tag_103:\n                /* \"#utility.yul\":2989:3062   */\n              tag_104\n                /* \"#utility.yul\":3057:3060   */\n              0x0100\n                /* \"#utility.yul\":3046:3055   */\n              dup4\n                /* \"#utility.yul\":3042:3061   */\n              add\n                /* \"#utility.yul\":3033:3039   */\n              dup6\n                /* \"#utility.yul\":2989:3062   */\n              tag_56\n              jump\t// in\n            tag_104:\n                /* \"#utility.yul\":3072:3145   */\n              tag_105\n                /* \"#utility.yul\":3140:3143   */\n              0x0120\n                /* \"#utility.yul\":3129:3138   */\n              dup4\n                /* \"#utility.yul\":3125:3144   */\n              add\n                /* \"#utility.yul\":3116:3122   */\n              dup5\n                /* \"#utility.yul\":3072:3145   */\n              tag_56\n              jump\t// in\n            tag_105:\n                /* \"#utility.yul\":1854:3152   */\n              swap12\n              swap11\n              pop\n              pop\n              pop\n              pop\n              pop\n              pop\n              pop\n              pop\n              pop\n              pop\n              pop\n              jump\t// out\n                /* \"#utility.yul\":3158:3368   */\n            tag_15:\n                /* \"#utility.yul\":3245:3249   */\n              0x00\n                /* \"#utility.yul\":3283:3285   */\n              0x20\n                /* \"#utility.yul\":3272:3281   */\n              dup3\n                /* \"#utility.yul\":3268:3286   */\n              add\n                /* \"#utility.yul\":3260:3286   */\n              swap1\n              pop\n                /* \"#utility.yul\":3296:3361   */\n              tag_107\n                /* \"#utility.yul\":3358:3359   */\n              0x00\n                /* \"#utility.yul\":3347:3356   */\n              dup4\n                /* \"#utility.yul\":3343:3360   */\n              add\n                /* \"#utility.yul\":3334:3340   */\n              dup5\n                /* \"#utility.yul\":3296:3361   */\n              tag_63\n              jump\t// in\n            tag_107:\n                /* \"#utility.yul\":3158:3368   */\n              swap3\n              swap2\n              pop\n              pop\n              jump\t// out\n                /* \"#utility.yul\":3374:3554   */\n            tag_64:\n                /* \"#utility.yul\":3422:3499   */\n              0x4e487b7100000000000000000000000000000000000000000000000000000000\n                /* \"#utility.yul\":3419:3420   */\n              0x00\n                /* \"#utility.yul\":3412:3500   */\n              mstore\n                /* \"#utility.yul\":3519:3523   */\n              0x22\n                /* \"#utility.yul\":3516:3517   */\n              0x04\n                /* \"#utility.yul\":3509:3524   */\n              mstore\n                /* \"#utility.yul\":3543:3547   */\n              0x24\n                /* \"#utility.yul\":3540:3541   */\n              0x00\n                /* \"#utility.yul\":3533:3548   */\n              revert\n                /* \"#utility.yul\":3560:3880   */\n            tag_22:\n                /* \"#utility.yul\":3604:3610   */\n              0x00\n                /* \"#utility.yul\":3641:3642   */\n              0x02\n                /* \"#utility.yul\":3635:3639   */\n              dup3\n                /* \"#utility.yul\":3631:3643   */\n              div\n                /* \"#utility.yul\":3621:3643   */\n              swap1\n              pop\n                /* \"#utility.yul\":3688:3689   */\n              0x01\n                /* \"#utility.yul\":3682:3686   */\n              dup3\n                /* \"#utility.yul\":3678:3690   */\n              and\n                /* \"#utility.yul\":3709:3727   */\n              dup1\n                /* \"#utility.yul\":3699:3780   */\n              tag_110\n              jumpi\n                /* \"#utility.yul\":3765:3769   */\n              0x7f\n                /* \"#utility.yul\":3757:3763   */\n              dup3\n                /* \"#utility.yul\":3753:3770   */\n              and\n                /* \"#utility.yul\":3743:3770   */\n              swap2\n              pop\n                /* \"#utility.yul\":3699:3780   */\n            tag_110:\n                /* \"#utility.yul\":3827:3829   */\n              0x20\n                /* \"#utility.yul\":3819:3825   */\n              dup3\n                /* \"#utility.yul\":3816:3830   */\n              lt\n                /* \"#utility.yul\":3796:3814   */\n              dup2\n                /* \"#utility.yul\":3793:3831   */\n              sub\n                /* \"#utility.yul\":3790:3874   */\n              tag_111\n              jumpi\n                /* \"#utility.yul\":3846:3864   */\n              tag_112\n              tag_64\n              jump\t// in\n            tag_112:\n                /* \"#utility.yul\":3790:3874   */\n            tag_111:\n                /* \"#utility.yul\":3611:3880   */\n              pop\n                /* \"#utility.yul\":3560:3880   */\n              swap2\n              swap1\n              pop\n              jump\t// out\n                /* \"#utility.yul\":3886:4062   */\n            tag_65:\n                /* \"#utility.yul\":4026:4054   */\n              0x63616d706169676e20616c726561647920636f6d706c65746564000000000000\n                /* \"#utility.yul\":4022:4023   */\n              0x00\n                /* \"#utility.yul\":4014:4020   */\n              dup3\n                /* \"#utility.yul\":4010:4024   */\n              add\n                /* \"#utility.yul\":4003:4055   */\n              mstore\n                /* \"#utility.yul\":3886:4062   */\n              pop\n              jump\t// out\n                /* \"#utility.yul\":4068:4434   */\n            tag_66:\n                /* \"#utility.yul\":4210:4213   */\n              0x00\n                /* \"#utility.yul\":4231:4298   */\n              tag_115\n                /* \"#utility.yul\":4295:4297   */\n              0x1a\n                /* \"#utility.yul\":4290:4293   */\n              dup4\n                /* \"#utility.yul\":4231:4298   */\n              tag_58\n              jump\t// in\n            tag_115:\n                /* \"#utility.yul\":4224:4298   */\n              swap2\n              pop\n                /* \"#utility.yul\":4307:4400   */\n              tag_116\n                /* \"#utility.yul\":4396:4399   */\n              dup3\n                /* \"#utility.yul\":4307:4400   */\n              tag_65\n              jump\t// in\n            tag_116:\n                /* \"#utility.yul\":4425:4427   */\n              0x20\n                /* \"#utility.yul\":4420:4423   */\n              dup3\n                /* \"#utility.yul\":4416:4428   */\n              add\n                /* \"#utility.yul\":4409:4428   */\n              swap1\n              pop\n                /* \"#utility.yul\":4068:4434   */\n              swap2\n              swap1\n              pop\n              jump\t// out\n                /* \"#utility.yul\":4440:4859   */\n            tag_35:\n                /* \"#utility.yul\":4606:4610   */\n              0x00\n                /* \"#utility.yul\":4644:4646   */\n              0x20\n                /* \"#utility.yul\":4633:4642   */\n              dup3\n                /* \"#utility.yul\":4629:4647   */\n              add\n                /* \"#utility.yul\":4621:4647   */\n              swap1\n              pop\n                /* \"#utility.yul\":4693:4702   */\n              dup2\n                /* \"#utility.yul\":4687:4691   */\n              dup2\n                /* \"#utility.yul\":4683:4703   */\n              sub\n                /* \"#utility.yul\":4679:4680   */\n              0x00\n                /* \"#utility.yul\":4668:4677   */\n              dup4\n                /* \"#utility.yul\":4664:4681   */\n              add\n                /* \"#utility.yul\":4657:4704   */\n              mstore\n                /* \"#utility.yul\":4721:4852   */\n              tag_118\n                /* \"#utility.yul\":4847:4851   */\n              dup2\n                /* \"#utility.yul\":4721:4852   */\n              tag_66\n              jump\t// in\n            tag_118:\n                /* \"#utility.yul\":4713:4852   */\n              swap1\n              pop\n                /* \"#utility.yul\":4440:4859   */\n              swap2\n              swap1\n              pop\n              jump\t// out\n                /* \"#utility.yul\":4865:5042   */\n            tag_67:\n                /* \"#utility.yul\":5005:5034   */\n              0x76616c7565206c657373207468616e20726571756972656d656e740000000000\n                /* \"#utility.yul\":5001:5002   */\n              0x00\n                /* \"#utility.yul\":4993:4999   */\n              dup3\n                /* \"#utility.yul\":4989:5003   */\n              add\n                /* \"#utility.yul\":4982:5035   */\n              mstore\n                /* \"#utility.yul\":4865:5042   */\n              pop\n              jump\t// out\n                /* \"#utility.yul\":5048:5414   */\n            tag_68:\n                /* \"#utility.yul\":5190:5193   */\n              0x00\n                /* \"#utility.yul\":5211:5278   */\n              tag_121\n                /* \"#utility.yul\":5275:5277   */\n              0x1b\n                /* \"#utility.yul\":5270:5273   */\n              dup4\n                /* \"#utility.yul\":5211:5278   */\n              tag_58\n              jump\t// in\n            tag_121:\n                /* \"#utility.yul\":5204:5278   */\n              swap2\n              pop\n                /* \"#utility.yul\":5287:5380   */\n              tag_122\n                /* \"#utility.yul\":5376:5379   */\n              dup3\n                /* \"#utility.yul\":5287:5380   */\n              tag_67\n              jump\t// in\n            tag_122:\n                /* \"#utility.yul\":5405:5407   */\n              0x20\n                /* \"#utility.yul\":5400:5403   */\n              dup3\n                /* \"#utility.yul\":5396:5408   */\n              add\n                /* \"#utility.yul\":5389:5408   */\n              swap1\n              pop\n                /* \"#utility.yul\":5048:5414   */\n              swap2\n              swap1\n              pop\n              jump\t// out\n                /* \"#utility.yul\":5420:5839   */\n            tag_38:\n                /* \"#utility.yul\":5586:5590   */\n              0x00\n                /* \"#utility.yul\":5624:5626   */\n              0x20\n                /* \"#utility.yul\":5613:5622   */\n              dup3\n                /* \"#utility.yul\":5609:5627   */\n              add\n                /* \"#utility.yul\":5601:5627   */\n              swap1\n              pop\n                /* \"#utility.yul\":5673:5682   */\n              dup2\n                /* \"#utility.yul\":5667:5671   */\n              dup2\n                /* \"#utility.yul\":5663:5683   */\n              sub\n                /* \"#utility.yul\":5659:5660   */\n              0x00\n                /* \"#utility.yul\":5648:5657   */\n              dup4\n                /* \"#utility.yul\":5644:5661   */\n              add\n                /* \"#utility.yul\":5637:5684   */\n              mstore\n                /* \"#utility.yul\":5701:5832   */\n              tag_124\n                /* \"#utility.yul\":5827:5831   */\n              dup2\n                /* \"#utility.yul\":5701:5832   */\n              tag_68\n              jump\t// in\n            tag_124:\n                /* \"#utility.yul\":5693:5832   */\n              swap1\n              pop\n                /* \"#utility.yul\":5420:5839   */\n              swap2\n              swap1\n              pop\n              jump\t// out\n                /* \"#utility.yul\":5845:6025   */\n            tag_69:\n                /* \"#utility.yul\":5893:5970   */\n              0x4e487b7100000000000000000000000000000000000000000000000000000000\n                /* \"#utility.yul\":5890:5891   */\n              0x00\n                /* \"#utility.yul\":5883:5971   */\n              mstore\n                /* \"#utility.yul\":5990:5994   */\n              0x11\n                /* \"#utility.yul\":5987:5988   */\n              0x04\n                /* \"#utility.yul\":5980:5995   */\n              mstore\n                /* \"#utility.yul\":6014:6018   */\n              0x24\n                /* \"#utility.yul\":6011:6012   */\n              0x00\n                /* \"#utility.yul\":6004:6019   */\n              revert\n                /* \"#utility.yul\":6031:6264   */\n            tag_41:\n                /* \"#utility.yul\":6070:6073   */\n              0x00\n                /* \"#utility.yul\":6093:6117   */\n              tag_127\n                /* \"#utility.yul\":6111:6116   */\n              dup3\n                /* \"#utility.yul\":6093:6117   */\n              tag_55\n              jump\t// in\n            tag_127:\n                /* \"#utility.yul\":6084:6117   */\n              swap2\n              pop\n                /* \"#utility.yul\":6139:6205   */\n              0xffffffffffffffffffffffffffffffffffffffffffffffffffffffffffffffff\n                /* \"#utility.yul\":6132:6137   */\n              dup3\n                /* \"#utility.yul\":6129:6206   */\n              sub\n                /* \"#utility.yul\":6126:6229   */\n              tag_128\n              jumpi\n                /* \"#utility.yul\":6209:6227   */\n              tag_129\n              tag_69\n              jump\t// in\n            tag_129:\n                /* \"#utility.yul\":6126:6229   */\n            tag_128:\n                /* \"#utility.yul\":6256:6257   */\n              0x01\n                /* \"#utility.yul\":6249:6254   */\n              dup3\n                /* \"#utility.yul\":6245:6258   */\n              add\n                /* \"#utility.yul\":6238:6258   */\n              swap1\n              pop\n                /* \"#utility.yul\":6031:6264   */\n              swap2\n              swap1\n              pop\n              jump\t// out\n\n            auxdata: 0xa264697066735822122022536674217f5ab0d1c4b573ca9e196653437b32f3362441f9d5e58e0b7ac09564736f6c634300080e0033\n        }\n    }\n\n    auxdata: 0xa26469706673582212203648f687b95ba73923566fea73e9e3f8ad71962aeea25a0528e438b8cc7900c964736f6c634300080e0033\n}\n","bytecode":{"linkReferences":{},"object":"608060405234801561001057600080fd5b50611a43806100206000396000f3fe60806040523480156200001157600080fd5b50600436106200003a5760003560e01c80634acb9d4f146200003f578063c79de09b1462000063575b600080fd5b6200004962000099565b6040516200005a9392919062000795565b60405180910390f35b6200008160048036038101906200007b91906200097d565b6200026a565b60405162000090919062000a35565b60405180910390f35b6060806060600060016002828054806020026020016040519081016040528092919081815260200182805480156200012757602002820191906000526020600020905b8160009054906101000a900473ffffffffffffffffffffffffffffffffffffffff1673ffffffffffffffffffffffffffffffffffffffff1681526020019060010190808311620000dc575b5050505050925081805480602002602001604051908101604052809291908181526020016000905b8282101562000205578382906000526020600020018054620001719062000a81565b80601f01602080910402602001604051908101604052809291908181526020018280546200019f9062000a81565b8015620001f05780601f10620001c457610100808354040283529160200191620001f0565b820191906000526020600020905b815481529060010190602001808311620001d257829003601f168201915b5050505050815260200190600101906200014f565b505050509150808054806020026020016040519081016040528092919081815260200182805480156200025857602002820191906000526020600020905b81548152602001906001019080831162000243575b50505050509050925092509250909192565b600080338787878787604051620002819062000389565b620002929695949392919062000b19565b604051809103906000f080158015620002af573d6000803e3d6000fd5b5090506000819080600181540180825580915050600190039060005260206000200160009091909190916101000a81548173ffffffffffffffffffffffffffffffffffffffff021916908373ffffffffffffffffffffffffffffffffffffffff1602179055506001879080600181540180825580915050600190039060005260206000200160009091909190915090805190602001906200035292919062000397565b5060028490806001815401808255809150506001900390600052602060002001600090919091909150558091505095945050505050565b610e808062000b8e83390190565b828054620003a59062000a81565b90600052602060002090601f016020900481019282620003c9576000855562000415565b82601f10620003e457805160ff191683800117855562000415565b8280016001018555821562000415579182015b8281111562000414578251825591602001919060010190620003f7565b5b50905062000424919062000428565b5090565b5b808211156200044357600081600090555060010162000429565b5090565b600081519050919050565b600082825260208201905092915050565b6000819050602082019050919050565b600073ffffffffffffffffffffffffffffffffffffffff82169050919050565b6000620004a08262000473565b9050919050565b620004b28162000493565b82525050565b6000620004c68383620004a7565b60208301905092915050565b6000602082019050919050565b6000620004ec8262000447565b620004f8818562000452565b9350620005058362000463565b8060005b838110156200053c578151620005208882620004b8565b97506200052d83620004d2565b92505060018101905062000509565b5085935050505092915050565b600081519050919050565b600082825260208201905092915050565b6000819050602082019050919050565b600081519050919050565b600082825260208201905092915050565b60005b83811015620005b157808201518184015260208101905062000594565b83811115620005c1576000848401525b50505050565b6000601f19601f8301169050919050565b6000620005e58262000575565b620005f1818562000580565b93506200060381856020860162000591565b6200060e81620005c7565b840191505092915050565b6000620006278383620005d8565b905092915050565b6000602082019050919050565b6000620006498262000549565b62000655818562000554565b935083602082028501620006698562000565565b8060005b85811015620006ab578484038952815162000689858262000619565b945062000696836200062f565b925060208a019950506001810190506200066d565b50829750879550505050505092915050565b600081519050919050565b600082825260208201905092915050565b6000819050602082019050919050565b6000819050919050565b620006fe81620006e9565b82525050565b6000620007128383620006f3565b60208301905092915050565b6000602082019050919050565b60006200073882620006bd565b620007448185620006c8565b93506200075183620006d9565b8060005b83811015620007885781516200076c888262000704565b975062000779836200071e565b92505060018101905062000755565b5085935050505092915050565b60006060820190508181036000830152620007b18186620004df565b90508181036020830152620007c781856200063c565b90508181036040830152620007dd81846200072b565b9050949350505050565b6000604051905090565b600080fd5b600080fd5b600080fd5b600080fd5b7f4e487b7100000000000000000000000000000000000000000000000000000000600052604160045260246000fd5b6200083f82620005c7565b810181811067ffffffffffffffff8211171562000861576200086062000805565b5b80604052505050565b600062000876620007e7565b905062000884828262000834565b919050565b600067ffffffffffffffff821115620008a757620008a662000805565b5b620008b282620005c7565b9050602081019050919050565b82818337600083830152505050565b6000620008e5620008df8462000889565b6200086a565b90508281526020810184848401111562000904576200090362000800565b5b62000911848285620008bf565b509392505050565b600082601f830112620009315762000930620007fb565b5b813562000943848260208601620008ce565b91505092915050565b6200095781620006e9565b81146200096357600080fd5b50565b60008135905062000977816200094c565b92915050565b600080600080600060a086880312156200099c576200099b620007f1565b5b600086013567ffffffffffffffff811115620009bd57620009bc620007f6565b5b620009cb8882890162000919565b9550506020620009de8882890162000966565b9450506040620009f18882890162000966565b935050606062000a048882890162000966565b925050608062000a178882890162000966565b9150509295509295909350565b62000a2f8162000493565b82525050565b600060208201905062000a4c600083018462000a24565b92915050565b7f4e487b7100000000000000000000000000000000000000000000000000000000600052602260045260246000fd5b6000600282049050600182168062000a9a57607f821691505b60208210810362000ab05762000aaf62000a52565b5b50919050565b600082825260208201905092915050565b600062000ad48262000575565b62000ae0818562000ab6565b935062000af281856020860162000591565b62000afd81620005c7565b840191505092915050565b62000b1381620006e9565b82525050565b600060c08201905062000b30600083018962000a24565b818103602083015262000b44818862000ac7565b905062000b55604083018762000b08565b62000b64606083018662000b08565b62000b73608083018562000b08565b62000b8260a083018462000b08565b97965050505050505056fe60806040523480156200001157600080fd5b5060405162000e8038038062000e808339818101604052810190620000379190620003de565b856000800160006101000a81548173ffffffffffffffffffffffffffffffffffffffff021916908373ffffffffffffffffffffffffffffffffffffffff160217905550846000600101908051906020019062000095929190620000f1565b5083600060020181905550826000600301819055506000806005018190555060008060060160006101000a81548160ff0219169083151502179055508160006007018190555080600060080181905550505050505050620004fd565b828054620000ff90620004c8565b90600052602060002090601f0160209004810192826200012357600085556200016f565b82601f106200013e57805160ff19168380011785556200016f565b828001600101855582156200016f579182015b828111156200016e57825182559160200191906001019062000151565b5b5090506200017e919062000182565b5090565b5b808211156200019d57600081600090555060010162000183565b5090565b6000604051905090565b600080fd5b600080fd5b600073ffffffffffffffffffffffffffffffffffffffff82169050919050565b6000620001e282620001b5565b9050919050565b620001f481620001d5565b81146200020057600080fd5b50565b6000815190506200021481620001e9565b92915050565b600080fd5b600080fd5b6000601f19601f8301169050919050565b7f4e487b7100000000000000000000000000000000000000000000000000000000600052604160045260246000fd5b6200026f8262000224565b810181811067ffffffffffffffff8211171562000291576200029062000235565b5b80604052505050565b6000620002a6620001a1565b9050620002b4828262000264565b919050565b600067ffffffffffffffff821115620002d757620002d662000235565b5b620002e28262000224565b9050602081019050919050565b60005b838110156200030f578082015181840152602081019050620002f2565b838111156200031f576000848401525b50505050565b60006200033c6200033684620002b9565b6200029a565b9050828152602081018484840111156200035b576200035a6200021f565b5b62000368848285620002ef565b509392505050565b600082601f8301126200038857620003876200021a565b5b81516200039a84826020860162000325565b91505092915050565b6000819050919050565b620003b881620003a3565b8114620003c457600080fd5b50565b600081519050620003d881620003ad565b92915050565b60008060008060008060c08789031215620003fe57620003fd620001ab565b5b60006200040e89828a0162000203565b965050602087015167ffffffffffffffff811115620004325762000431620001b0565b5b6200044089828a0162000370565b95505060406200045389828a01620003c7565b94505060606200046689828a01620003c7565b93505060806200047989828a01620003c7565b92505060a06200048c89828a01620003c7565b9150509295509295509295565b7f4e487b7100000000000000000000000000000000000000000000000000000000600052602260045260246000fd5b60006002820490506001821680620004e157607f821691505b602082108103620004f757620004f662000499565b5b50919050565b610973806200050d6000396000f3fe60806040526004361061003f5760003560e01c8063236b8e3a146100445780634111b033146100785780634e71d92d146100a3578063d7bb99ba146100ad575b600080fd5b34801561005057600080fd5b506100596100b7565b60405161006f9a999897969594939291906106d0565b60405180910390f35b34801561008457600080fd5b5061008d610210565b60405161009a9190610773565b60405180910390f35b6100ab610229565b005b6100b561030c565b005b6000806060600080600080600080600080600090508060000160009054906101000a900473ffffffffffffffffffffffffffffffffffffffff1647826001018360020154846003015485600501548660060160009054906101000a900460ff1687600701548860040160003373ffffffffffffffffffffffffffffffffffffffff1673ffffffffffffffffffffffffffffffffffffffff16815260200190815260200160002054896008015487805461016f906107bd565b80601f016020809104026020016040519081016040528092919081815260200182805461019b906107bd565b80156101e85780601f106101bd576101008083540402835291602001916101e8565b820191906000526020600020905b8154815290600101906020018083116101cb57829003601f168201915b505050505097509a509a509a509a509a509a509a509a509a509a505090919293949596979899565b60008060060160009054906101000a900460ff16905090565b60006007015442101561023b57600080fd5b3373ffffffffffffffffffffffffffffffffffffffff166108fc600060040160003373ffffffffffffffffffffffffffffffffffffffff1673ffffffffffffffffffffffffffffffffffffffff168152602001908152602001600020549081150290604051600060405180830381858888f193505050501580156102c3573d6000803e3d6000fd5b50600060040160003373ffffffffffffffffffffffffffffffffffffffff1673ffffffffffffffffffffffffffffffffffffffff16815260200190815260200160002060009055565b600060060160009054906101000a900460ff161561035f576040517f08c379a00000000000000000000000000000000000000000000000000000000081526004016103569061083a565b60405180910390fd5b6000600301543410156103a7576040517f08c379a000000000000000000000000000000000000000000000000000000000815260040161039e906108a6565b60405180910390fd5b600080600801540361041a5734600060040160003373ffffffffffffffffffffffffffffffffffffffff1673ffffffffffffffffffffffffffffffffffffffff1681526020019081526020016000208190555060006005016000815480929190610410906108f5565b919050555061047d565b34600060040160003373ffffffffffffffffffffffffffffffffffffffff1673ffffffffffffffffffffffffffffffffffffffff1681526020019081526020016000208190555060006005016000815480929190610477906108f5565b91905055505b60006002015447106105c0576000806008015403610523576000800160009054906101000a900473ffffffffffffffffffffffffffffffffffffffff1673ffffffffffffffffffffffffffffffffffffffff166108fc479081150290604051600060405180830381858888f193505050501580156104ff573d6000803e3d6000fd5b506001600060060160006101000a81548160ff0219169083151502179055506105bf565b600060080154600060050154036105be576000800160009054906101000a900473ffffffffffffffffffffffffffffffffffffffff1673ffffffffffffffffffffffffffffffffffffffff166108fc479081150290604051600060405180830381858888f1935050505015801561059e573d6000803e3d6000fd5b506001600060060160006101000a81548160ff0219169083151502179055505b5b5b565b600073ffffffffffffffffffffffffffffffffffffffff82169050919050565b60006105ed826105c2565b9050919050565b6105fd816105e2565b82525050565b6000819050919050565b61061681610603565b82525050565b600081519050919050565b600082825260208201905092915050565b60005b8381101561065657808201518184015260208101905061063b565b83811115610665576000848401525b50505050565b6000601f19601f8301169050919050565b60006106878261061c565b6106918185610627565b93506106a1818560208601610638565b6106aa8161066b565b840191505092915050565b60008115159050919050565b6106ca816106b5565b82525050565b6000610140820190506106e6600083018d6105f4565b6106f3602083018c61060d565b8181036040830152610705818b61067c565b9050610714606083018a61060d565b610721608083018961060d565b61072e60a083018861060d565b61073b60c08301876106c1565b61074860e083018661060d565b61075661010083018561060d565b61076461012083018461060d565b9b9a5050505050505050505050565b600060208201905061078860008301846106c1565b92915050565b7f4e487b7100000000000000000000000000000000000000000000000000000000600052602260045260246000fd5b600060028204905060018216806107d557607f821691505b6020821081036107e8576107e761078e565b5b50919050565b7f63616d706169676e20616c726561647920636f6d706c65746564000000000000600082015250565b6000610824601a83610627565b915061082f826107ee565b602082019050919050565b6000602082019050818103600083015261085381610817565b9050919050565b7f76616c7565206c657373207468616e20726571756972656d656e740000000000600082015250565b6000610890601b83610627565b915061089b8261085a565b602082019050919050565b600060208201905081810360008301526108bf81610883565b9050919050565b7f4e487b7100000000000000000000000000000000000000000000000000000000600052601160045260246000fd5b600061090082610603565b91507fffffffffffffffffffffffffffffffffffffffffffffffffffffffffffffffff8203610932576109316108c6565b5b60018201905091905056fea264697066735822122022536674217f5ab0d1c4b573ca9e196653437b32f3362441f9d5e58e0b7ac09564736f6c634300080e0033a26469706673582212203648f687b95ba73923566fea73e9e3f8ad71962aeea25a0528e438b8cc7900c964736f6c634300080e0033","opcodes":"PUSH1 0x80 PUSH1 0x40 MSTORE CALLVALUE DUP1 ISZERO PUSH2 0x10 JUMPI PUSH1 0x0 DUP1 REVERT JUMPDEST POP PUSH2 0x1A43 DUP1 PUSH2 0x20 PUSH1 0x0 CODECOPY PUSH1 0x0 RETURN INVALID PUSH1 0x80 PUSH1 0x40 MSTORE CALLVALUE DUP1 ISZERO PUSH3 0x11 JUMPI PUSH1 0x0 DUP1 REVERT JUMPDEST POP PUSH1 0x4 CALLDATASIZE LT PUSH3 0x3A JUMPI PUSH1 0x0 CALLDATALOAD PUSH1 0xE0 SHR DUP1 PUSH4 0x4ACB9D4F EQ PUSH3 0x3F JUMPI DUP1 PUSH4 0xC79DE09B EQ PUSH3 0x63 JUMPI JUMPDEST PUSH1 0x0 DUP1 REVERT JUMPDEST PUSH3 0x49 PUSH3 0x99 JUMP JUMPDEST PUSH1 0x40 MLOAD PUSH3 0x5A SWAP4 SWAP3 SWAP2 SWAP1 PUSH3 0x795 JUMP JUMPDEST PUSH1 0x40 MLOAD DUP1 SWAP2 SUB SWAP1 RETURN JUMPDEST PUSH3 0x81 PUSH1 0x4 DUP1 CALLDATASIZE SUB DUP2 ADD SWAP1 PUSH3 0x7B SWAP2 SWAP1 PUSH3 0x97D JUMP JUMPDEST PUSH3 0x26A JUMP JUMPDEST PUSH1 0x40 MLOAD PUSH3 0x90 SWAP2 SWAP1 PUSH3 0xA35 JUMP JUMPDEST PUSH1 0x40 MLOAD DUP1 SWAP2 SUB SWAP1 RETURN JUMPDEST PUSH1 0x60 DUP1 PUSH1 0x60 PUSH1 0x0 PUSH1 0x1 PUSH1 0x2 DUP3 DUP1 SLOAD DUP1 PUSH1 0x20 MUL PUSH1 0x20 ADD PUSH1 0x40 MLOAD SWAP1 DUP2 ADD PUSH1 0x40 MSTORE DUP1 SWAP3 SWAP2 SWAP1 DUP2 DUP2 MSTORE PUSH1 0x20 ADD DUP3 DUP1 SLOAD DUP1 ISZERO PUSH3 0x127 JUMPI PUSH1 0x20 MUL DUP3 ADD SWAP2 SWAP1 PUSH1 0x0 MSTORE PUSH1 0x20 PUSH1 0x0 KECCAK256 SWAP1 JUMPDEST DUP2 PUSH1 0x0 SWAP1 SLOAD SWAP1 PUSH2 0x100 EXP SWAP1 DIV PUSH20 0xFFFFFFFFFFFFFFFFFFFFFFFFFFFFFFFFFFFFFFFF AND PUSH20 0xFFFFFFFFFFFFFFFFFFFFFFFFFFFFFFFFFFFFFFFF AND DUP2 MSTORE PUSH1 0x20 ADD SWAP1 PUSH1 0x1 ADD SWAP1 DUP1 DUP4 GT PUSH3 0xDC JUMPI JUMPDEST POP POP POP POP POP SWAP3 POP DUP2 DUP1 SLOAD DUP1 PUSH1 0x20 MUL PUSH1 0x20 ADD PUSH1 0x40 MLOAD SWAP1 DUP2 ADD PUSH1 0x40 MSTORE DUP1 SWAP3 SWAP2 SWAP1 DUP2 DUP2 MSTORE PUSH1 0x20 ADD PUSH1 0x0 SWAP1 JUMPDEST DUP3 DUP3 LT ISZERO PUSH3 0x205 JUMPI DUP4 DUP3 SWAP1 PUSH1 0x0 MSTORE PUSH1 0x20 PUSH1 0x0 KECCAK256 ADD DUP1 SLOAD PUSH3 0x171 SWAP1 PUSH3 0xA81 JUMP JUMPDEST DUP1 PUSH1 0x1F ADD PUSH1 0x20 DUP1 SWAP2 DIV MUL PUSH1 0x20 ADD PUSH1 0x40 MLOAD SWAP1 DUP2 ADD PUSH1 0x40 MSTORE DUP1 SWAP3 SWAP2 SWAP1 DUP2 DUP2 MSTORE PUSH1 0x20 ADD DUP3 DUP1 SLOAD PUSH3 0x19F SWAP1 PUSH3 0xA81 JUMP JUMPDEST DUP1 ISZERO PUSH3 0x1F0 JUMPI DUP1 PUSH1 0x1F LT PUSH3 0x1C4 JUMPI PUSH2 0x100 DUP1 DUP4 SLOAD DIV MUL DUP4 MSTORE SWAP2 PUSH1 0x20 ADD SWAP2 PUSH3 0x1F0 JUMP JUMPDEST DUP3 ADD SWAP2 SWAP1 PUSH1 0x0 MSTORE PUSH1 0x20 PUSH1 0x0 KECCAK256 SWAP1 JUMPDEST DUP2 SLOAD DUP2 MSTORE SWAP1 PUSH1 0x1 ADD SWAP1 PUSH1 0x20 ADD DUP1 DUP4 GT PUSH3 0x1D2 JUMPI DUP3 SWAP1 SUB PUSH1 0x1F AND DUP3 ADD SWAP2 JUMPDEST POP POP POP POP POP DUP2 MSTORE PUSH1 0x20 ADD SWAP1 PUSH1 0x1 ADD SWAP1 PUSH3 0x14F JUMP JUMPDEST POP POP POP POP SWAP2 POP DUP1 DUP1 SLOAD DUP1 PUSH1 0x20 MUL PUSH1 0x20 ADD PUSH1 0x40 MLOAD SWAP1 DUP2 ADD PUSH1 0x40 MSTORE DUP1 SWAP3 SWAP2 SWAP1 DUP2 DUP2 MSTORE PUSH1 0x20 ADD DUP3 DUP1 SLOAD DUP1 ISZERO PUSH3 0x258 JUMPI PUSH1 0x20 MUL DUP3 ADD SWAP2 SWAP1 PUSH1 0x0 MSTORE PUSH1 0x20 PUSH1 0x0 KECCAK256 SWAP1 JUMPDEST DUP2 SLOAD DUP2 MSTORE PUSH1 0x20 ADD SWAP1 PUSH1 0x1 ADD SWAP1 DUP1 DUP4 GT PUSH3 0x243 JUMPI JUMPDEST POP POP POP POP POP SWAP1 POP SWAP3 POP SWAP3 POP SWAP3 POP SWAP1 SWAP2 SWAP3 JUMP JUMPDEST PUSH1 0x0 DUP1 CALLER DUP8 DUP8 DUP8 DUP8 DUP8 PUSH1 0x40 MLOAD PUSH3 0x281 SWAP1 PUSH3 0x389 JUMP JUMPDEST PUSH3 0x292 SWAP7 SWAP6 SWAP5 SWAP4 SWAP3 SWAP2 SWAP1 PUSH3 0xB19 JUMP JUMPDEST PUSH1 0x40 MLOAD DUP1 SWAP2 SUB SWAP1 PUSH1 0x0 CREATE DUP1 ISZERO DUP1 ISZERO PUSH3 0x2AF JUMPI RETURNDATASIZE PUSH1 0x0 DUP1 RETURNDATACOPY RETURNDATASIZE PUSH1 0x0 REVERT JUMPDEST POP SWAP1 POP PUSH1 0x0 DUP2 SWAP1 DUP1 PUSH1 0x1 DUP2 SLOAD ADD DUP1 DUP3 SSTORE DUP1 SWAP2 POP POP PUSH1 0x1 SWAP1 SUB SWAP1 PUSH1 0x0 MSTORE PUSH1 0x20 PUSH1 0x0 KECCAK256 ADD PUSH1 0x0 SWAP1 SWAP2 SWAP1 SWAP2 SWAP1 SWAP2 PUSH2 0x100 EXP DUP2 SLOAD DUP2 PUSH20 0xFFFFFFFFFFFFFFFFFFFFFFFFFFFFFFFFFFFFFFFF MUL NOT AND SWAP1 DUP4 PUSH20 0xFFFFFFFFFFFFFFFFFFFFFFFFFFFFFFFFFFFFFFFF AND MUL OR SWAP1 SSTORE POP PUSH1 0x1 DUP8 SWAP1 DUP1 PUSH1 0x1 DUP2 SLOAD ADD DUP1 DUP3 SSTORE DUP1 SWAP2 POP POP PUSH1 0x1 SWAP1 SUB SWAP1 PUSH1 0x0 MSTORE PUSH1 0x20 PUSH1 0x0 KECCAK256 ADD PUSH1 0x0 SWAP1 SWAP2 SWAP1 SWAP2 SWAP1 SWAP2 POP SWAP1 DUP1 MLOAD SWAP1 PUSH1 0x20 ADD SWAP1 PUSH3 0x352 SWAP3 SWAP2 SWAP1 PUSH3 0x397 JUMP JUMPDEST POP PUSH1 0x2 DUP5 SWAP1 DUP1 PUSH1 0x1 DUP2 SLOAD ADD DUP1 DUP3 SSTORE DUP1 SWAP2 POP POP PUSH1 0x1 SWAP1 SUB SWAP1 PUSH1 0x0 MSTORE PUSH1 0x20 PUSH1 0x0 KECCAK256 ADD PUSH1 0x0 SWAP1 SWAP2 SWAP1 SWAP2 SWAP1 SWAP2 POP SSTORE DUP1 SWAP2 POP POP SWAP6 SWAP5 POP POP POP POP POP JUMP JUMPDEST PUSH2 0xE80 DUP1 PUSH3 0xB8E DUP4 CODECOPY ADD SWAP1 JUMP JUMPDEST DUP3 DUP1 SLOAD PUSH3 0x3A5 SWAP1 PUSH3 0xA81 JUMP JUMPDEST SWAP1 PUSH1 0x0 MSTORE PUSH1 0x20 PUSH1 0x0 KECCAK256 SWAP1 PUSH1 0x1F ADD PUSH1 0x20 SWAP1 DIV DUP2 ADD SWAP3 DUP3 PUSH3 0x3C9 JUMPI PUSH1 0x0 DUP6 SSTORE PUSH3 0x415 JUMP JUMPDEST DUP3 PUSH1 0x1F LT PUSH3 0x3E4 JUMPI DUP1 MLOAD PUSH1 0xFF NOT AND DUP4 DUP1 ADD OR DUP6 SSTORE PUSH3 0x415 JUMP JUMPDEST DUP3 DUP1 ADD PUSH1 0x1 ADD DUP6 SSTORE DUP3 ISZERO PUSH3 0x415 JUMPI SWAP2 DUP3 ADD JUMPDEST DUP3 DUP2 GT ISZERO PUSH3 0x414 JUMPI DUP3 MLOAD DUP3 SSTORE SWAP2 PUSH1 0x20 ADD SWAP2 SWAP1 PUSH1 0x1 ADD SWAP1 PUSH3 0x3F7 JUMP JUMPDEST JUMPDEST POP SWAP1 POP PUSH3 0x424 SWAP2 SWAP1 PUSH3 0x428 JUMP JUMPDEST POP SWAP1 JUMP JUMPDEST JUMPDEST DUP1 DUP3 GT ISZERO PUSH3 0x443 JUMPI PUSH1 0x0 DUP2 PUSH1 0x0 SWAP1 SSTORE POP PUSH1 0x1 ADD PUSH3 0x429 JUMP JUMPDEST POP SWAP1 JUMP JUMPDEST PUSH1 0x0 DUP2 MLOAD SWAP1 POP SWAP2 SWAP1 POP JUMP JUMPDEST PUSH1 0x0 DUP3 DUP3 MSTORE PUSH1 0x20 DUP3 ADD SWAP1 POP SWAP3 SWAP2 POP POP JUMP JUMPDEST PUSH1 0x0 DUP2 SWAP1 POP PUSH1 0x20 DUP3 ADD SWAP1 POP SWAP2 SWAP1 POP JUMP JUMPDEST PUSH1 0x0 PUSH20 0xFFFFFFFFFFFFFFFFFFFFFFFFFFFFFFFFFFFFFFFF DUP3 AND SWAP1 POP SWAP2 SWAP1 POP JUMP JUMPDEST PUSH1 0x0 PUSH3 0x4A0 DUP3 PUSH3 0x473 JUMP JUMPDEST SWAP1 POP SWAP2 SWAP1 POP JUMP JUMPDEST PUSH3 0x4B2 DUP2 PUSH3 0x493 JUMP JUMPDEST DUP3 MSTORE POP POP JUMP JUMPDEST PUSH1 0x0 PUSH3 0x4C6 DUP4 DUP4 PUSH3 0x4A7 JUMP JUMPDEST PUSH1 0x20 DUP4 ADD SWAP1 POP SWAP3 SWAP2 POP POP JUMP JUMPDEST PUSH1 0x0 PUSH1 0x20 DUP3 ADD SWAP1 POP SWAP2 SWAP1 POP JUMP JUMPDEST PUSH1 0x0 PUSH3 0x4EC DUP3 PUSH3 0x447 JUMP JUMPDEST PUSH3 0x4F8 DUP2 DUP6 PUSH3 0x452 JUMP JUMPDEST SWAP4 POP PUSH3 0x505 DUP4 PUSH3 0x463 JUMP JUMPDEST DUP1 PUSH1 0x0 JUMPDEST DUP4 DUP2 LT ISZERO PUSH3 0x53C JUMPI DUP2 MLOAD PUSH3 0x520 DUP9 DUP3 PUSH3 0x4B8 JUMP JUMPDEST SWAP8 POP PUSH3 0x52D DUP4 PUSH3 0x4D2 JUMP JUMPDEST SWAP3 POP POP PUSH1 0x1 DUP2 ADD SWAP1 POP PUSH3 0x509 JUMP JUMPDEST POP DUP6 SWAP4 POP POP POP POP SWAP3 SWAP2 POP POP JUMP JUMPDEST PUSH1 0x0 DUP2 MLOAD SWAP1 POP SWAP2 SWAP1 POP JUMP JUMPDEST PUSH1 0x0 DUP3 DUP3 MSTORE PUSH1 0x20 DUP3 ADD SWAP1 POP SWAP3 SWAP2 POP POP JUMP JUMPDEST PUSH1 0x0 DUP2 SWAP1 POP PUSH1 0x20 DUP3 ADD SWAP1 POP SWAP2 SWAP1 POP JUMP JUMPDEST PUSH1 0x0 DUP2 MLOAD SWAP1 POP SWAP2 SWAP1 POP JUMP JUMPDEST PUSH1 0x0 DUP3 DUP3 MSTORE PUSH1 0x20 DUP3 ADD SWAP1 POP SWAP3 SWAP2 POP POP JUMP JUMPDEST PUSH1 0x0 JUMPDEST DUP4 DUP2 LT ISZERO PUSH3 0x5B1 JUMPI DUP1 DUP3 ADD MLOAD DUP2 DUP5 ADD MSTORE PUSH1 0x20 DUP2 ADD SWAP1 POP PUSH3 0x594 JUMP JUMPDEST DUP4 DUP2 GT ISZERO PUSH3 0x5C1 JUMPI PUSH1 0x0 DUP5 DUP5 ADD MSTORE JUMPDEST POP POP POP POP JUMP JUMPDEST PUSH1 0x0 PUSH1 0x1F NOT PUSH1 0x1F DUP4 ADD AND SWAP1 POP SWAP2 SWAP1 POP JUMP JUMPDEST PUSH1 0x0 PUSH3 0x5E5 DUP3 PUSH3 0x575 JUMP JUMPDEST PUSH3 0x5F1 DUP2 DUP6 PUSH3 0x580 JUMP JUMPDEST SWAP4 POP PUSH3 0x603 DUP2 DUP6 PUSH1 0x20 DUP7 ADD PUSH3 0x591 JUMP JUMPDEST PUSH3 0x60E DUP2 PUSH3 0x5C7 JUMP JUMPDEST DUP5 ADD SWAP2 POP POP SWAP3 SWAP2 POP POP JUMP JUMPDEST PUSH1 0x0 PUSH3 0x627 DUP4 DUP4 PUSH3 0x5D8 JUMP JUMPDEST SWAP1 POP SWAP3 SWAP2 POP POP JUMP JUMPDEST PUSH1 0x0 PUSH1 0x20 DUP3 ADD SWAP1 POP SWAP2 SWAP1 POP JUMP JUMPDEST PUSH1 0x0 PUSH3 0x649 DUP3 PUSH3 0x549 JUMP JUMPDEST PUSH3 0x655 DUP2 DUP6 PUSH3 0x554 JUMP JUMPDEST SWAP4 POP DUP4 PUSH1 0x20 DUP3 MUL DUP6 ADD PUSH3 0x669 DUP6 PUSH3 0x565 JUMP JUMPDEST DUP1 PUSH1 0x0 JUMPDEST DUP6 DUP2 LT ISZERO PUSH3 0x6AB JUMPI DUP5 DUP5 SUB DUP10 MSTORE DUP2 MLOAD PUSH3 0x689 DUP6 DUP3 PUSH3 0x619 JUMP JUMPDEST SWAP5 POP PUSH3 0x696 DUP4 PUSH3 0x62F JUMP JUMPDEST SWAP3 POP PUSH1 0x20 DUP11 ADD SWAP10 POP POP PUSH1 0x1 DUP2 ADD SWAP1 POP PUSH3 0x66D JUMP JUMPDEST POP DUP3 SWAP8 POP DUP8 SWAP6 POP POP POP POP POP POP SWAP3 SWAP2 POP POP JUMP JUMPDEST PUSH1 0x0 DUP2 MLOAD SWAP1 POP SWAP2 SWAP1 POP JUMP JUMPDEST PUSH1 0x0 DUP3 DUP3 MSTORE PUSH1 0x20 DUP3 ADD SWAP1 POP SWAP3 SWAP2 POP POP JUMP JUMPDEST PUSH1 0x0 DUP2 SWAP1 POP PUSH1 0x20 DUP3 ADD SWAP1 POP SWAP2 SWAP1 POP JUMP JUMPDEST PUSH1 0x0 DUP2 SWAP1 POP SWAP2 SWAP1 POP JUMP JUMPDEST PUSH3 0x6FE DUP2 PUSH3 0x6E9 JUMP JUMPDEST DUP3 MSTORE POP POP JUMP JUMPDEST PUSH1 0x0 PUSH3 0x712 DUP4 DUP4 PUSH3 0x6F3 JUMP JUMPDEST PUSH1 0x20 DUP4 ADD SWAP1 POP SWAP3 SWAP2 POP POP JUMP JUMPDEST PUSH1 0x0 PUSH1 0x20 DUP3 ADD SWAP1 POP SWAP2 SWAP1 POP JUMP JUMPDEST PUSH1 0x0 PUSH3 0x738 DUP3 PUSH3 0x6BD JUMP JUMPDEST PUSH3 0x744 DUP2 DUP6 PUSH3 0x6C8 JUMP JUMPDEST SWAP4 POP PUSH3 0x751 DUP4 PUSH3 0x6D9 JUMP JUMPDEST DUP1 PUSH1 0x0 JUMPDEST DUP4 DUP2 LT ISZERO PUSH3 0x788 JUMPI DUP2 MLOAD PUSH3 0x76C DUP9 DUP3 PUSH3 0x704 JUMP JUMPDEST SWAP8 POP PUSH3 0x779 DUP4 PUSH3 0x71E JUMP JUMPDEST SWAP3 POP POP PUSH1 0x1 DUP2 ADD SWAP1 POP PUSH3 0x755 JUMP JUMPDEST POP DUP6 SWAP4 POP POP POP POP SWAP3 SWAP2 POP POP JUMP JUMPDEST PUSH1 0x0 PUSH1 0x60 DUP3 ADD SWAP1 POP DUP2 DUP2 SUB PUSH1 0x0 DUP4 ADD MSTORE PUSH3 0x7B1 DUP2 DUP7 PUSH3 0x4DF JUMP JUMPDEST SWAP1 POP DUP2 DUP2 SUB PUSH1 0x20 DUP4 ADD MSTORE PUSH3 0x7C7 DUP2 DUP6 PUSH3 0x63C JUMP JUMPDEST SWAP1 POP DUP2 DUP2 SUB PUSH1 0x40 DUP4 ADD MSTORE PUSH3 0x7DD DUP2 DUP5 PUSH3 0x72B JUMP JUMPDEST SWAP1 POP SWAP5 SWAP4 POP POP POP POP JUMP JUMPDEST PUSH1 0x0 PUSH1 0x40 MLOAD SWAP1 POP SWAP1 JUMP JUMPDEST PUSH1 0x0 DUP1 REVERT JUMPDEST PUSH1 0x0 DUP1 REVERT JUMPDEST PUSH1 0x0 DUP1 REVERT JUMPDEST PUSH1 0x0 DUP1 REVERT JUMPDEST PUSH32 0x4E487B7100000000000000000000000000000000000000000000000000000000 PUSH1 0x0 MSTORE PUSH1 0x41 PUSH1 0x4 MSTORE PUSH1 0x24 PUSH1 0x0 REVERT JUMPDEST PUSH3 0x83F DUP3 PUSH3 0x5C7 JUMP JUMPDEST DUP2 ADD DUP2 DUP2 LT PUSH8 0xFFFFFFFFFFFFFFFF DUP3 GT OR ISZERO PUSH3 0x861 JUMPI PUSH3 0x860 PUSH3 0x805 JUMP JUMPDEST JUMPDEST DUP1 PUSH1 0x40 MSTORE POP POP POP JUMP JUMPDEST PUSH1 0x0 PUSH3 0x876 PUSH3 0x7E7 JUMP JUMPDEST SWAP1 POP PUSH3 0x884 DUP3 DUP3 PUSH3 0x834 JUMP JUMPDEST SWAP2 SWAP1 POP JUMP JUMPDEST PUSH1 0x0 PUSH8 0xFFFFFFFFFFFFFFFF DUP3 GT ISZERO PUSH3 0x8A7 JUMPI PUSH3 0x8A6 PUSH3 0x805 JUMP JUMPDEST JUMPDEST PUSH3 0x8B2 DUP3 PUSH3 0x5C7 JUMP JUMPDEST SWAP1 POP PUSH1 0x20 DUP2 ADD SWAP1 POP SWAP2 SWAP1 POP JUMP JUMPDEST DUP3 DUP2 DUP4 CALLDATACOPY PUSH1 0x0 DUP4 DUP4 ADD MSTORE POP POP POP JUMP JUMPDEST PUSH1 0x0 PUSH3 0x8E5 PUSH3 0x8DF DUP5 PUSH3 0x889 JUMP JUMPDEST PUSH3 0x86A JUMP JUMPDEST SWAP1 POP DUP3 DUP2 MSTORE PUSH1 0x20 DUP2 ADD DUP5 DUP5 DUP5 ADD GT ISZERO PUSH3 0x904 JUMPI PUSH3 0x903 PUSH3 0x800 JUMP JUMPDEST JUMPDEST PUSH3 0x911 DUP5 DUP3 DUP6 PUSH3 0x8BF JUMP JUMPDEST POP SWAP4 SWAP3 POP POP POP JUMP JUMPDEST PUSH1 0x0 DUP3 PUSH1 0x1F DUP4 ADD SLT PUSH3 0x931 JUMPI PUSH3 0x930 PUSH3 0x7FB JUMP JUMPDEST JUMPDEST DUP2 CALLDATALOAD PUSH3 0x943 DUP5 DUP3 PUSH1 0x20 DUP7 ADD PUSH3 0x8CE JUMP JUMPDEST SWAP2 POP POP SWAP3 SWAP2 POP POP JUMP JUMPDEST PUSH3 0x957 DUP2 PUSH3 0x6E9 JUMP JUMPDEST DUP2 EQ PUSH3 0x963 JUMPI PUSH1 0x0 DUP1 REVERT JUMPDEST POP JUMP JUMPDEST PUSH1 0x0 DUP2 CALLDATALOAD SWAP1 POP PUSH3 0x977 DUP2 PUSH3 0x94C JUMP JUMPDEST SWAP3 SWAP2 POP POP JUMP JUMPDEST PUSH1 0x0 DUP1 PUSH1 0x0 DUP1 PUSH1 0x0 PUSH1 0xA0 DUP7 DUP9 SUB SLT ISZERO PUSH3 0x99C JUMPI PUSH3 0x99B PUSH3 0x7F1 JUMP JUMPDEST JUMPDEST PUSH1 0x0 DUP7 ADD CALLDATALOAD PUSH8 0xFFFFFFFFFFFFFFFF DUP2 GT ISZERO PUSH3 0x9BD JUMPI PUSH3 0x9BC PUSH3 0x7F6 JUMP JUMPDEST JUMPDEST PUSH3 0x9CB DUP9 DUP3 DUP10 ADD PUSH3 0x919 JUMP JUMPDEST SWAP6 POP POP PUSH1 0x20 PUSH3 0x9DE DUP9 DUP3 DUP10 ADD PUSH3 0x966 JUMP JUMPDEST SWAP5 POP POP PUSH1 0x40 PUSH3 0x9F1 DUP9 DUP3 DUP10 ADD PUSH3 0x966 JUMP JUMPDEST SWAP4 POP POP PUSH1 0x60 PUSH3 0xA04 DUP9 DUP3 DUP10 ADD PUSH3 0x966 JUMP JUMPDEST SWAP3 POP POP PUSH1 0x80 PUSH3 0xA17 DUP9 DUP3 DUP10 ADD PUSH3 0x966 JUMP JUMPDEST SWAP2 POP POP SWAP3 SWAP6 POP SWAP3 SWAP6 SWAP1 SWAP4 POP JUMP JUMPDEST PUSH3 0xA2F DUP2 PUSH3 0x493 JUMP JUMPDEST DUP3 MSTORE POP POP JUMP JUMPDEST PUSH1 0x0 PUSH1 0x20 DUP3 ADD SWAP1 POP PUSH3 0xA4C PUSH1 0x0 DUP4 ADD DUP5 PUSH3 0xA24 JUMP JUMPDEST SWAP3 SWAP2 POP POP JUMP JUMPDEST PUSH32 0x4E487B7100000000000000000000000000000000000000000000000000000000 PUSH1 0x0 MSTORE PUSH1 0x22 PUSH1 0x4 MSTORE PUSH1 0x24 PUSH1 0x0 REVERT JUMPDEST PUSH1 0x0 PUSH1 0x2 DUP3 DIV SWAP1 POP PUSH1 0x1 DUP3 AND DUP1 PUSH3 0xA9A JUMPI PUSH1 0x7F DUP3 AND SWAP2 POP JUMPDEST PUSH1 0x20 DUP3 LT DUP2 SUB PUSH3 0xAB0 JUMPI PUSH3 0xAAF PUSH3 0xA52 JUMP JUMPDEST JUMPDEST POP SWAP2 SWAP1 POP JUMP JUMPDEST PUSH1 0x0 DUP3 DUP3 MSTORE PUSH1 0x20 DUP3 ADD SWAP1 POP SWAP3 SWAP2 POP POP JUMP JUMPDEST PUSH1 0x0 PUSH3 0xAD4 DUP3 PUSH3 0x575 JUMP JUMPDEST PUSH3 0xAE0 DUP2 DUP6 PUSH3 0xAB6 JUMP JUMPDEST SWAP4 POP PUSH3 0xAF2 DUP2 DUP6 PUSH1 0x20 DUP7 ADD PUSH3 0x591 JUMP JUMPDEST PUSH3 0xAFD DUP2 PUSH3 0x5C7 JUMP JUMPDEST DUP5 ADD SWAP2 POP POP SWAP3 SWAP2 POP POP JUMP JUMPDEST PUSH3 0xB13 DUP2 PUSH3 0x6E9 JUMP JUMPDEST DUP3 MSTORE POP POP JUMP JUMPDEST PUSH1 0x0 PUSH1 0xC0 DUP3 ADD SWAP1 POP PUSH3 0xB30 PUSH1 0x0 DUP4 ADD DUP10 PUSH3 0xA24 JUMP JUMPDEST DUP2 DUP2 SUB PUSH1 0x20 DUP4 ADD MSTORE PUSH3 0xB44 DUP2 DUP9 PUSH3 0xAC7 JUMP JUMPDEST SWAP1 POP PUSH3 0xB55 PUSH1 0x40 DUP4 ADD DUP8 PUSH3 0xB08 JUMP JUMPDEST PUSH3 0xB64 PUSH1 0x60 DUP4 ADD DUP7 PUSH3 0xB08 JUMP JUMPDEST PUSH3 0xB73 PUSH1 0x80 DUP4 ADD DUP6 PUSH3 0xB08 JUMP JUMPDEST PUSH3 0xB82 PUSH1 0xA0 DUP4 ADD DUP5 PUSH3 0xB08 JUMP JUMPDEST SWAP8 SWAP7 POP POP POP POP POP POP POP JUMP INVALID PUSH1 0x80 PUSH1 0x40 MSTORE CALLVALUE DUP1 ISZERO PUSH3 0x11 JUMPI PUSH1 0x0 DUP1 REVERT JUMPDEST POP PUSH1 0x40 MLOAD PUSH3 0xE80 CODESIZE SUB DUP1 PUSH3 0xE80 DUP4 CODECOPY DUP2 DUP2 ADD PUSH1 0x40 MSTORE DUP2 ADD SWAP1 PUSH3 0x37 SWAP2 SWAP1 PUSH3 0x3DE JUMP JUMPDEST DUP6 PUSH1 0x0 DUP1 ADD PUSH1 0x0 PUSH2 0x100 EXP DUP2 SLOAD DUP2 PUSH20 0xFFFFFFFFFFFFFFFFFFFFFFFFFFFFFFFFFFFFFFFF MUL NOT AND SWAP1 DUP4 PUSH20 0xFFFFFFFFFFFFFFFFFFFFFFFFFFFFFFFFFFFFFFFF AND MUL OR SWAP1 SSTORE POP DUP5 PUSH1 0x0 PUSH1 0x1 ADD SWAP1 DUP1 MLOAD SWAP1 PUSH1 0x20 ADD SWAP1 PUSH3 0x95 SWAP3 SWAP2 SWAP1 PUSH3 0xF1 JUMP JUMPDEST POP DUP4 PUSH1 0x0 PUSH1 0x2 ADD DUP2 SWAP1 SSTORE POP DUP3 PUSH1 0x0 PUSH1 0x3 ADD DUP2 SWAP1 SSTORE POP PUSH1 0x0 DUP1 PUSH1 0x5 ADD DUP2 SWAP1 SSTORE POP PUSH1 0x0 DUP1 PUSH1 0x6 ADD PUSH1 0x0 PUSH2 0x100 EXP DUP2 SLOAD DUP2 PUSH1 0xFF MUL NOT AND SWAP1 DUP4 ISZERO ISZERO MUL OR SWAP1 SSTORE POP DUP2 PUSH1 0x0 PUSH1 0x7 ADD DUP2 SWAP1 SSTORE POP DUP1 PUSH1 0x0 PUSH1 0x8 ADD DUP2 SWAP1 SSTORE POP POP POP POP POP POP POP PUSH3 0x4FD JUMP JUMPDEST DUP3 DUP1 SLOAD PUSH3 0xFF SWAP1 PUSH3 0x4C8 JUMP JUMPDEST SWAP1 PUSH1 0x0 MSTORE PUSH1 0x20 PUSH1 0x0 KECCAK256 SWAP1 PUSH1 0x1F ADD PUSH1 0x20 SWAP1 DIV DUP2 ADD SWAP3 DUP3 PUSH3 0x123 JUMPI PUSH1 0x0 DUP6 SSTORE PUSH3 0x16F JUMP JUMPDEST DUP3 PUSH1 0x1F LT PUSH3 0x13E JUMPI DUP1 MLOAD PUSH1 0xFF NOT AND DUP4 DUP1 ADD OR DUP6 SSTORE PUSH3 0x16F JUMP JUMPDEST DUP3 DUP1 ADD PUSH1 0x1 ADD DUP6 SSTORE DUP3 ISZERO PUSH3 0x16F JUMPI SWAP2 DUP3 ADD JUMPDEST DUP3 DUP2 GT ISZERO PUSH3 0x16E JUMPI DUP3 MLOAD DUP3 SSTORE SWAP2 PUSH1 0x20 ADD SWAP2 SWAP1 PUSH1 0x1 ADD SWAP1 PUSH3 0x151 JUMP JUMPDEST JUMPDEST POP SWAP1 POP PUSH3 0x17E SWAP2 SWAP1 PUSH3 0x182 JUMP JUMPDEST POP SWAP1 JUMP JUMPDEST JUMPDEST DUP1 DUP3 GT ISZERO PUSH3 0x19D JUMPI PUSH1 0x0 DUP2 PUSH1 0x0 SWAP1 SSTORE POP PUSH1 0x1 ADD PUSH3 0x183 JUMP JUMPDEST POP SWAP1 JUMP JUMPDEST PUSH1 0x0 PUSH1 0x40 MLOAD SWAP1 POP SWAP1 JUMP JUMPDEST PUSH1 0x0 DUP1 REVERT JUMPDEST PUSH1 0x0 DUP1 REVERT JUMPDEST PUSH1 0x0 PUSH20 0xFFFFFFFFFFFFFFFFFFFFFFFFFFFFFFFFFFFFFFFF DUP3 AND SWAP1 POP SWAP2 SWAP1 POP JUMP JUMPDEST PUSH1 0x0 PUSH3 0x1E2 DUP3 PUSH3 0x1B5 JUMP JUMPDEST SWAP1 POP SWAP2 SWAP1 POP JUMP JUMPDEST PUSH3 0x1F4 DUP2 PUSH3 0x1D5 JUMP JUMPDEST DUP2 EQ PUSH3 0x200 JUMPI PUSH1 0x0 DUP1 REVERT JUMPDEST POP JUMP JUMPDEST PUSH1 0x0 DUP2 MLOAD SWAP1 POP PUSH3 0x214 DUP2 PUSH3 0x1E9 JUMP JUMPDEST SWAP3 SWAP2 POP POP JUMP JUMPDEST PUSH1 0x0 DUP1 REVERT JUMPDEST PUSH1 0x0 DUP1 REVERT JUMPDEST PUSH1 0x0 PUSH1 0x1F NOT PUSH1 0x1F DUP4 ADD AND SWAP1 POP SWAP2 SWAP1 POP JUMP JUMPDEST PUSH32 0x4E487B7100000000000000000000000000000000000000000000000000000000 PUSH1 0x0 MSTORE PUSH1 0x41 PUSH1 0x4 MSTORE PUSH1 0x24 PUSH1 0x0 REVERT JUMPDEST PUSH3 0x26F DUP3 PUSH3 0x224 JUMP JUMPDEST DUP2 ADD DUP2 DUP2 LT PUSH8 0xFFFFFFFFFFFFFFFF DUP3 GT OR ISZERO PUSH3 0x291 JUMPI PUSH3 0x290 PUSH3 0x235 JUMP JUMPDEST JUMPDEST DUP1 PUSH1 0x40 MSTORE POP POP POP JUMP JUMPDEST PUSH1 0x0 PUSH3 0x2A6 PUSH3 0x1A1 JUMP JUMPDEST SWAP1 POP PUSH3 0x2B4 DUP3 DUP3 PUSH3 0x264 JUMP JUMPDEST SWAP2 SWAP1 POP JUMP JUMPDEST PUSH1 0x0 PUSH8 0xFFFFFFFFFFFFFFFF DUP3 GT ISZERO PUSH3 0x2D7 JUMPI PUSH3 0x2D6 PUSH3 0x235 JUMP JUMPDEST JUMPDEST PUSH3 0x2E2 DUP3 PUSH3 0x224 JUMP JUMPDEST SWAP1 POP PUSH1 0x20 DUP2 ADD SWAP1 POP SWAP2 SWAP1 POP JUMP JUMPDEST PUSH1 0x0 JUMPDEST DUP4 DUP2 LT ISZERO PUSH3 0x30F JUMPI DUP1 DUP3 ADD MLOAD DUP2 DUP5 ADD MSTORE PUSH1 0x20 DUP2 ADD SWAP1 POP PUSH3 0x2F2 JUMP JUMPDEST DUP4 DUP2 GT ISZERO PUSH3 0x31F JUMPI PUSH1 0x0 DUP5 DUP5 ADD MSTORE JUMPDEST POP POP POP POP JUMP JUMPDEST PUSH1 0x0 PUSH3 0x33C PUSH3 0x336 DUP5 PUSH3 0x2B9 JUMP JUMPDEST PUSH3 0x29A JUMP JUMPDEST SWAP1 POP DUP3 DUP2 MSTORE PUSH1 0x20 DUP2 ADD DUP5 DUP5 DUP5 ADD GT ISZERO PUSH3 0x35B JUMPI PUSH3 0x35A PUSH3 0x21F JUMP JUMPDEST JUMPDEST PUSH3 0x368 DUP5 DUP3 DUP6 PUSH3 0x2EF JUMP JUMPDEST POP SWAP4 SWAP3 POP POP POP JUMP JUMPDEST PUSH1 0x0 DUP3 PUSH1 0x1F DUP4 ADD SLT PUSH3 0x388 JUMPI PUSH3 0x387 PUSH3 0x21A JUMP JUMPDEST JUMPDEST DUP2 MLOAD PUSH3 0x39A DUP5 DUP3 PUSH1 0x20 DUP7 ADD PUSH3 0x325 JUMP JUMPDEST SWAP2 POP POP SWAP3 SWAP2 POP POP JUMP JUMPDEST PUSH1 0x0 DUP2 SWAP1 POP SWAP2 SWAP1 POP JUMP JUMPDEST PUSH3 0x3B8 DUP2 PUSH3 0x3A3 JUMP JUMPDEST DUP2 EQ PUSH3 0x3C4 JUMPI PUSH1 0x0 DUP1 REVERT JUMPDEST POP JUMP JUMPDEST PUSH1 0x0 DUP2 MLOAD SWAP1 POP PUSH3 0x3D8 DUP2 PUSH3 0x3AD JUMP JUMPDEST SWAP3 SWAP2 POP POP JUMP JUMPDEST PUSH1 0x0 DUP1 PUSH1 0x0 DUP1 PUSH1 0x0 DUP1 PUSH1 0xC0 DUP8 DUP10 SUB SLT ISZERO PUSH3 0x3FE JUMPI PUSH3 0x3FD PUSH3 0x1AB JUMP JUMPDEST JUMPDEST PUSH1 0x0 PUSH3 0x40E DUP10 DUP3 DUP11 ADD PUSH3 0x203 JUMP JUMPDEST SWAP7 POP POP PUSH1 0x20 DUP8 ADD MLOAD PUSH8 0xFFFFFFFFFFFFFFFF DUP2 GT ISZERO PUSH3 0x432 JUMPI PUSH3 0x431 PUSH3 0x1B0 JUMP JUMPDEST JUMPDEST PUSH3 0x440 DUP10 DUP3 DUP11 ADD PUSH3 0x370 JUMP JUMPDEST SWAP6 POP POP PUSH1 0x40 PUSH3 0x453 DUP10 DUP3 DUP11 ADD PUSH3 0x3C7 JUMP JUMPDEST SWAP5 POP POP PUSH1 0x60 PUSH3 0x466 DUP10 DUP3 DUP11 ADD PUSH3 0x3C7 JUMP JUMPDEST SWAP4 POP POP PUSH1 0x80 PUSH3 0x479 DUP10 DUP3 DUP11 ADD PUSH3 0x3C7 JUMP JUMPDEST SWAP3 POP POP PUSH1 0xA0 PUSH3 0x48C DUP10 DUP3 DUP11 ADD PUSH3 0x3C7 JUMP JUMPDEST SWAP2 POP POP SWAP3 SWAP6 POP SWAP3 SWAP6 POP SWAP3 SWAP6 JUMP JUMPDEST PUSH32 0x4E487B7100000000000000000000000000000000000000000000000000000000 PUSH1 0x0 MSTORE PUSH1 0x22 PUSH1 0x4 MSTORE PUSH1 0x24 PUSH1 0x0 REVERT JUMPDEST PUSH1 0x0 PUSH1 0x2 DUP3 DIV SWAP1 POP PUSH1 0x1 DUP3 AND DUP1 PUSH3 0x4E1 JUMPI PUSH1 0x7F DUP3 AND SWAP2 POP JUMPDEST PUSH1 0x20 DUP3 LT DUP2 SUB PUSH3 0x4F7 JUMPI PUSH3 0x4F6 PUSH3 0x499 JUMP JUMPDEST JUMPDEST POP SWAP2 SWAP1 POP JUMP JUMPDEST PUSH2 0x973 DUP1 PUSH3 0x50D PUSH1 0x0 CODECOPY PUSH1 0x0 RETURN INVALID PUSH1 0x80 PUSH1 0x40 MSTORE PUSH1 0x4 CALLDATASIZE LT PUSH2 0x3F JUMPI PUSH1 0x0 CALLDATALOAD PUSH1 0xE0 SHR DUP1 PUSH4 0x236B8E3A EQ PUSH2 0x44 JUMPI DUP1 PUSH4 0x4111B033 EQ PUSH2 0x78 JUMPI DUP1 PUSH4 0x4E71D92D EQ PUSH2 0xA3 JUMPI DUP1 PUSH4 0xD7BB99BA EQ PUSH2 0xAD JUMPI JUMPDEST PUSH1 0x0 DUP1 REVERT JUMPDEST CALLVALUE DUP1 ISZERO PUSH2 0x50 JUMPI PUSH1 0x0 DUP1 REVERT JUMPDEST POP PUSH2 0x59 PUSH2 0xB7 JUMP JUMPDEST PUSH1 0x40 MLOAD PUSH2 0x6F SWAP11 SWAP10 SWAP9 SWAP8 SWAP7 SWAP6 SWAP5 SWAP4 SWAP3 SWAP2 SWAP1 PUSH2 0x6D0 JUMP JUMPDEST PUSH1 0x40 MLOAD DUP1 SWAP2 SUB SWAP1 RETURN JUMPDEST CALLVALUE DUP1 ISZERO PUSH2 0x84 JUMPI PUSH1 0x0 DUP1 REVERT JUMPDEST POP PUSH2 0x8D PUSH2 0x210 JUMP JUMPDEST PUSH1 0x40 MLOAD PUSH2 0x9A SWAP2 SWAP1 PUSH2 0x773 JUMP JUMPDEST PUSH1 0x40 MLOAD DUP1 SWAP2 SUB SWAP1 RETURN JUMPDEST PUSH2 0xAB PUSH2 0x229 JUMP JUMPDEST STOP JUMPDEST PUSH2 0xB5 PUSH2 0x30C JUMP JUMPDEST STOP JUMPDEST PUSH1 0x0 DUP1 PUSH1 0x60 PUSH1 0x0 DUP1 PUSH1 0x0 DUP1 PUSH1 0x0 DUP1 PUSH1 0x0 DUP1 PUSH1 0x0 SWAP1 POP DUP1 PUSH1 0x0 ADD PUSH1 0x0 SWAP1 SLOAD SWAP1 PUSH2 0x100 EXP SWAP1 DIV PUSH20 0xFFFFFFFFFFFFFFFFFFFFFFFFFFFFFFFFFFFFFFFF AND SELFBALANCE DUP3 PUSH1 0x1 ADD DUP4 PUSH1 0x2 ADD SLOAD DUP5 PUSH1 0x3 ADD SLOAD DUP6 PUSH1 0x5 ADD SLOAD DUP7 PUSH1 0x6 ADD PUSH1 0x0 SWAP1 SLOAD SWAP1 PUSH2 0x100 EXP SWAP1 DIV PUSH1 0xFF AND DUP8 PUSH1 0x7 ADD SLOAD DUP9 PUSH1 0x4 ADD PUSH1 0x0 CALLER PUSH20 0xFFFFFFFFFFFFFFFFFFFFFFFFFFFFFFFFFFFFFFFF AND PUSH20 0xFFFFFFFFFFFFFFFFFFFFFFFFFFFFFFFFFFFFFFFF AND DUP2 MSTORE PUSH1 0x20 ADD SWAP1 DUP2 MSTORE PUSH1 0x20 ADD PUSH1 0x0 KECCAK256 SLOAD DUP10 PUSH1 0x8 ADD SLOAD DUP8 DUP1 SLOAD PUSH2 0x16F SWAP1 PUSH2 0x7BD JUMP JUMPDEST DUP1 PUSH1 0x1F ADD PUSH1 0x20 DUP1 SWAP2 DIV MUL PUSH1 0x20 ADD PUSH1 0x40 MLOAD SWAP1 DUP2 ADD PUSH1 0x40 MSTORE DUP1 SWAP3 SWAP2 SWAP1 DUP2 DUP2 MSTORE PUSH1 0x20 ADD DUP3 DUP1 SLOAD PUSH2 0x19B SWAP1 PUSH2 0x7BD JUMP JUMPDEST DUP1 ISZERO PUSH2 0x1E8 JUMPI DUP1 PUSH1 0x1F LT PUSH2 0x1BD JUMPI PUSH2 0x100 DUP1 DUP4 SLOAD DIV MUL DUP4 MSTORE SWAP2 PUSH1 0x20 ADD SWAP2 PUSH2 0x1E8 JUMP JUMPDEST DUP3 ADD SWAP2 SWAP1 PUSH1 0x0 MSTORE PUSH1 0x20 PUSH1 0x0 KECCAK256 SWAP1 JUMPDEST DUP2 SLOAD DUP2 MSTORE SWAP1 PUSH1 0x1 ADD SWAP1 PUSH1 0x20 ADD DUP1 DUP4 GT PUSH2 0x1CB JUMPI DUP3 SWAP1 SUB PUSH1 0x1F AND DUP3 ADD SWAP2 JUMPDEST POP POP POP POP POP SWAP8 POP SWAP11 POP SWAP11 POP SWAP11 POP SWAP11 POP SWAP11 POP SWAP11 POP SWAP11 POP SWAP11 POP SWAP11 POP SWAP11 POP POP SWAP1 SWAP2 SWAP3 SWAP4 SWAP5 SWAP6 SWAP7 SWAP8 SWAP9 SWAP10 JUMP JUMPDEST PUSH1 0x0 DUP1 PUSH1 0x6 ADD PUSH1 0x0 SWAP1 SLOAD SWAP1 PUSH2 0x100 EXP SWAP1 DIV PUSH1 0xFF AND SWAP1 POP SWAP1 JUMP JUMPDEST PUSH1 0x0 PUSH1 0x7 ADD SLOAD TIMESTAMP LT ISZERO PUSH2 0x23B JUMPI PUSH1 0x0 DUP1 REVERT JUMPDEST CALLER PUSH20 0xFFFFFFFFFFFFFFFFFFFFFFFFFFFFFFFFFFFFFFFF AND PUSH2 0x8FC PUSH1 0x0 PUSH1 0x4 ADD PUSH1 0x0 CALLER PUSH20 0xFFFFFFFFFFFFFFFFFFFFFFFFFFFFFFFFFFFFFFFF AND PUSH20 0xFFFFFFFFFFFFFFFFFFFFFFFFFFFFFFFFFFFFFFFF AND DUP2 MSTORE PUSH1 0x20 ADD SWAP1 DUP2 MSTORE PUSH1 0x20 ADD PUSH1 0x0 KECCAK256 SLOAD SWAP1 DUP2 ISZERO MUL SWAP1 PUSH1 0x40 MLOAD PUSH1 0x0 PUSH1 0x40 MLOAD DUP1 DUP4 SUB DUP2 DUP6 DUP9 DUP9 CALL SWAP4 POP POP POP POP ISZERO DUP1 ISZERO PUSH2 0x2C3 JUMPI RETURNDATASIZE PUSH1 0x0 DUP1 RETURNDATACOPY RETURNDATASIZE PUSH1 0x0 REVERT JUMPDEST POP PUSH1 0x0 PUSH1 0x4 ADD PUSH1 0x0 CALLER PUSH20 0xFFFFFFFFFFFFFFFFFFFFFFFFFFFFFFFFFFFFFFFF AND PUSH20 0xFFFFFFFFFFFFFFFFFFFFFFFFFFFFFFFFFFFFFFFF AND DUP2 MSTORE PUSH1 0x20 ADD SWAP1 DUP2 MSTORE PUSH1 0x20 ADD PUSH1 0x0 KECCAK256 PUSH1 0x0 SWAP1 SSTORE JUMP JUMPDEST PUSH1 0x0 PUSH1 0x6 ADD PUSH1 0x0 SWAP1 SLOAD SWAP1 PUSH2 0x100 EXP SWAP1 DIV PUSH1 0xFF AND ISZERO PUSH2 0x35F JUMPI PUSH1 0x40 MLOAD PUSH32 0x8C379A000000000000000000000000000000000000000000000000000000000 DUP2 MSTORE PUSH1 0x4 ADD PUSH2 0x356 SWAP1 PUSH2 0x83A JUMP JUMPDEST PUSH1 0x40 MLOAD DUP1 SWAP2 SUB SWAP1 REVERT JUMPDEST PUSH1 0x0 PUSH1 0x3 ADD SLOAD CALLVALUE LT ISZERO PUSH2 0x3A7 JUMPI PUSH1 0x40 MLOAD PUSH32 0x8C379A000000000000000000000000000000000000000000000000000000000 DUP2 MSTORE PUSH1 0x4 ADD PUSH2 0x39E SWAP1 PUSH2 0x8A6 JUMP JUMPDEST PUSH1 0x40 MLOAD DUP1 SWAP2 SUB SWAP1 REVERT JUMPDEST PUSH1 0x0 DUP1 PUSH1 0x8 ADD SLOAD SUB PUSH2 0x41A JUMPI CALLVALUE PUSH1 0x0 PUSH1 0x4 ADD PUSH1 0x0 CALLER PUSH20 0xFFFFFFFFFFFFFFFFFFFFFFFFFFFFFFFFFFFFFFFF AND PUSH20 0xFFFFFFFFFFFFFFFFFFFFFFFFFFFFFFFFFFFFFFFF AND DUP2 MSTORE PUSH1 0x20 ADD SWAP1 DUP2 MSTORE PUSH1 0x20 ADD PUSH1 0x0 KECCAK256 DUP2 SWAP1 SSTORE POP PUSH1 0x0 PUSH1 0x5 ADD PUSH1 0x0 DUP2 SLOAD DUP1 SWAP3 SWAP2 SWAP1 PUSH2 0x410 SWAP1 PUSH2 0x8F5 JUMP JUMPDEST SWAP2 SWAP1 POP SSTORE POP PUSH2 0x47D JUMP JUMPDEST CALLVALUE PUSH1 0x0 PUSH1 0x4 ADD PUSH1 0x0 CALLER PUSH20 0xFFFFFFFFFFFFFFFFFFFFFFFFFFFFFFFFFFFFFFFF AND PUSH20 0xFFFFFFFFFFFFFFFFFFFFFFFFFFFFFFFFFFFFFFFF AND DUP2 MSTORE PUSH1 0x20 ADD SWAP1 DUP2 MSTORE PUSH1 0x20 ADD PUSH1 0x0 KECCAK256 DUP2 SWAP1 SSTORE POP PUSH1 0x0 PUSH1 0x5 ADD PUSH1 0x0 DUP2 SLOAD DUP1 SWAP3 SWAP2 SWAP1 PUSH2 0x477 SWAP1 PUSH2 0x8F5 JUMP JUMPDEST SWAP2 SWAP1 POP SSTORE POP JUMPDEST PUSH1 0x0 PUSH1 0x2 ADD SLOAD SELFBALANCE LT PUSH2 0x5C0 JUMPI PUSH1 0x0 DUP1 PUSH1 0x8 ADD SLOAD SUB PUSH2 0x523 JUMPI PUSH1 0x0 DUP1 ADD PUSH1 0x0 SWAP1 SLOAD SWAP1 PUSH2 0x100 EXP SWAP1 DIV PUSH20 0xFFFFFFFFFFFFFFFFFFFFFFFFFFFFFFFFFFFFFFFF AND PUSH20 0xFFFFFFFFFFFFFFFFFFFFFFFFFFFFFFFFFFFFFFFF AND PUSH2 0x8FC SELFBALANCE SWAP1 DUP2 ISZERO MUL SWAP1 PUSH1 0x40 MLOAD PUSH1 0x0 PUSH1 0x40 MLOAD DUP1 DUP4 SUB DUP2 DUP6 DUP9 DUP9 CALL SWAP4 POP POP POP POP ISZERO DUP1 ISZERO PUSH2 0x4FF JUMPI RETURNDATASIZE PUSH1 0x0 DUP1 RETURNDATACOPY RETURNDATASIZE PUSH1 0x0 REVERT JUMPDEST POP PUSH1 0x1 PUSH1 0x0 PUSH1 0x6 ADD PUSH1 0x0 PUSH2 0x100 EXP DUP2 SLOAD DUP2 PUSH1 0xFF MUL NOT AND SWAP1 DUP4 ISZERO ISZERO MUL OR SWAP1 SSTORE POP PUSH2 0x5BF JUMP JUMPDEST PUSH1 0x0 PUSH1 0x8 ADD SLOAD PUSH1 0x0 PUSH1 0x5 ADD SLOAD SUB PUSH2 0x5BE JUMPI PUSH1 0x0 DUP1 ADD PUSH1 0x0 SWAP1 SLOAD SWAP1 PUSH2 0x100 EXP SWAP1 DIV PUSH20 0xFFFFFFFFFFFFFFFFFFFFFFFFFFFFFFFFFFFFFFFF AND PUSH20 0xFFFFFFFFFFFFFFFFFFFFFFFFFFFFFFFFFFFFFFFF AND PUSH2 0x8FC SELFBALANCE SWAP1 DUP2 ISZERO MUL SWAP1 PUSH1 0x40 MLOAD PUSH1 0x0 PUSH1 0x40 MLOAD DUP1 DUP4 SUB DUP2 DUP6 DUP9 DUP9 CALL SWAP4 POP POP POP POP ISZERO DUP1 ISZERO PUSH2 0x59E JUMPI RETURNDATASIZE PUSH1 0x0 DUP1 RETURNDATACOPY RETURNDATASIZE PUSH1 0x0 REVERT JUMPDEST POP PUSH1 0x1 PUSH1 0x0 PUSH1 0x6 ADD PUSH1 0x0 PUSH2 0x100 EXP DUP2 SLOAD DUP2 PUSH1 0xFF MUL NOT AND SWAP1 DUP4 ISZERO ISZERO MUL OR SWAP1 SSTORE POP JUMPDEST JUMPDEST JUMPDEST JUMP JUMPDEST PUSH1 0x0 PUSH20 0xFFFFFFFFFFFFFFFFFFFFFFFFFFFFFFFFFFFFFFFF DUP3 AND SWAP1 POP SWAP2 SWAP1 POP JUMP JUMPDEST PUSH1 0x0 PUSH2 0x5ED DUP3 PUSH2 0x5C2 JUMP JUMPDEST SWAP1 POP SWAP2 SWAP1 POP JUMP JUMPDEST PUSH2 0x5FD DUP2 PUSH2 0x5E2 JUMP JUMPDEST DUP3 MSTORE POP POP JUMP JUMPDEST PUSH1 0x0 DUP2 SWAP1 POP SWAP2 SWAP1 POP JUMP JUMPDEST PUSH2 0x616 DUP2 PUSH2 0x603 JUMP JUMPDEST DUP3 MSTORE POP POP JUMP JUMPDEST PUSH1 0x0 DUP2 MLOAD SWAP1 POP SWAP2 SWAP1 POP JUMP JUMPDEST PUSH1 0x0 DUP3 DUP3 MSTORE PUSH1 0x20 DUP3 ADD SWAP1 POP SWAP3 SWAP2 POP POP JUMP JUMPDEST PUSH1 0x0 JUMPDEST DUP4 DUP2 LT ISZERO PUSH2 0x656 JUMPI DUP1 DUP3 ADD MLOAD DUP2 DUP5 ADD MSTORE PUSH1 0x20 DUP2 ADD SWAP1 POP PUSH2 0x63B JUMP JUMPDEST DUP4 DUP2 GT ISZERO PUSH2 0x665 JUMPI PUSH1 0x0 DUP5 DUP5 ADD MSTORE JUMPDEST POP POP POP POP JUMP JUMPDEST PUSH1 0x0 PUSH1 0x1F NOT PUSH1 0x1F DUP4 ADD AND SWAP1 POP SWAP2 SWAP1 POP JUMP JUMPDEST PUSH1 0x0 PUSH2 0x687 DUP3 PUSH2 0x61C JUMP JUMPDEST PUSH2 0x691 DUP2 DUP6 PUSH2 0x627 JUMP JUMPDEST SWAP4 POP PUSH2 0x6A1 DUP2 DUP6 PUSH1 0x20 DUP7 ADD PUSH2 0x638 JUMP JUMPDEST PUSH2 0x6AA DUP2 PUSH2 0x66B JUMP JUMPDEST DUP5 ADD SWAP2 POP POP SWAP3 SWAP2 POP POP JUMP JUMPDEST PUSH1 0x0 DUP2 ISZERO ISZERO SWAP1 POP SWAP2 SWAP1 POP JUMP JUMPDEST PUSH2 0x6CA DUP2 PUSH2 0x6B5 JUMP JUMPDEST DUP3 MSTORE POP POP JUMP JUMPDEST PUSH1 0x0 PUSH2 0x140 DUP3 ADD SWAP1 POP PUSH2 0x6E6 PUSH1 0x0 DUP4 ADD DUP14 PUSH2 0x5F4 JUMP JUMPDEST PUSH2 0x6F3 PUSH1 0x20 DUP4 ADD DUP13 PUSH2 0x60D JUMP JUMPDEST DUP2 DUP2 SUB PUSH1 0x40 DUP4 ADD MSTORE PUSH2 0x705 DUP2 DUP12 PUSH2 0x67C JUMP JUMPDEST SWAP1 POP PUSH2 0x714 PUSH1 0x60 DUP4 ADD DUP11 PUSH2 0x60D JUMP JUMPDEST PUSH2 0x721 PUSH1 0x80 DUP4 ADD DUP10 PUSH2 0x60D JUMP JUMPDEST PUSH2 0x72E PUSH1 0xA0 DUP4 ADD DUP9 PUSH2 0x60D JUMP JUMPDEST PUSH2 0x73B PUSH1 0xC0 DUP4 ADD DUP8 PUSH2 0x6C1 JUMP JUMPDEST PUSH2 0x748 PUSH1 0xE0 DUP4 ADD DUP7 PUSH2 0x60D JUMP JUMPDEST PUSH2 0x756 PUSH2 0x100 DUP4 ADD DUP6 PUSH2 0x60D JUMP JUMPDEST PUSH2 0x764 PUSH2 0x120 DUP4 ADD DUP5 PUSH2 0x60D JUMP JUMPDEST SWAP12 SWAP11 POP POP POP POP POP POP POP POP POP POP POP JUMP JUMPDEST PUSH1 0x0 PUSH1 0x20 DUP3 ADD SWAP1 POP PUSH2 0x788 PUSH1 0x0 DUP4 ADD DUP5 PUSH2 0x6C1 JUMP JUMPDEST SWAP3 SWAP2 POP POP JUMP JUMPDEST PUSH32 0x4E487B7100000000000000000000000000000000000000000000000000000000 PUSH1 0x0 MSTORE PUSH1 0x22 PUSH1 0x4 MSTORE PUSH1 0x24 PUSH1 0x0 REVERT JUMPDEST PUSH1 0x0 PUSH1 0x2 DUP3 DIV SWAP1 POP PUSH1 0x1 DUP3 AND DUP1 PUSH2 0x7D5 JUMPI PUSH1 0x7F DUP3 AND SWAP2 POP JUMPDEST PUSH1 0x20 DUP3 LT DUP2 SUB PUSH2 0x7E8 JUMPI PUSH2 0x7E7 PUSH2 0x78E JUMP JUMPDEST JUMPDEST POP SWAP2 SWAP1 POP JUMP JUMPDEST PUSH32 0x63616D706169676E20616C726561647920636F6D706C65746564000000000000 PUSH1 0x0 DUP3 ADD MSTORE POP JUMP JUMPDEST PUSH1 0x0 PUSH2 0x824 PUSH1 0x1A DUP4 PUSH2 0x627 JUMP JUMPDEST SWAP2 POP PUSH2 0x82F DUP3 PUSH2 0x7EE JUMP JUMPDEST PUSH1 0x20 DUP3 ADD SWAP1 POP SWAP2 SWAP1 POP JUMP JUMPDEST PUSH1 0x0 PUSH1 0x20 DUP3 ADD SWAP1 POP DUP2 DUP2 SUB PUSH1 0x0 DUP4 ADD MSTORE PUSH2 0x853 DUP2 PUSH2 0x817 JUMP JUMPDEST SWAP1 POP SWAP2 SWAP1 POP JUMP JUMPDEST PUSH32 0x76616C7565206C657373207468616E20726571756972656D656E740000000000 PUSH1 0x0 DUP3 ADD MSTORE POP JUMP JUMPDEST PUSH1 0x0 PUSH2 0x890 PUSH1 0x1B DUP4 PUSH2 0x627 JUMP JUMPDEST SWAP2 POP PUSH2 0x89B DUP3 PUSH2 0x85A JUMP JUMPDEST PUSH1 0x20 DUP3 ADD SWAP1 POP SWAP2 SWAP1 POP JUMP JUMPDEST PUSH1 0x0 PUSH1 0x20 DUP3 ADD SWAP1 POP DUP2 DUP2 SUB PUSH1 0x0 DUP4 ADD MSTORE PUSH2 0x8BF DUP2 PUSH2 0x883 JUMP JUMPDEST SWAP1 POP SWAP2 SWAP1 POP JUMP JUMPDEST PUSH32 0x4E487B7100000000000000000000000000000000000000000000000000000000 PUSH1 0x0 MSTORE PUSH1 0x11 PUSH1 0x4 MSTORE PUSH1 0x24 PUSH1 0x0 REVERT JUMPDEST PUSH1 0x0 PUSH2 0x900 DUP3 PUSH2 0x603 JUMP JUMPDEST SWAP2 POP PUSH32 0xFFFFFFFFFFFFFFFFFFFFFFFFFFFFFFFFFFFFFFFFFFFFFFFFFFFFFFFFFFFFFFFF DUP3 SUB PUSH2 0x932 JUMPI PUSH2 0x931 PUSH2 0x8C6 JUMP JUMPDEST JUMPDEST PUSH1 0x1 DUP3 ADD SWAP1 POP SWAP2 SWAP1 POP JUMP INVALID LOG2 PUSH5 0x6970667358 0x22 SLT KECCAK256 0x22 MSTORE8 PUSH7 0x74217F5AB0D1C4 0xB5 PUSH20 0xCA9E196653437B32F3362441F9D5E58E0B7AC095 PUSH5 0x736F6C6343 STOP ADDMOD 0xE STOP CALLER LOG2 PUSH5 0x6970667358 0x22 SLT KECCAK256 CALLDATASIZE BASEFEE 0xF6 DUP8 0xB9 JUMPDEST 0xA7 CODECOPY 0x23 JUMP PUSH16 0xEA73E9E3F8AD71962AEEA25A0528E438 0xB8 0xCC PUSH26 0xC964736F6C634300080E003300000000000000000000000000 "},"gasEstimates":{"creation":{"codeDepositCost":"1344600","executionCost":"1403","totalCost":"1346003"},"external":{"createCampaign(string,uint256,uint256,uint256,uint256)":"infinite","getDeployedCampaigns()":"infinite"}},"methodIdentifiers":{"createCampaign(string,uint256,uint256,uint256,uint256)":"c79de09b","getDeployedCampaigns()":"4acb9d4f"}},"storageLayout":{"storage":[{"astId":4,"contract":"Campaign.sol:CampaignFactory","label":"deployedCampaigns","offset":0,"slot":"0","type":"t_array(t_address)dyn_storage"},{"astId":7,"contract":"Campaign.sol:CampaignFactory","label":"campaignsName","offset":0,"slot":"1","type":"t_array(t_string_storage)dyn_storage"},{"astId":10,"contract":"Campaign.sol:CampaignFactory","label":"deadlines","offset":0,"slot":"2","type":"t_array(t_uint256)dyn_storage"}],"types":{"t_address":{"encoding":"inplace","label":"address","numberOfBytes":"20"},"t_array(t_address)dyn_storage":{"base":"t_address","encoding":"dynamic_array","label":"address[]","numberOfBytes":"32"},"t_array(t_string_storage)dyn_storage":{"base":"t_string_storage","encoding":"dynamic_array","label":"string[]","numberOfBytes":"32"},"t_array(t_uint256)dyn_storage":{"base":"t_uint256","encoding":"dynamic_array","label":"uint256[]","numberOfBytes":"32"},"t_string_storage":{"encoding":"bytes","label":"string","numberOfBytes":"32"},"t_uint256":{"encoding":"inplace","label":"uint256","numberOfBytes":"32"}}},"userdoc":{"kind":"user","methods":{},"version":1}}